0029029070999991903010106004+64333+023450FM-12+000599999V0200901N004119999999N0000001N9-01611+99999100911ADDGF106991999999999999999999
0029029070999991903010113004+64333+023450FM-12+000599999V0200901N006219999999N0000001N9-01561+99999100831ADDGF106991999999999999999999
0029029070999991903010120004+64333+023450FM-12+000599999V0200501N011819999999N0000001N9-01221+99999100401ADDGF104991999999999999999999
0035029070999991903010206004+64333+023450FM-12+000599999V0203601N020119999999N0000001N9-01061+99999100261ADDGF108991999999999999999999MW1721
0029029070999991903010213004+64333+023450FM-12+000599999V0203401N015919999999N0000001N9-01171+99999100421ADDGF106991999999999999999999
0029029070999991903010220004+64333+023450FM-12+000599999V0203201N006219999999N0000001N9-01281+99999100791ADDGF100991999999999999999999
0029029070999991903010306004+64333+023450FM-12+000599999V0202001N013919999999N0000001N9-01221+99999100751ADDGF106991999999999999999999
0029029070999991903010313004+64333+023450FM-12+000599999V0202301N011819999999N0000001N9-00671+99999100701ADDGF100991999999999999999999
0029029070999991903010320004+64333+023450FM-12+000599999V0202301N015919999999N0000001N9-00391+99999100841ADDGF108991999999999999999999
0029029070999991903010406004+64333+023450FM-12+000599999V0201401N009819999999N0000001N9-00611+99999100441ADDGF106991999999999999999999
0029029070999991903010413004+64333+023450FM-12+000599999V0201601N013919999999N0000001N9-00671+99999100121ADDGF107991999999999999999999
0035029070999991903010420004+64333+023450FM-12+000599999V0201601N015919999999N0000001N9-00831+99999099751ADDGF108991999999999999999999MW1701
0035029070999991903010506004+64333+023450FM-12+000599999V0201401N002119999999N0000001N9-00721+99999099661ADDGF108991999999999999999999MW1721
0035029070999991903010513004+64333+023450FM-12+000599999V0209991C000019999999N0000001N9-00671+99999099591ADDGF108991999999999999999999MW1721
0035029070999991903010520004+64333+023450FM-12+000599999V0209991C000019999999N0000001N9-00671+99999099621ADDGF108991999999999999999999MW1721
0035029070999991903010606004+64333+023450FM-12+000599999V0202301N004119999999N0000001N9-00441+99999099941ADDGF108991999999999999999999MW1721
0029029070999991903010613004+64333+023450FM-12+000599999V0209991C000019999999N0000001N9-00441+99999099921ADDGF108991999999999999999999
0029029070999991903010620004+64333+023450FM-12+000599999V0200901N006219999999N0000001N9-00561+99999099741ADDGF108991999999999999999999
0029029070999991903010706004+64333+023450FM-12+000599999V0201601N002119999999N0000001N9-00221+99999099431ADDGF108991999999999999999999
0035029070999991903010713004+64333+023450FM-12+000599999V0201601N002119999999N0000001N9-00221+99999099341ADDGF108991999999999999999999MW1721
0035029070999991903010720004+64333+023450FM-12+000599999V0200901N008219999999N0000001N9-00171+99999098951ADDGF108991999999999999999999MW1721
0035029070999991903010806004+64333+023450FM-12+000599999V0200501N013919999999N0000001N9-00281+99999098681ADDGF108991999999999999999999MW1861
0035029070999991903010813004+64333+023450FM-12+000599999V0200501N015919999999N0000001N9-00441+99999098591ADDGF108991999999999999999999MW1861
0035029070999991903010820004+64333+023450FM-12+000599999V0200501N013919999999N0000001N9-00671+99999098521ADDGF108991999999999999999999MW1861
0029029070999991903010913004+64333+023450FM-12+000599999V0200201N011819999999N0000001N9-00831+99999099301ADDGF108991999999999999999999
0029029070999991903010920004+64333+023450FM-12+000599999V0203601N006219999999N0000001N9-00831+99999099511ADDGF108991999999999999999999
0029029070999991903011006004+64333+023450FM-12+000599999V0202001N011819999999N0000001N9-01001+99999099721ADDGF108991999999999999999999
0029029070999991903011013004+64333+023450FM-12+000599999V0201801N009819999999N0000001N9-00721+99999099321ADDGF108991999999999999999999
0029029070999991903011020004+64333+023450FM-12+000599999V0201601N011819999999N0000001N9-00781+99999099351ADDGF108991999999999999999999
0035029070999991903011106004+64333+023450FM-12+000599999V0200501N015919999999N0000001N9-00941+99999099711ADDGF106991999999999999999999MW1721
0035029070999991903011113004+64333+023450FM-12+000599999V0200201N015919999999N0000001N9-01221+99999099861ADDGF103991999999999999999999MW1721
0029029070999991903011120004+64333+023450FM-12+000599999V0200201N015919999999N0000001N9-01171+99999100481ADDGF100991999999999999999999
0029029070999991903011206004+64333+023450FM-12+000599999V0203201N009819999999N0000001N9-01281+99999101061ADDGF100991999999999999999999
0029029070999991903011213004+64333+023450FM-12+000599999V0202901N008219999999N0000001N9-01281+99999101401ADDGF100991999999999999999999
0029029070999991903011220004+64333+023450FM-12+000599999V0202301N013919999999N0000001N9-01221+99999101201ADDGF100991999999999999999999
0029029070999991903011306004+64333+023450FM-12+000599999V0202501N015919999999N0000001N9-00611+99999101121ADDGF100991999999999999999999
0029029070999991903011313004+64333+023450FM-12+000599999V0202501N020119999999N0000001N9-00171+99999100841ADDGF104991999999999999999999
0029029070999991903011320004+64333+023450FM-12+000599999V0209991C000019999999N0000001N9-00221+99999100981ADDGF100991999999999999999999
0029029070999991903011406004+64333+023450FM-12+000599999V0209991C000019999999N0000001N9-00831+99999101951ADDGF104991999999999999999999
0029029070999991903011413004+64333+023450FM-12+000599999V0201801N008219999999N0000001N9-00671+99999102461ADDGF102991999999999999999999
0029029070999991903011420004+64333+023450FM-12+000599999V0202301N008219999999N0000001N9-00721+99999103021ADDGF100991999999999999999999
0029029070999991903011506004+64333+023450FM-12+000599999V0202701N013919999999N0000001N9-00111+99999102961ADDGF108991999999999999999999
0029029070999991903011513004+64333+023450FM-12+000599999V0202701N009819999999N0000001N9-00171+99999103061ADDGF103991999999999999999999
0029029070999991903011520004+64333+023450FM-12+000599999V0203201N009819999999N0000001N9-00171+99999103401ADDGF100991999999999999999999
0029029070999991903011606004+64333+023450FM-12+000599999V0202701N004119999999N0000001N9-00671+99999103881ADDGF100991999999999999999999
0029029070999991903011613004+64333+023450FM-12+000599999V0202501N006219999999N0000001N9-00671+99999103871ADDGF100991999999999999999999
0029029070999991903011620004+64333+023450FM-12+000599999V0202501N006219999999N0000001N9-00941+99999103821ADDGF100991999999999999999999
0029029070999991903011706004+64333+023450FM-12+000599999V0202301N011819999999N0000001N9-00611+99999103671ADDGF100991999999999999999999
0029029070999991903011713004+64333+023450FM-12+000599999V0202301N011819999999N0000001N9-00611+99999103661ADDGF100991999999999999999999
0035029070999991903011720004+64333+023450FM-12+000599999V0202301N020119999999N0000001N9-00281+99999103591ADDGF108991999999999999999999MW1721
0029029070999991903011806004+64333+023450FM-12+000599999V0202301N011819999999N0000001N9-00561+99999103351ADDGF100991999999999999999999
0029029070999991903011813004+64333+023450FM-12+000599999V0202301N006219999999N0000001N9-00721+99999103271ADDGF100991999999999999999999
0029029070999991903011820004+64333+023450FM-12+000599999V0202301N009819999999N0000001N9-00941+99999103201ADDGF100991999999999999999999
0029029070999991903011906004+64333+023450FM-12+000599999V0202301N011819999999N0000001N9-00781+99999102821ADDGF108991999999999999999999
0029029070999991903011913004+64333+023450FM-12+000599999V0202301N009819999999N0000001N9-00781+99999102391ADDGF108991999999999999999999
0029029070999991903011920004+64333+023450FM-12+000599999V0202301N009819999999N0000001N9-00781+99999102271ADDGF108991999999999999999999
0029029070999991903012006004+64333+023450FM-12+000599999V0203201N008219999999N0000001N9-00501+99999101861ADDGF100991999999999999999999
0029029070999991903012013004+64333+023450FM-12+000599999V0203201N009819999999N0000001N9-00391+99999102581ADDGF100991999999999999999999
0029029070999991903012020004+64333+023450FM-12+000599999V0203201N009819999999N0000001N9-00611+99999102661ADDGF100991999999999999999999
0029029070999991903012106004+64333+023450FM-12+000599999V0202701N004119999999N0000001N9-00611+99999102401ADDGF104991999999999999999999
0029029070999991903012113004+64333+023450FM-12+000599999V0202501N006219999999N0000001N9-00561+99999102391ADDGF104991999999999999999999
0029029070999991903012120004+64333+023450FM-12+000599999V0209991C000019999999N0000001N9-00721+99999102501ADDGF104991999999999999999999
0029029070999991903012206004+64333+023450FM-12+000599999V0201601N004119999999N0000001N9-01111+99999102321ADDGF106991999999999999999999
0029029070999991903012213004+64333+023450FM-12+000599999V0202001N006219999999N0000001N9-00941+99999102261ADDGF108991999999999999999999
0029029070999991903012220004+64333+023450FM-12+000599999V0200501N008219999999N0000001N9-00831+99999102221ADDGF108991999999999999999999
0029029070999991903012306004+64333+023450FM-12+000599999V0201801N013919999999N0000001N9-00501+99999101631ADDGF108991999999999999999999
0029029070999991903012313004+64333+023450FM-12+000599999V0201401N011819999999N0000001N9-00721+99999101621ADDGF108991999999999999999999
0029029070999991903012320004+64333+023450FM-12+000599999V0201401N013919999999N0000001N9-00941+99999101521ADDGF108991999999999999999999
0035029070999991903012406004+64333+023450FM-12+000599999V0201401N013919999999N0000001N9-01111+99999101761ADDGF108991999999999999999999MW1861
0035029070999991903012413004+64333+023450FM-12+000599999V0201401N013919999999N0000001N9-01061+99999101761ADDGF108991999999999999999999MW1861
0035029070999991903012420004+64333+023450FM-12+000599999V0201601N013919999999N0000001N9-01281+99999101871ADDGF108991999999999999999999MW1861
0035029070999991903012506004+64333+023450FM-12+000599999V0201401N020119999999N0000001N9-01221+99999101351ADDGF108991999999999999999999MW1861
0035029070999991903012513004+64333+023450FM-12+000599999V0201601N015919999999N0000001N9-01171+99999101231ADDGF108991999999999999999999MW1861
0035029070999991903012520004+64333+023450FM-12+000599999V0201601N015919999999N0000001N9-01221+99999101071ADDGF108991999999999999999999MW1861
0035029070999991903012606004+64333+023450FM-12+000599999V0201601N027819999999N0000001N9-00781+99999100361ADDGF108991999999999999999999MW1861
0035029070999991903012613004+64333+023450FM-12+000599999V0201601N020119999999N0000001N9-00781+99999100301ADDGF108991999999999999999999MW1861
0035029070999991903012620004+64333+023450FM-12+000599999V0201601N020119999999N0000001N9-00561+99999100361ADDGF108991999999999999999999MW1861
0035029070999991903012706004+64333+023450FM-12+000599999V0201601N015919999999N0000001N9-00391+99999099341ADDGF108991999999999999999999MW1861
0029029070999991903012713004+64333+023450FM-12+000599999V0202301N009819999999N0000001N9+00001+99999098681ADDGF108991999999999999999999
0029029070999991903012720004+64333+023450FM-12+000599999V0202001N006219999999N0000001N9-00171+99999098401ADDGF108991999999999999999999
0029029070999991903012813004+64333+023450FM-12+000599999V0202301N011819999999N0000001N9-00111+99999097991ADDGF103991999999999999999999
0029029070999991903012820004+64333+023450FM-12+000599999V0202301N013919999999N0000001N9-00221+99999097721ADDGF100991999999999999999999
0029029070999991903012906004+64333+023450FM-12+000599999V0202501N006219999999N0000001N9-00441+99999097621ADDGF102991999999999999999999
0029029070999991903012913004+64333+023450FM-12+000599999V0202501N004119999999N0000001N9-00391+99999097781ADDGF100991999999999999999999
0029029070999991903012920004+64333+023450FM-12+000599999V0209991C000019999999N0000001N9-00561+99999097951ADDGF100991999999999999999999
0029029070999991903013006004+64333+023450FM-12+000599999V0201401N004119999999N0000001N9-00721+99999097081ADDGF108991999999999999999999
0029029070999991903013013004+64333+023450FM-12+000599999V0202301N011819999999N0000001N9-00171+99999096791ADDGF105991999999999999999999
0029029070999991903013020004+64333+023450FM-12+000599999V0202301N013919999999N0000001N9-00221+99999096621ADDGF104991999999999999999999
0029029070999991903013106004+64333+023450FM-12+000599999V0203201N008219999999N0000001N9-00721+99999098541ADDGF108991999999999999999999
0029029070999991903013113004+64333+023450FM-12+000599999V0202301N006219999999N0000001N9-00281+99999099321ADDGF106991999999999999999999
0029029070999991903013120004+64333+023450FM-12+000599999V0201601N008219999999N0000001N9-00561+99999099191ADDGF108991999999999999999999
0029029070999991903020106004+64333+023450FM-12+000599999V0202301N009819999999N0000001N9+00001+99999098601ADDGF108991999999999999999999
0029029070999991903020113004+64333+023450FM-12+000599999V0202301N009819999999N0000001N9+00061+99999098521ADDGF108991999999999999999999
0029029070999991903020120004+64333+023450FM-12+000599999V0202301N009819999999N0000001N9-00171+99999098581ADDGF108991999999999999999999
0029029070999991903020206004+64333+023450FM-12+000599999V0202001N013919999999N0000001N9+00001+99999098621ADDGF108991999999999999999999
0029029070999991903020213004+64333+023450FM-12+000599999V0202001N011819999999N0000001N9+00061+99999098391ADDGF108991999999999999999999
0029029070999991903020220004+64333+023450FM-12+000599999V0202901N027819999999N0000001N9-00111+99999098261ADDGF102991999999999999999999
0029029070999991903020306004+64333+023450FM-12+000599999V0203201N013919999999N0000001N9-00171+99999099081ADDGF100991999999999999999999
0029029070999991903020313004+64333+023450FM-12+000599999V0203201N011819999999N0000001N9-00561+99999099511ADDGF100991999999999999999999
0029029070999991903020320004+64333+023450FM-12+000599999V0202901N004119999999N0000001N9-00891+99999100151ADDGF100991999999999999999999
0029029070999991903020406004+64333+023450FM-12+000599999V0209991C000019999999N0000001N9-01001+99999100151ADDGF100991999999999999999999
0029029070999991903020413004+64333+023450FM-12+000599999V0209991C000019999999N0000001N9-01001+99999100341ADDGF104991999999999999999999
0029029070999991903020420004+64333+023450FM-12+000599999V0201801N004119999999N0000001N9-00391+99999100021ADDGF108991999999999999999999
0029029070999991903020506004+64333+023450FM-12+000599999V0202701N004119999999N0000001N9-00501+99999099911ADDGF104991999999999999999999
0029029070999991903020513004+64333+023450FM-12+000599999V0202301N011819999999N0000001N9-00281+99999099721ADDGF104991999999999999999999
0029029070999991903020520004+64333+023450FM-12+000599999V0202501N009819999999N0000001N9-00061+99999099741ADDGF108991999999999999999999
0029029070999991903020606004+64333+023450FM-12+000599999V0202901N011819999999N0000001N9-00061+99999099801ADDGF104991999999999999999999
0029029070999991903020613004+64333+023450FM-12+000599999V0202301N011819999999N0000001N9+00001+99999100151ADDGF104991999999999999999999
0029029070999991903020620004+64333+023450FM-12+000599999V0202301N011819999999N0000001N9-00331+99999999999ADDGF100991999999999999999999
0029029070999991903020706004+64333+023450FM-12+000599999V0202001N015919999999N0000001N9+00111+99999098821ADDGF108991999999999999999999
0029029070999991903020713004+64333+023450FM-12+000599999V0202001N013919999999N0000001N9+00111+99999098481ADDGF108991999999999999999999
0029029070999991903020720004+64333+023450FM-12+000599999V0202301N009819999999N0000001N9+00001+99999098341ADDGF100991999999999999999999
0029029070999991903020806004+64333+023450FM-12+000599999V0202001N011819999999N0000001N9+00001+99999096671ADDGF104991999999999999999999
0029029070999991903020813004+64333+023450FM-12+000599999V0202901N004119999999N0000001N9-00111+99999096271ADDGF100991999999999999999999
0029029070999991903020820004+64333+023450FM-12+000599999V0202901N004119999999N0000001N9-00221+99999096241ADDGF100991999999999999999999
0029029070999991903020906004+64333+023450FM-12+000599999V0203201N005119999999N0000001N9-00281+99999097461ADDGF100991999999999999999999
0029029070999991903020913004+64333+023450FM-12+000599999V0203201N011819999999N0000001N9+00001+99999098741ADDGF100991999999999999999999
0029029070999991903020920004+64333+023450FM-12+000599999V0203201N011819999999N0000001N9-00221+99999100261ADDGF100991999999999999999999
0029029070999991903021006004+64333+023450FM-12+000599999V0202701N004119999999N0000001N9-00561+99999101081ADDGF100991999999999999999999
0029029070999991903021013004+64333+023450FM-12+000599999V0202301N013919999999N0000001N9-00331+99999100141ADDGF104991999999999999999999
0029029070999991903021020004+64333+023450FM-12+000599999V0202301N009819999999N0000001N9-00331+99999098351ADDGF104991999999999999999999
0029029070999991903021106004+64333+023450FM-12+000599999V0202301N009819999999N0000001N9+00001+99999096681ADDGF104991999999999999999999
0029029070999991903021113004+64333+023450FM-12+000599999V0202701N011819999999N0000001N9+00001+99999096271ADDGF104991999999999999999999
0029029070999991903021120004+64333+023450FM-12+000599999V0203201N008219999999N0000001N9-00111+99999096471ADDGF108991999999999999999999
0029029070999991903021206004+64333+023450FM-12+000599999V0203601N015919999999N0000001N9-00441+99999097151ADDGF108991999999999999999999
0029029070999991903021213004+64333+023450FM-12+000599999V0203601N015919999999N0000001N9-00781+99999098191ADDGF108991999999999999999999
0029029070999991903021220004+64333+023450FM-12+000599999V0203601N009819999999N0000001N9-01221+99999098921ADDGF100991999999999999999999
0029029070999991903021306004+64333+023450FM-12+000599999V0203601N002119999999N0000001N9-01441+99999099301ADDGF100991999999999999999999
0029029070999991903021313004+64333+023450FM-12+000599999V0209991C000019999999N0000001N9-01171+99999099461ADDGF100991999999999999999999
0029029070999991903021320004+64333+023450FM-12+000599999V0209991C000019999999N0000001N9-01281+99999099481ADDGF100991999999999999999999
0029029070999991903021406004+64333+023450FM-12+000599999V0203201N004119999999N0000001N9-01331+99999099341ADDGF104991999999999999999999
0029029070999991903021413004+64333+023450FM-12+000599999V0209991C000019999999N0000001N9-01221+99999099201ADDGF100991999999999999999999
0029029070999991903021420004+64333+023450FM-12+000599999V0209991C000019999999N0000001N9-01391+99999099061ADDGF100991999999999999999999
0029029070999991903021506004+64333+023450FM-12+000599999V0209991C000019999999N0000001N9-01831+99999099041ADDGF104991999999999999999999
0029029070999991903021513004+64333+023450FM-12+000599999V0203401N009819999999N0000001N9-01941+99999099591ADDGF100991999999999999999999
0029029070999991903021520004+64333+023450FM-12+000599999V0203601N006219999999N0000001N9-01501+99999099981ADDGF100991999999999999999999
0029029070999991903021606004+64333+023450FM-12+000599999V0203401N008219999999N0000001N9-01001+99999100761ADDGF104991999999999999999999
0029029070999991903021613004+64333+023450FM-12+000599999V0203401N009819999999N0000001N9-00941+99999101201ADDGF104991999999999999999999
0029029070999991903021620004+64333+023450FM-12+000599999V0202301N011819999999N0000001N9-00781+99999100361ADDGF108991999999999999999999
0035029070999991903021706004+64333+023450FM-12+000599999V0203401N015919999999N0000001N9-01111+99999100201ADDGF104991999999999999999999MW1861
0035029070999991903021713004+64333+023450FM-12+000599999V0203401N013919999999N0000001N9-01221+99999100911ADDGF104991999999999999999999MW1861
0029029070999991903021720004+64333+023450FM-12+000599999V0203201N008219999999N0000001N9-01391+99999102001ADDGF100991999999999999999999
0029029070999991903021806004+64333+023450FM-12+000599999V0209991C000019999999N0000001N9-01671+99999102601ADDGF100991999999999999999999
0029029070999991903021813004+64333+023450FM-12+000599999V0202301N009819999999N0000001N9-01221+99999101991ADDGF108991999999999999999999
0035029070999991903021820004+64333+023450FM-12+000599999V0202001N020119999999N0000001N9-01061+99999101191ADDGF108991999999999999999999MW1861
0029029070999991903021906004+64333+023450FM-12+000599999V0202301N020119999999N0000001N9-00111+99999099711ADDGF108991999999999999999999
0029029070999991903021913004+64333+023450FM-12+000599999V0202301N015919999999N0000001N9+00001+99999098991ADDGF106991999999999999999999
0029029070999991903021920004+64333+023450FM-12+000599999V0202301N015919999999N0000001N9+00001+99999098521ADDGF108991999999999999999999
0035029070999991903022006004+64333+023450FM-12+000599999V0202301N013919999999N0000001N9+00061+99999097881ADDGF108991999999999999999999MW1621
0029029070999991903022013004+64333+023450FM-12+000599999V0202301N009819999999N0000001N9-00111+99999098041ADDGF104991999999999999999999
0029029070999991903022020004+64333+023450FM-12+000599999V0202301N011819999999N0000001N9+00001+99999098141ADDGF108991999999999999999999
0029029070999991903022106004+64333+023450FM-12+000599999V0202301N009819999999N0000001N9-00061+99999098141ADDGF105991999999999999999999
0035029070999991903022113004+64333+023450FM-12+000599999V0202301N011819999999N0000001N9+00001+99999097461ADDGF108991999999999999999999MW1861
0029029070999991903022120004+64333+023450FM-12+000599999V0202301N009819999999N0000001N9-00061+99999097001ADDGF108991999999999999999999
0029029070999991903022206004+64333+023450FM-12+000599999V0202501N011819999999N0000001N9-00221+99999096791ADDGF103991999999999999999999
0029029070999991903022213004+64333+023450FM-12+000599999V0202301N011819999999N0000001N9+00061+99999096791ADDGF104991999999999999999999
0029029070999991903022220004+64333+023450FM-12+000599999V0202301N011819999999N0000001N9+00001+99999096701ADDGF108991999999999999999999
0029029070999991903022306004+64333+023450FM-12+000599999V0202301N009819999999N0000001N9-00281+99999097381ADDGF100991999999999999999999
0029029070999991903022313004+64333+023450FM-12+000599999V0202301N011819999999N0000001N9-00221+99999097191ADDGF100991999999999999999999
0029029070999991903022320004+64333+023450FM-12+000599999V0202501N006219999999N0000001N9-00611+99999097381ADDGF108991999999999999999999
0029029070999991903022406004+64333+023450FM-12+000599999V0203201N006219999999N0000001N9-00831+99999098021ADDGF105991999999999999999999
0029029070999991903022413004+64333+023450FM-12+000599999V0203201N006219999999N0000001N9-00781+99999098671ADDGF106991999999999999999999
0029029070999991903022420004+64333+023450FM-12+000599999V0203201N006219999999N0000001N9-00561+99999099471ADDGF108991999999999999999999
0029029070999991903022506004+64333+023450FM-12+000599999V0209991C000019999999N0000001N9-01281+99999100271ADDGF105991999999999999999999
0029029070999991903022513004+64333+023450FM-12+000599999V0209991C000019999999N0000001N9-00671+99999100661ADDGF106991999999999999999999
0035029070999991903022520004+64333+023450FM-12+000599999V0201401N011819999999N0000001N9-00391+99999099741ADDGF108991999999999999999999MW1861
0029029070999991903022606004+64333+023450FM-12+000599999V0202301N008219999999N0000001N9-00501+99999100101ADDGF101991999999999999999999
0029029070999991903022613004+64333+023450FM-12+000599999V0202301N009819999999N0000001N9-00171+99999100401ADDGF102991999999999999999999
0029029070999991903022620004+64333+023450FM-12+000599999V0202301N011819999999N0000001N9-00061+99999100261ADDGF108991999999999999999999
0035029070999991903022706004+64333+023450FM-12+000599999V0203201N008219999999N0000001N9+00111+99999099201ADDGF108991999999999999999999MW1601
0035029070999991903022713004+64333+023450FM-12+000599999V0202001N009819999999N0000001N9+00111+99999098921ADDGF108991999999999999999999MW1601
0029029070999991903022720004+64333+023450FM-12+000599999V0202301N008219999999N0000001N9-00171+99999099111ADDGF100991999999999999999999
0035029070999991903022806004+64333+023450FM-12+000599999V0200901N009819999999N0000001N9-00061+99999098681ADDGF108991999999999999999999MW1721
0035029070999991903022813004+64333+023450FM-12+000599999V0209991C000019999999N0000001N9+00061+99999098161ADDGF108991999999999999999999MW1621
0029029070999991903022820004+64333+023450FM-12+000599999V0201401N004119999999N0000001N9+00061+99999098141ADDGF108991999999999999999999
0035029070999991903030106004+64333+023450FM-12+000599999V0203401N008219999999N0000001N9+00001+99999098871ADDGF108991999999999999999999MW1601
0029029070999991903030113004+64333+023450FM-12+000599999V0203201N011819999999N0000001N9-00281+99999099061ADDGF104991999999999999999999
0029029070999991903030120004+64333+023450FM-12+000599999V0202701N009819999999N0000001N9-00441+99999099621ADDGF100991999999999999999999
0029029070999991903030206004+64333+023450FM-12+000599999V0209991C000019999999N0000001N9-00781+99999100081ADDGF100991999999999999999999
0029029070999991903030213004+64333+023450FM-12+000599999V0202301N009819999999N0000001N9-00221+99999100201ADDGF104991999999999999999999
0029029070999991903030220004+64333+023450FM-12+000599999V0202001N013919999999N0000001N9-00171+99999100271ADDGF108991999999999999999999
0029029070999991903030306004+64333+023450FM-12+000599999V0202001N006219999999N0000001N9-00171+99999100521ADDGF108991999999999999999999
0029029070999991903030313004+64333+023450FM-12+000599999V0202001N008219999999N0000001N9-00171+99999100541ADDGF104991999999999999999999
0029029070999991903030320004+64333+023450FM-12+000599999V0202001N009819999999N0000001N9-00331+99999100601ADDGF104991999999999999999999
0029029070999991903030406004+64333+023450FM-12+000599999V0202001N011819999999N0000001N9+00111+99999100541ADDGF106991999999999999999999
0029029070999991903030413004+64333+023450FM-12+000599999V0202001N011819999999N0000001N9+00171+99999100521ADDGF108991999999999999999999
0029029070999991903030420004+64333+023450FM-12+000599999V0202001N009819999999N0000001N9+00171+99999100421ADDGF108991999999999999999999
0029029070999991903030506004+64333+023450FM-12+000599999V0201601N013919999999N0000001N9+00171+99999099551ADDGF108991999999999999999999
0035029070999991903030513004+64333+023450FM-12+000599999V0201801N013919999999N0000001N9+00171+99999099191ADDGF108991999999999999999999MW1601
0029029070999991903030520004+64333+023450FM-12+000599999V0201801N013919999999N0000001N9+00061+99999099471ADDGF103991999999999999999999
0029029070999991903030606004+64333+023450FM-12+000599999V0202301N011819999999N0000001N9+00111+99999099601ADDGF106991999999999999999999
0029029070999991903030613004+64333+023450FM-12+000599999V0202301N008219999999N0000001N9+00061+99999099671ADDGF104991999999999999999999
0029029070999991903030620004+64333+023450FM-12+000599999V0202301N009819999999N0000001N9-00171+99999099881ADDGF102991999999999999999999
0029029070999991903030706004+64333+023450FM-12+000599999V0202001N009819999999N0000001N9-00281+99999100141ADDGF104991999999999999999999
0029029070999991903030713004+64333+023450FM-12+000599999V0202001N009819999999N0000001N9+00061+99999100341ADDGF104991999999999999999999
0029029070999991903030720004+64333+023450FM-12+000599999V0202301N009819999999N0000001N9-00111+99999100621ADDGF100991999999999999999999
0029029070999991903030813004+64333+023450FM-12+000599999V0202301N006219999999N0000001N9+00001+99999101701ADDGF100991999999999999999999
0029029070999991903030820004+64333+023450FM-12+000599999V0202301N008219999999N0000001N9-00111+99999101961ADDGF100991999999999999999999
0029029070999991903030906004+64333+023450FM-12+000599999V0202001N013919999999N0000001N9-00281+99999102381ADDGF108991999999999999999999
0029029070999991903030913004+64333+023450FM-12+000599999V0202301N015919999999N0000001N9+00001+99999102521ADDGF100991999999999999999999
0029029070999991903030920004+64333+023450FM-12+000599999V0202301N011819999999N0000001N9+00001+99999102621ADDGF108991999999999999999999
0029029070999991903031006004+64333+023450FM-12+000599999V0202001N013919999999N0000001N9+00001+99999102281ADDGF100991999999999999999999
0029029070999991903031013004+64333+023450FM-12+000599999V0202301N015919999999N0000001N9+00171+99999102271ADDGF100991999999999999999999
0029029070999991903031020004+64333+023450FM-12+000599999V0202301N015919999999N0000001N9+00001+99999102121ADDGF100991999999999999999999
0029029070999991903031106004+64333+023450FM-12+000599999V0202001N015919999999N0000001N9-00111+99999101751ADDGF104991999999999999999999
0029029070999991903031113004+64333+023450FM-12+000599999V0202001N013919999999N0000001N9+00061+99999101791ADDGF108991999999999999999999
0029029070999991903031120004+64333+023450FM-12+000599999V0202001N015919999999N0000001N9+00001+99999101761ADDGF108991999999999999999999
0029029070999991903031206004+64333+023450FM-12+000599999V0202301N013919999999N0000001N9-00061+99999101561ADDGF108991999999999999999999
0029029070999991903031213004+64333+023450FM-12+000599999V0202301N015919999999N0000001N9+00001+99999101721ADDGF108991999999999999999999
0029029070999991903031220004+64333+023450FM-12+000599999V0202301N018019999999N0000001N9-00061+99999101721ADDGF108991999999999999999999
0029029070999991903031306004+64333+023450FM-12+000599999V0202301N020119999999N0000001N9-00111+99999101721ADDGF104991999999999999999999
0029029070999991903031313004+64333+023450FM-12+000599999V0202301N020119999999N0000001N9+00061+99999101991ADDGF104991999999999999999999
0029029070999991903031320004+64333+023450FM-12+000599999V0202001N015919999999N0000001N9+00001+99999102121ADDGF103991999999999999999999
0029029070999991903031406004+64333+023450FM-12+000599999V0202001N013919999999N0000001N9-00221+99999102151ADDGF102991999999999999999999
0029029070999991903031413004+64333+023450FM-12+000599999V0202301N011819999999N0000001N9+00061+99999102191ADDGF102991999999999999999999
0029029070999991903031420004+64333+023450FM-12+000599999V0202001N013919999999N0000001N9-00111+99999102231ADDGF102991999999999999999999
0029029070999991903031506004+64333+023450FM-12+000599999V0201801N004119999999N0000001N9-00391+99999102541ADDGF104991999999999999999999
0029029070999991903031513004+64333+023450FM-12+000599999V0201801N004119999999N0000001N9+00111+99999102791ADDGF104991999999999999999999
0029029070999991903031520004+64333+023450FM-12+000599999V0201601N002119999999N0000001N9+00001+99999102981ADDGF108991999999999999999999
0029029070999991903031606004+64333+023450FM-12+000599999V0201801N002119999999N0000001N9-00111+99999103161ADDGF104991999999999999999999
0029029070999991903031613004+64333+023450FM-12+000599999V0201801N002119999999N0000001N9+00171+99999103341ADDGF103991999999999999999999
0029029070999991903031620004+64333+023450FM-12+000599999V0201401N002119999999N0000001N9+00001+99999103391ADDGF103991999999999999999999
0029029070999991903031706004+64333+023450FM-12+000599999V0201401N002119999999N0000001N9-00671+99999103401ADDGF100991999999999999999999
0029029070999991903031713004+64333+023450FM-12+000599999V0201401N002119999999N0000001N9-00061+99999103201ADDGF100991999999999999999999
0029029070999991903031720004+64333+023450FM-12+000599999V0209991C000019999999N0000001N9-00721+99999103141ADDGF100991999999999999999999
0029029070999991903031806004+64333+023450FM-12+000599999V0201401N006219999999N0000001N9-00891+99999102941ADDGF100991999999999999999999
0029029070999991903031813004+64333+023450FM-12+000599999V0201601N004119999999N0000001N9-00221+99999102821ADDGF100991999999999999999999
0029029070999991903031820004+64333+023450FM-12+000599999V0202001N013919999999N0000001N9-00501+99999102501ADDGF100991999999999999999999
0029029070999991903031906004+64333+023450FM-12+000599999V0201401N011819999999N0000001N9-00891+99999101791ADDGF100991999999999999999999
0029029070999991903031913004+64333+023450FM-12+000599999V0201401N011819999999N0000001N9-00221+99999101561ADDGF106991999999999999999999
0029029070999991903031920004+64333+023450FM-12+000599999V0201601N013919999999N0000001N9-00281+99999101201ADDGF108991999999999999999999
0029029070999991903032006004+64333+023450FM-12+000599999V0201801N013919999999N0000001N9+00001+99999100261ADDGF108991999999999999999999
0035029070999991903032013004+64333+023450FM-12+000599999V0201801N013919999999N0000001N9+00171+99999099511ADDGF108991999999999999999999MW1601
0029029070999991903032020004+64333+023450FM-12+000599999V0202001N013919999999N0000001N9+00171+99999099191ADDGF108991999999999999999999
0029029070999991903032106004+64333+023450FM-12+000599999V0202501N009819999999N0000001N9+00001+99999099861ADDGF100991999999999999999999
0029029070999991903032113004+64333+023450FM-12+000599999V0202501N011819999999N0000001N9+00171+99999100121ADDGF100991999999999999999999
0029029070999991903032120004+64333+023450FM-12+000599999V0202501N009819999999N0000001N9+00001+99999100241ADDGF100991999999999999999999
0029029070999991903032206004+64333+023450FM-12+000599999V0202001N009819999999N0000001N9-00061+99999099871ADDGF106991999999999999999999
0029029070999991903032213004+64333+023450FM-12+000599999V0202001N009819999999N0000001N9+00171+99999099841ADDGF104991999999999999999999
0035029070999991903032220004+64333+023450FM-12+000599999V0202301N011819999999N0000001N9+00171+99999099841ADDGF108991999999999999999999MW1621
0029029070999991903032306004+64333+023450FM-12+000599999V0202501N011819999999N0000001N9-00221+99999099321ADDGF100991999999999999999999
0029029070999991903032313004+64333+023450FM-12+000599999V0202301N009819999999N0000001N9+00221+99999099221ADDGF100991999999999999999999
0029029070999991903032320004+64333+023450FM-12+000599999V0202501N006219999999N0000001N9+00111+99999098821ADDGF100991999999999999999999
0035029070999991903032406004+64333+023450FM-12+000599999V0202001N015919999999N0000001N9+00221+99999096991ADDGF108991999999999999999999MW1621
0029029070999991903032413004+64333+023450FM-12+000599999V0202501N015919999999N0000001N9+00171+99999097671ADDGF108991999999999999999999
0029029070999991903032420004+64333+023450FM-12+000599999V0203201N013919999999N0000001N9+00111+99999098201ADDGF108991999999999999999999
0029029070999991903032506004+64333+023450FM-12+000599999V0203601N011819999999N0000001N9-00721+99999999999ADDGF103991999999999999999999
0029029070999991903032513004+64333+023450FM-12+000599999V0203601N006219999999N0000001N9-00671+99999101321ADDGF104991999999999999999999
0029029070999991903032520004+64333+023450FM-12+000599999V0209991C000019999999N0000001N9-00941+99999101761ADDGF100991999999999999999999
0035029070999991903032606004+64333+023450FM-12+000599999V0201801N020119999999N0000001N9-01001+99999101191ADDGF108991999999999999999999MW1861
0029029070999991903032613004+64333+023450FM-12+000599999V0202001N027819999999N0000001N9-00171+99999100921ADDGF108991999999999999999999
0029029070999991903032620004+64333+023450FM-12+000599999V0202001N020119999999N0000001N9+00281+99999099521ADDGF100991999999999999999999
0029029070999991903032706004+64333+023450FM-12+000599999V0202301N020119999999N0000001N9+00281+99999099231ADDGF106991999999999999999999
0029029070999991903032713004+64333+023450FM-12+000599999V0202301N013919999999N0000001N9+00331+99999099341ADDGF104991999999999999999999
0029029070999991903032720004+64333+023450FM-12+000599999V0202301N013919999999N0000001N9+00221+99999099561ADDGF105991999999999999999999
0029029070999991903032806004+64333+023450FM-12+000599999V0202001N015919999999N0000001N9+00111+99999099321ADDGF108991999999999999999999
0035029070999991903032813004+64333+023450FM-12+000599999V0202001N013919999999N0000001N9+00281+99999098621ADDGF108991999999999999999999MW1621
0029029070999991903032820004+64333+023450FM-12+000599999V0202301N015919999999N0000001N9+00221+99999098601ADDGF100991999999999999999999
0029029070999991903032913004+64333+023450FM-12+000599999V0202301N015919999999N0000001N9+00391+99999097841ADDGF105991999999999999999999
0029029070999991903032920004+64333+023450FM-12+000599999V0202301N015919999999N0000001N9+00171+99999097711ADDGF105991999999999999999999
0029029070999991903033006004+64333+023450FM-12+000599999V0209991C000019999999N0000001N9+00061+99999098521ADDGF108991999999999999999999
0029029070999991903033013004+64333+023450FM-12+000599999V0200501N008219999999N0000001N9+00001+99999099511ADDGF108991999999999999999999
0029029070999991903033020004+64333+023450FM-12+000599999V0200501N008219999999N0000001N9-00111+99999100061ADDGF108991999999999999999999
0029029070999991903033106004+64333+023450FM-12+000599999V0203601N004119999999N0000001N9-00111+99999101081ADDGF100991999999999999999999
0029029070999991903033113004+64333+023450FM-12+000599999V0203601N006219999999N0000001N9-00171+99999101471ADDGF100991999999999999999999
0029029070999991903033120004+64333+023450FM-12+000599999V0209991C000019999999N0000001N9-00281+99999101721ADDGF100991999999999999999999
0029029070999991903040106004+64333+023450FM-12+000599999V0209991C000019999999N0000001N9-00441+99999101921ADDGF100991999999999999999999
0029029070999991903040113004+64333+023450FM-12+000599999V0203401N006219999999N0000001N9-00221+99999101861ADDGF100991999999999999999999
0029029070999991903040120004+64333+023450FM-12+000599999V0209991C000019999999N0000001N9-00501+99999101591ADDGF100991999999999999999999
0029029070999991903040206004+64333+023450FM-12+000599999V0203601N008219999999N0000001N9-00561+99999101461ADDGF104991999999999999999999
0029029070999991903040213004+64333+023450FM-12+000599999V0203601N009819999999N0000001N9-00441+99999101381ADDGF104991999999999999999999
0029029070999991903040220004+64333+023450FM-12+000599999V0203601N008219999999N0000001N9-00441+99999101441ADDGF104991999999999999999999
0029029070999991903040313004+64333+023450FM-12+000599999V0200501N008219999999N0000001N9-00331+99999101701ADDGF104991999999999999999999
0029029070999991903040320004+64333+023450FM-12+000599999V0200501N008219999999N0000001N9-00501+99999101351ADDGF108991999999999999999999
0029029070999991903040406004+64333+023450FM-12+000599999V0200501N011819999999N0000001N9-00721+99999100671ADDGF108991999999999999999999
0035029070999991903040413004+64333+023450FM-12+000599999V0200501N011819999999N0000001N9-00561+99999100121ADDGF108991999999999999999999MW1721
0035029070999991903040420004+64333+023450FM-12+000599999V0200501N006219999999N0000001N9-00501+99999099601ADDGF108991999999999999999999MW1721
0029029070999991903040506004+64333+023450FM-12+000599999V0201801N004119999999N0000001N9-00671+99999099881ADDGF100991999999999999999999
0029029070999991903040513004+64333+023450FM-12+000599999V0203201N002119999999N0000001N9-00331+99999100141ADDGF100991999999999999999999
0029029070999991903040520004+64333+023450FM-12+000599999V0209991C000019999999N0000001N9-00831+99999100391ADDGF100991999999999999999999
0035029070999991903040606004+64333+023450FM-12+000599999V0200901N002119999999N0000001N9-00561+99999100521ADDGF108991999999999999999999MW1721
0029029070999991903040613004+64333+023450FM-12+000599999V0209991C000019999999N0000001N9+00171+99999100461ADDGF104991999999999999999999
0029029070999991903040620004+64333+023450FM-12+000599999V0209991C000019999999N0000001N9+00001+99999100261ADDGF104991999999999999999999
0029029070999991903040706004+64333+023450FM-12+000599999V0200901N002119999999N0000001N9+00001+99999099741ADDGF104991999999999999999999
0029029070999991903040713004+64333+023450FM-12+000599999V0209991C000019999999N0000001N9+00281+99999099511ADDGF104991999999999999999999
0029029070999991903040720004+64333+023450FM-12+000599999V0209991C000019999999N0000001N9+00061+99999099511ADDGF104991999999999999999999
0035029070999991903040806004+64333+023450FM-12+000599999V0200701N006219999999N0000001N9+00001+99999099721ADDGF108991999999999999999999MW1721
0035029070999991903040813004+64333+023450FM-12+000599999V0200201N006219999999N0000001N9+00111+99999100121ADDGF108991999999999999999999MW1721
0029029070999991903040820004+64333+023450FM-12+000599999V0203601N008219999999N0000001N9+00111+99999100711ADDGF108991999999999999999999
0029029070999991903040906004+64333+023450FM-12+000599999V0203601N009819999999N0000001N9-00061+99999101341ADDGF104991999999999999999999
0029029070999991903040913004+64333+023450FM-12+000599999V0203601N006219999999N0000001N9+00171+99999101541ADDGF100991999999999999999999
0029029070999991903040920004+64333+023450FM-12+000599999V0209991C000019999999N0000001N9-00281+99999101721ADDGF100991999999999999999999
0029029070999991903041006004+64333+023450FM-12+000599999V0202301N009819999999N0000001N9-00501+99999101721ADDGF103991999999999999999999
0029029070999991903041013004+64333+023450FM-12+000599999V0202301N009819999999N0000001N9+00221+99999101721ADDGF103991999999999999999999
0029029070999991903041020004+64333+023450FM-12+000599999V0202301N009819999999N0000001N9+00111+99999101741ADDGF104991999999999999999999
0029029070999991903041106004+64333+023450FM-12+000599999V0202301N009819999999N0000001N9+00061+99999101261ADDGF104991999999999999999999
0029029070999991903041113004+64333+023450FM-12+000599999V0202301N009819999999N0000001N9+00391+99999101181ADDGF104991999999999999999999
0029029070999991903041120004+64333+023450FM-12+000599999V0202301N011819999999N0000001N9+00221+99999100471ADDGF104991999999999999999999
0029029070999991903041206004+64333+023450FM-12+000599999V0202301N009819999999N0000001N9+00281+99999099901ADDGF104991999999999999999999
0029029070999991903041213004+64333+023450FM-12+000599999V0202301N004119999999N0000001N9+00441+99999099721ADDGF106991999999999999999999
0029029070999991903041220004+64333+023450FM-12+000599999V0209991C000019999999N0000001N9+00281+99999099861ADDGF103991999999999999999999
0029029070999991903041306004+64333+023450FM-12+000599999V0209991C000019999999N0000001N9+00171+99999099641ADDGF108991999999999999999999
0029029070999991903041313004+64333+023450FM-12+000599999V0209991C000019999999N0000001N9+00221+99999099641ADDGF108991999999999999999999
0035029070999991903041320004+64333+023450FM-12+000599999V0203601N011819999999N0000001N9+00221+99999099201ADDGF108991999999999999999999MW1721
0035029070999991903041406004+64333+023450FM-12+000599999V0200501N008219999999N0000001N9+00061+99999098341ADDGF108991999999999999999999MW1621
0035029070999991903041413004+64333+023450FM-12+000599999V0202001N013919999999N0000001N9+00221+99999098501ADDGF108991999999999999999999MW1621
0035029070999991903041420004+64333+023450FM-12+000599999V0202301N027819999999N0000001N9+00171+99999098681ADDGF108991999999999999999999MW1621
0029029070999991903041506004+64333+023450FM-12+000599999V0202001N015919999999N0000001N9+00111+99999099621ADDGF106991999999999999999999
0029029070999991903041513004+64333+023450FM-12+000599999V0201801N011819999999N0000001N9+00171+99999099781ADDGF104991999999999999999999
0029029070999991903041520004+64333+023450FM-12+000599999V0209991C000019999999N0000001N9+00111+99999099951ADDGF108991999999999999999999
0029029070999991903041606004+64333+023450FM-12+000599999V0209991C000019999999N0000001N9+00061+99999999999ADDGF106991999999999999999999
0029029070999991903041613004+64333+023450FM-12+000599999V0209991C000019999999N0000001N9+00391+99999100201ADDGF104991999999999999999999
0029029070999991903041620004+64333+023450FM-12+000599999V0209991C000019999999N0000001N9-00221+99999100391ADDGF100991999999999999999999
0029029070999991903041706004+64333+023450FM-12+000599999V0209991C000019999999N0000001N9+00111+99999100421ADDGF104991999999999999999999
0029029070999991903041713004+64333+023450FM-12+000599999V0203601N009819999999N0000001N9+00111+99999100661ADDGF104991999999999999999999
0029029070999991903041720004+64333+023450FM-12+000599999V0203601N009819999999N0000001N9+00001+99999100981ADDGF104991999999999999999999
0029029070999991903041806004+64333+023450FM-12+000599999V0200501N011819999999N0000001N9+00001+99999101601ADDGF108991999999999999999999
0029029070999991903041813004+64333+023450FM-12+000599999V0200201N009819999999N0000001N9+00111+99999101721ADDGF108991999999999999999999
0029029070999991903041820004+64333+023450FM-12+000599999V0209991C000019999999N0000001N9+00061+99999101761ADDGF108991999999999999999999
0029029070999991903041906004+64333+023450FM-12+000599999V0203601N006219999999N0000001N9+00061+99999101821ADDGF108991999999999999999999
0029029070999991903041913004+64333+023450FM-12+000599999V0203601N011819999999N0000001N9+00061+99999101511ADDGF108991999999999999999999
0029029070999991903041920004+64333+023450FM-12+000599999V0203601N013919999999N0000001N9+00111+99999101191ADDGF108991999999999999999999
0035029070999991903042006004+64333+023450FM-12+000599999V0203601N027819999999N0000001N9+00001+99999999999ADDGF108991999999999999999999MW1721
0029029070999991903042013004+64333+023450FM-12+000599999V0200201N011819999999N0000001N9+00221+99999099911ADDGF108991999999999999999999
0029029070999991903042020004+64333+023450FM-12+000599999V0200901N009819999999N0000001N9+00111+99999100121ADDGF108991999999999999999999
0029029070999991903042106004+64333+023450FM-12+000599999V0200901N009819999999N0000001N9+00171+99999099921ADDGF104991999999999999999999
0029029070999991903042113004+64333+023450FM-12+000599999V0200501N009819999999N0000001N9+00171+99999099471ADDGF108991999999999999999999
0035029070999991903042120004+64333+023450FM-12+000599999V0209991C000019999999N0000001N9+00061+99999099351ADDGF108991999999999999999999MW1621
0029029070999991903042206004+64333+023450FM-12+000599999V0209991C000019999999N0000001N9-00061+99999099341ADDGF108991999999999999999999
0029029070999991903042213004+64333+023450FM-12+000599999V0209991C000019999999N0000001N9+00331+99999099781ADDGF103991999999999999999999
0029029070999991903042220004+64333+023450FM-12+000599999V0202301N004119999999N0000001N9+00221+99999099941ADDGF106991999999999999999999
0029029070999991903042306004+64333+023450FM-12+000599999V0202301N008219999999N0000001N9+00001+99999100421ADDGF108991999999999999999999
0029029070999991903042313004+64333+023450FM-12+000599999V0202301N006219999999N0000001N9+00171+99999100841ADDGF102991999999999999999999
0029029070999991903042320004+64333+023450FM-12+000599999V0209991C000019999999N0000001N9-00111+99999101201ADDGF100991999999999999999999
0029029070999991903042406004+64333+023450FM-12+000599999V0209991C000019999999N0000001N9-00111+99999101701ADDGF104991999999999999999999
0029029070999991903042413004+64333+023450FM-12+000599999V0209991C000019999999N0000001N9+00171+99999101511ADDGF108991999999999999999999
0035029070999991903042420004+64333+023450FM-12+000599999V0200501N009819999999N0000001N9+00111+99999101401ADDGF108991999999999999999999MW1621
0029029070999991903042506004+64333+023450FM-12+000599999V0200501N009819999999N0000001N9+00221+99999101241ADDGF108991999999999999999999
0029029070999991903042513004+64333+023450FM-12+000599999V0209991C000019999999N0000001N9+00331+99999101391ADDGF108991999999999999999999
0029029070999991903042520004+64333+023450FM-12+000599999V0209991C000019999999N0000001N9+00221+99999101601ADDGF108991999999999999999999
0029029070999991903042606004+64333+023450FM-12+000599999V0209991C000019999999N0000001N9+00171+99999101721ADDGF104991999999999999999999
0029029070999991903042613004+64333+023450FM-12+000599999V0209991C000019999999N0000001N9+00391+99999101681ADDGF104991999999999999999999
0029029070999991903042620004+64333+023450FM-12+000599999V0209991C000019999999N0000001N9+00221+99999101641ADDGF104991999999999999999999
0029029070999991903042706004+64333+023450FM-12+000599999V0209991C000019999999N0000001N9+00221+99999101661ADDGF103991999999999999999999
0029029070999991903042713004+64333+023450FM-12+000599999V0203601N006219999999N0000001N9+00281+99999101721ADDGF104991999999999999999999
0029029070999991903042720004+64333+023450FM-12+000599999V0200501N006219999999N0000001N9+00331+99999101741ADDGF104991999999999999999999
0029029070999991903042806004+64333+023450FM-12+000599999V0200501N004119999999N0000001N9+00221+99999101791ADDGF102991999999999999999999
0029029070999991903042813004+64333+023450FM-12+000599999V0200201N006219999999N0000001N9+00441+99999101741ADDGF104991999999999999999999
0029029070999991903042820004+64333+023450FM-12+000599999V0209991C000019999999N0000001N9+00331+99999101721ADDGF108991999999999999999999
0029029070999991903042906004+64333+023450FM-12+000599999V0209991C000019999999N0000001N9+00391+99999101721ADDGF100991999999999999999999
0035029070999991903042913004+64333+023450FM-12+000599999V0209991C000019999999N0000001N9+00561+99999101521ADDGF103991999999999999999999MW1051
0029029070999991903042920004+64333+023450FM-12+000599999V0209991C000019999999N0000001N9+00391+99999101441ADDGF104991999999999999999999
0029029070999991903043006004+64333+023450FM-12+000599999V0209991C000019999999N0000001N9+00281+99999100921ADDGF105991999999999999999999
0029029070999991903043013004+64333+023450FM-12+000599999V0209991C000019999999N0000001N9+00391+99999100751ADDGF104991999999999999999999
0029029070999991903043020004+64333+023450FM-12+000599999V0209991C000019999999N0000001N9+00221+99999100641ADDGF100991999999999999999999
0029029070999991903050106004+64333+023450FM-12+000599999V0203601N011819999999N0000001N9+00111+99999100941ADDGF108991999999999999999999
0029029070999991903050113004+64333+023450FM-12+000599999V0200201N013919999999N0000001N9+00221+99999101241ADDGF104991999999999999999999
0029029070999991903050120004+64333+023450FM-12+000599999V0200201N011819999999N0000001N9+00111+99999101481ADDGF102991999999999999999999
0029029070999991903050206004+64333+023450FM-12+000599999V0200501N009819999999N0000001N9-00061+99999101741ADDGF100991999999999999999999
0029029070999991903050213004+64333+023450FM-12+000599999V0203601N009819999999N0000001N9+00111+99999101721ADDGF100991999999999999999999
0029029070999991903050220004+64333+023450FM-12+000599999V0203601N009819999999N0000001N9+00001+99999101591ADDGF103991999999999999999999
0029029070999991903050306004+64333+023450FM-12+000599999V0209991C000019999999N0000001N9+00061+99999101591ADDGF104991999999999999999999
0029029070999991903050313004+64333+023450FM-12+000599999V0209991C000019999999N0000001N9+00331+99999101521ADDGF106991999999999999999999
0029029070999991903050320004+64333+023450FM-12+000599999V0209991C000019999999N0000001N9+00221+99999101101ADDGF108991999999999999999999
0035029070999991903050406004+64333+023450FM-12+000599999V0200501N011819999999N0000001N9+00061+99999100751ADDGF108991999999999999999999MW1721
0035029070999991903050413004+64333+023450FM-12+000599999V0200201N013919999999N0000001N9+00061+99999100831ADDGF108991999999999999999999MW1721
0029029070999991903050420004+64333+023450FM-12+000599999V0200201N011819999999N0000001N9+00111+99999101121ADDGF104991999999999999999999
0029029070999991903050506004+64333+023450FM-12+000599999V0200201N009819999999N0000001N9-00061+99999101341ADDGF100991999999999999999999
0029029070999991903050513004+64333+023450FM-12+000599999V0200201N011819999999N0000001N9+00061+99999101381ADDGF100991999999999999999999
0029029070999991903050520004+64333+023450FM-12+000599999V0200501N015919999999N0000001N9+00061+99999101381ADDGF104991999999999999999999
0029029070999991903050606004+64333+023450FM-12+000599999V0200501N009819999999N0000001N9+00001+99999101161ADDGF100991999999999999999999
0029029070999991903050613004+64333+023450FM-12+000599999V0200501N013919999999N0000001N9+00221+99999100911ADDGF104991999999999999999999
0029029070999991903050620004+64333+023450FM-12+000599999V0200501N004119999999N0000001N9+00061+99999100541ADDGF104991999999999999999999
0029029070999991903050706004+64333+023450FM-12+000599999V0200501N009819999999N0000001N9+00111+99999100591ADDGF100991999999999999999999
0029029070999991903050713004+64333+023450FM-12+000599999V0203601N020119999999N0000001N9+00171+99999100871ADDGF100991999999999999999999
0029029070999991903050720004+64333+023450FM-12+000599999V0200201N006219999999N0000001N9+00061+99999101121ADDGF100991999999999999999999
0029029070999991903050806004+64333+023450FM-12+000599999V0200501N009819999999N0000001N9+00061+99999101461ADDGF100991999999999999999999
0029029070999991903050813004+64333+023450FM-12+000599999V0200501N011819999999N0000001N9+00061+99999101621ADDGF100991999999999999999999
0029029070999991903050820004+64333+023450FM-12+000599999V0200501N013919999999N0000001N9+00061+99999101831ADDGF100991999999999999999999
0029029070999991903050906004+64333+023450FM-12+000599999V0200501N011819999999N0000001N9+00111+99999102021ADDGF100991999999999999999999
0029029070999991903050913004+64333+023450FM-12+000599999V0200501N011819999999N0000001N9+00171+99999101961ADDGF100991999999999999999999
0029029070999991903050920004+64333+023450FM-12+000599999V0203601N008219999999N0000001N9+00061+99999101721ADDGF102991999999999999999999
0029029070999991903051006004+64333+023450FM-12+000599999V0209991C000019999999N0000001N9+00111+99999101341ADDGF104991999999999999999999
0029029070999991903051013004+64333+023450FM-12+000599999V0209991C000019999999N0000001N9+00501+99999101341ADDGF108991999999999999999999
0029029070999991903051020004+64333+023450FM-12+000599999V0209991C000019999999N0000001N9+00171+99999101061ADDGF108991999999999999999999
0029029070999991903051106004+64333+023450FM-12+000599999V0201801N006219999999N0000001N9+00281+99999100951ADDGF108991999999999999999999
0029029070999991903051113004+64333+023450FM-12+000599999V0202501N008219999999N0000001N9+00501+99999100641ADDGF101991999999999999999999
0029029070999991903051120004+64333+023450FM-12+000599999V0202501N006219999999N0000001N9+00221+99999100621ADDGF108991999999999999999999
0029029070999991903051206004+64333+023450FM-12+000599999V0202501N006219999999N0000001N9+00221+99999100441ADDGF108991999999999999999999
0029029070999991903051213004+64333+023450FM-12+000599999V0209991C000019999999N0000001N9+00441+99999100271ADDGF104991999999999999999999
0029029070999991903051220004+64333+023450FM-12+000599999V0209991C000019999999N0000001N9+00171+99999100261ADDGF104991999999999999999999
0029029070999991903051306004+64333+023450FM-12+000599999V0209991C000019999999N0000001N9+00281+99999100071ADDGF108991999999999999999999
0029029070999991903051313004+64333+023450FM-12+000599999V0203601N008219999999N0000001N9+00281+99999100151ADDGF108991999999999999999999
0029029070999991903051320004+64333+023450FM-12+000599999V0203601N002119999999N0000001N9+00221+99999100201ADDGF108991999999999999999999
0029029070999991903051406004+64333+023450FM-12+000599999V0203601N006219999999N0000001N9+00281+99999100231ADDGF108991999999999999999999
0029029070999991903051413004+64333+023450FM-12+000599999V0202701N009819999999N0000001N9+00331+99999100261ADDGF108991999999999999999999
0029029070999991903051420004+64333+023450FM-12+000599999V0200901N008219999999N0000001N9+00281+99999100121ADDGF105991999999999999999999
0029029070999991903051506004+64333+023450FM-12+000599999V0201801N004119999999N0000001N9+00221+99999100311ADDGF104991999999999999999999
0029029070999991903051513004+64333+023450FM-12+000599999V0209991C000019999999N0000001N9+00391+99999100591ADDGF100991999999999999999999
0029029070999991903051520004+64333+023450FM-12+000599999V0202301N006219999999N0000001N9+00221+99999100681ADDGF102991999999999999999999
0029029070999991903051606004+64333+023450FM-12+000599999V0200901N009819999999N0000001N9+00501+99999100181ADDGF108991999999999999999999
0035029070999991903051613004+64333+023450FM-12+000599999V0202301N013919999999N0000001N9+00441+99999999999ADDGF108991999999999999999999MW1601
0029029070999991903051620004+64333+023450FM-12+000599999V0202001N015919999999N0000001N9+00331+99999099711ADDGF108991999999999999999999
0035029070999991903051706004+64333+023450FM-12+000599999V0202301N013919999999N0000001N9+00281+99999099711ADDGF108991999999999999999999MW1601
0029029070999991903051713004+64333+023450FM-12+000599999V0202301N013919999999N0000001N9+00441+99999099711ADDGF106991999999999999999999
0029029070999991903051720004+64333+023450FM-12+000599999V0202301N008219999999N0000001N9+00221+99999099781ADDGF106991999999999999999999
0029029070999991903051813004+64333+023450FM-12+000599999V0203601N006219999999N0000001N9+00391+99999100351ADDGF100991999999999999999999
0029029070999991903051820004+64333+023450FM-12+000599999V0200201N008219999999N0000001N9+00221+99999100391ADDGF108991999999999999999999
0029029070999991903051906004+64333+023450FM-12+000599999V0200501N009819999999N0000001N9+00281+99999100541ADDGF105991999999999999999999
0029029070999991903051913004+64333+023450FM-12+000599999V0200501N009819999999N0000001N9+00441+99999100421ADDGF106991999999999999999999
0035029070999991903051920004+64333+023450FM-12+000599999V0200501N011819999999N0000001N9+00391+99999100321ADDGF108991999999999999999999MW1621
0035029070999991903052006004+64333+023450FM-12+000599999V0200901N008219999999N0000001N9+00501+99999100501ADDGF108991999999999999999999MW1621
0029029070999991903052013004+64333+023450FM-12+000599999V0200901N008219999999N0000001N9+00501+99999100641ADDGF108991999999999999999999
0029029070999991903052020004+64333+023450FM-12+000599999V0200901N006219999999N0000001N9+00611+99999100791ADDGF108991999999999999999999
0029029070999991903052106004+64333+023450FM-12+000599999V0209991C000019999999N0000001N9+00441+99999101341ADDGF100991999999999999999999
0029029070999991903052113004+64333+023450FM-12+000599999V0200501N006219999999N0000001N9+00441+99999101641ADDGF104991999999999999999999
0029029070999991903052120004+64333+023450FM-12+000599999V0209991C000019999999N0000001N9+00221+99999101941ADDGF104991999999999999999999
0029029070999991903052206004+64333+023450FM-12+000599999V0202701N004119999999N0000001N9+00331+99999102161ADDGF100991999999999999999999
0029029070999991903052213004+64333+023450FM-12+000599999V0202701N006219999999N0000001N9+00501+99999102321ADDGF100991999999999999999999
0029029070999991903052220004+64333+023450FM-12+000599999V0202501N006219999999N0000001N9+00441+99999102511ADDGF105991999999999999999999
0029029070999991903052306004+64333+023450FM-12+000599999V0209991C000019999999N0000001N9+00561+99999102661ADDGF100991999999999999999999
0029029070999991903052313004+64333+023450FM-12+000599999V0209991C000019999999N0000001N9+00891+99999102441ADDGF100991999999999999999999
0029029070999991903052320004+64333+023450FM-12+000599999V0209991C000019999999N0000001N9+00611+99999102381ADDGF102991999999999999999999
0029029070999991903052406004+64333+023450FM-12+000599999V0202001N006219999999N0000001N9+00561+99999102351ADDGF100991999999999999999999
0029029070999991903052413004+64333+023450FM-12+000599999V0202701N006219999999N0000001N9+00671+99999102701ADDGF106991999999999999999999
0029029070999991903052420004+64333+023450FM-12+000599999V0209991C000019999999N0000001N9+00441+99999102991ADDGF100991999999999999999999
0029029070999991903052506004+64333+023450FM-12+000599999V0209991C000019999999N0000001N9+00501+99999103191ADDGF100991999999999999999999
0029029070999991903052513004+64333+023450FM-12+000599999V0203601N006219999999N0000001N9+00611+99999102881ADDGF100991999999999999999999
0029029070999991903052520004+64333+023450FM-12+000599999V0203601N006219999999N0000001N9+00501+99999102721ADDGF100991999999999999999999
0029029070999991903052606004+64333+023450FM-12+000599999V0209991C000019999999N0000001N9+00501+99999102661ADDGF108991999999999999999999
0029029070999991903052613004+64333+023450FM-12+000599999V0202701N002119999999N0000001N9+00671+99999102601ADDGF108991999999999999999999
0029029070999991903052620004+64333+023450FM-12+000599999V0203201N006219999999N0000001N9+00501+99999102841ADDGF100991999999999999999999
0029029070999991903052706004+64333+023450FM-12+000599999V0200201N006219999999N0000001N9+00441+99999103271ADDGF100991999999999999999999
0029029070999991903052713004+64333+023450FM-12+000599999V0209991C000019999999N0000001N9+00941+99999103181ADDGF100991999999999999999999
0029029070999991903052720004+64333+023450FM-12+000599999V0202301N006219999999N0000001N9+00781+99999102941ADDGF100991999999999999999999
0029029070999991903052806004+64333+023450FM-12+000599999V0202301N011819999999N0000001N9+00671+99999102681ADDGF100991999999999999999999
0029029070999991903052813004+64333+023450FM-12+000599999V0202301N011819999999N0000001N9+00831+99999102591ADDGF100991999999999999999999
0029029070999991903052820004+64333+023450FM-12+000599999V0202301N008219999999N0000001N9+00671+99999102361ADDGF100991999999999999999999
0029029070999991903052906004+64333+023450FM-12+000599999V0202301N013919999999N0000001N9+00721+99999101861ADDGF100991999999999999999999
0029029070999991903052913004+64333+023450FM-12+000599999V0202301N015919999999N0000001N9+00781+99999101751ADDGF100991999999999999999999
0029029070999991903052920004+64333+023450FM-12+000599999V0209991C000019999999N0000001N9+00611+99999101801ADDGF100991999999999999999999
0029029070999991903053006004+64333+023450FM-12+000599999V0200501N002119999999N0000001N9+00561+99999101751ADDGF100991999999999999999999
0029029070999991903053013004+64333+023450FM-12+000599999V0200201N008219999999N0000001N9+00671+99999101661ADDGF100991999999999999999999
0029029070999991903053020004+64333+023450FM-12+000599999V0200501N006219999999N0000001N9+00611+99999101541ADDGF105991999999999999999999
0029029070999991903053106004+64333+023450FM-12+000599999V0209991C000019999999N0000001N9+00891+99999101271ADDGF103991999999999999999999
0035029070999991903053113004+64333+023450FM-12+000599999V0209991C000019999999N0000001N9+01111+99999101041ADDGF108991999999999999999999MW1621
0029029070999991903053120004+64333+023450FM-12+000599999V0209991C000019999999N0000001N9+00891+99999100961ADDGF103991999999999999999999
0029029070999991903060106004+64333+023450FM-12+000599999V0209991C000019999999N0000001N9+01001+99999100781ADDGF104991999999999999999999
0029029070999991903060113004+64333+023450FM-12+000599999V0209991C000019999999N0000001N9+01111+99999100631ADDGF100991999999999999999999
0029029070999991903060120004+64333+023450FM-12+000599999V0202301N009819999999N0000001N9+00671+99999999999ADDGF104991999999999999999999
0029029070999991903060206004+64333+023450FM-12+000599999V0201801N006219999999N0000001N9+01111+99999100321ADDGF105991999999999999999999
0029029070999991903060213004+64333+023450FM-12+000599999V0202701N008219999999N0000001N9+00941+99999100261ADDGF103991999999999999999999
0029029070999991903060220004+64333+023450FM-12+000599999V0202301N011819999999N0000001N9+00941+99999100261ADDGF105991999999999999999999
0029029070999991903060306004+64333+023450FM-12+000599999V0202301N006219999999N0000001N9+00561+99999100791ADDGF104991999999999999999999
0029029070999991903060313004+64333+023450FM-12+000599999V0202501N004119999999N0000001N9+00891+99999101041ADDGF103991999999999999999999
0029029070999991903060320004+64333+023450FM-12+000599999V0202901N006219999999N0000001N9+00781+99999101151ADDGF106991999999999999999999
0029029070999991903060406004+64333+023450FM-12+000599999V0203601N013919999999N0000001N9+00501+99999101631ADDGF100991999999999999999999
0029029070999991903060413004+64333+023450FM-12+000599999V0203601N011819999999N0000001N9+00671+99999101761ADDGF100991999999999999999999
0029029070999991903060420004+64333+023450FM-12+000599999V0209991C000019999999N0000001N9+00561+99999101591ADDGF101991999999999999999999
0029029070999991903060506004+64333+023450FM-12+000599999V0209991C000019999999N0000001N9+00721+99999101341ADDGF100991999999999999999999
0029029070999991903060513004+64333+023450FM-12+000599999V0203201N006219999999N0000001N9+00941+99999101111ADDGF101991999999999999999999
0029029070999991903060520004+64333+023450FM-12+000599999V0203601N009819999999N0000001N9+00721+99999100921ADDGF106991999999999999999999
0029029070999991903060606004+64333+023450FM-12+000599999V0203201N015919999999N0000001N9+00561+99999100661ADDGF100991999999999999999999
0029029070999991903060613004+64333+023450FM-12+000599999V0203601N013919999999N0000001N9+00831+99999101081ADDGF102991999999999999999999
0029029070999991903060620004+64333+023450FM-12+000599999V0203401N009819999999N0000001N9+00671+99999101461ADDGF101991999999999999999999
0029029070999991903060706004+64333+023450FM-12+000599999V0202501N002119999999N0000001N9+00611+99999102271ADDGF104991999999999999999999
0029029070999991903060713004+64333+023450FM-12+000599999V0202301N004119999999N0000001N9+00781+99999102231ADDGF104991999999999999999999
0029029070999991903060720004+64333+023450FM-12+000599999V0202301N004119999999N0000001N9+00561+99999102391ADDGF104991999999999999999999
0029029070999991903060806004+64333+023450FM-12+000599999V0202701N004119999999N0000001N9+00561+99999102881ADDGF103991999999999999999999
0029029070999991903060813004+64333+023450FM-12+000599999V0202501N004119999999N0000001N9+00941+99999102991ADDGF100991999999999999999999
0029029070999991903060820004+64333+023450FM-12+000599999V0209991C000019999999N0000001N9+00721+99999102951ADDGF101991999999999999999999
0029029070999991903060906004+64333+023450FM-12+000599999V0202301N006219999999N0000001N9+00781+99999102901ADDGF103991999999999999999999
0029029070999991903060913004+64333+023450FM-12+000599999V0202301N004119999999N0000001N9+01171+99999102781ADDGF104991999999999999999999
0029029070999991903060920004+64333+023450FM-12+000599999V0209991C000019999999N0000001N9+01061+99999102521ADDGF104991999999999999999999
0029029070999991903061006004+64333+023450FM-12+000599999V0202301N013919999999N0000001N9+00831+99999101591ADDGF100991999999999999999999
0029029070999991903061013004+64333+023450FM-12+000599999V0202301N013919999999N0000001N9+01171+99999101121ADDGF100991999999999999999999
0029029070999991903061020004+64333+023450FM-12+000599999V0202301N009819999999N0000001N9+00831+99999100801ADDGF106991999999999999999999
0029029070999991903061106004+64333+023450FM-12+000599999V0203201N009819999999N0000001N9+00671+99999100521ADDGF105991999999999999999999
0029029070999991903061113004+64333+023450FM-12+000599999V0200201N013919999999N0000001N9+00611+99999101071ADDGF100991999999999999999999
0029029070999991903061120004+64333+023450FM-12+000599999V0203401N009819999999N0000001N9+00501+99999101321ADDGF102991999999999999999999
0029029070999991903061206004+64333+023450FM-12+000599999V0200501N011819999999N0000001N9+00501+99999101461ADDGF100991999999999999999999
0029029070999991903061213004+64333+023450FM-12+000599999V0200201N011819999999N0000001N9+00671+99999101431ADDGF102991999999999999999999
0029029070999991903061220004+64333+023450FM-12+000599999V0200701N006219999999N0000001N9+00721+99999101621ADDGF108991999999999999999999
0029029070999991903061306004+64333+023450FM-12+000599999V0200501N011819999999N0000001N9+00671+99999101831ADDGF100991999999999999999999
0029029070999991903061313004+64333+023450FM-12+000599999V0200201N013919999999N0000001N9+00671+99999101861ADDGF103991999999999999999999
0029029070999991903061320004+64333+023450FM-12+000599999V0200201N009819999999N0000001N9+00671+99999102021ADDGF102991999999999999999999
0029029070999991903061406004+64333+023450FM-12+000599999V0200201N002119999999N0000001N9+00781+99999102281ADDGF100991999999999999999999
0029029070999991903061413004+64333+023450FM-12+000599999V0200201N006219999999N0000001N9+00831+99999102261ADDGF100991999999999999999999
0029029070999991903061420004+64333+023450FM-12+000599999V0209991C000019999999N0000001N9+00891+99999101991ADDGF100991999999999999999999
0029029070999991903061506004+64333+023450FM-12+000599999V0202001N008219999999N0000001N9+00831+99999101521ADDGF100991999999999999999999
0029029070999991903061513004+64333+023450FM-12+000599999V0202501N009819999999N0000001N9+00941+99999101271ADDGF104991999999999999999999
0029029070999991903061520004+64333+023450FM-12+000599999V0202701N002119999999N0000001N9+00781+99999101231ADDGF101991999999999999999999
0029029070999991903061606004+64333+023450FM-12+000599999V0203401N011819999999N0000001N9+00671+99999101501ADDGF100991999999999999999999
0029029070999991903061613004+64333+023450FM-12+000599999V0203401N006219999999N0000001N9+00831+99999101621ADDGF106991999999999999999999
0029029070999991903061620004+64333+023450FM-12+000599999V0209991C000019999999N0000001N9+00781+99999101351ADDGF101991999999999999999999
0029029070999991903061713004+64333+023450FM-12+000599999V0201601N008219999999N0000001N9+01001+99999101001ADDGF108991999999999999999999
0029029070999991903061720004+64333+023450FM-12+000599999V0200201N008219999999N0000001N9+00891+99999100661ADDGF108991999999999999999999
0029029070999991903061806004+64333+023450FM-12+000599999V0209991C000019999999N0000001N9+00891+99999999999ADDGF108991999999999999999999
0029029070999991903061813004+64333+023450FM-12+000599999V0209991C000019999999N0000001N9+01061+99999099911ADDGF108991999999999999999999
0029029070999991903061820004+64333+023450FM-12+000599999V0209991C000019999999N0000001N9+00941+99999099541ADDGF108991999999999999999999
0029029070999991903061906004+64333+023450FM-12+000599999V0202301N009819999999N0000001N9+00941+99999099761ADDGF108991999999999999999999
0029029070999991903061913004+64333+023450FM-12+000599999V0202301N008219999999N0000001N9+00941+99999100191ADDGF108991999999999999999999
0029029070999991903061920004+64333+023450FM-12+000599999V0202301N008219999999N0000001N9+00941+99999100391ADDGF108991999999999999999999
0029029070999991903062006004+64333+023450FM-12+000599999V0202301N011819999999N0000001N9+00941+99999100711ADDGF103991999999999999999999
0029029070999991903062013004+64333+023450FM-12+000599999V0202301N009819999999N0000001N9+00941+99999100791ADDGF103991999999999999999999
0029029070999991903062020004+64333+023450FM-12+000599999V0202301N009819999999N0000001N9+00891+99999101021ADDGF104991999999999999999999
0029029070999991903062106004+64333+023450FM-12+000599999V0203201N004119999999N0000001N9+00721+99999101271ADDGF108991999999999999999999
0035029070999991903062113004+64333+023450FM-12+000599999V0200501N006219999999N0000001N9+00781+99999101311ADDGF108991999999999999999999MW1641
0035029070999991903062120004+64333+023450FM-12+000599999V0203601N009819999999N0000001N9+00611+99999101001ADDGF108991999999999999999999MW1641
0029029070999991903062206004+64333+023450FM-12+000599999V0203601N013919999999N0000001N9+00721+99999100991ADDGF106991999999999999999999
0029029070999991903062213004+64333+023450FM-12+000599999V0203601N011819999999N0000001N9+00941+99999101001ADDGF106991999999999999999999
0029029070999991903062220004+64333+023450FM-12+000599999V0203401N011819999999N0000001N9+00891+99999100981ADDGF106991999999999999999999
0029029070999991903062306004+64333+023450FM-12+000599999V0209991C000019999999N0000001N9+00891+99999101201ADDGF104991999999999999999999
0029029070999991903062313004+64333+023450FM-12+000599999V0202501N009819999999N0000001N9+01111+99999101391ADDGF100991999999999999999999
0029029070999991903062320004+64333+023450FM-12+000599999V0202901N006219999999N0000001N9+01001+99999101521ADDGF100991999999999999999999
0029029070999991903062406004+64333+023450FM-12+000599999V0202701N009819999999N0000001N9+00781+99999102151ADDGF100991999999999999999999
0029029070999991903062413004+64333+023450FM-12+000599999V0202501N009819999999N0000001N9+01061+99999102271ADDGF103991999999999999999999
0029029070999991903062420004+64333+023450FM-12+000599999V0202701N011819999999N0000001N9+00941+99999102381ADDGF103991999999999999999999
0029029070999991903062506004+64333+023450FM-12+000599999V0202701N004119999999N0000001N9+00891+99999102641ADDGF100991999999999999999999
0029029070999991903062513004+64333+023450FM-12+000599999V0209991C000019999999N0000001N9+01281+99999102791ADDGF103991999999999999999999
0029029070999991903062520004+64333+023450FM-12+000599999V0200901N002119999999N0000001N9+01061+99999102781ADDGF106991999999999999999999
0035029070999991903062606004+64333+023450FM-12+000599999V0200701N009819999999N0000001N9+00781+99999102831ADDGF108991999999999999999999MW1621
0029029070999991903062613004+64333+023450FM-12+000599999V0200501N009819999999N0000001N9+01001+99999102861ADDGF100991999999999999999999
0029029070999991903062620004+64333+023450FM-12+000599999V0209991C000019999999N0000001N9+00781+99999102981ADDGF101991999999999999999999
0029029070999991903062706004+64333+023450FM-12+000599999V0209991C000019999999N0000001N9+01111+99999102961ADDGF100991999999999999999999
0029029070999991903062713004+64333+023450FM-12+000599999V0209991C000019999999N0000001N9+01331+99999102911ADDGF100991999999999999999999
0029029070999991903062720004+64333+023450FM-12+000599999V0209991C000019999999N0000001N9+01061+99999102781ADDGF100991999999999999999999
0029029070999991903062806004+64333+023450FM-12+000599999V0209991C000019999999N0000001N9+01171+99999102661ADDGF100991999999999999999999
0029029070999991903062813004+64333+023450FM-12+000599999V0202301N004119999999N0000001N9+01561+99999102621ADDGF100991999999999999999999
0029029070999991903062820004+64333+023450FM-12+000599999V0202001N004119999999N0000001N9+01281+99999102381ADDGF105991999999999999999999
0029029070999991903062913004+64333+023450FM-12+000599999V0202301N013919999999N0000001N9+01281+99999101591ADDGF105991999999999999999999
0029029070999991903062920004+64333+023450FM-12+000599999V0202301N020119999999N0000001N9+01221+99999101281ADDGF107991999999999999999999
0029029070999991903063006004+64333+023450FM-12+000599999V0202301N009819999999N0000001N9+01061+99999100941ADDGF108991999999999999999999
0029029070999991903063013004+64333+023450FM-12+000599999V0202301N013919999999N0000001N9+01171+99999100791ADDGF104991999999999999999999
0029029070999991903063020004+64333+023450FM-12+000599999V0202301N011819999999N0000001N9+00941+99999101041ADDGF106991999999999999999999
0029029070999991903070106004+64333+023450FM-12+000599999V0202701N011819999999N0000001N9+00891+99999100751ADDGF100991999999999999999999
0029029070999991903070113004+64333+023450FM-12+000599999V0202501N008219999999N0000001N9+01221+99999100981ADDGF105991999999999999999999
0029029070999991903070120004+64333+023450FM-12+000599999V0209991C000019999999N0000001N9+00831+99999101151ADDGF102991999999999999999999
0029029070999991903070206004+64333+023450FM-12+000599999V0202001N006219999999N0000001N9+01001+99999100981ADDGF104991999999999999999999
0029029070999991903070213004+64333+023450FM-12+000599999V0202301N009819999999N0000001N9+01221+99999100741ADDGF108991999999999999999999
0029029070999991903070220004+64333+023450FM-12+000599999V0202301N009819999999N0000001N9+01001+99999100631ADDGF107991999999999999999999
0029029070999991903070306004+64333+023450FM-12+000599999V0202301N008219999999N0000001N9+01001+99999100751ADDGF100991999999999999999999
0029029070999991903070313004+64333+023450FM-12+000599999V0202301N006219999999N0000001N9+01221+99999101061ADDGF102991999999999999999999
0029029070999991903070320004+64333+023450FM-12+000599999V0202301N004119999999N0000001N9+01061+99999100991ADDGF105991999999999999999999
0029029070999991903070406004+64333+023450FM-12+000599999V0201601N004119999999N0000001N9+01171+99999100341ADDGF106991999999999999999999
0029029070999991903070413004+64333+023450FM-12+000599999V0201601N008219999999N0000001N9+01721+99999999999ADDGF103991999999999999999999
0029029070999991903070420004+64333+023450FM-12+000599999V0202001N011819999999N0000001N9+01061+99999099701ADDGF103991999999999999999999
0029029070999991903070506004+64333+023450FM-12+000599999V0202301N011819999999N0000001N9+01111+99999099781ADDGF108991999999999999999999
0029029070999991903070513004+64333+023450FM-12+000599999V0202301N011819999999N0000001N9+01061+99999100081ADDGF108991999999999999999999
0029029070999991903070520004+64333+023450FM-12+000599999V0202301N011819999999N0000001N9+00941+99999100101ADDGF108991999999999999999999
0029029070999991903070606004+64333+023450FM-12+000599999V0202301N004119999999N0000001N9+00941+99999100781ADDGF108991999999999999999999
0029029070999991903070613004+64333+023450FM-12+000599999V0203601N004119999999N0000001N9+01221+99999100981ADDGF101991999999999999999999
0029029070999991903070620004+64333+023450FM-12+000599999V0200501N006219999999N0000001N9+01001+99999101141ADDGF102991999999999999999999
0029029070999991903070706004+64333+023450FM-12+000599999V0201401N006219999999N0000001N9+01061+99999101461ADDGF103991999999999999999999
0029029070999991903070713004+64333+023450FM-12+000599999V0200201N008219999999N0000001N9+01171+99999101541ADDGF106991999999999999999999
0029029070999991903070720004+64333+023450FM-12+000599999V0200501N009819999999N0000001N9+01061+99999101661ADDGF105991999999999999999999
0029029070999991903070813004+64333+023450FM-12+000599999V0200201N011819999999N0000001N9+01221+99999101801ADDGF106991999999999999999999
0029029070999991903070820004+64333+023450FM-12+000599999V0200201N009819999999N0000001N9+01171+99999101681ADDGF106991999999999999999999
0029029070999991903070906004+64333+023450FM-12+000599999V0200901N011819999999N0000001N9+01221+99999101541ADDGF108991999999999999999999
0009029070999991903070913004+64333+023450FM-12+000599999V0200901N011819999999N0000001N9+01061+99999101551ADDMW1621
0029029070999991903070920004+64333+023450FM-12+000599999V0200501N013919999999N0000001N9+01001+99999101481ADDGF108991999999999999999999
0029029070999991903071006004+64333+023450FM-12+000599999V0203601N011819999999N0000001N9+00831+99999101521ADDGF105991999999999999999999
0029029070999991903071013004+64333+023450FM-12+000599999V0203201N006219999999N0000001N9+01171+99999101471ADDGF104991999999999999999999
0029029070999991903071020004+64333+023450FM-12+000599999V0202501N006219999999N0000001N9+00941+99999101471ADDGF105991999999999999999999
0029029070999991903071106004+64333+023450FM-12+000599999V0202301N011819999999N0000001N9+01001+99999101231ADDGF108991999999999999999999
0029029070999991903071113004+64333+023450FM-12+000599999V0203601N004119999999N0000001N9+01221+99999101001ADDGF108991999999999999999999
0035029070999991903071120004+64333+023450FM-12+000599999V0200501N011819999999N0000001N9+01061+99999100761ADDGF108991999999999999999999MW1621
0029029070999991903071206004+64333+023450FM-12+000599999V0209991C000019999999N0000001N9+01171+99999100401ADDGF100991999999999999999999
0029029070999991903071213004+64333+023450FM-12+000599999V0202501N004119999999N0000001N9+01331+99999100271ADDGF101991999999999999999999
0029029070999991903071220004+64333+023450FM-12+000599999V0202501N004119999999N0000001N9+01171+99999100021ADDGF101991999999999999999999
0029029070999991903071306004+64333+023450FM-12+000599999V0202701N002119999999N0000001N9+01171+99999100031ADDGF102991999999999999999999
0029029070999991903071313004+64333+023450FM-12+000599999V0203201N004119999999N0000001N9+01391+99999099881ADDGF106991999999999999999999
0029029070999991903071320004+64333+023450FM-12+000599999V0203601N008219999999N0000001N9+01221+99999099861ADDGF108991999999999999999999
0029029070999991903071406004+64333+023450FM-12+000599999V0201601N009819999999N0000001N9+01331+99999099941ADDGF103991999999999999999999
0029029070999991903071413004+64333+023450FM-12+000599999V0209991C000019999999N0000001N9+01561+99999100111ADDGF104991999999999999999999
0029029070999991903071420004+64333+023450FM-12+000599999V0203601N008219999999N0000001N9+01281+99999099991ADDGF106991999999999999999999
0029029070999991903071506004+64333+023450FM-12+000599999V0209991C000019999999N0000001N9+01281+99999099781ADDGF104991999999999999999999
0029029070999991903071513004+64333+023450FM-12+000599999V0202301N011819999999N0000001N9+01331+99999099751ADDGF100991999999999999999999
0029029070999991903071520004+64333+023450FM-12+000599999V0202301N011819999999N0000001N9+01111+99999099681ADDGF103991999999999999999999
0035029070999991903071606004+64333+023450FM-12+000599999V0202501N015919999999N0000001N9+00891+99999100161ADDGF108991999999999999999999MW1621
0029029070999991903071613004+64333+023450FM-12+000599999V0202501N015919999999N0000001N9+01171+99999100681ADDGF108991999999999999999999
0029029070999991903071620004+64333+023450FM-12+000599999V0202501N009819999999N0000001N9+01061+99999100961ADDGF103991999999999999999999
0029029070999991903071706004+64333+023450FM-12+000599999V0202301N004119999999N0000001N9+01221+99999101321ADDGF103991999999999999999999
0029029070999991903071713004+64333+023450FM-12+000599999V0202501N008219999999N0000001N9+01331+99999101391ADDGF101991999999999999999999
0029029070999991903071720004+64333+023450FM-12+000599999V0201601N004119999999N0000001N9+01171+99999101431ADDGF102991999999999999999999
0029029070999991903071806004+64333+023450FM-12+000599999V0200901N002119999999N0000001N9+01331+99999101301ADDGF100991999999999999999999
0029029070999991903071813004+64333+023450FM-12+000599999V0200901N004119999999N0000001N9+01501+99999100911ADDGF106991999999999999999999
0035029070999991903071820004+64333+023450FM-12+000599999V0200901N015919999999N0000001N9+01061+99999100591ADDGF108991999999999999999999MW1621
0035029070999991903071906004+64333+023450FM-12+000599999V0200501N020119999999N0000001N9+01061+99999099721ADDGF108991999999999999999999MW1621
0009029070999991903071913004+64333+023450FM-12+000599999V0200501N020119999999N0000001N9+01111+99999099671ADDMW1621
0029029070999991903071920004+64333+023450FM-12+000599999V0203601N015919999999N0000001N9+01111+99999099871ADDGF108991999999999999999999
0029029070999991903072006004+64333+023450FM-12+000599999V0203601N027819999999N0000001N9+01001+99999100421ADDGF108991999999999999999999
0029029070999991903072013004+64333+023450FM-12+000599999V0203401N020119999999N0000001N9+01061+99999100981ADDGF108991999999999999999999
0029029070999991903072020004+64333+023450FM-12+000599999V0203601N015919999999N0000001N9+01001+99999101021ADDGF107991999999999999999999
0029029070999991903072106004+64333+023450FM-12+000599999V0203601N020119999999N0000001N9+00891+99999101181ADDGF106991999999999999999999
0029029070999991903072113004+64333+023450FM-12+000599999V0203601N020119999999N0000001N9+01001+99999101161ADDGF106991999999999999999999
0029029070999991903072120004+64333+023450FM-12+000599999V0200201N015919999999N0000001N9+00941+99999101231ADDGF107991999999999999999999
0035029070999991903072206004+64333+023450FM-12+000599999V0203601N015919999999N0000001N9+00891+99999101191ADDGF108991999999999999999999MW1601
0029029070999991903072213004+64333+023450FM-12+000599999V0203601N013919999999N0000001N9+01001+99999101271ADDGF106991999999999999999999
0029029070999991903072220004+64333+023450FM-12+000599999V0203601N011819999999N0000001N9+01001+99999101281ADDGF105991999999999999999999
0029029070999991903072306004+64333+023450FM-12+000599999V0203601N006219999999N0000001N9+01111+99999101391ADDGF100991999999999999999999
0029029070999991903072313004+64333+023450FM-12+000599999V0203201N002119999999N0000001N9+01331+99999101441ADDGF100991999999999999999999
0029029070999991903072320004+64333+023450FM-12+000599999V0209991C000019999999N0000001N9+01221+99999101501ADDGF101991999999999999999999
0029029070999991903072406004+64333+023450FM-12+000599999V0201801N006219999999N0000001N9+01171+99999101551ADDGF101991999999999999999999
0029029070999991903072413004+64333+023450FM-12+000599999V0202501N002119999999N0000001N9+01501+99999101671ADDGF101991999999999999999999
0029029070999991903072420004+64333+023450FM-12+000599999V0201401N004119999999N0000001N9+01331+99999101641ADDGF103991999999999999999999
0029029070999991903072506004+64333+023450FM-12+000599999V0201801N006219999999N0000001N9+01221+99999101601ADDGF102991999999999999999999
0029029070999991903072513004+64333+023450FM-12+000599999V0203601N008219999999N0000001N9+01501+99999101591ADDGF100991999999999999999999
0029029070999991903072520004+64333+023450FM-12+000599999V0200501N009819999999N0000001N9+01441+99999101601ADDGF100991999999999999999999
0029029070999991903072606004+64333+023450FM-12+000599999V0200501N006219999999N0000001N9+01281+99999101841ADDGF100991999999999999999999
0029029070999991903072613004+64333+023450FM-12+000599999V0200501N006219999999N0000001N9+01561+99999101561ADDGF101991999999999999999999
0029029070999991903072620004+64333+023450FM-12+000599999V0200901N004119999999N0000001N9+01331+99999101511ADDGF104991999999999999999999
0029029070999991903072706004+64333+023450FM-12+000599999V0201801N004119999999N0000001N9+01501+99999101421ADDGF100991999999999999999999
0029029070999991903072713004+64333+023450FM-12+000599999V0200501N009819999999N0000001N9+01561+99999101391ADDGF100991999999999999999999
0029029070999991903072720004+64333+023450FM-12+000599999V0200501N009819999999N0000001N9+01331+99999101481ADDGF101991999999999999999999
0029029070999991903072806004+64333+023450FM-12+000599999V0200501N008219999999N0000001N9+01221+99999101681ADDGF100991999999999999999999
0029029070999991903072813004+64333+023450FM-12+000599999V0200501N011819999999N0000001N9+01331+99999101541ADDGF106991999999999999999999
0029029070999991903072820004+64333+023450FM-12+000599999V0200701N009819999999N0000001N9+01281+99999101431ADDGF106991999999999999999999
0029029070999991903072906004+64333+023450FM-12+000599999V0200701N008219999999N0000001N9+01221+99999101301ADDGF106991999999999999999999
0029029070999991903072913004+64333+023450FM-12+000599999V0200501N006219999999N0000001N9+01501+99999101181ADDGF106991999999999999999999
0029029070999991903072920004+64333+023450FM-12+000599999V0203601N004119999999N0000001N9+01281+99999101081ADDGF106991999999999999999999
0029029070999991903073006004+64333+023450FM-12+000599999V0200501N006219999999N0000001N9+01331+99999100841ADDGF104991999999999999999999
0029029070999991903073013004+64333+023450FM-12+000599999V0200501N006219999999N0000001N9+01561+99999100601ADDGF105991999999999999999999
0029029070999991903073020004+64333+023450FM-12+000599999V0200901N006219999999N0000001N9+01331+99999100481ADDGF108991999999999999999999
0035029070999991903073106004+64333+023450FM-12+000599999V0200501N006219999999N0000001N9+01281+99999099791ADDGF108991999999999999999999MW1621
0029029070999991903073113004+64333+023450FM-12+000599999V0209991C000019999999N0000001N9+01441+99999099711ADDGF108991999999999999999999
0029029070999991903073120004+64333+023450FM-12+000599999V0202301N008219999999N0000001N9+01281+99999099421ADDGF108991999999999999999999
0029029070999991903080106004+64333+023450FM-12+000599999V0202001N009819999999N0000001N9+01281+99999099421ADDGF108991999999999999999999
0029029070999991903080113004+64333+023450FM-12+000599999V0203601N006219999999N0000001N9+01221+99999099561ADDGF108991999999999999999999
0029029070999991903080120004+64333+023450FM-12+000599999V0203601N008219999999N0000001N9+01221+99999099501ADDGF108991999999999999999999
0029029070999991903080206004+64333+023450FM-12+000599999V0200701N008219999999N0000001N9+01221+99999099061ADDGF108991999999999999999999
0029029070999991903080213004+64333+023450FM-12+000599999V0200501N006219999999N0000001N9+01281+99999098961ADDGF108991999999999999999999
0029029070999991903080220004+64333+023450FM-12+000599999V0201601N009819999999N0000001N9+01221+99999098841ADDGF108991999999999999999999
0029029070999991903080306004+64333+023450FM-12+000599999V0202501N009819999999N0000001N9+01061+99999099261ADDGF106991999999999999999999
0029029070999991903080313004+64333+023450FM-12+000599999V0202301N008219999999N0000001N9+01281+99999099441ADDGF105991999999999999999999
0029029070999991903080320004+64333+023450FM-12+000599999V0209991C000019999999N0000001N9+01171+99999099601ADDGF105991999999999999999999
0029029070999991903080406004+64333+023450FM-12+000599999V0209991C000019999999N0000001N9+01171+99999099791ADDGF108991999999999999999999
0029029070999991903080413004+64333+023450FM-12+000599999V0209991C000019999999N0000001N9+01611+99999099921ADDGF106991999999999999999999
0029029070999991903080420004+64333+023450FM-12+000599999V0202301N004119999999N0000001N9+01281+99999100071ADDGF102991999999999999999999
0029029070999991903080506004+64333+023450FM-12+000599999V0209991C000019999999N0000001N9+01281+99999100191ADDGF108991999999999999999999
0029029070999991903080513004+64333+023450FM-12+000599999V0209991C000019999999N0000001N9+01501+99999100061ADDGF104991999999999999999999
0029029070999991903080520004+64333+023450FM-12+000599999V0201401N004119999999N0000001N9+01281+99999099911ADDGF106991999999999999999999
0029029070999991903080606004+64333+023450FM-12+000599999V0200901N006219999999N0000001N9+01281+99999099831ADDGF108991999999999999999999
0035029070999991903080613004+64333+023450FM-12+000599999V0201101N009819999999N0000001N9+01331+99999099711ADDGF108991999999999999999999MW1621
0029029070999991903080620004+64333+023450FM-12+000599999V0200701N006219999999N0000001N9+01281+99999099511ADDGF105991999999999999999999
0029029070999991903080706004+64333+023450FM-12+000599999V0203601N009819999999N0000001N9+01281+99999099671ADDGF108991999999999999999999
0029029070999991903080713004+64333+023450FM-12+000599999V0203601N011819999999N0000001N9+01501+99999099621ADDGF106991999999999999999999
0029029070999991903080720004+64333+023450FM-12+000599999V0203601N009819999999N0000001N9+01331+99999099521ADDGF108991999999999999999999
0035029070999991903080806004+64333+023450FM-12+000599999V0203201N020119999999N0000001N9+01221+99999098821ADDGF108991999999999999999999MW1621
0035029070999991903080813004+64333+023450FM-12+000599999V0202901N020119999999N0000001N9+01221+99999098901ADDGF108991999999999999999999MW1621
0035029070999991903080820004+64333+023450FM-12+000599999V0202901N015919999999N0000001N9+01281+99999098981ADDGF108991999999999999999999MW1621
0035029070999991903080906004+64333+023450FM-12+000599999V0203201N020119999999N0000001N9+01221+99999098871ADDGF108991999999999999999999MW1621
0029029070999991903080913004+64333+023450FM-12+000599999V0203401N015919999999N0000001N9+01221+99999099321ADDGF108991999999999999999999
0029029070999991903080920004+64333+023450FM-12+000599999V0203601N011819999999N0000001N9+01221+99999099541ADDGF105991999999999999999999
0029029070999991903081006004+64333+023450FM-12+000599999V0200201N008219999999N0000001N9+01281+99999099741ADDGF106991999999999999999999
0029029070999991903081013004+64333+023450FM-12+000599999V0209991C000019999999N0000001N9+01501+99999099941ADDGF100991999999999999999999
0029029070999991903081020004+64333+023450FM-12+000599999V0209991C000019999999N0000001N9+01281+99999100101ADDGF104991999999999999999999
0029029070999991903081106004+64333+023450FM-12+000599999V0200901N004119999999N0000001N9+01171+99999100191ADDGF108991999999999999999999
0029029070999991903081113004+64333+023450FM-12+000599999V0209991C000019999999N0000001N9+01501+99999100161ADDGF104991999999999999999999
0029029070999991903081120004+64333+023450FM-12+000599999V0203201N002119999999N0000001N9+01331+99999100101ADDGF108991999999999999999999
0029029070999991903081213004+64333+023450FM-12+000599999V0209991C000019999999N0000001N9+01331+99999100431ADDGF107991999999999999999999
0029029070999991903081220004+64333+023450FM-12+000599999V0203601N006219999999N0000001N9+01281+99999100521ADDGF107991999999999999999999
0029029070999991903081306004+64333+023450FM-12+000599999V0200201N006219999999N0000001N9+01281+99999100461ADDGF103991999999999999999999
0029029070999991903081313004+64333+023450FM-12+000599999V0200201N006219999999N0000001N9+01331+99999100541ADDGF104991999999999999999999
0029029070999991903081320004+64333+023450FM-12+000599999V0200201N006219999999N0000001N9+01221+99999100581ADDGF105991999999999999999999
0029029070999991903081406004+64333+023450FM-12+000599999V0202701N006219999999N0000001N9+01281+99999100521ADDGF108991999999999999999999
0029029070999991903081413004+64333+023450FM-12+000599999V0202301N002119999999N0000001N9+01501+99999100621ADDGF108991999999999999999999
0029029070999991903081420004+64333+023450FM-12+000599999V0202701N004119999999N0000001N9+01331+99999100721ADDGF108991999999999999999999
0029029070999991903081506004+64333+023450FM-12+000599999V0202701N006219999999N0000001N9+01331+99999101021ADDGF108991999999999999999999
0029029070999991903081513004+64333+023450FM-12+000599999V0202301N009819999999N0000001N9+01281+99999101191ADDGF108991999999999999999999
0029029070999991903081520004+64333+023450FM-12+000599999V0209991C000019999999N0000001N9+01221+99999101261ADDGF107991999999999999999999
0029029070999991903081606004+64333+023450FM-12+000599999V0200901N004119999999N0000001N9+01391+99999101181ADDGF100991999999999999999999
0029029070999991903081613004+64333+023450FM-12+000599999V0200701N009819999999N0000001N9+01561+99999101021ADDGF104991999999999999999999
0029029070999991903081620004+64333+023450FM-12+000599999V0200501N009819999999N0000001N9+01441+99999100881ADDGF102991999999999999999999
0029029070999991903081713004+64333+023450FM-12+000599999V0200701N009819999999N0000001N9+01561+99999100461ADDGF104991999999999999999999
0029029070999991903081720004+64333+023450FM-12+000599999V0200501N009819999999N0000001N9+01441+99999100381ADDGF105991999999999999999999
0029029070999991903081813004+64333+023450FM-12+000599999V0200701N013919999999N0000001N9+01441+99999100351ADDGF106991999999999999999999
0029029070999991903081820004+64333+023450FM-12+000599999V0200501N011819999999N0000001N9+01221+99999100391ADDGF103991999999999999999999
0029029070999991903081906004+64333+023450FM-12+000599999V0200501N008219999999N0000001N9+01331+99999100461ADDGF106991999999999999999999
0029029070999991903081913004+64333+023450FM-12+000599999V0200501N011819999999N0000001N9+01441+99999100391ADDGF105991999999999999999999
0029029070999991903081920004+64333+023450FM-12+000599999V0200501N011819999999N0000001N9+01281+99999100431ADDGF105991999999999999999999
0029029070999991903082006004+64333+023450FM-12+000599999V0200701N009819999999N0000001N9+01331+99999100381ADDGF106991999999999999999999
0029029070999991903082013004+64333+023450FM-12+000599999V0200701N009819999999N0000001N9+01441+99999100341ADDGF106991999999999999999999
0029029070999991903082020004+64333+023450FM-12+000599999V0200701N011819999999N0000001N9+01281+99999100241ADDGF108991999999999999999999
0035029070999991903082106004+64333+023450FM-12+000599999V0201801N013919999999N0000001N9+01281+99999100081ADDGF108991999999999999999999MW1621
0035029070999991903082113004+64333+023450FM-12+000599999V0202001N011819999999N0000001N9+01441+99999100111ADDGF108991999999999999999999MW1621
0029029070999991903082120004+64333+023450FM-12+000599999V0201101N008219999999N0000001N9+01281+99999100261ADDGF108991999999999999999999
0029029070999991903082206004+64333+023450FM-12+000599999V0202001N013919999999N0000001N9+01331+99999099381ADDGF103991999999999999999999
0029029070999991903082213004+64333+023450FM-12+000599999V0201801N020119999999N0000001N9+01331+99999099241ADDGF106991999999999999999999
0035029070999991903082220004+64333+023450FM-12+000599999V0202001N027819999999N0000001N9+01171+99999099001ADDGF108991999999999999999999MW1621
0029029070999991903082306004+64333+023450FM-12+000599999V0202301N020119999999N0000001N9+01061+99999100121ADDGF102991999999999999999999
0029029070999991903082313004+64333+023450FM-12+000599999V0202301N020119999999N0000001N9+01221+99999100341ADDGF105991999999999999999999
0029029070999991903082320004+64333+023450FM-12+000599999V0202301N015919999999N0000001N9+01111+99999100661ADDGF104991999999999999999999
0029029070999991903082406004+64333+023450FM-12+000599999V0202301N009819999999N0000001N9+01061+99999101151ADDGF100991999999999999999999
0029029070999991903082413004+64333+023450FM-12+000599999V0209991C000019999999N0000001N9+01441+99999101031ADDGF100991999999999999999999
0035029070999991903082420004+64333+023450FM-12+000599999V0200901N009819999999N0000001N9+01281+99999100631ADDGF108991999999999999999999MW1621
0035029070999991903082506004+64333+023450FM-12+000599999V0203601N011819999999N0000001N9+01111+99999100061ADDGF108991999999999999999999MW1621
0029029070999991903082513004+64333+023450FM-12+000599999V0202901N008219999999N0000001N9+01281+99999100511ADDGF108991999999999999999999
0029029070999991903082520004+64333+023450FM-12+000599999V0202501N006219999999N0000001N9+01171+99999100941ADDGF100991999999999999999999
0029029070999991903082606004+64333+023450FM-12+000599999V0202701N006219999999N0000001N9+01111+99999101501ADDGF100991999999999999999999
0029029070999991903082613004+64333+023450FM-12+000599999V0202301N006219999999N0000001N9+01221+99999101581ADDGF100991999999999999999999
0029029070999991903082620004+64333+023450FM-12+000599999V0209991C000019999999N0000001N9+01001+99999101361ADDGF100991999999999999999999
0029029070999991903082706004+64333+023450FM-12+000599999V0201401N002119999999N0000001N9+01171+99999100991ADDGF108991999999999999999999
0029029070999991903082713004+64333+023450FM-12+000599999V0209991C000019999999N0000001N9+01281+99999100661ADDGF103991999999999999999999
0029029070999991903082720004+64333+023450FM-12+000599999V0209991C000019999999N0000001N9+01111+99999100481ADDGF105991999999999999999999
0029029070999991903082806004+64333+023450FM-12+000599999V0201401N013919999999N0000001N9+01171+99999099661ADDGF108991999999999999999999
0035029070999991903082813004+64333+023450FM-12+000599999V0201401N013919999999N0000001N9+01171+99999099301ADDGF108991999999999999999999MW1621
0029029070999991903082820004+64333+023450FM-12+000599999V0201801N009819999999N0000001N9+01111+99999099061ADDGF108991999999999999999999
0029029070999991903082906004+64333+023450FM-12+000599999V0201801N009819999999N0000001N9+01171+99999098711ADDGF104991999999999999999999
0035029070999991903082913004+64333+023450FM-12+000599999V0202001N009819999999N0000001N9+01221+99999098711ADDGF108991999999999999999999MW1621
0029029070999991903082920004+64333+023450FM-12+000599999V0202001N009819999999N0000001N9+01111+99999098821ADDGF108991999999999999999999
0029029070999991903083006004+64333+023450FM-12+000599999V0200201N009819999999N0000001N9+01111+99999099321ADDGF103991999999999999999999
0029029070999991903083013004+64333+023450FM-12+000599999V0200201N009819999999N0000001N9+01221+99999099471ADDGF100991999999999999999999
0029029070999991903083020004+64333+023450FM-12+000599999V0200201N008219999999N0000001N9+01001+99999099631ADDGF100991999999999999999999
0029029070999991903083106004+64333+023450FM-12+000599999V0203601N015919999999N0000001N9+01171+99999099601ADDGF103991999999999999999999
0029029070999991903083113004+64333+023450FM-12+000599999V0203401N011819999999N0000001N9+01221+99999099701ADDGF102991999999999999999999
0029029070999991903083120004+64333+023450FM-12+000599999V0203201N009819999999N0000001N9+01171+99999099831ADDGF101991999999999999999999
0029029070999991903090106004+64333+023450FM-12+000599999V0203601N009819999999N0000001N9+01111+99999100551ADDGF100991999999999999999999
0029029070999991903090113004+64333+023450FM-12+000599999V0202501N006219999999N0000001N9+01281+99999101141ADDGF103991999999999999999999
0029029070999991903090120004+64333+023450FM-12+000599999V0202501N002119999999N0000001N9+01061+99999101501ADDGF103991999999999999999999
0029029070999991903090206004+64333+023450FM-12+000599999V0202701N011819999999N0000001N9+00941+99999101941ADDGF101991999999999999999999
0029029070999991903090213004+64333+023450FM-12+000599999V0202701N008219999999N0000001N9+01001+99999102151ADDGF104991999999999999999999
0029029070999991903090220004+64333+023450FM-12+000599999V0202701N006219999999N0000001N9+00941+99999102341ADDGF106991999999999999999999
0029029070999991903090306004+64333+023450FM-12+000599999V0200901N009819999999N0000001N9+00941+99999102681ADDGF108991999999999999999999
0029029070999991903090313004+64333+023450FM-12+000599999V0201401N015919999999N0000001N9+01171+99999101981ADDGF108991999999999999999999
0035029070999991903090320004+64333+023450FM-12+000599999V0201401N020119999999N0000001N9+01061+99999101281ADDGF108991999999999999999999MW1621
0029029070999991903090406004+64333+023450FM-12+000599999V0202701N006219999999N0000001N9+01171+99999101161ADDGF103991999999999999999999
0029029070999991903090413004+64333+023450FM-12+000599999V0202301N008219999999N0000001N9+01281+99999101421ADDGF103991999999999999999999
0029029070999991903090420004+64333+023450FM-12+000599999V0202501N009819999999N0000001N9+01171+99999101471ADDGF100991999999999999999999
0029029070999991903090506004+64333+023450FM-12+000599999V0202901N011819999999N0000001N9+01111+99999102151ADDGF100991999999999999999999
0029029070999991903090513004+64333+023450FM-12+000599999V0202001N009819999999N0000001N9+01281+99999102431ADDGF100991999999999999999999
0029029070999991903090520004+64333+023450FM-12+000599999V0202301N006219999999N0000001N9+01061+99999102351ADDGF103991999999999999999999
0029029070999991903090606004+64333+023450FM-12+000599999V0202001N013919999999N0000001N9+01111+99999102031ADDGF108991999999999999999999
0029029070999991903090613004+64333+023450FM-12+000599999V0202001N013919999999N0000001N9+01221+99999101741ADDGF108991999999999999999999
0035029070999991903090620004+64333+023450FM-12+000599999V0201801N011819999999N0000001N9+01171+99999101471ADDGF108991999999999999999999MW1621
0029029070999991903090706004+64333+023450FM-12+000599999V0202001N008219999999N0000001N9+01171+99999101191ADDGF108991999999999999999999
0029029070999991903090713004+64333+023450FM-12+000599999V0202301N011819999999N0000001N9+01331+99999101151ADDGF106991999999999999999999
