0029029070999991904010106004+64333+023450FM-12+000599999V0203401N009819999999N0000001N9+00111+99999101741ADDGF100991999999999999999999
0029029070999991904010113004+64333+023450FM-12+000599999V0203601N008219999999N0000001N9+00111+99999101911ADDGF104991999999999999999999
0029029070999991904010120004+64333+023450FM-12+000599999V0203601N008219999999N0000001N9+00001+99999102351ADDGF100991999999999999999999
0029029070999991904010206004+64333+023450FM-12+000599999V0203601N002119999999N0000001N9-00111+99999102621ADDGF104991999999999999999999
0029029070999991904010213004+64333+023450FM-12+000599999V0202001N008219999999N0000001N9-00281+99999102631ADDGF108991999999999999999999
0029029070999991904010220004+64333+023450FM-12+000599999V0202001N011819999999N0000001N9-00061+99999102601ADDGF106991999999999999999999
0029029070999991904010306004+64333+023450FM-12+000599999V0203201N020119999999N0000001N9-00171+99999102461ADDGF108991999999999999999999
0029029070999991904010313004+64333+023450FM-12+000599999V0202301N027819999999N0000001N9-00171+99999102321ADDGF108991999999999999999999
0029029070999991904010320004+64333+023450FM-12+000599999V0202301N027819999999N0000001N9-00111+99999102231ADDGF108991999999999999999999
0029029070999991904010406004+64333+023450FM-12+000599999V0202501N015919999999N0000001N9-00171+99999102201ADDGF108991999999999999999999
0029029070999991904010413004+64333+023450FM-12+000599999V0202501N011819999999N0000001N9-00061+99999102311ADDGF108991999999999999999999
0029029070999991904010420004+64333+023450FM-12+000599999V0202501N013919999999N0000001N9-00111+99999102431ADDGF108991999999999999999999
0029029070999991904010506004+64333+023450FM-12+000599999V0202301N015919999999N0000001N9-00061+99999102521ADDGF108991999999999999999999
0029029070999991904010513004+64333+023450FM-12+000599999V0202301N013919999999N0000001N9-00061+99999102541ADDGF108991999999999999999999
0029029070999991904010520004+64333+023450FM-12+000599999V0202301N011819999999N0000001N9-00171+99999102551ADDGF108991999999999999999999
0035029070999991904010606004+64333+023450FM-12+000599999V0202301N015919999999N0000001N9-00171+99999102261ADDGF108991999999999999999999MW1701
0035029070999991904010613004+64333+023450FM-12+000599999V0202001N011819999999N0000001N9-00171+99999102221ADDGF108991999999999999999999MW1701
0029029070999991904010620004+64333+023450FM-12+000599999V0202301N011819999999N0000001N9-00061+99999102181ADDGF103991999999999999999999
0029029070999991904010706004+64333+023450FM-12+000599999V0202301N015919999999N0000001N9+00001+99999102081ADDGF108991999999999999999999
0029029070999991904010713004+64333+023450FM-12+000599999V0202001N015919999999N0000001N9-00171+99999102001ADDGF108991999999999999999999
0029029070999991904010720004+64333+023450FM-12+000599999V0202301N015919999999N0000001N9-00171+99999101871ADDGF108991999999999999999999
0029029070999991904010806004+64333+023450FM-12+000599999V0202001N015919999999N0000001N9-00171+99999101481ADDGF108991999999999999999999
0029029070999991904010813004+64333+023450FM-12+000599999V0201801N020119999999N0000001N9-00171+99999101121ADDGF108991999999999999999999
0029029070999991904010820004+64333+023450FM-12+000599999V0201801N027819999999N0000001N9-00281+99999100951ADDGF108991999999999999999999
0029029070999991904010906004+64333+023450FM-12+000599999V0202001N020119999999N0000001N9-00171+99999100861ADDGF108991999999999999999999
0029029070999991904010913004+64333+023450FM-12+000599999V0202001N020119999999N0000001N9-00111+99999100921ADDGF108991999999999999999999
0029029070999991904010920004+64333+023450FM-12+000599999V0202001N020119999999N0000001N9-00281+99999100821ADDGF108991999999999999999999
0029029070999991904011006004+64333+023450FM-12+000599999V0202301N015919999999N0000001N9-00221+99999100151ADDGF108991999999999999999999
0029029070999991904011013004+64333+023450FM-12+000599999V0202301N015919999999N0000001N9+00001+99999100241ADDGF108991999999999999999999
0029029070999991904011020004+64333+023450FM-12+000599999V0202301N013919999999N0000001N9+00001+99999100621ADDGF100991999999999999999999
0029029070999991904011106004+64333+023450FM-12+000599999V0202301N020119999999N0000001N9+00061+99999100521ADDGF108991999999999999999999
0029029070999991904011113004+64333+023450FM-12+000599999V0202001N020119999999N0000001N9+00111+99999100441ADDGF108991999999999999999999
0029029070999991904011120004+64333+023450FM-12+000599999V0202001N015919999999N0000001N9+00111+99999100421ADDGF108991999999999999999999
0029029070999991904011206004+64333+023450FM-12+000599999V0202001N015919999999N0000001N9+00061+99999100041ADDGF108991999999999999999999
0029029070999991904011213004+64333+023450FM-12+000599999V0201801N015919999999N0000001N9+00061+99999099921ADDGF108991999999999999999999
0029029070999991904011220004+64333+023450FM-12+000599999V0201801N013919999999N0000001N9+00061+99999099751ADDGF108991999999999999999999
0029029070999991904011306004+64333+023450FM-12+000599999V0201401N011819999999N0000001N9-00331+99999099511ADDGF108991999999999999999999
0029029070999991904011313004+64333+023450FM-12+000599999V0201401N009819999999N0000001N9-00441+99999099381ADDGF108991999999999999999999
0029029070999991904011320004+64333+023450FM-12+000599999V0201401N009819999999N0000001N9-00561+99999099351ADDGF108991999999999999999999
0029029070999991904011406004+64333+023450FM-12+000599999V0201101N011819999999N0000001N9-00501+99999099081ADDGF108991999999999999999999
0029029070999991904011413004+64333+023450FM-12+000599999V0201101N013919999999N0000001N9-00331+99999099071ADDGF108991999999999999999999
0029029070999991904011420004+64333+023450FM-12+000599999V0201101N015919999999N0000001N9-00501+99999098751ADDGF108991999999999999999999
0029029070999991904011506004+64333+023450FM-12+000599999V0200901N011819999999N0000001N9-00671+99999098741ADDGF108991999999999999999999
0029029070999991904011513004+64333+023450FM-12+000599999V0200901N011819999999N0000001N9-00781+99999098921ADDGF108991999999999999999999
0029029070999991904011520004+64333+023450FM-12+000599999V0200901N011819999999N0000001N9-00781+99999099281ADDGF108991999999999999999999
0029029070999991904011606004+64333+023450FM-12+000599999V0201101N013919999999N0000001N9-00831+99999099631ADDGF108991999999999999999999
0029029070999991904011613004+64333+023450FM-12+000599999V0200701N013919999999N0000001N9-00831+99999099781ADDGF108991999999999999999999
0029029070999991904011620004+64333+023450FM-12+000599999V0200701N013919999999N0000001N9-00781+99999099901ADDGF108991999999999999999999
0029029070999991904011706004+64333+023450FM-12+000599999V0203601N004119999999N0000001N9-00721+99999100151ADDGF108991999999999999999999
0029029070999991904011713004+64333+023450FM-12+000599999V0203601N004119999999N0000001N9-00781+99999100441ADDGF108991999999999999999999
0029029070999991904011720004+64333+023450FM-12+000599999V0203201N002119999999N0000001N9-00671+99999100741ADDGF108991999999999999999999
0029029070999991904011806004+64333+023450FM-12+000599999V0209991C000019999999N0000001N9-00561+99999101341ADDGF108991999999999999999999
0029029070999991904011813004+64333+023450FM-12+000599999V0209991C000019999999N0000001N9-00501+99999101641ADDGF106991999999999999999999
0029029070999991904011820004+64333+023450FM-12+000599999V0202301N015919999999N0000001N9-00561+99999101641ADDGF108991999999999999999999
0029029070999991904011906004+64333+023450FM-12+000599999V0202501N020119999999N0000001N9+00001+99999100921ADDGF104991999999999999999999
0029029070999991904011913004+64333+023450FM-12+000599999V0202501N027819999999N0000001N9+00111+99999101221ADDGF102991999999999999999999
0029029070999991904011920004+64333+023450FM-12+000599999V0202701N027819999999N0000001N9-00171+99999101781ADDGF104991999999999999999999
0029029070999991904012006004+64333+023450FM-12+000599999V0202701N008219999999N0000001N9+00111+99999102301ADDGF100991999999999999999999
0029029070999991904012013004+64333+023450FM-12+000599999V0202501N008219999999N0000001N9+00111+99999102081ADDGF103991999999999999999999
0029029070999991904012020004+64333+023450FM-12+000599999V0202301N015919999999N0000001N9-00061+99999101741ADDGF108991999999999999999999
0029029070999991904012106004+64333+023450FM-12+000599999V0202301N020119999999N0000001N9+00001+99999100711ADDGF104991999999999999999999
0029029070999991904012113004+64333+023450FM-12+000599999V0202301N020119999999N0000001N9+00001+99999100471ADDGF103991999999999999999999
0029029070999991904012120004+64333+023450FM-12+000599999V0202301N015919999999N0000001N9+00001+99999100781ADDGF100991999999999999999999
0029029070999991904012206004+64333+023450FM-12+000599999V0202301N020119999999N0000001N9-00061+99999101071ADDGF108991999999999999999999
0029029070999991904012213004+64333+023450FM-12+000599999V0202301N027819999999N0000001N9-00061+99999101021ADDGF108991999999999999999999
0029029070999991904012220004+64333+023450FM-12+000599999V0202301N027819999999N0000001N9-00111+99999099951ADDGF108991999999999999999999
0029029070999991904012306004+64333+023450FM-12+000599999V0202301N015919999999N0000001N9+00171+99999099561ADDGF105991999999999999999999
0029029070999991904012313004+64333+023450FM-12+000599999V0202301N027819999999N0000001N9+00281+99999099181ADDGF106991999999999999999999
0029029070999991904012320004+64333+023450FM-12+000599999V0202301N027819999999N0000001N9+00221+99999099141ADDGF100991999999999999999999
0029029070999991904012406004+64333+023450FM-12+000599999V0202501N013919999999N0000001N9+00061+99999100671ADDGF100991999999999999999999
0029029070999991904012413004+64333+023450FM-12+000599999V0202501N013919999999N0000001N9+00221+99999100401ADDGF104991999999999999999999
0029029070999991904012420004+64333+023450FM-12+000599999V0202301N020119999999N0000001N9+00281+99999100121ADDGF104991999999999999999999
0029029070999991904012506004+64333+023450FM-12+000599999V0202501N015919999999N0000001N9+00171+99999100181ADDGF100991999999999999999999
0029029070999991904012513004+64333+023450FM-12+000599999V0202501N015919999999N0000001N9+00221+99999100471ADDGF102991999999999999999999
0029029070999991904012520004+64333+023450FM-12+000599999V0202501N015919999999N0000001N9+00171+99999100831ADDGF106991999999999999999999
0029029070999991904012606004+64333+023450FM-12+000599999V0209991C000019999999N0000001N9+00001+99999101111ADDGF104991999999999999999999
0029029070999991904012613004+64333+023450FM-12+000599999V0201101N006219999999N0000001N9+00001+99999100991ADDGF108991999999999999999999
0029029070999991904012620004+64333+023450FM-12+000599999V0201801N006219999999N0000001N9-00061+99999100841ADDGF108991999999999999999999
0029029070999991904012706004+64333+023450FM-12+000599999V0202301N013919999999N0000001N9+00001+99999100951ADDGF100991999999999999999999
0029029070999991904012713004+64333+023450FM-12+000599999V0202001N011819999999N0000001N9-00061+99999101061ADDGF104991999999999999999999
0029029070999991904012720004+64333+023450FM-12+000599999V0202001N013919999999N0000001N9+00061+99999101101ADDGF104991999999999999999999
0029029070999991904012806004+64333+023450FM-12+000599999V0202001N027819999999N0000001N9+00111+99999100821ADDGF108991999999999999999999
0035029070999991904012813004+64333+023450FM-12+000599999V0202001N020119999999N0000001N9+00111+99999100591ADDGF108991999999999999999999MW1601
0029029070999991904012820004+64333+023450FM-12+000599999V0202001N020119999999N0000001N9+00171+99999100471ADDGF108991999999999999999999
0029029070999991904012906004+64333+023450FM-12+000599999V0202001N027819999999N0000001N9+00111+99999100351ADDGF108991999999999999999999
0035029070999991904012913004+64333+023450FM-12+000599999V0202001N027819999999N0000001N9+00171+99999100311ADDGF108991999999999999999999MW1601
0029029070999991904012920004+64333+023450FM-12+000599999V0202001N020119999999N0000001N9+00061+99999100351ADDGF108991999999999999999999
0029029070999991904013006004+64333+023450FM-12+000599999V0202001N008219999999N0000001N9+00061+99999101001ADDGF100991999999999999999999
0029029070999991904013013004+64333+023450FM-12+000599999V0202501N008219999999N0000001N9+00001+99999101381ADDGF100991999999999999999999
0029029070999991904013020004+64333+023450FM-12+000599999V0202301N008219999999N0000001N9-00171+99999101701ADDGF104991999999999999999999
0029029070999991904013106004+64333+023450FM-12+000599999V0202301N015919999999N0000001N9-00061+99999102061ADDGF108991999999999999999999
0029029070999991904013113004+64333+023450FM-12+000599999V0202301N015919999999N0000001N9+00001+99999102141ADDGF108991999999999999999999
0029029070999991904013120004+64333+023450FM-12+000599999V0202001N015919999999N0000001N9+00061+99999102201ADDGF108991999999999999999999
0029029070999991904020106004+64333+023450FM-12+000599999V0202001N009819999999N0000001N9-00061+99999102261ADDGF108991999999999999999999
0029029070999991904020113004+64333+023450FM-12+000599999V0202001N009819999999N0000001N9-00111+99999102281ADDGF108991999999999999999999
0029029070999991904020120004+64333+023450FM-12+000599999V0202001N009819999999N0000001N9-00221+99999102341ADDGF108991999999999999999999
0029029070999991904020206004+64333+023450FM-12+000599999V0201801N009819999999N0000001N9-00331+99999102191ADDGF108991999999999999999999
0029029070999991904020213004+64333+023450FM-12+000599999V0202001N011819999999N0000001N9-00391+99999102071ADDGF108991999999999999999999
0029029070999991904020220004+64333+023450FM-12+000599999V0202001N011819999999N0000001N9-00331+99999101871ADDGF108991999999999999999999
0029029070999991904020306004+64333+023450FM-12+000599999V0202001N009819999999N0000001N9-00331+99999101321ADDGF108991999999999999999999
0035029070999991904020313004+64333+023450FM-12+000599999V0202301N009819999999N0000001N9-00331+99999101021ADDGF108991999999999999999999MW1721
0035029070999991904020320004+64333+023450FM-12+000599999V0202301N004119999999N0000001N9-00441+99999100791ADDGF108991999999999999999999MW1721
0029029070999991904020406004+64333+023450FM-12+000599999V0200701N004119999999N0000001N9-00501+99999100671ADDGF108991999999999999999999
0029029070999991904020413004+64333+023450FM-12+000599999V0200901N002119999999N0000001N9-00501+99999100821ADDGF108991999999999999999999
0029029070999991904020420004+64333+023450FM-12+000599999V0200701N004119999999N0000001N9-00781+99999101031ADDGF108991999999999999999999
0029029070999991904020506004+64333+023450FM-12+000599999V0200901N004119999999N0000001N9-01221+99999101521ADDGF100991999999999999999999
0029029070999991904020513004+64333+023450FM-12+000599999V0209991C000019999999N0000001N9-01001+99999101751ADDGF100991999999999999999999
0029029070999991904020520004+64333+023450FM-12+000599999V0209991C000019999999N0000001N9-01171+99999101961ADDGF100991999999999999999999
0029029070999991904020606004+64333+023450FM-12+000599999V0209991C000019999999N0000001N9-01171+99999102191ADDGF100991999999999999999999
0029029070999991904020613004+64333+023450FM-12+000599999V0209991C000019999999N0000001N9-01171+99999102181ADDGF100991999999999999999999
0029029070999991904020620004+64333+023450FM-12+000599999V0209991C000019999999N0000001N9-01221+99999102141ADDGF100991999999999999999999
0029029070999991904020706004+64333+023450FM-12+000599999V0200701N009819999999N0000001N9-01391+99999101671ADDGF108991999999999999999999
0029029070999991904020713004+64333+023450FM-12+000599999V0200701N009819999999N0000001N9-01171+99999101401ADDGF108991999999999999999999
0029029070999991904020720004+64333+023450FM-12+000599999V0200701N009819999999N0000001N9-01171+99999101221ADDGF108991999999999999999999
0029029070999991904020806004+64333+023450FM-12+000599999V0200501N013919999999N0000001N9-01221+99999100701ADDGF104991999999999999999999
0029029070999991904020813004+64333+023450FM-12+000599999V0200501N013919999999N0000001N9-01111+99999100591ADDGF104991999999999999999999
0029029070999991904020820004+64333+023450FM-12+000599999V0200501N013919999999N0000001N9-01171+99999100551ADDGF100991999999999999999999
0029029070999991904020906004+64333+023450FM-12+000599999V0200501N004119999999N0000001N9-01281+99999100541ADDGF100991999999999999999999
0029029070999991904020913004+64333+023450FM-12+000599999V0200501N004119999999N0000001N9-01171+99999100471ADDGF100991999999999999999999
0029029070999991904020920004+64333+023450FM-12+000599999V0209991C000019999999N0000001N9-01441+99999100421ADDGF100991999999999999999999
0029029070999991904021006004+64333+023450FM-12+000599999V0201401N008219999999N0000001N9-01781+99999100281ADDGF108991999999999999999999
0029029070999991904021013004+64333+023450FM-12+000599999V0201601N008219999999N0000001N9-01611+99999100141ADDGF108991999999999999999999
0029029070999991904021020004+64333+023450FM-12+000599999V0201401N004119999999N0000001N9-01561+99999100081ADDGF108991999999999999999999
0029029070999991904021106004+64333+023450FM-12+000599999V0200901N006219999999N0000001N9-01501+99999099861ADDGF108991999999999999999999
0029029070999991904021113004+64333+023450FM-12+000599999V0200901N006219999999N0000001N9-01611+99999099701ADDGF108991999999999999999999
0029029070999991904021120004+64333+023450FM-12+000599999V0200901N013919999999N0000001N9-01501+99999099311ADDGF108991999999999999999999
0029029070999991904021206004+64333+023450FM-12+000599999V0200901N013919999999N0000001N9-01391+99999099141ADDGF108991999999999999999999
0029029070999991904021213004+64333+023450FM-12+000599999V0201401N013919999999N0000001N9-01221+99999099281ADDGF108991999999999999999999
0029029070999991904021220004+64333+023450FM-12+000599999V0200901N013919999999N0000001N9-01171+99999099621ADDGF108991999999999999999999
0035029070999991904021306004+64333+023450FM-12+000599999V0200901N006219999999N0000001N9-01221+99999100111ADDGF108991999999999999999999MW1701
0035029070999991904021313004+64333+023450FM-12+000599999V0200901N004119999999N0000001N9-01171+99999100101ADDGF108991999999999999999999MW1701
0035029070999991904021320004+64333+023450FM-12+000599999V0200901N004119999999N0000001N9-01221+99999099981ADDGF108991999999999999999999MW1701
0035029070999991904021406004+64333+023450FM-12+000599999V0200901N008219999999N0000001N9-01171+99999099621ADDGF108991999999999999999999MW1721
0035029070999991904021413004+64333+023450FM-12+000599999V0200901N009819999999N0000001N9-01061+99999099501ADDGF108991999999999999999999MW1721
0029029070999991904021420004+64333+023450FM-12+000599999V0209991C000019999999N0000001N9-01221+99999099591ADDGF100991999999999999999999
0035029070999991904021506004+64333+023450FM-12+000599999V0200901N011819999999N0000001N9-01331+99999099711ADDGF108991999999999999999999MW1721
0029029070999991904021513004+64333+023450FM-12+000599999V0200701N009819999999N0000001N9-01221+99999099831ADDGF108991999999999999999999
0029029070999991904021520004+64333+023450FM-12+000599999V0200701N011819999999N0000001N9-01221+99999099981ADDGF108991999999999999999999
0029029070999991904021606004+64333+023450FM-12+000599999V0200501N011819999999N0000001N9-01281+99999999999ADDGF108991999999999999999999
0029029070999991904021613004+64333+023450FM-12+000599999V0200501N011819999999N0000001N9-01171+99999099861ADDGF108991999999999999999999
0029029070999991904021620004+64333+023450FM-12+000599999V0200501N011819999999N0000001N9-01331+99999099881ADDGF108991999999999999999999
0029029070999991904021706004+64333+023450FM-12+000599999V0200501N009819999999N0000001N9-01331+99999099591ADDGF108991999999999999999999
0035029070999991904021713004+64333+023450FM-12+000599999V0200501N009819999999N0000001N9-01281+99999099621ADDGF108991999999999999999999MW1721
0035029070999991904021720004+64333+023450FM-12+000599999V0209991C000019999999N0000001N9-01281+99999099781ADDGF108991999999999999999999MW1721
0035029070999991904021806004+64333+023450FM-12+000599999V0209991C000019999999N0000001N9-01171+99999099951ADDGF108991999999999999999999MW1721
0029029070999991904021813004+64333+023450FM-12+000599999V0202001N004119999999N0000001N9-01061+99999100201ADDGF108991999999999999999999
0029029070999991904021820004+64333+023450FM-12+000599999V0209991C000019999999N0000001N9-01171+99999100201ADDGF104991999999999999999999
0029029070999991904021906004+64333+023450FM-12+000599999V0209991C000019999999N0000001N9-00941+99999100151ADDGF108991999999999999999999
0029029070999991904021913004+64333+023450FM-12+000599999V0200501N002119999999N0000001N9-00941+99999100271ADDGF108991999999999999999999
0029029070999991904021920004+64333+023450FM-12+000599999V0209991C000019999999N0000001N9-00831+99999100151ADDGF108991999999999999999999
0029029070999991904022006004+64333+023450FM-12+000599999V0200501N006219999999N0000001N9-00891+99999099241ADDGF108991999999999999999999
0029029070999991904022013004+64333+023450FM-12+000599999V0200901N002119999999N0000001N9-00671+99999098661ADDGF108991999999999999999999
0029029070999991904022020004+64333+023450FM-12+000599999V0209991C000019999999N0000001N9-00561+99999098151ADDGF108991999999999999999999
0035029070999991904022106004+64333+023450FM-12+000599999V0209991C000019999999N0000001N9-00891+99999098081ADDGF108991999999999999999999MW1701
0029029070999991904022113004+64333+023450FM-12+000599999V0209991C000019999999N0000001N9-00671+99999098541ADDGF108991999999999999999999
0029029070999991904022120004+64333+023450FM-12+000599999V0209991C000019999999N0000001N9-00781+99999098861ADDGF108991999999999999999999
0029029070999991904022206004+64333+023450FM-12+000599999V0209991C000019999999N0000001N9-00561+99999099471ADDGF108991999999999999999999
0029029070999991904022213004+64333+023450FM-12+000599999V0200201N002119999999N0000001N9-00501+99999100061ADDGF108991999999999999999999
0029029070999991904022220004+64333+023450FM-12+000599999V0203601N013919999999N0000001N9-00561+99999100901ADDGF108991999999999999999999
0029029070999991904022306004+64333+023450FM-12+000599999V0200201N013919999999N0000001N9-00781+99999102321ADDGF100991999999999999999999
0029029070999991904022313004+64333+023450FM-12+000599999V0200201N013919999999N0000001N9-00781+99999102861ADDGF100991999999999999999999
0029029070999991904022320004+64333+023450FM-12+000599999V0200201N013919999999N0000001N9-01001+99999103141ADDGF100991999999999999999999
0029029070999991904022406004+64333+023450FM-12+000599999V0209991C000019999999N0000001N9-01721+99999103471ADDGF100991999999999999999999
0029029070999991904022413004+64333+023450FM-12+000599999V0209991C000019999999N0000001N9-01221+99999103671ADDGF100991999999999999999999
0029029070999991904022420004+64333+023450FM-12+000599999V0209991C000019999999N0000001N9-01561+99999103701ADDGF100991999999999999999999
0029029070999991904022506004+64333+023450FM-12+000599999V0209991C000019999999N0000001N9-01781+99999103761ADDGF108991999999999999999999
0029029070999991904022513004+64333+023450FM-12+000599999V0209991C000019999999N0000001N9-01221+99999103701ADDGF104991999999999999999999
0029029070999991904022520004+64333+023450FM-12+000599999V0209991C000019999999N0000001N9-01611+99999103711ADDGF100991999999999999999999
0029029070999991904022606004+64333+023450FM-12+000599999V0209991C000019999999N0000001N9-01831+99999103751ADDGF100991999999999999999999
0029029070999991904022613004+64333+023450FM-12+000599999V0209991C000019999999N0000001N9-01391+99999103741ADDGF100991999999999999999999
0029029070999991904022620004+64333+023450FM-12+000599999V0209991C000019999999N0000001N9-01221+99999103601ADDGF100991999999999999999999
0029029070999991904022706004+64333+023450FM-12+000599999V0209991C000019999999N0000001N9-01831+99999103481ADDGF100991999999999999999999
0029029070999991904022713004+64333+023450FM-12+000599999V0209991C000019999999N0000001N9-01281+99999103401ADDGF100991999999999999999999
0029029070999991904022720004+64333+023450FM-12+000599999V0209991C000019999999N0000001N9-01611+99999103311ADDGF100991999999999999999999
0029029070999991904022806004+64333+023450FM-12+000599999V0209991C000019999999N0000001N9-01721+99999103121ADDGF105991999999999999999999
0029029070999991904022813004+64333+023450FM-12+000599999V0209991C000019999999N0000001N9-01111+99999103151ADDGF108991999999999999999999
0029029070999991904022820004+64333+023450FM-12+000599999V0209991C000019999999N0000001N9-01331+99999103151ADDGF104991999999999999999999
0029029070999991904022906004+64333+023450FM-12+000599999V0209991C000019999999N0000001N9-01781+99999103161ADDGF100991999999999999999999
0029029070999991904022913004+64333+023450FM-12+000599999V0209991C000019999999N0000001N9-01331+99999103271ADDGF100991999999999999999999
0029029070999991904022920004+64333+023450FM-12+000599999V0209991C000019999999N0000001N9-01501+99999103351ADDGF100991999999999999999999
0029029070999991904030106004+64333+023450FM-12+000599999V0202301N008219999999N0000001N9-01781+99999103421ADDGF108991999999999999999999
0029029070999991904030113004+64333+023450FM-12+000599999V0202301N006219999999N0000001N9-01221+99999103421ADDGF108991999999999999999999
0029029070999991904030120004+64333+023450FM-12+000599999V0201801N006219999999N0000001N9-01221+99999103471ADDGF108991999999999999999999
0029029070999991904030206004+64333+023450FM-12+000599999V0209991C000019999999N0000001N9-01611+99999103751ADDGF100991999999999999999999
0029029070999991904030213004+64333+023450FM-12+000599999V0209991C000019999999N0000001N9-01221+99999103751ADDGF108991999999999999999999
0029029070999991904030220004+64333+023450FM-12+000599999V0209991C000019999999N0000001N9-01721+99999104001ADDGF108991999999999999999999
0029029070999991904030306004+64333+023450FM-12+000599999V0209991C000019999999N0000001N9-01001+99999104551ADDGF100991999999999999999999
0029029070999991904030313004+64333+023450FM-12+000599999V0200701N006219999999N0000001N9-00891+99999104541ADDGF104991999999999999999999
0029029070999991904030320004+64333+023450FM-12+000599999V0209991C000019999999N0000001N9-00501+99999104481ADDGF100991999999999999999999
0029029070999991904030406004+64333+023450FM-12+000599999V0209991C000019999999N0000001N9-01441+99999104441ADDGF100991999999999999999999
0029029070999991904030413004+64333+023450FM-12+000599999V0209991C000019999999N0000001N9-01001+99999104381ADDGF100991999999999999999999
0029029070999991904030420004+64333+023450FM-12+000599999V0209991C000019999999N0000001N9-01501+99999104311ADDGF100991999999999999999999
0029029070999991904030506004+64333+023450FM-12+000599999V0209991C000019999999N0000001N9-01941+99999104071ADDGF100991999999999999999999
0029029070999991904030513004+64333+023450FM-12+000599999V0209991C000019999999N0000001N9-01221+99999103861ADDGF100991999999999999999999
0029029070999991904030520004+64333+023450FM-12+000599999V0209991C000019999999N0000001N9-01671+99999103671ADDGF103991999999999999999999
0029029070999991904030606004+64333+023450FM-12+000599999V0209991C000019999999N0000001N9-01941+99999103681ADDGF100991999999999999999999
0029029070999991904030613004+64333+023450FM-12+000599999V0209991C000019999999N0000001N9-01281+99999103671ADDGF100991999999999999999999
0029029070999991904030620004+64333+023450FM-12+000599999V0209991C000019999999N0000001N9-01721+99999103551ADDGF102991999999999999999999
0029029070999991904030706004+64333+023450FM-12+000599999V0209991C000019999999N0000001N9-01501+99999103581ADDGF100991999999999999999999
0029029070999991904030713004+64333+023450FM-12+000599999V0209991C000019999999N0000001N9-00831+99999103401ADDGF100991999999999999999999
0029029070999991904030720004+64333+023450FM-12+000599999V0209991C000019999999N0000001N9-01671+99999103151ADDGF102991999999999999999999
0029029070999991904030806004+64333+023450FM-12+000599999V0200201N006219999999N0000001N9-00831+99999102061ADDGF104991999999999999999999
0035029070999991904030813004+64333+023450FM-12+000599999V0209991C000019999999N0000001N9-00671+99999101831ADDGF104991999999999999999999MW1701
0029029070999991904030820004+64333+023450FM-12+000599999V0209991C000019999999N0000001N9-01001+99999101681ADDGF100991999999999999999999
0035029070999991904030906004+64333+023450FM-12+000599999V0202001N006219999999N0000001N9-01441+99999102001ADDGF104991999999999999999999MW1721
0035029070999991904030913004+64333+023450FM-12+000599999V0202001N008219999999N0000001N9-00941+99999102031ADDGF103991999999999999999999MW1721
0029029070999991904030920004+64333+023450FM-12+000599999V0202001N008219999999N0000001N9-01331+99999102151ADDGF100991999999999999999999
0029029070999991904031006004+64333+023450FM-12+000599999V0202301N009819999999N0000001N9-01501+99999102401ADDGF104991999999999999999999
0029029070999991904031013004+64333+023450FM-12+000599999V0202301N008219999999N0000001N9-01001+99999102561ADDGF100991999999999999999999
0029029070999991904031020004+64333+023450FM-12+000599999V0202301N008219999999N0000001N9-01391+99999102561ADDGF100991999999999999999999
0029029070999991904031106004+64333+023450FM-12+000599999V0209991C000019999999N0000001N9-01441+99999102391ADDGF108991999999999999999999
0035029070999991904031113004+64333+023450FM-12+000599999V0209991C000019999999N0000001N9-00331+99999102071ADDGF106991999999999999999999MW1721
0029029070999991904031120004+64333+023450FM-12+000599999V0209991C000019999999N0000001N9-00441+99999101641ADDGF108991999999999999999999
0035029070999991904031206004+64333+023450FM-12+000599999V0202001N011819999999N0000001N9-00671+99999100591ADDGF108991999999999999999999MW1721
0029029070999991904031213004+64333+023450FM-12+000599999V0202001N011819999999N0000001N9-00331+99999099821ADDGF108991999999999999999999
0029029070999991904031220004+64333+023450FM-12+000599999V0202001N013919999999N0000001N9-00781+99999099791ADDGF100991999999999999999999
0029029070999991904031306004+64333+023450FM-12+000599999V0202501N011819999999N0000001N9-00561+99999099591ADDGF100991999999999999999999
0029029070999991904031313004+64333+023450FM-12+000599999V0202501N009819999999N0000001N9-00331+99999099861ADDGF100991999999999999999999
0029029070999991904031320004+64333+023450FM-12+000599999V0202501N006219999999N0000001N9-01061+99999100041ADDGF100991999999999999999999
0029029070999991904031406004+64333+023450FM-12+000599999V0201601N009819999999N0000001N9-00331+99999099681ADDGF108991999999999999999999
0029029070999991904031413004+64333+023450FM-12+000599999V0202001N011819999999N0000001N9+00001+99999099341ADDGF108991999999999999999999
0029029070999991904031420004+64333+023450FM-12+000599999V0202001N013919999999N0000001N9-00061+99999099161ADDGF108991999999999999999999
0035029070999991904031506004+64333+023450FM-12+000599999V0203201N013919999999N0000001N9-01061+99999099421ADDGF108991999999999999999999MW1721
0029029070999991904031513004+64333+023450FM-12+000599999V0209991C000019999999N0000001N9-01111+99999099991ADDGF100991999999999999999999
0029029070999991904031520004+64333+023450FM-12+000599999V0209991C000019999999N0000001N9-01831+99999100141ADDGF100991999999999999999999
0029029070999991904031606004+64333+023450FM-12+000599999V0209991C000019999999N0000001N9-01501+99999100701ADDGF100991999999999999999999
0029029070999991904031613004+64333+023450FM-12+000599999V0209991C000019999999N0000001N9-00941+99999101421ADDGF100991999999999999999999
0029029070999991904031620004+64333+023450FM-12+000599999V0209991C000019999999N0000001N9-01721+99999101761ADDGF100991999999999999999999
0029029070999991904031706004+64333+023450FM-12+000599999V0202301N015919999999N0000001N9-00671+99999101161ADDGF104991999999999999999999
0029029070999991904031713004+64333+023450FM-12+000599999V0202001N020119999999N0000001N9-00281+99999101081ADDGF104991999999999999999999
0029029070999991904031720004+64333+023450FM-12+000599999V0202301N020119999999N0000001N9-00221+99999101151ADDGF104991999999999999999999
0029029070999991904031806004+64333+023450FM-12+000599999V0202301N015919999999N0000001N9-00561+99999101231ADDGF100991999999999999999999
0029029070999991904031813004+64333+023450FM-12+000599999V0202301N015919999999N0000001N9-00171+99999101431ADDGF100991999999999999999999
0029029070999991904031820004+64333+023450FM-12+000599999V0202301N011819999999N0000001N9-00331+99999101601ADDGF100991999999999999999999
0029029070999991904031906004+64333+023450FM-12+000599999V0202301N009819999999N0000001N9-00561+99999101681ADDGF100991999999999999999999
0029029070999991904031913004+64333+023450FM-12+000599999V0202001N009819999999N0000001N9+00001+99999101671ADDGF100991999999999999999999
0029029070999991904031920004+64333+023450FM-12+000599999V0202301N009819999999N0000001N9-00281+99999101901ADDGF100991999999999999999999
0029029070999991904032006004+64333+023450FM-12+000599999V0202001N020119999999N0000001N9-00281+99999101221ADDGF104991999999999999999999
0029029070999991904032013004+64333+023450FM-12+000599999V0202001N013919999999N0000001N9+00221+99999101111ADDGF105991999999999999999999
0035029070999991904032020004+64333+023450FM-12+000599999V0202301N013919999999N0000001N9+00001+99999101201ADDGF108991999999999999999999MW1721
0035029070999991904032106004+64333+023450FM-12+000599999V0202001N015919999999N0000001N9-00221+99999101621ADDGF108991999999999999999999MW1721
0029029070999991904032113004+64333+023450FM-12+000599999V0202001N011819999999N0000001N9-00171+99999101951ADDGF108991999999999999999999
0029029070999991904032120004+64333+023450FM-12+000599999V0201801N013919999999N0000001N9-00331+99999101591ADDGF105991999999999999999999
0029029070999991904032206004+64333+023450FM-12+000599999V0201801N020119999999N0000001N9-00281+99999100401ADDGF108991999999999999999999
0029029070999991904032213004+64333+023450FM-12+000599999V0201801N020119999999N0000001N9-00111+99999100181ADDGF108991999999999999999999
0029029070999991904032220004+64333+023450FM-12+000599999V0202001N020119999999N0000001N9+00001+99999100261ADDGF105991999999999999999999
0029029070999991904032306004+64333+023450FM-12+000599999V0202301N011819999999N0000001N9-00171+99999100921ADDGF100991999999999999999999
0029029070999991904032313004+64333+023450FM-12+000599999V0202301N009819999999N0000001N9+00001+99999101601ADDGF100991999999999999999999
0029029070999991904032320004+64333+023450FM-12+000599999V0209991C000019999999N0000001N9+00001+99999102361ADDGF100991999999999999999999
0029029070999991904032406004+64333+023450FM-12+000599999V0209991C000019999999N0000001N9-00111+99999102941ADDGF100991999999999999999999
0029029070999991904032413004+64333+023450FM-12+000599999V0209991C000019999999N0000001N9+00061+99999103421ADDGF100991999999999999999999
0029029070999991904032420004+64333+023450FM-12+000599999V0209991C000019999999N0000001N9-00111+99999103641ADDGF104991999999999999999999
0029029070999991904032506004+64333+023450FM-12+000599999V0202001N011819999999N0000001N9-00331+99999103591ADDGF108991999999999999999999
0029029070999991904032513004+64333+023450FM-12+000599999V0202301N011819999999N0000001N9-00171+99999103671ADDGF108991999999999999999999
0029029070999991904032520004+64333+023450FM-12+000599999V0202301N011819999999N0000001N9-00111+99999103561ADDGF105991999999999999999999
0029029070999991904032606004+64333+023450FM-12+000599999V0202301N009819999999N0000001N9-00221+99999103471ADDGF100991999999999999999999
0029029070999991904032613004+64333+023450FM-12+000599999V0202301N009819999999N0000001N9+00061+99999103321ADDGF100991999999999999999999
0029029070999991904032620004+64333+023450FM-12+000599999V0202301N009819999999N0000001N9-00111+99999103321ADDGF100991999999999999999999
0029029070999991904032706004+64333+023450FM-12+000599999V0209991C000019999999N0000001N9-00331+99999103561ADDGF104991999999999999999999
0029029070999991904032713004+64333+023450FM-12+000599999V0209991C000019999999N0000001N9-00111+99999103871ADDGF100991999999999999999999
0029029070999991904032720004+64333+023450FM-12+000599999V0209991C000019999999N0000001N9-00281+99999103881ADDGF100991999999999999999999
0029029070999991904032806004+64333+023450FM-12+000599999V0201401N008219999999N0000001N9-00331+99999103561ADDGF108991999999999999999999
0029029070999991904032813004+64333+023450FM-12+000599999V0201401N008219999999N0000001N9+00111+99999103751ADDGF100991999999999999999999
0029029070999991904032820004+64333+023450FM-12+000599999V0201401N008219999999N0000001N9-00221+99999103471ADDGF100991999999999999999999
0029029070999991904032906004+64333+023450FM-12+000599999V0201801N009819999999N0000001N9-00441+99999103151ADDGF103991999999999999999999
0029029070999991904032913004+64333+023450FM-12+000599999V0201801N008219999999N0000001N9+00221+99999102901ADDGF100991999999999999999999
0029029070999991904032920004+64333+023450FM-12+000599999V0202301N006219999999N0000001N9-00221+99999102711ADDGF100991999999999999999999
0029029070999991904033006004+64333+023450FM-12+000599999V0209991C000019999999N0000001N9-00941+99999102561ADDGF100991999999999999999999
0029029070999991904033013004+64333+023450FM-12+000599999V0209991C000019999999N0000001N9+00001+99999102521ADDGF100991999999999999999999
0029029070999991904033020004+64333+023450FM-12+000599999V0209991C000019999999N0000001N9-00501+99999102561ADDGF100991999999999999999999
0029029070999991904033106004+64333+023450FM-12+000599999V0209991C000019999999N0000001N9-01111+99999102861ADDGF100991999999999999999999
0029029070999991904033113004+64333+023450FM-12+000599999V0209991C000019999999N0000001N9-00331+99999102921ADDGF100991999999999999999999
0029029070999991904033120004+64333+023450FM-12+000599999V0209991C000019999999N0000001N9-00501+99999102871ADDGF100991999999999999999999
0029029070999991904040106004+64333+023450FM-12+000599999V0209991C000019999999N0000001N9-01061+99999103041ADDGF100991999999999999999999
0029029070999991904040113004+64333+023450FM-12+000599999V0209991C000019999999N0000001N9+00061+99999102861ADDGF100991999999999999999999
0029029070999991904040120004+64333+023450FM-12+000599999V0209991C000019999999N0000001N9-00391+99999102601ADDGF100991999999999999999999
0029029070999991904040206004+64333+023450FM-12+000599999V0209991C000019999999N0000001N9-00391+99999102441ADDGF100991999999999999999999
0029029070999991904040213004+64333+023450FM-12+000599999V0209991C000019999999N0000001N9+00171+99999102351ADDGF100991999999999999999999
0029029070999991904040220004+64333+023450FM-12+000599999V0200901N002119999999N0000001N9-00221+99999102311ADDGF100991999999999999999999
0029029070999991904040306004+64333+023450FM-12+000599999V0201801N006219999999N0000001N9-00831+99999102431ADDGF100991999999999999999999
0029029070999991904040313004+64333+023450FM-12+000599999V0209991C000019999999N0000001N9+00061+99999102151ADDGF100991999999999999999999
0029029070999991904040320004+64333+023450FM-12+000599999V0201401N003119999999N0000001N9-00171+99999101901ADDGF104991999999999999999999
0029029070999991904040406004+64333+023450FM-12+000599999V0201401N004119999999N0000001N9-00221+99999101351ADDGF104991999999999999999999
0029029070999991904040413004+64333+023450FM-12+000599999V0201401N009819999999N0000001N9+00171+99999101081ADDGF108991999999999999999999
0029029070999991904040420004+64333+023450FM-12+000599999V0201401N011819999999N0000001N9+00171+99999101061ADDGF108991999999999999999999
0035029070999991904040506004+64333+023450FM-12+000599999V0201401N011819999999N0000001N9+00061+99999100741ADDGF108991999999999999999999MW1701
0035029070999991904040513004+64333+023450FM-12+000599999V0209991C000019999999N0000001N9+00221+99999100681ADDGF108991999999999999999999MW1701
0029029070999991904040520004+64333+023450FM-12+000599999V0209991C000019999999N0000001N9+00111+99999100551ADDGF108991999999999999999999
0029029070999991904040606004+64333+023450FM-12+000599999V0201801N011819999999N0000001N9+00061+99999100341ADDGF108991999999999999999999
0029029070999991904040613004+64333+023450FM-12+000599999V0202001N008219999999N0000001N9+00221+99999100281ADDGF108991999999999999999999
0029029070999991904040620004+64333+023450FM-12+000599999V0201401N011819999999N0000001N9+00111+99999100021ADDGF105991999999999999999999
0029029070999991904040706004+64333+023450FM-12+000599999V0201101N015919999999N0000001N9+00111+99999099381ADDGF108991999999999999999999
0029029070999991904040713004+64333+023450FM-12+000599999V0200901N015919999999N0000001N9+00221+99999099141ADDGF108991999999999999999999
0029029070999991904040720004+64333+023450FM-12+000599999V0201101N015919999999N0000001N9+00111+99999099101ADDGF108991999999999999999999
0029029070999991904040806004+64333+023450FM-12+000599999V0200901N011819999999N0000001N9+00111+99999099381ADDGF108991999999999999999999
0029029070999991904040813004+64333+023450FM-12+000599999V0201401N009819999999N0000001N9+00281+99999099831ADDGF108991999999999999999999
0029029070999991904040820004+64333+023450FM-12+000599999V0201401N006219999999N0000001N9+00171+99999100111ADDGF108991999999999999999999
0029029070999991904040906004+64333+023450FM-12+000599999V0202701N006219999999N0000001N9+00061+99999100071ADDGF108991999999999999999999
0029029070999991904040913004+64333+023450FM-12+000599999V0201801N006219999999N0000001N9+00221+99999100111ADDGF108991999999999999999999
0035029070999991904040920004+64333+023450FM-12+000599999V0201401N002119999999N0000001N9+00061+99999099881ADDGF108991999999999999999999MW1621
0029029070999991904041006004+64333+023450FM-12+000599999V0201101N009819999999N0000001N9+00111+99999099461ADDGF104991999999999999999999
0035029070999991904041013004+64333+023450FM-12+000599999V0201401N011819999999N0000001N9+00171+99999099121ADDGF108991999999999999999999MW1601
0035029070999991904041020004+64333+023450FM-12+000599999V0201401N009819999999N0000001N9+00111+99999099071ADDGF108991999999999999999999MW1601
0029029070999991904041106004+64333+023450FM-12+000599999V0201401N009819999999N0000001N9+00001+99999099301ADDGF103991999999999999999999
0029029070999991904041113004+64333+023450FM-12+000599999V0209991C000019999999N0000001N9+00221+99999099471ADDGF103991999999999999999999
0029029070999991904041120004+64333+023450FM-12+000599999V0209991C000019999999N0000001N9-00061+99999099671ADDGF103991999999999999999999
0029029070999991904041206004+64333+023450FM-12+000599999V0209991C000019999999N0000001N9+00061+99999999999ADDGF102991999999999999999999
0035029070999991904041213004+64333+023450FM-12+000599999V0202701N004119999999N0000001N9+00221+99999100301ADDGF108991999999999999999999MW1701
0029029070999991904041220004+64333+023450FM-12+000599999V0202701N002119999999N0000001N9-00061+99999100631ADDGF102991999999999999999999
0029029070999991904041306004+64333+023450FM-12+000599999V0203601N015919999999N0000001N9-00281+99999101081ADDGF100991999999999999999999
0029029070999991904041313004+64333+023450FM-12+000599999V0203601N011819999999N0000001N9-00171+99999101441ADDGF100991999999999999999999
0029029070999991904041320004+64333+023450FM-12+000599999V0203601N015919999999N0000001N9-00281+99999101751ADDGF100991999999999999999999
0029029070999991904041406004+64333+023450FM-12+000599999V0203601N015919999999N0000001N9-00611+99999102221ADDGF108991999999999999999999
0029029070999991904041413004+64333+023450FM-12+000599999V0203601N011819999999N0000001N9-00331+99999102441ADDGF108991999999999999999999
0029029070999991904041420004+64333+023450FM-12+000599999V0209991C000019999999N0000001N9-00611+99999102441ADDGF108991999999999999999999
0029029070999991904041506004+64333+023450FM-12+000599999V0202301N015919999999N0000001N9-00441+99999102261ADDGF100991999999999999999999
0029029070999991904041513004+64333+023450FM-12+000599999V0202301N018019999999N0000001N9-00111+99999102101ADDGF105991999999999999999999
0029029070999991904041520004+64333+023450FM-12+000599999V0202301N013919999999N0000001N9-00061+99999101901ADDGF108991999999999999999999
0035029070999991904041606004+64333+023450FM-12+000599999V0201801N020119999999N0000001N9-00111+99999101241ADDGF108991999999999999999999MW1721
0035029070999991904041613004+64333+023450FM-12+000599999V0201801N015919999999N0000001N9+00221+99999100621ADDGF108991999999999999999999MW1621
0029029070999991904041620004+64333+023450FM-12+000599999V0202001N015919999999N0000001N9+00171+99999100541ADDGF108991999999999999999999
0029029070999991904041706004+64333+023450FM-12+000599999V0202001N015919999999N0000001N9+00171+99999100551ADDGF108991999999999999999999
0029029070999991904041713004+64333+023450FM-12+000599999V0202301N011819999999N0000001N9+00171+99999100901ADDGF108991999999999999999999
0029029070999991904041720004+64333+023450FM-12+000599999V0202001N011819999999N0000001N9+00171+99999101241ADDGF108991999999999999999999
0029029070999991904041806004+64333+023450FM-12+000599999V0209991C000019999999N0000001N9+00171+99999102021ADDGF108991999999999999999999
0029029070999991904041813004+64333+023450FM-12+000599999V0209991C000019999999N0000001N9+00281+99999102551ADDGF100991999999999999999999
0029029070999991904041820004+64333+023450FM-12+000599999V0200501N002119999999N0000001N9+00061+99999103081ADDGF108991999999999999999999
0035029070999991904041906004+64333+023450FM-12+000599999V0201401N002119999999N0000001N9+00171+99999103161ADDGF108991999999999999999999MW1601
0029029070999991904041913004+64333+023450FM-12+000599999V0202001N004119999999N0000001N9+00281+99999103341ADDGF108991999999999999999999
0029029070999991904041920004+64333+023450FM-12+000599999V0202301N009819999999N0000001N9+00111+99999103391ADDGF108991999999999999999999
0029029070999991904042006004+64333+023450FM-12+000599999V0202001N006219999999N0000001N9+00171+99999103351ADDGF100991999999999999999999
0029029070999991904042013004+64333+023450FM-12+000599999V0202001N002119999999N0000001N9+00671+99999103121ADDGF100991999999999999999999
0029029070999991904042020004+64333+023450FM-12+000599999V0209991C000019999999N0000001N9+00171+99999102821ADDGF102991999999999999999999
0029029070999991904042106004+64333+023450FM-12+000599999V0201801N006219999999N0000001N9+00171+99999102581ADDGF100991999999999999999999
0029029070999991904042113004+64333+023450FM-12+000599999V0200901N002119999999N0000001N9+00501+99999102231ADDGF100991999999999999999999
0029029070999991904042120004+64333+023450FM-12+000599999V0201801N006219999999N0000001N9+00331+99999102001ADDGF104991999999999999999999
0035029070999991904042206004+64333+023450FM-12+000599999V0201401N006219999999N0000001N9+00221+99999101271ADDGF108991999999999999999999MW1621
0035029070999991904042213004+64333+023450FM-12+000599999V0209991C000019999999N0000001N9+00441+99999100901ADDGF108991999999999999999999MW1621
0035029070999991904042220004+64333+023450FM-12+000599999V0202301N009819999999N0000001N9+00061+99999100981ADDGF108991999999999999999999MW1621
0029029070999991904042306004+64333+023450FM-12+000599999V0202301N013919999999N0000001N9+00111+99999101441ADDGF108991999999999999999999
0029029070999991904042313004+64333+023450FM-12+000599999V0202301N013919999999N0000001N9+00221+99999101781ADDGF108991999999999999999999
0029029070999991904042320004+64333+023450FM-12+000599999V0202301N002119999999N0000001N9+00001+99999101821ADDGF106991999999999999999999
0029029070999991904042406004+64333+023450FM-12+000599999V0209991C000019999999N0000001N9+00171+99999101351ADDGF104991999999999999999999
0029029070999991904042413004+64333+023450FM-12+000599999V0209991C000019999999N0000001N9+00501+99999100801ADDGF104991999999999999999999
0029029070999991904042420004+64333+023450FM-12+000599999V0209991C000019999999N0000001N9+00111+99999100391ADDGF103991999999999999999999
0029029070999991904042506004+64333+023450FM-12+000599999V0201801N004119999999N0000001N9+00281+99999100151ADDGF106991999999999999999999
0029029070999991904042513004+64333+023450FM-12+000599999V0209991C000019999999N0000001N9+00671+99999100071ADDGF106991999999999999999999
0035029070999991904042520004+64333+023450FM-12+000599999V0200901N002119999999N0000001N9+00221+99999099871ADDGF108991999999999999999999MW1621
0035029070999991904042606004+64333+023450FM-12+000599999V0201801N013919999999N0000001N9+00281+99999098961ADDGF108991999999999999999999MW1621
0029029070999991904042613004+64333+023450FM-12+000599999V0202001N020119999999N0000001N9+00281+99999099341ADDGF106991999999999999999999
0029029070999991904042620004+64333+023450FM-12+000599999V0202301N020119999999N0000001N9+00171+99999099631ADDGF103991999999999999999999
0029029070999991904042706004+64333+023450FM-12+000599999V0202301N015919999999N0000001N9+00171+99999100401ADDGF100991999999999999999999
0029029070999991904042713004+64333+023450FM-12+000599999V0202301N013919999999N0000001N9+00331+99999100941ADDGF100991999999999999999999
0029029070999991904042720004+64333+023450FM-12+000599999V0202301N006219999999N0000001N9+00111+99999101071ADDGF100991999999999999999999
0029029070999991904042806004+64333+023450FM-12+000599999V0201801N006219999999N0000001N9+00331+99999100961ADDGF105991999999999999999999
0029029070999991904042813004+64333+023450FM-12+000599999V0200201N006219999999N0000001N9+00331+99999100721ADDGF100991999999999999999999
0029029070999991904042820004+64333+023450FM-12+000599999V0203201N002119999999N0000001N9+00111+99999100401ADDGF102991999999999999999999
0029029070999991904042906004+64333+023450FM-12+000599999V0202301N011819999999N0000001N9+00001+99999100231ADDGF108991999999999999999999
0029029070999991904042913004+64333+023450FM-12+000599999V0202001N011819999999N0000001N9+00111+99999100261ADDGF108991999999999999999999
0029029070999991904042920004+64333+023450FM-12+000599999V0202301N011819999999N0000001N9+00171+99999100081ADDGF108991999999999999999999
0029029070999991904043006004+64333+023450FM-12+000599999V0202001N013919999999N0000001N9+00111+99999999999ADDGF108991999999999999999999
0029029070999991904043013004+64333+023450FM-12+000599999V0209991C000019999999N0000001N9+00281+99999100241ADDGF106991999999999999999999
0035029070999991904043020004+64333+023450FM-12+000599999V0203601N011819999999N0000001N9+00061+99999100441ADDGF108991999999999999999999MW1721
0029029070999991904050106004+64333+023450FM-12+000599999V0200201N011819999999N0000001N9-00061+99999101111ADDGF100991999999999999999999
0029029070999991904050113004+64333+023450FM-12+000599999V0203201N002119999999N0000001N9+00221+99999101401ADDGF100991999999999999999999
0029029070999991904050120004+64333+023450FM-12+000599999V0202301N002119999999N0000001N9+00061+99999101381ADDGF106991999999999999999999
0029029070999991904050206004+64333+023450FM-12+000599999V0202001N009819999999N0000001N9+00221+99999101241ADDGF102991999999999999999999
0029029070999991904050213004+64333+023450FM-12+000599999V0202301N011819999999N0000001N9+00331+99999101071ADDGF100991999999999999999999
0029029070999991904050220004+64333+023450FM-12+000599999V0200901N005119999999N0000001N9+00171+99999100641ADDGF102991999999999999999999
0035029070999991904050306004+64333+023450FM-12+000599999V0201101N020119999999N0000001N9+00281+99999099601ADDGF108991999999999999999999MW1621
0035029070999991904050313004+64333+023450FM-12+000599999V0200701N004119999999N0000001N9+00441+99999099321ADDGF108991999999999999999999MW1621
0035029070999991904050320004+64333+023450FM-12+000599999V0200201N015919999999N0000001N9+00221+99999098401ADDGF108991999999999999999999MW1621
0035029070999991904050406004+64333+023450FM-12+000599999V0202301N020119999999N0000001N9+00111+99999098711ADDGF108991999999999999999999MW1721
0029029070999991904050413004+64333+023450FM-12+000599999V0202001N009819999999N0000001N9+00331+99999099341ADDGF106991999999999999999999
0029029070999991904050420004+64333+023450FM-12+000599999V0200201N013919999999N0000001N9+00171+99999099921ADDGF108991999999999999999999
0029029070999991904050506004+64333+023450FM-12+000599999V0200201N020119999999N0000001N9-00061+99999100791ADDGF108991999999999999999999
0029029070999991904050513004+64333+023450FM-12+000599999V0203601N011819999999N0000001N9+00061+99999101201ADDGF105991999999999999999999
0029029070999991904050520004+64333+023450FM-12+000599999V0203601N006219999999N0000001N9+00001+99999101321ADDGF104991999999999999999999
0029029070999991904050606004+64333+023450FM-12+000599999V0203601N009819999999N0000001N9+00001+99999101201ADDGF102991999999999999999999
0029029070999991904050613004+64333+023450FM-12+000599999V0203601N011819999999N0000001N9+00001+99999101191ADDGF100991999999999999999999
0029029070999991904050620004+64333+023450FM-12+000599999V0200201N018019999999N0000001N9+00001+99999101151ADDGF102991999999999999999999
0029029070999991904050706004+64333+023450FM-12+000599999V0200201N020119999999N0000001N9-00061+99999101601ADDGF102991999999999999999999
0029029070999991904050713004+64333+023450FM-12+000599999V0200201N020119999999N0000001N9-00061+99999101861ADDGF100991999999999999999999
0029029070999991904050720004+64333+023450FM-12+000599999V0203601N015919999999N0000001N9-00111+99999101991ADDGF101991999999999999999999
0029029070999991904050806004+64333+023450FM-12+000599999V0200501N002119999999N0000001N9+00001+99999102301ADDGF100991999999999999999999
0029029070999991904050813004+64333+023450FM-12+000599999V0200201N013919999999N0000001N9+00061+99999102351ADDGF100991999999999999999999
0029029070999991904050820004+64333+023450FM-12+000599999V0200501N015919999999N0000001N9+00001+99999102241ADDGF107991999999999999999999
0029029070999991904050906004+64333+023450FM-12+000599999V0200901N013919999999N0000001N9+00111+99999101881ADDGF108991999999999999999999
0029029070999991904050913004+64333+023450FM-12+000599999V0200901N008219999999N0000001N9+00331+99999101311ADDGF108991999999999999999999
0029029070999991904050920004+64333+023450FM-12+000599999V0200701N013919999999N0000001N9+00061+99999100641ADDGF108991999999999999999999
0029029070999991904051006004+64333+023450FM-12+000599999V0203201N011819999999N0000001N9+00061+99999100521ADDGF108991999999999999999999
0029029070999991904051013004+64333+023450FM-12+000599999V0202301N009819999999N0000001N9+00391+99999100831ADDGF102991999999999999999999
0029029070999991904051020004+64333+023450FM-12+000599999V0202301N011819999999N0000001N9+00221+99999100711ADDGF108991999999999999999999
0029029070999991904051106004+64333+023450FM-12+000599999V0209991C000019999999N0000001N9+00061+99999100421ADDGF108991999999999999999999
0029029070999991904051113004+64333+023450FM-12+000599999V0203601N006219999999N0000001N9+00171+99999100301ADDGF107991999999999999999999
0029029070999991904051120004+64333+023450FM-12+000599999V0202901N008219999999N0000001N9+00111+99999100311ADDGF106991999999999999999999
0029029070999991904051206004+64333+023450FM-12+000599999V0203201N011819999999N0000001N9+00061+99999100721ADDGF100991999999999999999999
0029029070999991904051213004+64333+023450FM-12+000599999V0202301N011819999999N0000001N9+00331+99999101151ADDGF102991999999999999999999
0029029070999991904051220004+64333+023450FM-12+000599999V0202301N006219999999N0000001N9+00171+99999101351ADDGF104991999999999999999999
0035029070999991904051306004+64333+023450FM-12+000599999V0209991C000019999999N0000001N9+00221+99999101601ADDGF108991999999999999999999MW1721
0029029070999991904051313004+64333+023450FM-12+000599999V0202701N006219999999N0000001N9+00501+99999101961ADDGF103991999999999999999999
0029029070999991904051320004+64333+023450FM-12+000599999V0201801N006219999999N0000001N9+00281+99999101871ADDGF102991999999999999999999
0029029070999991904051406004+64333+023450FM-12+000599999V0201801N008219999999N0000001N9+00331+99999101561ADDGF101991999999999999999999
0029029070999991904051413004+64333+023450FM-12+000599999V0202301N013919999999N0000001N9+00561+99999101311ADDGF101991999999999999999999
0029029070999991904051420004+64333+023450FM-12+000599999V0201801N015919999999N0000001N9+00501+99999100751ADDGF108991999999999999999999
0035029070999991904051506004+64333+023450FM-12+000599999V0201801N013919999999N0000001N9+00441+99999100281ADDGF108991999999999999999999MW1621
0035029070999991904051513004+64333+023450FM-12+000599999V0201801N011819999999N0000001N9+00561+99999099881ADDGF108991999999999999999999MW1621
0035029070999991904051520004+64333+023450FM-12+000599999V0201801N011819999999N0000001N9+00501+99999099461ADDGF108991999999999999999999MW1621
0029029070999991904051606004+64333+023450FM-12+000599999V0201801N011819999999N0000001N9+00501+99999099101ADDGF108991999999999999999999
0029029070999991904051613004+64333+023450FM-12+000599999V0209991C000019999999N0000001N9+00561+99999099521ADDGF108991999999999999999999
0029029070999991904051620004+64333+023450FM-12+000599999V0202701N002119999999N0000001N9+00221+99999099831ADDGF108991999999999999999999
0029029070999991904051706004+64333+023450FM-12+000599999V0203201N013919999999N0000001N9+00281+99999100321ADDGF100991999999999999999999
0029029070999991904051713004+64333+023450FM-12+000599999V0202501N006219999999N0000001N9+00501+99999100461ADDGF100991999999999999999999
0029029070999991904051720004+64333+023450FM-12+000599999V0202001N002119999999N0000001N9+00331+99999100161ADDGF107991999999999999999999
0035029070999991904051806004+64333+023450FM-12+000599999V0201401N013919999999N0000001N9+00441+99999099311ADDGF108991999999999999999999MW1621
0035029070999991904051813004+64333+023450FM-12+000599999V0201601N013919999999N0000001N9+00561+99999098841ADDGF108991999999999999999999MW1621
0029029070999991904051820004+64333+023450FM-12+000599999V0202301N018019999999N0000001N9+00281+99999098961ADDGF108991999999999999999999
0029029070999991904051906004+64333+023450FM-12+000599999V0202301N018019999999N0000001N9+00331+99999098981ADDGF100991999999999999999999
0029029070999991904051913004+64333+023450FM-12+000599999V0202301N011819999999N0000001N9+00561+99999099261ADDGF104991999999999999999999
0029029070999991904051920004+64333+023450FM-12+000599999V0202301N002119999999N0000001N9+00331+99999099361ADDGF105991999999999999999999
0029029070999991904052006004+64333+023450FM-12+000599999V0203401N009819999999N0000001N9+00281+99999099561ADDGF108991999999999999999999
0029029070999991904052013004+64333+023450FM-12+000599999V0203401N015919999999N0000001N9+00441+99999099951ADDGF103991999999999999999999
0029029070999991904052020004+64333+023450FM-12+000599999V0203601N020119999999N0000001N9+00331+99999100321ADDGF104991999999999999999999
0029029070999991904052106004+64333+023450FM-12+000599999V0203401N024219999999N0000001N9+00111+99999100831ADDGF100991999999999999999999
0029029070999991904052113004+64333+023450FM-12+000599999V0203401N024219999999N0000001N9+00171+99999101121ADDGF108991999999999999999999
0029029070999991904052120004+64333+023450FM-12+000599999V0203601N024219999999N0000001N9+00111+99999101381ADDGF108991999999999999999999
0029029070999991904052206004+64333+023450FM-12+000599999V0200201N024219999999N0000001N9+00111+99999101881ADDGF108991999999999999999999
0029029070999991904052213004+64333+023450FM-12+000599999V0200201N024219999999N0000001N9+00171+99999102081ADDGF107991999999999999999999
0029029070999991904052220004+64333+023450FM-12+000599999V0203601N018019999999N0000001N9+00171+99999102141ADDGF101991999999999999999999
0029029070999991904052306004+64333+023450FM-12+000599999V0200201N015919999999N0000001N9+00171+99999102241ADDGF101991999999999999999999
0029029070999991904052313004+64333+023450FM-12+000599999V0200201N015919999999N0000001N9+00281+99999102221ADDGF100991999999999999999999
0029029070999991904052320004+64333+023450FM-12+000599999V0200201N013919999999N0000001N9+00221+99999102261ADDGF100991999999999999999999
0029029070999991904052406004+64333+023450FM-12+000599999V0209991C000019999999N0000001N9+00331+99999102551ADDGF100991999999999999999999
0029029070999991904052413004+64333+023450FM-12+000599999V0200201N004119999999N0000001N9+00331+99999102521ADDGF100991999999999999999999
0029029070999991904052420004+64333+023450FM-12+000599999V0209991C000019999999N0000001N9+00171+99999102421ADDGF100991999999999999999999
0029029070999991904052506004+64333+023450FM-12+000599999V0209991C000019999999N0000001N9+00331+99999102511ADDGF100991999999999999999999
0029029070999991904052513004+64333+023450FM-12+000599999V0202301N002119999999N0000001N9+00561+99999102481ADDGF100991999999999999999999
0029029070999991904052520004+64333+023450FM-12+000599999V0202301N009819999999N0000001N9+00331+99999102381ADDGF100991999999999999999999
0029029070999991904052606004+64333+023450FM-12+000599999V0202001N008219999999N0000001N9+00441+99999102431ADDGF100991999999999999999999
0029029070999991904052613004+64333+023450FM-12+000599999V0202301N011819999999N0000001N9+00501+99999102391ADDGF100991999999999999999999
0029029070999991904052620004+64333+023450FM-12+000599999V0202501N015919999999N0000001N9+00441+99999102311ADDGF102991999999999999999999
0029029070999991904052706004+64333+023450FM-12+000599999V0202001N013919999999N0000001N9+00611+99999101951ADDGF108991999999999999999999
0029029070999991904052713004+64333+023450FM-12+000599999V0202001N009819999999N0000001N9+00611+99999101681ADDGF103991999999999999999999
0029029070999991904052720004+64333+023450FM-12+000599999V0202301N011819999999N0000001N9+00441+99999101151ADDGF107991999999999999999999
0029029070999991904052806004+64333+023450FM-12+000599999V0202301N013919999999N0000001N9+00501+99999100551ADDGF105991999999999999999999
0029029070999991904052813004+64333+023450FM-12+000599999V0202501N002119999999N0000001N9+00721+99999100621ADDGF106991999999999999999999
0029029070999991904052820004+64333+023450FM-12+000599999V0203601N006219999999N0000001N9+00331+99999101071ADDGF107991999999999999999999
0029029070999991904052906004+64333+023450FM-12+000599999V0203601N018019999999N0000001N9+00391+99999101921ADDGF106991999999999999999999
0029029070999991904052913004+64333+023450FM-12+000599999V0203601N015919999999N0000001N9+00441+99999102181ADDGF100991999999999999999999
0029029070999991904052920004+64333+023450FM-12+000599999V0203601N008219999999N0000001N9+00331+99999102481ADDGF100991999999999999999999
0029029070999991904053006004+64333+023450FM-12+000599999V0203601N009819999999N0000001N9+00281+99999102841ADDGF101991999999999999999999
0029029070999991904053013004+64333+023450FM-12+000599999V0203201N002119999999N0000001N9+00501+99999102671ADDGF101991999999999999999999
0029029070999991904053020004+64333+023450FM-12+000599999V0202001N004119999999N0000001N9+00501+99999102161ADDGF106991999999999999999999
0029029070999991904053106004+64333+023450FM-12+000599999V0202901N011819999999N0000001N9+00561+99999101521ADDGF108991999999999999999999
0029029070999991904053113004+64333+023450FM-12+000599999V0202701N002119999999N0000001N9+00781+99999101521ADDGF100991999999999999999999
0029029070999991904053120004+64333+023450FM-12+000599999V0202701N009819999999N0000001N9+00561+99999101421ADDGF102991999999999999999999
0029029070999991904060106004+64333+023450FM-12+000599999V0203401N008219999999N0000001N9+00391+99999101461ADDGF102991999999999999999999
0029029070999991904060113004+64333+023450FM-12+000599999V0209991C000019999999N0000001N9+00941+99999101421ADDGF104991999999999999999999
0029029070999991904060120004+64333+023450FM-12+000599999V0202901N004119999999N0000001N9+00561+99999101311ADDGF106991999999999999999999
0029029070999991904060206004+64333+023450FM-12+000599999V0201601N006219999999N0000001N9+00831+99999101141ADDGF107991999999999999999999
0035029070999991904060213004+64333+023450FM-12+000599999V0203401N002119999999N0000001N9+00781+99999101121ADDGF108991999999999999999999MW1621
0029029070999991904060220004+64333+023450FM-12+000599999V0209991C000019999999N0000001N9+00671+99999101111ADDGF107991999999999999999999
0029029070999991904060306004+64333+023450FM-12+000599999V0209991C000019999999N0000001N9+00831+99999100941ADDGF108991999999999999999999
0035029070999991904060313004+64333+023450FM-12+000599999V0200201N002119999999N0000001N9+00611+99999100791ADDGF108991999999999999999999MW1621
0029029070999991904060320004+64333+023450FM-12+000599999V0203601N011819999999N0000001N9+00441+99999100961ADDGF107991999999999999999999
0029029070999991904060406004+64333+023450FM-12+000599999V0200201N015919999999N0000001N9+00391+99999101591ADDGF102991999999999999999999
0029029070999991904060413004+64333+023450FM-12+000599999V0203401N013919999999N0000001N9+00501+99999101781ADDGF102991999999999999999999
0029029070999991904060420004+64333+023450FM-12+000599999V0203601N011819999999N0000001N9+00441+99999101921ADDGF102991999999999999999999
0029029070999991904060506004+64333+023450FM-12+000599999V0203601N013919999999N0000001N9+00391+99999102041ADDGF102991999999999999999999
0029029070999991904060513004+64333+023450FM-12+000599999V0203601N009819999999N0000001N9+00561+99999101841ADDGF102991999999999999999999
0029029070999991904060520004+64333+023450FM-12+000599999V0203201N006219999999N0000001N9+00441+99999101501ADDGF102991999999999999999999
0029029070999991904060606004+64333+023450FM-12+000599999V0203401N006219999999N0000001N9+00501+99999101301ADDGF102991999999999999999999
0029029070999991904060613004+64333+023450FM-12+000599999V0203201N004119999999N0000001N9+00611+99999101191ADDGF101991999999999999999999
0029029070999991904060620004+64333+023450FM-12+000599999V0203201N004119999999N0000001N9+00501+99999100961ADDGF101991999999999999999999
0029029070999991904060706004+64333+023450FM-12+000599999V0203601N015919999999N0000001N9+00441+99999100901ADDGF105991999999999999999999
0035029070999991904060713004+64333+023450FM-12+000599999V0203601N015919999999N0000001N9+00501+99999100881ADDGF106991999999999999999999MW1621
0029029070999991904060720004+64333+023450FM-12+000599999V0200201N015919999999N0000001N9+00561+99999100961ADDGF106991999999999999999999
0029029070999991904060806004+64333+023450FM-12+000599999V0200201N015919999999N0000001N9+00501+99999101381ADDGF104991999999999999999999
0029029070999991904060813004+64333+023450FM-12+000599999V0200201N015919999999N0000001N9+00561+99999101591ADDGF102991999999999999999999
0029029070999991904060820004+64333+023450FM-12+000599999V0200201N015919999999N0000001N9+00501+99999101631ADDGF103991999999999999999999
0029029070999991904060906004+64333+023450FM-12+000599999V0200501N013919999999N0000001N9+00501+99999101821ADDGF105991999999999999999999
0029029070999991904060913004+64333+023450FM-12+000599999V0200201N013919999999N0000001N9+00501+99999101881ADDGF102991999999999999999999
0029029070999991904060920004+64333+023450FM-12+000599999V0200201N008219999999N0000001N9+00561+99999101751ADDGF102991999999999999999999
0029029070999991904061006004+64333+023450FM-12+000599999V0200201N008219999999N0000001N9+00501+99999101751ADDGF100991999999999999999999
0029029070999991904061013004+64333+023450FM-12+000599999V0203601N006219999999N0000001N9+00721+99999101551ADDGF101991999999999999999999
0029029070999991904061020004+64333+023450FM-12+000599999V0202901N006219999999N0000001N9+00561+99999101261ADDGF101991999999999999999999
0029029070999991904061106004+64333+023450FM-12+000599999V0202701N004119999999N0000001N9+00671+99999100841ADDGF106991999999999999999999
0029029070999991904061113004+64333+023450FM-12+000599999V0202701N004119999999N0000001N9+00831+99999100681ADDGF106991999999999999999999
0029029070999991904061120004+64333+023450FM-12+000599999V0203601N006219999999N0000001N9+00501+99999100541ADDGF106991999999999999999999
0029029070999991904061206004+64333+023450FM-12+000599999V0203601N011819999999N0000001N9+00561+99999100841ADDGF105991999999999999999999
0029029070999991904061213004+64333+023450FM-12+000599999V0203601N011819999999N0000001N9+00721+99999101101ADDGF101991999999999999999999
0029029070999991904061220004+64333+023450FM-12+000599999V0202901N006219999999N0000001N9+00671+99999101161ADDGF106991999999999999999999
0029029070999991904061306004+64333+023450FM-12+000599999V0203201N006219999999N0000001N9+00611+99999101101ADDGF104991999999999999999999
0029029070999991904061313004+64333+023450FM-12+000599999V0203201N005119999999N0000001N9+00721+99999101271ADDGF102991999999999999999999
0029029070999991904061320004+64333+023450FM-12+000599999V0203201N004119999999N0000001N9+00671+99999101541ADDGF102991999999999999999999
0029029070999991904061406004+64333+023450FM-12+000599999V0203201N005119999999N0000001N9+00561+99999101901ADDGF105991999999999999999999
0029029070999991904061413004+64333+023450FM-12+000599999V0203401N006219999999N0000001N9+00721+99999102071ADDGF100991999999999999999999
0029029070999991904061420004+64333+023450FM-12+000599999V0203201N003119999999N0000001N9+00721+99999102101ADDGF100991999999999999999999
0029029070999991904061506004+64333+023450FM-12+000599999V0201401N002119999999N0000001N9+00941+99999102301ADDGF104991999999999999999999
0029029070999991904061513004+64333+023450FM-12+000599999V0209991C000019999999N0000001N9+01331+99999102041ADDGF106991999999999999999999
0029029070999991904061520004+64333+023450FM-12+000599999V0209991C000019999999N0000001N9+01111+99999101671ADDGF101991999999999999999999
0029029070999991904061606004+64333+023450FM-12+000599999V0202001N006219999999N0000001N9+00941+99999101391ADDGF101991999999999999999999
0029029070999991904061613004+64333+023450FM-12+000599999V0202001N002119999999N0000001N9+01221+99999100951ADDGF107991999999999999999999
0029029070999991904061620004+64333+023450FM-12+000599999V0201801N003119999999N0000001N9+01001+99999100441ADDGF107991999999999999999999
0029029070999991904061706004+64333+023450FM-12+000599999V0202001N005119999999N0000001N9+00941+99999099661ADDGF108991999999999999999999
0029029070999991904061713004+64333+023450FM-12+000599999V0202301N011819999999N0000001N9+00941+99999099431ADDGF106991999999999999999999
0029029070999991904061720004+64333+023450FM-12+000599999V0202501N008719999999N0000001N9+00831+99999099311ADDGF104991999999999999999999
0029029070999991904061806004+64333+023450FM-12+000599999V0202301N008719999999N0000001N9+00781+99999099441ADDGF103991999999999999999999
0029029070999991904061813004+64333+023450FM-12+000599999V0202301N008719999999N0000001N9+00891+99999099631ADDGF102991999999999999999999
0029029070999991904061820004+64333+023450FM-12+000599999V0202501N008719999999N0000001N9+00781+99999099561ADDGF105991999999999999999999
0029029070999991904061906004+64333+023450FM-12+000599999V0202701N008219999999N0000001N9+00671+99999099521ADDGF101991999999999999999999
0029029070999991904061913004+64333+023450FM-12+000599999V0202501N008719999999N0000001N9+00831+99999099441ADDGF101991999999999999999999
0029029070999991904061920004+64333+023450FM-12+000599999V0202501N008719999999N0000001N9+00781+99999099381ADDGF106991999999999999999999
0029029070999991904062006004+64333+023450FM-12+000599999V0202701N008219999999N0000001N9+00671+99999099661ADDGF100991999999999999999999
0029029070999991904062013004+64333+023450FM-12+000599999V0202501N006219999999N0000001N9+01001+99999099991ADDGF102991999999999999999999
0029029070999991904062020004+64333+023450FM-12+000599999V0202501N006219999999N0000001N9+00941+99999100141ADDGF104991999999999999999999
0029029070999991904062106004+64333+023450FM-12+000599999V0202701N006219999999N0000001N9+00721+99999100551ADDGF100991999999999999999999
0029029070999991904062113004+64333+023450FM-12+000599999V0202501N008219999999N0000001N9+00941+99999100791ADDGF101991999999999999999999
0029029070999991904062120004+64333+023450FM-12+000599999V0202301N006219999999N0000001N9+00891+99999100791ADDGF103991999999999999999999
0029029070999991904062206004+64333+023450FM-12+000599999V0200901N003119999999N0000001N9+00941+99999100641ADDGF107991999999999999999999
0029029070999991904062213004+64333+023450FM-12+000599999V0200201N002119999999N0000001N9+01111+99999100421ADDGF107991999999999999999999
0029029070999991904062220004+64333+023450FM-12+000599999V0200201N002119999999N0000001N9+00891+99999100241ADDGF105991999999999999999999
0029029070999991904062306004+64333+023450FM-12+000599999V0200701N002119999999N0000001N9+01001+99999100141ADDGF106991999999999999999999
0029029070999991904062313004+64333+023450FM-12+000599999V0200201N006219999999N0000001N9+01001+99999100201ADDGF107991999999999999999999
0029029070999991904062320004+64333+023450FM-12+000599999V0200501N002119999999N0000001N9+01001+99999100301ADDGF107991999999999999999999
0029029070999991904062406004+64333+023450FM-12+000599999V0209991C000019999999N0000001N9+01061+99999100511ADDGF102991999999999999999999
0029029070999991904062413004+64333+023450FM-12+000599999V0200201N006219999999N0000001N9+01061+99999100311ADDGF106991999999999999999999
0035029070999991904062420004+64333+023450FM-12+000599999V0203601N009819999999N0000001N9+00831+99999099631ADDGF108991999999999999999999MW1621
0029029070999991904062506004+64333+023450FM-12+000599999V0200901N011819999999N0000001N9+01111+99999099781ADDGF102991999999999999999999
0029029070999991904062513004+64333+023450FM-12+000599999V0201401N008219999999N0000001N9+01281+99999100061ADDGF106991999999999999999999
0029029070999991904062520004+64333+023450FM-12+000599999V0201401N006219999999N0000001N9+01171+99999100181ADDGF106991999999999999999999
0029029070999991904062606004+64333+023450FM-12+000599999V0201401N004119999999N0000001N9+01111+99999100561ADDGF102991999999999999999999
0029029070999991904062613004+64333+023450FM-12+000599999V0200501N006219999999N0000001N9+01061+99999100601ADDGF106991999999999999999999
0029029070999991904062620004+64333+023450FM-12+000599999V0200501N004119999999N0000001N9+01001+99999100361ADDGF106991999999999999999999
0029029070999991904062706004+64333+023450FM-12+000599999V0200501N006219999999N0000001N9+01061+99999099601ADDGF108991999999999999999999
0029029070999991904062713004+64333+023450FM-12+000599999V0200901N004119999999N0000001N9+01281+99999099701ADDGF108991999999999999999999
0029029070999991904062720004+64333+023450FM-12+000599999V0200701N004119999999N0000001N9+01111+99999100061ADDGF102991999999999999999999
0029029070999991904062806004+64333+023450FM-12+000599999V0200901N004119999999N0000001N9+01061+99999100191ADDGF102991999999999999999999
0029029070999991904062813004+64333+023450FM-12+000599999V0200701N004119999999N0000001N9+01221+99999100441ADDGF106991999999999999999999
0029029070999991904062820004+64333+023450FM-12+000599999V02099999999999999999N0000001N9+01171+99999100621ADDGF105991999999999999999999
0029029070999991904062906004+64333+023450FM-12+000599999V02099999999999999999N0000001N9+01331+99999100941ADDGF106991999999999999999999
0029029070999991904062913004+64333+023450FM-12+000599999V0203601N006219999999N0000001N9+01061+99999101161ADDGF108991999999999999999999
0029029070999991904062920004+64333+023450FM-12+000599999V0203601N009819999999N0000001N9+01001+99999101311ADDGF101991999999999999999999
0029029070999991904063006004+64333+023450FM-12+000599999V0203601N009819999999N0000001N9+00831+99999101281ADDGF108991999999999999999999
0029029070999991904063013004+64333+023450FM-12+000599999V0203601N011819999999N0000001N9+00941+99999101141ADDGF101991999999999999999999
0029029070999991904063020004+64333+023450FM-12+000599999V0203601N013919999999N0000001N9+01001+99999100951ADDGF104991999999999999999999
0029029070999991904070106004+64333+023450FM-12+000599999V0200201N015919999999N0000001N9+00831+99999100911ADDGF108991999999999999999999
0029029070999991904070113004+64333+023450FM-12+000599999V0200501N015919999999N0000001N9+00891+99999100911ADDGF108991999999999999999999
0029029070999991904070120004+64333+023450FM-12+000599999V0200501N008219999999N0000001N9+00891+99999100911ADDGF107991999999999999999999
0029029070999991904070206004+64333+023450FM-12+000599999V0200501N006219999999N0000001N9+00831+99999100871ADDGF108991999999999999999999
0029029070999991904070213004+64333+023450FM-12+000599999V0200201N011819999999N0000001N9+01061+99999100861ADDGF103991999999999999999999
0029029070999991904070220004+64333+023450FM-12+000599999V0200701N006219999999N0000001N9+01001+99999100881ADDGF107991999999999999999999
0029029070999991904070306004+64333+023450FM-12+000599999V0200501N009819999999N0000001N9+00941+99999100821ADDGF108991999999999999999999
0029029070999991904070313004+64333+023450FM-12+000599999V0200201N011819999999N0000001N9+01001+99999100841ADDGF108991999999999999999999
0029029070999991904070320004+64333+023450FM-12+000599999V0200501N009819999999N0000001N9+00941+99999100561ADDGF108991999999999999999999
0029029070999991904070406004+64333+023450FM-12+000599999V0202001N006219999999N0000001N9+00891+99999100431ADDGF108991999999999999999999
0029029070999991904070413004+64333+023450FM-12+000599999V0202301N004119999999N0000001N9+01001+99999100671ADDGF108991999999999999999999
0029029070999991904070420004+64333+023450FM-12+000599999V0202001N004119999999N0000001N9+01001+99999100781ADDGF107991999999999999999999
0029029070999991904070506004+64333+023450FM-12+000599999V02099999999999999999N0000001N9+01061+99999100641ADDGF107991999999999999999999
0029029070999991904070513004+64333+023450FM-12+000599999V0203601N006219999999N0000001N9+01061+99999100631ADDGF107991999999999999999999
0029029070999991904070520004+64333+023450FM-12+000599999V0200701N004119999999N0000001N9+01001+99999100511ADDGF107991999999999999999999
0029029070999991904070606004+64333+023450FM-12+000599999V02099999999999999999N0000001N9+01221+99999100621ADDGF104991999999999999999999
0029029070999991904070613004+64333+023450FM-12+000599999V0202701N002119999999N0000001N9+01111+99999100711ADDGF108991999999999999999999
0029029070999991904070620004+64333+023450FM-12+000599999V0202001N002119999999N0000001N9+01111+99999100871ADDGF103991999999999999999999
0029029070999991904070706004+64333+023450FM-12+000599999V0202301N004119999999N0000001N9+00891+99999100861ADDGF108991999999999999999999
0029029070999991904070713004+64333+023450FM-12+000599999V02099999999999999999N0000001N9+01501+99999100701ADDGF102991999999999999999999
0029029070999991904070720004+64333+023450FM-12+000599999V0202701N002119999999N0000001N9+01171+99999100431ADDGF108991999999999999999999
0029029070999991904070806004+64333+023450FM-12+000599999V0202901N006219999999N0000001N9+01001+99999100201ADDGF106991999999999999999999
0029029070999991904070813004+64333+023450FM-12+000599999V0202501N004119999999N0000001N9+01221+99999100361ADDGF106991999999999999999999
0029029070999991904070820004+64333+023450FM-12+000599999V0202501N011819999999N0000001N9+01001+99999100191ADDGF107991999999999999999999
0029029070999991904070906004+64333+023450FM-12+000599999V0202701N008219999999N0000001N9+00941+99999099951ADDGF107991999999999999999999
0029029070999991904070913004+64333+023450FM-12+000599999V0202901N004119999999N0000001N9+01221+99999099921ADDGF107991999999999999999999
0029029070999991904070920004+64333+023450FM-12+000599999V0202901N008219999999N0000001N9+01111+99999099801ADDGF107991999999999999999999
0029029070999991904071006004+64333+023450FM-12+000599999V0203401N011819999999N0000001N9+00941+99999099951ADDGF108991999999999999999999
0029029070999991904071013004+64333+023450FM-12+000599999V0203201N011819999999N0000001N9+00941+99999100111ADDGF108991999999999999999999
0029029070999991904071020004+64333+023450FM-12+000599999V0203201N013919999999N0000001N9+00831+99999100111ADDGF108991999999999999999999
0029029070999991904071106004+64333+023450FM-12+000599999V0203601N011819999999N0000001N9+00941+99999100431ADDGF104991999999999999999999
0029029070999991904071113004+64333+023450FM-12+000599999V0200201N006219999999N0000001N9+01001+99999100721ADDGF102991999999999999999999
0029029070999991904071120004+64333+023450FM-12+000599999V0203201N006219999999N0000001N9+00941+99999100951ADDGF106991999999999999999999
0029029070999991904071206004+64333+023450FM-12+000599999V0203601N006219999999N0000001N9+00941+99999101441ADDGF101991999999999999999999
0029029070999991904071213004+64333+023450FM-12+000599999V0203601N006219999999N0000001N9+01111+99999101741ADDGF101991999999999999999999
0029029070999991904071220004+64333+023450FM-12+000599999V0203201N006219999999N0000001N9+01061+99999101831ADDGF101991999999999999999999
0029029070999991904071306004+64333+023450FM-12+000599999V0202701N002119999999N0000001N9+01061+99999101781ADDGF102991999999999999999999
0029029070999991904071313004+64333+023450FM-12+000599999V0202501N004119999999N0000001N9+01281+99999101541ADDGF106991999999999999999999
0029029070999991904071320004+64333+023450FM-12+000599999V0202301N004119999999N0000001N9+01061+99999101391ADDGF106991999999999999999999
0029029070999991904071406004+64333+023450FM-12+000599999V0202701N008219999999N0000001N9+01221+99999101301ADDGF102991999999999999999999
0029029070999991904071413004+64333+023450FM-12+000599999V0202301N006219999999N0000001N9+01331+99999101301ADDGF101991999999999999999999
0029029070999991904071420004+64333+023450FM-12+000599999V0202301N006219999999N0000001N9+01111+99999101221ADDGF106991999999999999999999
0029029070999991904071506004+64333+023450FM-12+000599999V0202501N006219999999N0000001N9+01171+99999101321ADDGF105991999999999999999999
0029029070999991904071513004+64333+023450FM-12+000599999V0202501N004119999999N0000001N9+01331+99999101381ADDGF103991999999999999999999
0029029070999991904071520004+64333+023450FM-12+000599999V0202501N002119999999N0000001N9+01221+99999101271ADDGF104991999999999999999999
0035029070999991904071606004+64333+023450FM-12+000599999V0201801N008219999999N0000001N9+01331+99999100881ADDGF108991999999999999999999MW1621
0029029070999991904071613004+64333+023450FM-12+000599999V0202301N008219999999N0000001N9+01391+99999100321ADDGF106991999999999999999999
0029029070999991904071620004+64333+023450FM-12+000599999V0202501N006219999999N0000001N9+01221+99999099941ADDGF106991999999999999999999
0029029070999991904071706004+64333+023450FM-12+000599999V0202701N006219999999N0000001N9+01111+99999099861ADDGF101991999999999999999999
0029029070999991904071713004+64333+023450FM-12+000599999V0202901N011819999999N0000001N9+01221+99999100261ADDGF101991999999999999999999
0029029070999991904071720004+64333+023450FM-12+000599999V0203201N011819999999N0000001N9+01001+99999100561ADDGF101991999999999999999999
0029029070999991904071806004+64333+023450FM-12+000599999V0202701N013919999999N0000001N9+00721+99999100281ADDGF101991999999999999999999
0029029070999991904071813004+64333+023450FM-12+000599999V0202501N009819999999N0000001N9+01001+99999100041ADDGF105991999999999999999999
0029029070999991904071820004+64333+023450FM-12+000599999V0202701N006219999999N0000001N9+00941+99999099871ADDGF106991999999999999999999
0029029070999991904071906004+64333+023450FM-12+000599999V0200501N006219999999N0000001N9+01001+99999100281ADDGF106991999999999999999999
0029029070999991904071913004+64333+023450FM-12+000599999V0200201N008219999999N0000001N9+01061+99999100561ADDGF106991999999999999999999
0029029070999991904071920004+64333+023450FM-12+000599999V0203601N006219999999N0000001N9+01001+99999100581ADDGF106991999999999999999999
0029029070999991904072006004+64333+023450FM-12+000599999V0200201N011819999999N0000001N9+01061+99999100641ADDGF106991999999999999999999
0029029070999991904072013004+64333+023450FM-12+000599999V0200201N011819999999N0000001N9+01061+99999100661ADDGF106991999999999999999999
0029029070999991904072020004+64333+023450FM-12+000599999V0200201N011819999999N0000001N9+01061+99999100671ADDGF106991999999999999999999
0029029070999991904072106004+64333+023450FM-12+000599999V0200201N013919999999N0000001N9+00941+99999100671ADDGF107991999999999999999999
0029029070999991904072113004+64333+023450FM-12+000599999V0200201N015919999999N0000001N9+00941+99999100751ADDGF107991999999999999999999
0029029070999991904072120004+64333+023450FM-12+000599999V0203601N008219999999N0000001N9+01001+99999100861ADDGF103991999999999999999999
0029029070999991904072206004+64333+023450FM-12+000599999V0203601N008219999999N0000001N9+01001+99999100961ADDGF106991999999999999999999
0029029070999991904072213004+64333+023450FM-12+000599999V0203601N006219999999N0000001N9+01061+99999101201ADDGF101991999999999999999999
0029029070999991904072220004+64333+023450FM-12+000599999V0202701N006219999999N0000001N9+01001+99999101041ADDGF103991999999999999999999
0029029070999991904072306004+64333+023450FM-12+000599999V0203601N004119999999N0000001N9+01061+99999101111ADDGF107991999999999999999999
0029029070999991904072313004+64333+023450FM-12+000599999V02099999999999999999N0000001N9+01391+99999101141ADDGF102991999999999999999999
0029029070999991904072320004+64333+023450FM-12+000599999V0202301N006219999999N0000001N9+01171+99999100861ADDGF104991999999999999999999
0029029070999991904072406004+64333+023450FM-12+000599999V0203201N006219999999N0000001N9+01111+99999100621ADDGF105991999999999999999999
0029029070999991904072413004+64333+023450FM-12+000599999V0202301N006219999999N0000001N9+01281+99999100721ADDGF106991999999999999999999
0029029070999991904072420004+64333+023450FM-12+000599999V0202301N008219999999N0000001N9+01061+99999100561ADDGF106991999999999999999999
0029029070999991904072506004+64333+023450FM-12+000599999V0203201N006219999999N0000001N9+01061+99999100501ADDGF105991999999999999999999
0029029070999991904072513004+64333+023450FM-12+000599999V0203201N004119999999N0000001N9+01171+99999100541ADDGF106991999999999999999999
0029029070999991904072520004+64333+023450FM-12+000599999V0203201N004119999999N0000001N9+01111+99999100471ADDGF103991999999999999999999
0029029070999991904072606004+64333+023450FM-12+000599999V0203601N008219999999N0000001N9+01111+99999100501ADDGF105991999999999999999999
0029029070999991904072613004+64333+023450FM-12+000599999V0203601N008219999999N0000001N9+01221+99999100561ADDGF101991999999999999999999
0029029070999991904072620004+64333+023450FM-12+000599999V0203601N006219999999N0000001N9+01221+99999100641ADDGF101991999999999999999999
0029029070999991904072706004+64333+023450FM-12+000599999V0200201N009819999999N0000001N9+01171+99999100841ADDGF100991999999999999999999
0029029070999991904072713004+64333+023450FM-12+000599999V0203601N011819999999N0000001N9+01171+99999101081ADDGF101991999999999999999999
0029029070999991904072720004+64333+023450FM-12+000599999V0203601N008219999999N0000001N9+01171+99999101151ADDGF100991999999999999999999
0029029070999991904072806004+64333+023450FM-12+000599999V0203601N004119999999N0000001N9+01171+99999101301ADDGF101991999999999999999999
0029029070999991904072813004+64333+023450FM-12+000599999V0202701N002119999999N0000001N9+01441+99999101241ADDGF103991999999999999999999
0029029070999991904072820004+64333+023450FM-12+000599999V0203201N002119999999N0000001N9+01221+99999101221ADDGF102991999999999999999999
0029029070999991904072906004+64333+023450FM-12+000599999V0203601N002119999999N0000001N9+01281+99999101551ADDGF106991999999999999999999
0029029070999991904072913004+64333+023450FM-12+000599999V0203601N004119999999N0000001N9+01281+99999101781ADDGF100991999999999999999999
0029029070999991904072920004+64333+023450FM-12+000599999V0203601N002119999999N0000001N9+01221+99999101831ADDGF100991999999999999999999
0029029070999991904073006004+64333+023450FM-12+000599999V0209991C000019999999N0000001N9+01281+99999102121ADDGF100991999999999999999999
0029029070999991904073013004+64333+023450FM-12+000599999V0209991C000019999999N0000001N9+01721+99999102041ADDGF101991999999999999999999
0029029070999991904073020004+64333+023450FM-12+000599999V0201801N004119999999N0000001N9+01281+99999101951ADDGF102991999999999999999999
0029029070999991904073106004+64333+023450FM-12+000599999V0202001N008219999999N0000001N9+01391+99999101841ADDGF104991999999999999999999
0029029070999991904073113004+64333+023450FM-12+000599999V0202301N009819999999N0000001N9+01501+99999101761ADDGF102991999999999999999999
0029029070999991904073120004+64333+023450FM-12+000599999V0202301N008219999999N0000001N9+01391+99999101701ADDGF102991999999999999999999
0029029070999991904080106004+64333+023450FM-12+000599999V0202001N008219999999N0000001N9+01281+99999101601ADDGF100991999999999999999999
0029029070999991904080113004+64333+023450FM-12+000599999V0202301N008219999999N0000001N9+01561+99999101581ADDGF101991999999999999999999
0029029070999991904080120004+64333+023450FM-12+000599999V0202301N009819999999N0000001N9+01331+99999101621ADDGF104991999999999999999999
0029029070999991904080206004+64333+023450FM-12+000599999V0202001N004119999999N0000001N9+01331+99999101721ADDGF106991999999999999999999
0035029070999991904080213004+64333+023450FM-12+000599999V0202701N003119999999N0000001N9+01441+99999101761ADDGF108991999999999999999999MW1621
0029029070999991904080220004+64333+023450FM-12+000599999V0209991C000019999999N0000001N9+01331+99999101861ADDGF106991999999999999999999
0029029070999991904080306004+64333+023450FM-12+000599999V0202701N004119999999N0000001N9+01331+99999102081ADDGF101991999999999999999999
0029029070999991904080313004+64333+023450FM-12+000599999V0202501N002119999999N0000001N9+01611+99999102181ADDGF102991999999999999999999
0029029070999991904080320004+64333+023450FM-12+000599999V0202001N006219999999N0000001N9+01441+99999101951ADDGF107991999999999999999999
0029029070999991904080406004+64333+023450FM-12+000599999V0202501N008219999999N0000001N9+01331+99999101561ADDGF104991999999999999999999
0029029070999991904080413004+64333+023450FM-12+000599999V0202501N009819999999N0000001N9+01441+99999101441ADDGF105991999999999999999999
0029029070999991904080420004+64333+023450FM-12+000599999V0202901N011819999999N0000001N9+01281+99999101461ADDGF102991999999999999999999
0029029070999991904080506004+64333+023450FM-12+000599999V0203401N009819999999N0000001N9+01221+99999101561ADDGF100991999999999999999999
0029029070999991904080513004+64333+023450FM-12+000599999V0203401N006219999999N0000001N9+01391+99999101641ADDGF100991999999999999999999
0029029070999991904080520004+64333+023450FM-12+000599999V0202501N004119999999N0000001N9+01221+99999101631ADDGF101991999999999999999999
0029029070999991904080606004+64333+023450FM-12+000599999V0201801N006219999999N0000001N9+01221+99999101551ADDGF107991999999999999999999
0029029070999991904080613004+64333+023450FM-12+000599999V0201601N008219999999N0000001N9+01171+99999101461ADDGF108991999999999999999999
0029029070999991904080620004+64333+023450FM-12+000599999V0201401N008219999999N0000001N9+01171+99999100901ADDGF108991999999999999999999
0029029070999991904080706004+64333+023450FM-12+000599999V0200501N002119999999N0000001N9+01221+99999100391ADDGF108991999999999999999999
0029029070999991904080713004+64333+023450FM-12+000599999V0200501N013919999999N0000001N9+01221+99999100501ADDGF108991999999999999999999
0029029070999991904080720004+64333+023450FM-12+000599999V0200501N013919999999N0000001N9+01111+99999100581ADDGF107991999999999999999999
0029029070999991904080806004+64333+023450FM-12+000599999V0200501N011819999999N0000001N9+01001+99999100561ADDGF101991999999999999999999
0029029070999991904080813004+64333+023450FM-12+000599999V0200501N011819999999N0000001N9+01171+99999100471ADDGF101991999999999999999999
0029029070999991904080820004+64333+023450FM-12+000599999V0203601N006219999999N0000001N9+01111+99999100281ADDGF101991999999999999999999
0029029070999991904080906004+64333+023450FM-12+000599999V0201101N002119999999N0000001N9+01111+99999100081ADDGF106991999999999999999999
0029029070999991904080913004+64333+023450FM-12+000599999V0203401N002119999999N0000001N9+01391+99999099941ADDGF107991999999999999999999
0029029070999991904080920004+64333+023450FM-12+000599999V0203601N002119999999N0000001N9+01111+99999099761ADDGF108991999999999999999999
0029029070999991904081006004+64333+023450FM-12+000599999V0202901N006219999999N0000001N9+01001+99999099561ADDGF107991999999999999999999
0029029070999991904081013004+64333+023450FM-12+000599999V0203201N009819999999N0000001N9+00941+99999099801ADDGF107991999999999999999999
0029029070999991904081020004+64333+023450FM-12+000599999V0202301N006219999999N0000001N9+01001+99999099991ADDGF102991999999999999999999
0029029070999991904081106004+64333+023450FM-12+000599999V0202701N004119999999N0000001N9+01061+99999100071ADDGF101991999999999999999999
0029029070999991904081113004+64333+023450FM-12+000599999V0202301N009819999999N0000001N9+01171+99999100461ADDGF102991999999999999999999
0029029070999991904081120004+64333+023450FM-12+000599999V0202301N009819999999N0000001N9+01111+99999100661ADDGF103991999999999999999999
0029029070999991904081206004+64333+023450FM-12+000599999V0201601N006219999999N0000001N9+01061+99999101001ADDGF105991999999999999999999
0029029070999991904081213004+64333+023450FM-12+000599999V0201601N002119999999N0000001N9+01501+99999100921ADDGF102991999999999999999999
0029029070999991904081220004+64333+023450FM-12+000599999V0201401N004119999999N0000001N9+01221+99999100821ADDGF107991999999999999999999
0035029070999991904081306004+64333+023450FM-12+000599999V0201101N011819999999N0000001N9+01061+99999100471ADDGF108991999999999999999999MW1621
0029029070999991904081313004+64333+023450FM-12+000599999V0201101N018019999999N0000001N9+01111+99999100201ADDGF108991999999999999999999
0029029070999991904081320004+64333+023450FM-12+000599999V0201101N008219999999N0000001N9+01061+99999100121ADDGF108991999999999999999999
0035029070999991904081406004+64333+023450FM-12+000599999V0200701N004119999999N0000001N9+01061+99999100061ADDGF108991999999999999999999MW1621
0035029070999991904081413004+64333+023450FM-12+000599999V0202501N002119999999N0000001N9+01171+99999100221ADDGF108991999999999999999999MW1621
0029029070999991904081420004+64333+023450FM-12+000599999V0202901N006219999999N0000001N9+01001+99999100461ADDGF106991999999999999999999
0029029070999991904081506004+64333+023450FM-12+000599999V0202001N004119999999N0000001N9+00941+99999100461ADDGF108991999999999999999999
0029029070999991904081513004+64333+023450FM-12+000599999V0200501N004119999999N0000001N9+01221+99999100341ADDGF102991999999999999999999
0029029070999991904081520004+64333+023450FM-12+000599999V0200901N006219999999N0000001N9+01171+99999100021ADDGF106991999999999999999999
0035029070999991904081606004+64333+023450FM-12+000599999V0200901N011819999999N0000001N9+01061+99999099671ADDGF108991999999999999999999MW1621
0029029070999991904081613004+64333+023450FM-12+000599999V0200901N008219999999N0000001N9+01171+99999099761ADDGF108991999999999999999999
0029029070999991904081620004+64333+023450FM-12+000599999V0200901N006219999999N0000001N9+01171+99999099941ADDGF107991999999999999999999
0029029070999991904081706004+64333+023450FM-12+000599999V0200901N006219999999N0000001N9+01111+99999100141ADDGF107991999999999999999999
0029029070999991904081713004+64333+023450FM-12+000599999V0200501N006219999999N0000001N9+01281+99999100241ADDGF106991999999999999999999
0029029070999991904081720004+64333+023450FM-12+000599999V0200501N004119999999N0000001N9+01171+99999100391ADDGF106991999999999999999999
0029029070999991904081806004+64333+023450FM-12+000599999V0209991C000019999999N0000001N9+01221+99999100431ADDGF108991999999999999999999
0035029070999991904081813004+64333+023450FM-12+000599999V0200501N004119999999N0000001N9+01171+99999100481ADDGF108991999999999999999999MW1621
0029029070999991904081820004+64333+023450FM-12+000599999V0201101N002119999999N0000001N9+01171+99999100541ADDGF108991999999999999999999
0029029070999991904081906004+64333+023450FM-12+000599999V0201401N006219999999N0000001N9+01111+99999100641ADDGF108991999999999999999999
0029029070999991904081913004+64333+023450FM-12+000599999V0201401N006219999999N0000001N9+01501+99999100481ADDGF103991999999999999999999
0029029070999991904081920004+64333+023450FM-12+000599999V0200701N006219999999N0000001N9+01221+99999100201ADDGF106991999999999999999999
0029029070999991904082013004+64333+023450FM-12+000599999V0200501N006219999999N0000001N9+01281+99999099581ADDGF106991999999999999999999
0029029070999991904082020004+64333+023450FM-12+000599999V0200701N006219999999N0000001N9+01221+99999099471ADDGF105991999999999999999999
0029029070999991904082106004+64333+023450FM-12+000599999V0200901N006219999999N0000001N9+01061+99999099631ADDGF102991999999999999999999
0029029070999991904082113004+64333+023450FM-12+000599999V0203601N006219999999N0000001N9+01281+99999099841ADDGF102991999999999999999999
0029029070999991904082120004+64333+023450FM-12+000599999V0203601N004119999999N0000001N9+01111+99999099861ADDGF103991999999999999999999
0029029070999991904082206004+64333+023450FM-12+000599999V0203401N008219999999N0000001N9+01171+99999999999ADDGF108991999999999999999999
0029029070999991904082213004+64333+023450FM-12+000599999V0203601N004119999999N0000001N9+01281+99999100281ADDGF102991999999999999999999
0029029070999991904082220004+64333+023450FM-12+000599999V0202901N004119999999N0000001N9+01221+99999100471ADDGF106991999999999999999999
0029029070999991904082306004+64333+023450FM-12+000599999V0203401N004119999999N0000001N9+01221+99999100631ADDGF102991999999999999999999
0029029070999991904082313004+64333+023450FM-12+000599999V0200501N008219999999N0000001N9+01281+99999100801ADDGF107991999999999999999999
0029029070999991904082320004+64333+023450FM-12+000599999V0200201N006219999999N0000001N9+01221+99999100921ADDGF102991999999999999999999
0029029070999991904082406004+64333+023450FM-12+000599999V0200201N008219999999N0000001N9+01171+99999100991ADDGF102991999999999999999999
0029029070999991904082413004+64333+023450FM-12+000599999V0200201N009819999999N0000001N9+01221+99999101111ADDGF103991999999999999999999
0029029070999991904082420004+64333+023450FM-12+000599999V0200501N006219999999N0000001N9+01221+99999101111ADDGF102991999999999999999999
0029029070999991904082506004+64333+023450FM-12+000599999V0200701N006219999999N0000001N9+01111+99999101151ADDGF102991999999999999999999
0029029070999991904082513004+64333+023450FM-12+000599999V0200501N009819999999N0000001N9+01281+99999101121ADDGF102991999999999999999999
0029029070999991904082520004+64333+023450FM-12+000599999V0200501N009819999999N0000001N9+01221+99999101071ADDGF106991999999999999999999
0029029070999991904082606004+64333+023450FM-12+000599999V0200501N011819999999N0000001N9+01061+99999100821ADDGF107991999999999999999999
0029029070999991904082613004+64333+023450FM-12+000599999V0200501N009819999999N0000001N9+01061+99999100871ADDGF106991999999999999999999
0029029070999991904082620004+64333+023450FM-12+000599999V0200501N002119999999N0000001N9+01001+99999101031ADDGF106991999999999999999999
0029029070999991904082706004+64333+023450FM-12+000599999V0202901N002119999999N0000001N9+01061+99999101261ADDGF104991999999999999999999
0029029070999991904082713004+64333+023450FM-12+000599999V0209991C000019999999N0000001N9+01331+99999101561ADDGF106991999999999999999999
0029029070999991904082720004+64333+023450FM-12+000599999V0200901N002119999999N0000001N9+01111+99999101781ADDGF107991999999999999999999
0029029070999991904082806004+64333+023450FM-12+000599999V0201401N002119999999N0000001N9+01001+99999102001ADDGF107991999999999999999999
0029029070999991904082813004+64333+023450FM-12+000599999V0201401N006219999999N0000001N9+01281+99999102041ADDGF106991999999999999999999
0029029070999991904082820004+64333+023450FM-12+000599999V0201101N006219999999N0000001N9+00941+99999102161ADDGF108991999999999999999999
0035029070999991904082906004+64333+023450FM-12+000599999V0201101N006219999999N0000001N9+00941+99999102141ADDGF108991999999999999999999MW1621
0029029070999991904082913004+64333+023450FM-12+000599999V0200701N002119999999N0000001N9+01221+99999102081ADDGF106991999999999999999999
0029029070999991904082920004+64333+023450FM-12+000599999V0200501N008219999999N0000001N9+01061+99999101951ADDGF102991999999999999999999
0029029070999991904083006004+64333+023450FM-12+000599999V0200201N018019999999N0000001N9+00941+99999101421ADDGF107991999999999999999999
0029029070999991904083013004+64333+023450FM-12+000599999V0200201N018019999999N0000001N9+01001+99999101191ADDGF105991999999999999999999
0029029070999991904083020004+64333+023450FM-12+000599999V0200201N009819999999N0000001N9+00941+99999101201ADDGF102991999999999999999999
0029029070999991904083106004+64333+023450FM-12+000599999V0200201N011819999999N0000001N9+00781+99999101021ADDGF108991999999999999999999
0029029070999991904083113004+64333+023450FM-12+000599999V0200201N011819999999N0000001N9+00891+99999101101ADDGF108991999999999999999999
0029029070999991904083120004+64333+023450FM-12+000599999V0200201N008219999999N0000001N9+00891+99999101191ADDGF108991999999999999999999
0029029070999991904090106004+64333+023450FM-12+000599999V0200201N009819999999N0000001N9+00831+99999101421ADDGF107991999999999999999999
0029029070999991904090113004+64333+023450FM-12+000599999V0200201N006219999999N0000001N9+00831+99999101711ADDGF106991999999999999999999
0029029070999991904090120004+64333+023450FM-12+000599999V0203601N004119999999N0000001N9+00831+99999101871ADDGF107991999999999999999999
0029029070999991904090206004+64333+023450FM-12+000599999V0209991C000019999999N0000001N9+00891+99999101981ADDGF108991999999999999999999
0029029070999991904090213004+64333+023450FM-12+000599999V0209991C000019999999N0000001N9+01171+99999101961ADDGF106991999999999999999999
0029029070999991904090220004+64333+023450FM-12+000599999V0209991C000019999999N0000001N9+00891+99999101871ADDGF107991999999999999999999
0029029070999991904090306004+64333+023450FM-12+000599999V0201801N002119999999N0000001N9+00891+99999101681ADDGF107991999999999999999999
