0029029070999991905010106004+64333+023450FM-12+000599999V0202301N008219999999N0000001N9-01391+99999102641ADDGF102991999999999999999999
0029029070999991905010113004+64333+023450FM-12+000599999V0202301N011819999999N0000001N9-01061+99999102631ADDGF104991999999999999999999
0029029070999991905010120004+64333+023450FM-12+000599999V0202301N020119999999N0000001N9-00611+99999101781ADDGF108991999999999999999999
0029029070999991905010206004+64333+023450FM-12+000599999V0202301N015919999999N0000001N9-00331+99999100381ADDGF108991999999999999999999
0035029070999991905010213004+64333+023450FM-12+000599999V0202301N011819999999N0000001N9-00171+99999099681ADDGF108991999999999999999999MW1721
0029029070999991905010220004+64333+023450FM-12+000599999V0202501N013919999999N0000001N9+00061+99999098661ADDGF108991999999999999999999
0029029070999991905010306004+64333+023450FM-12+000599999V0202501N008219999999N0000001N9+00061+99999098301ADDGF108991999999999999999999
0029029070999991905010313004+64333+023450FM-12+000599999V0202901N009819999999N0000001N9+00061+99999097951ADDGF106991999999999999999999
0029029070999991905010320004+64333+023450FM-12+000599999V0203201N013919999999N0000001N9-00221+99999097901ADDGF103991999999999999999999
0029029070999991905010406004+64333+023450FM-12+000599999V0203201N011819999999N0000001N9-00111+99999097991ADDGF103991999999999999999999
0029029070999991905010413004+64333+023450FM-12+000599999V0203401N011819999999N0000001N9-00281+99999098381ADDGF106991999999999999999999
0029029070999991905010420004+64333+023450FM-12+000599999V0203401N006219999999N0000001N9-00501+99999098541ADDGF106991999999999999999999
0029029070999991905010506004+64333+023450FM-12+000599999V0200501N004119999999N0000001N9-00721+99999098581ADDGF106991999999999999999999
0029029070999991905010513004+64333+023450FM-12+000599999V0200201N009819999999N0000001N9-00891+99999099001ADDGF107991999999999999999999
0029029070999991905010520004+64333+023450FM-12+000599999V0202301N006219999999N0000001N9-01331+99999099311ADDGF108991999999999999999999
0029029070999991905010606004+64333+023450FM-12+000599999V0202001N008219999999N0000001N9-01441+99999098991ADDGF108991999999999999999999
0029029070999991905010613004+64333+023450FM-12+000599999V0202001N009819999999N0000001N9-01001+99999098501ADDGF107991999999999999999999
0029029070999991905010620004+64333+023450FM-12+000599999V0202301N008219999999N0000001N9-00941+99999098301ADDGF106991999999999999999999
0029029070999991905010706004+64333+023450FM-12+000599999V0202901N004119999999N0000001N9-01001+99999098721ADDGF108991999999999999999999
0029029070999991905010713004+64333+023450FM-12+000599999V0202501N004119999999N0000001N9-01171+99999099151ADDGF102991999999999999999999
0029029070999991905010720004+64333+023450FM-12+000599999V0202901N008219999999N0000001N9-01061+99999099661ADDGF102991999999999999999999
0029029070999991905010806004+64333+023450FM-12+000599999V0202501N002119999999N0000001N9-01221+99999100241ADDGF102991999999999999999999
0029029070999991905010813004+64333+023450FM-12+000599999V0202301N006219999999N0000001N9-01061+99999100231ADDGF108991999999999999999999
0029029070999991905010820004+64333+023450FM-12+000599999V0202001N009819999999N0000001N9-00891+99999099391ADDGF108991999999999999999999
0035029070999991905010906004+64333+023450FM-12+000599999V0202501N008219999999N0000001N9+00001+99999097151ADDGF108991999999999999999999MW1721
0029029070999991905010913004+64333+023450FM-12+000599999V0202501N008219999999N0000001N9-00221+99999096591ADDGF105991999999999999999999
0029029070999991905010920004+64333+023450FM-12+000599999V0202301N006219999999N0000001N9-00221+99999096221ADDGF108991999999999999999999
0029029070999991905011006004+64333+023450FM-12+000599999V0200501N013919999999N0000001N9-01221+99999096991ADDGF108991999999999999999999
0029029070999991905011013004+64333+023450FM-12+000599999V0200201N015919999999N0000001N9-01111+99999098641ADDGF108991999999999999999999
0029029070999991905011020004+64333+023450FM-12+000599999V0209991C000019999999N0000001N9-01331+99999099521ADDGF102991999999999999999999
0029029070999991905011106004+64333+023450FM-12+000599999V0209991C000019999999N0000001N9-01561+99999099921ADDGF103991999999999999999999
0029029070999991905011113004+64333+023450FM-12+000599999V0209991C000019999999N0000001N9-01831+99999100141ADDGF102991999999999999999999
0029029070999991905011120004+64333+023450FM-12+000599999V0201801N002119999999N0000001N9-01721+99999099961ADDGF108991999999999999999999
0035029070999991905011206004+64333+023450FM-12+000599999V0200901N009819999999N0000001N9-01111+99999098661ADDGF108991999999999999999999MW1721
0029029070999991905011213004+64333+023450FM-12+000599999V0200701N009819999999N0000001N9-01061+99999098041ADDGF108991999999999999999999
0029029070999991905011220004+64333+023450FM-12+000599999V0200501N011819999999N0000001N9-01171+99999098311ADDGF108991999999999999999999
0035029070999991905011306004+64333+023450FM-12+000599999V0200201N020119999999N0000001N9-01281+99999099911ADDGF107991999999999999999999MW1721
0035029070999991905011313004+64333+023450FM-12+000599999V0200201N013919999999N0000001N9-01281+99999101421ADDGF102991999999999999999999MW1721
0029029070999991905011320004+64333+023450FM-12+000599999V0203601N002119999999N0000001N9-01501+99999102431ADDGF101991999999999999999999
0029029070999991905011406004+64333+023450FM-12+000599999V0202501N008219999999N0000001N9-01281+99999102701ADDGF102991999999999999999999
0029029070999991905011413004+64333+023450FM-12+000599999V0202501N008219999999N0000001N9-00891+99999102791ADDGF104991999999999999999999
0029029070999991905011420004+64333+023450FM-12+000599999V0202501N009819999999N0000001N9-00501+99999102681ADDGF104991999999999999999999
0029029070999991905011506004+64333+023450FM-12+000599999V0202501N011819999999N0000001N9-00391+99999102591ADDGF106991999999999999999999
0029029070999991905011513004+64333+023450FM-12+000599999V0202501N009819999999N0000001N9-00221+99999102751ADDGF106991999999999999999999
0029029070999991905011520004+64333+023450FM-12+000599999V0202301N009819999999N0000001N9-00221+99999102881ADDGF106991999999999999999999
0029029070999991905011606004+64333+023450FM-12+000599999V0202301N006219999999N0000001N9-00281+99999103151ADDGF106991999999999999999999
0029029070999991905011613004+64333+023450FM-12+000599999V0202501N006219999999N0000001N9-00331+99999103301ADDGF106991999999999999999999
0029029070999991905011620004+64333+023450FM-12+000599999V0201801N004119999999N0000001N9-00331+99999103351ADDGF107991999999999999999999
0029029070999991905011706004+64333+023450FM-12+000599999V0202301N004119999999N0000001N9-00671+99999103351ADDGF108991999999999999999999
0029029070999991905011713004+64333+023450FM-12+000599999V0202301N006219999999N0000001N9-00441+99999103471ADDGF108991999999999999999999
0029029070999991905011720004+64333+023450FM-12+000599999V0202501N004119999999N0000001N9-00391+99999103461ADDGF107991999999999999999999
0029029070999991905011806004+64333+023450FM-12+000599999V0201601N002119999999N0000001N9-00721+99999103501ADDGF107991999999999999999999
0029029070999991905011813004+64333+023450FM-12+000599999V0201101N002119999999N0000001N9-00941+99999103501ADDGF107991999999999999999999
0029029070999991905011820004+64333+023450FM-12+000599999V0201101N002119999999N0000001N9-01111+99999103481ADDGF105991999999999999999999
0029029070999991905011906004+64333+023450FM-12+000599999V0202001N004119999999N0000001N9-01281+99999103601ADDGF101991999999999999999999
0029029070999991905011913004+64333+023450FM-12+000599999V0201801N004119999999N0000001N9-01221+99999103861ADDGF108991999999999999999999
0029029070999991905011920004+64333+023450FM-12+000599999V0201801N006219999999N0000001N9-00941+99999103861ADDGF108991999999999999999999
0029029070999991905012006004+64333+023450FM-12+000599999V0202501N006219999999N0000001N9-00561+99999103821ADDGF108991999999999999999999
0029029070999991905012013004+64333+023450FM-12+000599999V0202501N006219999999N0000001N9-00671+99999103941ADDGF106991999999999999999999
0029029070999991905012020004+64333+023450FM-12+000599999V0202301N008219999999N0000001N9-00561+99999103861ADDGF107991999999999999999999
0029029070999991905012106004+64333+023450FM-12+000599999V0202301N004119999999N0000001N9-00671+99999103751ADDGF106991999999999999999999
0029029070999991905012113004+64333+023450FM-12+000599999V0202501N008219999999N0000001N9-00561+99999103581ADDGF104991999999999999999999
0029029070999991905012120004+64333+023450FM-12+000599999V0202501N009819999999N0000001N9-00561+99999103321ADDGF106991999999999999999999
0029029070999991905012206004+64333+023450FM-12+000599999V0202301N008219999999N0000001N9-00501+99999102911ADDGF108991999999999999999999
0029029070999991905012213004+64333+023450FM-12+000599999V0202301N009819999999N0000001N9-00391+99999102591ADDGF106991999999999999999999
0029029070999991905012220004+64333+023450FM-12+000599999V0202301N009819999999N0000001N9-00441+99999102161ADDGF106991999999999999999999
0029029070999991905012306004+64333+023450FM-12+000599999V0202301N009819999999N0000001N9-00501+99999101761ADDGF107991999999999999999999
0029029070999991905012313004+64333+023450FM-12+000599999V0202301N009819999999N0000001N9-00331+99999101361ADDGF108991999999999999999999
0029029070999991905012320004+64333+023450FM-12+000599999V0202301N013919999999N0000001N9-00221+99999100751ADDGF108991999999999999999999
0029029070999991905012406004+64333+023450FM-12+000599999V0202301N009819999999N0000001N9-00111+99999100301ADDGF108991999999999999999999
0029029070999991905012413004+64333+023450FM-12+000599999V0202501N006219999999N0000001N9-00111+99999100641ADDGF106991999999999999999999
0029029070999991905012420004+64333+023450FM-12+000599999V0202501N002119999999N0000001N9-00441+99999100751ADDGF103991999999999999999999
0029029070999991905012506004+64333+023450FM-12+000599999V0202001N008219999999N0000001N9-00171+99999100241ADDGF108991999999999999999999
0029029070999991905012513004+64333+023450FM-12+000599999V0202001N009819999999N0000001N9-00061+99999099631ADDGF108991999999999999999999
0029029070999991905012520004+64333+023450FM-12+000599999V0202501N008219999999N0000001N9-00331+99999099631ADDGF102991999999999999999999
0029029070999991905012606004+64333+023450FM-12+000599999V0202901N008219999999N0000001N9-00611+99999100631ADDGF102991999999999999999999
0029029070999991905012613004+64333+023450FM-12+000599999V0203201N009819999999N0000001N9-00721+99999101561ADDGF106991999999999999999999
0029029070999991905012620004+64333+023450FM-12+000599999V0203401N008219999999N0000001N9-00831+99999102381ADDGF106991999999999999999999
0029029070999991905012706004+64333+023450FM-12+000599999V0209991C000019999999N0000001N9-01331+99999102961ADDGF101991999999999999999999
0029029070999991905012713004+64333+023450FM-12+000599999V0202001N006219999999N0000001N9-01221+99999102641ADDGF107991999999999999999999
0029029070999991905012720004+64333+023450FM-12+000599999V0202001N011819999999N0000001N9-00781+99999101961ADDGF108991999999999999999999
0029029070999991905012806004+64333+023450FM-12+000599999V0202001N011819999999N0000001N9-00671+99999101071ADDGF108991999999999999999999
0035029070999991905012813004+64333+023450FM-12+000599999V0202001N015919999999N0000001N9-00221+99999099081ADDGF108991999999999999999999MW1721
0029029070999991905012820004+64333+023450FM-12+000599999V0202501N020119999999N0000001N9+00111+99999097961ADDGF106991999999999999999999
0029029070999991905012906004+64333+023450FM-12+000599999V0203401N013919999999N0000001N9-00281+99999098401ADDGF108991999999999999999999
0029029070999991905012913004+64333+023450FM-12+000599999V0203201N006219999999N0000001N9-00391+99999099631ADDGF102991999999999999999999
0029029070999991905012920004+64333+023450FM-12+000599999V0203201N006219999999N0000001N9-00501+99999100121ADDGF102991999999999999999999
0029029070999991905013006004+64333+023450FM-12+000599999V0209991C000019999999N0000001N9-01001+99999099101ADDGF108991999999999999999999
0029029070999991905013013004+64333+023450FM-12+000599999V0200501N002119999999N0000001N9-00891+99999099001ADDGF108991999999999999999999
0029029070999991905013020004+64333+023450FM-12+000599999V0209991C000019999999N0000001N9-01001+99999099271ADDGF108991999999999999999999
0029029070999991905013106004+64333+023450FM-12+000599999V0201801N002119999999N0000001N9-01111+99999098581ADDGF108991999999999999999999
0029029070999991905013113004+64333+023450FM-12+000599999V0201401N004119999999N0000001N9-00831+99999098461ADDGF108991999999999999999999
0035029070999991905013120004+64333+023450FM-12+000599999V0200901N006219999999N0000001N9-01171+99999098401ADDGF108991999999999999999999MW1721
0029029070999991905020106004+64333+023450FM-12+000599999V0203601N006219999999N0000001N9-01781+99999098721ADDGF106991999999999999999999
0029029070999991905020113004+64333+023450FM-12+000599999V0200201N002119999999N0000001N9-01891+99999098991ADDGF102991999999999999999999
0029029070999991905020120004+64333+023450FM-12+000599999V0209991C000019999999N0000001N9-02171+99999099041ADDGF100991999999999999999999
0029029070999991905020206004+64333+023450FM-12+000599999V0202001N002119999999N0000001N9-02171+99999098801ADDGF101991999999999999999999
0029029070999991905020213004+64333+023450FM-12+000599999V0209991C000019999999N0000001N9-01671+99999099021ADDGF108991999999999999999999
0029029070999991905020220004+64333+023450FM-12+000599999V0209991C000019999999N0000001N9-01721+99999099301ADDGF108991999999999999999999
0029029070999991905020306004+64333+023450FM-12+000599999V0202001N002119999999N0000001N9-01831+99999099641ADDGF108991999999999999999999
0029029070999991905020313004+64333+023450FM-12+000599999V0202001N004119999999N0000001N9-01611+99999099801ADDGF108991999999999999999999
0029029070999991905020320004+64333+023450FM-12+000599999V0202001N002119999999N0000001N9-01831+99999100071ADDGF108991999999999999999999
0029029070999991905020406004+64333+023450FM-12+000599999V0202701N002119999999N0000001N9-01441+99999100511ADDGF108991999999999999999999
0029029070999991905020413004+64333+023450FM-12+000599999V0202501N002119999999N0000001N9-01441+99999100591ADDGF106991999999999999999999
0029029070999991905020420004+64333+023450FM-12+000599999V0202301N004119999999N0000001N9-01441+99999100671ADDGF106991999999999999999999
0029029070999991905020506004+64333+023450FM-12+000599999V0203201N002119999999N0000001N9-02221+99999101161ADDGF101991999999999999999999
0029029070999991905020513004+64333+023450FM-12+000599999V0202301N002119999999N0000001N9-02061+99999101301ADDGF102991999999999999999999
0029029070999991905020520004+64333+023450FM-12+000599999V0201601N006219999999N0000001N9-00891+99999100541ADDGF108991999999999999999999
0029029070999991905020606004+64333+023450FM-12+000599999V0202301N011819999999N0000001N9-00171+99999098661ADDGF108991999999999999999999
0029029070999991905020613004+64333+023450FM-12+000599999V0202501N013919999999N0000001N9+00001+99999098401ADDGF105991999999999999999999
0029029070999991905020620004+64333+023450FM-12+000599999V0202301N004119999999N0000001N9+00061+99999098021ADDGF102991999999999999999999
0029029070999991905020706004+64333+023450FM-12+000599999V0203601N011819999999N0000001N9-00671+99999098871ADDGF108991999999999999999999
0029029070999991905020713004+64333+023450FM-12+000599999V0203401N006219999999N0000001N9-00561+99999099871ADDGF102991999999999999999999
0029029070999991905020720004+64333+023450FM-12+000599999V0209991C000019999999N0000001N9-00941+99999100351ADDGF100991999999999999999999
0029029070999991905020806004+64333+023450FM-12+000599999V0202001N002119999999N0000001N9-01501+99999100561ADDGF105991999999999999999999
0029029070999991905020813004+64333+023450FM-12+000599999V0202501N002119999999N0000001N9-01171+99999101001ADDGF102991999999999999999999
0029029070999991905020820004+64333+023450FM-12+000599999V0202501N002119999999N0000001N9-00941+99999101421ADDGF100991999999999999999999
0029029070999991905020906004+64333+023450FM-12+000599999V0202001N013919999999N0000001N9-00611+99999100441ADDGF108991999999999999999999
0029029070999991905020913004+64333+023450FM-12+000599999V0202501N011819999999N0000001N9+00061+99999099681ADDGF106991999999999999999999
0029029070999991905020920004+64333+023450FM-12+000599999V0202501N008219999999N0000001N9+00171+99999099881ADDGF100991999999999999999999
0029029070999991905021006004+64333+023450FM-12+000599999V0202001N009819999999N0000001N9+00001+99999098881ADDGF100991999999999999999999
0035029070999991905021013004+64333+023450FM-12+000599999V0202701N002119999999N0000001N9+00061+99999098261ADDGF108991999999999999999999MW1721
0029029070999991905021020004+64333+023450FM-12+000599999V0202301N009819999999N0000001N9-00501+99999097751ADDGF100991999999999999999999
0029029070999991905021106004+64333+023450FM-12+000599999V0203401N006219999999N0000001N9-00891+99999097711ADDGF106991999999999999999999
0029029070999991905021113004+64333+023450FM-12+000599999V0202901N006219999999N0000001N9-00501+99999098181ADDGF106991999999999999999999
0029029070999991905021120004+64333+023450FM-12+000599999V0202901N009819999999N0000001N9-00671+99999098401ADDGF104991999999999999999999
0029029070999991905021206004+64333+023450FM-12+000599999V0203601N006219999999N0000001N9-00831+99999098721ADDGF108991999999999999999999
0035029070999991905021213004+64333+023450FM-12+000599999V0200201N015919999999N0000001N9-00721+99999099441ADDGF108991999999999999999999MW1721
0029029070999991905021220004+64333+023450FM-12+000599999V0200201N013919999999N0000001N9-00891+99999100361ADDGF107991999999999999999999
0029029070999991905021306004+64333+023450FM-12+000599999V0203601N004119999999N0000001N9-01441+99999101441ADDGF102991999999999999999999
0029029070999991905021313004+64333+023450FM-12+000599999V0209991C000019999999N0000001N9-01501+99999101671ADDGF102991999999999999999999
0029029070999991905021320004+64333+023450FM-12+000599999V0202301N009819999999N0000001N9-01441+99999101121ADDGF108991999999999999999999
0029029070999991905021406004+64333+023450FM-12+000599999V0202501N011819999999N0000001N9-00391+99999099241ADDGF108991999999999999999999
0029029070999991905021413004+64333+023450FM-12+000599999V0203401N011819999999N0000001N9-00781+99999100201ADDGF102991999999999999999999
0029029070999991905021420004+64333+023450FM-12+000599999V0203401N008219999999N0000001N9-01001+99999100961ADDGF100991999999999999999999
0029029070999991905021506004+64333+023450FM-12+000599999V0202901N006219999999N0000001N9-01331+99999101431ADDGF100991999999999999999999
0029029070999991905021513004+64333+023450FM-12+000599999V0202701N004119999999N0000001N9-01001+99999101401ADDGF106991999999999999999999
0029029070999991905021520004+64333+023450FM-12+000599999V0202501N004119999999N0000001N9-01001+99999101041ADDGF106991999999999999999999
0029029070999991905021606004+64333+023450FM-12+000599999V0202301N008219999999N0000001N9+00001+99999099711ADDGF108991999999999999999999
0029029070999991905021613004+64333+023450FM-12+000599999V0202301N009819999999N0000001N9+00221+99999099481ADDGF108991999999999999999999
0029029070999991905021620004+64333+023450FM-12+000599999V0202701N008219999999N0000001N9+00111+99999099501ADDGF105991999999999999999999
0029029070999991905021706004+64333+023450FM-12+000599999V0202001N008219999999N0000001N9+00001+99999098741ADDGF108991999999999999999999
0029029070999991905021713004+64333+023450FM-12+000599999V0202301N009819999999N0000001N9+00061+99999098311ADDGF108991999999999999999999
0029029070999991905021720004+64333+023450FM-12+000599999V0202501N009819999999N0000001N9+00061+99999098281ADDGF106991999999999999999999
0029029070999991905021806004+64333+023450FM-12+000599999V0202501N006219999999N0000001N9-00221+99999098821ADDGF100991999999999999999999
0029029070999991905021813004+64333+023450FM-12+000599999V0202501N009819999999N0000001N9-00171+99999098991ADDGF101991999999999999999999
0029029070999991905021820004+64333+023450FM-12+000599999V0201801N006219999999N0000001N9-00441+99999098581ADDGF105991999999999999999999
0029029070999991905021906004+64333+023450FM-12+000599999V0202001N013919999999N0000001N9+00001+99999097021ADDGF108991999999999999999999
0029029070999991905021913004+64333+023450FM-12+000599999V0202301N009819999999N0000001N9+00171+99999097141ADDGF108991999999999999999999
0029029070999991905021920004+64333+023450FM-12+000599999V0202001N008219999999N0000001N9+00111+99999097421ADDGF108991999999999999999999
0029029070999991905022006004+64333+023450FM-12+000599999V0209991C000019999999N0000001N9+00001+99999098381ADDGF108991999999999999999999
0029029070999991905022013004+64333+023450FM-12+000599999V0203601N002119999999N0000001N9-00221+99999098831ADDGF103991999999999999999999
0029029070999991905022020004+64333+023450FM-12+000599999V0203601N002119999999N0000001N9-00331+99999100551ADDGF106991999999999999999999
0029029070999991905022106004+64333+023450FM-12+000599999V0203601N002119999999N0000001N9-00671+99999102061ADDGF102991999999999999999999
0029029070999991905022113004+64333+023450FM-12+000599999V0203201N002119999999N0000001N9-00391+99999102901ADDGF101991999999999999999999
0029029070999991905022120004+64333+023450FM-12+000599999V0202701N002119999999N0000001N9-00941+99999103301ADDGF102991999999999999999999
0029029070999991905022206004+64333+023450FM-12+000599999V0202501N009819999999N0000001N9-00501+99999103121ADDGF102991999999999999999999
0029029070999991905022213004+64333+023450FM-12+000599999V0202301N009819999999N0000001N9-00061+99999103111ADDGF103991999999999999999999
0029029070999991905022220004+64333+023450FM-12+000599999V0202501N009819999999N0000001N9-00171+99999102991ADDGF102991999999999999999999
0029029070999991905022306004+64333+023450FM-12+000599999V0202501N008219999999N0000001N9-00221+99999102941ADDGF106991999999999999999999
0029029070999991905022313004+64333+023450FM-12+000599999V0202301N006219999999N0000001N9-00061+99999103151ADDGF106991999999999999999999
0029029070999991905022320004+64333+023450FM-12+000599999V0202301N006219999999N0000001N9-00331+99999103221ADDGF102991999999999999999999
0029029070999991905022406004+64333+023450FM-12+000599999V0201801N004119999999N0000001N9-00501+99999103261ADDGF106991999999999999999999
0029029070999991905022413004+64333+023450FM-12+000599999V0209991C000019999999N0000001N9-00441+99999103191ADDGF102991999999999999999999
0029029070999991905022420004+64333+023450FM-12+000599999V0201801N006219999999N0000001N9-00561+99999103031ADDGF108991999999999999999999
0029029070999991905022506004+64333+023450FM-12+000599999V0201401N004119999999N0000001N9-00611+99999102521ADDGF108991999999999999999999
0029029070999991905022513004+64333+023450FM-12+000599999V0202001N008219999999N0000001N9-00331+99999101941ADDGF108991999999999999999999
0029029070999991905022520004+64333+023450FM-12+000599999V0201801N006219999999N0000001N9-00441+99999101581ADDGF108991999999999999999999
0029029070999991905022606004+64333+023450FM-12+000599999V0201801N006219999999N0000001N9-00331+99999101021ADDGF108991999999999999999999
0029029070999991905022613004+64333+023450FM-12+000599999V0202301N009819999999N0000001N9-00111+99999100981ADDGF108991999999999999999999
0029029070999991905022620004+64333+023450FM-12+000599999V0202301N009819999999N0000001N9-00061+99999101191ADDGF108991999999999999999999
0029029070999991905022706004+64333+023450FM-12+000599999V0202001N004119999999N0000001N9-00061+99999101421ADDGF108991999999999999999999
0029029070999991905022713004+64333+023450FM-12+000599999V0202001N004119999999N0000001N9+00061+99999101511ADDGF108991999999999999999999
0029029070999991905022720004+64333+023450FM-12+000599999V0202001N002119999999N0000001N9-00111+99999101541ADDGF108991999999999999999999
0029029070999991905022806004+64333+023450FM-12+000599999V0201801N006219999999N0000001N9-00171+99999101201ADDGF108991999999999999999999
0029029070999991905022813004+64333+023450FM-12+000599999V0201801N006219999999N0000001N9-00331+99999101101ADDGF108991999999999999999999
0029029070999991905022820004+64333+023450FM-12+000599999V0201801N006219999999N0000001N9-00501+99999101021ADDGF108991999999999999999999
0029029070999991905030106004+64333+023450FM-12+000599999V0201801N004119999999N0000001N9-00561+99999100791ADDGF108991999999999999999999
0035029070999991905030113004+64333+023450FM-12+000599999V0209991C000019999999N0000001N9-00221+99999100991ADDGF108991999999999999999999MW1721
0029029070999991905030120004+64333+023450FM-12+000599999V0209991C000019999999N0000001N9-00171+99999101021ADDGF108991999999999999999999
0029029070999991905030206004+64333+023450FM-12+000599999V0209991C000019999999N0000001N9-00111+99999101001ADDGF108991999999999999999999
0029029070999991905030213004+64333+023450FM-12+000599999V0202501N002119999999N0000001N9+00111+99999101141ADDGF108991999999999999999999
0029029070999991905030220004+64333+023450FM-12+000599999V0203201N002119999999N0000001N9-00501+99999101461ADDGF106991999999999999999999
0029029070999991905030306004+64333+023450FM-12+000599999V0202701N004119999999N0000001N9-01281+99999101601ADDGF102991999999999999999999
0029029070999991905030313004+64333+023450FM-12+000599999V0202501N004119999999N0000001N9-00441+99999101791ADDGF106991999999999999999999
0029029070999991905030320004+64333+023450FM-12+000599999V0202301N006219999999N0000001N9-00611+99999101761ADDGF102991999999999999999999
0029029070999991905030406004+64333+023450FM-12+000599999V0202001N009819999999N0000001N9-00331+99999101501ADDGF108991999999999999999999
0029029070999991905030413004+64333+023450FM-12+000599999V0202301N009819999999N0000001N9-00111+99999101441ADDGF108991999999999999999999
0029029070999991905030420004+64333+023450FM-12+000599999V0209991C000019999999N0000001N9-00111+99999101591ADDGF108991999999999999999999
0029029070999991905030506004+64333+023450FM-12+000599999V0203601N008219999999N0000001N9-00281+99999101801ADDGF108991999999999999999999
0029029070999991905030513004+64333+023450FM-12+000599999V0200501N006219999999N0000001N9-00171+99999101881ADDGF108991999999999999999999
0029029070999991905030520004+64333+023450FM-12+000599999V0200701N006219999999N0000001N9-00331+99999101991ADDGF108991999999999999999999
0029029070999991905030606004+64333+023450FM-12+000599999V0200701N002119999999N0000001N9-00891+99999101921ADDGF102991999999999999999999
0029029070999991905030613004+64333+023450FM-12+000599999V0200701N004119999999N0000001N9-00281+99999101841ADDGF108991999999999999999999
0029029070999991905030620004+64333+023450FM-12+000599999V0200901N002119999999N0000001N9-00391+99999101961ADDGF108991999999999999999999
0029029070999991905030706004+64333+023450FM-12+000599999V0201101N002119999999N0000001N9-00561+99999102021ADDGF108991999999999999999999
0029029070999991905030713004+64333+023450FM-12+000599999V0209991C000019999999N0000001N9-00331+99999101921ADDGF108991999999999999999999
0029029070999991905030720004+64333+023450FM-12+000599999V0202001N006219999999N0000001N9-00611+99999101831ADDGF108991999999999999999999
0029029070999991905030806004+64333+023450FM-12+000599999V0201801N004119999999N0000001N9-00721+99999101641ADDGF108991999999999999999999
0029029070999991905030813004+64333+023450FM-12+000599999V0201801N004119999999N0000001N9-00501+99999101561ADDGF108991999999999999999999
0029029070999991905030820004+64333+023450FM-12+000599999V0201801N006219999999N0000001N9-00781+99999101301ADDGF108991999999999999999999
0029029070999991905030906004+64333+023450FM-12+000599999V0201801N004119999999N0000001N9-00891+99999100861ADDGF108991999999999999999999
0029029070999991905030913004+64333+023450FM-12+000599999V0201401N006219999999N0000001N9-00671+99999100591ADDGF106991999999999999999999
0035029070999991905030920004+64333+023450FM-12+000599999V0201601N008219999999N0000001N9-00721+99999100161ADDGF108991999999999999999999MW1721
0029029070999991905031006004+64333+023450FM-12+000599999V0201401N008219999999N0000001N9-00721+99999099461ADDGF108991999999999999999999
0029029070999991905031013004+64333+023450FM-12+000599999V0201101N009819999999N0000001N9-00501+99999099021ADDGF108991999999999999999999
0035029070999991905031020004+64333+023450FM-12+000599999V0200901N009819999999N0000001N9-00611+99999098481ADDGF108991999999999999999999MW1721
0029029070999991905031106004+64333+023450FM-12+000599999V0203601N009819999999N0000001N9-00721+99999098581ADDGF108991999999999999999999
0029029070999991905031113004+64333+023450FM-12+000599999V0203201N008219999999N0000001N9-00721+99999099441ADDGF106991999999999999999999
0029029070999991905031120004+64333+023450FM-12+000599999V0202701N004119999999N0000001N9-01671+99999099821ADDGF100991999999999999999999
0029029070999991905031206004+64333+023450FM-12+000599999V0200901N006219999999N0000001N9-00721+99999099561ADDGF108991999999999999999999
0035029070999991905031213004+64333+023450FM-12+000599999V0200901N008219999999N0000001N9-00221+99999098321ADDGF108991999999999999999999MW1721
0029029070999991905031220004+64333+023450FM-12+000599999V0203201N004119999999N0000001N9-00781+99999099241ADDGF104991999999999999999999
0029029070999991905031306004+64333+023450FM-12+000599999V0203601N002119999999N0000001N9-01281+99999100591ADDGF102991999999999999999999
0029029070999991905031313004+64333+023450FM-12+000599999V0200501N002119999999N0000001N9-01001+99999101161ADDGF100991999999999999999999
0029029070999991905031320004+64333+023450FM-12+000599999V0200501N006219999999N0000001N9-01331+99999101541ADDGF100991999999999999999999
0029029070999991905031406004+64333+023450FM-12+000599999V0200701N008219999999N0000001N9-00781+99999101391ADDGF108991999999999999999999
0035029070999991905031413004+64333+023450FM-12+000599999V0200701N008219999999N0000001N9-00111+99999101281ADDGF108991999999999999999999MW1721
0029029070999991905031420004+64333+023450FM-12+000599999V0200901N006219999999N0000001N9+00061+99999101261ADDGF108991999999999999999999
0029029070999991905031506004+64333+023450FM-12+000599999V0209991C000019999999N0000001N9+00001+99999101661ADDGF108991999999999999999999
0029029070999991905031513004+64333+023450FM-12+000599999V0202001N001019999999N0000001N9+00171+99999101751ADDGF108991999999999999999999
0029029070999991905031520004+64333+023450FM-12+000599999V0202001N008219999999N0000001N9+00111+99999101661ADDGF108991999999999999999999
0029029070999991905031606004+64333+023450FM-12+000599999V0202001N008219999999N0000001N9+00061+99999101591ADDGF108991999999999999999999
0029029070999991905031613004+64333+023450FM-12+000599999V0202001N009819999999N0000001N9+00061+99999101701ADDGF108991999999999999999999
0029029070999991905031620004+64333+023450FM-12+000599999V0202001N009819999999N0000001N9+00001+99999101761ADDGF108991999999999999999999
0029029070999991905031706004+64333+023450FM-12+000599999V0201601N002119999999N0000001N9-00061+99999102071ADDGF108991999999999999999999
0029029070999991905031713004+64333+023450FM-12+000599999V0201601N004119999999N0000001N9+00061+99999102351ADDGF108991999999999999999999
0029029070999991905031720004+64333+023450FM-12+000599999V0200901N004119999999N0000001N9-00111+99999102421ADDGF108991999999999999999999
0029029070999991905031806004+64333+023450FM-12+000599999V0201401N001019999999N0000001N9-00331+99999102341ADDGF108991999999999999999999
0029029070999991905031813004+64333+023450FM-12+000599999V0202301N002119999999N0000001N9+00111+99999102381ADDGF107991999999999999999999
0029029070999991905031820004+64333+023450FM-12+000599999V0209991C000019999999N0000001N9-00721+99999102241ADDGF106991999999999999999999
0029029070999991905031906004+64333+023450FM-12+000599999V0209991C000019999999N0000001N9-00671+99999102161ADDGF108991999999999999999999
0029029070999991905031913004+64333+023450FM-12+000599999V0200901N002119999999N0000001N9-00061+99999102141ADDGF108991999999999999999999
0029029070999991905031920004+64333+023450FM-12+000599999V0209991C000019999999N0000001N9-00281+99999102111ADDGF108991999999999999999999
0029029070999991905032006004+64333+023450FM-12+000599999V0202001N002119999999N0000001N9-00441+99999102181ADDGF107991999999999999999999
0029029070999991905032013004+64333+023450FM-12+000599999V0209991C000019999999N0000001N9-00061+99999102271ADDGF106991999999999999999999
0029029070999991905032020004+64333+023450FM-12+000599999V0200901N002119999999N0000001N9-00781+99999102241ADDGF106991999999999999999999
0029029070999991905032106004+64333+023450FM-12+000599999V0201801N002119999999N0000001N9-00441+99999102231ADDGF108991999999999999999999
0029029070999991905032113004+64333+023450FM-12+000599999V0209991C000019999999N0000001N9+00001+99999102201ADDGF106991999999999999999999
0029029070999991905032120004+64333+023450FM-12+000599999V0209991C000019999999N0000001N9-00441+99999102201ADDGF108991999999999999999999
0029029070999991905032206004+64333+023450FM-12+000599999V0209991C000019999999N0000001N9-00721+99999102201ADDGF102991999999999999999999
0029029070999991905032213004+64333+023450FM-12+000599999V0200501N002119999999N0000001N9-00281+99999102341ADDGF102991999999999999999999
0029029070999991905032220004+64333+023450FM-12+000599999V0200501N002119999999N0000001N9-00941+99999102591ADDGF101991999999999999999999
0029029070999991905032306004+64333+023450FM-12+000599999V0209991C000019999999N0000001N9-01221+99999102981ADDGF100991999999999999999999
0029029070999991905032313004+64333+023450FM-12+000599999V0209991C000019999999N0000001N9-00281+99999103141ADDGF100991999999999999999999
0029029070999991905032320004+64333+023450FM-12+000599999V0200501N002119999999N0000001N9-00831+99999103281ADDGF100991999999999999999999
0029029070999991905032406004+64333+023450FM-12+000599999V0209991C000019999999N0000001N9-01281+99999103341ADDGF102991999999999999999999
0029029070999991905032413004+64333+023450FM-12+000599999V0203601N002119999999N0000001N9-00331+99999103281ADDGF102991999999999999999999
0029029070999991905032420004+64333+023450FM-12+000599999V0203601N002119999999N0000001N9-00611+99999103021ADDGF108991999999999999999999
0029029070999991905032506004+64333+023450FM-12+000599999V0200701N004119999999N0000001N9-00441+99999102591ADDGF108991999999999999999999
0029029070999991905032513004+64333+023450FM-12+000599999V0200701N002119999999N0000001N9-00171+99999102431ADDGF106991999999999999999999
0029029070999991905032520004+64333+023450FM-12+000599999V0200701N002119999999N0000001N9-00221+99999102321ADDGF108991999999999999999999
0029029070999991905032606004+64333+023450FM-12+000599999V0200901N002119999999N0000001N9-00441+99999102391ADDGF108991999999999999999999
0029029070999991905032613004+64333+023450FM-12+000599999V0201801N002119999999N0000001N9+00001+99999102431ADDGF106991999999999999999999
0029029070999991905032620004+64333+023450FM-12+000599999V0200901N002119999999N0000001N9-00331+99999102281ADDGF108991999999999999999999
0035029070999991905032706004+64333+023450FM-12+000599999V0200701N004119999999N0000001N9-00171+99999101741ADDGF108991999999999999999999MW1721
0035029070999991905032713004+64333+023450FM-12+000599999V0209991C000019999999N0000001N9+00171+99999101421ADDGF108991999999999999999999MW1721
0029029070999991905032720004+64333+023450FM-12+000599999V0202001N002119999999N0000001N9-00561+99999101401ADDGF108991999999999999999999
0029029070999991905032806004+64333+023450FM-12+000599999V0202001N004119999999N0000001N9-00671+99999101431ADDGF108991999999999999999999
0029029070999991905032813004+64333+023450FM-12+000599999V0202001N004119999999N0000001N9-00061+99999101441ADDGF107991999999999999999999
0029029070999991905032820004+64333+023450FM-12+000599999V0202001N006219999999N0000001N9-00781+99999101391ADDGF102991999999999999999999
0029029070999991905032906004+64333+023450FM-12+000599999V0202001N006219999999N0000001N9-01001+99999101381ADDGF106991999999999999999999
0029029070999991905032913004+64333+023450FM-12+000599999V0202001N009819999999N0000001N9-00061+99999101281ADDGF108991999999999999999999
0029029070999991905032920004+64333+023450FM-12+000599999V0202001N009819999999N0000001N9-00111+99999101001ADDGF108991999999999999999999
0035029070999991905033006004+64333+023450FM-12+000599999V0201601N009819999999N0000001N9-00111+99999100121ADDGF108991999999999999999999MW1721
0029029070999991905033013004+64333+023450FM-12+000599999V0202001N008219999999N0000001N9+00171+99999099921ADDGF108991999999999999999999
0029029070999991905033020004+64333+023450FM-12+000599999V0202001N006219999999N0000001N9+00111+99999099791ADDGF108991999999999999999999
0029029070999991905033106004+64333+023450FM-12+000599999V0202701N004119999999N0000001N9+00061+99999099661ADDGF108991999999999999999999
0029029070999991905033113004+64333+023450FM-12+000599999V0203201N002119999999N0000001N9+00001+99999099861ADDGF108991999999999999999999
0029029070999991905033120004+64333+023450FM-12+000599999V0209991C000019999999N0000001N9-00441+99999999999ADDGF102991999999999999999999
0029029070999991905040106004+64333+023450FM-12+000599999V0203601N002119999999N0000001N9-00831+99999100351ADDGF102991999999999999999999
0029029070999991905040113004+64333+023450FM-12+000599999V0203601N004119999999N0000001N9-00221+99999100921ADDGF101991999999999999999999
0029029070999991905040120004+64333+023450FM-12+000599999V0203601N006219999999N0000001N9-00781+99999101421ADDGF101991999999999999999999
0029029070999991905040206004+64333+023450FM-12+000599999V0200201N004119999999N0000001N9-01331+99999101861ADDGF102991999999999999999999
0029029070999991905040213004+64333+023450FM-12+000599999V0203601N002119999999N0000001N9-00721+99999101871ADDGF101991999999999999999999
0029029070999991905040220004+64333+023450FM-12+000599999V0200701N004119999999N0000001N9-01391+99999101551ADDGF102991999999999999999999
0029029070999991905040306004+64333+023450FM-12+000599999V0202001N006219999999N0000001N9-01171+99999100991ADDGF105991999999999999999999
0029029070999991905040313004+64333+023450FM-12+000599999V0202001N006219999999N0000001N9-00171+99999100641ADDGF108991999999999999999999
0029029070999991905040320004+64333+023450FM-12+000599999V0202301N006219999999N0000001N9-00441+99999100431ADDGF102991999999999999999999
0029029070999991905040406004+64333+023450FM-12+000599999V0202301N006219999999N0000001N9-00831+99999100081ADDGF106991999999999999999999
0029029070999991905040413004+64333+023450FM-12+000599999V0202301N004119999999N0000001N9-00061+99999099861ADDGF105991999999999999999999
0029029070999991905040420004+64333+023450FM-12+000599999V0202301N008219999999N0000001N9-00111+99999099121ADDGF108991999999999999999999
0035029070999991905040506004+64333+023450FM-12+000599999V0201801N008219999999N0000001N9-00061+99999098381ADDGF108991999999999999999999MW1381
0029029070999991905040513004+64333+023450FM-12+000599999V0203601N011819999999N0000001N9-00501+99999098061ADDGF108991999999999999999999
0035029070999991905040520004+64333+023450FM-12+000599999V0203601N015919999999N0000001N9-00831+99999097861ADDGF108991999999999999999999MW1381
0035029070999991905040606004+64333+023450FM-12+000599999V0203201N013919999999N0000001N9-01001+99999098121ADDGF108991999999999999999999MW1721
0029029070999991905040613004+64333+023450FM-12+000599999V0202501N006219999999N0000001N9-00611+99999099031ADDGF104991999999999999999999
0029029070999991905040620004+64333+023450FM-12+000599999V0202301N006219999999N0000001N9-01061+99999099471ADDGF101991999999999999999999
0029029070999991905040706004+64333+023450FM-12+000599999V0202001N004119999999N0000001N9-01331+99999099711ADDGF102991999999999999999999
0029029070999991905040713004+64333+023450FM-12+000599999V0209991C000019999999N0000001N9-00331+99999099721ADDGF105991999999999999999999
0029029070999991905040720004+64333+023450FM-12+000599999V0200901N002119999999N0000001N9-00941+99999099541ADDGF105991999999999999999999
0029029070999991905040806004+64333+023450FM-12+000599999V0203401N009819999999N0000001N9-00941+99999098901ADDGF108991999999999999999999
0035029070999991905040813004+64333+023450FM-12+000599999V0203201N013919999999N0000001N9-00611+99999098471ADDGF108991999999999999999999MW1381
0029029070999991905040820004+64333+023450FM-12+000599999V0202501N004119999999N0000001N9-00561+99999098421ADDGF108991999999999999999999
0029029070999991905040906004+64333+023450FM-12+000599999V0202001N011819999999N0000001N9-00941+99999099081ADDGF102991999999999999999999
0029029070999991905040913004+64333+023450FM-12+000599999V0201801N002119999999N0000001N9+00001+99999099831ADDGF103991999999999999999999
0029029070999991905040920004+64333+023450FM-12+000599999V0200901N006219999999N0000001N9-00941+99999100341ADDGF102991999999999999999999
0029029070999991905041006004+64333+023450FM-12+000599999V0200701N009819999999N0000001N9-00221+99999100441ADDGF103991999999999999999999
0029029070999991905041013004+64333+023450FM-12+000599999V0209991C000019999999N0000001N9+00001+99999101101ADDGF102991999999999999999999
0029029070999991905041020004+64333+023450FM-12+000599999V0200901N002119999999N0000001N9-00221+99999101271ADDGF108991999999999999999999
0029029070999991905041106004+64333+023450FM-12+000599999V0200901N002119999999N0000001N9-00281+99999101471ADDGF108991999999999999999999
0029029070999991905041113004+64333+023450FM-12+000599999V0203601N002119999999N0000001N9-00061+99999101761ADDGF108991999999999999999999
0029029070999991905041120004+64333+023450FM-12+000599999V0209991C000019999999N0000001N9-00941+99999101881ADDGF102991999999999999999999
0029029070999991905041206004+64333+023450FM-12+000599999V0209991C000019999999N0000001N9-00781+99999101921ADDGF102991999999999999999999
0029029070999991905041213004+64333+023450FM-12+000599999V0200201N002119999999N0000001N9-00061+99999101981ADDGF101991999999999999999999
0029029070999991905041220004+64333+023450FM-12+000599999V0200501N002119999999N0000001N9-00611+99999101981ADDGF102991999999999999999999
0029029070999991905041306004+64333+023450FM-12+000599999V0200701N002119999999N0000001N9-00441+99999102301ADDGF106991999999999999999999
0029029070999991905041313004+64333+023450FM-12+000599999V0200201N002119999999N0000001N9+00111+99999102481ADDGF103991999999999999999999
0029029070999991905041320004+64333+023450FM-12+000599999V0200501N002119999999N0000001N9-00611+99999102751ADDGF100991999999999999999999
0029029070999991905041406004+64333+023450FM-12+000599999V0209991C000019999999N0000001N9-00891+99999103041ADDGF100991999999999999999999
0029029070999991905041413004+64333+023450FM-12+000599999V0200201N002119999999N0000001N9-00061+99999102981ADDGF103991999999999999999999
0029029070999991905041420004+64333+023450FM-12+000599999V0200201N002119999999N0000001N9-00721+99999102951ADDGF102991999999999999999999
0029029070999991905041506004+64333+023450FM-12+000599999V0209991C000019999999N0000001N9-01111+99999103151ADDGF100991999999999999999999
0029029070999991905041513004+64333+023450FM-12+000599999V0200501N002119999999N0000001N9+00111+99999103121ADDGF102991999999999999999999
0029029070999991905041520004+64333+023450FM-12+000599999V0200501N002119999999N0000001N9-00561+99999103261ADDGF102991999999999999999999
0029029070999991905041606004+64333+023450FM-12+000599999V0200701N002119999999N0000001N9-00391+99999103261ADDGF102991999999999999999999
0029029070999991905041613004+64333+023450FM-12+000599999V0200201N002119999999N0000001N9+00111+99999103321ADDGF102991999999999999999999
0029029070999991905041620004+64333+023450FM-12+000599999V0200501N002119999999N0000001N9-00171+99999103561ADDGF101991999999999999999999
0029029070999991905041706004+64333+023450FM-12+000599999V0209991C000019999999N0000001N9-00561+99999103761ADDGF100991999999999999999999
0029029070999991905041713004+64333+023450FM-12+000599999V0203601N002119999999N0000001N9+00061+99999103761ADDGF100991999999999999999999
0029029070999991905041720004+64333+023450FM-12+000599999V0200201N004119999999N0000001N9-00391+99999103701ADDGF100991999999999999999999
0029029070999991905041806004+64333+023450FM-12+000599999V0200201N002119999999N0000001N9-00671+99999103581ADDGF100991999999999999999999
0029029070999991905041813004+64333+023450FM-12+000599999V0203601N004119999999N0000001N9+00111+99999103421ADDGF100991999999999999999999
0029029070999991905041820004+64333+023450FM-12+000599999V0200501N002119999999N0000001N9-00331+99999103121ADDGF101991999999999999999999
0029029070999991905041906004+64333+023450FM-12+000599999V0201101N002119999999N0000001N9-00611+99999102821ADDGF101991999999999999999999
0029029070999991905041913004+64333+023450FM-12+000599999V0203601N002119999999N0000001N9+00111+99999102591ADDGF101991999999999999999999
0029029070999991905041920004+64333+023450FM-12+000599999V0200201N004119999999N0000001N9-00441+99999102301ADDGF102991999999999999999999
0029029070999991905042006004+64333+023450FM-12+000599999V0200201N006219999999N0000001N9-00281+99999101921ADDGF106991999999999999999999
0029029070999991905042013004+64333+023450FM-12+000599999V0200201N004119999999N0000001N9+00221+99999101481ADDGF107991999999999999999999
0029029070999991905042020004+64333+023450FM-12+000599999V0200901N002119999999N0000001N9+00221+99999101041ADDGF108991999999999999999999
0029029070999991905042106004+64333+023450FM-12+000599999V0201801N002119999999N0000001N9+00171+99999100461ADDGF108991999999999999999999
0029029070999991905042113004+64333+023450FM-12+000599999V0201801N004119999999N0000001N9+00391+99999100351ADDGF108991999999999999999999
0029029070999991905042120004+64333+023450FM-12+000599999V0209991C000019999999N0000001N9+00111+99999100281ADDGF108991999999999999999999
0029029070999991905042206004+64333+023450FM-12+000599999V0201401N004119999999N0000001N9+00111+99999100201ADDGF107991999999999999999999
0029029070999991905042213004+64333+023450FM-12+000599999V0200501N004119999999N0000001N9+00281+99999100111ADDGF108991999999999999999999
0035029070999991905042220004+64333+023450FM-12+000599999V0200901N008219999999N0000001N9+00221+99999099591ADDGF108991999999999999999999MW1621
0035029070999991905042306004+64333+023450FM-12+000599999V0200901N006219999999N0000001N9+00171+99999099321ADDGF108991999999999999999999MW1621
0029029070999991905042313004+64333+023450FM-12+000599999V0201801N002119999999N0000001N9+00501+99999099871ADDGF107991999999999999999999
0029029070999991905042320004+64333+023450FM-12+000599999V0201101N002119999999N0000001N9+00001+99999100081ADDGF102991999999999999999999
0029029070999991905042406004+64333+023450FM-12+000599999V0201601N002119999999N0000001N9-00061+99999100631ADDGF100991999999999999999999
0029029070999991905042413004+64333+023450FM-12+000599999V0200501N002119999999N0000001N9+00221+99999100791ADDGF106991999999999999999999
0029029070999991905042420004+64333+023450FM-12+000599999V0200901N004119999999N0000001N9+00171+99999100591ADDGF108991999999999999999999
0035029070999991905042506004+64333+023450FM-12+000599999V0203401N004119999999N0000001N9+00061+99999099981ADDGF108991999999999999999999MW1721
0029029070999991905042513004+64333+023450FM-12+000599999V0202501N004119999999N0000001N9+00331+99999100181ADDGF106991999999999999999999
0029029070999991905042520004+64333+023450FM-12+000599999V0201801N002119999999N0000001N9-00221+99999100441ADDGF100991999999999999999999
0035029070999991905042606004+64333+023450FM-12+000599999V0201401N008219999999N0000001N9+00061+99999100401ADDGF108991999999999999999999MW1621
0029029070999991905042613004+64333+023450FM-12+000599999V0201801N002119999999N0000001N9+00391+99999100661ADDGF108991999999999999999999
0029029070999991905042620004+64333+023450FM-12+000599999V0202501N002119999999N0000001N9+00061+99999100951ADDGF108991999999999999999999
0029029070999991905042706004+64333+023450FM-12+000599999V0201801N006219999999N0000001N9+00221+99999101121ADDGF108991999999999999999999
0035029070999991905042713004+64333+023450FM-12+000599999V0202001N002119999999N0000001N9+00281+99999101281ADDGF108991999999999999999999MW1621
0029029070999991905042720004+64333+023450FM-12+000599999V0201801N002119999999N0000001N9+00171+99999101301ADDGF108991999999999999999999
0029029070999991905042806004+64333+023450FM-12+000599999V0201801N002119999999N0000001N9+00221+99999101421ADDGF105991999999999999999999
0029029070999991905042813004+64333+023450FM-12+000599999V0201801N002119999999N0000001N9+00501+99999101421ADDGF104991999999999999999999
0029029070999991905042820004+64333+023450FM-12+000599999V0209991C000019999999N0000001N9+00001+99999101351ADDGF108991999999999999999999
0029029070999991905042906004+64333+023450FM-12+000599999V0201101N004119999999N0000001N9+00281+99999101361ADDGF108991999999999999999999
0029029070999991905042913004+64333+023450FM-12+000599999V0201401N004119999999N0000001N9+00501+99999101201ADDGF108991999999999999999999
0035029070999991905042920004+64333+023450FM-12+000599999V0200901N004119999999N0000001N9+00221+99999101081ADDGF108991999999999999999999MW1621
0035029070999991905043006004+64333+023450FM-12+000599999V0201101N004119999999N0000001N9+00221+99999100751ADDGF108991999999999999999999MW1621
0029029070999991905043013004+64333+023450FM-12+000599999V0202001N006219999999N0000001N9+00441+99999100951ADDGF108991999999999999999999
0029029070999991905043020004+64333+023450FM-12+000599999V0201801N004119999999N0000001N9+00281+99999101121ADDGF108991999999999999999999
0029029070999991905050106004+64333+023450FM-12+000599999V0201101N006219999999N0000001N9+00281+99999100751ADDGF108991999999999999999999
0029029070999991905050113004+64333+023450FM-12+000599999V0201801N002119999999N0000001N9+00671+99999100591ADDGF107991999999999999999999
0029029070999991905050120004+64333+023450FM-12+000599999V0202301N006219999999N0000001N9+00111+99999100761ADDGF108991999999999999999999
0035029070999991905050206004+64333+023450FM-12+000599999V0201601N004119999999N0000001N9+00281+99999100511ADDGF108991999999999999999999MW1621
0029029070999991905050213004+64333+023450FM-12+000599999V0202301N009819999999N0000001N9+00391+99999100841ADDGF105991999999999999999999
0029029070999991905050220004+64333+023450FM-12+000599999V0202301N006219999999N0000001N9+00221+99999100991ADDGF102991999999999999999999
0029029070999991905050306004+64333+023450FM-12+000599999V0200901N006219999999N0000001N9+00221+99999100661ADDGF108991999999999999999999
0029029070999991905050313004+64333+023450FM-12+000599999V0202301N004119999999N0000001N9+00441+99999100621ADDGF108991999999999999999999
0029029070999991905050320004+64333+023450FM-12+000599999V0201801N002119999999N0000001N9+00171+99999100621ADDGF107991999999999999999999
0029029070999991905050406004+64333+023450FM-12+000599999V0202301N006219999999N0000001N9+00221+99999100911ADDGF100991999999999999999999
0029029070999991905050413004+64333+023450FM-12+000599999V0202301N008219999999N0000001N9+00331+99999101231ADDGF103991999999999999999999
0029029070999991905050420004+64333+023450FM-12+000599999V0202301N008219999999N0000001N9+00221+99999101421ADDGF108991999999999999999999
0029029070999991905050506004+64333+023450FM-12+000599999V0203601N008219999999N0000001N9+00171+99999102301ADDGF108991999999999999999999
0029029070999991905050513004+64333+023450FM-12+000599999V0203401N002119999999N0000001N9+00281+99999103001ADDGF106991999999999999999999
0029029070999991905050520004+64333+023450FM-12+000599999V0202701N002119999999N0000001N9-00111+99999103041ADDGF102991999999999999999999
0029029070999991905050606004+64333+023450FM-12+000599999V0202001N006219999999N0000001N9+00061+99999102991ADDGF106991999999999999999999
0029029070999991905050613004+64333+023450FM-12+000599999V0202301N004119999999N0000001N9+00331+99999102831ADDGF102991999999999999999999
0029029070999991905050620004+64333+023450FM-12+000599999V0202301N006219999999N0000001N9+00061+99999102481ADDGF103991999999999999999999
0029029070999991905050706004+64333+023450FM-12+000599999V0202001N006219999999N0000001N9+00331+99999101821ADDGF105991999999999999999999
0029029070999991905050713004+64333+023450FM-12+000599999V0202301N009819999999N0000001N9+00441+99999101661ADDGF102991999999999999999999
0029029070999991905050720004+64333+023450FM-12+000599999V0202301N006219999999N0000001N9+00331+99999101351ADDGF108991999999999999999999
0029029070999991905050806004+64333+023450FM-12+000599999V0202001N002119999999N0000001N9+00281+99999100661ADDGF107991999999999999999999
0029029070999991905050813004+64333+023450FM-12+000599999V0202701N002119999999N0000001N9+00611+99999100461ADDGF108991999999999999999999
0035029070999991905050820004+64333+023450FM-12+000599999V0202001N002119999999N0000001N9+00171+99999100421ADDGF108991999999999999999999MW1621
0029029070999991905050906004+64333+023450FM-12+000599999V0202901N006219999999N0000001N9+00171+99999100981ADDGF105991999999999999999999
0029029070999991905050913004+64333+023450FM-12+000599999V0209991C000019999999N0000001N9+00441+99999101391ADDGF102991999999999999999999
0029029070999991905050920004+64333+023450FM-12+000599999V0202301N002119999999N0000001N9-00061+99999101551ADDGF101991999999999999999999
0029029070999991905051006004+64333+023450FM-12+000599999V0209991C000019999999N0000001N9+00001+99999101881ADDGF100991999999999999999999
0029029070999991905051013004+64333+023450FM-12+000599999V0209991C000019999999N0000001N9+00441+99999101921ADDGF101991999999999999999999
0029029070999991905051020004+64333+023450FM-12+000599999V0201801N002119999999N0000001N9+00001+99999101741ADDGF101991999999999999999999
0029029070999991905051106004+64333+023450FM-12+000599999V0201601N002119999999N0000001N9+00281+99999101591ADDGF101991999999999999999999
0029029070999991905051113004+64333+023450FM-12+000599999V0200501N002119999999N0000001N9+00391+99999101431ADDGF102991999999999999999999
0029029070999991905051120004+64333+023450FM-12+000599999V0200901N002119999999N0000001N9+00441+99999101271ADDGF108991999999999999999999
0029029070999991905051206004+64333+023450FM-12+000599999V0202001N004119999999N0000001N9+00331+99999101201ADDGF108991999999999999999999
0029029070999991905051213004+64333+023450FM-12+000599999V0203601N002119999999N0000001N9+00561+99999101191ADDGF102991999999999999999999
0029029070999991905051220004+64333+023450FM-12+000599999V0200501N002119999999N0000001N9+00171+99999101101ADDGF108991999999999999999999
0029029070999991905051306004+64333+023450FM-12+000599999V0203601N004119999999N0000001N9+00281+99999101241ADDGF108991999999999999999999
0029029070999991905051313004+64333+023450FM-12+000599999V0203401N002119999999N0000001N9+00441+99999101601ADDGF102991999999999999999999
0029029070999991905051320004+64333+023450FM-12+000599999V0202701N002119999999N0000001N9+00171+99999101791ADDGF102991999999999999999999
0029029070999991905051406004+64333+023450FM-12+000599999V0202901N004119999999N0000001N9+00281+99999102041ADDGF108991999999999999999999
0029029070999991905051413004+64333+023450FM-12+000599999V0203201N002119999999N0000001N9+00501+99999102121ADDGF107991999999999999999999
0029029070999991905051420004+64333+023450FM-12+000599999V0209991C000019999999N0000001N9+00221+99999102071ADDGF102991999999999999999999
0029029070999991905051506004+64333+023450FM-12+000599999V0202701N002119999999N0000001N9+00221+99999101821ADDGF101991999999999999999999
0029029070999991905051513004+64333+023450FM-12+000599999V0202501N004119999999N0000001N9+00441+99999101821ADDGF102991999999999999999999
0029029070999991905051520004+64333+023450FM-12+000599999V0202901N006219999999N0000001N9+00391+99999101841ADDGF102991999999999999999999
0029029070999991905051606004+64333+023450FM-12+000599999V0202901N006219999999N0000001N9+00281+99999102181ADDGF100991999999999999999999
0029029070999991905051613004+64333+023450FM-12+000599999V0202701N004119999999N0000001N9+00501+99999102351ADDGF102991999999999999999999
0029029070999991905051620004+64333+023450FM-12+000599999V0202701N006219999999N0000001N9+00221+99999102321ADDGF105991999999999999999999
0029029070999991905051706004+64333+023450FM-12+000599999V0202701N006219999999N0000001N9+00331+99999102111ADDGF108991999999999999999999
0029029070999991905051713004+64333+023450FM-12+000599999V0202501N004119999999N0000001N9+00501+99999102061ADDGF103991999999999999999999
0029029070999991905051720004+64333+023450FM-12+000599999V0202701N006219999999N0000001N9+00331+99999101821ADDGF108991999999999999999999
0029029070999991905051806004+64333+023450FM-12+000599999V0202701N006219999999N0000001N9+00331+99999101621ADDGF106991999999999999999999
0029029070999991905051813004+64333+023450FM-12+000599999V0202701N006219999999N0000001N9+00441+99999101671ADDGF102991999999999999999999
0029029070999991905051820004+64333+023450FM-12+000599999V0202901N006219999999N0000001N9+00331+99999101761ADDGF105991999999999999999999
0029029070999991905051906004+64333+023450FM-12+000599999V0202701N004119999999N0000001N9+00221+99999101781ADDGF103991999999999999999999
0029029070999991905051913004+64333+023450FM-12+000599999V0202501N006219999999N0000001N9+00391+99999101381ADDGF108991999999999999999999
0035029070999991905051920004+64333+023450FM-12+000599999V0202501N006219999999N0000001N9+00221+99999100791ADDGF108991999999999999999999MW1621
0029029070999991905052006004+64333+023450FM-12+000599999V0203401N006219999999N0000001N9+00061+99999100951ADDGF101991999999999999999999
0029029070999991905052013004+64333+023450FM-12+000599999V0202701N004119999999N0000001N9+00391+99999100951ADDGF102991999999999999999999
0029029070999991905052020004+64333+023450FM-12+000599999V0209991C000019999999N0000001N9-00111+99999100761ADDGF102991999999999999999999
0029029070999991905052106004+64333+023450FM-12+000599999V0202901N002119999999N0000001N9+00001+99999100681ADDGF101991999999999999999999
0029029070999991905052113004+64333+023450FM-12+000599999V0202501N004119999999N0000001N9+00281+99999100631ADDGF102991999999999999999999
0029029070999991905052120004+64333+023450FM-12+000599999V0202501N006219999999N0000001N9-00061+99999100521ADDGF103991999999999999999999
0029029070999991905052206004+64333+023450FM-12+000599999V0203201N002119999999N0000001N9+00281+99999100641ADDGF107991999999999999999999
0029029070999991905052213004+64333+023450FM-12+000599999V0203201N002119999999N0000001N9+00441+99999100761ADDGF102991999999999999999999
0029029070999991905052220004+64333+023450FM-12+000599999V0209991C000019999999N0000001N9+00061+99999100741ADDGF105991999999999999999999
0029029070999991905052306004+64333+023450FM-12+000599999V0201801N002119999999N0000001N9+00281+99999100721ADDGF104991999999999999999999
0029029070999991905052313004+64333+023450FM-12+000599999V0200501N004119999999N0000001N9+00391+99999100681ADDGF106991999999999999999999
0029029070999991905052320004+64333+023450FM-12+000599999V0200501N004119999999N0000001N9+00171+99999100601ADDGF107991999999999999999999
0029029070999991905052406004+64333+023450FM-12+000599999V0209991C000019999999N0000001N9+00281+99999100681ADDGF108991999999999999999999
0029029070999991905052413004+64333+023450FM-12+000599999V0200201N004119999999N0000001N9+00391+99999100901ADDGF105991999999999999999999
0029029070999991905052420004+64333+023450FM-12+000599999V0200201N004119999999N0000001N9+00331+99999100921ADDGF108991999999999999999999
0029029070999991905052506004+64333+023450FM-12+000599999V0200701N002119999999N0000001N9+00391+99999100921ADDGF108991999999999999999999
0029029070999991905052513004+64333+023450FM-12+000599999V0202001N002119999999N0000001N9+00561+99999101071ADDGF108991999999999999999999
0029029070999991905052520004+64333+023450FM-12+000599999V0201801N004119999999N0000001N9+00281+99999101061ADDGF106991999999999999999999
0029029070999991905052606004+64333+023450FM-12+000599999V0202001N004119999999N0000001N9+00281+99999101141ADDGF108991999999999999999999
0029029070999991905052613004+64333+023450FM-12+000599999V0202301N008219999999N0000001N9+00391+99999101441ADDGF101991999999999999999999
0029029070999991905052620004+64333+023450FM-12+000599999V0202301N006219999999N0000001N9+00221+99999101521ADDGF103991999999999999999999
0029029070999991905052706004+64333+023450FM-12+000599999V0202501N004119999999N0000001N9+00221+99999101831ADDGF100991999999999999999999
0029029070999991905052713004+64333+023450FM-12+000599999V0202501N002119999999N0000001N9+00561+99999102041ADDGF102991999999999999999999
0029029070999991905052720004+64333+023450FM-12+000599999V0201101N002119999999N0000001N9+00221+99999102021ADDGF106991999999999999999999
0035029070999991905052806004+64333+023450FM-12+000599999V0200501N006219999999N0000001N9+00281+99999101951ADDGF108991999999999999999999MW1621
0029029070999991905052813004+64333+023450FM-12+000599999V0200201N006219999999N0000001N9+00391+99999102001ADDGF102991999999999999999999
0029029070999991905052820004+64333+023450FM-12+000599999V0200201N004119999999N0000001N9+00221+99999102041ADDGF108991999999999999999999
0029029070999991905052906004+64333+023450FM-12+000599999V0201801N004119999999N0000001N9+00391+99999102071ADDGF106991999999999999999999
0029029070999991905052913004+64333+023450FM-12+000599999V0202301N006219999999N0000001N9+00501+99999101951ADDGF107991999999999999999999
0035029070999991905052920004+64333+023450FM-12+000599999V0202001N004119999999N0000001N9+00391+99999101671ADDGF108991999999999999999999MW1621
0029029070999991905053006004+64333+023450FM-12+000599999V0209991C000019999999N0000001N9+00671+99999101101ADDGF108991999999999999999999
0029029070999991905053013004+64333+023450FM-12+000599999V0202501N004119999999N0000001N9+00441+99999100991ADDGF102991999999999999999999
0029029070999991905053020004+64333+023450FM-12+000599999V0202501N006219999999N0000001N9+00441+99999100821ADDGF107991999999999999999999
0029029070999991905053113004+64333+023450FM-12+000599999V0202501N004119999999N0000001N9+00501+99999101151ADDGF102991999999999999999999
0029029070999991905053120004+64333+023450FM-12+000599999V0202501N004119999999N0000001N9+00441+99999101191ADDGF102991999999999999999999
0029029070999991905060113004+64333+023450FM-12+000599999V0202501N006219999999N0000001N9+00501+99999101511ADDGF101991999999999999999999
0029029070999991905060120004+64333+023450FM-12+000599999V0202301N002119999999N0000001N9+00561+99999101321ADDGF102991999999999999999999
0029029070999991905060206004+64333+023450FM-12+000599999V0200901N004119999999N0000001N9+00441+99999100921ADDGF107991999999999999999999
0029029070999991905060213004+64333+023450FM-12+000599999V0200501N006219999999N0000001N9+00501+99999100511ADDGF108991999999999999999999
0029029070999991905060220004+64333+023450FM-12+000599999V0200201N004119999999N0000001N9+00331+99999100271ADDGF108991999999999999999999
0035029070999991905060306004+64333+023450FM-12+000599999V0202501N004119999999N0000001N9+00331+99999100081ADDGF108991999999999999999999MW1621
0029029070999991905060313004+64333+023450FM-12+000599999V0202301N006219999999N0000001N9+00441+99999099861ADDGF108991999999999999999999
0029029070999991905060320004+64333+023450FM-12+000599999V0202501N006219999999N0000001N9+00441+99999100151ADDGF102991999999999999999999
0029029070999991905060406004+64333+023450FM-12+000599999V0202701N006219999999N0000001N9+00391+99999100561ADDGF101991999999999999999999
0029029070999991905060413004+64333+023450FM-12+000599999V0202501N006219999999N0000001N9+00501+99999100751ADDGF102991999999999999999999
0029029070999991905060420004+64333+023450FM-12+000599999V0202501N004119999999N0000001N9+00501+99999100861ADDGF105991999999999999999999
0029029070999991905060506004+64333+023450FM-12+000599999V0202701N002119999999N0000001N9+00391+99999101081ADDGF101991999999999999999999
0029029070999991905060513004+64333+023450FM-12+000599999V0209991C000019999999N0000001N9+00891+99999101031ADDGF100991999999999999999999
0029029070999991905060520004+64333+023450FM-12+000599999V0203601N002119999999N0000001N9+00331+99999100801ADDGF102991999999999999999999
0029029070999991905060606004+64333+023450FM-12+000599999V0203601N002119999999N0000001N9+00441+99999100791ADDGF102991999999999999999999
0029029070999991905060613004+64333+023450FM-12+000599999V0203601N011819999999N0000001N9+00501+99999100881ADDGF107991999999999999999999
0029029070999991905060620004+64333+023450FM-12+000599999V0203601N002119999999N0000001N9+00331+99999101081ADDGF102991999999999999999999
0029029070999991905060706004+64333+023450FM-12+000599999V0203601N006219999999N0000001N9+00281+99999101421ADDGF100991999999999999999999
0029029070999991905060713004+64333+023450FM-12+000599999V0203201N004119999999N0000001N9+00441+99999102341ADDGF100991999999999999999999
0029029070999991905060720004+64333+023450FM-12+000599999V0203601N004119999999N0000001N9+00331+99999101871ADDGF100991999999999999999999
0029029070999991905060806004+64333+023450FM-12+000599999V0203601N002119999999N0000001N9+00331+99999102161ADDGF100991999999999999999999
0029029070999991905060813004+64333+023450FM-12+000599999V0203601N004119999999N0000001N9+00501+99999102271ADDGF105991999999999999999999
0029029070999991905060820004+64333+023450FM-12+000599999V0203601N004119999999N0000001N9+00331+99999102281ADDGF102991999999999999999999
0029029070999991905060906004+64333+023450FM-12+000599999V0209991C000019999999N0000001N9+00501+99999102361ADDGF108991999999999999999999
0029029070999991905060913004+64333+023450FM-12+000599999V0203401N002119999999N0000001N9+00611+99999102301ADDGF102991999999999999999999
0029029070999991905060920004+64333+023450FM-12+000599999V0203201N002119999999N0000001N9+00501+99999102161ADDGF101991999999999999999999
0029029070999991905061006004+64333+023450FM-12+000599999V0202501N004119999999N0000001N9+00441+99999102041ADDGF104991999999999999999999
0029029070999991905061013004+64333+023450FM-12+000599999V0202501N004119999999N0000001N9+00671+99999101751ADDGF104991999999999999999999
0029029070999991905061020004+64333+023450FM-12+000599999V0202001N006219999999N0000001N9+00391+99999101471ADDGF106991999999999999999999
0029029070999991905061106004+64333+023450FM-12+000599999V0209991C000019999999N0000001N9+00391+99999101161ADDGF102991999999999999999999
0029029070999991905061113004+64333+023450FM-12+000599999V0203601N002119999999N0000001N9+00501+99999101151ADDGF108991999999999999999999
0029029070999991905061120004+64333+023450FM-12+000599999V0200501N004119999999N0000001N9+00391+99999101201ADDGF102991999999999999999999
0029029070999991905061206004+64333+023450FM-12+000599999V0202701N002119999999N0000001N9+00671+99999101591ADDGF106991999999999999999999
0029029070999991905061213004+64333+023450FM-12+000599999V0203401N004119999999N0000001N9+00671+99999101871ADDGF101991999999999999999999
0029029070999991905061220004+64333+023450FM-12+000599999V0202901N002119999999N0000001N9+00781+99999102071ADDGF100991999999999999999999
0029029070999991905061306004+64333+023450FM-12+000599999V0209991C000019999999N0000001N9+00831+99999102431ADDGF100991999999999999999999
0029029070999991905061313004+64333+023450FM-12+000599999V0200501N002119999999N0000001N9+01171+99999102511ADDGF101991999999999999999999
0029029070999991905061320004+64333+023450FM-12+000599999V0209991C000019999999N0000001N9+01171+99999102541ADDGF100991999999999999999999
0029029070999991905061406004+64333+023450FM-12+000599999V0209991C000019999999N0000001N9+00891+99999102781ADDGF100991999999999999999999
0029029070999991905061413004+64333+023450FM-12+000599999V0203601N002119999999N0000001N9+01061+99999102661ADDGF102991999999999999999999
0029029070999991905061420004+64333+023450FM-12+000599999V0200201N002119999999N0000001N9+00831+99999102591ADDGF103991999999999999999999
0029029070999991905061506004+64333+023450FM-12+000599999V0200501N002119999999N0000001N9+00941+99999102481ADDGF100991999999999999999999
0029029070999991905061513004+64333+023450FM-12+000599999V0200201N008219999999N0000001N9+01001+99999102081ADDGF105991999999999999999999
0029029070999991905061520004+64333+023450FM-12+000599999V0209991C000019999999N0000001N9+01171+99999102021ADDGF108991999999999999999999
0029029070999991905061606004+64333+023450FM-12+000599999V0202001N004119999999N0000001N9+00891+99999101911ADDGF108991999999999999999999
0029029070999991905061613004+64333+023450FM-12+000599999V0202301N008219999999N0000001N9+01171+99999102031ADDGF108991999999999999999999
0029029070999991905061620004+64333+023450FM-12+000599999V0201801N004119999999N0000001N9+01061+99999102061ADDGF100991999999999999999999
0029029070999991905061706004+64333+023450FM-12+000599999V0202001N004119999999N0000001N9+01001+99999102061ADDGF102991999999999999999999
0029029070999991905061713004+64333+023450FM-12+000599999V0202901N004119999999N0000001N9+01281+99999101871ADDGF104991999999999999999999
0029029070999991905061720004+64333+023450FM-12+000599999V0209991C000019999999N0000001N9+01281+99999101541ADDGF106991999999999999999999
0029029070999991905061806004+64333+023450FM-12+000599999V0203201N006219999999N0000001N9+00831+99999101421ADDGF104991999999999999999999
0029029070999991905061813004+64333+023450FM-12+000599999V0202701N002119999999N0000001N9+01221+99999101641ADDGF101991999999999999999999
0029029070999991905061820004+64333+023450FM-12+000599999V0203201N004119999999N0000001N9+01111+99999101551ADDGF102991999999999999999999
0029029070999991905061906004+64333+023450FM-12+000599999V0203601N006219999999N0000001N9+00891+99999101621ADDGF108991999999999999999999
0029029070999991905061913004+64333+023450FM-12+000599999V0200201N009819999999N0000001N9+00721+99999101631ADDGF108991999999999999999999
0029029070999991905061920004+64333+023450FM-12+000599999V0200201N008219999999N0000001N9+00561+99999101341ADDGF108991999999999999999999
0029029070999991905062006004+64333+023450FM-12+000599999V0200701N006219999999N0000001N9+00561+99999100941ADDGF108991999999999999999999
0029029070999991905062013004+64333+023450FM-12+000599999V0203601N006219999999N0000001N9+00501+99999100941ADDGF108991999999999999999999
0029029070999991905062020004+64333+023450FM-12+000599999V0202501N002119999999N0000001N9+00501+99999101231ADDGF108991999999999999999999
0029029070999991905062106004+64333+023450FM-12+000599999V0202301N008219999999N0000001N9+00781+99999101081ADDGF103991999999999999999999
0029029070999991905062113004+64333+023450FM-12+000599999V0202301N008219999999N0000001N9+01061+99999101021ADDGF103991999999999999999999
0029029070999991905062120004+64333+023450FM-12+000599999V0202001N009819999999N0000001N9+01001+99999100841ADDGF105991999999999999999999
0029029070999991905062206004+64333+023450FM-12+000599999V0202001N002119999999N0000001N9+01001+99999100701ADDGF108991999999999999999999
0029029070999991905062213004+64333+023450FM-12+000599999V0202301N002119999999N0000001N9+01061+99999100991ADDGF108991999999999999999999
0029029070999991905062220004+64333+023450FM-12+000599999V0203601N003119999999N0000001N9+00671+99999101471ADDGF108991999999999999999999
0029029070999991905062306004+64333+023450FM-12+000599999V0203601N011819999999N0000001N9+00671+99999102201ADDGF102991999999999999999999
0029029070999991905062313004+64333+023450FM-12+000599999V0203601N004119999999N0000001N9+00781+99999102701ADDGF102991999999999999999999
0029029070999991905062320004+64333+023450FM-12+000599999V0202901N004119999999N0000001N9+00721+99999102641ADDGF107991999999999999999999
0029029070999991905062406004+64333+023450FM-12+000599999V0202501N006219999999N0000001N9+00891+99999102191ADDGF104991999999999999999999
0029029070999991905062413004+64333+023450FM-12+000599999V0202501N006219999999N0000001N9+01111+99999102201ADDGF102991999999999999999999
0029029070999991905062420004+64333+023450FM-12+000599999V0202901N004119999999N0000001N9+01001+99999102121ADDGF105991999999999999999999
0029029070999991905062506004+64333+023450FM-12+000599999V0202701N008219999999N0000001N9+01061+99999102101ADDGF106991999999999999999999
0029029070999991905062513004+64333+023450FM-12+000599999V0202701N006219999999N0000001N9+01171+99999102161ADDGF102991999999999999999999
0029029070999991905062520004+64333+023450FM-12+000599999V0202501N008219999999N0000001N9+01001+99999102001ADDGF108991999999999999999999
0029029070999991905062606004+64333+023450FM-12+000599999V0202901N006219999999N0000001N9+00941+99999101881ADDGF105991999999999999999999
0029029070999991905062613004+64333+023450FM-12+000599999V0202701N004119999999N0000001N9+01281+99999102001ADDGF106991999999999999999999
0029029070999991905062620004+64333+023450FM-12+000599999V0202301N002119999999N0000001N9+01061+99999101951ADDGF103991999999999999999999
0029029070999991905062706004+64333+023450FM-12+000599999V0201801N002119999999N0000001N9+01281+99999101761ADDGF106991999999999999999999
0029029070999991905062713004+64333+023450FM-12+000599999V0209991C000019999999N0000001N9+01721+99999101181ADDGF106991999999999999999999
0029029070999991905062720004+64333+023450FM-12+000599999V0201601N004119999999N0000001N9+01001+99999101021ADDGF105991999999999999999999
0029029070999991905062806004+64333+023450FM-12+000599999V0200501N008219999999N0000001N9+00941+99999100961ADDGF108991999999999999999999
0029029070999991905062813004+64333+023450FM-12+000599999V0200501N009819999999N0000001N9+01061+99999100921ADDGF108991999999999999999999
0029029070999991905062820004+64333+023450FM-12+000599999V0200501N008219999999N0000001N9+00941+99999100831ADDGF107991999999999999999999
0029029070999991905062906004+64333+023450FM-12+000599999V0200901N004119999999N0000001N9+01221+99999100861ADDGF107991999999999999999999
0029029070999991905062913004+64333+023450FM-12+000599999V0201101N008219999999N0000001N9+01221+99999101021ADDGF108991999999999999999999
0029029070999991905062920004+64333+023450FM-12+000599999V0200701N006219999999N0000001N9+01001+99999101231ADDGF108991999999999999999999
0029029070999991905063006004+64333+023450FM-12+000599999V0200901N008219999999N0000001N9+01061+99999101511ADDGF108991999999999999999999
0029029070999991905063013004+64333+023450FM-12+000599999V0200901N004119999999N0000001N9+01221+99999101641ADDGF108991999999999999999999
0029029070999991905063020004+64333+023450FM-12+000599999V0200701N002119999999N0000001N9+01061+99999101781ADDGF107991999999999999999999
0029029070999991905070106004+64333+023450FM-12+000599999V0209991C000019999999N0000001N9+01331+99999101861ADDGF108991999999999999999999
0029029070999991905070113004+64333+023450FM-12+000599999V0209991C000019999999N0000001N9+01561+99999101881ADDGF106991999999999999999999
0029029070999991905070120004+64333+023450FM-12+000599999V0202501N004119999999N0000001N9+01391+99999101841ADDGF105991999999999999999999
0029029070999991905070206004+64333+023450FM-12+000599999V0201801N006219999999N0000001N9+01281+99999101781ADDGF108991999999999999999999
0029029070999991905070213004+64333+023450FM-12+000599999V0202501N004119999999N0000001N9+01441+99999101741ADDGF103991999999999999999999
0029029070999991905070220004+64333+023450FM-12+000599999V0209991C000019999999N0000001N9+01281+99999101661ADDGF102991999999999999999999
0029029070999991905070306004+64333+023450FM-12+000599999V0200901N002119999999N0000001N9+01391+99999101391ADDGF101991999999999999999999
0029029070999991905070313004+64333+023450FM-12+000599999V0200501N004119999999N0000001N9+01561+99999100961ADDGF104991999999999999999999
0029029070999991905070320004+64333+023450FM-12+000599999V0201801N002119999999N0000001N9+01561+99999100871ADDGF106991999999999999999999
0029029070999991905070406004+64333+023450FM-12+000599999V0202301N004119999999N0000001N9+01281+99999100821ADDGF108991999999999999999999
0029029070999991905070413004+64333+023450FM-12+000599999V0202701N002119999999N0000001N9+01221+99999100821ADDGF102991999999999999999999
0029029070999991905070420004+64333+023450FM-12+000599999V0202701N009819999999N0000001N9+01441+99999100821ADDGF108991999999999999999999
0029029070999991905070506004+64333+023450FM-12+000599999V0202901N008219999999N0000001N9+01171+99999100901ADDGF103991999999999999999999
0029029070999991905070513004+64333+023450FM-12+000599999V0202501N002119999999N0000001N9+01501+99999100781ADDGF107991999999999999999999
0029029070999991905070520004+64333+023450FM-12+000599999V0201401N004119999999N0000001N9+01331+99999100221ADDGF103991999999999999999999
0029029070999991905070606004+64333+023450FM-12+000599999V0209991C000019999999N0000001N9+01281+99999099791ADDGF108991999999999999999999
0029029070999991905070613004+64333+023450FM-12+000599999V0202701N006219999999N0000001N9+01171+99999099591ADDGF104991999999999999999999
0029029070999991905070620004+64333+023450FM-12+000599999V0202901N006219999999N0000001N9+01171+99999099431ADDGF105991999999999999999999
0029029070999991905070706004+64333+023450FM-12+000599999V0203401N004119999999N0000001N9+01171+99999099381ADDGF102991999999999999999999
0029029070999991905070713004+64333+023450FM-12+000599999V0202501N006219999999N0000001N9+01391+99999099471ADDGF104991999999999999999999
0029029070999991905070720004+64333+023450FM-12+000599999V0202901N004119999999N0000001N9+01281+99999099461ADDGF104991999999999999999999
0029029070999991905070806004+64333+023450FM-12+000599999V0203201N006219999999N0000001N9+01111+99999099481ADDGF103991999999999999999999
0029029070999991905070813004+64333+023450FM-12+000599999V0202901N008219999999N0000001N9+01171+99999099601ADDGF108991999999999999999999
0029029070999991905070820004+64333+023450FM-12+000599999V0203201N004119999999N0000001N9+01061+99999099751ADDGF108991999999999999999999
0029029070999991905070906004+64333+023450FM-12+000599999V0203201N011819999999N0000001N9+01001+99999099861ADDGF108991999999999999999999
0029029070999991905070913004+64333+023450FM-12+000599999V0203201N008219999999N0000001N9+01111+99999100231ADDGF106991999999999999999999
0029029070999991905070920004+64333+023450FM-12+000599999V0203201N006219999999N0000001N9+01061+99999100021ADDGF107991999999999999999999
0029029070999991905071006004+64333+023450FM-12+000599999V0203601N011819999999N0000001N9+01001+99999100271ADDGF102991999999999999999999
0029029070999991905071013004+64333+023450FM-12+000599999V0203601N008219999999N0000001N9+01061+99999100541ADDGF108991999999999999999999
0029029070999991905071020004+64333+023450FM-12+000599999V0203401N008219999999N0000001N9+01001+99999100631ADDGF107991999999999999999999
0029029070999991905071106004+64333+023450FM-12+000599999V0203401N013919999999N0000001N9+00721+99999100711ADDGF108991999999999999999999
0029029070999991905071113004+64333+023450FM-12+000599999V0203401N013919999999N0000001N9+00831+99999100641ADDGF108991999999999999999999
0029029070999991905071120004+64333+023450FM-12+000599999V0203201N009819999999N0000001N9+00781+99999100711ADDGF108991999999999999999999
0029029070999991905071206004+64333+023450FM-12+000599999V0203601N006219999999N0000001N9+00721+99999100721ADDGF108991999999999999999999
0029029070999991905071213004+64333+023450FM-12+000599999V0203401N004119999999N0000001N9+00831+99999100881ADDGF108991999999999999999999
0029029070999991905071220004+64333+023450FM-12+000599999V0202901N004119999999N0000001N9+00781+99999100821ADDGF108991999999999999999999
0029029070999991905071306004+64333+023450FM-12+000599999V0203601N013919999999N0000001N9+00831+99999100621ADDGF108991999999999999999999
0029029070999991905071313004+64333+023450FM-12+000599999V0203601N013919999999N0000001N9+00831+99999100641ADDGF108991999999999999999999
0029029070999991905071320004+64333+023450FM-12+000599999V0200201N008219999999N0000001N9+00941+99999100751ADDGF108991999999999999999999
0029029070999991905071406004+64333+023450FM-12+000599999V0200201N013919999999N0000001N9+00891+99999100991ADDGF108991999999999999999999
0029029070999991905071413004+64333+023450FM-12+000599999V0200201N011819999999N0000001N9+00941+99999101161ADDGF108991999999999999999999
0029029070999991905071420004+64333+023450FM-12+000599999V0203601N006219999999N0000001N9+00891+99999101191ADDGF108991999999999999999999
0029029070999991905071506004+64333+023450FM-12+000599999V0200201N006219999999N0000001N9+00831+99999101191ADDGF108991999999999999999999
0029029070999991905071513004+64333+023450FM-12+000599999V0203601N006219999999N0000001N9+00941+99999101181ADDGF105991999999999999999999
0029029070999991905071520004+64333+023450FM-12+000599999V0203601N004119999999N0000001N9+00891+99999101061ADDGF102991999999999999999999
0035029070999991905071606004+64333+023450FM-12+000599999V0203601N006219999999N0000001N9+00891+99999100881ADDGF108991999999999999999999MW1621
0029029070999991905071613004+64333+023450FM-12+000599999V0200201N004119999999N0000001N9+01111+99999100871ADDGF102991999999999999999999
0029029070999991905071620004+64333+023450FM-12+000599999V0200501N002119999999N0000001N9+01001+99999100741ADDGF103991999999999999999999
0029029070999991905071706004+64333+023450FM-12+000599999V0200901N004119999999N0000001N9+00941+99999100521ADDGF106991999999999999999999
0029029070999991905071713004+64333+023450FM-12+000599999V0200501N004119999999N0000001N9+01221+99999100341ADDGF108991999999999999999999
0035029070999991905071720004+64333+023450FM-12+000599999V0200901N004119999999N0000001N9+01001+99999100141ADDGF108991999999999999999999MW1621
0029029070999991905071806004+64333+023450FM-12+000599999V0201801N004119999999N0000001N9+01111+99999099901ADDGF108991999999999999999999
0035029070999991905071813004+64333+023450FM-12+000599999V0200701N004119999999N0000001N9+01171+99999099961ADDGF108991999999999999999999MW1621
0029029070999991905071820004+64333+023450FM-12+000599999V0201601N002119999999N0000001N9+01061+99999100161ADDGF106991999999999999999999
0029029070999991905071906004+64333+023450FM-12+000599999V0202701N004119999999N0000001N9+01001+99999100481ADDGF108991999999999999999999
0029029070999991905071913004+64333+023450FM-12+000599999V0202301N004119999999N0000001N9+01171+99999100741ADDGF108991999999999999999999
0029029070999991905071920004+64333+023450FM-12+000599999V0202001N002119999999N0000001N9+01111+99999101071ADDGF108991999999999999999999
0029029070999991905072006004+64333+023450FM-12+000599999V0200501N006219999999N0000001N9+01061+99999101461ADDGF107991999999999999999999
0029029070999991905072013004+64333+023450FM-12+000599999V0200201N006219999999N0000001N9+01171+99999101591ADDGF106991999999999999999999
0029029070999991905072020004+64333+023450FM-12+000599999V0200701N004119999999N0000001N9+01221+99999101681ADDGF103991999999999999999999
0029029070999991905072106004+64333+023450FM-12+000599999V0200701N004119999999N0000001N9+01171+99999101821ADDGF102991999999999999999999
0029029070999991905072113004+64333+023450FM-12+000599999V0200901N004119999999N0000001N9+01441+99999101701ADDGF107991999999999999999999
0029029070999991905072120004+64333+023450FM-12+000599999V0200701N006219999999N0000001N9+01281+99999101561ADDGF104991999999999999999999
0029029070999991905072206004+64333+023450FM-12+000599999V0200701N004119999999N0000001N9+01111+99999101391ADDGF106991999999999999999999
0029029070999991905072213004+64333+023450FM-12+000599999V0200501N006219999999N0000001N9+01281+99999101271ADDGF107991999999999999999999
0029029070999991905072220004+64333+023450FM-12+000599999V0200701N004119999999N0000001N9+01281+99999101241ADDGF106991999999999999999999
0029029070999991905072306004+64333+023450FM-12+000599999V0200901N002119999999N0000001N9+01221+99999101121ADDGF102991999999999999999999
0029029070999991905072313004+64333+023450FM-12+000599999V0200701N002119999999N0000001N9+01671+99999100981ADDGF102991999999999999999999
0029029070999991905072320004+64333+023450FM-12+000599999V0200901N006219999999N0000001N9+01501+99999100981ADDGF102991999999999999999999
0029029070999991905072406004+64333+023450FM-12+000599999V0200901N004119999999N0000001N9+01391+99999101111ADDGF103991999999999999999999
0029029070999991905072413004+64333+023450FM-12+000599999V0200201N006219999999N0000001N9+01561+99999101081ADDGF104991999999999999999999
0029029070999991905072420004+64333+023450FM-12+000599999V0201101N004119999999N0000001N9+01501+99999101101ADDGF102991999999999999999999
0029029070999991905072506004+64333+023450FM-12+000599999V0209991C000019999999N0000001N9+01501+99999101081ADDGF102991999999999999999999
0029029070999991905072513004+64333+023450FM-12+000599999V0200701N002119999999N0000001N9+01671+99999100981ADDGF102991999999999999999999
0029029070999991905072520004+64333+023450FM-12+000599999V0209991C000019999999N0000001N9+01561+99999101001ADDGF103991999999999999999999
0029029070999991905072606004+64333+023450FM-12+000599999V0200901N002119999999N0000001N9+01561+99999100961ADDGF103991999999999999999999
0029029070999991905072613004+64333+023450FM-12+000599999V0200201N006219999999N0000001N9+01721+99999100821ADDGF106991999999999999999999
0029029070999991905072620004+64333+023450FM-12+000599999V0201101N004119999999N0000001N9+01441+99999100801ADDGF102991999999999999999999
0029029070999991905072706004+64333+023450FM-12+000599999V0200901N004119999999N0000001N9+01441+99999100761ADDGF106991999999999999999999
0029029070999991905072713004+64333+023450FM-12+000599999V0200201N004119999999N0000001N9+01561+99999100711ADDGF108991999999999999999999
0029029070999991905072720004+64333+023450FM-12+000599999V0202501N002119999999N0000001N9+01331+99999100671ADDGF108991999999999999999999
0029029070999991905072806004+64333+023450FM-12+000599999V0202701N004119999999N0000001N9+01561+99999100561ADDGF105991999999999999999999
0029029070999991905072813004+64333+023450FM-12+000599999V0202901N006219999999N0000001N9+01671+99999100561ADDGF105991999999999999999999
0029029070999991905072820004+64333+023450FM-12+000599999V0202701N004119999999N0000001N9+01441+99999100501ADDGF107991999999999999999999
0029029070999991905072906004+64333+023450FM-12+000599999V0202701N008219999999N0000001N9+01331+99999100311ADDGF106991999999999999999999
0029029070999991905072913004+64333+023450FM-12+000599999V0202701N008219999999N0000001N9+01391+99999100341ADDGF108991999999999999999999
0029029070999991905072920004+64333+023450FM-12+000599999V0202701N013919999999N0000001N9+01221+99999100141ADDGF108991999999999999999999
0029029070999991905073006004+64333+023450FM-12+000599999V0202001N011819999999N0000001N9+01061+99999099821ADDGF108991999999999999999999
0029029070999991905073013004+64333+023450FM-12+000599999V0202001N009819999999N0000001N9+01171+99999099901ADDGF108991999999999999999999
0029029070999991905073020004+64333+023450FM-12+000599999V0202001N008219999999N0000001N9+01111+99999099821ADDGF108991999999999999999999
0029029070999991905073106004+64333+023450FM-12+000599999V0202001N004119999999N0000001N9+01171+99999099871ADDGF103991999999999999999999
0029029070999991905073113004+64333+023450FM-12+000599999V0201801N004119999999N0000001N9+01501+99999100061ADDGF106991999999999999999999
0029029070999991905073120004+64333+023450FM-12+000599999V0201601N004119999999N0000001N9+01281+99999100241ADDGF107991999999999999999999
0029029070999991905080106004+64333+023450FM-12+000599999V0201601N004119999999N0000001N9+01281+99999100511ADDGF107991999999999999999999
0029029070999991905080113004+64333+023450FM-12+000599999V0201101N002119999999N0000001N9+01561+99999100661ADDGF106991999999999999999999
0029029070999991905080120004+64333+023450FM-12+000599999V0209991C000019999999N0000001N9+01331+99999100781ADDGF108991999999999999999999
0029029070999991905080206004+64333+023450FM-12+000599999V0202701N006219999999N0000001N9+01281+99999101061ADDGF101991999999999999999999
0029029070999991905080213004+64333+023450FM-12+000599999V0202001N004119999999N0000001N9+01561+99999101191ADDGF102991999999999999999999
0029029070999991905080220004+64333+023450FM-12+000599999V0200701N006219999999N0000001N9+01391+99999100911ADDGF108991999999999999999999
0035029070999991905080306004+64333+023450FM-12+000599999V0201101N008219999999N0000001N9+01221+99999100281ADDGF108991999999999999999999MW1621
0029029070999991905080313004+64333+023450FM-12+000599999V0201101N008219999999N0000001N9+01391+99999100141ADDGF108991999999999999999999
0029029070999991905080320004+64333+023450FM-12+000599999V0203401N002119999999N0000001N9+01281+99999100221ADDGF107991999999999999999999
0029029070999991905080406004+64333+023450FM-12+000599999V0203201N006219999999N0000001N9+01281+99999100661ADDGF106991999999999999999999
0029029070999991905080413004+64333+023450FM-12+000599999V0202901N008219999999N0000001N9+01441+99999101061ADDGF103991999999999999999999
0029029070999991905080420004+64333+023450FM-12+000599999V0202701N006219999999N0000001N9+01331+99999101281ADDGF104991999999999999999999
0029029070999991905080506004+64333+023450FM-12+000599999V0202301N002119999999N0000001N9+01391+99999101711ADDGF104991999999999999999999
0029029070999991905080513004+64333+023450FM-12+000599999V0202701N002119999999N0000001N9+01721+99999101801ADDGF108991999999999999999999
0029029070999991905080520004+64333+023450FM-12+000599999V0200901N004119999999N0000001N9+01501+99999101641ADDGF108991999999999999999999
0029029070999991905080606004+64333+023450FM-12+000599999V0201601N006219999999N0000001N9+01561+99999101311ADDGF108991999999999999999999
0029029070999991905080613004+64333+023450FM-12+000599999V0201601N004119999999N0000001N9+01781+99999101061ADDGF108991999999999999999999
0035029070999991905080620004+64333+023450FM-12+000599999V0201601N004119999999N0000001N9+01671+99999100881ADDGF108991999999999999999999MW1131
0029029070999991905080706004+64333+023450FM-12+000599999V0202501N006219999999N0000001N9+01391+99999100831ADDGF108991999999999999999999
0029029070999991905080713004+64333+023450FM-12+000599999V0202301N009819999999N0000001N9+01501+99999101061ADDGF108991999999999999999999
0029029070999991905080720004+64333+023450FM-12+000599999V0202301N008219999999N0000001N9+01441+99999101201ADDGF102991999999999999999999
0029029070999991905080806004+64333+023450FM-12+000599999V0203601N006219999999N0000001N9+01441+99999101511ADDGF106991999999999999999999
0029029070999991905080813004+64333+023450FM-12+000599999V0200201N008219999999N0000001N9+01391+99999101481ADDGF108991999999999999999999
0029029070999991905080820004+64333+023450FM-12+000599999V0200201N006219999999N0000001N9+01441+99999101221ADDGF108991999999999999999999
0029029070999991905080906004+64333+023450FM-12+000599999V0200501N013919999999N0000001N9+01281+99999100831ADDGF108991999999999999999999
0029029070999991905080913004+64333+023450FM-12+000599999V0200201N015919999999N0000001N9+01221+99999101071ADDGF108991999999999999999999
0029029070999991905080920004+64333+023450FM-12+000599999V0200501N006219999999N0000001N9+01111+99999101341ADDGF104991999999999999999999
0029029070999991905081006004+64333+023450FM-12+000599999V0201801N002119999999N0000001N9+01221+99999101431ADDGF102991999999999999999999
0029029070999991905081013004+64333+023450FM-12+000599999V0200701N004119999999N0000001N9+01441+99999101231ADDGF106991999999999999999999
0029029070999991905081020004+64333+023450FM-12+000599999V0201101N006219999999N0000001N9+01331+99999100841ADDGF106991999999999999999999
0035029070999991905081106004+64333+023450FM-12+000599999V0200901N015919999999N0000001N9+01061+99999099981ADDGF108991999999999999999999MW1621
0029029070999991905081113004+64333+023450FM-12+000599999V0201101N006219999999N0000001N9+01171+99999099741ADDGF108991999999999999999999
0029029070999991905081120004+64333+023450FM-12+000599999V0201101N008219999999N0000001N9+01171+99999099461ADDGF108991999999999999999999
0035029070999991905081206004+64333+023450FM-12+000599999V0201801N006219999999N0000001N9+01171+99999099351ADDGF108991999999999999999999MW1621
0029029070999991905081213004+64333+023450FM-12+000599999V0209991C000019999999N0000001N9+01561+99999099681ADDGF107991999999999999999999
0029029070999991905081220004+64333+023450FM-12+000599999V0200901N004119999999N0000001N9+01221+99999099781ADDGF108991999999999999999999
0029029070999991905081306004+64333+023450FM-12+000599999V0203601N006219999999N0000001N9+01111+99999099871ADDGF108991999999999999999999
0029029070999991905081313004+64333+023450FM-12+000599999V0203601N008219999999N0000001N9+01281+99999100381ADDGF107991999999999999999999
0029029070999991905081320004+64333+023450FM-12+000599999V0202901N004119999999N0000001N9+01221+99999100601ADDGF102991999999999999999999
0029029070999991905081406004+64333+023450FM-12+000599999V0201801N006219999999N0000001N9+01171+99999100821ADDGF108991999999999999999999
0029029070999991905081413004+64333+023450FM-12+000599999V0202001N002119999999N0000001N9+01441+99999100961ADDGF105991999999999999999999
0029029070999991905081420004+64333+023450FM-12+000599999V0203201N004119999999N0000001N9+01171+99999101111ADDGF108991999999999999999999
0029029070999991905081506004+64333+023450FM-12+000599999V0201801N004119999999N0000001N9+01171+99999101461ADDGF108991999999999999999999
0029029070999991905081513004+64333+023450FM-12+000599999V0203401N004119999999N0000001N9+01501+99999101551ADDGF106991999999999999999999
0029029070999991905081520004+64333+023450FM-12+000599999V0209991C000019999999N0000001N9+01221+99999101601ADDGF106991999999999999999999
0029029070999991905081606004+64333+023450FM-12+000599999V0200901N002119999999N0000001N9+01171+99999101601ADDGF108991999999999999999999
0029029070999991905081613004+64333+023450FM-12+000599999V0200201N009819999999N0000001N9+01221+99999101431ADDGF103991999999999999999999
0029029070999991905081620004+64333+023450FM-12+000599999V0200201N008219999999N0000001N9+01221+99999101231ADDGF107991999999999999999999
0029029070999991905081706004+64333+023450FM-12+000599999V0203601N009819999999N0000001N9+01221+99999101141ADDGF105991999999999999999999
0029029070999991905081713004+64333+023450FM-12+000599999V0202901N008219999999N0000001N9+01281+99999101281ADDGF102991999999999999999999
0029029070999991905081720004+64333+023450FM-12+000599999V0203401N006219999999N0000001N9+01281+99999101341ADDGF102991999999999999999999
0029029070999991905081806004+64333+023450FM-12+000599999V0200201N004119999999N0000001N9+01221+99999101721ADDGF101991999999999999999999
0029029070999991905081813004+64333+023450FM-12+000599999V0200201N002119999999N0000001N9+01331+99999101911ADDGF101991999999999999999999
0029029070999991905081820004+64333+023450FM-12+000599999V0209991C000019999999N0000001N9+01171+99999101871ADDGF101991999999999999999999
0029029070999991905081906004+64333+023450FM-12+000599999V0201801N006219999999N0000001N9+01171+99999101701ADDGF103991999999999999999999
0029029070999991905081913004+64333+023450FM-12+000599999V0201601N004119999999N0000001N9+01721+99999101381ADDGF102991999999999999999999
0029029070999991905081920004+64333+023450FM-12+000599999V0201401N006219999999N0000001N9+01391+99999101081ADDGF107991999999999999999999
0029029070999991905082006004+64333+023450FM-12+000599999V0201401N011819999999N0000001N9+01331+99999100661ADDGF103991999999999999999999
0029029070999991905082013004+64333+023450FM-12+000599999V0201101N008219999999N0000001N9+01561+99999100481ADDGF106991999999999999999999
0029029070999991905082020004+64333+023450FM-12+000599999V0200901N006219999999N0000001N9+01281+99999100381ADDGF103991999999999999999999
0029029070999991905082106004+64333+023450FM-12+000599999V0200901N002119999999N0000001N9+01171+99999100541ADDGF103991999999999999999999
0029029070999991905082113004+64333+023450FM-12+000599999V0203601N008219999999N0000001N9+01331+99999100751ADDGF104991999999999999999999
0035029070999991905082120004+64333+023450FM-12+000599999V0203201N006219999999N0000001N9+01171+99999100661ADDGF108991999999999999999999MW1621
0029029070999991905082206004+64333+023450FM-12+000599999V0200201N004119999999N0000001N9+01171+99999100901ADDGF106991999999999999999999
0029029070999991905082213004+64333+023450FM-12+000599999V0200201N008219999999N0000001N9+01281+99999101351ADDGF106991999999999999999999
0029029070999991905082220004+64333+023450FM-12+000599999V0200501N008219999999N0000001N9+01281+99999101701ADDGF103991999999999999999999
0029029070999991905082306004+64333+023450FM-12+000599999V0200701N009819999999N0000001N9+01061+99999102141ADDGF108991999999999999999999
0029029070999991905082313004+64333+023450FM-12+000599999V0200501N008219999999N0000001N9+01001+99999102281ADDGF107991999999999999999999
0029029070999991905082320004+64333+023450FM-12+000599999V0200701N009819999999N0000001N9+01001+99999102281ADDGF108991999999999999999999
0029029070999991905082406004+64333+023450FM-12+000599999V0200901N008219999999N0000001N9+00781+99999102301ADDGF107991999999999999999999
0029029070999991905082413004+64333+023450FM-12+000599999V0200901N008219999999N0000001N9+01001+99999102121ADDGF108991999999999999999999
0029029070999991905082420004+64333+023450FM-12+000599999V0200901N006219999999N0000001N9+00941+99999101991ADDGF108991999999999999999999
0029029070999991905082506004+64333+023450FM-12+000599999V0200901N008219999999N0000001N9+00781+99999101911ADDGF107991999999999999999999
0029029070999991905082513004+64333+023450FM-12+000599999V0200701N009819999999N0000001N9+00891+99999101781ADDGF102991999999999999999999
0029029070999991905082520004+64333+023450FM-12+000599999V0200501N008219999999N0000001N9+00831+99999101721ADDGF102991999999999999999999
0029029070999991905082606004+64333+023450FM-12+000599999V0209991C000019999999N0000001N9+00941+99999101701ADDGF108991999999999999999999
0029029070999991905082613004+64333+023450FM-12+000599999V0203601N002119999999N0000001N9+01061+99999101761ADDGF102991999999999999999999
0029029070999991905082620004+64333+023450FM-12+000599999V0203201N002119999999N0000001N9+00941+99999101821ADDGF101991999999999999999999
0029029070999991905082706004+64333+023450FM-12+000599999V0202901N004119999999N0000001N9+01111+99999101901ADDGF103991999999999999999999
0029029070999991905082713004+64333+023450FM-12+000599999V0202701N004119999999N0000001N9+01331+99999101951ADDGF106991999999999999999999
0029029070999991905082720004+64333+023450FM-12+000599999V0202701N006219999999N0000001N9+01171+99999101881ADDGF105991999999999999999999
0029029070999991905082806004+64333+023450FM-12+000599999V0202701N004119999999N0000001N9+01171+99999101921ADDGF106991999999999999999999
0029029070999991905082813004+64333+023450FM-12+000599999V0209991C000019999999N0000001N9+01331+99999101861ADDGF108991999999999999999999
0029029070999991905082820004+64333+023450FM-12+000599999V0200901N004119999999N0000001N9+01061+99999101661ADDGF108991999999999999999999
0029029070999991905082906004+64333+023450FM-12+000599999V0200901N002119999999N0000001N9+01001+99999101601ADDGF108991999999999999999999
0029029070999991905082913004+64333+023450FM-12+000599999V0200201N002119999999N0000001N9+01281+99999101481ADDGF108991999999999999999999
0029029070999991905082920004+64333+023450FM-12+000599999V0200701N002119999999N0000001N9+01171+99999101351ADDGF108991999999999999999999
0029029070999991905083006004+64333+023450FM-12+000599999V0200901N002119999999N0000001N9+00941+99999101271ADDGF100991999999999999999999
0029029070999991905083013004+64333+023450FM-12+000599999V0200201N008219999999N0000001N9+01221+99999100981ADDGF105991999999999999999999
0029029070999991905083020004+64333+023450FM-12+000599999V0200701N006219999999N0000001N9+01001+99999100801ADDGF102991999999999999999999
0029029070999991905083106004+64333+023450FM-12+000599999V0200501N004119999999N0000001N9+00831+99999100421ADDGF105991999999999999999999
0029029070999991905083113004+64333+023450FM-12+000599999V0203601N004119999999N0000001N9+01001+99999099881ADDGF102991999999999999999999
0029029070999991905083120004+64333+023450FM-12+000599999V0203601N002119999999N0000001N9+00941+99999099421ADDGF108991999999999999999999
0029029070999991905090106004+64333+023450FM-12+000599999V0202901N011819999999N0000001N9+00831+99999098901ADDGF102991999999999999999999
0029029070999991905090113004+64333+023450FM-12+000599999V0202901N009819999999N0000001N9+01001+99999098881ADDGF102991999999999999999999
0035029070999991905090120004+64333+023450FM-12+000599999V0202701N008219999999N0000001N9+00941+99999098701ADDGF107991999999999999999999MW1621
0029029070999991905090206004+64333+023450FM-12+000599999V0202701N006219999999N0000001N9+00891+99999098661ADDGF108991999999999999999999
0029029070999991905090213004+64333+023450FM-12+000599999V0202701N008219999999N0000001N9+01001+99999098751ADDGF106991999999999999999999
0029029070999991905090220004+64333+023450FM-12+000599999V0202901N002119999999N0000001N9+00941+99999098721ADDGF106991999999999999999999
0029029070999991905090306004+64333+023450FM-12+000599999V0203401N004119999999N0000001N9+00941+99999098791ADDGF106991999999999999999999
0029029070999991905090313004+64333+023450FM-12+000599999V0203601N004119999999N0000001N9+01061+99999099071ADDGF104991999999999999999999
0029029070999991905090320004+64333+023450FM-12+000599999V0202501N006219999999N0000001N9+00941+99999099111ADDGF101991999999999999999999
0029029070999991905090406004+64333+023450FM-12+000599999V0202701N006219999999N0000001N9+00891+99999099351ADDGF102991999999999999999999
0029029070999991905090413004+64333+023450FM-12+000599999V0203601N006219999999N0000001N9+01001+99999099761ADDGF103991999999999999999999
