0029028750999991906010106004+65017+025450FM-12+001099999V0201801N001019999999N0000001N9-00941+99999101761ADDGF100991999999999999999999
0029028750999991906010113004+65017+025450FM-12+001099999V0202301N001019999999N0000001N9-00781+99999101711ADDGF100991999999999999999999
0029028750999991906010120004+65017+025450FM-12+001099999V0202701N001019999999N0000001N9-00501+99999101871ADDGF100991999999999999999999
0029028750999991906010206004+65017+025450FM-12+001099999V0202701N002119999999N0000001N9-00221+99999101921ADDGF100991999999999999999999
0029028750999991906010213004+65017+025450FM-12+001099999V0201801N003119999999N0000001N9-00391+99999101981ADDGF100991999999999999999999
0029028750999991906010220004+65017+025450FM-12+001099999V0209991C000019999999N0000001N9-00441+99999101981ADDGF108991999999999999999999
0029028750999991906010306004+65017+025450FM-12+001099999V0209991C000019999999N0000001N9-00891+99999101831ADDGF100991999999999999999999
0029028750999991906010313004+65017+025450FM-12+001099999V0201801N004119999999N0000001N9-00941+99999101791ADDGF100991999999999999999999
0029028750999991906010320004+65017+025450FM-12+001099999V0201801N001019999999N0000001N9-00831+99999101881ADDGF100991999999999999999999
0029028750999991906010406004+65017+025450FM-12+001099999V0202301N004119999999N0000001N9-00561+99999101521ADDGF108991999999999999999999
0029028750999991906010413004+65017+025450FM-12+001099999V0201801N002119999999N0000001N9-00781+99999101401ADDGF100991999999999999999999
0029028750999991906010420004+65017+025450FM-12+001099999V0202701N004119999999N0000001N9-00221+99999101591ADDGF100991999999999999999999
0029028750999991906010506004+65017+025450FM-12+001099999V0209991C000019999999N0000001N9-00171+99999101121ADDGF108991999999999999999999
0029028750999991906010513004+65017+025450FM-12+001099999V0201801N003119999999N0000001N9-00171+99999100801ADDGF108991999999999999999999
0035028750999991906010520004+65017+025450FM-12+001099999V0201801N004119999999N0000001N9-00111+99999100601ADDGF108991999999999999999999MW1721
0035028750999991906010606004+65017+025450FM-12+001099999V0202301N002119999999N0000001N9+00001+99999100391ADDGF108991999999999999999999MW1721
0035028750999991906010613004+65017+025450FM-12+001099999V0201801N003119999999N0000001N9+00061+99999100321ADDGF108991999999999999999999MW1721
0035028750999991906010620004+65017+025450FM-12+001099999V0201401N002119999999N0000001N9+00001+99999100201ADDGF108991999999999999999999MW1721
0029028750999991906010706004+65017+025450FM-12+001099999V0202001N003119999999N0000001N9-00281+99999100041ADDGF108991999999999999999999
0029028750999991906010713004+65017+025450FM-12+001099999V0201601N004119999999N0000001N9-00281+99999100061ADDGF108991999999999999999999
0029028750999991906010720004+65017+025450FM-12+001099999V0201401N003119999999N0000001N9-00221+99999100061ADDGF108991999999999999999999
0029028750999991906010806004+65017+025450FM-12+001099999V0201401N001019999999N0000001N9-00171+99999999999ADDGF108991999999999999999999
0029028750999991906010813004+65017+025450FM-12+001099999V0201601N004119999999N0000001N9-00221+99999099991ADDGF108991999999999999999999
0035028750999991906010820004+65017+025450FM-12+001099999V0201401N005119999999N0000001N9-00171+99999100421ADDGF108991999999999999999999MW1721
0035028750999991906010906004+65017+025450FM-12+001099999V0201401N001019999999N0000001N9+00001+99999100741ADDGF108991999999999999999999MW1721
0035028750999991906010913004+65017+025450FM-12+001099999V0201801N005119999999N0000001N9+00001+99999100861ADDGF108991999999999999999999MW1721
0035028750999991906010920004+65017+025450FM-12+001099999V0201801N003119999999N0000001N9-00061+99999100641ADDGF108991999999999999999999MW1721
0035028750999991906011006004+65017+025450FM-12+001099999V0201401N004119999999N0000001N9-00501+99999100641ADDGF108991999999999999999999MW1721
0035028750999991906011013004+65017+025450FM-12+001099999V0201401N003119999999N0000001N9-00441+99999100471ADDGF108991999999999999999999MW1721
0029028750999991906011020004+65017+025450FM-12+001099999V0200901N003119999999N0000001N9-00671+99999100591ADDGF108991999999999999999999
0029028750999991906011106004+65017+025450FM-12+001099999V0201401N003119999999N0000001N9-00611+99999100671ADDGF108991999999999999999999
0035028750999991906011113004+65017+025450FM-12+001099999V0201401N003119999999N0000001N9-00501+99999100741ADDGF108991999999999999999999MW1721
0035028750999991906011120004+65017+025450FM-12+001099999V0201401N005119999999N0000001N9-00281+99999100951ADDGF108991999999999999999999MW1721
0029028750999991906011206004+65017+025450FM-12+001099999V0201401N002119999999N0000001N9-00441+99999100881ADDGF108991999999999999999999
0029028750999991906011213004+65017+025450FM-12+001099999V0201401N003119999999N0000001N9-00331+99999100761ADDGF108991999999999999999999
0029028750999991906011220004+65017+025450FM-12+001099999V0201401N002119999999N0000001N9-00441+99999100881ADDGF108991999999999999999999
0029028750999991906011306004+65017+025450FM-12+001099999V0201801N002119999999N0000001N9-00721+99999100621ADDGF108991999999999999999999
0029028750999991906011313004+65017+025450FM-12+001099999V0201401N008219999999N0000001N9-00611+99999100431ADDGF108991999999999999999999
0029028750999991906011320004+65017+025450FM-12+001099999V0201101N007219999999N0000001N9-00721+99999100321ADDGF108991999999999999999999
0029028750999991906011406004+65017+025450FM-12+001099999V0200901N004119999999N0000001N9-00831+99999099991ADDGF108991999999999999999999
0029028750999991906011413004+65017+025450FM-12+001099999V0200501N002119999999N0000001N9-00781+99999100061ADDGF108991999999999999999999
0029028750999991906011420004+65017+025450FM-12+001099999V0200501N003119999999N0000001N9-00891+99999100381ADDGF108991999999999999999999
0029028750999991906011506004+65017+025450FM-12+001099999V0201401N003119999999N0000001N9-00891+99999100791ADDGF108991999999999999999999
0029028750999991906011513004+65017+025450FM-12+001099999V0201401N002119999999N0000001N9-00941+99999101061ADDGF108991999999999999999999
0029028750999991906011520004+65017+025450FM-12+001099999V0201401N005119999999N0000001N9-00831+99999101021ADDGF108991999999999999999999
0029028750999991906011606004+65017+025450FM-12+001099999V0201801N004119999999N0000001N9-00171+99999100471ADDGF108991999999999999999999
0029028750999991906011613004+65017+025450FM-12+001099999V0201801N006219999999N0000001N9+00171+99999100391ADDGF108991999999999999999999
0035028750999991906011620004+65017+025450FM-12+001099999V0201401N003119999999N0000001N9+00221+99999100101ADDGF108991999999999999999999MW1621
0029028750999991906011706004+65017+025450FM-12+001099999V0201401N004119999999N0000001N9+00391+99999099831ADDGF108991999999999999999999
0029028750999991906011713004+65017+025450FM-12+001099999V0201601N007219999999N0000001N9+00171+99999099511ADDGF108991999999999999999999
0035028750999991906011720004+65017+025450FM-12+001099999V0201601N006219999999N0000001N9+00111+99999099161ADDGF108991999999999999999999MW1621
0029028750999991906011806004+65017+025450FM-12+001099999V0201401N003119999999N0000001N9-00061+99999098361ADDGF108991999999999999999999
0035028750999991906011813004+65017+025450FM-12+001099999V0201401N004119999999N0000001N9+00001+99999097991ADDGF108991999999999999999999MW1721
0029028750999991906011820004+65017+025450FM-12+001099999V0203201N004119999999N0000001N9-00171+99999098401ADDGF108991999999999999999999
0029028750999991906011906004+65017+025450FM-12+001099999V0203201N002119999999N0000001N9-00441+99999099361ADDGF108991999999999999999999
0029028750999991906011913004+65017+025450FM-12+001099999V0203201N002119999999N0000001N9-00671+99999099591ADDGF100991999999999999999999
0029028750999991906011920004+65017+025450FM-12+001099999V0209991C000019999999N0000001N9-00941+99999099671ADDGF108991999999999999999999
0029028750999991906012006004+65017+025450FM-12+001099999V0209991C000019999999N0000001N9-01941+99999100071ADDGF108991999999999999999999
0029028750999991906012013004+65017+025450FM-12+001099999V0209991C000019999999N0000001N9-01891+99999100121ADDGF108991999999999999999999
0035028750999991906012020004+65017+025450FM-12+001099999V0201401N003119999999N0000001N9-00561+99999100201ADDGF108991999999999999999999MW1721
0029028750999991906012106004+65017+025450FM-12+001099999V0203201N001019999999N0000001N9-00721+99999100511ADDGF108991999999999999999999
0029028750999991906012113004+65017+025450FM-12+001099999V0203201N001019999999N0000001N9-00831+99999100641ADDGF108991999999999999999999
0029028750999991906012120004+65017+025450FM-12+001099999V0209991C000019999999N0000001N9-00891+99999101041ADDGF108991999999999999999999
0029028750999991906012206004+65017+025450FM-12+001099999V0209991C000019999999N0000001N9-01391+99999101431ADDGF108991999999999999999999
0029028750999991906012213004+65017+025450FM-12+001099999V0203601N001019999999N0000001N9-01281+99999102071ADDGF108991999999999999999999
0029028750999991906012220004+65017+025450FM-12+001099999V0209991C000019999999N0000001N9-01891+99999102541ADDGF108991999999999999999999
0029028750999991906012306004+65017+025450FM-12+001099999V0201401N001019999999N0000001N9-02001+99999102821ADDGF108991999999999999999999
0029028750999991906012313004+65017+025450FM-12+001099999V0201401N001019999999N0000001N9-01501+99999102661ADDGF108991999999999999999999
0035028750999991906012320004+65017+025450FM-12+001099999V0201801N001019999999N0000001N9-01441+99999102231ADDGF108991999999999999999999MW1721
0029028750999991906012406004+65017+025450FM-12+001099999V0201401N002119999999N0000001N9-01001+99999101561ADDGF108991999999999999999999
0029028750999991906012413004+65017+025450FM-12+001099999V0201401N003119999999N0000001N9-00891+99999101111ADDGF108991999999999999999999
0029028750999991906012420004+65017+025450FM-12+001099999V0201801N001019999999N0000001N9-00721+99999100621ADDGF108991999999999999999999
0029028750999991906012506004+65017+025450FM-12+001099999V0201801N003119999999N0000001N9-00171+99999099671ADDGF108991999999999999999999
0029028750999991906012513004+65017+025450FM-12+001099999V0202001N006219999999N0000001N9+00221+99999099551ADDGF108991999999999999999999
0029028750999991906012520004+65017+025450FM-12+001099999V0202301N005119999999N0000001N9-00061+99999099501ADDGF108991999999999999999999
0035028750999991906012606004+65017+025450FM-12+001099999V0201801N006219999999N0000001N9-00221+99999099071ADDGF108991999999999999999999MW1721
0035028750999991906012613004+65017+025450FM-12+001099999V0201801N007219999999N0000001N9-00331+99999098991ADDGF108991999999999999999999MW1721
0035028750999991906012620004+65017+025450FM-12+001099999V0201801N007219999999N0000001N9-00221+99999098201ADDGF108991999999999999999999MW1721
0029028750999991906012706004+65017+025450FM-12+001099999V0201601N009819999999N0000001N9-00111+99999096741ADDGF108991999999999999999999
0029028750999991906012713004+65017+025450FM-12+001099999V0202701N008219999999N0000001N9+00061+99999095911ADDGF105991999999999999999999
0029028750999991906012720004+65017+025450FM-12+001099999V0202501N008719999999N0000001N9-00171+99999096461ADDGF100991999999999999999999
0035028750999991906012806004+65017+025450FM-12+001099999V0202701N007219999999N0000001N9-00221+99999097301ADDGF101991999999999999999999MW1721
0029028750999991906012813004+65017+025450FM-12+001099999V0202701N009819999999N0000001N9-00111+99999097281ADDGF100991999999999999999999
0029028750999991906012820004+65017+025450FM-12+001099999V0202701N002119999999N0000001N9-00611+99999097281ADDGF100991999999999999999999
0029028750999991906012906004+65017+025450FM-12+001099999V0202901N005119999999N0000001N9-00611+99999098121ADDGF100991999999999999999999
0029028750999991906012913004+65017+025450FM-12+001099999V0203201N003119999999N0000001N9-00721+99999098541ADDGF100991999999999999999999
0029028750999991906012920004+65017+025450FM-12+001099999V0203201N003119999999N0000001N9-01061+99999099111ADDGF100991999999999999999999
0029028750999991906013006004+65017+025450FM-12+001099999V0202701N001019999999N0000001N9-01671+99999099601ADDGF100991999999999999999999
0029028750999991906013013004+65017+025450FM-12+001099999V0203201N002119999999N0000001N9-01221+99999099841ADDGF100991999999999999999999
0029028750999991906013020004+65017+025450FM-12+001099999V0209991C000019999999N0000001N9-01611+99999100271ADDGF100991999999999999999999
0029028750999991906013106004+65017+025450FM-12+001099999V0201101N001019999999N0000001N9-01831+99999100511ADDGF108991999999999999999999
0029028750999991906013113004+65017+025450FM-12+001099999V0203201N003119999999N0000001N9-01281+99999100541ADDGF108991999999999999999999
0029028750999991906013120004+65017+025450FM-12+001099999V0203201N004119999999N0000001N9-02281+99999100551ADDGF100991999999999999999999
0029028750999991906020106004+65017+025450FM-12+001099999V0201401N003119999999N0000001N9-02171+99999100281ADDGF108991999999999999999999
0035028750999991906020113004+65017+025450FM-12+001099999V0201401N003119999999N0000001N9-01281+99999099551ADDGF108991999999999999999999MW1721
0035028750999991906020120004+65017+025450FM-12+001099999V0201401N004119999999N0000001N9-01111+99999099201ADDGF108991999999999999999999MW1721
0035028750999991906020206004+65017+025450FM-12+001099999V0201401N004119999999N0000001N9-00941+99999098751ADDGF108991999999999999999999MW1721
0035028750999991906020213004+65017+025450FM-12+001099999V0201401N003119999999N0000001N9-00671+99999098621ADDGF108991999999999999999999MW1721
0035028750999991906020220004+65017+025450FM-12+001099999V0200901N004119999999N0000001N9-00721+99999098561ADDGF108991999999999999999999MW1721
0029028750999991906020306004+65017+025450FM-12+001099999V0200901N005119999999N0000001N9-00941+99999099061ADDGF102991999999999999999999
0035028750999991906020313004+65017+025450FM-12+001099999V0200901N003119999999N0000001N9-01061+99999099401ADDGF108991999999999999999999MW1721
0035028750999991906020320004+65017+025450FM-12+001099999V0200901N004119999999N0000001N9-01111+99999099951ADDGF108991999999999999999999MW1721
0029028750999991906020406004+65017+025450FM-12+001099999V0201401N004119999999N0000001N9-00671+99999100481ADDGF108991999999999999999999
0035028750999991906020413004+65017+025450FM-12+001099999V0200901N002119999999N0000001N9-00611+99999100741ADDGF108991999999999999999999MW1721
0029028750999991906020420004+65017+025450FM-12+001099999V0200901N003119999999N0000001N9-00941+99999101281ADDGF108991999999999999999999
0029028750999991906020506004+65017+025450FM-12+001099999V0200901N001019999999N0000001N9-01001+99999101681ADDGF108991999999999999999999
0029028750999991906020513004+65017+025450FM-12+001099999V0201801N003119999999N0000001N9-00891+99999101681ADDGF108991999999999999999999
0035028750999991906020520004+65017+025450FM-12+001099999V0201801N005119999999N0000001N9-00781+99999101461ADDGF108991999999999999999999MW1721
0029028750999991906020606004+65017+025450FM-12+001099999V0202301N007219999999N0000001N9-00171+99999100981ADDGF100991999999999999999999
0029028750999991906020613004+65017+025450FM-12+001099999V0202301N004119999999N0000001N9-00111+99999101061ADDGF108991999999999999999999
0029028750999991906020620004+65017+025450FM-12+001099999V0202301N003119999999N0000001N9-00221+99999100761ADDGF108991999999999999999999
0029028750999991906020706004+65017+025450FM-12+001099999V0201801N008219999999N0000001N9-00171+99999100501ADDGF108991999999999999999999
0035028750999991906020713004+65017+025450FM-12+001099999V0202301N007219999999N0000001N9-00281+99999100271ADDGF108991999999999999999999MW1721
0035028750999991906020720004+65017+025450FM-12+001099999V0201801N009819999999N0000001N9-00331+99999099951ADDGF108991999999999999999999MW1721
0035028750999991906020806004+65017+025450FM-12+001099999V0201801N008219999999N0000001N9-00441+99999099381ADDGF108991999999999999999999MW1721
0029028750999991906020813004+65017+025450FM-12+001099999V0202301N006219999999N0000001N9-00221+99999099231ADDGF108991999999999999999999
0035028750999991906020820004+65017+025450FM-12+001099999V0201601N004119999999N0000001N9-00331+99999099121ADDGF108991999999999999999999MW1721
0035028750999991906020906004+65017+025450FM-12+001099999V0201601N011819999999N0000001N9+00061+99999098821ADDGF108991999999999999999999MW1721
0029028750999991906020913004+65017+025450FM-12+001099999V0201601N008219999999N0000001N9-00221+99999099231ADDGF108991999999999999999999
0029028750999991906020920004+65017+025450FM-12+001099999V0201401N006219999999N0000001N9-00561+99999099741ADDGF108991999999999999999999
0035028750999991906021006004+65017+025450FM-12+001099999V0201401N003119999999N0000001N9-00391+99999099621ADDGF108991999999999999999999MW1721
0035028750999991906021013004+65017+025450FM-12+001099999V0201401N005119999999N0000001N9-00221+99999099621ADDGF108991999999999999999999MW1721
0035028750999991906021020004+65017+025450FM-12+001099999V0201601N005119999999N0000001N9-00281+99999099721ADDGF108991999999999999999999MW1721
0029028750999991906021106004+65017+025450FM-12+001099999V0201401N004119999999N0000001N9-00281+99999099961ADDGF108991999999999999999999
0029028750999991906021113004+65017+025450FM-12+001099999V0201801N005119999999N0000001N9-00221+99999100341ADDGF105991999999999999999999
0029028750999991906021120004+65017+025450FM-12+001099999V0201801N006219999999N0000001N9-00441+99999100671ADDGF107991999999999999999999
0035028750999991906021206004+65017+025450FM-12+001099999V0201601N004119999999N0000001N9-00391+99999100621ADDGF108991999999999999999999MW1721
0035028750999991906021213004+65017+025450FM-12+001099999V0201801N006219999999N0000001N9-00331+99999100721ADDGF108991999999999999999999MW1721
0035028750999991906021220004+65017+025450FM-12+001099999V0201801N004119999999N0000001N9-00281+99999101031ADDGF108991999999999999999999MW1721
0029028750999991906021306004+65017+025450FM-12+001099999V0201801N008219999999N0000001N9-00441+99999101221ADDGF108991999999999999999999
0029028750999991906021313004+65017+025450FM-12+001099999V0201801N006219999999N0000001N9-00561+99999101421ADDGF106991999999999999999999
0029028750999991906021320004+65017+025450FM-12+001099999V0201401N004119999999N0000001N9-00781+99999101701ADDGF108991999999999999999999
0029028750999991906021406004+65017+025450FM-12+001099999V0201401N004119999999N0000001N9-00941+99999101441ADDGF108991999999999999999999
0029028750999991906021413004+65017+025450FM-12+001099999V0201401N005119999999N0000001N9-00441+99999101581ADDGF108991999999999999999999
0029028750999991906021420004+65017+025450FM-12+001099999V0201601N004119999999N0000001N9-00501+99999101681ADDGF108991999999999999999999
0029028750999991906021506004+65017+025450FM-12+001099999V0201401N003119999999N0000001N9-00611+99999101601ADDGF102991999999999999999999
0029028750999991906021513004+65017+025450FM-12+001099999V0201101N003119999999N0000001N9-00391+99999101751ADDGF105991999999999999999999
0029028750999991906021520004+65017+025450FM-12+001099999V0201401N002119999999N0000001N9-00281+99999101941ADDGF108991999999999999999999
0029028750999991906021606004+65017+025450FM-12+001099999V0201401N004119999999N0000001N9-00111+99999101711ADDGF108991999999999999999999
0035028750999991906021613004+65017+025450FM-12+001099999V0201401N006219999999N0000001N9-00111+99999101631ADDGF108991999999999999999999MW1721
0029028750999991906021620004+65017+025450FM-12+001099999V0201601N008219999999N0000001N9-00111+99999101541ADDGF108991999999999999999999
0029028750999991906021706004+65017+025450FM-12+001099999V0201801N005119999999N0000001N9+00001+99999101541ADDGF108991999999999999999999
0029028750999991906021713004+65017+025450FM-12+001099999V0201801N006219999999N0000001N9+00111+99999101031ADDGF108991999999999999999999
0035028750999991906021720004+65017+025450FM-12+001099999V0201801N006219999999N0000001N9-00061+99999100911ADDGF108991999999999999999999MW1721
0029028750999991906021806004+65017+025450FM-12+001099999V0201801N006219999999N0000001N9-00501+99999100361ADDGF108991999999999999999999
0035028750999991906021813004+65017+025450FM-12+001099999V0201801N004119999999N0000001N9+00001+99999100311ADDGF108991999999999999999999MW1721
0035028750999991906021820004+65017+025450FM-12+001099999V0202301N002119999999N0000001N9+00061+99999100201ADDGF108991999999999999999999MW1721
0029028750999991906021906004+65017+025450FM-12+001099999V0203201N003119999999N0000001N9-00111+99999100341ADDGF108991999999999999999999
0029028750999991906021913004+65017+025450FM-12+001099999V0203201N003119999999N0000001N9-00721+99999100841ADDGF100991999999999999999999
0029028750999991906021920004+65017+025450FM-12+001099999V0203201N001019999999N0000001N9-01281+99999101301ADDGF100991999999999999999999
0029028750999991906022006004+65017+025450FM-12+001099999V0202701N001019999999N0000001N9-01501+99999101391ADDGF100991999999999999999999
0029028750999991906022013004+65017+025450FM-12+001099999V0203201N002119999999N0000001N9-01001+99999101381ADDGF100991999999999999999999
0029028750999991906022020004+65017+025450FM-12+001099999V0209991C000019999999N0000001N9-01331+99999101541ADDGF100991999999999999999999
0029028750999991906022106004+65017+025450FM-12+001099999V0209991C000019999999N0000001N9-01721+99999101551ADDGF100991999999999999999999
0029028750999991906022113004+65017+025450FM-12+001099999V0209991C000019999999N0000001N9-01331+99999101621ADDGF100991999999999999999999
0029028750999991906022120004+65017+025450FM-12+001099999V0209991C000019999999N0000001N9-01611+99999101581ADDGF100991999999999999999999
0035028750999991906022206004+65017+025450FM-12+001099999V0201401N004119999999N0000001N9-00781+99999101151ADDGF108991999999999999999999MW1721
0029028750999991906022213004+65017+025450FM-12+001099999V0200901N004119999999N0000001N9-00721+99999101021ADDGF108991999999999999999999
0029028750999991906022220004+65017+025450FM-12+001099999V0200901N004119999999N0000001N9-00831+99999101261ADDGF108991999999999999999999
0029028750999991906022306004+65017+025450FM-12+001099999V0200901N007219999999N0000001N9-01221+99999101741ADDGF106991999999999999999999
0029028750999991906022313004+65017+025450FM-12+001099999V0200901N008219999999N0000001N9-01391+99999102111ADDGF100991999999999999999999
0029028750999991906022320004+65017+025450FM-12+001099999V0200901N007219999999N0000001N9-01611+99999102751ADDGF100991999999999999999999
0029028750999991906022406004+65017+025450FM-12+001099999V0200901N004119999999N0000001N9-02501+99999102941ADDGF100991999999999999999999
0029028750999991906022413004+65017+025450FM-12+001099999V0201401N004119999999N0000001N9-01441+99999103031ADDGF100991999999999999999999
0029028750999991906022420004+65017+025450FM-12+001099999V0200901N005119999999N0000001N9-01941+99999102991ADDGF100991999999999999999999
0029028750999991906022506004+65017+025450FM-12+001099999V0201401N004119999999N0000001N9-02281+99999102671ADDGF100991999999999999999999
0029028750999991906022513004+65017+025450FM-12+001099999V0201401N004119999999N0000001N9-01611+99999102361ADDGF106991999999999999999999
0029028750999991906022520004+65017+025450FM-12+001099999V0201401N004119999999N0000001N9-01441+99999101741ADDGF108991999999999999999999
0035028750999991906022606004+65017+025450FM-12+001099999V0200901N004119999999N0000001N9-01001+99999100551ADDGF108991999999999999999999MW1721
0029028750999991906022613004+65017+025450FM-12+001099999V0201401N006219999999N0000001N9-00611+99999100101ADDGF108991999999999999999999
0029028750999991906022620004+65017+025450FM-12+001099999V0201101N004119999999N0000001N9-00941+99999099861ADDGF108991999999999999999999
0029028750999991906022706004+65017+025450FM-12+001099999V0201401N003119999999N0000001N9-00611+99999099551ADDGF108991999999999999999999
0029028750999991906022713004+65017+025450FM-12+001099999V0201401N007219999999N0000001N9-00611+99999099301ADDGF108991999999999999999999
0035028750999991906022720004+65017+025450FM-12+001099999V0201401N003119999999N0000001N9-00781+99999099191ADDGF108991999999999999999999MW1721
0035028750999991906022806004+65017+025450FM-12+001099999V0201401N004119999999N0000001N9-00391+99999098671ADDGF108991999999999999999999MW1721
0035028750999991906022813004+65017+025450FM-12+001099999V0201801N007219999999N0000001N9+00111+99999098381ADDGF108991999999999999999999MW1721
0035028750999991906022820004+65017+025450FM-12+001099999V0201801N003119999999N0000001N9-00561+99999098391ADDGF108991999999999999999999MW1721
0029028750999991906030106004+65017+025450FM-12+001099999V0201801N003119999999N0000001N9-01501+99999098661ADDGF108991999999999999999999
0029028750999991906030113004+65017+025450FM-12+001099999V0201801N001019999999N0000001N9-00611+99999098701ADDGF106991999999999999999999
0029028750999991906030120004+65017+025450FM-12+001099999V0201401N006219999999N0000001N9-00721+99999098841ADDGF107991999999999999999999
0029028750999991906030206004+65017+025450FM-12+001099999V0209991C000019999999N0000001N9-01001+99999098661ADDGF108991999999999999999999
0035028750999991906030213004+65017+025450FM-12+001099999V0201401N004119999999N0000001N9-00781+99999098631ADDGF108991999999999999999999MW1721
0029028750999991906030220004+65017+025450FM-12+001099999V0200901N002119999999N0000001N9-00831+99999098701ADDGF108991999999999999999999
0029028750999991906030306004+65017+025450FM-12+001099999V0203201N004119999999N0000001N9-01001+99999098831ADDGF108991999999999999999999
0029028750999991906030313004+65017+025450FM-12+001099999V0203201N006219999999N0000001N9-00831+99999099221ADDGF105991999999999999999999
0035028750999991906030320004+65017+025450FM-12+001099999V0203201N005119999999N0000001N9-00941+99999099461ADDGF108991999999999999999999MW1721
0029028750999991906030406004+65017+025450FM-12+001099999V0202901N003119999999N0000001N9-01941+99999100151ADDGF100991999999999999999999
0029028750999991906030413004+65017+025450FM-12+001099999V0201401N003119999999N0000001N9-00941+99999100031ADDGF100991999999999999999999
0035028750999991906030420004+65017+025450FM-12+001099999V0203201N007219999999N0000001N9-01061+99999099191ADDGF108991999999999999999999MW1721
0029028750999991906030506004+65017+025450FM-12+001099999V0203201N003119999999N0000001N9-01171+99999098511ADDGF100991999999999999999999
0029028750999991906030513004+65017+025450FM-12+001099999V0203201N005119999999N0000001N9-01111+99999099401ADDGF100991999999999999999999
0029028750999991906030520004+65017+025450FM-12+001099999V0203201N001019999999N0000001N9-01331+99999100141ADDGF102991999999999999999999
0029028750999991906030606004+65017+025450FM-12+001099999V0201401N002119999999N0000001N9-01891+99999099871ADDGF100991999999999999999999
0035028750999991906030613004+65017+025450FM-12+001099999V0201101N006219999999N0000001N9-00721+99999098751ADDGF108991999999999999999999MW1721
0029028750999991906030620004+65017+025450FM-12+001099999V0201801N003119999999N0000001N9-01061+99999098581ADDGF100991999999999999999999
0029028750999991906030706004+65017+025450FM-12+001099999V0202501N008219999999N0000001N9-01331+99999097791ADDGF100991999999999999999999
0029028750999991906030713004+65017+025450FM-12+001099999V0202701N007219999999N0000001N9-00891+99999098541ADDGF100991999999999999999999
0029028750999991906030720004+65017+025450FM-12+001099999V0202301N003119999999N0000001N9-01331+99999099341ADDGF102991999999999999999999
0029028750999991906030806004+65017+025450FM-12+001099999V0201101N003119999999N0000001N9-01221+99999098061ADDGF108991999999999999999999
0029028750999991906030813004+65017+025450FM-12+001099999V0201401N004119999999N0000001N9-00941+99999097621ADDGF106991999999999999999999
0000028750999991906030820004+65017+025450FM-12+001099999V0201401N003119999999N0000001N9-01061+99999097151
0029028750999991906030906004+65017+025450FM-12+001099999V0201401N004119999999N0000001N9-00831+99999096301ADDGF108991999999999999999999
0029028750999991906030913004+65017+025450FM-12+001099999V0200701N003119999999N0000001N9-00561+99999096481ADDGF108991999999999999999999
0029028750999991906030920004+65017+025450FM-12+001099999V0200901N003119999999N0000001N9-00831+99999097231ADDGF108991999999999999999999
0029028750999991906031006004+65017+025450FM-12+001099999V0200501N006219999999N0000001N9-01281+99999098221ADDGF108991999999999999999999
0029028750999991906031013004+65017+025450FM-12+001099999V0203601N007219999999N0000001N9-00941+99999098901ADDGF102991999999999999999999
0029028750999991906031020004+65017+025450FM-12+001099999V0209991C000019999999N0000001N9-02221+99999099751ADDGF100991999999999999999999
0029028750999991906031106004+65017+025450FM-12+001099999V0209991C000019999999N0000001N9-02391+99999099821ADDGF100991999999999999999999
0029028750999991906031113004+65017+025450FM-12+001099999V0201801N001019999999N0000001N9-00781+99999099991ADDGF100991999999999999999999
0029028750999991906031120004+65017+025450FM-12+001099999V0201601N007219999999N0000001N9-00891+99999099671ADDGF105991999999999999999999
0029028750999991906031206004+65017+025450FM-12+001099999V0201601N008219999999N0000001N9-00611+99999099181ADDGF108991999999999999999999
0029028750999991906031213004+65017+025450FM-12+001099999V0201401N008219999999N0000001N9-00391+99999099141ADDGF108991999999999999999999
0029028750999991906031220004+65017+025450FM-12+001099999V0201401N007219999999N0000001N9-00671+99999098761ADDGF108991999999999999999999
0029028750999991906031306004+65017+025450FM-12+001099999V0201401N007219999999N0000001N9-00721+99999097921ADDGF108991999999999999999999
0035028750999991906031313004+65017+025450FM-12+001099999V0201401N007219999999N0000001N9-00171+99999097521ADDGF108991999999999999999999MW1721
0029028750999991906031320004+65017+025450FM-12+001099999V0201401N007219999999N0000001N9-00281+99999098021ADDGF108991999999999999999999
0029028750999991906031406004+65017+025450FM-12+001099999V0201101N007219999999N0000001N9-00391+99999097711ADDGF108991999999999999999999
0029028750999991906031413004+65017+025450FM-12+001099999V0201601N006219999999N0000001N9-00221+99999098271ADDGF108991999999999999999999
0029028750999991906031420004+65017+025450FM-12+001099999V0201401N003119999999N0000001N9-00391+99999099201ADDGF100991999999999999999999
0029028750999991906031506004+65017+025450FM-12+001099999V0201401N003119999999N0000001N9-01391+99999099821ADDGF100991999999999999999999
0029028750999991906031513004+65017+025450FM-12+001099999V0202301N003119999999N0000001N9-00611+99999100081ADDGF100991999999999999999999
0029028750999991906031520004+65017+025450FM-12+001099999V0209991C000019999999N0000001N9-00561+99999100141ADDGF103991999999999999999999
0029028750999991906031606004+65017+025450FM-12+001099999V0201101N003119999999N0000001N9-00671+99999100271ADDGF108991999999999999999999
0029028750999991906031613004+65017+025450FM-12+001099999V0201101N003119999999N0000001N9-00171+99999100281ADDGF100991999999999999999999
0029028750999991906031620004+65017+025450FM-12+001099999V0201101N002119999999N0000001N9-00501+99999100601ADDGF100991999999999999999999
0029028750999991906031706004+65017+025450FM-12+001099999V0201401N003119999999N0000001N9-01331+99999100791ADDGF107991999999999999999999
0029028750999991906031713004+65017+025450FM-12+001099999V0201401N003119999999N0000001N9-00281+99999100761ADDGF106991999999999999999999
0035028750999991906031720004+65017+025450FM-12+001099999V0201401N006219999999N0000001N9-00391+99999100231ADDGF108991999999999999999999MW1721
0029028750999991906031806004+65017+025450FM-12+001099999V0201101N004119999999N0000001N9-00781+99999099841ADDGF108991999999999999999999
0029028750999991906031813004+65017+025450FM-12+001099999V0201101N004119999999N0000001N9-00441+99999099871ADDGF108991999999999999999999
0029028750999991906031820004+65017+025450FM-12+001099999V0200901N003119999999N0000001N9-00441+99999100071ADDGF108991999999999999999999
0029028750999991906031906004+65017+025450FM-12+001099999V0200501N003119999999N0000001N9-00501+99999100101ADDGF104991999999999999999999
0029028750999991906031913004+65017+025450FM-12+001099999V0200201N005119999999N0000001N9-00391+99999100081ADDGF100991999999999999999999
0029028750999991906031920004+65017+025450FM-12+001099999V0200201N005119999999N0000001N9-00721+99999100471ADDGF108991999999999999999999
0029028750999991906032006004+65017+025450FM-12+001099999V0200201N001019999999N0000001N9-00611+99999100831ADDGF108991999999999999999999
0029028750999991906032013004+65017+025450FM-12+001099999V0203601N004119999999N0000001N9-00111+99999101041ADDGF104991999999999999999999
0029028750999991906032020004+65017+025450FM-12+001099999V0200701N003119999999N0000001N9-00501+99999101461ADDGF100991999999999999999999
0029028750999991906032106004+65017+025450FM-12+001099999V0200501N004119999999N0000001N9-00721+99999101631ADDGF105991999999999999999999
0029028750999991906032113004+65017+025450FM-12+001099999V0200501N004119999999N0000001N9+00001+99999101861ADDGF100991999999999999999999
0029028750999991906032120004+65017+025450FM-12+001099999V0200901N003119999999N0000001N9-00561+99999102151ADDGF100991999999999999999999
0029028750999991906032206004+65017+025450FM-12+001099999V0209991C000019999999N0000001N9-01221+99999101901ADDGF100991999999999999999999
0029028750999991906032213004+65017+025450FM-12+001099999V0202701N003119999999N0000001N9-00111+99999101671ADDGF100991999999999999999999
0029028750999991906032220004+65017+025450FM-12+001099999V0209991C000019999999N0000001N9-00391+99999101551ADDGF100991999999999999999999
0029028750999991906032306004+65017+025450FM-12+001099999V0201801N003119999999N0000001N9-00611+99999100751ADDGF102991999999999999999999
0029028750999991906032313004+65017+025450FM-12+001099999V0202701N007219999999N0000001N9+00221+99999100341ADDGF105991999999999999999999
0029028750999991906032320004+65017+025450FM-12+001099999V0202301N008219999999N0000001N9+00061+99999100711ADDGF106991999999999999999999
0029028750999991906032406004+65017+025450FM-12+001099999V0203601N003119999999N0000001N9-01891+99999101431ADDGF100991999999999999999999
0029028750999991906032413004+65017+025450FM-12+001099999V0202701N002119999999N0000001N9-00331+99999101481ADDGF100991999999999999999999
0029028750999991906032420004+65017+025450FM-12+001099999V0200501N002119999999N0000001N9-00941+99999101511ADDGF100991999999999999999999
0029028750999991906032506004+65017+025450FM-12+001099999V0200901N003119999999N0000001N9-01331+99999101201ADDGF100991999999999999999999
0029028750999991906032513004+65017+025450FM-12+001099999V0200701N004119999999N0000001N9-00281+99999101231ADDGF100991999999999999999999
0029028750999991906032520004+65017+025450FM-12+001099999V0200501N003119999999N0000001N9-00941+99999101181ADDGF100991999999999999999999
0029028750999991906032606004+65017+025450FM-12+001099999V0200501N001019999999N0000001N9-01501+99999101071ADDGF100991999999999999999999
0029028750999991906032613004+65017+025450FM-12+001099999V0202701N002119999999N0000001N9-01001+99999100741ADDGF108991999999999999999999
0029028750999991906032620004+65017+025450FM-12+001099999V0201801N004119999999N0000001N9-00941+99999100081ADDGF108991999999999999999999
0029028750999991906032706004+65017+025450FM-12+001099999V0201401N004119999999N0000001N9-01001+99999099601ADDGF108991999999999999999999
0029028750999991906032713004+65017+025450FM-12+001099999V0200901N004119999999N0000001N9-00441+99999099871ADDGF108991999999999999999999
0029028750999991906032720004+65017+025450FM-12+001099999V0209991C000019999999N0000001N9-00721+99999099551ADDGF108991999999999999999999
0029028750999991906032806004+65017+025450FM-12+001099999V0209991C000019999999N0000001N9-01061+99999099781ADDGF108991999999999999999999
0029028750999991906032813004+65017+025450FM-12+001099999V0201401N002119999999N0000001N9-00611+99999099031ADDGF108991999999999999999999
0029028750999991906032820004+65017+025450FM-12+001099999V0200901N004119999999N0000001N9-01001+99999098841ADDGF100991999999999999999999
0029028750999991906032906004+65017+025450FM-12+001099999V0200901N004119999999N0000001N9-01671+99999099221ADDGF100991999999999999999999
0029028750999991906032913004+65017+025450FM-12+001099999V0203601N003119999999N0000001N9-00671+99999099641ADDGF100991999999999999999999
0029028750999991906032920004+65017+025450FM-12+001099999V0200201N002119999999N0000001N9-01281+99999100191ADDGF100991999999999999999999
0029028750999991906033006004+65017+025450FM-12+001099999V0209991C000019999999N0000001N9-01501+99999100661ADDGF100991999999999999999999
0029028750999991906033013004+65017+025450FM-12+001099999V0202701N003119999999N0000001N9-00721+99999100841ADDGF100991999999999999999999
0029028750999991906033020004+65017+025450FM-12+001099999V0209991C000019999999N0000001N9-00941+99999100521ADDGF100991999999999999999999
0029028750999991906033106004+65017+025450FM-12+001099999V0201401N004119999999N0000001N9-01501+99999100021ADDGF100991999999999999999999
0029028750999991906033113004+65017+025450FM-12+001099999V0201101N006219999999N0000001N9-00611+99999099701ADDGF108991999999999999999999
0029028750999991906033120004+65017+025450FM-12+001099999V0201401N002119999999N0000001N9-00441+99999099921ADDGF108991999999999999999999
0029028750999991906040106004+65017+025450FM-12+001099999V0209991C000019999999N0000001N9-00781+99999101221ADDGF100991999999999999999999
0029028750999991906040113004+65017+025450FM-12+001099999V0202701N002119999999N0000001N9-00331+99999101511ADDGF108991999999999999999999
0029028750999991906040120004+65017+025450FM-12+001099999V0202301N002119999999N0000001N9-00221+99999101561ADDGF108991999999999999999999
0029028750999991906040206004+65017+025450FM-12+001099999V0202701N001019999999N0000001N9+00001+99999101261ADDGF102991999999999999999999
0029028750999991906040213004+65017+025450FM-12+001099999V0202701N005119999999N0000001N9+00331+99999101661ADDGF102991999999999999999999
0029028750999991906040220004+65017+025450FM-12+001099999V0202501N006219999999N0000001N9+00061+99999102351ADDGF100991999999999999999999
0029028750999991906040306004+65017+025450FM-12+001099999V0202701N007219999999N0000001N9+00501+99999101701ADDGF100991999999999999999999
0029028750999991906040313004+65017+025450FM-12+001099999V0202701N008719999999N0000001N9+00331+99999101551ADDGF107991999999999999999999
0029028750999991906040320004+65017+025450FM-12+001099999V0202701N009819999999N0000001N9+00171+99999101391ADDGF100991999999999999999999
0029028750999991906040406004+65017+025450FM-12+001099999V0202701N009819999999N0000001N9+00221+99999101351ADDGF108991999999999999999999
0029028750999991906040413004+65017+025450FM-12+001099999V0203201N007219999999N0000001N9+00331+99999101541ADDGF106991999999999999999999
0029028750999991906040420004+65017+025450FM-12+001099999V0202701N006219999999N0000001N9+00111+99999101781ADDGF100991999999999999999999
0029028750999991906040506004+65017+025450FM-12+001099999V0201801N003119999999N0000001N9-00111+99999101911ADDGF100991999999999999999999
0029028750999991906040513004+65017+025450FM-12+001099999V0202701N002119999999N0000001N9+01001+99999101861ADDGF105991999999999999999999
0029028750999991906040520004+65017+025450FM-12+001099999V0201801N004119999999N0000001N9+00111+99999101901ADDGF100991999999999999999999
0029028750999991906040606004+65017+025450FM-12+001099999V0201801N004119999999N0000001N9+00111+99999101511ADDGF100991999999999999999999
0029028750999991906040613004+65017+025450FM-12+001099999V0202701N006219999999N0000001N9+00501+99999101641ADDGF100991999999999999999999
0029028750999991906040620004+65017+025450FM-12+001099999V0202701N003119999999N0000001N9+00061+99999102101ADDGF100991999999999999999999
0029028750999991906040706004+65017+025450FM-12+001099999V0201801N003119999999N0000001N9-00111+99999102511ADDGF100991999999999999999999
0029028750999991906040713004+65017+025450FM-12+001099999V0202301N005119999999N0000001N9+00611+99999102341ADDGF102991999999999999999999
0029028750999991906040720004+65017+025450FM-12+001099999V0202701N005119999999N0000001N9+00331+99999101841ADDGF103991999999999999999999
0029028750999991906040806004+65017+025450FM-12+001099999V0201801N004119999999N0000001N9+00171+99999101321ADDGF100991999999999999999999
0029028750999991906040813004+65017+025450FM-12+001099999V0202701N006219999999N0000001N9+00331+99999101151ADDGF108991999999999999999999
0029028750999991906040820004+65017+025450FM-12+001099999V0203201N010819999999N0000001N9+00061+99999101111ADDGF100991999999999999999999
0029028750999991906040906004+65017+025450FM-12+001099999V0202701N003119999999N0000001N9-00111+99999101631ADDGF107991999999999999999999
0029028750999991906040913004+65017+025450FM-12+001099999V0202501N004119999999N0000001N9+00501+99999101071ADDGF108991999999999999999999
0029028750999991906040920004+65017+025450FM-12+001099999V0202901N009819999999N0000001N9+00281+99999100791ADDGF100991999999999999999999
0029028750999991906041006004+65017+025450FM-12+001099999V0202701N003119999999N0000001N9+00221+99999101031ADDGF100991999999999999999999
0029028750999991906041013004+65017+025450FM-12+001099999V0202701N004119999999N0000001N9+00441+99999101221ADDGF108991999999999999999999
0029028750999991906041020004+65017+025450FM-12+001099999V0203201N004119999999N0000001N9+00221+99999101081ADDGF100991999999999999999999
0029028750999991906041106004+65017+025450FM-12+001099999V0203201N003119999999N0000001N9+00281+99999100521ADDGF103991999999999999999999
0029028750999991906041113004+65017+025450FM-12+001099999V0202701N009819999999N0000001N9+00561+99999100221ADDGF100991999999999999999999
0029028750999991906041120004+65017+025450FM-12+001099999V0202701N008219999999N0000001N9+00001+99999101101ADDGF100991999999999999999999
0029028750999991906041206004+65017+025450FM-12+001099999V0203201N003119999999N0000001N9-00281+99999102341ADDGF100991999999999999999999
0029028750999991906041213004+65017+025450FM-12+001099999V0203201N002119999999N0000001N9-00281+99999102591ADDGF102991999999999999999999
0029028750999991906041220004+65017+025450FM-12+001099999V0203201N001019999999N0000001N9+00111+99999102631ADDGF108991999999999999999999
0029028750999991906041306004+65017+025450FM-12+001099999V0202701N001019999999N0000001N9+00111+99999101671ADDGF100991999999999999999999
0029028750999991906041313004+65017+025450FM-12+001099999V0209991C000019999999N0000001N9+00441+99999101481ADDGF100991999999999999999999
0029028750999991906041320004+65017+025450FM-12+001099999V0209991C000019999999N0000001N9+00171+99999101301ADDGF100991999999999999999999
0029028750999991906041406004+65017+025450FM-12+001099999V0201801N003119999999N0000001N9+00281+99999100741ADDGF100991999999999999999999
0029028750999991906041413004+65017+025450FM-12+001099999V0202701N003119999999N0000001N9+00671+99999100751ADDGF100991999999999999999999
0029028750999991906041420004+65017+025450FM-12+001099999V0202901N004119999999N0000001N9+00111+99999101221ADDGF100991999999999999999999
0029028750999991906041506004+65017+025450FM-12+001099999V0201801N003119999999N0000001N9+00111+99999101061ADDGF102991999999999999999999
0029028750999991906041513004+65017+025450FM-12+001099999V0202301N008219999999N0000001N9+00611+99999100871ADDGF104991999999999999999999
0029028750999991906041520004+65017+025450FM-12+001099999V0202701N005119999999N0000001N9+00501+99999099741ADDGF108991999999999999999999
0029028750999991906041606004+65017+025450FM-12+001099999V0202701N004119999999N0000001N9+00171+99999098921ADDGF108991999999999999999999
0029028750999991906041613004+65017+025450FM-12+001099999V0202701N012919999999N0000001N9+00171+99999099471ADDGF100991999999999999999999
0029028750999991906041620004+65017+025450FM-12+001099999V0202701N003119999999N0000001N9-00061+99999099921ADDGF104991999999999999999999
0029028750999991906041706004+65017+025450FM-12+001099999V0203201N003119999999N0000001N9-00221+99999101001ADDGF100991999999999999999999
0029028750999991906041713004+65017+025450FM-12+001099999V0202701N005119999999N0000001N9+00171+99999101261ADDGF101991999999999999999999
0029028750999991906041720004+65017+025450FM-12+001099999V0209991C000019999999N0000001N9-00111+99999101151ADDGF100991999999999999999999
0029028750999991906041806004+65017+025450FM-12+001099999V0201401N003119999999N0000001N9-00221+99999100951ADDGF100991999999999999999999
0029028750999991906041813004+65017+025450FM-12+001099999V0203201N005119999999N0000001N9+00171+99999101041ADDGF101991999999999999999999
0029028750999991906041820004+65017+025450FM-12+001099999V0209991C000019999999N0000001N9-00221+99999101161ADDGF100991999999999999999999
0029028750999991906041906004+65017+025450FM-12+001099999V0209991C000019999999N0000001N9-00111+99999101231ADDGF100991999999999999999999
0029028750999991906041913004+65017+025450FM-12+001099999V0203201N004119999999N0000001N9+00221+99999101391ADDGF100991999999999999999999
0029028750999991906041920004+65017+025450FM-12+001099999V0200501N002119999999N0000001N9-00111+99999101431ADDGF100991999999999999999999
0029028750999991906042006004+65017+025450FM-12+001099999V0200901N003119999999N0000001N9+00111+99999101781ADDGF100991999999999999999999
0029028750999991906042013004+65017+025450FM-12+001099999V0200901N007219999999N0000001N9+00221+99999101341ADDGF108991999999999999999999
0035028750999991906042020004+65017+025450FM-12+001099999V0200901N004119999999N0000001N9+00061+99999100631ADDGF108991999999999999999999MW1721
0029028750999991906042106004+65017+025450FM-12+001099999V0202501N004119999999N0000001N9+00111+99999098911ADDGF108991999999999999999999
0029028750999991906042113004+65017+025450FM-12+001099999V0202701N004119999999N0000001N9+00221+99999099711ADDGF100991999999999999999999
0029028750999991906042120004+65017+025450FM-12+001099999V0201801N004119999999N0000001N9+00441+99999099541ADDGF108991999999999999999999
0029028750999991906042206004+65017+025450FM-12+001099999V0201101N004119999999N0000001N9+00501+99999099361ADDGF108991999999999999999999
0029028750999991906042213004+65017+025450FM-12+001099999V0202701N008719999999N0000001N9+00721+99999099561ADDGF104991999999999999999999
0029028750999991906042220004+65017+025450FM-12+001099999V0202701N001019999999N0000001N9+00221+99999099951ADDGF106991999999999999999999
0029028750999991906042306004+65017+025450FM-12+001099999V0202301N004119999999N0000001N9+00281+99999100201ADDGF108991999999999999999999
0029028750999991906042313004+65017+025450FM-12+001099999V0203201N003119999999N0000001N9+00281+99999100461ADDGF108991999999999999999999
0035028750999991906042320004+65017+025450FM-12+001099999V0202301N005119999999N0000001N9+00221+99999099791ADDGF108991999999999999999999MW1621
0029028750999991906042406004+65017+025450FM-12+001099999V0201801N003119999999N0000001N9+00221+99999099661ADDGF108991999999999999999999
0029028750999991906042413004+65017+025450FM-12+001099999V0203201N008719999999N0000001N9-00061+99999099961ADDGF108991999999999999999999
0029028750999991906042420004+65017+025450FM-12+001099999V0202301N007219999999N0000001N9-00111+99999100401ADDGF108991999999999999999999
0029028750999991906042506004+65017+025450FM-12+001099999V0201401N003119999999N0000001N9+00001+99999101381ADDGF108991999999999999999999
0029028750999991906042513004+65017+025450FM-12+001099999V0203201N004119999999N0000001N9+00441+99999101481ADDGF100991999999999999999999
0029028750999991906042520004+65017+025450FM-12+001099999V0203201N003119999999N0000001N9+00001+99999101601ADDGF100991999999999999999999
0029028750999991906042606004+65017+025450FM-12+001099999V0200901N004119999999N0000001N9+00111+99999101921ADDGF100991999999999999999999
0029028750999991906042613004+65017+025450FM-12+001099999V0200901N003119999999N0000001N9+00831+99999101781ADDGF104991999999999999999999
0035028750999991906042620004+65017+025450FM-12+001099999V0201401N003119999999N0000001N9+00331+99999101481ADDGF108991999999999999999999MW1621
0029028750999991906042706004+65017+025450FM-12+001099999V0200501N003119999999N0000001N9+00111+99999100681ADDGF103991999999999999999999
0029028750999991906042713004+65017+025450FM-12+001099999V0203201N003119999999N0000001N9+00441+99999100521ADDGF108991999999999999999999
0029028750999991906042720004+65017+025450FM-12+001099999V0209991C000019999999N0000001N9+00391+99999100121ADDGF108991999999999999999999
0029028750999991906042806004+65017+025450FM-12+001099999V0201801N002119999999N0000001N9+00781+99999099681ADDGF108991999999999999999999
0029028750999991906042813004+65017+025450FM-12+001099999V0202701N001019999999N0000001N9+00221+99999099791ADDGF108991999999999999999999
0035028750999991906042820004+65017+025450FM-12+001099999V0203601N002119999999N0000001N9+00061+99999099431ADDGF108991999999999999999999MW1621
0029028750999991906042906004+65017+025450FM-12+001099999V0202901N005119999999N0000001N9+00221+99999099741ADDGF100991999999999999999999
0029028750999991906042913004+65017+025450FM-12+001099999V0202701N004119999999N0000001N9+00391+99999100381ADDGF108991999999999999999999
0029028750999991906042920004+65017+025450FM-12+001099999V0202701N003119999999N0000001N9+00221+99999100511ADDGF108991999999999999999999
0029028750999991906043006004+65017+025450FM-12+001099999V0209991C000019999999N0000001N9+00501+99999101001ADDGF100991999999999999999999
0029028750999991906043013004+65017+025450FM-12+001099999V0201401N003119999999N0000001N9+01611+99999101471ADDGF100991999999999999999999
0029028750999991906043020004+65017+025450FM-12+001099999V0201401N001019999999N0000001N9+00721+99999101561ADDGF100991999999999999999999
0029028750999991906050106004+65017+025450FM-12+001099999V0201401N003119999999N0000001N9+01171+99999101391ADDGF100991999999999999999999
0029028750999991906050113004+65017+025450FM-12+001099999V0201401N006219999999N0000001N9+01721+99999101041ADDGF108991999999999999999999
0029028750999991906050120004+65017+025450FM-12+001099999V0201401N004119999999N0000001N9+01171+99999100991ADDGF106991999999999999999999
0029028750999991906050206004+65017+025450FM-12+001099999V0201801N004119999999N0000001N9+01001+99999101341ADDGF106991999999999999999999
0029028750999991906050213004+65017+025450FM-12+001099999V0203201N002119999999N0000001N9+00941+99999101631ADDGF108991999999999999999999
0029028750999991906050220004+65017+025450FM-12+001099999V0200901N001019999999N0000001N9+00391+99999102041ADDGF100991999999999999999999
0029028750999991906050306004+65017+025450FM-12+001099999V0201401N003119999999N0000001N9+00721+99999102541ADDGF100991999999999999999999
0029028750999991906050313004+65017+025450FM-12+001099999V0201401N004119999999N0000001N9+01611+99999102261ADDGF103991999999999999999999
0035028750999991906050320004+65017+025450FM-12+001099999V0202301N004119999999N0000001N9+01171+99999102061ADDGF108991999999999999999999MW1621
0029028750999991906050406004+65017+025450FM-12+001099999V0203201N003119999999N0000001N9+00501+99999102031ADDGF108991999999999999999999
0029028750999991906050413004+65017+025450FM-12+001099999V0203201N002119999999N0000001N9+00781+99999102381ADDGF100991999999999999999999
0029028750999991906050420004+65017+025450FM-12+001099999V0203201N003119999999N0000001N9+00501+99999102471ADDGF100991999999999999999999
0029028750999991906050506004+65017+025450FM-12+001099999V0201801N002119999999N0000001N9+00941+99999102821ADDGF101991999999999999999999
0029028750999991906050513004+65017+025450FM-12+001099999V0201801N004119999999N0000001N9+01891+99999102551ADDGF105991999999999999999999
0035028750999991906050520004+65017+025450FM-12+001099999V0201801N001019999999N0000001N9+00831+99999102501ADDGF102991999999999999999999MW1621
0029028750999991906050606004+65017+025450FM-12+001099999V0203201N003119999999N0000001N9+01221+99999102281ADDGF108991999999999999999999
0029028750999991906050613004+65017+025450FM-12+001099999V0203201N004119999999N0000001N9+00831+99999102391ADDGF100991999999999999999999
0029028750999991906050620004+65017+025450FM-12+001099999V0202301N002119999999N0000001N9+00831+99999102281ADDGF100991999999999999999999
0029028750999991906050706004+65017+025450FM-12+001099999V0202301N003119999999N0000001N9+01111+99999101791ADDGF108991999999999999999999
0029028750999991906050713004+65017+025450FM-12+001099999V0202701N008219999999N0000001N9+01221+99999101511ADDGF108991999999999999999999
0029028750999991906050720004+65017+025450FM-12+001099999V0202701N004119999999N0000001N9+00831+99999101401ADDGF106991999999999999999999
0029028750999991906050806004+65017+025450FM-12+001099999V0209991C000019999999N0000001N9+00831+99999101191ADDGF106991999999999999999999
0029028750999991906050813004+65017+025450FM-12+001099999V0202501N006219999999N0000001N9+01221+99999101201ADDGF100991999999999999999999
0029028750999991906050820004+65017+025450FM-12+001099999V0202501N005119999999N0000001N9+00831+99999101021ADDGF106991999999999999999999
0029028750999991906050906004+65017+025450FM-12+001099999V0202701N004119999999N0000001N9+00891+99999101151ADDGF100991999999999999999999
0029028750999991906050913004+65017+025450FM-12+001099999V0203201N003119999999N0000001N9+00941+99999101471ADDGF103991999999999999999999
0029028750999991906050920004+65017+025450FM-12+001099999V0209991C000019999999N0000001N9+00441+99999101401ADDGF108991999999999999999999
0029028750999991906051006004+65017+025450FM-12+001099999V0200901N003119999999N0000001N9+00281+99999101151ADDGF108991999999999999999999
0029028750999991906051013004+65017+025450FM-12+001099999V0200901N005119999999N0000001N9+01001+99999100881ADDGF106991999999999999999999
0029028750999991906051020004+65017+025450FM-12+001099999V0200901N003119999999N0000001N9+00111+99999100551ADDGF108991999999999999999999
0029028750999991906051106004+65017+025450FM-12+001099999V0200901N002119999999N0000001N9+00891+99999100321ADDGF108991999999999999999999
0029028750999991906051113004+65017+025450FM-12+001099999V0203601N003119999999N0000001N9+01281+99999100401ADDGF108991999999999999999999
0029028750999991906051120004+65017+025450FM-12+001099999V0209991C000019999999N0000001N9+00891+99999100221ADDGF108991999999999999999999
0029028750999991906051206004+65017+025450FM-12+001099999V0202301N007219999999N0000001N9+00391+99999099841ADDGF108991999999999999999999
0029028750999991906051213004+65017+025450FM-12+001099999V0202701N009819999999N0000001N9+00281+99999100041ADDGF108991999999999999999999
0029028750999991906051220004+65017+025450FM-12+001099999V0202701N008219999999N0000001N9+00111+99999101311ADDGF108991999999999999999999
0029028750999991906051306004+65017+025450FM-12+001099999V0202501N004119999999N0000001N9+00061+99999101801ADDGF102991999999999999999999
0029028750999991906051313004+65017+025450FM-12+001099999V0202501N004119999999N0000001N9+00281+99999102111ADDGF101991999999999999999999
0029028750999991906051320004+65017+025450FM-12+001099999V0202501N003119999999N0000001N9+00061+99999102221ADDGF100991999999999999999999
0029028750999991906051406004+65017+025450FM-12+001099999V0202701N001019999999N0000001N9+00111+99999102471ADDGF100991999999999999999999
0029028750999991906051413004+65017+025450FM-12+001099999V0202701N003119999999N0000001N9+00891+99999102281ADDGF101991999999999999999999
0029028750999991906051420004+65017+025450FM-12+001099999V0201401N005119999999N0000001N9+00671+99999101841ADDGF108991999999999999999999
0029028750999991906051506004+65017+025450FM-12+001099999V0201801N004119999999N0000001N9+00781+99999101271ADDGF108991999999999999999999
0029028750999991906051513004+65017+025450FM-12+001099999V0203201N005119999999N0000001N9+00721+99999100961ADDGF108991999999999999999999
0029028750999991906051520004+65017+025450FM-12+001099999V0209991C000019999999N0000001N9+00561+99999100921ADDGF108991999999999999999999
0029028750999991906051606004+65017+025450FM-12+001099999V0200501N004119999999N0000001N9+00441+99999101081ADDGF104991999999999999999999
0029028750999991906051613004+65017+025450FM-12+001099999V0200901N004119999999N0000001N9+01331+99999101041ADDGF100991999999999999999999
0029028750999991906051620004+65017+025450FM-12+001099999V0200901N003119999999N0000001N9+01111+99999100911ADDGF108991999999999999999999
0029028750999991906051706004+65017+025450FM-12+001099999V0200901N008219999999N0000001N9+01001+99999100761ADDGF108991999999999999999999
0029028750999991906051713004+65017+025450FM-12+001099999V0201401N005119999999N0000001N9+02281+99999100621ADDGF104991999999999999999999
0029028750999991906051720004+65017+025450FM-12+001099999V0201801N003119999999N0000001N9+01441+99999100641ADDGF106991999999999999999999
0029028750999991906051806004+65017+025450FM-12+001099999V0202701N002119999999N0000001N9+01001+99999100831ADDGF108991999999999999999999
0035028750999991906051813004+65017+025450FM-12+001099999V0202301N001019999999N0000001N9+00941+99999100901ADDGF108991999999999999999999MW1621
0029028750999991906051820004+65017+025450FM-12+001099999V0203601N005119999999N0000001N9+00561+99999101161ADDGF108991999999999999999999
0029028750999991906051906004+65017+025450FM-12+001099999V0203601N006219999999N0000001N9+00441+99999101481ADDGF108991999999999999999999
0029028750999991906051913004+65017+025450FM-12+001099999V0201401N004119999999N0000001N9+00501+99999101461ADDGF108991999999999999999999
0029028750999991906051920004+65017+025450FM-12+001099999V0200901N003119999999N0000001N9+00441+99999101321ADDGF108991999999999999999999
0035028750999991906052006004+65017+025450FM-12+001099999V0200901N004119999999N0000001N9+00171+99999100871ADDGF108991999999999999999999MW1621
0035028750999991906052013004+65017+025450FM-12+001099999V0200901N005119999999N0000001N9+00111+99999100581ADDGF108991999999999999999999MW1621
0035028750999991906052020004+65017+025450FM-12+001099999V0200501N002119999999N0000001N9+00221+99999099831ADDGF108991999999999999999999MW1621
0029028750999991906052106004+65017+025450FM-12+001099999V0202701N004119999999N0000001N9+00611+99999099281ADDGF108991999999999999999999
0029028750999991906052113004+65017+025450FM-12+001099999V0202701N004119999999N0000001N9+00611+99999100141ADDGF103991999999999999999999
0029028750999991906052120004+65017+025450FM-12+001099999V0202301N001019999999N0000001N9+00501+99999100911ADDGF100991999999999999999999
0029028750999991906052206004+65017+025450FM-12+001099999V0202701N004119999999N0000001N9+00671+99999101401ADDGF100991999999999999999999
0029028750999991906052213004+65017+025450FM-12+001099999V0203201N004119999999N0000001N9+00831+99999101581ADDGF102991999999999999999999
0029028750999991906052220004+65017+025450FM-12+001099999V0209991C000019999999N0000001N9+00671+99999101581ADDGF101991999999999999999999
0029028750999991906052306004+65017+025450FM-12+001099999V0209991C000019999999N0000001N9+00891+99999101841ADDGF100991999999999999999999
0029028750999991906052313004+65017+025450FM-12+001099999V0203201N004119999999N0000001N9+01331+99999101551ADDGF100991999999999999999999
0029028750999991906052320004+65017+025450FM-12+001099999V0209991C000019999999N0000001N9+00721+99999101601ADDGF100991999999999999999999
0029028750999991906052406004+65017+025450FM-12+001099999V0203201N004119999999N0000001N9+00891+99999101871ADDGF100991999999999999999999
0029028750999991906052413004+65017+025450FM-12+001099999V0203201N004119999999N0000001N9+01001+99999101961ADDGF102991999999999999999999
0029028750999991906052420004+65017+025450FM-12+001099999V0209991C000019999999N0000001N9+00671+99999102041ADDGF100991999999999999999999
0029028750999991906052506004+65017+025450FM-12+001099999V0209991C000019999999N0000001N9+00721+99999102311ADDGF108991999999999999999999
0029028750999991906052513004+65017+025450FM-12+001099999V0209991C000019999999N0000001N9+01171+99999102121ADDGF103991999999999999999999
0029028750999991906052520004+65017+025450FM-12+001099999V0209991C000019999999N0000001N9+00561+99999102151ADDGF100991999999999999999999
0029028750999991906052606004+65017+025450FM-12+001099999V0200501N003119999999N0000001N9+00331+99999102321ADDGF100991999999999999999999
0029028750999991906052613004+65017+025450FM-12+001099999V0203601N003119999999N0000001N9+00941+99999102201ADDGF102991999999999999999999
0029028750999991906052620004+65017+025450FM-12+001099999V0200501N003119999999N0000001N9+00611+99999102301ADDGF103991999999999999999999
0029028750999991906052706004+65017+025450FM-12+001099999V0201801N003119999999N0000001N9+00721+99999102521ADDGF100991999999999999999999
0029028750999991906052713004+65017+025450FM-12+001099999V0203201N007219999999N0000001N9+00831+99999102561ADDGF101991999999999999999999
0029028750999991906052720004+65017+025450FM-12+001099999V0200201N001019999999N0000001N9+00781+99999102511ADDGF102991999999999999999999
0029028750999991906052806004+65017+025450FM-12+001099999V0201401N003119999999N0000001N9+00891+99999102281ADDGF108991999999999999999999
0029028750999991906052813004+65017+025450FM-12+001099999V0209991C000019999999N0000001N9+01171+99999101951ADDGF108991999999999999999999
0035028750999991906052820004+65017+025450FM-12+001099999V0209991C000019999999N0000001N9+00831+99999101641ADDGF108991999999999999999999MW1621
0029028750999991906052906004+65017+025450FM-12+001099999V0201801N004119999999N0000001N9+01221+99999101151ADDGF106991999999999999999999
0029028750999991906052913004+65017+025450FM-12+001099999V0201801N004119999999N0000001N9+01831+99999100721ADDGF105991999999999999999999
0029028750999991906052920004+65017+025450FM-12+001099999V0201401N003119999999N0000001N9+01221+99999100631ADDGF102991999999999999999999
0029028750999991906053006004+65017+025450FM-12+001099999V0201401N003119999999N0000001N9+01391+99999100861ADDGF100991999999999999999999
0029028750999991906053013004+65017+025450FM-12+001099999V0201401N003119999999N0000001N9+01891+99999100831ADDGF105991999999999999999999
0029028750999991906053020004+65017+025450FM-12+001099999V0201401N005119999999N0000001N9+01391+99999100871ADDGF107991999999999999999999
0029028750999991906053106004+65017+025450FM-12+001099999V0200901N003119999999N0000001N9+01391+99999101031ADDGF105991999999999999999999
0029028750999991906053113004+65017+025450FM-12+001099999V0200701N004119999999N0000001N9+02111+99999100751ADDGF105991999999999999999999
0029028750999991906053120004+65017+025450FM-12+001099999V0201401N003119999999N0000001N9+01501+99999100751ADDGF101991999999999999999999
0029028750999991906060106004+65017+025450FM-12+001099999V0201401N003119999999N0000001N9+01331+99999100551ADDGF100991999999999999999999
0029028750999991906060113004+65017+025450FM-12+001099999V0201401N006219999999N0000001N9+01941+99999100441ADDGF104991999999999999999999
0035028750999991906060120004+65017+025450FM-12+001099999V0201101N007219999999N0000001N9+01221+99999100351ADDGF106991999999999999999999MW1621
0029028750999991906060206004+65017+025450FM-12+001099999V0200701N003119999999N0000001N9+01111+99999099921ADDGF107991999999999999999999
0029028750999991906060213004+65017+025450FM-12+001099999V0200901N007219999999N0000001N9+01611+99999099521ADDGF103991999999999999999999
0035028750999991906060220004+65017+025450FM-12+001099999V0200901N005119999999N0000001N9+01331+99999099301ADDGF108991999999999999999999MW1621
0029028750999991906060306004+65017+025450FM-12+001099999V0201401N002119999999N0000001N9+01221+99999099421ADDGF108991999999999999999999
0035028750999991906060313004+65017+025450FM-12+001099999V0201801N003119999999N0000001N9+01331+99999099601ADDGF108991999999999999999999MW1621
0029028750999991906060320004+65017+025450FM-12+001099999V0201801N002119999999N0000001N9+01111+99999099641ADDGF103991999999999999999999
0029028750999991906060406004+65017+025450FM-12+001099999V0203201N002119999999N0000001N9+01281+99999099581ADDGF108991999999999999999999
0029028750999991906060413004+65017+025450FM-12+001099999V0203201N003119999999N0000001N9+01221+99999099861ADDGF107991999999999999999999
0029028750999991906060420004+65017+025450FM-12+001099999V0203601N004119999999N0000001N9+01171+99999100071ADDGF105991999999999999999999
0029028750999991906060506004+65017+025450FM-12+001099999V0203201N007219999999N0000001N9+00941+99999100351ADDGF100991999999999999999999
0029028750999991906060513004+65017+025450FM-12+001099999V0203201N005119999999N0000001N9+01171+99999100671ADDGF102991999999999999999999
0029028750999991906060520004+65017+025450FM-12+001099999V0203201N003119999999N0000001N9+00891+99999101021ADDGF104991999999999999999999
0029028750999991906060606004+65017+025450FM-12+001099999V0200501N002119999999N0000001N9+00941+99999101231ADDGF108991999999999999999999
0029028750999991906060613004+65017+025450FM-12+001099999V0203201N003119999999N0000001N9+01001+99999101351ADDGF108991999999999999999999
0029028750999991906060620004+65017+025450FM-12+001099999V0203201N001019999999N0000001N9+00671+99999101431ADDGF104991999999999999999999
0029028750999991906060706004+65017+025450FM-12+001099999V0203601N003119999999N0000001N9+01001+99999101561ADDGF102991999999999999999999
0029028750999991906060713004+65017+025450FM-12+001099999V0203201N005119999999N0000001N9+01111+99999101831ADDGF103991999999999999999999
0029028750999991906060720004+65017+025450FM-12+001099999V0203201N004119999999N0000001N9+00891+99999102101ADDGF101991999999999999999999
0029028750999991906060806004+65017+025450FM-12+001099999V0202301N001019999999N0000001N9+01111+99999102241ADDGF100991999999999999999999
0029028750999991906060813004+65017+025450FM-12+001099999V0202701N007219999999N0000001N9+01331+99999102431ADDGF100991999999999999999999
0029028750999991906060820004+65017+025450FM-12+001099999V0202301N002119999999N0000001N9+01001+99999102351ADDGF108991999999999999999999
0029028750999991906060906004+65017+025450FM-12+001099999V0201801N005119999999N0000001N9+01111+99999102061ADDGF108991999999999999999999
0035028750999991906060913004+65017+025450FM-12+001099999V0202701N003119999999N0000001N9+01221+99999101961ADDGF108991999999999999999999MW1621
0029028750999991906060920004+65017+025450FM-12+001099999V0202301N003119999999N0000001N9+00831+99999102111ADDGF102991999999999999999999
0029028750999991906061006004+65017+025450FM-12+001099999V0200901N003119999999N0000001N9+01501+99999102151ADDGF100991999999999999999999
0029028750999991906061013004+65017+025450FM-12+001099999V0203201N005119999999N0000001N9+01331+99999102031ADDGF100991999999999999999999
0029028750999991906061020004+65017+025450FM-12+001099999V0200501N004119999999N0000001N9+00941+99999101921ADDGF100991999999999999999999
0029028750999991906061106004+65017+025450FM-12+001099999V0201401N003119999999N0000001N9+01441+99999101841ADDGF100991999999999999999999
0029028750999991906061113004+65017+025450FM-12+001099999V0203201N003119999999N0000001N9+01781+99999101791ADDGF102991999999999999999999
0029028750999991906061120004+65017+025450FM-12+001099999V0209991C000019999999N0000001N9+01501+99999101541ADDGF100991999999999999999999
0029028750999991906061206004+65017+025450FM-12+001099999V0202701N002119999999N0000001N9+01501+99999101391ADDGF100991999999999999999999
0029028750999991906061213004+65017+025450FM-12+001099999V0203201N005119999999N0000001N9+01611+99999101151ADDGF100991999999999999999999
0029028750999991906061220004+65017+025450FM-12+001099999V0209991C000019999999N0000001N9+01221+99999100921ADDGF100991999999999999999999
0029028750999991906061306004+65017+025450FM-12+001099999V0202701N004119999999N0000001N9+01001+99999100361ADDGF108991999999999999999999
0029028750999991906061313004+65017+025450FM-12+001099999V0202701N005119999999N0000001N9+01501+99999100381ADDGF102991999999999999999999
0029028750999991906061320004+65017+025450FM-12+001099999V0202701N003119999999N0000001N9+01111+99999100551ADDGF102991999999999999999999
0029028750999991906061406004+65017+025450FM-12+001099999V0202701N004119999999N0000001N9+01111+99999100901ADDGF108991999999999999999999
0029028750999991906061413004+65017+025450FM-12+001099999V0203201N007219999999N0000001N9+01561+99999101151ADDGF102991999999999999999999
0029028750999991906061420004+65017+025450FM-12+001099999V0202701N003119999999N0000001N9+00831+99999101311ADDGF100991999999999999999999
0029028750999991906061506004+65017+025450FM-12+001099999V0202301N002119999999N0000001N9+01391+99999101591ADDGF100991999999999999999999
0029028750999991906061513004+65017+025450FM-12+001099999V0202701N003119999999N0000001N9+01781+99999101661ADDGF101991999999999999999999
0029028750999991906061520004+65017+025450FM-12+001099999V0209991C000019999999N0000001N9+01281+99999101721ADDGF100991999999999999999999
0029028750999991906061606004+65017+025450FM-12+001099999V0203201N005119999999N0000001N9+01501+99999101791ADDGF100991999999999999999999
0029028750999991906061613004+65017+025450FM-12+001099999V0203201N007219999999N0000001N9+01501+99999102021ADDGF100991999999999999999999
0029028750999991906061620004+65017+025450FM-12+001099999V0203201N003119999999N0000001N9+01331+99999102071ADDGF100991999999999999999999
0029028750999991906061706004+65017+025450FM-12+001099999V0203201N004119999999N0000001N9+01391+99999101911ADDGF100991999999999999999999
0029028750999991906061713004+65017+025450FM-12+001099999V0202701N006219999999N0000001N9+01781+99999101361ADDGF100991999999999999999999
0029028750999991906061720004+65017+025450FM-12+001099999V0203401N002119999999N0000001N9+01611+99999101191ADDGF100991999999999999999999
0029028750999991906061806004+65017+025450FM-12+001099999V0203601N004119999999N0000001N9+00941+99999101461ADDGF100991999999999999999999
0029028750999991906061813004+65017+025450FM-12+001099999V0203201N008219999999N0000001N9+01171+99999101781ADDGF103991999999999999999999
0029028750999991906061820004+65017+025450FM-12+001099999V0202701N003119999999N0000001N9+01061+99999101641ADDGF100991999999999999999999
0029028750999991906061906004+65017+025450FM-12+001099999V0203601N004119999999N0000001N9+01221+99999101311ADDGF106991999999999999999999
0029028750999991906061913004+65017+025450FM-12+001099999V0203201N008219999999N0000001N9+01331+99999101551ADDGF104991999999999999999999
0029028750999991906061920004+65017+025450FM-12+001099999V0203201N006219999999N0000001N9+00891+99999101401ADDGF100991999999999999999999
0029028750999991906062006004+65017+025450FM-12+001099999V0202301N005119999999N0000001N9+01501+99999101281ADDGF100991999999999999999999
0029028750999991906062013004+65017+025450FM-12+001099999V0202701N005119999999N0000001N9+01611+99999101021ADDGF100991999999999999999999
0029028750999991906062020004+65017+025450FM-12+001099999V0203201N001019999999N0000001N9+01331+99999101141ADDGF100991999999999999999999
0029028750999991906062106004+65017+025450FM-12+001099999V0209991C000019999999N0000001N9+01671+99999101181ADDGF100991999999999999999999
0029028750999991906062113004+65017+025450FM-12+001099999V0202701N001019999999N0000001N9+02001+99999100981ADDGF100991999999999999999999
0029028750999991906062120004+65017+025450FM-12+001099999V0209991C000019999999N0000001N9+01721+99999100641ADDGF100991999999999999999999
0029028750999991906062206004+65017+025450FM-12+001099999V0201101N001019999999N0000001N9+01721+99999100381ADDGF102991999999999999999999
0029028750999991906062213004+65017+025450FM-12+001099999V0209991C000019999999N0000001N9+01671+99999100391ADDGF108991999999999999999999
0035028750999991906062220004+65017+025450FM-12+001099999V0200901N002119999999N0000001N9+01441+99999100661ADDGF108991999999999999999999MW1621
0029028750999991906062306004+65017+025450FM-12+001099999V0200901N004119999999N0000001N9+00941+99999100821ADDGF108991999999999999999999
0029028750999991906062313004+65017+025450FM-12+001099999V0203601N005119999999N0000001N9+01501+99999101001ADDGF108991999999999999999999
0029028750999991906062320004+65017+025450FM-12+001099999V0209991C000019999999N0000001N9+01111+99999101151ADDGF105991999999999999999999
0029028750999991906062406004+65017+025450FM-12+001099999V0200901N003119999999N0000001N9+01441+99999101081ADDGF102991999999999999999999
0029028750999991906062413004+65017+025450FM-12+001099999V0200501N004119999999N0000001N9+01831+99999100991ADDGF102991999999999999999999
0029028750999991906062420004+65017+025450FM-12+001099999V0209991C000019999999N0000001N9+01671+99999100961ADDGF100991999999999999999999
0029028750999991906062506004+65017+025450FM-12+001099999V0209991C000019999999N0000001N9+01721+99999100871ADDGF100991999999999999999999
0029028750999991906062513004+65017+025450FM-12+001099999V0200501N003119999999N0000001N9+02171+99999100641ADDGF101991999999999999999999
0029028750999991906062520004+65017+025450FM-12+001099999V0203201N003119999999N0000001N9+01561+99999100701ADDGF102991999999999999999999
0029028750999991906062606004+65017+025450FM-12+001099999V0201401N002119999999N0000001N9+01721+99999100591ADDGF100991999999999999999999
0029028750999991906062613004+65017+025450FM-12+001099999V0201801N004119999999N0000001N9+02501+99999100151ADDGF102991999999999999999999
0035028750999991906062620004+65017+025450FM-12+001099999V0200901N003119999999N0000001N9+01561+99999099861ADDGF108991999999999999999999MW1621
0029028750999991906062706004+65017+025450FM-12+001099999V0201401N005119999999N0000001N9+01441+99999099641ADDGF106991999999999999999999
0029028750999991906062713004+65017+025450FM-12+001099999V0202701N008219999999N0000001N9+01671+99999099871ADDGF107991999999999999999999
0029028750999991906062720004+65017+025450FM-12+001099999V0202301N004119999999N0000001N9+01221+99999100181ADDGF103991999999999999999999
0035028750999991906062806004+65017+025450FM-12+001099999V0201401N005119999999N0000001N9+01221+99999099441ADDGF108991999999999999999999MW1621
0029028750999991906062813004+65017+025450FM-12+001099999V0202301N005119999999N0000001N9+01391+99999099241ADDGF106991999999999999999999
0029028750999991906062820004+65017+025450FM-12+001099999V0201801N003119999999N0000001N9+01221+99999099341ADDGF102991999999999999999999
0029028750999991906062906004+65017+025450FM-12+001099999V0201801N003119999999N0000001N9+01501+99999099391ADDGF100991999999999999999999
0035028750999991906062913004+65017+025450FM-12+001099999V0201801N002119999999N0000001N9+01171+99999099181ADDGF108991999999999999999999MW1621
0029028750999991906062920004+65017+025450FM-12+001099999V0202701N008719999999N0000001N9+00891+99999099721ADDGF108991999999999999999999
0029028750999991906063006004+65017+025450FM-12+001099999V0202701N008719999999N0000001N9+00781+99999100281ADDGF100991999999999999999999
0029028750999991906063013004+65017+025450FM-12+001099999V0202701N005119999999N0000001N9+01111+99999100581ADDGF101991999999999999999999
0029028750999991906063020004+65017+025450FM-12+001099999V0200501N001019999999N0000001N9+00941+99999100541ADDGF104991999999999999999999
0029028750999991906070106004+65017+025450FM-12+001099999V0200901N003119999999N0000001N9+01221+99999100381ADDGF108991999999999999999999
0035028750999991906070113004+65017+025450FM-12+001099999V0203601N002119999999N0000001N9+01001+99999100431ADDGF108991999999999999999999MW1621
0029028750999991906070120004+65017+025450FM-12+001099999V0202701N002119999999N0000001N9+01001+99999100751ADDGF108991999999999999999999
0029028750999991906070206004+65017+025450FM-12+001099999V0202301N004119999999N0000001N9+01001+99999101031ADDGF105991999999999999999999
0029028750999991906070213004+65017+025450FM-12+001099999V0203401N007219999999N0000001N9+01391+99999101191ADDGF100991999999999999999999
0029028750999991906070220004+65017+025450FM-12+001099999V0202701N003119999999N0000001N9+01111+99999101781ADDGF102991999999999999999999
0029028750999991906070306004+65017+025450FM-12+001099999V0202701N007219999999N0000001N9+01221+99999102121ADDGF103991999999999999999999
0029028750999991906070313004+65017+025450FM-12+001099999V0202901N003119999999N0000001N9+01561+99999102111ADDGF104991999999999999999999
0029028750999991906070320004+65017+025450FM-12+001099999V0202701N001019999999N0000001N9+01001+99999102061ADDGF104991999999999999999999
0029028750999991906070406004+65017+025450FM-12+001099999V0201801N004119999999N0000001N9+01331+99999101961ADDGF100991999999999999999999
0029028750999991906070413004+65017+025450FM-12+001099999V0203201N003119999999N0000001N9+01831+99999101791ADDGF100991999999999999999999
0029028750999991906070420004+65017+025450FM-12+001099999V0202701N001019999999N0000001N9+01331+99999101941ADDGF103991999999999999999999
0029028750999991906070506004+65017+025450FM-12+001099999V0201101N003119999999N0000001N9+01441+99999101831ADDGF108991999999999999999999
0029028750999991906070513004+65017+025450FM-12+001099999V0203201N003119999999N0000001N9+01831+99999101991ADDGF100991999999999999999999
0029028750999991906070520004+65017+025450FM-12+001099999V0202301N001019999999N0000001N9+01501+99999102071ADDGF102991999999999999999999
0029028750999991906070606004+65017+025450FM-12+001099999V0202301N003119999999N0000001N9+01501+99999102241ADDGF101991999999999999999999
0029028750999991906070613004+65017+025450FM-12+001099999V0203601N003119999999N0000001N9+01781+99999102121ADDGF102991999999999999999999
0029028750999991906070620004+65017+025450FM-12+001099999V0209991C000019999999N0000001N9+01671+99999102081ADDGF100991999999999999999999
0029028750999991906070706004+65017+025450FM-12+001099999V0209991C000019999999N0000001N9+01721+99999102001ADDGF102991999999999999999999
0029028750999991906070713004+65017+025450FM-12+001099999V0209991C000019999999N0000001N9+02721+99999101781ADDGF102991999999999999999999
0029028750999991906070720004+65017+025450FM-12+001099999V0209991C000019999999N0000001N9+01941+99999101551ADDGF100991999999999999999999
0029028750999991906070806004+65017+025450FM-12+001099999V0209991C000019999999N0000001N9+02221+99999101431ADDGF100991999999999999999999
0029028750999991906070813004+65017+025450FM-12+001099999V0203201N003119999999N0000001N9+02331+99999101311ADDGF102991999999999999999999
0029028750999991906070820004+65017+025450FM-12+001099999V0209991C000019999999N0000001N9+02171+99999101361ADDGF100991999999999999999999
0029028750999991906070906004+65017+025450FM-12+001099999V0201401N004119999999N0000001N9+02221+99999101101ADDGF100991999999999999999999
0029028750999991906070913004+65017+025450FM-12+001099999V0203201N003119999999N0000001N9+02281+99999101041ADDGF100991999999999999999999
0029028750999991906070920004+65017+025450FM-12+001099999V0203201N004119999999N0000001N9+01611+99999101241ADDGF100991999999999999999999
0029028750999991906071006004+65017+025450FM-12+001099999V0203201N005119999999N0000001N9+01721+99999101751ADDGF100991999999999999999999
0029028750999991906071013004+65017+025450FM-12+001099999V0203201N004119999999N0000001N9+01941+99999101961ADDGF100991999999999999999999
0029028750999991906071020004+65017+025450FM-12+001099999V0209991C000019999999N0000001N9+01611+99999101881ADDGF100991999999999999999999
0029028750999991906071106004+65017+025450FM-12+001099999V0201401N003119999999N0000001N9+02001+99999101631ADDGF100991999999999999999999
0029028750999991906071113004+65017+025450FM-12+001099999V0201101N002119999999N0000001N9+02721+99999101381ADDGF103991999999999999999999
0029028750999991906071120004+65017+025450FM-12+001099999V0209991C000019999999N0000001N9+02221+99999101101ADDGF106991999999999999999999
0029028750999991906071206004+65017+025450FM-12+001099999V0202301N005119999999N0000001N9+01891+99999100961ADDGF103991999999999999999999
0029028750999991906071213004+65017+025450FM-12+001099999V0203201N004119999999N0000001N9+02001+99999101191ADDGF100991999999999999999999
0029028750999991906071220004+65017+025450FM-12+001099999V0209991C000019999999N0000001N9+01671+99999101431ADDGF100991999999999999999999
0029028750999991906071306004+65017+025450FM-12+001099999V0209991C000019999999N0000001N9+01721+99999101721ADDGF100991999999999999999999
0029028750999991906071313004+65017+025450FM-12+001099999V0203201N005119999999N0000001N9+01831+99999101681ADDGF100991999999999999999999
0029028750999991906071320004+65017+025450FM-12+001099999V0203201N003119999999N0000001N9+01721+99999101741ADDGF100991999999999999999999
0029028750999991906071406004+65017+025450FM-12+001099999V0209991C000019999999N0000001N9+01781+99999101521ADDGF100991999999999999999999
0029028750999991906071413004+65017+025450FM-12+001099999V0203601N003119999999N0000001N9+02171+99999101271ADDGF100991999999999999999999
0029028750999991906071420004+65017+025450FM-12+001099999V0209991C000019999999N0000001N9+01891+99999101061ADDGF100991999999999999999999
0029028750999991906071506004+65017+025450FM-12+001099999V0201401N004119999999N0000001N9+02111+99999100561ADDGF100991999999999999999999
0029028750999991906071513004+65017+025450FM-12+001099999V0201601N007219999999N0000001N9+02671+99999100121ADDGF100991999999999999999999
0029028750999991906071520004+65017+025450FM-12+001099999V0201801N003119999999N0000001N9+02281+99999099881ADDGF108991999999999999999999
0035028750999991906071606004+65017+025450FM-12+001099999V0201801N008219999999N0000001N9+01891+99999098341ADDGF108991999999999999999999MW1621
0035028750999991906071613004+65017+025450FM-12+001099999V0202501N008219999999N0000001N9+01501+99999098641ADDGF108991999999999999999999MW1621
0035028750999991906071620004+65017+025450FM-12+001099999V0209991C000019999999N0000001N9+01331+99999098791ADDGF108991999999999999999999MW1621
0029028750999991906071706004+65017+025450FM-12+001099999V0201801N002119999999N0000001N9+01001+99999099101ADDGF108991999999999999999999
0029028750999991906071713004+65017+025450FM-12+001099999V0202301N002119999999N0000001N9+01941+99999099081ADDGF105991999999999999999999
0029028750999991906071720004+65017+025450FM-12+001099999V0209991C000019999999N0000001N9+01331+99999099181ADDGF102991999999999999999999
0029028750999991906071806004+65017+025450FM-12+001099999V0209991C000019999999N0000001N9+00781+99999099391ADDGF100991999999999999999999
0029028750999991906071813004+65017+025450FM-12+001099999V0203201N003119999999N0000001N9+01611+99999099361ADDGF104991999999999999999999
0029028750999991906071820004+65017+025450FM-12+001099999V0203601N002119999999N0000001N9+00721+99999099561ADDGF100991999999999999999999
0029028750999991906071906004+65017+025450FM-12+001099999V0202301N003119999999N0000001N9+01501+99999099921ADDGF102991999999999999999999
0029028750999991906071913004+65017+025450FM-12+001099999V0203201N004119999999N0000001N9+01831+99999100101ADDGF107991999999999999999999
0029028750999991906071920004+65017+025450FM-12+001099999V0209991C000019999999N0000001N9+01111+99999100031ADDGF100991999999999999999999
0029028750999991906072006004+65017+025450FM-12+001099999V0200501N003119999999N0000001N9+01721+99999099631ADDGF100991999999999999999999
0029028750999991906072013004+65017+025450FM-12+001099999V0201401N007219999999N0000001N9+02221+99999099401ADDGF107991999999999999999999
0029028750999991906072020004+65017+025450FM-12+001099999V0200901N003119999999N0000001N9+01561+99999099391ADDGF108991999999999999999999
0029028750999991906072106004+65017+025450FM-12+001099999V0201101N003119999999N0000001N9+01221+99999099421ADDGF108991999999999999999999
0029028750999991906072113004+65017+025450FM-12+001099999V0203201N001019999999N0000001N9+01501+99999099271ADDGF108991999999999999999999
0035028750999991906072120004+65017+025450FM-12+001099999V0200901N006219999999N0000001N9+01001+99999099281ADDGF108991999999999999999999MW1621
0029028750999991906072206004+65017+025450FM-12+001099999V0209991C000019999999N0000001N9+01111+99999099831ADDGF108991999999999999999999
0029028750999991906072213004+65017+025450FM-12+001099999V0203201N003119999999N0000001N9+01671+99999100071ADDGF102991999999999999999999
0029028750999991906072220004+65017+025450FM-12+001099999V0209991C000019999999N0000001N9+01331+99999100301ADDGF101991999999999999999999
0029028750999991906072306004+65017+025450FM-12+001099999V0209991C000019999999N0000001N9+01611+99999100641ADDGF100991999999999999999999
0029028750999991906072313004+65017+025450FM-12+001099999V0203201N004119999999N0000001N9+01781+99999100871ADDGF102991999999999999999999
0029028750999991906072320004+65017+025450FM-12+001099999V0202701N002119999999N0000001N9+01281+99999101121ADDGF100991999999999999999999
0029028750999991906072406004+65017+025450FM-12+001099999V0209991C000019999999N0000001N9+01561+99999101361ADDGF100991999999999999999999
0029028750999991906072413004+65017+025450FM-12+001099999V0203201N005119999999N0000001N9+01941+99999101481ADDGF100991999999999999999999
0029028750999991906072420004+65017+025450FM-12+001099999V0209991C000019999999N0000001N9+01561+99999101511ADDGF100991999999999999999999
0029028750999991906072506004+65017+025450FM-12+001099999V0203201N002119999999N0000001N9+02061+99999101581ADDGF100991999999999999999999
0029028750999991906072513004+65017+025450FM-12+001099999V0203201N004119999999N0000001N9+02441+99999101461ADDGF100991999999999999999999
0029028750999991906072520004+65017+025450FM-12+001099999V0209991C000019999999N0000001N9+02001+99999101381ADDGF103991999999999999999999
0029028750999991906072606004+65017+025450FM-12+001099999V0200701N003119999999N0000001N9+01941+99999101231ADDGF103991999999999999999999
0029028750999991906072613004+65017+025450FM-12+001099999V0203201N003119999999N0000001N9+02561+99999101231ADDGF102991999999999999999999
0035028750999991906072620004+65017+025450FM-12+001099999V0203201N003119999999N0000001N9+02111+99999101441ADDGF108991999999999999999999MW1621
0029028750999991906072706004+65017+025450FM-12+001099999V0200901N003119999999N0000001N9+01831+99999101621ADDGF100991999999999999999999
0029028750999991906072713004+65017+025450FM-12+001099999V0200701N005119999999N0000001N9+02831+99999101581ADDGF100991999999999999999999
0029028750999991906072720004+65017+025450FM-12+001099999V0200901N004119999999N0000001N9+02221+99999101701ADDGF100991999999999999999999
0029028750999991906072806004+65017+025450FM-12+001099999V0200901N004119999999N0000001N9+02001+99999101871ADDGF100991999999999999999999
0029028750999991906072813004+65017+025450FM-12+001099999V0200501N004119999999N0000001N9+02561+99999101841ADDGF100991999999999999999999
0029028750999991906072820004+65017+025450FM-12+001099999V0209991C000019999999N0000001N9+02001+99999101831ADDGF100991999999999999999999
0029028750999991906072906004+65017+025450FM-12+001099999V0202701N004119999999N0000001N9+01941+99999101831ADDGF100991999999999999999999
0029028750999991906072913004+65017+025450FM-12+001099999V0203201N005119999999N0000001N9+02281+99999101821ADDGF100991999999999999999999
0029028750999991906072920004+65017+025450FM-12+001099999V0203201N004119999999N0000001N9+01891+99999101831ADDGF100991999999999999999999
0029028750999991906073006004+65017+025450FM-12+001099999V0201401N003119999999N0000001N9+01671+99999101921ADDGF100991999999999999999999
0029028750999991906073013004+65017+025450FM-12+001099999V0203201N003119999999N0000001N9+02111+99999101871ADDGF100991999999999999999999
0029028750999991906073020004+65017+025450FM-12+001099999V0203601N002119999999N0000001N9+01831+99999101911ADDGF104991999999999999999999
0029028750999991906073106004+65017+025450FM-12+001099999V0209991C000019999999N0000001N9+01941+99999101871ADDGF100991999999999999999999
0029028750999991906073113004+65017+025450FM-12+001099999V0203601N004119999999N0000001N9+02221+99999101881ADDGF100991999999999999999999
0029028750999991906073120004+65017+025450FM-12+001099999V0203601N001019999999N0000001N9+01831+99999101881ADDGF100991999999999999999999
0029028750999991906080106004+65017+025450FM-12+001099999V0201801N001019999999N0000001N9+01721+99999101881ADDGF100991999999999999999999
0029028750999991906080113004+65017+025450FM-12+001099999V0203601N004119999999N0000001N9+02281+99999101781ADDGF101991999999999999999999
0029028750999991906080120004+65017+025450FM-12+001099999V0203201N002119999999N0000001N9+01831+99999101591ADDGF100991999999999999999999
0029028750999991906080206004+65017+025450FM-12+001099999V0200901N002119999999N0000001N9+01941+99999101441ADDGF102991999999999999999999
0029028750999991906080213004+65017+025450FM-12+001099999V0200501N004119999999N0000001N9+02391+99999101301ADDGF102991999999999999999999
0029028750999991906080220004+65017+025450FM-12+001099999V0200901N001019999999N0000001N9+01891+99999101121ADDGF102991999999999999999999
0035028750999991906080306004+65017+025450FM-12+001099999V0201401N003119999999N0000001N9+01611+99999101001ADDGF108991999999999999999999MW1621
0029028750999991906080313004+65017+025450FM-12+001099999V0200901N004119999999N0000001N9+02221+99999100951ADDGF106991999999999999999999
0029028750999991906080320004+65017+025450FM-12+001099999V0200501N003119999999N0000001N9+01561+99999100921ADDGF103991999999999999999999
0029028750999991906080406004+65017+025450FM-12+001099999V0200901N004119999999N0000001N9+01281+99999100961ADDGF108991999999999999999999
0029028750999991906080413004+65017+025450FM-12+001099999V0203601N003119999999N0000001N9+01721+99999100981ADDGF102991999999999999999999
0029028750999991906080420004+65017+025450FM-12+001099999V0200501N004119999999N0000001N9+01171+99999100941ADDGF102991999999999999999999
0029028750999991906080506004+65017+025450FM-12+001099999V0200501N004119999999N0000001N9+01171+99999101001ADDGF100991999999999999999999
0029028750999991906080513004+65017+025450FM-12+001099999V0203601N004119999999N0000001N9+01441+99999100861ADDGF105991999999999999999999
0029028750999991906080520004+65017+025450FM-12+001099999V0200501N001019999999N0000001N9+01111+99999100751ADDGF106991999999999999999999
0029028750999991906080606004+65017+025450FM-12+001099999V0200501N003119999999N0000001N9+00891+99999100741ADDGF108991999999999999999999
0029028750999991906080613004+65017+025450FM-12+001099999V0200201N004119999999N0000001N9+01331+99999100751ADDGF108991999999999999999999
0029028750999991906080620004+65017+025450FM-12+001099999V0203601N003119999999N0000001N9+01001+99999100841ADDGF104991999999999999999999
0029028750999991906080706004+65017+025450FM-12+001099999V0203601N003119999999N0000001N9+01061+99999100861ADDGF100991999999999999999999
0029028750999991906080713004+65017+025450FM-12+001099999V0203201N008219999999N0000001N9+01671+99999100701ADDGF100991999999999999999999
0029028750999991906080720004+65017+025450FM-12+001099999V0200201N005119999999N0000001N9+01171+99999100641ADDGF101991999999999999999999
0029028750999991906080806004+65017+025450FM-12+001099999V0203601N006219999999N0000001N9+01001+99999100681ADDGF106991999999999999999999
0029028750999991906080813004+65017+025450FM-12+001099999V0203201N005119999999N0000001N9+01281+99999100561ADDGF106991999999999999999999
0029028750999991906080820004+65017+025450FM-12+001099999V0203201N004119999999N0000001N9+00831+99999100481ADDGF104991999999999999999999
0029028750999991906080906004+65017+025450FM-12+001099999V0203601N003119999999N0000001N9+00891+99999100421ADDGF106991999999999999999999
0029028750999991906080913004+65017+025450FM-12+001099999V0203601N004119999999N0000001N9+01391+99999100381ADDGF108991999999999999999999
0035028750999991906080920004+65017+025450FM-12+001099999V0203601N003119999999N0000001N9+01001+99999100351ADDGF108991999999999999999999MW1621
0035028750999991906081006004+65017+025450FM-12+001099999V0203601N002119999999N0000001N9+00721+99999100021ADDGF108991999999999999999999MW1621
0035028750999991906081013004+65017+025450FM-12+001099999V0203201N002119999999N0000001N9+01001+99999100111ADDGF108991999999999999999999MW1621
0029028750999991906081020004+65017+025450FM-12+001099999V0200901N001019999999N0000001N9+00941+99999100121ADDGF107991999999999999999999
0029028750999991906081106004+65017+025450FM-12+001099999V0200201N003119999999N0000001N9+01001+99999100241ADDGF104991999999999999999999
0029028750999991906081113004+65017+025450FM-12+001099999V0203201N003119999999N0000001N9+01441+99999100231ADDGF102991999999999999999999
0029028750999991906081120004+65017+025450FM-12+001099999V0203201N001019999999N0000001N9+01171+99999100381ADDGF102991999999999999999999
0029028750999991906081206004+65017+025450FM-12+001099999V0202701N003119999999N0000001N9+01221+99999100441ADDGF106991999999999999999999
0029028750999991906081213004+65017+025450FM-12+001099999V0203201N003119999999N0000001N9+01441+99999100621ADDGF102991999999999999999999
0029028750999991906081220004+65017+025450FM-12+001099999V0203201N001019999999N0000001N9+01221+99999100761ADDGF101991999999999999999999
0029028750999991906081306004+65017+025450FM-12+001099999V0201801N001019999999N0000001N9+01171+99999100981ADDGF106991999999999999999999
0029028750999991906081313004+65017+025450FM-12+001099999V0203201N003119999999N0000001N9+01721+99999101141ADDGF100991999999999999999999
0029028750999991906081320004+65017+025450FM-12+001099999V0209991C000019999999N0000001N9+01281+99999101221ADDGF100991999999999999999999
0029028750999991906081406004+65017+025450FM-12+001099999V0201801N002119999999N0000001N9+01221+99999101521ADDGF100991999999999999999999
0029028750999991906081413004+65017+025450FM-12+001099999V0203201N001019999999N0000001N9+01831+99999101631ADDGF100991999999999999999999
0029028750999991906081420004+65017+025450FM-12+001099999V0201801N001019999999N0000001N9+01501+99999101631ADDGF103991999999999999999999
0029028750999991906081506004+65017+025450FM-12+001099999V0201801N003119999999N0000001N9+01391+99999101551ADDGF108991999999999999999999
0029028750999991906081513004+65017+025450FM-12+001099999V0202301N004119999999N0000001N9+01831+99999101541ADDGF108991999999999999999999
0029028750999991906081520004+65017+025450FM-12+001099999V0202301N004119999999N0000001N9+01721+99999101471ADDGF103991999999999999999999
0029028750999991906081606004+65017+025450FM-12+001099999V0201801N005119999999N0000001N9+01391+99999101311ADDGF100991999999999999999999
0029028750999991906081613004+65017+025450FM-12+001099999V0203201N003119999999N0000001N9+02171+99999100951ADDGF102991999999999999999999
0029028750999991906081620004+65017+025450FM-12+001099999V0202701N005119999999N0000001N9+01501+99999101001ADDGF101991999999999999999999
0029028750999991906081706004+65017+025450FM-12+001099999V0202701N003119999999N0000001N9+01501+99999100991ADDGF100991999999999999999999
0029028750999991906081713004+65017+025450FM-12+001099999V0202701N004119999999N0000001N9+01721+99999101021ADDGF104991999999999999999999
0029028750999991906081720004+65017+025450FM-12+001099999V0202301N001019999999N0000001N9+01331+99999100841ADDGF100991999999999999999999
0035028750999991906081806004+65017+025450FM-12+001099999V0200901N003119999999N0000001N9+01331+99999100471ADDGF108991999999999999999999MW1621
0035028750999991906081813004+65017+025450FM-12+001099999V0202701N006219999999N0000001N9+01331+99999100181ADDGF108991999999999999999999MW1621
0029028750999991906081820004+65017+025450FM-12+001099999V0202701N003119999999N0000001N9+01391+99999100201ADDGF100991999999999999999999
0035028750999991906081906004+65017+025450FM-12+001099999V0201401N003119999999N0000001N9+01111+99999099921ADDGF108991999999999999999999MW1621
0035028750999991906081913004+65017+025450FM-12+001099999V0200501N005119999999N0000001N9+01221+99999099321ADDGF108991999999999999999999MW1621
0035028750999991906081920004+65017+025450FM-12+001099999V0203201N006219999999N0000001N9+01281+99999098711ADDGF108991999999999999999999MW1621
0029028750999991906082006004+65017+025450FM-12+001099999V0202701N007219999999N0000001N9+00831+99999099481ADDGF108991999999999999999999
0029028750999991906082013004+65017+025450FM-12+001099999V0202701N009819999999N0000001N9+01281+99999099901ADDGF106991999999999999999999
0029028750999991906082020004+65017+025450FM-12+001099999V0202301N004119999999N0000001N9+01061+99999099921ADDGF100991999999999999999999
0029028750999991906082106004+65017+025450FM-12+001099999V0201801N004119999999N0000001N9+00781+99999099821ADDGF107991999999999999999999
0035028750999991906082113004+65017+025450FM-12+001099999V0200901N003119999999N0000001N9+01171+99999099391ADDGF108991999999999999999999MW1621
0029028750999991906082120004+65017+025450FM-12+001099999V0200901N001019999999N0000001N9+01111+99999098981ADDGF106991999999999999999999
0035028750999991906082206004+65017+025450FM-12+001099999V0203601N002119999999N0000001N9+01061+99999098881ADDGF108991999999999999999999MW1621
0029028750999991906082213004+65017+025450FM-12+001099999V0203401N004119999999N0000001N9+01221+99999099321ADDGF108991999999999999999999
0029028750999991906082220004+65017+025450FM-12+001099999V0203201N005119999999N0000001N9+01171+99999099631ADDGF107991999999999999999999
0029028750999991906082306004+65017+025450FM-12+001099999V0203601N002119999999N0000001N9+00891+99999099961ADDGF108991999999999999999999
0029028750999991906082313004+65017+025450FM-12+001099999V0203601N004119999999N0000001N9+01331+99999100241ADDGF106991999999999999999999
0029028750999991906082320004+65017+025450FM-12+001099999V0203601N002119999999N0000001N9+00721+99999100381ADDGF102991999999999999999999
0029028750999991906082406004+65017+025450FM-12+001099999V0200501N003119999999N0000001N9+00721+99999100681ADDGF108991999999999999999999
0029028750999991906082413004+65017+025450FM-12+001099999V0200901N004119999999N0000001N9+01171+99999100751ADDGF106991999999999999999999
0029028750999991906082420004+65017+025450FM-12+001099999V0203601N003119999999N0000001N9+00671+99999100681ADDGF104991999999999999999999
0029028750999991906082506004+65017+025450FM-12+001099999V0200501N004119999999N0000001N9+00501+99999100701ADDGF108991999999999999999999
0029028750999991906082513004+65017+025450FM-12+001099999V0203201N006219999999N0000001N9+00891+99999100791ADDGF108991999999999999999999
0029028750999991906082520004+65017+025450FM-12+001099999V0203601N002119999999N0000001N9+00671+99999100681ADDGF104991999999999999999999
0029028750999991906082606004+65017+025450FM-12+001099999V0200501N003119999999N0000001N9+00561+99999100681ADDGF103991999999999999999999
0029028750999991906082613004+65017+025450FM-12+001099999V0200501N003119999999N0000001N9+00891+99999100631ADDGF106991999999999999999999
0029028750999991906082620004+65017+025450FM-12+001099999V0203601N001019999999N0000001N9+00561+99999100581ADDGF107991999999999999999999
0029028750999991906082706004+65017+025450FM-12+001099999V0203601N003119999999N0000001N9+00611+99999100511ADDGF106991999999999999999999
0029028750999991906082713004+65017+025450FM-12+001099999V0203601N004119999999N0000001N9+00941+99999100601ADDGF106991999999999999999999
0029028750999991906082720004+65017+025450FM-12+001099999V0200501N001019999999N0000001N9+00721+99999100591ADDGF103991999999999999999999
0029028750999991906082806004+65017+025450FM-12+001099999V0203601N004119999999N0000001N9+00721+99999100581ADDGF100991999999999999999999
0029028750999991906082813004+65017+025450FM-12+001099999V0203201N007219999999N0000001N9+01281+99999100701ADDGF105991999999999999999999
0029028750999991906082820004+65017+025450FM-12+001099999V0203601N004119999999N0000001N9+00671+99999100871ADDGF102991999999999999999999
0029028750999991906082906004+65017+025450FM-12+001099999V0203601N003119999999N0000001N9+00441+99999100911ADDGF104991999999999999999999
0029028750999991906082913004+65017+025450FM-12+001099999V0203201N004119999999N0000001N9+00831+99999100951ADDGF104991999999999999999999
0029028750999991906082920004+65017+025450FM-12+001099999V0203201N004119999999N0000001N9+00831+99999101021ADDGF108991999999999999999999
0029028750999991906083006004+65017+025450FM-12+001099999V0201401N003119999999N0000001N9+00391+99999100941ADDGF100991999999999999999999
0029028750999991906083013004+65017+025450FM-12+001099999V0201801N005119999999N0000001N9+01281+99999100711ADDGF106991999999999999999999
0029028750999991906083020004+65017+025450FM-12+001099999V0201801N004119999999N0000001N9+00831+99999100661ADDGF108991999999999999999999
0029028750999991906083106004+65017+025450FM-12+001099999V0200501N005119999999N0000001N9+00391+99999101101ADDGF108991999999999999999999
0029028750999991906083113004+65017+025450FM-12+001099999V0203601N005119999999N0000001N9+01061+99999101521ADDGF106991999999999999999999
0029028750999991906083120004+65017+025450FM-12+001099999V0201401N002119999999N0000001N9+00501+99999101581ADDGF100991999999999999999999
0029028750999991906090106004+65017+025450FM-12+001099999V0201401N003119999999N0000001N9+00331+99999101831ADDGF102991999999999999999999
0029028750999991906090113004+65017+025450FM-12+001099999V0201801N004119999999N0000001N9+01111+99999101441ADDGF108991999999999999999999
0035028750999991906090120004+65017+025450FM-12+001099999V0201401N003119999999N0000001N9+00501+99999100951ADDGF108991999999999999999999MW1621
0035028750999991906090206004+65017+025450FM-12+001099999V0201801N008219999999N0000001N9+00501+99999100301ADDGF108991999999999999999999MW1621
0029028750999991906090213004+65017+025450FM-12+001099999V0203601N008219999999N0000001N9+00891+99999100861ADDGF108991999999999999999999
0029028750999991906090220004+65017+025450FM-12+001099999V0200501N004119999999N0000001N9+00561+99999101321ADDGF106991999999999999999999
0029028750999991906090306004+65017+025450FM-12+001099999V0209991C000019999999N0000001N9+00501+99999102281ADDGF100991999999999999999999
