0029028750999991907010106004+65017+025450FM-12+001099999V0200501N002119999999N0000001N9-01671+99999101041ADDGF108991999999999999999999
0029028750999991907010113004+65017+025450FM-12+001099999V0200501N002119999999N0000001N9-01441+99999101071ADDGF108991999999999999999999
0029028750999991907010120004+65017+025450FM-12+001099999V0200901N001019999999N0000001N9-01441+99999101021ADDGF108991999999999999999999
0029028750999991907010206004+65017+025450FM-12+001099999V0200901N002119999999N0000001N9-01331+99999101061ADDGF108991999999999999999999
0029028750999991907010213004+65017+025450FM-12+001099999V0201401N002119999999N0000001N9-01721+99999101271ADDGF108991999999999999999999
0029028750999991907010220004+65017+025450FM-12+001099999V0201401N003119999999N0000001N9-01671+99999101151ADDGF108991999999999999999999
0029028750999991907010306004+65017+025450FM-12+001099999V0201401N002119999999N0000001N9-01831+99999101031ADDGF108991999999999999999999
0029028750999991907010313004+65017+025450FM-12+001099999V0201401N004119999999N0000001N9-01891+99999100911ADDGF108991999999999999999999
0029028750999991907010320004+65017+025450FM-12+001099999V0201401N006219999999N0000001N9-01721+99999101031ADDGF100991999999999999999999
0029028750999991907010406004+65017+025450FM-12+001099999V0201101N005119999999N0000001N9-01781+99999100881ADDGF108991999999999999999999
0029028750999991907010413004+65017+025450FM-12+001099999V0200901N004119999999N0000001N9-01891+99999101281ADDGF104991999999999999999999
0029028750999991907010420004+65017+025450FM-12+001099999V0200901N005119999999N0000001N9-02111+99999101801ADDGF100991999999999999999999
0029028750999991907010506004+65017+025450FM-12+001099999V0201401N002119999999N0000001N9-02441+99999102241ADDGF100991999999999999999999
0048028750999991907010513004+65017+025450FM-12+001099999V0209991C000019999999N0000001N9+99999+99999102431ADDGF100991999999999999999999EQDQ01 +02563ATOT  
0029028750999991907010520004+65017+025450FM-12+001099999V0209991C000019999999N0000001N9-02721+99999102381ADDGF100991999999999999999999
0029028750999991907010606004+65017+025450FM-12+001099999V0201401N003119999999N0000001N9-01561+99999101101ADDGF108991999999999999999999
0035028750999991907010613004+65017+025450FM-12+001099999V0200901N007219999999N0000001N9-00561+99999100751ADDGF108991999999999999999999MW1721
0035028750999991907010620004+65017+025450FM-12+001099999V0201801N008219999999N0000001N9-00501+99999100751ADDGF108991999999999999999999MW1721
0029028750999991907010706004+65017+025450FM-12+001099999V0201801N004119999999N0000001N9-00221+99999100581ADDGF108991999999999999999999
0029028750999991907010713004+65017+025450FM-12+001099999V0201801N005119999999N0000001N9-00331+99999100951ADDGF108991999999999999999999
0029028750999991907010720004+65017+025450FM-12+001099999V0201801N004119999999N0000001N9-00281+99999100871ADDGF108991999999999999999999
0035028750999991907010806004+65017+025450FM-12+001099999V0201801N006219999999N0000001N9-00331+99999099781ADDGF108991999999999999999999MW1721
0029028750999991907010813004+65017+025450FM-12+001099999V0202301N007219999999N0000001N9+00111+99999099181ADDGF108991999999999999999999
0029028750999991907010820004+65017+025450FM-12+001099999V0202901N008219999999N0000001N9+00061+99999099001ADDGF100991999999999999999999
0029028750999991907010906004+65017+025450FM-12+001099999V0202701N002119999999N0000001N9-00391+99999099401ADDGF108991999999999999999999
0029028750999991907010913004+65017+025450FM-12+001099999V0203201N003119999999N0000001N9-00441+99999099581ADDGF100991999999999999999999
0029028750999991907010920004+65017+025450FM-12+001099999V0203201N005119999999N0000001N9-00941+99999099761ADDGF100991999999999999999999
0029028750999991907011006004+65017+025450FM-12+001099999V0203201N001019999999N0000001N9-01331+99999100231ADDGF100991999999999999999999
0029028750999991907011013004+65017+025450FM-12+001099999V0203201N003119999999N0000001N9-01221+99999100701ADDGF102991999999999999999999
0029028750999991907011020004+65017+025450FM-12+001099999V0203201N001019999999N0000001N9-01441+99999101301ADDGF100991999999999999999999
0029028750999991907011106004+65017+025450FM-12+001099999V0201401N003119999999N0000001N9-01891+99999101751ADDGF100991999999999999999999
0029028750999991907011113004+65017+025450FM-12+001099999V0201101N003119999999N0000001N9-02111+99999101821ADDGF100991999999999999999999
0029028750999991907011120004+65017+025450FM-12+001099999V0201101N004119999999N0000001N9-02001+99999101301ADDGF100991999999999999999999
0029028750999991907011206004+65017+025450FM-12+001099999V0201401N004119999999N0000001N9-01721+99999101031ADDGF108991999999999999999999
0029028750999991907011213004+65017+025450FM-12+001099999V0201101N004119999999N0000001N9-01561+99999100631ADDGF108991999999999999999999
0029028750999991907011220004+65017+025450FM-12+001099999V0201401N006219999999N0000001N9-01441+99999099821ADDGF108991999999999999999999
0029028750999991907011306004+65017+025450FM-12+001099999V0201401N007219999999N0000001N9-01391+99999098881ADDGF108991999999999999999999
0029028750999991907011313004+65017+025450FM-12+001099999V0201401N005119999999N0000001N9-01111+99999099111ADDGF108991999999999999999999
0029028750999991907011320004+65017+025450FM-12+001099999V0201401N005119999999N0000001N9-01281+99999099071ADDGF108991999999999999999999
0029028750999991907011406004+65017+025450FM-12+001099999V0201401N003119999999N0000001N9-01281+99999100271ADDGF108991999999999999999999
0029028750999991907011413004+65017+025450FM-12+001099999V0201401N004119999999N0000001N9-01561+99999100261ADDGF108991999999999999999999
0029028750999991907011420004+65017+025450FM-12+001099999V0201401N004119999999N0000001N9-01831+99999099831ADDGF108991999999999999999999
0029028750999991907011506004+65017+025450FM-12+001099999V0201401N005119999999N0000001N9-01331+99999098961ADDGF108991999999999999999999
0029028750999991907011513004+65017+025450FM-12+001099999V0201801N004119999999N0000001N9-01061+99999099101ADDGF108991999999999999999999
0029028750999991907011520004+65017+025450FM-12+001099999V0201401N003119999999N0000001N9-01221+99999099551ADDGF108991999999999999999999
0029028750999991907011606004+65017+025450FM-12+001099999V0201401N003119999999N0000001N9-01281+99999100621ADDGF108991999999999999999999
0029028750999991907011613004+65017+025450FM-12+001099999V0201401N002119999999N0000001N9-01281+99999101181ADDGF108991999999999999999999
0029028750999991907011620004+65017+025450FM-12+001099999V0200901N003119999999N0000001N9-01331+99999101761ADDGF108991999999999999999999
0029028750999991907011706004+65017+025450FM-12+001099999V0201401N002119999999N0000001N9-01281+99999101741ADDGF108991999999999999999999
0029028750999991907011713004+65017+025450FM-12+001099999V0201401N002119999999N0000001N9-01111+99999101631ADDGF103991999999999999999999
0029028750999991907011720004+65017+025450FM-12+001099999V0202301N001019999999N0000001N9-01331+99999101791ADDGF100991999999999999999999
0029028750999991907011806004+65017+025450FM-12+001099999V0202701N001019999999N0000001N9-01501+99999101901ADDGF100991999999999999999999
0029028750999991907011813004+65017+025450FM-12+001099999V0203601N001019999999N0000001N9-01561+99999102221ADDGF100991999999999999999999
0029028750999991907011820004+65017+025450FM-12+001099999V0209991C000019999999N0000001N9-01891+99999102721ADDGF100991999999999999999999
0029028750999991907011906004+65017+025450FM-12+001099999V0209991C000019999999N0000001N9-01721+99999103391ADDGF108991999999999999999999
0029028750999991907011913004+65017+025450FM-12+001099999V0201401N002119999999N0000001N9-01391+99999103801ADDGF103991999999999999999999
0029028750999991907011920004+65017+025450FM-12+001099999V0201401N004119999999N0000001N9-01221+99999104141ADDGF108991999999999999999999
0029028750999991907012006004+65017+025450FM-12+001099999V0201401N003119999999N0000001N9-01721+99999104801ADDGF108991999999999999999999
0029028750999991907012013004+65017+025450FM-12+001099999V0201401N005119999999N0000001N9-02281+99999095192ADDGF100991999999999999999999
0029028750999991907012020004+65017+025450FM-12+001099999V0201401N003119999999N0000001N9-02561+99999095541ADDGF100991999999999999999999
0029028750999991907012106004+65017+025450FM-12+001099999V0201401N002119999999N0000001N9-02781+99999095671ADDGF100991999999999999999999
0029028750999991907012113004+65017+025450FM-12+001099999V0201801N003119999999N0000001N9-02611+99999095901ADDGF100991999999999999999999
0029028750999991907012120004+65017+025450FM-12+001099999V0201401N004119999999N0000001N9-02671+99999095761ADDGF100991999999999999999999
0029028750999991907012206004+65017+025450FM-12+001099999V0201801N004119999999N0000001N9-02331+99999095601ADDGF100991999999999999999999
0029028750999991907012213004+65017+025450FM-12+001099999V0201801N005119999999N0000001N9-01831+99999095551ADDGF108991999999999999999999
0029028750999991907012220004+65017+025450FM-12+001099999V0201401N002119999999N0000001N9-01111+99999095001ADDGF108991999999999999999999
0029028750999991907012306004+65017+025450FM-12+001099999V0202501N009819999999N0000001N9-00561+99999103002ADDGF108991999999999999999999
0035028750999991907012313004+65017+025450FM-12+001099999V0202701N011819999999N0000001N9-00391+99999102501ADDGF108991999999999999999999MW1901
0029028750999991907012320004+65017+025450FM-12+001099999V0202701N012919999999N0000001N9-00111+99999101701ADDGF108991999999999999999999
0029028750999991907012406004+65017+025450FM-12+001099999V0202701N009819999999N0000001N9+00061+99999100511ADDGF108991999999999999999999
0029028750999991907012413004+65017+025450FM-12+001099999V0202701N012919999999N0000001N9+00111+99999100501ADDGF108991999999999999999999
0035028750999991907012420004+65017+025450FM-12+001099999V0202701N010819999999N0000001N9+00111+99999100261ADDGF108991999999999999999999MW1721
0029028750999991907012506004+65017+025450FM-12+001099999V0202301N005119999999N0000001N9-00281+99999098981ADDGF108991999999999999999999
0029028750999991907012513004+65017+025450FM-12+001099999V0201801N008219999999N0000001N9+00171+99999098101ADDGF108991999999999999999999
0029028750999991907012520004+65017+025450FM-12+001099999V0202301N007219999999N0000001N9-00721+99999098441ADDGF104991999999999999999999
0029028750999991907012606004+65017+025450FM-12+001099999V0203201N004119999999N0000001N9-01501+99999098911ADDGF100991999999999999999999
0029028750999991907012613004+65017+025450FM-12+001099999V0203601N005119999999N0000001N9-00831+99999099391ADDGF108991999999999999999999
0029028750999991907012620004+65017+025450FM-12+001099999V0203201N001019999999N0000001N9-01611+99999100031ADDGF100991999999999999999999
0029028750999991907012706004+65017+025450FM-12+001099999V0209991C000019999999N0000001N9-02221+99999100831ADDGF100991999999999999999999
0029028750999991907012713004+65017+025450FM-12+001099999V0209991C000019999999N0000001N9-02281+99999101201ADDGF100991999999999999999999
0029028750999991907012720004+65017+025450FM-12+001099999V0203201N003119999999N0000001N9-02061+99999101041ADDGF106991999999999999999999
0029028750999991907012806004+65017+025450FM-12+001099999V0200901N003119999999N0000001N9-01721+99999100721ADDGF108991999999999999999999
0029028750999991907012813004+65017+025450FM-12+001099999V0201401N003119999999N0000001N9-01561+99999100591ADDGF107991999999999999999999
0029028750999991907012820004+65017+025450FM-12+001099999V0201401N003119999999N0000001N9-01391+99999100281ADDGF105991999999999999999999
0029028750999991907012906004+65017+025450FM-12+001099999V0201101N006219999999N0000001N9-01001+99999099831ADDGF108991999999999999999999
0029028750999991907012913004+65017+025450FM-12+001099999V0201101N008219999999N0000001N9-00891+99999099901ADDGF108991999999999999999999
0029028750999991907012920004+65017+025450FM-12+001099999V0201101N005119999999N0000001N9-01111+99999099981ADDGF104991999999999999999999
0029028750999991907013006004+65017+025450FM-12+001099999V0200901N005119999999N0000001N9-01061+99999100111ADDGF108991999999999999999999
0029028750999991907013013004+65017+025450FM-12+001099999V0200901N002119999999N0000001N9-01111+99999100221ADDGF104991999999999999999999
0029028750999991907013020004+65017+025450FM-12+001099999V0200901N003119999999N0000001N9-01331+99999100401ADDGF104991999999999999999999
0029028750999991907013106004+65017+025450FM-12+001099999V0200901N003119999999N0000001N9-01671+99999100841ADDGF100991999999999999999999
0029028750999991907013113004+65017+025450FM-12+001099999V0200901N001019999999N0000001N9-01561+99999101221ADDGF106991999999999999999999
0029028750999991907013120004+65017+025450FM-12+001099999V0200501N001019999999N0000001N9-01611+99999101581ADDGF107991999999999999999999
0029028750999991907020106004+65017+025450FM-12+001099999V0209991C000019999999N0000001N9-02391+99999102001ADDGF100991999999999999999999
0029028750999991907020113004+65017+025450FM-12+001099999V0201601N003119999999N0000001N9-01891+99999102201ADDGF100991999999999999999999
0029028750999991907020120004+65017+025450FM-12+001099999V0201601N005119999999N0000001N9-01781+99999102001ADDGF100991999999999999999999
0029028750999991907020206004+65017+025450FM-12+001099999V0202701N007219999999N0000001N9-00441+99999101621ADDGF102991999999999999999999
0029028750999991907020213004+65017+025450FM-12+001099999V0202701N008219999999N0000001N9-00281+99999102421ADDGF106991999999999999999999
0029028750999991907020220004+65017+025450FM-12+001099999V0202701N006219999999N0000001N9-00171+99999102231ADDGF100991999999999999999999
0029028750999991907020306004+65017+025450FM-12+001099999V0202701N009819999999N0000001N9+00061+99999101501ADDGF100991999999999999999999
0029028750999991907020313004+65017+025450FM-12+001099999V0202301N003119999999N0000001N9+00111+99999102041ADDGF108991999999999999999999
0029028750999991907020320004+65017+025450FM-12+001099999V0202701N005119999999N0000001N9-00061+99999102111ADDGF100991999999999999999999
0029028750999991907020406004+65017+025450FM-12+001099999V0202301N004119999999N0000001N9-00391+99999102201ADDGF108991999999999999999999
0029028750999991907020413004+65017+025450FM-12+001099999V0202701N003119999999N0000001N9-00501+99999102181ADDGF108991999999999999999999
0029028750999991907020420004+65017+025450FM-12+001099999V0201801N004119999999N0000001N9-00501+99999101981ADDGF108991999999999999999999
0029028750999991907020506004+65017+025450FM-12+001099999V0202701N005119999999N0000001N9-00331+99999101551ADDGF108991999999999999999999
0029028750999991907020513004+65017+025450FM-12+001099999V0202701N008219999999N0000001N9-00281+99999101511ADDGF104991999999999999999999
0029028750999991907020520004+65017+025450FM-12+001099999V0202301N001019999999N0000001N9-01111+99999102181ADDGF108991999999999999999999
0029028750999991907020606004+65017+025450FM-12+001099999V0201401N003119999999N0000001N9-01941+99999103111ADDGF100991999999999999999999
0029028750999991907020613004+65017+025450FM-12+001099999V0201601N003119999999N0000001N9-01221+99999103121ADDGF100991999999999999999999
0029028750999991907020620004+65017+025450FM-12+001099999V0201801N001019999999N0000001N9-01221+99999103031ADDGF100991999999999999999999
0029028750999991907020706004+65017+025450FM-12+001099999V0202701N002119999999N0000001N9-00831+99999102911ADDGF108991999999999999999999
0035028750999991907020713004+65017+025450FM-12+001099999V0201801N002119999999N0000001N9-00391+99999102751ADDGF108991999999999999999999MW1721
0029028750999991907020720004+65017+025450FM-12+001099999V0201801N002119999999N0000001N9-00671+99999102591ADDGF108991999999999999999999
0029028750999991907020806004+65017+025450FM-12+001099999V0201801N004119999999N0000001N9-01001+99999102271ADDGF108991999999999999999999
0029028750999991907020813004+65017+025450FM-12+001099999V0201801N007219999999N0000001N9-00891+99999101741ADDGF108991999999999999999999
0029028750999991907020820004+65017+025450FM-12+001099999V0201801N006219999999N0000001N9-00331+99999101991ADDGF108991999999999999999999
0029028750999991907020906004+65017+025450FM-12+001099999V0201801N006219999999N0000001N9+00171+99999101921ADDGF108991999999999999999999
0029028750999991907020913004+65017+025450FM-12+001099999V0201801N004119999999N0000001N9-00281+99999101901ADDGF108991999999999999999999
0029028750999991907020920004+65017+025450FM-12+001099999V0201801N006219999999N0000001N9-00831+99999101911ADDGF108991999999999999999999
0029028750999991907021006004+65017+025450FM-12+001099999V0201801N006219999999N0000001N9-00891+99999101831ADDGF108991999999999999999999
0029028750999991907021013004+65017+025450FM-12+001099999V0201601N006219999999N0000001N9-00721+99999101841ADDGF108991999999999999999999
0029028750999991907021020004+65017+025450FM-12+001099999V0201801N005119999999N0000001N9-01001+99999101841ADDGF108991999999999999999999
0029028750999991907021106004+65017+025450FM-12+001099999V0201401N006219999999N0000001N9-01061+99999101711ADDGF108991999999999999999999
0035028750999991907021113004+65017+025450FM-12+001099999V0201801N006219999999N0000001N9-00891+99999101901ADDGF108991999999999999999999MW1721
0029028750999991907021120004+65017+025450FM-12+001099999V0201801N004119999999N0000001N9-00721+99999101871ADDGF108991999999999999999999
0029028750999991907021206004+65017+025450FM-12+001099999V0201801N007219999999N0000001N9-00671+99999101521ADDGF108991999999999999999999
0029028750999991907021213004+65017+025450FM-12+001099999V0201801N005119999999N0000001N9-00941+99999101441ADDGF108991999999999999999999
0029028750999991907021220004+65017+025450FM-12+001099999V0201401N005119999999N0000001N9-00831+99999101271ADDGF108991999999999999999999
0029028750999991907021306004+65017+025450FM-12+001099999V0201801N005119999999N0000001N9-00561+99999101301ADDGF108991999999999999999999
0029028750999991907021313004+65017+025450FM-12+001099999V0201801N005119999999N0000001N9-00391+99999101441ADDGF108991999999999999999999
0029028750999991907021320004+65017+025450FM-12+001099999V0201801N005119999999N0000001N9-00561+99999101801ADDGF108991999999999999999999
0029028750999991907021406004+65017+025450FM-12+001099999V0201801N005119999999N0000001N9-00891+99999101621ADDGF108991999999999999999999
0029028750999991907021413004+65017+025450FM-12+001099999V0201801N005119999999N0000001N9-00671+99999101551ADDGF108991999999999999999999
0029028750999991907021420004+65017+025450FM-12+001099999V0202301N004119999999N0000001N9-00441+99999101511ADDGF108991999999999999999999
0029028750999991907021506004+65017+025450FM-12+001099999V0201801N005119999999N0000001N9-00611+99999100831ADDGF108991999999999999999999
0035028750999991907021513004+65017+025450FM-12+001099999V0201801N005119999999N0000001N9-00391+99999099781ADDGF108991999999999999999999MW1721
0029028750999991907021520004+65017+025450FM-12+001099999V0202301N008219999999N0000001N9-00111+99999099241ADDGF108991999999999999999999
0029028750999991907021606004+65017+025450FM-12+001099999V0201801N005119999999N0000001N9-00221+99999097311ADDGF108991999999999999999999
0029028750999991907021613004+65017+025450FM-12+001099999V0202701N008219999999N0000001N9+00281+99999097391ADDGF108991999999999999999999
0029028750999991907021620004+65017+025450FM-12+001099999V0202701N006219999999N0000001N9-00281+99999098071ADDGF100991999999999999999999
0029028750999991907021706004+65017+025450FM-12+001099999V0201801N004119999999N0000001N9-00781+99999098061ADDGF100991999999999999999999
0035028750999991907021713004+65017+025450FM-12+001099999V0201801N006219999999N0000001N9-00331+99999097551ADDGF108991999999999999999999MW1721
0029028750999991907021720004+65017+025450FM-12+001099999V0202701N001019999999N0000001N9-01001+99999097961ADDGF100991999999999999999999
0029028750999991907021806004+65017+025450FM-12+001099999V0201801N001019999999N0000001N9-01391+99999098481ADDGF100991999999999999999999
0029028750999991907021813004+65017+025450FM-12+001099999V0202701N005119999999N0000001N9-00671+99999098701ADDGF100991999999999999999999
0029028750999991907021820004+65017+025450FM-12+001099999V0201401N001019999999N0000001N9-01001+99999098801ADDGF100991999999999999999999
0029028750999991907021906004+65017+025450FM-12+001099999V0201401N002119999999N0000001N9-01001+99999098761ADDGF108991999999999999999999
0035028750999991907021913004+65017+025450FM-12+001099999V0201401N007219999999N0000001N9-00831+99999098271ADDGF108991999999999999999999MW1721
0035028750999991907021920004+65017+025450FM-12+001099999V0201801N006219999999N0000001N9-00611+99999097421ADDGF108991999999999999999999MW1721
0029028750999991907022006004+65017+025450FM-12+001099999V0201801N004119999999N0000001N9-00111+99999097671ADDGF108991999999999999999999
0035028750999991907022013004+65017+025450FM-12+001099999V0201401N005119999999N0000001N9+00061+99999097661ADDGF108991999999999999999999MW1721
0035028750999991907022020004+65017+025450FM-12+001099999V0201401N008219999999N0000001N9-00111+99999097341ADDGF108991999999999999999999MW1721
0035028750999991907022106004+65017+025450FM-12+001099999V0201401N008219999999N0000001N9-00281+99999096991ADDGF108991999999999999999999MW1721
0029028750999991907022113004+65017+025450FM-12+001099999V0201601N006219999999N0000001N9-00171+99999097141ADDGF108991999999999999999999
0029028750999991907022120004+65017+025450FM-12+001099999V0201401N006219999999N0000001N9-00171+99999097501ADDGF108991999999999999999999
0029028750999991907022206004+65017+025450FM-12+001099999V0201401N003119999999N0000001N9-00501+99999097701ADDGF108991999999999999999999
0029028750999991907022213004+65017+025450FM-12+001099999V0201101N004119999999N0000001N9-00281+99999097881ADDGF108991999999999999999999
0029028750999991907022220004+65017+025450FM-12+001099999V0200901N003119999999N0000001N9-00501+99999098421ADDGF108991999999999999999999
0029028750999991907022306004+65017+025450FM-12+001099999V0209991C000019999999N0000001N9-00501+99999098721ADDGF108991999999999999999999
0029028750999991907022313004+65017+025450FM-12+001099999V0200901N003119999999N0000001N9-00281+99999098951ADDGF108991999999999999999999
0029028750999991907022320004+65017+025450FM-12+001099999V0200901N002119999999N0000001N9-00441+99999099041ADDGF108991999999999999999999
0029028750999991907022406004+65017+025450FM-12+001099999V0203601N001019999999N0000001N9-00501+99999099231ADDGF108991999999999999999999
0029028750999991907022413004+65017+025450FM-12+001099999V0203201N002119999999N0000001N9-00721+99999099671ADDGF108991999999999999999999
0029028750999991907022420004+65017+025450FM-12+001099999V0203201N003119999999N0000001N9-00941+99999100061ADDGF108991999999999999999999
0029028750999991907022506004+65017+025450FM-12+001099999V0209991C000019999999N0000001N9-01061+99999100601ADDGF108991999999999999999999
0029028750999991907022513004+65017+025450FM-12+001099999V0201801N005119999999N0000001N9-00671+99999100341ADDGF108991999999999999999999
0035028750999991907022520004+65017+025450FM-12+001099999V0202701N008219999999N0000001N9-00331+99999098841ADDGF108991999999999999999999MW1721
0035028750999991907022606004+65017+025450FM-12+001099999V0201801N007219999999N0000001N9-00061+99999096991ADDGF108991999999999999999999MW1721
0029028750999991907022613004+65017+025450FM-12+001099999V0202901N010819999999N0000001N9-00171+99999096911ADDGF108991999999999999999999
0029028750999991907022620004+65017+025450FM-12+001099999V0202901N006219999999N0000001N9-00391+99999097301ADDGF104991999999999999999999
0029028750999991907022706004+65017+025450FM-12+001099999V0202701N006219999999N0000001N9-00501+99999097721ADDGF102991999999999999999999
0029028750999991907022713004+65017+025450FM-12+001099999V0203201N008219999999N0000001N9-00561+99999098311ADDGF103991999999999999999999
0029028750999991907022720004+65017+025450FM-12+001099999V0203201N008719999999N0000001N9-00611+99999098671ADDGF107991999999999999999999
0029028750999991907022806004+65017+025450FM-12+001099999V0203201N006219999999N0000001N9-00891+99999099501ADDGF105991999999999999999999
0029028750999991907022813004+65017+025450FM-12+001099999V0203401N008719999999N0000001N9-00331+99999099601ADDGF102991999999999999999999
0029028750999991907022820004+65017+025450FM-12+001099999V0203601N007219999999N0000001N9-00391+99999100181ADDGF103991999999999999999999
0029028750999991907030106004+65017+025450FM-12+001099999V0203201N005119999999N0000001N9-00891+99999101071ADDGF102991999999999999999999
0029028750999991907030113004+65017+025450FM-12+001099999V0202701N003119999999N0000001N9-00611+99999101261ADDGF101991999999999999999999
0029028750999991907030120004+65017+025450FM-12+001099999V0202701N001019999999N0000001N9-01061+99999101121ADDGF100991999999999999999999
0029028750999991907030206004+65017+025450FM-12+001099999V0201401N001019999999N0000001N9-00721+99999100881ADDGF108991999999999999999999
0029028750999991907030213004+65017+025450FM-12+001099999V0203201N003119999999N0000001N9-00111+99999100761ADDGF103991999999999999999999
0029028750999991907030220004+65017+025450FM-12+001099999V0203201N004119999999N0000001N9-00611+99999101421ADDGF100991999999999999999999
0029028750999991907030306004+65017+025450FM-12+001099999V0201801N002119999999N0000001N9-00781+99999101421ADDGF103991999999999999999999
0029028750999991907030313004+65017+025450FM-12+001099999V0202701N004119999999N0000001N9+00001+99999101681ADDGF108991999999999999999999
0029028750999991907030320004+65017+025450FM-12+001099999V0201801N003119999999N0000001N9-00501+99999102001ADDGF100991999999999999999999
0029028750999991907030406004+65017+025450FM-12+001099999V0202701N007219999999N0000001N9+00001+99999101441ADDGF100991999999999999999999
0029028750999991907030413004+65017+025450FM-12+001099999V0202701N004119999999N0000001N9+00331+99999101061ADDGF100991999999999999999999
0029028750999991907030420004+65017+025450FM-12+001099999V0202701N008219999999N0000001N9+00171+99999100751ADDGF100991999999999999999999
0029028750999991907030506004+65017+025450FM-12+001099999V0202701N007219999999N0000001N9+00221+99999100751ADDGF100991999999999999999999
0029028750999991907030513004+65017+025450FM-12+001099999V0202701N008219999999N0000001N9+00391+99999100441ADDGF100991999999999999999999
0029028750999991907030520004+65017+025450FM-12+001099999V0202701N007219999999N0000001N9+00111+99999100191ADDGF100991999999999999999999
0029028750999991907030606004+65017+025450FM-12+001099999V0202701N006219999999N0000001N9+00001+99999099801ADDGF100991999999999999999999
0029028750999991907030613004+65017+025450FM-12+001099999V0202701N008719999999N0000001N9+00111+99999099981ADDGF100991999999999999999999
0029028750999991907030620004+65017+025450FM-12+001099999V0202501N007219999999N0000001N9-00061+99999099621ADDGF100991999999999999999999
0029028750999991907030706004+65017+025450FM-12+001099999V0202701N004119999999N0000001N9-00501+99999100191ADDGF100991999999999999999999
0029028750999991907030713004+65017+025450FM-12+001099999V0202701N005119999999N0000001N9+00001+99999100431ADDGF108991999999999999999999
0029028750999991907030720004+65017+025450FM-12+001099999V0201801N008219999999N0000001N9+00001+99999099901ADDGF108991999999999999999999
0029028750999991907030806004+65017+025450FM-12+001099999V0202701N005119999999N0000001N9+00221+99999099001ADDGF108991999999999999999999
0029028750999991907030813004+65017+025450FM-12+001099999V0201801N005119999999N0000001N9+00111+99999099081ADDGF108991999999999999999999
0035028750999991907030820004+65017+025450FM-12+001099999V0201401N005119999999N0000001N9+00061+99999098861ADDGF108991999999999999999999MW1721
0029028750999991907030906004+65017+025450FM-12+001099999V0202701N004119999999N0000001N9+00171+99999099021ADDGF108991999999999999999999
0029028750999991907030913004+65017+025450FM-12+001099999V0202701N003119999999N0000001N9-00331+99999099401ADDGF108991999999999999999999
0029028750999991907030920004+65017+025450FM-12+001099999V0201801N004119999999N0000001N9-01061+99999099751ADDGF100991999999999999999999
0029028750999991907031006004+65017+025450FM-12+001099999V0201801N002119999999N0000001N9-01221+99999100261ADDGF100991999999999999999999
0029028750999991907031013004+65017+025450FM-12+001099999V0201801N002119999999N0000001N9-00561+99999100551ADDGF100991999999999999999999
0029028750999991907031020004+65017+025450FM-12+001099999V0201401N002119999999N0000001N9-01171+99999100671ADDGF100991999999999999999999
0029028750999991907031106004+65017+025450FM-12+001099999V0200501N004119999999N0000001N9-01501+99999100941ADDGF100991999999999999999999
0029028750999991907031113004+65017+025450FM-12+001099999V0203601N002119999999N0000001N9-00441+99999101031ADDGF100991999999999999999999
0029028750999991907031120004+65017+025450FM-12+001099999V0203601N002119999999N0000001N9-01061+99999101191ADDGF100991999999999999999999
0029028750999991907031206004+65017+025450FM-12+001099999V0203401N001019999999N0000001N9-01721+99999101441ADDGF100991999999999999999999
0029028750999991907031213004+65017+025450FM-12+001099999V0203401N002119999999N0000001N9-01061+99999101561ADDGF100991999999999999999999
0029028750999991907031220004+65017+025450FM-12+001099999V0209991C000019999999N0000001N9-01331+99999101581ADDGF100991999999999999999999
0029028750999991907031306004+65017+025450FM-12+001099999V0209991C000019999999N0000001N9-01061+99999101441ADDGF108991999999999999999999
0029028750999991907031313004+65017+025450FM-12+001099999V0202701N002119999999N0000001N9-00671+99999101161ADDGF102991999999999999999999
0029028750999991907031320004+65017+025450FM-12+001099999V0209991C000019999999N0000001N9-01671+99999101021ADDGF100991999999999999999999
0029028750999991907031406004+65017+025450FM-12+001099999V0209991C000019999999N0000001N9-01391+99999100921ADDGF108991999999999999999999
0029028750999991907031413004+65017+025450FM-12+001099999V0203201N004119999999N0000001N9-00781+99999100981ADDGF100991999999999999999999
0029028750999991907031420004+65017+025450FM-12+001099999V0203201N001019999999N0000001N9-01671+99999101241ADDGF100991999999999999999999
0029028750999991907031506004+65017+025450FM-12+001099999V0209991C000019999999N0000001N9-01941+99999101551ADDGF100991999999999999999999
0029028750999991907031513004+65017+025450FM-12+001099999V0201801N001019999999N0000001N9-00721+99999101671ADDGF108991999999999999999999
0029028750999991907031520004+65017+025450FM-12+001099999V0201401N002119999999N0000001N9-01281+99999101661ADDGF100991999999999999999999
0035028750999991907031606004+65017+025450FM-12+001099999V0201401N002119999999N0000001N9-01441+99999101471ADDGF100991999999999999999999MW1721
0035028750999991907031613004+65017+025450FM-12+001099999V0201401N004119999999N0000001N9-00501+99999101161ADDGF108991999999999999999999MW1721
0035028750999991907031620004+65017+025450FM-12+001099999V0200901N005119999999N0000001N9-00501+99999100901ADDGF108991999999999999999999MW1721
0035028750999991907031706004+65017+025450FM-12+001099999V0201401N006219999999N0000001N9-00171+99999100341ADDGF108991999999999999999999MW1721
0029028750999991907031713004+65017+025450FM-12+001099999V0201401N007219999999N0000001N9-00061+99999100031ADDGF108991999999999999999999
0029028750999991907031720004+65017+025450FM-12+001099999V0201801N008219999999N0000001N9-00221+99999099781ADDGF108991999999999999999999
0029028750999991907031806004+65017+025450FM-12+001099999V0201801N008219999999N0000001N9-00111+99999099401ADDGF108991999999999999999999
0029028750999991907031813004+65017+025450FM-12+001099999V0201601N008219999999N0000001N9+00061+99999099501ADDGF108991999999999999999999
0029028750999991907031820004+65017+025450FM-12+001099999V0201801N005119999999N0000001N9-00061+99999099481ADDGF108991999999999999999999
0029028750999991907031906004+65017+025450FM-12+001099999V0201401N002119999999N0000001N9-00281+99999099551ADDGF108991999999999999999999
0029028750999991907031913004+65017+025450FM-12+001099999V0201401N006219999999N0000001N9-00171+99999099481ADDGF108991999999999999999999
0029028750999991907031920004+65017+025450FM-12+001099999V0201401N003119999999N0000001N9-00111+99999099421ADDGF108991999999999999999999
0029028750999991907032006004+65017+025450FM-12+001099999V0201401N002119999999N0000001N9-00221+99999099591ADDGF100991999999999999999999
0029028750999991907032013004+65017+025450FM-12+001099999V0201401N003119999999N0000001N9+00171+99999099601ADDGF104991999999999999999999
0029028750999991907032020004+65017+025450FM-12+001099999V0200901N002119999999N0000001N9-00111+99999100041ADDGF104991999999999999999999
0029028750999991907032106004+65017+025450FM-12+001099999V0200901N003119999999N0000001N9-00441+99999100401ADDGF100991999999999999999999
0029028750999991907032113004+65017+025450FM-12+001099999V0201401N001019999999N0000001N9+00221+99999100561ADDGF102991999999999999999999
0029028750999991907032120004+65017+025450FM-12+001099999V0209991C000019999999N0000001N9-00501+99999100551ADDGF100991999999999999999999
0029028750999991907032206004+65017+025450FM-12+001099999V0209991C000019999999N0000001N9-00891+99999099941ADDGF108991999999999999999999
0029028750999991907032213004+65017+025450FM-12+001099999V0209991C000019999999N0000001N9+00061+99999099641ADDGF108991999999999999999999
0029028750999991907032220004+65017+025450FM-12+001099999V0209991C000019999999N0000001N9-00331+99999099711ADDGF108991999999999999999999
0029028750999991907032306004+65017+025450FM-12+001099999V0203201N001019999999N0000001N9-00441+99999100101ADDGF108991999999999999999999
0029028750999991907032313004+65017+025450FM-12+001099999V0203601N004119999999N0000001N9+00001+99999100381ADDGF108991999999999999999999
0029028750999991907032320004+65017+025450FM-12+001099999V0202301N003119999999N0000001N9-00561+99999100601ADDGF108991999999999999999999
0029028750999991907032406004+65017+025450FM-12+001099999V0202301N002119999999N0000001N9-01391+99999101341ADDGF100991999999999999999999
0029028750999991907032413004+65017+025450FM-12+001099999V0202701N001019999999N0000001N9-00281+99999101671ADDGF100991999999999999999999
0029028750999991907032420004+65017+025450FM-12+001099999V0201801N004119999999N0000001N9-00561+99999101281ADDGF100991999999999999999999
0029028750999991907032506004+65017+025450FM-12+001099999V0202301N004119999999N0000001N9-00111+99999100871ADDGF108991999999999999999999
0029028750999991907032513004+65017+025450FM-12+001099999V0202501N004119999999N0000001N9+00281+99999100941ADDGF104991999999999999999999
0029028750999991907032520004+65017+025450FM-12+001099999V0201801N001019999999N0000001N9-00171+99999100941ADDGF102991999999999999999999
0029028750999991907032606004+65017+025450FM-12+001099999V0202501N004119999999N0000001N9+00001+99999100751ADDGF108991999999999999999999
0029028750999991907032613004+65017+025450FM-12+001099999V0202701N010819999999N0000001N9+00441+99999100061ADDGF100991999999999999999999
0029028750999991907032620004+65017+025450FM-12+001099999V0203401N005119999999N0000001N9-00171+99999100941ADDGF100991999999999999999999
0029028750999991907032706004+65017+025450FM-12+001099999V0201801N004119999999N0000001N9-00391+99999101711ADDGF106991999999999999999999
0029028750999991907032713004+65017+025450FM-12+001099999V0202501N004119999999N0000001N9+00721+99999101401ADDGF108991999999999999999999
0029028750999991907032720004+65017+025450FM-12+001099999V0202501N004119999999N0000001N9+00441+99999101221ADDGF106991999999999999999999
0029028750999991907032806004+65017+025450FM-12+001099999V0202701N006219999999N0000001N9+00281+99999100741ADDGF108991999999999999999999
0029028750999991907032813004+65017+025450FM-12+001099999V0202701N008219999999N0000001N9+00501+99999100711ADDGF100991999999999999999999
0029028750999991907032820004+65017+025450FM-12+001099999V0202701N005119999999N0000001N9+00221+99999101031ADDGF100991999999999999999999
0029028750999991907032906004+65017+025450FM-12+001099999V0202701N002119999999N0000001N9+00001+99999101821ADDGF100991999999999999999999
0029028750999991907032913004+65017+025450FM-12+001099999V0202901N003119999999N0000001N9+00281+99999102191ADDGF100991999999999999999999
0029028750999991907032920004+65017+025450FM-12+001099999V0202301N001019999999N0000001N9-00111+99999102381ADDGF100991999999999999999999
0029028750999991907033006004+65017+025450FM-12+001099999V0201401N003119999999N0000001N9-00221+99999102391ADDGF100991999999999999999999
0029028750999991907033013004+65017+025450FM-12+001099999V0201801N003119999999N0000001N9+00831+99999102221ADDGF100991999999999999999999
0029028750999991907033020004+65017+025450FM-12+001099999V0201801N004119999999N0000001N9-00171+99999102071ADDGF100991999999999999999999
0029028750999991907033106004+65017+025450FM-12+001099999V0201801N007219999999N0000001N9+00221+99999101921ADDGF100991999999999999999999
0029028750999991907033113004+65017+025450FM-12+001099999V0201801N004119999999N0000001N9+00721+99999102121ADDGF100991999999999999999999
0029028750999991907033120004+65017+025450FM-12+001099999V0201801N003119999999N0000001N9+00281+99999101861ADDGF100991999999999999999999
0029028750999991907040106004+65017+025450FM-12+001099999V0201801N003119999999N0000001N9+00221+99999101671ADDGF103991999999999999999999
0029028750999991907040113004+65017+025450FM-12+001099999V0202501N006219999999N0000001N9+00831+99999101551ADDGF104991999999999999999999
0029028750999991907040120004+65017+025450FM-12+001099999V0201801N003119999999N0000001N9+00221+99999101301ADDGF104991999999999999999999
0029028750999991907040206004+65017+025450FM-12+001099999V0201801N002119999999N0000001N9+00061+99999101431ADDGF106991999999999999999999
0029028750999991907040213004+65017+025450FM-12+001099999V0201801N002119999999N0000001N9+00611+99999101561ADDGF108991999999999999999999
0029028750999991907040220004+65017+025450FM-12+001099999V0200901N001019999999N0000001N9+00221+99999101701ADDGF100991999999999999999999
0029028750999991907040306004+65017+025450FM-12+001099999V0201401N003119999999N0000001N9+00061+99999101841ADDGF100991999999999999999999
0029028750999991907040313004+65017+025450FM-12+001099999V0200901N002119999999N0000001N9+01001+99999101911ADDGF100991999999999999999999
0029028750999991907040320004+65017+025450FM-12+001099999V0200901N003119999999N0000001N9+00281+99999102121ADDGF100991999999999999999999
0029028750999991907040406004+65017+025450FM-12+001099999V0200901N003119999999N0000001N9+00061+99999102511ADDGF100991999999999999999999
0029028750999991907040413004+65017+025450FM-12+001099999V0201401N004119999999N0000001N9+00671+99999102621ADDGF101991999999999999999999
0029028750999991907040420004+65017+025450FM-12+001099999V0201401N003119999999N0000001N9+00281+99999102761ADDGF100991999999999999999999
0029028750999991907040506004+65017+025450FM-12+001099999V0201101N003119999999N0000001N9+00391+99999103181ADDGF108991999999999999999999
0029028750999991907040513004+65017+025450FM-12+001099999V0201401N003119999999N0000001N9+00831+99999103301ADDGF100991999999999999999999
0029028750999991907040520004+65017+025450FM-12+001099999V0201401N003119999999N0000001N9+00391+99999103141ADDGF108991999999999999999999
0029028750999991907040606004+65017+025450FM-12+001099999V0201401N001019999999N0000001N9+00171+99999102831ADDGF106991999999999999999999
0029028750999991907040613004+65017+025450FM-12+001099999V0201401N004119999999N0000001N9+00721+99999102631ADDGF108991999999999999999999
0029028750999991907040620004+65017+025450FM-12+001099999V0201401N002119999999N0000001N9-00171+99999102561ADDGF108991999999999999999999
0029028750999991907040706004+65017+025450FM-12+001099999V0201401N003119999999N0000001N9+00221+99999102441ADDGF108991999999999999999999
0029028750999991907040713004+65017+025450FM-12+001099999V0201801N001019999999N0000001N9+00111+99999102361ADDGF108991999999999999999999
0029028750999991907040720004+65017+025450FM-12+001099999V0201801N006219999999N0000001N9+00331+99999102241ADDGF100991999999999999999999
0029028750999991907040806004+65017+025450FM-12+001099999V0201401N005119999999N0000001N9+00171+99999102231ADDGF108991999999999999999999
0029028750999991907040813004+65017+025450FM-12+001099999V0201801N004119999999N0000001N9+00111+99999102341ADDGF108991999999999999999999
0029028750999991907040820004+65017+025450FM-12+001099999V0201801N003119999999N0000001N9+00061+99999102361ADDGF108991999999999999999999
0029028750999991907040906004+65017+025450FM-12+001099999V0201801N001019999999N0000001N9+00111+99999102561ADDGF108991999999999999999999
0029028750999991907040913004+65017+025450FM-12+001099999V0201801N003119999999N0000001N9+00391+99999102751ADDGF108991999999999999999999
0029028750999991907040920004+65017+025450FM-12+001099999V0202301N002119999999N0000001N9+00221+99999102841ADDGF108991999999999999999999
0029028750999991907041006004+65017+025450FM-12+001099999V0202701N002119999999N0000001N9+00221+99999102681ADDGF108991999999999999999999
0029028750999991907041013004+65017+025450FM-12+001099999V0202701N003119999999N0000001N9+00221+99999102561ADDGF100991999999999999999999
0029028750999991907041020004+65017+025450FM-12+001099999V0202701N003119999999N0000001N9+00061+99999102361ADDGF108991999999999999999999
0029028750999991907041106004+65017+025450FM-12+001099999V0202701N001019999999N0000001N9+00221+99999101901ADDGF106991999999999999999999
0029028750999991907041113004+65017+025450FM-12+001099999V0203201N003119999999N0000001N9+00441+99999101801ADDGF100991999999999999999999
0029028750999991907041120004+65017+025450FM-12+001099999V0203201N003119999999N0000001N9+00111+99999101701ADDGF100991999999999999999999
0029028750999991907041206004+65017+025450FM-12+001099999V0203601N002119999999N0000001N9-00111+99999101991ADDGF104991999999999999999999
0029028750999991907041213004+65017+025450FM-12+001099999V0202701N002119999999N0000001N9-00221+99999101701ADDGF108991999999999999999999
0029028750999991907041220004+65017+025450FM-12+001099999V0202701N006219999999N0000001N9-00111+99999100881ADDGF100991999999999999999999
0029028750999991907041306004+65017+025450FM-12+001099999V0203601N003119999999N0000001N9-00221+99999100941ADDGF100991999999999999999999
0029028750999991907041313004+65017+025450FM-12+001099999V0203201N005119999999N0000001N9-00061+99999100991ADDGF100991999999999999999999
0029028750999991907041320004+65017+025450FM-12+001099999V0203201N001019999999N0000001N9-00441+99999100751ADDGF100991999999999999999999
0029028750999991907041406004+65017+025450FM-12+001099999V0200501N004119999999N0000001N9-00391+99999100581ADDGF100991999999999999999999
0029028750999991907041413004+65017+025450FM-12+001099999V0203601N005119999999N0000001N9-00171+99999100721ADDGF105991999999999999999999
0029028750999991907041420004+65017+025450FM-12+001099999V0203201N002119999999N0000001N9-00671+99999100901ADDGF100991999999999999999999
0029028750999991907041506004+65017+025450FM-12+001099999V0202701N002119999999N0000001N9-00671+99999101001ADDGF100991999999999999999999
0029028750999991907041513004+65017+025450FM-12+001099999V0203201N004119999999N0000001N9-00221+99999101071ADDGF100991999999999999999999
0029028750999991907041520004+65017+025450FM-12+001099999V0202701N002119999999N0000001N9-00561+99999101071ADDGF100991999999999999999999
0029028750999991907041606004+65017+025450FM-12+001099999V0201801N004119999999N0000001N9-00331+99999101041ADDGF104991999999999999999999
0029028750999991907041613004+65017+025450FM-12+001099999V0203201N002119999999N0000001N9+00221+99999101001ADDGF102991999999999999999999
0029028750999991907041620004+65017+025450FM-12+001099999V0201401N002119999999N0000001N9-00281+99999100901ADDGF100991999999999999999999
0029028750999991907041706004+65017+025450FM-12+001099999V0201401N003119999999N0000001N9-00061+99999100591ADDGF108991999999999999999999
0029028750999991907041713004+65017+025450FM-12+001099999V0201801N004119999999N0000001N9+00561+99999100391ADDGF108991999999999999999999
0029028750999991907041720004+65017+025450FM-12+001099999V0201401N003119999999N0000001N9+00001+99999100231ADDGF108991999999999999999999
0029028750999991907041806004+65017+025450FM-12+001099999V0201401N002119999999N0000001N9+00001+99999100031ADDGF108991999999999999999999
0029028750999991907041813004+65017+025450FM-12+001099999V0201101N004119999999N0000001N9+00391+99999099871ADDGF106991999999999999999999
0035028750999991907041820004+65017+025450FM-12+001099999V0200901N002119999999N0000001N9-00061+99999099601ADDGF108991999999999999999999MW1721
0029028750999991907041906004+65017+025450FM-12+001099999V0203201N001019999999N0000001N9+00001+99999099381ADDGF108991999999999999999999
0029028750999991907041913004+65017+025450FM-12+001099999V0203201N004119999999N0000001N9+00111+99999099741ADDGF108991999999999999999999
0029028750999991907041920004+65017+025450FM-12+001099999V0202701N004119999999N0000001N9-00061+99999100121ADDGF108991999999999999999999
0029028750999991907042006004+65017+025450FM-12+001099999V0203201N002119999999N0000001N9-00281+99999100401ADDGF108991999999999999999999
0029028750999991907042013004+65017+025450FM-12+001099999V0203201N005119999999N0000001N9+00171+99999100671ADDGF108991999999999999999999
0029028750999991907042020004+65017+025450FM-12+001099999V0203601N003119999999N0000001N9+00061+99999100791ADDGF106991999999999999999999
0029028750999991907042106004+65017+025450FM-12+001099999V0200501N004119999999N0000001N9+00001+99999100941ADDGF104991999999999999999999
0029028750999991907042113004+65017+025450FM-12+001099999V0203601N003119999999N0000001N9+00441+99999100901ADDGF106991999999999999999999
0029028750999991907042120004+65017+025450FM-12+001099999V0203201N002119999999N0000001N9-00111+99999100821ADDGF108991999999999999999999
0029028750999991907042206004+65017+025450FM-12+001099999V0201401N003119999999N0000001N9-00171+99999100881ADDGF100991999999999999999999
0029028750999991907042213004+65017+025450FM-12+001099999V0201401N003119999999N0000001N9+00281+99999100831ADDGF108991999999999999999999
0029028750999991907042220004+65017+025450FM-12+001099999V0201801N002119999999N0000001N9+00221+99999100871ADDGF108991999999999999999999
0029028750999991907042306004+65017+025450FM-12+001099999V0201801N002119999999N0000001N9+00221+99999100801ADDGF108991999999999999999999
0029028750999991907042313004+65017+025450FM-12+001099999V0201401N003119999999N0000001N9+00501+99999100591ADDGF108991999999999999999999
0029028750999991907042320004+65017+025450FM-12+001099999V0201401N001019999999N0000001N9+00221+99999100201ADDGF108991999999999999999999
0029028750999991907042406004+65017+025450FM-12+001099999V0201401N003119999999N0000001N9+00281+99999100031ADDGF108991999999999999999999
0035028750999991907042413004+65017+025450FM-12+001099999V0201401N003119999999N0000001N9+00561+99999099961ADDGF108991999999999999999999MW1621
0035028750999991907042420004+65017+025450FM-12+001099999V0201401N001019999999N0000001N9+00331+99999099781ADDGF108991999999999999999999MW1621
0029028750999991907042506004+65017+025450FM-12+001099999V0203201N001019999999N0000001N9+00281+99999099781ADDGF108991999999999999999999
0029028750999991907042513004+65017+025450FM-12+001099999V0202701N001019999999N0000001N9+00281+99999100031ADDGF108991999999999999999999
0029028750999991907042520004+65017+025450FM-12+001099999V0202701N001019999999N0000001N9+00171+99999100201ADDGF102991999999999999999999
0029028750999991907042606004+65017+025450FM-12+001099999V0200901N001019999999N0000001N9+00221+99999100561ADDGF108991999999999999999999
0029028750999991907042613004+65017+025450FM-12+001099999V0200501N004119999999N0000001N9+00781+99999100471ADDGF106991999999999999999999
0029028750999991907042620004+65017+025450FM-12+001099999V0200501N003119999999N0000001N9+00501+99999100281ADDGF108991999999999999999999
0029028750999991907042706004+65017+025450FM-12+001099999V0200901N004119999999N0000001N9+00391+99999999999ADDGF108991999999999999999999
0029028750999991907042713004+65017+025450FM-12+001099999V0200901N007219999999N0000001N9+00831+99999099881ADDGF108991999999999999999999
0029028750999991907042720004+65017+025450FM-12+001099999V0200901N006219999999N0000001N9+00331+99999099871ADDGF108991999999999999999999
0029028750999991907042806004+65017+025450FM-12+001099999V0200901N004119999999N0000001N9+00331+99999099791ADDGF108991999999999999999999
0029028750999991907042813004+65017+025450FM-12+001099999V0202301N004119999999N0000001N9+00561+99999999999ADDGF108991999999999999999999
0029028750999991907042820004+65017+025450FM-12+001099999V0201801N002119999999N0000001N9+00061+99999100321ADDGF108991999999999999999999
0029028750999991907042906004+65017+025450FM-12+001099999V0201401N001019999999N0000001N9+00281+99999100471ADDGF100991999999999999999999
0029028750999991907042913004+65017+025450FM-12+001099999V0203201N002119999999N0000001N9+00781+99999100581ADDGF100991999999999999999999
0029028750999991907042920004+65017+025450FM-12+001099999V0209991C000019999999N0000001N9+00061+99999100601ADDGF100991999999999999999999
0029028750999991907043006004+65017+025450FM-12+001099999V0203401N001019999999N0000001N9+00391+99999100751ADDGF100991999999999999999999
0029028750999991907043013004+65017+025450FM-12+001099999V0203201N004119999999N0000001N9+00721+99999100641ADDGF100991999999999999999999
0029028750999991907043020004+65017+025450FM-12+001099999V0203601N002119999999N0000001N9+00281+99999100461ADDGF100991999999999999999999
0035028750999991907050106004+65017+025450FM-12+001099999V0200501N001019999999N0000001N9+00111+99999100061ADDGF108991999999999999999999MW1721
0035028750999991907050113004+65017+025450FM-12+001099999V0203601N001019999999N0000001N9+00171+99999999999ADDGF108991999999999999999999MW1721
0035028750999991907050120004+65017+025450FM-12+001099999V0203201N001019999999N0000001N9+00001+99999099981ADDGF108991999999999999999999MW1721
0029028750999991907050206004+65017+025450FM-12+001099999V0203201N002119999999N0000001N9+00061+99999999999ADDGF108991999999999999999999
0029028750999991907050213004+65017+025450FM-12+001099999V0203201N002119999999N0000001N9+00391+99999100671ADDGF102991999999999999999999
0029028750999991907050220004+65017+025450FM-12+001099999V0200901N004119999999N0000001N9+00281+99999100641ADDGF102991999999999999999999
0029028750999991907050306004+65017+025450FM-12+001099999V0200901N003119999999N0000001N9+00391+99999100641ADDGF106991999999999999999999
0029028750999991907050313004+65017+025450FM-12+001099999V0201101N006219999999N0000001N9+00831+99999100481ADDGF108991999999999999999999
0029028750999991907050320004+65017+025450FM-12+001099999V0201401N004119999999N0000001N9+00391+99999100311ADDGF108991999999999999999999
0035028750999991907050406004+65017+025450FM-12+001099999V0201401N004119999999N0000001N9+00281+99999099841ADDGF108991999999999999999999MW1621
0035028750999991907050413004+65017+025450FM-12+001099999V0201401N003119999999N0000001N9+00441+99999099761ADDGF108991999999999999999999MW1621
0035028750999991907050420004+65017+025450FM-12+001099999V0201401N002119999999N0000001N9+00391+99999099801ADDGF108991999999999999999999MW1621
0029028750999991907050506004+65017+025450FM-12+001099999V0203201N001019999999N0000001N9+00331+99999099821ADDGF108991999999999999999999
0029028750999991907050513004+65017+025450FM-12+001099999V0202301N002119999999N0000001N9+00281+99999100121ADDGF108991999999999999999999
0029028750999991907050520004+65017+025450FM-12+001099999V0202701N006219999999N0000001N9+00111+99999100281ADDGF108991999999999999999999
0029028750999991907050606004+65017+025450FM-12+001099999V0202701N002119999999N0000001N9+00281+99999100801ADDGF100991999999999999999999
0029028750999991907050613004+65017+025450FM-12+001099999V0203201N003119999999N0000001N9+00281+99999101241ADDGF108991999999999999999999
0029028750999991907050620004+65017+025450FM-12+001099999V0203201N004119999999N0000001N9+00111+99999101821ADDGF100991999999999999999999
0029028750999991907050706004+65017+025450FM-12+001099999V0203201N001019999999N0000001N9+00061+99999102741ADDGF100991999999999999999999
0029028750999991907050713004+65017+025450FM-12+001099999V0203201N004119999999N0000001N9+00441+99999102861ADDGF100991999999999999999999
0029028750999991907050720004+65017+025450FM-12+001099999V0209991C000019999999N0000001N9+00001+99999102701ADDGF100991999999999999999999
0029028750999991907050806004+65017+025450FM-12+001099999V0201801N001019999999N0000001N9+00331+99999102441ADDGF100991999999999999999999
0029028750999991907050813004+65017+025450FM-12+001099999V0202301N003119999999N0000001N9+00561+99999102231ADDGF108991999999999999999999
0029028750999991907050820004+65017+025450FM-12+001099999V0201101N003119999999N0000001N9+00331+99999101661ADDGF102991999999999999999999
0035028750999991907050906004+65017+025450FM-12+001099999V0203201N001019999999N0000001N9+00281+99999101191ADDGF108991999999999999999999MW1721
0029028750999991907050913004+65017+025450FM-12+001099999V0203201N004119999999N0000001N9+00561+99999101431ADDGF108991999999999999999999
0029028750999991907050920004+65017+025450FM-12+001099999V0203201N001019999999N0000001N9+00221+99999101791ADDGF100991999999999999999999
0029028750999991907051006004+65017+025450FM-12+001099999V0201801N002119999999N0000001N9+00501+99999101981ADDGF100991999999999999999999
0029028750999991907051013004+65017+025450FM-12+001099999V0201601N003119999999N0000001N9+00941+99999101841ADDGF106991999999999999999999
0035028750999991907051020004+65017+025450FM-12+001099999V0201801N001019999999N0000001N9+00721+99999101701ADDGF108991999999999999999999MW1621
0029028750999991907051106004+65017+025450FM-12+001099999V0203201N001019999999N0000001N9+00331+99999101631ADDGF108991999999999999999999
0029028750999991907051113004+65017+025450FM-12+001099999V0202701N001019999999N0000001N9+00561+99999101311ADDGF108991999999999999999999
0035028750999991907051120004+65017+025450FM-12+001099999V0202301N005119999999N0000001N9+00221+99999100701ADDGF108991999999999999999999MW1621
0029028750999991907051206004+65017+025450FM-12+001099999V0202301N001019999999N0000001N9+00391+99999100761ADDGF108991999999999999999999
0029028750999991907051213004+65017+025450FM-12+001099999V0202701N003119999999N0000001N9+00831+99999100801ADDGF100991999999999999999999
0029028750999991907051220004+65017+025450FM-12+001099999V0200901N005119999999N0000001N9+00561+99999100481ADDGF108991999999999999999999
0029028750999991907051306004+65017+025450FM-12+001099999V0200501N007219999999N0000001N9+00061+99999100951ADDGF108991999999999999999999
0029028750999991907051313004+65017+025450FM-12+001099999V0203201N008219999999N0000001N9+00281+99999101461ADDGF106991999999999999999999
0029028750999991907051320004+65017+025450FM-12+001099999V0202901N004119999999N0000001N9+00111+99999101301ADDGF106991999999999999999999
0029028750999991907051406004+65017+025450FM-12+001099999V0203201N004119999999N0000001N9+00221+99999100901ADDGF100991999999999999999999
0029028750999991907051413004+65017+025450FM-12+001099999V0200501N005119999999N0000001N9+00331+99999100991ADDGF102991999999999999999999
0029028750999991907051420004+65017+025450FM-12+001099999V0203201N003119999999N0000001N9+00001+99999101081ADDGF101991999999999999999999
0029028750999991907051506004+65017+025450FM-12+001099999V0203401N004119999999N0000001N9+00001+99999101081ADDGF100991999999999999999999
0029028750999991907051513004+65017+025450FM-12+001099999V0203201N006219999999N0000001N9+00281+99999101001ADDGF102991999999999999999999
0029028750999991907051520004+65017+025450FM-12+001099999V0202901N004119999999N0000001N9+00001+99999100821ADDGF104991999999999999999999
0029028750999991907051606004+65017+025450FM-12+001099999V0200501N002119999999N0000001N9+00061+99999100921ADDGF104991999999999999999999
0029028750999991907051613004+65017+025450FM-12+001099999V0203601N004119999999N0000001N9+00611+99999100921ADDGF106991999999999999999999
0029028750999991907051620004+65017+025450FM-12+001099999V0203601N002119999999N0000001N9+00171+99999100871ADDGF100991999999999999999999
0029028750999991907051706004+65017+025450FM-12+001099999V0203601N004119999999N0000001N9+00171+99999100831ADDGF108991999999999999999999
0029028750999991907051713004+65017+025450FM-12+001099999V0203201N003119999999N0000001N9+00221+99999100951ADDGF108991999999999999999999
0029028750999991907051720004+65017+025450FM-12+001099999V0203601N001019999999N0000001N9+00111+99999101161ADDGF107991999999999999999999
0029028750999991907051806004+65017+025450FM-12+001099999V0200901N002119999999N0000001N9+00501+99999101461ADDGF107991999999999999999999
0029028750999991907051813004+65017+025450FM-12+001099999V0200901N004119999999N0000001N9+00891+99999101551ADDGF106991999999999999999999
0029028750999991907051820004+65017+025450FM-12+001099999V0200901N001019999999N0000001N9+00611+99999101941ADDGF100991999999999999999999
0029028750999991907051906004+65017+025450FM-12+001099999V0201601N002119999999N0000001N9+00781+99999102341ADDGF100991999999999999999999
0029028750999991907051913004+65017+025450FM-12+001099999V0203201N003119999999N0000001N9+01221+99999102541ADDGF106991999999999999999999
0029028750999991907051920004+65017+025450FM-12+001099999V0200901N004119999999N0000001N9+00781+99999102721ADDGF102991999999999999999999
0035028750999991907052006004+65017+025450FM-12+001099999V0201401N004119999999N0000001N9+00721+99999102831ADDGF108991999999999999999999MW1621
0035028750999991907052013004+65017+025450FM-12+001099999V0201401N006219999999N0000001N9+00671+99999102781ADDGF108991999999999999999999MW1621
0035028750999991907052020004+65017+025450FM-12+001099999V0201401N005119999999N0000001N9+00671+99999102441ADDGF108991999999999999999999MW1621
0029028750999991907052106004+65017+025450FM-12+001099999V0203201N002119999999N0000001N9+00721+99999102101ADDGF108991999999999999999999
0029028750999991907052113004+65017+025450FM-12+001099999V0203201N004119999999N0000001N9+00781+99999101901ADDGF104991999999999999999999
0029028750999991907052120004+65017+025450FM-12+001099999V0209991C000019999999N0000001N9+00441+99999101591ADDGF104991999999999999999999
0029028750999991907052206004+65017+025450FM-12+001099999V0202701N002119999999N0000001N9+00671+99999101351ADDGF100991999999999999999999
0029028750999991907052213004+65017+025450FM-12+001099999V0202901N006219999999N0000001N9+01001+99999101121ADDGF105991999999999999999999
0029028750999991907052220004+65017+025450FM-12+001099999V0203601N004119999999N0000001N9+00561+99999101121ADDGF106991999999999999999999
0029028750999991907052306004+65017+025450FM-12+001099999V0200501N003119999999N0000001N9+00781+99999101191ADDGF106991999999999999999999
0029028750999991907052313004+65017+025450FM-12+001099999V0203201N004119999999N0000001N9+01111+99999101281ADDGF106991999999999999999999
0029028750999991907052320004+65017+025450FM-12+001099999V0203601N002119999999N0000001N9+00721+99999101401ADDGF106991999999999999999999
0029028750999991907052406004+65017+025450FM-12+001099999V0203201N002119999999N0000001N9+00721+99999101721ADDGF103991999999999999999999
0029028750999991907052413004+65017+025450FM-12+001099999V0203601N004119999999N0000001N9+00941+99999101751ADDGF102991999999999999999999
0029028750999991907052420004+65017+025450FM-12+001099999V0209991C000019999999N0000001N9+00561+99999101661ADDGF103991999999999999999999
0029028750999991907052506004+65017+025450FM-12+001099999V0200501N002119999999N0000001N9+00501+99999101391ADDGF108991999999999999999999
0029028750999991907052513004+65017+025450FM-12+001099999V0200901N002119999999N0000001N9+00831+99999101271ADDGF108991999999999999999999
0029028750999991907052520004+65017+025450FM-12+001099999V0209991C000019999999N0000001N9+00281+99999100981ADDGF102991999999999999999999
0029028750999991907052606004+65017+025450FM-12+001099999V0200901N002119999999N0000001N9+00781+99999100471ADDGF102991999999999999999999
0029028750999991907052613004+65017+025450FM-12+001099999V0203601N003119999999N0000001N9+00891+99999100241ADDGF108991999999999999999999
0029028750999991907052620004+65017+025450FM-12+001099999V0200501N003119999999N0000001N9+00501+99999100151ADDGF108991999999999999999999
0029028750999991907052706004+65017+025450FM-12+001099999V0203601N004119999999N0000001N9+00501+99999099981ADDGF106991999999999999999999
0029028750999991907052713004+65017+025450FM-12+001099999V0200501N005119999999N0000001N9+00721+99999099921ADDGF108991999999999999999999
0029028750999991907052720004+65017+025450FM-12+001099999V0200501N003119999999N0000001N9+00561+99999099941ADDGF108991999999999999999999
0029028750999991907052806004+65017+025450FM-12+001099999V0200501N007219999999N0000001N9+00281+99999099871ADDGF108991999999999999999999
0029028750999991907052813004+65017+025450FM-12+001099999V0200501N007219999999N0000001N9+00441+99999099841ADDGF108991999999999999999999
0029028750999991907052820004+65017+025450FM-12+001099999V0200501N004119999999N0000001N9+00441+99999099961ADDGF108991999999999999999999
0029028750999991907052906004+65017+025450FM-12+001099999V0200501N008219999999N0000001N9+00281+99999100301ADDGF108991999999999999999999
0029028750999991907052913004+65017+025450FM-12+001099999V0200501N004119999999N0000001N9+00831+99999100501ADDGF108991999999999999999999
0029028750999991907052920004+65017+025450FM-12+001099999V0200901N003119999999N0000001N9+00391+99999100801ADDGF108991999999999999999999
0029028750999991907053006004+65017+025450FM-12+001099999V0200901N004119999999N0000001N9+00501+99999101071ADDGF106991999999999999999999
0029028750999991907053013004+65017+025450FM-12+001099999V0203601N004119999999N0000001N9+00781+99999100901ADDGF108991999999999999999999
0029028750999991907053020004+65017+025450FM-12+001099999V0202701N001019999999N0000001N9+00391+99999100541ADDGF108991999999999999999999
0029028750999991907053106004+65017+025450FM-12+001099999V0200501N003119999999N0000001N9+00281+99999100101ADDGF108991999999999999999999
0029028750999991907053113004+65017+025450FM-12+001099999V0200901N003119999999N0000001N9+00441+99999100221ADDGF108991999999999999999999
0029028750999991907053120004+65017+025450FM-12+001099999V0209991C000019999999N0000001N9+00391+99999100511ADDGF108991999999999999999999
0029028750999991907060106004+65017+025450FM-12+001099999V0203601N003119999999N0000001N9+00391+99999100791ADDGF108991999999999999999999
0029028750999991907060113004+65017+025450FM-12+001099999V0203201N008219999999N0000001N9+00781+99999101061ADDGF104991999999999999999999
0029028750999991907060120004+65017+025450FM-12+001099999V0203201N002119999999N0000001N9+00441+99999101421ADDGF108991999999999999999999
0029028750999991907060206004+65017+025450FM-12+001099999V0202701N001019999999N0000001N9+00501+99999101471ADDGF106991999999999999999999
0029028750999991907060213004+65017+025450FM-12+001099999V0202701N006219999999N0000001N9+01061+99999101431ADDGF104991999999999999999999
0029028750999991907060220004+65017+025450FM-12+001099999V0202301N004119999999N0000001N9+00781+99999101191ADDGF103991999999999999999999
0029028750999991907060306004+65017+025450FM-12+001099999V0202301N005119999999N0000001N9+00941+99999100801ADDGF106991999999999999999999
0035028750999991907060313004+65017+025450FM-12+001099999V0202701N003119999999N0000001N9+00671+99999100881ADDGF108991999999999999999999MW1621
0035028750999991907060320004+65017+025450FM-12+001099999V0200901N005119999999N0000001N9+00441+99999100761ADDGF108991999999999999999999MW1621
0029028750999991907060406004+65017+025450FM-12+001099999V0200901N006219999999N0000001N9+00171+99999101061ADDGF108991999999999999999999
0029028750999991907060413004+65017+025450FM-12+001099999V0200501N002119999999N0000001N9+00831+99999101311ADDGF108991999999999999999999
0029028750999991907060420004+65017+025450FM-12+001099999V0201401N001019999999N0000001N9+00831+99999101261ADDGF108991999999999999999999
0035028750999991907060506004+65017+025450FM-12+001099999V0201401N001019999999N0000001N9+00781+99999100711ADDGF108991999999999999999999MW1621
0035028750999991907060513004+65017+025450FM-12+001099999V0200501N002119999999N0000001N9+01001+99999100601ADDGF108991999999999999999999MW1621
0029028750999991907060520004+65017+025450FM-12+001099999V0200501N003119999999N0000001N9+00781+99999100591ADDGF108991999999999999999999
0029028750999991907060606004+65017+025450FM-12+001099999V0203201N006219999999N0000001N9+00611+99999101081ADDGF106991999999999999999999
0029028750999991907060613004+65017+025450FM-12+001099999V0202701N005119999999N0000001N9+01061+99999101521ADDGF104991999999999999999999
0029028750999991907060620004+65017+025450FM-12+001099999V0203601N001019999999N0000001N9+00781+99999101721ADDGF100991999999999999999999
0029028750999991907060706004+65017+025450FM-12+001099999V0201801N005119999999N0000001N9+01061+99999101481ADDGF108991999999999999999999
0029028750999991907060713004+65017+025450FM-12+001099999V0201801N005119999999N0000001N9+01781+99999101961ADDGF102991999999999999999999
0029028750999991907060720004+65017+025450FM-12+001099999V0201801N003119999999N0000001N9+01501+99999101961ADDGF100991999999999999999999
0029028750999991907060806004+65017+025450FM-12+001099999V0201801N003119999999N0000001N9+01331+99999101981ADDGF100991999999999999999999
0029028750999991907060813004+65017+025450FM-12+001099999V0201801N004119999999N0000001N9+01831+99999101791ADDGF100991999999999999999999
0029028750999991907060820004+65017+025450FM-12+001099999V0200901N002119999999N0000001N9+01171+99999101681ADDGF106991999999999999999999
0029028750999991907060906004+65017+025450FM-12+001099999V0203201N001019999999N0000001N9+01671+99999101641ADDGF104991999999999999999999
0029028750999991907060913004+65017+025450FM-12+001099999V0203201N002119999999N0000001N9+01831+99999101641ADDGF104991999999999999999999
0029028750999991907060920004+65017+025450FM-12+001099999V0202701N001019999999N0000001N9+01721+99999101511ADDGF107991999999999999999999
0029028750999991907061006004+65017+025450FM-12+001099999V0200501N001019999999N0000001N9+01671+99999101541ADDGF108991999999999999999999
0029028750999991907061013004+65017+025450FM-12+001099999V0200501N003119999999N0000001N9+01611+99999101541ADDGF108991999999999999999999
0029028750999991907061020004+65017+025450FM-12+001099999V0200901N003119999999N0000001N9+01391+99999101501ADDGF108991999999999999999999
0029028750999991907061106004+65017+025450FM-12+001099999V0200901N004119999999N0000001N9+01721+99999101521ADDGF103991999999999999999999
0029028750999991907061113004+65017+025450FM-12+001099999V0200901N005119999999N0000001N9+02001+99999101511ADDGF106991999999999999999999
0029028750999991907061120004+65017+025450FM-12+001099999V0201401N002119999999N0000001N9+01781+99999101421ADDGF100991999999999999999999
0029028750999991907061206004+65017+025450FM-12+001099999V0200901N004119999999N0000001N9+01781+99999101661ADDGF100991999999999999999999
0029028750999991907061213004+65017+025450FM-12+001099999V0200901N005119999999N0000001N9+02441+99999101681ADDGF100991999999999999999999
0029028750999991907061220004+65017+025450FM-12+001099999V0201401N001019999999N0000001N9+02391+99999101831ADDGF100991999999999999999999
0029028750999991907061306004+65017+025450FM-12+001099999V0200901N002119999999N0000001N9+02221+99999102161ADDGF100991999999999999999999
0029028750999991907061313004+65017+025450FM-12+001099999V0201401N003119999999N0000001N9+02721+99999102191ADDGF104991999999999999999999
0029028750999991907061320004+65017+025450FM-12+001099999V0201801N002119999999N0000001N9+02001+99999102261ADDGF102991999999999999999999
0029028750999991907061406004+65017+025450FM-12+001099999V0201801N003119999999N0000001N9+01781+99999102301ADDGF100991999999999999999999
0029028750999991907061413004+65017+025450FM-12+001099999V0201801N004119999999N0000001N9+02501+99999102151ADDGF100991999999999999999999
0029028750999991907061420004+65017+025450FM-12+001099999V0201801N002119999999N0000001N9+02171+99999101991ADDGF100991999999999999999999
0029028750999991907061506004+65017+025450FM-12+001099999V0200901N002119999999N0000001N9+01941+99999102001ADDGF100991999999999999999999
0029028750999991907061513004+65017+025450FM-12+001099999V0203401N003119999999N0000001N9+02441+99999101721ADDGF100991999999999999999999
0029028750999991907061520004+65017+025450FM-12+001099999V0203601N001019999999N0000001N9+01891+99999101601ADDGF102991999999999999999999
0029028750999991907061606004+65017+025450FM-12+001099999V0201601N003119999999N0000001N9+02061+99999101481ADDGF102991999999999999999999
0029028750999991907061613004+65017+025450FM-12+001099999V0201801N002119999999N0000001N9+02721+99999101421ADDGF102991999999999999999999
0029028750999991907061620004+65017+025450FM-12+001099999V0201801N003119999999N0000001N9+02171+99999101351ADDGF103991999999999999999999
0029028750999991907061706004+65017+025450FM-12+001099999V0201401N002119999999N0000001N9+02001+99999101551ADDGF106991999999999999999999
0029028750999991907061713004+65017+025450FM-12+001099999V0201801N003119999999N0000001N9+02281+99999101461ADDGF108991999999999999999999
0029028750999991907061720004+65017+025450FM-12+001099999V0200701N001019999999N0000001N9+02001+99999101241ADDGF106991999999999999999999
0029028750999991907061806004+65017+025450FM-12+001099999V0202701N001019999999N0000001N9+01501+99999101361ADDGF108991999999999999999999
0029028750999991907061813004+65017+025450FM-12+001099999V0203201N002119999999N0000001N9+01891+99999101261ADDGF102991999999999999999999
0035028750999991907061820004+65017+025450FM-12+001099999V0209991C000019999999N0000001N9+01281+99999101141ADDGF108991999999999999999999MW1621
0029028750999991907061906004+65017+025450FM-12+001099999V0209991C000019999999N0000001N9+01391+99999100761ADDGF106991999999999999999999
0035028750999991907061913004+65017+025450FM-12+001099999V0202301N004119999999N0000001N9+01331+99999100701ADDGF108991999999999999999999MW1621
0029028750999991907061920004+65017+025450FM-12+001099999V0201801N002119999999N0000001N9+01331+99999100711ADDGF106991999999999999999999
0029028750999991907062006004+65017+025450FM-12+001099999V0201801N004119999999N0000001N9+01221+99999100601ADDGF108991999999999999999999
0029028750999991907062013004+65017+025450FM-12+001099999V0203201N003119999999N0000001N9+01611+99999100621ADDGF107991999999999999999999
0029028750999991907062020004+65017+025450FM-12+001099999V0200901N002119999999N0000001N9+01501+99999100341ADDGF106991999999999999999999
0035028750999991907062106004+65017+025450FM-12+001099999V0200501N003119999999N0000001N9+01281+99999099661ADDGF108991999999999999999999MW1621
0035028750999991907062113004+65017+025450FM-12+001099999V0200501N005119999999N0000001N9+01391+99999099341ADDGF108991999999999999999999MW1621
0035028750999991907062120004+65017+025450FM-12+001099999V0202701N003119999999N0000001N9+01221+99999099681ADDGF108991999999999999999999MW1621
0035028750999991907062206004+65017+025450FM-12+001099999V0200901N003119999999N0000001N9+01281+99999099681ADDGF108991999999999999999999MW1621
0035028750999991907062213004+65017+025450FM-12+001099999V0200901N005119999999N0000001N9+01501+99999099441ADDGF108991999999999999999999MW1621
0035028750999991907062220004+65017+025450FM-12+001099999V0201401N005119999999N0000001N9+01561+99999099471ADDGF108991999999999999999999MW1621
0035028750999991907062306004+65017+025450FM-12+001099999V0201401N003119999999N0000001N9+01391+99999099401ADDGF108991999999999999999999MW1621
0035028750999991907062313004+65017+025450FM-12+001099999V0202701N004119999999N0000001N9+01671+99999099761ADDGF108991999999999999999999MW1621
0029028750999991907062320004+65017+025450FM-12+001099999V0202301N003119999999N0000001N9+01441+99999100071ADDGF108991999999999999999999
0029028750999991907062406004+65017+025450FM-12+001099999V0201801N004119999999N0000001N9+01501+99999100191ADDGF100991999999999999999999
0035028750999991907062413004+65017+025450FM-12+001099999V0201801N002119999999N0000001N9+01281+99999100061ADDGF108991999999999999999999MW1621
0029028750999991907062420004+65017+025450FM-12+001099999V0201801N005119999999N0000001N9+01061+99999099881ADDGF108991999999999999999999
0029028750999991907062506004+65017+025450FM-12+001099999V0202501N004119999999N0000001N9+01221+99999100181ADDGF100991999999999999999999
0029028750999991907062513004+65017+025450FM-12+001099999V0202701N006219999999N0000001N9+01501+99999100391ADDGF100991999999999999999999
0029028750999991907062520004+65017+025450FM-12+001099999V0202301N002119999999N0000001N9+01111+99999100621ADDGF100991999999999999999999
0029028750999991907062606004+65017+025450FM-12+001099999V0201401N002119999999N0000001N9+01501+99999100621ADDGF100991999999999999999999
0029028750999991907062613004+65017+025450FM-12+001099999V0201401N005119999999N0000001N9+02001+99999100511ADDGF106991999999999999999999
0035028750999991907062620004+65017+025450FM-12+001099999V0201401N003119999999N0000001N9+01561+99999100561ADDGF108991999999999999999999MW1621
0029028750999991907062706004+65017+025450FM-12+001099999V0201401N004119999999N0000001N9+01441+99999100591ADDGF108991999999999999999999
0029028750999991907062713004+65017+025450FM-12+001099999V0201401N004119999999N0000001N9+01441+99999100581ADDGF108991999999999999999999
0035028750999991907062720004+65017+025450FM-12+001099999V0201401N001019999999N0000001N9+01171+99999100581ADDGF108991999999999999999999MW1621
0029028750999991907062806004+65017+025450FM-12+001099999V0202301N007219999999N0000001N9+01441+99999100421ADDGF108991999999999999999999
0029028750999991907062813004+65017+025450FM-12+001099999V0203201N006219999999N0000001N9+01611+99999100741ADDGF100991999999999999999999
0029028750999991907062820004+65017+025450FM-12+001099999V0201801N004119999999N0000001N9+01281+99999100901ADDGF100991999999999999999999
0029028750999991907062906004+65017+025450FM-12+001099999V0202701N005119999999N0000001N9+01561+99999100871ADDGF107991999999999999999999
0029028750999991907062913004+65017+025450FM-12+001099999V0203201N004119999999N0000001N9+01671+99999101031ADDGF108991999999999999999999
0029028750999991907062920004+65017+025450FM-12+001099999V0202701N003119999999N0000001N9+01331+99999101001ADDGF100991999999999999999999
0029028750999991907063006004+65017+025450FM-12+001099999V0203201N002119999999N0000001N9+01441+99999101301ADDGF100991999999999999999999
0029028750999991907063013004+65017+025450FM-12+001099999V0203201N003119999999N0000001N9+01831+99999101381ADDGF100991999999999999999999
0029028750999991907063020004+65017+025450FM-12+001099999V0200501N002119999999N0000001N9+01721+99999101231ADDGF104991999999999999999999
0029028750999991907070106004+65017+025450FM-12+001099999V0201401N005119999999N0000001N9+01281+99999100721ADDGF108991999999999999999999
0029028750999991907070113004+65017+025450FM-12+001099999V0202301N004119999999N0000001N9+02331+99999100461ADDGF106991999999999999999999
0029028750999991907070120004+65017+025450FM-12+001099999V0202701N005119999999N0000001N9+01391+99999100481ADDGF108991999999999999999999
0029028750999991907070206004+65017+025450FM-12+001099999V0202301N004119999999N0000001N9+01501+99999100601ADDGF100991999999999999999999
0029028750999991907070213004+65017+025450FM-12+001099999V0203201N006219999999N0000001N9+01831+99999100821ADDGF100991999999999999999999
0029028750999991907070220004+65017+025450FM-12+001099999V0202301N002119999999N0000001N9+01611+99999101001ADDGF100991999999999999999999
0029028750999991907070306004+65017+025450FM-12+001099999V0209991C000019999999N0000001N9+01221+99999101321ADDGF108991999999999999999999
0029028750999991907070313004+65017+025450FM-12+001099999V0200501N005119999999N0000001N9+01721+99999101271ADDGF108991999999999999999999
0029028750999991907070320004+65017+025450FM-12+001099999V0200901N006219999999N0000001N9+01721+99999101041ADDGF102991999999999999999999
0029028750999991907070406004+65017+025450FM-12+001099999V0200901N006219999999N0000001N9+01721+99999100911ADDGF104991999999999999999999
0029028750999991907070413004+65017+025450FM-12+001099999V0200901N004119999999N0000001N9+01941+99999100871ADDGF106991999999999999999999
0029028750999991907070420004+65017+025450FM-12+001099999V0201401N006219999999N0000001N9+01561+99999100821ADDGF106991999999999999999999
0029028750999991907070506004+65017+025450FM-12+001099999V0201801N003119999999N0000001N9+01171+99999100991ADDGF108991999999999999999999
0029028750999991907070513004+65017+025450FM-12+001099999V0202301N007219999999N0000001N9+01891+99999101071ADDGF103991999999999999999999
0029028750999991907070520004+65017+025450FM-12+001099999V0201801N003119999999N0000001N9+01721+99999101111ADDGF108991999999999999999999
0029028750999991907070606004+65017+025450FM-12+001099999V0202301N005119999999N0000001N9+01281+99999101261ADDGF102991999999999999999999
0029028750999991907070613004+65017+025450FM-12+001099999V0203201N004119999999N0000001N9+01891+99999101481ADDGF102991999999999999999999
0029028750999991907070620004+65017+025450FM-12+001099999V0202701N002119999999N0000001N9+01721+99999101441ADDGF108991999999999999999999
0029028750999991907070706004+65017+025450FM-12+001099999V0200901N002119999999N0000001N9+01391+99999101271ADDGF108991999999999999999999
0029028750999991907070713004+65017+025450FM-12+001099999V0202701N003119999999N0000001N9+01831+99999101101ADDGF104991999999999999999999
0029028750999991907070720004+65017+025450FM-12+001099999V0203201N002119999999N0000001N9+01721+99999101111ADDGF100991999999999999999999
0029028750999991907070806004+65017+025450FM-12+001099999V0201801N002119999999N0000001N9+01721+99999101501ADDGF102991999999999999999999
0029028750999991907070813004+65017+025450FM-12+001099999V0203201N001019999999N0000001N9+02331+99999101221ADDGF102991999999999999999999
0035028750999991907070820004+65017+025450FM-12+001099999V0202701N002119999999N0000001N9+01781+99999100941ADDGF108991999999999999999999MW1621
0029028750999991907070906004+65017+025450FM-12+001099999V0202301N004119999999N0000001N9+01671+99999100701ADDGF108991999999999999999999
0029028750999991907070913004+65017+025450FM-12+001099999V0202701N008219999999N0000001N9+01831+99999101181ADDGF100991999999999999999999
0029028750999991907070920004+65017+025450FM-12+001099999V0202701N004119999999N0000001N9+01441+99999101501ADDGF100991999999999999999999
0029028750999991907071006004+65017+025450FM-12+001099999V0202301N004119999999N0000001N9+01611+99999101791ADDGF100991999999999999999999
0029028750999991907071013004+65017+025450FM-12+001099999V0202701N004119999999N0000001N9+01941+99999101901ADDGF100991999999999999999999
0029028750999991907071020004+65017+025450FM-12+001099999V0202701N001019999999N0000001N9+01671+99999101921ADDGF108991999999999999999999
0035028750999991907071106004+65017+025450FM-12+001099999V0201401N002119999999N0000001N9+01501+99999102001ADDGF108991999999999999999999MW1621
0035028750999991907071113004+65017+025450FM-12+001099999V0201801N002119999999N0000001N9+01721+99999101941ADDGF108991999999999999999999MW1621
0029028750999991907071120004+65017+025450FM-12+001099999V0202301N001019999999N0000001N9+01781+99999101911ADDGF108991999999999999999999
0029028750999991907071206004+65017+025450FM-12+001099999V0203601N003119999999N0000001N9+01941+99999101861ADDGF108991999999999999999999
0029028750999991907071213004+65017+025450FM-12+001099999V0203201N003119999999N0000001N9+01831+99999101901ADDGF108991999999999999999999
0029028750999991907071220004+65017+025450FM-12+001099999V0203201N002119999999N0000001N9+01721+99999101841ADDGF102991999999999999999999
0029028750999991907071306004+65017+025450FM-12+001099999V0202301N002119999999N0000001N9+01941+99999101881ADDGF100991999999999999999999
0029028750999991907071313004+65017+025450FM-12+001099999V0200901N003119999999N0000001N9+02221+99999101861ADDGF106991999999999999999999
0029028750999991907071320004+65017+025450FM-12+001099999V0200501N003119999999N0000001N9+02111+99999101861ADDGF100991999999999999999999
0029028750999991907071406004+65017+025450FM-12+001099999V0201401N002119999999N0000001N9+01831+99999102021ADDGF100991999999999999999999
0029028750999991907071413004+65017+025450FM-12+001099999V0203601N004119999999N0000001N9+02171+99999102001ADDGF102991999999999999999999
0029028750999991907071420004+65017+025450FM-12+001099999V0203601N002119999999N0000001N9+01831+99999102031ADDGF100991999999999999999999
0029028750999991907071506004+65017+025450FM-12+001099999V0202701N003119999999N0000001N9+01781+99999102081ADDGF106991999999999999999999
0029028750999991907071513004+65017+025450FM-12+001099999V0203201N004119999999N0000001N9+01781+99999101911ADDGF107991999999999999999999
0035028750999991907071520004+65017+025450FM-12+001099999V0203201N003119999999N0000001N9+01441+99999101661ADDGF108991999999999999999999MW1621
0029028750999991907071606004+65017+025450FM-12+001099999V0202701N003119999999N0000001N9+01171+99999101231ADDGF108991999999999999999999
0029028750999991907071613004+65017+025450FM-12+001099999V0203201N008719999999N0000001N9+01331+99999101141ADDGF103991999999999999999999
0035028750999991907071620004+65017+025450FM-12+001099999V0203601N006219999999N0000001N9+00781+99999100951ADDGF108991999999999999999999MW1621
0035028750999991907071706004+65017+025450FM-12+001099999V0203601N005119999999N0000001N9+00781+99999100321ADDGF108991999999999999999999MW1621
0029028750999991907071713004+65017+025450FM-12+001099999V0203601N006219999999N0000001N9+00891+99999099861ADDGF108991999999999999999999
0029028750999991907071720004+65017+025450FM-12+001099999V0203601N004119999999N0000001N9+00781+99999099461ADDGF108991999999999999999999
0029028750999991907071806004+65017+025450FM-12+001099999V0201401N004119999999N0000001N9+00831+99999099271ADDGF108991999999999999999999
0029028750999991907071813004+65017+025450FM-12+001099999V0201801N004119999999N0000001N9+01111+99999099911ADDGF108991999999999999999999
0029028750999991907071820004+65017+025450FM-12+001099999V0200901N001019999999N0000001N9+01001+99999100321ADDGF102991999999999999999999
0029028750999991907071906004+65017+025450FM-12+001099999V0201401N002119999999N0000001N9+01111+99999100921ADDGF100991999999999999999999
0029028750999991907071913004+65017+025450FM-12+001099999V0203201N004119999999N0000001N9+01721+99999101031ADDGF106991999999999999999999
0029028750999991907071920004+65017+025450FM-12+001099999V0203601N002119999999N0000001N9+01391+99999101151ADDGF100991999999999999999999
0029028750999991907072006004+65017+025450FM-12+001099999V0200901N003119999999N0000001N9+01501+99999101281ADDGF100991999999999999999999
0029028750999991907072013004+65017+025450FM-12+001099999V0200501N005119999999N0000001N9+01891+99999101241ADDGF102991999999999999999999
0029028750999991907072020004+65017+025450FM-12+001099999V0200501N003119999999N0000001N9+01561+99999101111ADDGF100991999999999999999999
0029028750999991907072106004+65017+025450FM-12+001099999V0200501N005119999999N0000001N9+01281+99999101181ADDGF106991999999999999999999
0029028750999991907072113004+65017+025450FM-12+001099999V0200501N007219999999N0000001N9+01611+99999100921ADDGF106991999999999999999999
0029028750999991907072120004+65017+025450FM-12+001099999V0200501N006219999999N0000001N9+01441+99999100601ADDGF106991999999999999999999
0029028750999991907072206004+65017+025450FM-12+001099999V0200501N004119999999N0000001N9+01221+99999100231ADDGF108991999999999999999999
0029028750999991907072213004+65017+025450FM-12+001099999V0200501N005119999999N0000001N9+01441+99999100231ADDGF108991999999999999999999
0029028750999991907072220004+65017+025450FM-12+001099999V0200501N004119999999N0000001N9+01221+99999100461ADDGF108991999999999999999999
0029028750999991907072306004+65017+025450FM-12+001099999V0200901N003119999999N0000001N9+01281+99999100481ADDGF108991999999999999999999
0029028750999991907072313004+65017+025450FM-12+001099999V0200501N004119999999N0000001N9+01831+99999100541ADDGF102991999999999999999999
0029028750999991907072320004+65017+025450FM-12+001099999V0200501N002119999999N0000001N9+01561+99999100631ADDGF103991999999999999999999
0029028750999991907072406004+65017+025450FM-12+001099999V0200501N003119999999N0000001N9+01441+99999100741ADDGF106991999999999999999999
0029028750999991907072413004+65017+025450FM-12+001099999V0200501N003119999999N0000001N9+01831+99999100591ADDGF102991999999999999999999
0029028750999991907072420004+65017+025450FM-12+001099999V0200901N001019999999N0000001N9+01441+99999100671ADDGF108991999999999999999999
0029028750999991907072506004+65017+025450FM-12+001099999V0200501N002119999999N0000001N9+01441+99999100871ADDGF108991999999999999999999
0029028750999991907072513004+65017+025450FM-12+001099999V0203201N004119999999N0000001N9+01831+99999100841ADDGF104991999999999999999999
0029028750999991907072520004+65017+025450FM-12+001099999V0203601N001019999999N0000001N9+01671+99999100821ADDGF104991999999999999999999
0029028750999991907072606004+65017+025450FM-12+001099999V0203201N002119999999N0000001N9+01561+99999100741ADDGF106991999999999999999999
0029028750999991907072613004+65017+025450FM-12+001099999V0203201N006219999999N0000001N9+01891+99999100701ADDGF106991999999999999999999
0029028750999991907072620004+65017+025450FM-12+001099999V0203201N001019999999N0000001N9+01441+99999100661ADDGF108991999999999999999999
0035028750999991907072706004+65017+025450FM-12+001099999V0203201N005119999999N0000001N9+01391+99999100521ADDGF108991999999999999999999MW1621
0029028750999991907072713004+65017+025450FM-12+001099999V0203601N004119999999N0000001N9+01501+99999100621ADDGF108991999999999999999999
0029028750999991907072720004+65017+025450FM-12+001099999V0203201N001019999999N0000001N9+01391+99999100521ADDGF108991999999999999999999
0029028750999991907072806004+65017+025450FM-12+001099999V0202301N002119999999N0000001N9+01281+99999100721ADDGF108991999999999999999999
0029028750999991907072813004+65017+025450FM-12+001099999V0203201N001019999999N0000001N9+01941+99999100711ADDGF102991999999999999999999
0029028750999991907072820004+65017+025450FM-12+001099999V0202701N003119999999N0000001N9+01391+99999100711ADDGF100991999999999999999999
0029028750999991907072906004+65017+025450FM-12+001099999V0200501N002119999999N0000001N9+01281+99999100741ADDGF108991999999999999999999
0029028750999991907072913004+65017+025450FM-12+001099999V0203601N003119999999N0000001N9+02111+99999100591ADDGF102991999999999999999999
0035028750999991907072920004+65017+025450FM-12+001099999V0200901N002119999999N0000001N9+01441+99999100471ADDGF108991999999999999999999MW1621
0035028750999991907073006004+65017+025450FM-12+001099999V0200901N001019999999N0000001N9+01221+99999100321ADDGF108991999999999999999999MW1621
0035028750999991907073013004+65017+025450FM-12+001099999V0200901N001019999999N0000001N9+01561+99999100191ADDGF108991999999999999999999MW1621
0035028750999991907073020004+65017+025450FM-12+001099999V0209991C000019999999N0000001N9+01501+99999100021ADDGF108991999999999999999999MW1621
0035028750999991907073106004+65017+025450FM-12+001099999V0201401N002119999999N0000001N9+01281+99999099941ADDGF108991999999999999999999MW1621
0029028750999991907073113004+65017+025450FM-12+001099999V0201401N002119999999N0000001N9+01671+99999099921ADDGF108991999999999999999999
0035028750999991907073120004+65017+025450FM-12+001099999V0200501N002119999999N0000001N9+01281+99999099561ADDGF108991999999999999999999MW1621
0029028750999991907080106004+65017+025450FM-12+001099999V0201801N001019999999N0000001N9+01331+99999099551ADDGF108991999999999999999999
0029028750999991907080113004+65017+025450FM-12+001099999V0201801N003119999999N0000001N9+01891+99999099761ADDGF104991999999999999999999
0029028750999991907080120004+65017+025450FM-12+001099999V0203601N001019999999N0000001N9+01391+99999099911ADDGF108991999999999999999999
0029028750999991907080206004+65017+025450FM-12+001099999V0202701N003119999999N0000001N9+01061+99999099951ADDGF108991999999999999999999
0029028750999991907080213004+65017+025450FM-12+001099999V0202701N003119999999N0000001N9+01281+99999100111ADDGF108991999999999999999999
0029028750999991907080220004+65017+025450FM-12+001099999V0203201N003119999999N0000001N9+01001+99999099961ADDGF108991999999999999999999
0029028750999991907080306004+65017+025450FM-12+001099999V0201801N003119999999N0000001N9+01061+99999100241ADDGF108991999999999999999999
0035028750999991907080313004+65017+025450FM-12+001099999V0203601N003119999999N0000001N9+01391+99999100471ADDGF108991999999999999999999MW1621
0029028750999991907080320004+65017+025450FM-12+001099999V0203601N001019999999N0000001N9+01171+99999100631ADDGF100991999999999999999999
0029028750999991907080406004+65017+025450FM-12+001099999V0203601N001019999999N0000001N9+01221+99999100881ADDGF100991999999999999999999
0029028750999991907080413004+65017+025450FM-12+001099999V0203201N004119999999N0000001N9+01501+99999101001ADDGF102991999999999999999999
0029028750999991907080420004+65017+025450FM-12+001099999V0203601N001019999999N0000001N9+01171+99999101061ADDGF100991999999999999999999
0029028750999991907080506004+65017+025450FM-12+001099999V0200901N001019999999N0000001N9+01221+99999101301ADDGF100991999999999999999999
0029028750999991907080513004+65017+025450FM-12+001099999V0203201N004119999999N0000001N9+01561+99999101321ADDGF106991999999999999999999
0029028750999991907080520004+65017+025450FM-12+001099999V0209991C000019999999N0000001N9+01111+99999101431ADDGF107991999999999999999999
0029028750999991907080606004+65017+025450FM-12+001099999V0200901N003119999999N0000001N9+01001+99999101301ADDGF102991999999999999999999
0029028750999991907080613004+65017+025450FM-12+001099999V0201401N005119999999N0000001N9+01671+99999101151ADDGF106991999999999999999999
0029028750999991907080620004+65017+025450FM-12+001099999V0201401N001019999999N0000001N9+01441+99999100711ADDGF103991999999999999999999
0029028750999991907080706004+65017+025450FM-12+001099999V0201401N006219999999N0000001N9+01391+99999100161ADDGF102991999999999999999999
0035028750999991907080713004+65017+025450FM-12+001099999V0201401N007219999999N0000001N9+01501+99999099841ADDGF108991999999999999999999MW1621
0029028750999991907080720004+65017+025450FM-12+001099999V0201401N004119999999N0000001N9+01391+99999099681ADDGF108991999999999999999999
0029028750999991907080806004+65017+025450FM-12+001099999V0201401N004119999999N0000001N9+01441+99999099721ADDGF108991999999999999999999
0029028750999991907080813004+65017+025450FM-12+001099999V0201401N005119999999N0000001N9+01941+99999099801ADDGF104991999999999999999999
0029028750999991907080820004+65017+025450FM-12+001099999V0201401N003119999999N0000001N9+01221+99999099901ADDGF106991999999999999999999
0029028750999991907080906004+65017+025450FM-12+001099999V0201401N003119999999N0000001N9+01281+99999099951ADDGF108991999999999999999999
0029028750999991907080913004+65017+025450FM-12+001099999V0200901N003119999999N0000001N9+01391+99999099881ADDGF108991999999999999999999
0029028750999991907080920004+65017+025450FM-12+001099999V0209991C000019999999N0000001N9+01331+99999099681ADDGF108991999999999999999999
0029028750999991907081006004+65017+025450FM-12+001099999V0209991C000019999999N0000001N9+01221+99999099551ADDGF108991999999999999999999
0029028750999991907081013004+65017+025450FM-12+001099999V0203201N004119999999N0000001N9+01501+99999099561ADDGF106991999999999999999999
0029028750999991907081020004+65017+025450FM-12+001099999V0209991C000019999999N0000001N9+01221+99999099631ADDGF108991999999999999999999
0029028750999991907081106004+65017+025450FM-12+001099999V0201401N002119999999N0000001N9+01061+99999099601ADDGF106991999999999999999999
0029028750999991907081113004+65017+025450FM-12+001099999V0202301N003119999999N0000001N9+01721+99999099561ADDGF106991999999999999999999
0029028750999991907081120004+65017+025450FM-12+001099999V0209991C000019999999N0000001N9+01281+99999099551ADDGF108991999999999999999999
0029028750999991907081206004+65017+025450FM-12+001099999V0209991C000019999999N0000001N9+01111+99999099721ADDGF108991999999999999999999
0029028750999991907081213004+65017+025450FM-12+001099999V0203201N004119999999N0000001N9+01171+99999099961ADDGF108991999999999999999999
0029028750999991907081220004+65017+025450FM-12+001099999V0203201N002119999999N0000001N9+01111+99999100101ADDGF106991999999999999999999
0029028750999991907081306004+65017+025450FM-12+001099999V0203201N004119999999N0000001N9+01171+99999100241ADDGF100991999999999999999999
0029028750999991907081313004+65017+025450FM-12+001099999V0202701N005119999999N0000001N9+01441+99999100341ADDGF100991999999999999999999
0029028750999991907081320004+65017+025450FM-12+001099999V0203201N003119999999N0000001N9+01221+99999100231ADDGF106991999999999999999999
0029028750999991907081406004+65017+025450FM-12+001099999V0201801N001019999999N0000001N9+01111+99999100081ADDGF102991999999999999999999
0029028750999991907081413004+65017+025450FM-12+001099999V0202701N004119999999N0000001N9+01501+99999100081ADDGF100991999999999999999999
0029028750999991907081420004+65017+025450FM-12+001099999V0209991C000019999999N0000001N9+01281+99999100101ADDGF100991999999999999999999
0029028750999991907081506004+65017+025450FM-12+001099999V0209991C000019999999N0000001N9+00941+99999100141ADDGF100991999999999999999999
0029028750999991907081513004+65017+025450FM-12+001099999V0203201N003119999999N0000001N9+01781+99999100201ADDGF102991999999999999999999
0029028750999991907081520004+65017+025450FM-12+001099999V0209991C000019999999N0000001N9+01221+99999100341ADDGF102991999999999999999999
0029028750999991907081606004+65017+025450FM-12+001099999V0200901N003119999999N0000001N9+01061+99999100481ADDGF100991999999999999999999
0029028750999991907081613004+65017+025450FM-12+001099999V0201401N004119999999N0000001N9+01891+99999100441ADDGF106991999999999999999999
0029028750999991907081620004+65017+025450FM-12+001099999V0201401N006219999999N0000001N9+01561+99999100061ADDGF108991999999999999999999
0029028750999991907081706004+65017+025450FM-12+001099999V0201801N003119999999N0000001N9+01331+99999099921ADDGF108991999999999999999999
0029028750999991907081713004+65017+025450FM-12+001099999V0201801N004119999999N0000001N9+01671+99999100191ADDGF108991999999999999999999
0029028750999991907081720004+65017+025450FM-12+001099999V0202701N005119999999N0000001N9+01281+99999100481ADDGF104991999999999999999999
0029028750999991907081806004+65017+025450FM-12+001099999V0201801N004119999999N0000001N9+00941+99999100761ADDGF104991999999999999999999
0029028750999991907081813004+65017+025450FM-12+001099999V0203201N003119999999N0000001N9+01501+99999100871ADDGF102991999999999999999999
0029028750999991907081820004+65017+025450FM-12+001099999V0200501N001019999999N0000001N9+00941+99999100671ADDGF104991999999999999999999
0035028750999991907081906004+65017+025450FM-12+001099999V0201401N003119999999N0000001N9+01001+99999100311ADDGF108991999999999999999999MW1621
0029028750999991907081913004+65017+025450FM-12+001099999V0202701N002119999999N0000001N9+01391+99999100351ADDGF106991999999999999999999
0029028750999991907081920004+65017+025450FM-12+001099999V0200901N002119999999N0000001N9+01001+99999100221ADDGF100991999999999999999999
0035028750999991907082006004+65017+025450FM-12+001099999V0200901N003119999999N0000001N9+01061+99999099431ADDGF108991999999999999999999MW1621
0029028750999991907082013004+65017+025450FM-12+001099999V0200901N003119999999N0000001N9+01391+99999099001ADDGF108991999999999999999999
0029028750999991907082020004+65017+025450FM-12+001099999V0200501N002119999999N0000001N9+01221+99999098911ADDGF108991999999999999999999
0029028750999991907082106004+65017+025450FM-12+001099999V0200501N003119999999N0000001N9+01171+99999099281ADDGF108991999999999999999999
0029028750999991907082113004+65017+025450FM-12+001099999V0200501N005119999999N0000001N9+01561+99999099801ADDGF106991999999999999999999
0029028750999991907082120004+65017+025450FM-12+001099999V0203601N002119999999N0000001N9+01111+99999100271ADDGF106991999999999999999999
0029028750999991907082206004+65017+025450FM-12+001099999V0203601N003119999999N0000001N9+01061+99999100671ADDGF108991999999999999999999
0029028750999991907082213004+65017+025450FM-12+001099999V0203601N002119999999N0000001N9+01441+99999100801ADDGF108991999999999999999999
0029028750999991907082220004+65017+025450FM-12+001099999V0203201N002119999999N0000001N9+01171+99999100821ADDGF108991999999999999999999
0029028750999991907082306004+65017+025450FM-12+001099999V0200501N001019999999N0000001N9+00831+99999100541ADDGF104991999999999999999999
0029028750999991907082313004+65017+025450FM-12+001099999V0202301N002119999999N0000001N9+01831+99999100361ADDGF106991999999999999999999
0029028750999991907082320004+65017+025450FM-12+001099999V0200501N002119999999N0000001N9+01221+99999100231ADDGF102991999999999999999999
0029028750999991907082406004+65017+025450FM-12+001099999V0200501N004119999999N0000001N9+01001+99999999999ADDGF108991999999999999999999
0029028750999991907082413004+65017+025450FM-12+001099999V0200501N004119999999N0000001N9+01721+99999099951ADDGF106991999999999999999999
0029028750999991907082420004+65017+025450FM-12+001099999V0200901N002119999999N0000001N9+01111+99999099751ADDGF100991999999999999999999
0029028750999991907082506004+65017+025450FM-12+001099999V0200901N003119999999N0000001N9+01001+99999099391ADDGF108991999999999999999999
0035028750999991907082513004+65017+025450FM-12+001099999V0203601N002119999999N0000001N9+01001+99999099351ADDGF108991999999999999999999MW1621
0029028750999991907082520004+65017+025450FM-12+001099999V0203601N002119999999N0000001N9+00721+99999099321ADDGF108991999999999999999999
0029028750999991907082606004+65017+025450FM-12+001099999V0203601N003119999999N0000001N9+00721+99999099361ADDGF108991999999999999999999
0029028750999991907082613004+65017+025450FM-12+001099999V0203201N003119999999N0000001N9+01061+99999099621ADDGF108991999999999999999999
0029028750999991907082620004+65017+025450FM-12+001099999V0203601N002119999999N0000001N9+00831+99999099821ADDGF108991999999999999999999
0029028750999991907082706004+65017+025450FM-12+001099999V0203201N004119999999N0000001N9+00501+99999100021ADDGF102991999999999999999999
0029028750999991907082713004+65017+025450FM-12+001099999V0203201N005119999999N0000001N9+00941+99999100241ADDGF106991999999999999999999
0029028750999991907082720004+65017+025450FM-12+001099999V0203201N003119999999N0000001N9+00941+99999100521ADDGF108991999999999999999999
0029028750999991907082806004+65017+025450FM-12+001099999V0203201N003119999999N0000001N9+00561+99999100511ADDGF105991999999999999999999
0029028750999991907082813004+65017+025450FM-12+001099999V0203201N006219999999N0000001N9+00941+99999100681ADDGF108991999999999999999999
0029028750999991907082820004+65017+025450FM-12+001099999V0203601N002119999999N0000001N9+00831+99999100841ADDGF108991999999999999999999
0029028750999991907082906004+65017+025450FM-12+001099999V0203601N003119999999N0000001N9+00501+99999101401ADDGF100991999999999999999999
0029028750999991907082913004+65017+025450FM-12+001099999V0203201N005119999999N0000001N9+00941+99999101621ADDGF102991999999999999999999
0029028750999991907082920004+65017+025450FM-12+001099999V0203601N002119999999N0000001N9+00611+99999101751ADDGF100991999999999999999999
0029028750999991907083006004+65017+025450FM-12+001099999V0201401N003119999999N0000001N9+00281+99999101621ADDGF108991999999999999999999
0035028750999991907083013004+65017+025450FM-12+001099999V0201801N005119999999N0000001N9+00831+99999101161ADDGF108991999999999999999999MW1621
0029028750999991907083020004+65017+025450FM-12+001099999V0201801N006219999999N0000001N9+01061+99999100751ADDGF108991999999999999999999
0029028750999991907083106004+65017+025450FM-12+001099999V0202701N005119999999N0000001N9+00891+99999100551ADDGF104991999999999999999999
0029028750999991907083113004+65017+025450FM-12+001099999V0202301N004119999999N0000001N9+01561+99999100551ADDGF100991999999999999999999
0029028750999991907083120004+65017+025450FM-12+001099999V0202301N004119999999N0000001N9+01111+99999100341ADDGF104991999999999999999999
0029028750999991907090106004+65017+025450FM-12+001099999V0201801N003119999999N0000001N9+00891+99999100061ADDGF104991999999999999999999
0029028750999991907090113004+65017+025450FM-12+001099999V0202701N004119999999N0000001N9+01221+99999100151ADDGF108991999999999999999999
0035028750999991907090120004+65017+025450FM-12+001099999V0201401N002119999999N0000001N9+00831+99999099741ADDGF108991999999999999999999MW1621
0029028750999991907090206004+65017+025450FM-12+001099999V0201801N007219999999N0000001N9+00781+99999098031ADDGF108991999999999999999999
0035028750999991907090213004+65017+025450FM-12+001099999V0203201N010819999999N0000001N9+00611+99999098641ADDGF108991999999999999999999MW1621
0029028750999991907090220004+65017+025450FM-12+001099999V0203201N007219999999N0000001N9+00941+99999100101ADDGF102991999999999999999999
0029028750999991907090306004+65017+025450FM-12+001099999V0202701N003119999999N0000001N9+00781+99999101101ADDGF100991999999999999999999
0029028750999991907090313004+65017+025450FM-12+001099999V0201401N003119999999N0000001N9+01391+99999101201ADDGF102991999999999999999999
