0029028060999991908010106004+69100+027217FM-12+014999999V0209991C000019999999N0000001N9-02441+99999100261ADDGF104991999999999999999999
0029028060999991908010113004+69100+027217FM-12+014999999V0202701N002119999999N0000001N9-02171+99999099901ADDGF104991999999999999999999
0035028060999991908010120004+69100+027217FM-12+014999999V0201401N001019999999N0000001N9-01391+99999098911ADDGF108991999999999999999999MW1701
0029028060999991908010206004+69100+027217FM-12+014999999V0200901N002119999999N0000001N9-01561+99999099421ADDGF104991999999999999999999
0035028060999991908010213004+69100+027217FM-12+014999999V0209991C000019999999N0000001N9-01781+99999099591ADDGF100991999999999999999999MW1481
0029028060999991908010220004+69100+027217FM-12+014999999V0209991C000019999999N0000001N9-02001+99999099311ADDGF104991999999999999999999
0029028060999991908010306004+69100+027217FM-12+014999999V0209991C000019999999N0000001N9-02001+99999098481ADDGF108991999999999999999999
0029028060999991908010313004+69100+027217FM-12+014999999V0209991C000019999999N0000001N9-01611+99999097941ADDGF108991999999999999999999
0029028060999991908010320004+69100+027217FM-12+014999999V0209991C000019999999N0000001N9-02891+99999098261ADDGF100991999999999999999999
0029028060999991908010406004+69100+027217FM-12+014999999V0209991C000019999999N0000001N9-03281+99999098521ADDGF100991999999999999999999
0029028060999991908010413004+69100+027217FM-12+014999999V0209991C000019999999N0000001N9-02171+99999098871ADDGF104991999999999999999999
0029028060999991908010420004+69100+027217FM-12+014999999V0209991C000019999999N0000001N9-02001+99999099121ADDGF108991999999999999999999
0035028060999991908010506004+69100+027217FM-12+014999999V0202301N013919999999N0000001N9-01391+99999098421ADDGF108991999999999999999999MW1721
0029028060999991908010513004+69100+027217FM-12+014999999V0202001N014919999999N0000001N9-00941+99999097591ADDGF108991999999999999999999
0029028060999991908010520004+69100+027217FM-12+014999999V0202001N009819999999N0000001N9-01561+99999097431ADDGF106991999999999999999999
0029028060999991908010606004+69100+027217FM-12+014999999V0202701N005119999999N0000001N9-01391+99999097591ADDGF106991999999999999999999
0035028060999991908010613004+69100+027217FM-12+014999999V0202301N002119999999N0000001N9-01441+99999097561ADDGF100991999999999999999999MW1481
0029028060999991908010620004+69100+027217FM-12+014999999V0203401N014919999999N0000001N9-01441+99999097801ADDGF100991999999999999999999
0029028060999991908010706004+69100+027217FM-12+014999999V0203601N008219999999N0000001N9-01441+99999097701ADDGF100991999999999999999999
0029028060999991908010713004+69100+027217FM-12+014999999V0203601N007219999999N0000001N9-01331+99999097671ADDGF100991999999999999999999
0029028060999991908010720004+69100+027217FM-12+014999999V0200501N013919999999N0000001N9-01331+99999098041ADDGF104991999999999999999999
0029028060999991908010806004+69100+027217FM-12+014999999V0203601N009819999999N0000001N9-01111+99999098711ADDGF100991999999999999999999
0035028060999991908010813004+69100+027217FM-12+014999999V0200501N002119999999N0000001N9-01671+99999098981ADDGF100991999999999999999999MW1481
0029028060999991908010820004+69100+027217FM-12+014999999V0209991C000019999999N0000001N9-03001+99999099481ADDGF100991999999999999999999
0029028060999991908010906004+69100+027217FM-12+014999999V0203201N005119999999N0000001N9-01781+99999099421ADDGF108991999999999999999999
0029028060999991908010913004+69100+027217FM-12+014999999V0202301N008219999999N0000001N9-02221+99999099681ADDGF100991999999999999999999
0029028060999991908010920004+69100+027217FM-12+014999999V0202301N006219999999N0000001N9-02441+99999099631ADDGF100991999999999999999999
0029028060999991908011006004+69100+027217FM-12+014999999V0202701N008219999999N0000001N9-02221+99999098761ADDGF106991999999999999999999
0029028060999991908011013004+69100+027217FM-12+014999999V0202001N009819999999N0000001N9-02281+99999098841ADDGF104991999999999999999999
0029028060999991908011020004+69100+027217FM-12+014999999V0201801N011819999999N0000001N9-01941+99999098631ADDGF108991999999999999999999
0029028060999991908011106004+69100+027217FM-12+014999999V0202301N009819999999N0000001N9-01831+99999098151ADDGF106991999999999999999999
0029028060999991908011113004+69100+027217FM-12+014999999V0201801N008219999999N0000001N9-02001+99999098101ADDGF104991999999999999999999
0029028060999991908011120004+69100+027217FM-12+014999999V0201801N004119999999N0000001N9-01721+99999098031ADDGF104991999999999999999999
0035028060999991908011206004+69100+027217FM-12+014999999V0202001N008219999999N0000001N9-01501+99999098351ADDGF108991999999999999999999MW1721
0035028060999991908011213004+69100+027217FM-12+014999999V0202301N009819999999N0000001N9-01611+99999098461ADDGF108991999999999999999999MW1721
0035028060999991908011220004+69100+027217FM-12+014999999V0202001N011819999999N0000001N9-01721+99999098021ADDGF108991999999999999999999MW1721
0035028060999991908011306004+69100+027217FM-12+014999999V0203601N020119999999N0000001N9+00111+99999097681ADDGF108991999999999999999999MW1721
0035028060999991908011313004+69100+027217FM-12+014999999V0203601N002119999999N0000001N9-00111+99999098381ADDGF108991999999999999999999MW1901
0035028060999991908011320004+69100+027217FM-12+014999999V0202701N006219999999N0000001N9-00441+99999099161ADDGF108991999999999999999999MW1721
0035028060999991908011406004+69100+027217FM-12+014999999V0203201N006219999999N0000001N9-00501+99999099441ADDGF108991999999999999999999MW1721
0009028060999991908011413004+69100+027217FM-12+014999999V0202501N009819999999N0000001N9-00501+99999099341ADDMW1721
0029028060999991908011420004+69100+027217FM-12+014999999V0202301N002119999999N0000001N9-00941+99999099281ADDGF100991999999999999999999
0029028060999991908011506004+69100+027217FM-12+014999999V0203601N005119999999N0000001N9-00781+99999099111ADDGF106991999999999999999999
0035028060999991908011513004+69100+027217FM-12+014999999V0202701N004119999999N0000001N9-00721+99999098621ADDGF106991999999999999999999MW1481
0029028060999991908011520004+69100+027217FM-12+014999999V0202301N002119999999N0000001N9-01001+99999098561ADDGF100991999999999999999999
0035028060999991908011606004+69100+027217FM-12+014999999V0202001N006219999999N0000001N9-00781+99999097591ADDGF108991999999999999999999MW1721
0029028060999991908011613004+69100+027217FM-12+014999999V0202001N002119999999N0000001N9-00561+99999097151ADDGF104991999999999999999999
0029028060999991908011620004+69100+027217FM-12+014999999V0209991C000019999999N0000001N9-01111+99999096681ADDGF104991999999999999999999
0029028060999991908011706004+69100+027217FM-12+014999999V0202001N003119999999N0000001N9-00891+99999096561ADDGF108991999999999999999999
0029028060999991908011713004+69100+027217FM-12+014999999V0202301N006219999999N0000001N9-00781+99999097081ADDGF108991999999999999999999
0029028060999991908011720004+69100+027217FM-12+014999999V0202301N011819999999N0000001N9-00891+99999097081ADDGF104991999999999999999999
0029028060999991908011806004+69100+027217FM-12+014999999V0202301N002119999999N0000001N9-00721+99999096581ADDGF108991999999999999999999
0029028060999991908011813004+69100+027217FM-12+014999999V0200901N002119999999N0000001N9-00671+99999095951ADDGF108991999999999999999999
0035028060999991908011820004+69100+027217FM-12+014999999V0200901N001019999999N0000001N9-00391+99999096021ADDGF108991999999999999999999MW1901
0029028060999991908011906004+69100+027217FM-12+014999999V0209991C000019999999N0000001N9-00721+99999097041ADDGF108991999999999999999999
0029028060999991908011913004+69100+027217FM-12+014999999V0203601N004119999999N0000001N9-00501+99999097881ADDGF104991999999999999999999
0029028060999991908011920004+69100+027217FM-12+014999999V0209991C000019999999N0000001N9-01611+99999098401ADDGF100991999999999999999999
0029028060999991908012006004+69100+027217FM-12+014999999V0209991C000019999999N0000001N9-02391+99999098421ADDGF100991999999999999999999
0029028060999991908012013004+69100+027217FM-12+014999999V0209991C000019999999N0000001N9-01941+99999097881ADDGF108991999999999999999999
0029028060999991908012020004+69100+027217FM-12+014999999V0209991C000019999999N0000001N9-01561+99999097661ADDGF100991999999999999999999
0029028060999991908012106004+69100+027217FM-12+014999999V0209991C000019999999N0000001N9-01781+99999097751ADDGF100991999999999999999999
0029028060999991908012113004+69100+027217FM-12+014999999V0209991C000019999999N0000001N9-01441+99999097261ADDGF108991999999999999999999
0029028060999991908012120004+69100+027217FM-12+014999999V0200901N005119999999N0000001N9-01171+99999096521ADDGF108991999999999999999999
0029028060999991908012206004+69100+027217FM-12+014999999V0209991C000019999999N0000001N9-01111+99999098391ADDGF100991999999999999999999
0035028060999991908012213004+69100+027217FM-12+014999999V0203201N002119999999N0000001N9-00781+99999099381ADDGF100991999999999999999999MW1481
0029028060999991908012220004+69100+027217FM-12+014999999V0203201N002119999999N0000001N9-01001+99999099361ADDGF108991999999999999999999
0029028060999991908012306004+69100+027217FM-12+014999999V0202001N014919999999N0000001N9-00171+99999098441ADDGF102991999999999999999999
0029028060999991908012313004+69100+027217FM-12+014999999V0202301N008219999999N0000001N9+00281+99999098151ADDGF104991999999999999999999
0035028060999991908012320004+69100+027217FM-12+014999999V0202001N011819999999N0000001N9-00171+99999097831ADDGF108991999999999999999999MW1601
0029028060999991908012406004+69100+027217FM-12+014999999V0202001N009819999999N0000001N9+00061+99999096471ADDGF100991999999999999999999
0029028060999991908012413004+69100+027217FM-12+014999999V0202701N011819999999N0000001N9+00001+99999097241ADDGF104991999999999999999999
0029028060999991908012420004+69100+027217FM-12+014999999V0202901N004119999999N0000001N9-00281+99999098021ADDGF100991999999999999999999
0029028060999991908012506004+69100+027217FM-12+014999999V0203201N008219999999N0000001N9-00331+99999098431ADDGF100991999999999999999999
0029028060999991908012513004+69100+027217FM-12+014999999V0202701N013919999999N0000001N9+00221+99999098501ADDGF108991999999999999999999
0029028060999991908012520004+69100+027217FM-12+014999999V0202501N006219999999N0000001N9-00061+99999098561ADDGF108991999999999999999999
0029028060999991908012606004+69100+027217FM-12+014999999V0202001N004119999999N0000001N9-00781+99999097711ADDGF106991999999999999999999
0029028060999991908012613004+69100+027217FM-12+014999999V0202001N013919999999N0000001N9-00331+99999097281ADDGF108991999999999999999999
0029028060999991908012620004+69100+027217FM-12+014999999V0202001N015919999999N0000001N9-00281+99999096751ADDGF108991999999999999999999
0029028060999991908012706004+69100+027217FM-12+014999999V0202001N008219999999N0000001N9-00331+99999095951ADDGF108991999999999999999999
0029028060999991908012713004+69100+027217FM-12+014999999V0202301N011819999999N0000001N9-00331+99999096001ADDGF108991999999999999999999
0035028060999991908012720004+69100+027217FM-12+014999999V0201801N018019999999N0000001N9-00221+99999095511ADDGF108991999999999999999999MW1721
0029028060999991908012806004+69100+027217FM-12+014999999V0201601N002119999999N0000001N9-00611+99999095511ADDGF108991999999999999999999
0035028060999991908012813004+69100+027217FM-12+014999999V0202001N006219999999N0000001N9-00501+99999095821ADDGF108991999999999999999999MW1721
0029028060999991908012820004+69100+027217FM-12+014999999V0201801N004119999999N0000001N9-00671+99999096381ADDGF104991999999999999999999
0029028060999991908012906004+69100+027217FM-12+014999999V0202701N002119999999N0000001N9-00781+99999096721ADDGF108991999999999999999999
0029028060999991908012913004+69100+027217FM-12+014999999V0200901N002119999999N0000001N9-01281+99999097081ADDGF108991999999999999999999
0029028060999991908012920004+69100+027217FM-12+014999999V0209991C000019999999N0000001N9+01441+99999097221ADDGF106991999999999999999999
0029028060999991908013006004+69100+027217FM-12+014999999V0202701N003119999999N0000001N9-01722+99999096911ADDGF100991999999999999999999
0035028060999991908013013004+69100+027217FM-12+014999999V0209991C000019999999N0000001N9-01561+99999097001ADDGF100991999999999999999999MW1481
0035028060999991908013020004+69100+027217FM-12+014999999V0201401N001019999999N0000001N9-00611+99999096991ADDGF108991999999999999999999MW1701
0029028060999991908013106004+69100+027217FM-12+014999999V0209991C000019999999N0000001N9-01221+99999096911ADDGF100991999999999999999999
0035028060999991908013113004+69100+027217FM-12+014999999V0209991C000019999999N0000001N9-01781+99999097121ADDGF100991999999999999999999MW1481
0029028060999991908013120004+69100+027217FM-12+014999999V0209991C000019999999N0000001N9-02721+99999097631ADDGF100991999999999999999999
0029028060999991908020106004+69100+027217FM-12+014999999V0202701N002119999999N0000001N9-02001+99999097641ADDGF100991999999999999999999
0035028060999991908020113004+69100+027217FM-12+014999999V0202901N008219999999N0000001N9-00781+99999098181ADDGF100991999999999999999999MW1481
0029028060999991908020120004+69100+027217FM-12+014999999V0203201N002119999999N0000001N9-01001+99999099321ADDGF100991999999999999999999
0029028060999991908020206004+69100+027217FM-12+014999999V0202901N005119999999N0000001N9-01781+99999099341ADDGF100991999999999999999999
0035028060999991908020213004+69100+027217FM-12+014999999V0202501N002119999999N0000001N9-01941+99999099521ADDGF100991999999999999999999MW1481
0029028060999991908020220004+69100+027217FM-12+014999999V0202301N006219999999N0000001N9-01611+99999098871ADDGF108991999999999999999999
0029028060999991908020306004+69100+027217FM-12+014999999V0202301N014919999999N0000001N9-00891+99999098161ADDGF108991999999999999999999
0035028060999991908020313004+69100+027217FM-12+014999999V0202001N015919999999N0000001N9-00501+99999097241ADDGF108991999999999999999999MW1381
0029028060999991908020320004+69100+027217FM-12+014999999V0202301N029819999999N0000001N9-00061+99999097381ADDGF108991999999999999999999
0029028060999991908020406004+69100+027217FM-12+014999999V0202001N008219999999N0000001N9-00441+99999098321ADDGF106991999999999999999999
0029028060999991908020413004+69100+027217FM-12+014999999V0202001N005119999999N0000001N9-00891+99999098421ADDGF100991999999999999999999
0029028060999991908020420004+69100+027217FM-12+014999999V0202001N002119999999N0000001N9-01281+99999098781ADDGF100991999999999999999999
0029028060999991908020506004+69100+027217FM-12+014999999V0202001N008219999999N0000001N9-01221+99999097631ADDGF108991999999999999999999
0035028060999991908020513004+69100+027217FM-12+014999999V0202501N011819999999N0000001N9-00671+99999096031ADDGF108991999999999999999999MW1381
0035028060999991908020520004+69100+027217FM-12+014999999V0201801N008219999999N0000001N9-00281+99999104982ADDGF108991999999999999999999MW1721
0029028060999991908020606004+69100+027217FM-12+014999999V0202001N002119999999N0000001N9-01171+99999104321ADDGF104991999999999999999999
0029028060999991908020613004+69100+027217FM-12+014999999V0203601N024219999999N0000001N9-00391+99999095202ADDGF104991999999999999999999
0029028060999991908020620004+69100+027217FM-12+014999999V0203401N015919999999N0000001N9-00721+99999095841ADDGF106991999999999999999999
0029028060999991908020706004+69100+027217FM-12+014999999V0203401N020119999999N0000001N9-00891+99999096831ADDGF100991999999999999999999
0029028060999991908020713004+69100+027217FM-12+014999999V0203601N020119999999N0000001N9-01001+99999097671ADDGF100991999999999999999999
0029028060999991908020720004+69100+027217FM-12+014999999V0209991C000019999999N0000001N9-01281+99999098101ADDGF100991999999999999999999
0029028060999991908020806004+69100+027217FM-12+014999999V0209991C000019999999N0000001N9-01891+99999097701ADDGF100991999999999999999999
0035028060999991908020813004+69100+027217FM-12+014999999V0209991C000019999999N0000001N9-02281+99999097941ADDGF100991999999999999999999MW1481
0029028060999991908020820004+69100+027217FM-12+014999999V0209991C000019999999N0000001N9-03171+99999098301ADDGF100991999999999999999999
0029028060999991908020906004+69100+027217FM-12+014999999V0209991C000019999999N0000001N9-03111+99999098711ADDGF100991999999999999999999
0035028060999991908020913004+69100+027217FM-12+014999999V0209991C000019999999N0000001N9-02331+99999099311ADDGF100991999999999999999999MW1481
0029028060999991908020920004+69100+027217FM-12+014999999V0203601N006219999999N0000001N9-02831+99999099661ADDGF100991999999999999999999
0029028060999991908021006004+69100+027217FM-12+014999999V0209991C000019999999N0000001N9-03501+99999099821ADDGF100991999999999999999999
0035028060999991908021013004+69100+027217FM-12+014999999V0209991C000019999999N0000001N9-02831+99999099831ADDGF100991999999999999999999MW1481
0029028060999991908021020004+69100+027217FM-12+014999999V0209991C000019999999N0000001N9-02441+99999099151ADDGF100991999999999999999999
0029028060999991908021106004+69100+027217FM-12+014999999V0202001N011819999999N0000001N9-01221+99999097781ADDGF108991999999999999999999
0035028060999991908021113004+69100+027217FM-12+014999999V0202301N008219999999N0000001N9-01111+99999097311ADDGF108991999999999999999999MW1381
0035028060999991908021120004+69100+027217FM-12+014999999V0202301N006219999999N0000001N9-01111+99999096901ADDGF108991999999999999999999MW1721
0029028060999991908021206004+69100+027217FM-12+014999999V0209991C000019999999N0000001N9-02061+99999096921ADDGF100991999999999999999999
0029028060999991908021213004+69100+027217FM-12+014999999V0209991C000019999999N0000001N9-02001+99999097501ADDGF100991999999999999999999
0029028060999991908021220004+69100+027217FM-12+014999999V0209991C000019999999N0000001N9-03111+99999097711ADDGF100991999999999999999999
0029028060999991908021306004+69100+027217FM-12+014999999V0201801N001019999999N0000001N9-02221+99999098381ADDGF108991999999999999999999
0029028060999991908021313004+69100+027217FM-12+014999999V0209991C000019999999N0000001N9-01501+99999098501ADDGF106991999999999999999999
0029028060999991908021320004+69100+027217FM-12+014999999V0203601N001019999999N0000001N9-01391+99999099101ADDGF100991999999999999999999
0029028060999991908021406004+69100+027217FM-12+014999999V0203601N008219999999N0000001N9-00891+99999099941ADDGF100991999999999999999999
0029028060999991908021413004+69100+027217FM-12+014999999V0209991C000019999999N0000001N9-01111+99999100241ADDGF100991999999999999999999
0029028060999991908021420004+69100+027217FM-12+014999999V0209991C000019999999N0000001N9-02221+99999100351ADDGF100991999999999999999999
0029028060999991908021506004+69100+027217FM-12+014999999V0202001N002119999999N0000001N9-01501+99999099901ADDGF106991999999999999999999
0029028060999991908021513004+69100+027217FM-12+014999999V0209991C000019999999N0000001N9-00941+99999099501ADDGF100991999999999999999999
0029028060999991908021520004+69100+027217FM-12+014999999V0209991C000019999999N0000001N9-01501+99999098961ADDGF100991999999999999999999
0035028060999991908021606004+69100+027217FM-12+014999999V0202001N006219999999N0000001N9-01111+99999098041ADDGF108991999999999999999999MW1721
0035028060999991908021613004+69100+027217FM-12+014999999V0202001N002119999999N0000001N9-01001+99999098081ADDGF108991999999999999999999MW1721
0029028060999991908021620004+69100+027217FM-12+014999999V0209991C000019999999N0000001N9-01331+99999097841ADDGF100991999999999999999999
0029028060999991908021706004+69100+027217FM-12+014999999V0202001N002119999999N0000001N9-01561+99999097981ADDGF108991999999999999999999
0029028060999991908021713004+69100+027217FM-12+014999999V0209991C000019999999N0000001N9-01111+99999098161ADDGF100991999999999999999999
0029028060999991908021720004+69100+027217FM-12+014999999V0209991C000019999999N0000001N9-02281+99999097991ADDGF100991999999999999999999
0029028060999991908021806004+69100+027217FM-12+014999999V0209991C000019999999N0000001N9-01671+99999097601ADDGF108991999999999999999999
0029028060999991908021813004+69100+027217FM-12+014999999V0209991C000019999999N0000001N9-01221+99999097381ADDGF108991999999999999999999
0029028060999991908021820004+69100+027217FM-12+014999999V0202001N002119999999N0000001N9-00721+99999097081ADDGF108991999999999999999999
0035028060999991908021906004+69100+027217FM-12+014999999V0202001N005119999999N0000001N9-00611+99999096591ADDGF108991999999999999999999MW1721
0035028060999991908021913004+69100+027217FM-12+014999999V0202001N003119999999N0000001N9-00891+99999096941ADDGF108991999999999999999999MW1721
0029028060999991908021920004+69100+027217FM-12+014999999V0202301N001019999999N0000001N9-01501+99999097441ADDGF106991999999999999999999
0029028060999991908022006004+69100+027217FM-12+014999999V0209991C000019999999N0000001N9-01611+99999097871ADDGF108991999999999999999999
0029028060999991908022013004+69100+027217FM-12+014999999V0200501N002119999999N0000001N9-01171+99999098001ADDGF108991999999999999999999
0035028060999991908022020004+69100+027217FM-12+014999999V0209991C000019999999N0000001N9-01001+99999097981ADDGF108991999999999999999999MW1721
0035028060999991908022106004+69100+027217FM-12+014999999V0200201N003119999999N0000001N9-00611+99999097701ADDGF108991999999999999999999MW1721
0035028060999991908022113004+69100+027217FM-12+014999999V0200501N002119999999N0000001N9-00221+99999097721ADDGF108991999999999999999999MW1721
0035028060999991908022120004+69100+027217FM-12+014999999V0209991C000019999999N0000001N9-00781+99999097761ADDGF108991999999999999999999MW1721
0035028060999991908022206004+69100+027217FM-12+014999999V0202001N008219999999N0000001N9-00891+99999098111ADDGF108991999999999999999999MW1721
0035028060999991908022213004+69100+027217FM-12+014999999V0202001N009819999999N0000001N9-00611+99999098511ADDGF108991999999999999999999MW1721
0035028060999991908022220004+69100+027217FM-12+014999999V0202001N002119999999N0000001N9-00611+99999098511ADDGF108991999999999999999999MW1721
0029028060999991908022306004+69100+027217FM-12+014999999V0202001N009819999999N0000001N9-00781+99999098601ADDGF108991999999999999999999
0035028060999991908022313004+69100+027217FM-12+014999999V0202001N011819999999N0000001N9-00611+99999098621ADDGF104991999999999999999999MW1381
0035028060999991908022320004+69100+027217FM-12+014999999V0202001N013919999999N0000001N9-00941+99999098741ADDGF108991999999999999999999MW1721
0029028060999991908022406004+69100+027217FM-12+014999999V0202301N004119999999N0000001N9-01061+99999098661ADDGF108991999999999999999999
0035028060999991908022413004+69100+027217FM-12+014999999V0202301N008219999999N0000001N9-00941+99999099071ADDGF106991999999999999999999MW1381
0035028060999991908022420004+69100+027217FM-12+014999999V0202301N015919999999N0000001N9-01001+99999099361ADDGF108991999999999999999999MW1721
0029028060999991908022506004+69100+027217FM-12+014999999V0202001N008219999999N0000001N9-01001+99999099281ADDGF108991999999999999999999
0029028060999991908022513004+69100+027217FM-12+014999999V0202301N009819999999N0000001N9-00831+99999099351ADDGF107991999999999999999999
0029028060999991908022520004+69100+027217FM-12+014999999V0202301N002119999999N0000001N9-01001+99999099311ADDGF108991999999999999999999
0029028060999991908022606004+69100+027217FM-12+014999999V0202001N009819999999N0000001N9-01331+99999099181ADDGF108991999999999999999999
0029028060999991908022613004+69100+027217FM-12+014999999V0202301N011819999999N0000001N9-01221+99999099191ADDGF108991999999999999999999
0029028060999991908022620004+69100+027217FM-12+014999999V0202301N004119999999N0000001N9-01721+99999099031ADDGF108991999999999999999999
0029028060999991908022706004+69100+027217FM-12+014999999V0202501N002119999999N0000001N9-01501+99999098471ADDGF100991999999999999999999
0029028060999991908022713004+69100+027217FM-12+014999999V0202001N003119999999N0000001N9-01111+99999098461ADDGF100991999999999999999999
0029028060999991908022720004+69100+027217FM-12+014999999V0209991C000019999999N0000001N9-01671+99999098561ADDGF100991999999999999999999
0029028060999991908022806004+69100+027217FM-12+014999999V0201801N002119999999N0000001N9-01001+99999098921ADDGF108991999999999999999999
0029028060999991908022813004+69100+027217FM-12+014999999V0202301N002119999999N0000001N9-00721+99999099161ADDGF104991999999999999999999
0029028060999991908022820004+69100+027217FM-12+014999999V0200901N005119999999N0000001N9-00941+99999099031ADDGF108991999999999999999999
0029028060999991908022906004+69100+027217FM-12+014999999V0201101N005119999999N0000001N9-00671+99999099871ADDGF108991999999999999999999
0029028060999991908022913004+69100+027217FM-12+014999999V0209991C000019999999N0000001N9-00781+99999100281ADDGF100991999999999999999999
0029028060999991908022920004+69100+027217FM-12+014999999V0201101N008219999999N0000001N9-00831+99999100301ADDGF108991999999999999999999
0029028060999991908030106004+69100+027217FM-12+014999999V0201601N002119999999N0000001N9-00501+99999100321ADDGF108991999999999999999999
0029028060999991908030113004+69100+027217FM-12+014999999V0201601N001019999999N0000001N9-00281+99999100511ADDGF108991999999999999999999
0029028060999991908030120004+69100+027217FM-12+014999999V0209991C000019999999N0000001N9-00781+99999100551ADDGF100991999999999999999999
0029028060999991908030206004+69100+027217FM-12+014999999V0201801N001019999999N0000001N9-01061+99999100141ADDGF108991999999999999999999
0029028060999991908030213004+69100+027217FM-12+014999999V0201801N005119999999N0000001N9-00611+99999100201ADDGF108991999999999999999999
0029028060999991908030220004+69100+027217FM-12+014999999V0201801N002119999999N0000001N9-00671+99999100101ADDGF100991999999999999999999
0029028060999991908030306004+69100+027217FM-12+014999999V0202001N011819999999N0000001N9-00721+99999100271ADDGF100991999999999999999999
0029028060999991908030313004+69100+027217FM-12+014999999V0202001N002119999999N0000001N9-00281+99999100601ADDGF104991999999999999999999
0029028060999991908030320004+69100+027217FM-12+014999999V0202001N008219999999N0000001N9-00781+99999100631ADDGF100991999999999999999999
0029028060999991908030406004+69100+027217FM-12+014999999V0202001N005119999999N0000001N9-01111+99999100181ADDGF100991999999999999999999
0029028060999991908030413004+69100+027217FM-12+014999999V0202001N002119999999N0000001N9-00501+99999100881ADDGF104991999999999999999999
0029028060999991908030420004+69100+027217FM-12+014999999V0202001N002119999999N0000001N9-00611+99999100901ADDGF108991999999999999999999
0029028060999991908030506004+69100+027217FM-12+014999999V0200901N003119999999N0000001N9-00891+99999100661ADDGF108991999999999999999999
0035028060999991908030513004+69100+027217FM-12+014999999V0200901N002119999999N0000001N9-00671+99999100631ADDGF108991999999999999999999MW1481
0029028060999991908030520004+69100+027217FM-12+014999999V0209991C000019999999N0000001N9-00561+99999100241ADDGF108991999999999999999999
0035028060999991908030606004+69100+027217FM-12+014999999V0209991C000019999999N0000001N9-00501+99999099871ADDGF108991999999999999999999MW1481
0029028060999991908030613004+69100+027217FM-12+014999999V0202301N001019999999N0000001N9-00221+99999099961ADDGF108991999999999999999999
0029028060999991908030620004+69100+027217FM-12+014999999V0202001N002119999999N0000001N9-00221+99999999999ADDGF108991999999999999999999
0029028060999991908030706004+69100+027217FM-12+014999999V0209991C000019999999N0000001N9-00331+99999100361ADDGF108991999999999999999999
0029028060999991908030713004+69100+027217FM-12+014999999V0209991C000019999999N0000001N9-00281+99999100401ADDGF108991999999999999999999
0029028060999991908030720004+69100+027217FM-12+014999999V0209991C000019999999N0000001N9-00561+99999100541ADDGF108991999999999999999999
0029028060999991908030806004+69100+027217FM-12+014999999V0201801N002119999999N0000001N9-00781+99999100511ADDGF106991999999999999999999
0035028060999991908030813004+69100+027217FM-12+014999999V0201801N004119999999N0000001N9-00221+99999100661ADDGF108991999999999999999999MW1701
0035028060999991908030820004+69100+027217FM-12+014999999V0201801N002119999999N0000001N9-00891+99999100791ADDGF108991999999999999999999MW1701
0035028060999991908030906004+69100+027217FM-12+014999999V0200901N005119999999N0000001N9-01331+99999101081ADDGF108991999999999999999999MW1721
0029028060999991908030913004+69100+027217FM-12+014999999V0201401N004119999999N0000001N9-01221+99999101381ADDGF100991999999999999999999
0029028060999991908030920004+69100+027217FM-12+014999999V0209991C000019999999N0000001N9-02391+99999101421ADDGF100991999999999999999999
0029028060999991908031006004+69100+027217FM-12+014999999V0209991C000019999999N0000001N9-03781+99999101501ADDGF100991999999999999999999
0035028060999991908031013004+69100+027217FM-12+014999999V0209991C000019999999N0000001N9-01611+99999101481ADDGF100991999999999999999999MW1481
0029028060999991908031020004+69100+027217FM-12+014999999V0209991C000019999999N0000001N9-02441+99999101301ADDGF100991999999999999999999
0035028060999991908031106004+69100+027217FM-12+014999999V0202701N003119999999N0000001N9-02281+99999101241ADDGF108991999999999999999999MW1701
0029028060999991908031113004+69100+027217FM-12+014999999V0209991C000019999999N0000001N9-01221+99999101391ADDGF104991999999999999999999
0029028060999991908031120004+69100+027217FM-12+014999999V0209991C000019999999N0000001N9-02221+99999101271ADDGF100991999999999999999999
0029028060999991908031206004+69100+027217FM-12+014999999V0209991C000019999999N0000001N9-02391+99999101021ADDGF100991999999999999999999
0029028060999991908031213004+69100+027217FM-12+014999999V0209991C000019999999N0000001N9-00891+99999100871ADDGF100991999999999999999999
0029028060999991908031220004+69100+027217FM-12+014999999V0202501N006219999999N0000001N9-01281+99999100421ADDGF100991999999999999999999
0029028060999991908031306004+69100+027217FM-12+014999999V0202301N002119999999N0000001N9-01061+99999100261ADDGF100991999999999999999999
0029028060999991908031313004+69100+027217FM-12+014999999V0202701N004119999999N0000001N9-00721+99999100441ADDGF104991999999999999999999
0029028060999991908031320004+69100+027217FM-12+014999999V0202701N006219999999N0000001N9-00781+99999100021ADDGF104991999999999999999999
0029028060999991908031406004+69100+027217FM-12+014999999V0209991C000019999999N0000001N9-01221+99999099661ADDGF100991999999999999999999
0035028060999991908031413004+69100+027217FM-12+014999999V0200501N004119999999N0000001N9-00941+99999099671ADDGF100991999999999999999999MW1481
0029028060999991908031420004+69100+027217FM-12+014999999V0203201N002119999999N0000001N9-02281+99999099781ADDGF100991999999999999999999
0029028060999991908031506004+69100+027217FM-12+014999999V0209991C000019999999N0000001N9-03171+99999099761ADDGF100991999999999999999999
0035028060999991908031513004+69100+027217FM-12+014999999V0202301N002119999999N0000001N9-01111+99999099351ADDGF100991999999999999999999MW1481
0029028060999991908031520004+69100+027217FM-12+014999999V0209991C000019999999N0000001N9-02221+99999099191ADDGF100991999999999999999999
0029028060999991908031606004+69100+027217FM-12+014999999V0209991C000019999999N0000001N9-03171+99999098921ADDGF100991999999999999999999
0035028060999991908031613004+69100+027217FM-12+014999999V0202501N002119999999N0000001N9-01221+99999098901ADDGF106991999999999999999999MW1481
0029028060999991908031620004+69100+027217FM-12+014999999V0202001N013919999999N0000001N9-01111+99999098201ADDGF108991999999999999999999
0035028060999991908031706004+69100+027217FM-12+014999999V0203601N009819999999N0000001N9-01391+99999098421ADDGF100991999999999999999999MW1481
0029028060999991908031713004+69100+027217FM-12+014999999V0202301N008219999999N0000001N9-00891+99999099121ADDGF100991999999999999999999
0029028060999991908031720004+69100+027217FM-12+014999999V0202301N004119999999N0000001N9-01111+99999099401ADDGF100991999999999999999999
0035028060999991908031806004+69100+027217FM-12+014999999V0209991C000019999999N0000001N9-02781+99999099601ADDGF100991999999999999999999MW1481
0035028060999991908031813004+69100+027217FM-12+014999999V0202301N002119999999N0000001N9-00671+99999099561ADDGF104991999999999999999999MW1891
0000028060999991908031820004+69100+027217FM-12+014999999V0202301N009819999999N0000001N9-00891+99999099191
0029028060999991908031906004+69100+027217FM-12+014999999V0202001N009819999999N0000001N9-00221+99999098391ADDGF108991999999999999999999
0035028060999991908031913004+69100+027217FM-12+014999999V0202301N020119999999N0000001N9+00441+99999098381ADDGF108991999999999999999999MW1381
0029028060999991908031920004+69100+027217FM-12+014999999V0202501N024219999999N0000001N9+00221+99999098871ADDGF108991999999999999999999
0029028060999991908032006004+69100+027217FM-12+014999999V0202501N011819999999N0000001N9+00001+99999099041ADDGF104991999999999999999999
0035028060999991908032013004+69100+027217FM-12+014999999V0202301N011819999999N0000001N9+00501+99999099181ADDGF104991999999999999999999MW1381
0029028060999991908032020004+69100+027217FM-12+014999999V0202301N006219999999N0000001N9+00001+99999099631ADDGF100991999999999999999999
0029028060999991908032106004+69100+027217FM-12+014999999V0202301N008219999999N0000001N9-00501+99999100231ADDGF104991999999999999999999
0035028060999991908032113004+69100+027217FM-12+014999999V0202501N006219999999N0000001N9+00171+99999100481ADDGF100991999999999999999999MW1381
0029028060999991908032120004+69100+027217FM-12+014999999V0202001N011819999999N0000001N9-00221+99999100991ADDGF108991999999999999999999
0029028060999991908032206004+69100+027217FM-12+014999999V0202301N013919999999N0000001N9-00111+99999100421ADDGF108991999999999999999999
0035028060999991908032213004+69100+027217FM-12+014999999V0202301N018019999999N0000001N9-00171+99999100521ADDGF108991999999999999999999MW1381
0029028060999991908032220004+69100+027217FM-12+014999999V0202301N024219999999N0000001N9-00221+99999100481ADDGF108991999999999999999999
0029028060999991908032306004+69100+027217FM-12+014999999V0202701N008219999999N0000001N9-00331+99999100391ADDGF104991999999999999999999
0035028060999991908032313004+69100+027217FM-12+014999999V0202701N004119999999N0000001N9+00221+99999100661ADDGF106991999999999999999999MW1381
0029028060999991908032320004+69100+027217FM-12+014999999V0202701N002119999999N0000001N9-00281+99999101031ADDGF104991999999999999999999
0029028060999991908032406004+69100+027217FM-12+014999999V0200201N002119999999N0000001N9-00501+99999101431ADDGF108991999999999999999999
0029028060999991908032413004+69100+027217FM-12+014999999V0200201N001019999999N0000001N9-00221+99999101601ADDGF100991999999999999999999
0029028060999991908032420004+69100+027217FM-12+014999999V0200201N003119999999N0000001N9-00671+99999101441ADDGF108991999999999999999999
0035028060999991908032506004+69100+027217FM-12+014999999V0201401N002119999999N0000001N9-00781+99999101151ADDGF108991999999999999999999MW1721
0035028060999991908032513004+69100+027217FM-12+014999999V0209991C000019999999N0000001N9-00281+99999101111ADDGF108991999999999999999999MW1721
0029028060999991908032520004+69100+027217FM-12+014999999V0209991C000019999999N0000001N9-00501+99999100991ADDGF108991999999999999999999
0029028060999991908032606004+69100+027217FM-12+014999999V0202301N004119999999N0000001N9-00501+99999100621ADDGF108991999999999999999999
0029028060999991908032613004+69100+027217FM-12+014999999V0202701N009819999999N0000001N9+00061+99999100191ADDGF108991999999999999999999
0029028060999991908032620004+69100+027217FM-12+014999999V0202301N006219999999N0000001N9+00001+99999999999ADDGF108991999999999999999999
0029028060999991908032706004+69100+027217FM-12+014999999V0202701N002119999999N0000001N9-00171+99999099601ADDGF100991999999999999999999
0029028060999991908032713004+69100+027217FM-12+014999999V0202701N006219999999N0000001N9+00441+99999099401ADDGF104991999999999999999999
0029028060999991908032720004+69100+027217FM-12+014999999V0202301N002119999999N0000001N9-00171+99999099191ADDGF100991999999999999999999
0029028060999991908032806004+69100+027217FM-12+014999999V0202701N004119999999N0000001N9-00391+99999099081ADDGF100991999999999999999999
0029028060999991908032813004+69100+027217FM-12+014999999V0202501N006219999999N0000001N9+00281+99999099071ADDGF104991999999999999999999
0029028060999991908032820004+69100+027217FM-12+014999999V0202301N009819999999N0000001N9-00281+99999098981ADDGF108991999999999999999999
0035028060999991908032906004+69100+027217FM-12+014999999V0202501N004119999999N0000001N9-00891+99999098561ADDGF100991999999999999999999MW1481
0029028060999991908032913004+69100+027217FM-12+014999999V0202501N009819999999N0000001N9-00221+99999098511ADDGF100991999999999999999999
0029028060999991908032920004+69100+027217FM-12+014999999V0202501N011819999999N0000001N9-00391+99999098341ADDGF104991999999999999999999
0029028060999991908033006004+69100+027217FM-12+014999999V0202501N011819999999N0000001N9-00441+99999098041ADDGF108991999999999999999999
0029028060999991908033013004+69100+027217FM-12+014999999V0202501N013919999999N0000001N9+00221+99999097911ADDGF104991999999999999999999
0029028060999991908033020004+69100+027217FM-12+014999999V0202301N015919999999N0000001N9+00331+99999097631ADDGF108991999999999999999999
0035028060999991908033106004+69100+027217FM-12+014999999V0201801N003119999999N0000001N9+00111+99999097101ADDGF108991999999999999999999MW1721
0029028060999991908033113004+69100+027217FM-12+014999999V0201801N002119999999N0000001N9+00281+99999097681ADDGF100991999999999999999999
0029028060999991908033120004+69100+027217FM-12+014999999V0202301N004119999999N0000001N9+00171+99999098071ADDGF100991999999999999999999
0029028060999991908040106004+69100+027217FM-12+014999999V0202701N002119999999N0000001N9-00281+99999098351ADDGF100991999999999999999999
0029028060999991908040113004+69100+027217FM-12+014999999V0201801N008219999999N0000001N9+00281+99999098481ADDGF108991999999999999999999
0029028060999991908040120004+69100+027217FM-12+014999999V0202301N009819999999N0000001N9+00221+99999098671ADDGF106991999999999999999999
0029028060999991908040206004+69100+027217FM-12+014999999V0202001N002119999999N0000001N9+00281+99999098941ADDGF108991999999999999999999
0029028060999991908040213004+69100+027217FM-12+014999999V0202301N004119999999N0000001N9+00391+99999099151ADDGF108991999999999999999999
0035028060999991908040220004+69100+027217FM-12+014999999V0209991C000019999999N0000001N9+00061+99999098961ADDGF108991999999999999999999MW1721
0035028060999991908040306004+69100+027217FM-12+014999999V0202501N004119999999N0000001N9+00061+99999098981ADDGF108991999999999999999999MW1721
0035028060999991908040313004+69100+027217FM-12+014999999V0203601N008219999999N0000001N9+00221+99999099671ADDGF108991999999999999999999MW1721
0029028060999991908040320004+69100+027217FM-12+014999999V0209991C000019999999N0000001N9-00781+99999099831ADDGF100991999999999999999999
0035028060999991908040406004+69100+027217FM-12+014999999V0201401N006219999999N0000001N9-00281+99999100021ADDGF108991999999999999999999MW1721
0035028060999991908040413004+69100+027217FM-12+014999999V0201401N008719999999N0000001N9+00221+99999099801ADDGF108991999999999999999999MW1721
0035028060999991908040420004+69100+027217FM-12+014999999V0202301N009819999999N0000001N9+00061+99999099791ADDGF108991999999999999999999MW1721
0029028060999991908040506004+69100+027217FM-12+014999999V0201401N004119999999N0000001N9-00061+99999099921ADDGF106991999999999999999999
0029028060999991908040513004+69100+027217FM-12+014999999V0209991C000019999999N0000001N9+00281+99999100101ADDGF106991999999999999999999
0035028060999991908040520004+69100+027217FM-12+014999999V0202301N001019999999N0000001N9+00061+99999099981ADDGF108991999999999999999999MW1721
0035028060999991908040606004+69100+027217FM-12+014999999V0209991C000019999999N0000001N9-00171+99999100101ADDGF108991999999999999999999MW1721
0029028060999991908040613004+69100+027217FM-12+014999999V0202301N002119999999N0000001N9+00171+99999100381ADDGF104991999999999999999999
0029028060999991908040620004+69100+027217FM-12+014999999V0202001N002119999999N0000001N9-00611+99999100721ADDGF104991999999999999999999
0029028060999991908040706004+69100+027217FM-12+014999999V0209991C000019999999N0000001N9-00611+99999100631ADDGF104991999999999999999999
0029028060999991908040713004+69100+027217FM-12+014999999V0202001N008219999999N0000001N9+00061+99999100301ADDGF104991999999999999999999
0029028060999991908040720004+69100+027217FM-12+014999999V0202001N008219999999N0000001N9+00001+99999099641ADDGF105991999999999999999999
0029028060999991908040806004+69100+027217FM-12+014999999V0202301N018019999999N0000001N9+00001+99999098121ADDGF108991999999999999999999
0029028060999991908040813004+69100+027217FM-12+014999999V0202301N024219999999N0000001N9+00671+99999097961ADDGF100991999999999999999999
0029028060999991908040820004+69100+027217FM-12+014999999V0202701N029819999999N0000001N9+00221+99999097831ADDGF104991999999999999999999
0029028060999991908040906004+69100+027217FM-12+014999999V0202701N024219999999N0000001N9+00001+99999098071ADDGF108991999999999999999999
0029028060999991908040913004+69100+027217FM-12+014999999V0202501N026219999999N0000001N9+00111+99999098511ADDGF100991999999999999999999
0035028060999991908040920004+69100+027217FM-12+014999999V0203201N020119999999N0000001N9-00281+99999099071ADDGF108991999999999999999999MW1721
0035028060999991908041006004+69100+027217FM-12+014999999V0200501N004119999999N0000001N9-00391+99999099581ADDGF108991999999999999999999MW1721
0029028060999991908041013004+69100+027217FM-12+014999999V0200501N002119999999N0000001N9-00111+99999099951ADDGF108991999999999999999999
0029028060999991908041020004+69100+027217FM-12+014999999V0200501N002119999999N0000001N9-00391+99999099981ADDGF108991999999999999999999
0029028060999991908041106004+69100+027217FM-12+014999999V0202701N002119999999N0000001N9-00501+99999099981ADDGF108991999999999999999999
0029028060999991908041113004+69100+027217FM-12+014999999V0202901N002119999999N0000001N9+00171+99999999999ADDGF100991999999999999999999
0029028060999991908041120004+69100+027217FM-12+014999999V0202701N004119999999N0000001N9-00221+99999099981ADDGF104991999999999999999999
0029028060999991908041206004+69100+027217FM-12+014999999V0202301N002119999999N0000001N9-00391+99999100081ADDGF108991999999999999999999
0029028060999991908041213004+69100+027217FM-12+014999999V0202901N004119999999N0000001N9+00281+99999100061ADDGF104991999999999999999999
0029028060999991908041220004+69100+027217FM-12+014999999V0202701N004119999999N0000001N9+00171+99999099821ADDGF104991999999999999999999
0029028060999991908041306004+69100+027217FM-12+014999999V0201801N002119999999N0000001N9+00001+99999100401ADDGF108991999999999999999999
0029028060999991908041313004+69100+027217FM-12+014999999V0202901N004119999999N0000001N9+00391+99999100551ADDGF104991999999999999999999
0029028060999991908041320004+69100+027217FM-12+014999999V0202701N004119999999N0000001N9+00281+99999100551ADDGF104991999999999999999999
0029028060999991908041406004+69100+027217FM-12+014999999V0202901N008219999999N0000001N9+00221+99999100551ADDGF108991999999999999999999
0029028060999991908041413004+69100+027217FM-12+014999999V0202701N009819999999N0000001N9+00501+99999100631ADDGF104991999999999999999999
0029028060999991908041420004+69100+027217FM-12+014999999V0202301N002119999999N0000001N9+00331+99999100431ADDGF106991999999999999999999
0029028060999991908041506004+69100+027217FM-12+014999999V0202701N009819999999N0000001N9+00221+99999100101ADDGF100991999999999999999999
0029028060999991908041513004+69100+027217FM-12+014999999V0202501N011819999999N0000001N9+00331+99999099871ADDGF108991999999999999999999
0029028060999991908041520004+69100+027217FM-12+014999999V0202701N013919999999N0000001N9+00331+99999099471ADDGF108991999999999999999999
0029028060999991908041606004+69100+027217FM-12+014999999V0202701N004119999999N0000001N9+00281+99999099001ADDGF108991999999999999999999
0029028060999991908041613004+69100+027217FM-12+014999999V0202701N018019999999N0000001N9+00561+99999098561ADDGF100991999999999999999999
0029028060999991908041620004+69100+027217FM-12+014999999V0202701N024219999999N0000001N9+00171+99999098301ADDGF108991999999999999999999
0029028060999991908041706004+69100+027217FM-12+014999999V0203201N008219999999N0000001N9-00221+99999098161ADDGF104991999999999999999999
0029028060999991908041713004+69100+027217FM-12+014999999V0203401N011819999999N0000001N9-00171+99999098381ADDGF104991999999999999999999
0035028060999991908041720004+69100+027217FM-12+014999999V0200501N013919999999N0000001N9-00281+99999098681ADDGF108991999999999999999999MW1721
0029028060999991908041806004+69100+027217FM-12+014999999V0200501N004119999999N0000001N9-00721+99999099431ADDGF100991999999999999999999
0029028060999991908041813004+69100+027217FM-12+014999999V0200501N004119999999N0000001N9-00281+99999099481ADDGF100991999999999999999999
0029028060999991908041820004+69100+027217FM-12+014999999V0200501N002119999999N0000001N9-00781+99999099521ADDGF104991999999999999999999
0035028060999991908041906004+69100+027217FM-12+014999999V0200501N004119999999N0000001N9-01001+99999099541ADDGF100991999999999999999999MW1481
0029028060999991908041913004+69100+027217FM-12+014999999V0200901N008219999999N0000001N9-00501+99999099561ADDGF100991999999999999999999
0029028060999991908041920004+69100+027217FM-12+014999999V0203601N002119999999N0000001N9-00831+99999099351ADDGF100991999999999999999999
0035028060999991908042006004+69100+027217FM-12+014999999V0200501N004119999999N0000001N9-01221+99999098911ADDGF106991999999999999999999MW1481
0035028060999991908042013004+69100+027217FM-12+014999999V0200501N024219999999N0000001N9-00611+99999098181ADDGF108991999999999999999999MW1721
0035028060999991908042020004+69100+027217FM-12+014999999V0200501N020119999999N0000001N9-00781+99999097641ADDGF108991999999999999999999MW1721
0035028060999991908042106004+69100+027217FM-12+014999999V0200701N018019999999N0000001N9-00671+99999097361ADDGF104991999999999999999999MW1381
0035028060999991908042113004+69100+027217FM-12+014999999V0200501N018019999999N0000001N9-00331+99999097351ADDGF108991999999999999999999MW1721
0035028060999991908042120004+69100+027217FM-12+014999999V0203601N013919999999N0000001N9-00501+99999097231ADDGF108991999999999999999999MW1721
0029028060999991908042206004+69100+027217FM-12+014999999V0202701N001019999999N0000001N9-00671+99999097641ADDGF108991999999999999999999
0029028060999991908042213004+69100+027217FM-12+014999999V0202701N005119999999N0000001N9+00001+99999098181ADDGF104991999999999999999999
0029028060999991908042220004+69100+027217FM-12+014999999V0202701N006219999999N0000001N9-00501+99999098621ADDGF108991999999999999999999
0029028060999991908042306004+69100+027217FM-12+014999999V0209991C000019999999N0000001N9-01781+99999098821ADDGF100991999999999999999999
0029028060999991908042313004+69100+027217FM-12+014999999V0202701N002119999999N0000001N9-00221+99999098581ADDGF104991999999999999999999
0029028060999991908042320004+69100+027217FM-12+014999999V0202701N004119999999N0000001N9-00391+99999098981ADDGF108991999999999999999999
0029028060999991908042406004+69100+027217FM-12+014999999V0202701N002119999999N0000001N9-01441+99999099711ADDGF100991999999999999999999
0029028060999991908042413004+69100+027217FM-12+014999999V0202701N002119999999N0000001N9-00111+99999100221ADDGF100991999999999999999999
0029028060999991908042420004+69100+027217FM-12+014999999V0209991C000019999999N0000001N9-00391+99999100821ADDGF100991999999999999999999
0035028060999991908042506004+69100+027217FM-12+014999999V0200901N005119999999N0000001N9-00611+99999101081ADDGF108991999999999999999999MW1721
0029028060999991908042513004+69100+027217FM-12+014999999V0200501N008219999999N0000001N9-00281+99999101001ADDGF108991999999999999999999
0035028060999991908042520004+69100+027217FM-12+014999999V0200501N002119999999N0000001N9-00221+99999100481ADDGF108991999999999999999999MW1721
0035028060999991908042606004+69100+027217FM-12+014999999V0209991C000019999999N0000001N9-00781+99999100671ADDGF100991999999999999999999MW1481
0029028060999991908042613004+69100+027217FM-12+014999999V0201801N006219999999N0000001N9+00831+99999100681ADDGF100991999999999999999999
0029028060999991908042620004+69100+027217FM-12+014999999V0202301N004119999999N0000001N9+00611+99999100521ADDGF100991999999999999999999
0029028060999991908042706004+69100+027217FM-12+014999999V0209991C000019999999N0000001N9-00111+99999100101ADDGF108991999999999999999999
0029028060999991908042713004+69100+027217FM-12+014999999V0200501N004119999999N0000001N9+00941+99999099961ADDGF108991999999999999999999
0029028060999991908042720004+69100+027217FM-12+014999999V0200501N001019999999N0000001N9+00281+99999099941ADDGF108991999999999999999999
0029028060999991908042806004+69100+027217FM-12+014999999V0203601N005119999999N0000001N9+00111+99999099601ADDGF108991999999999999999999
0029028060999991908042813004+69100+027217FM-12+014999999V0200501N008219999999N0000001N9+00221+99999099601ADDGF108991999999999999999999
0029028060999991908042820004+69100+027217FM-12+014999999V0203601N004119999999N0000001N9+00221+99999099961ADDGF104991999999999999999999
0029028060999991908042906004+69100+027217FM-12+014999999V0203201N002119999999N0000001N9-00391+99999100441ADDGF100991999999999999999999
0029028060999991908042913004+69100+027217FM-12+014999999V0202701N020119999999N0000001N9+00061+99999100361ADDGF100991999999999999999999
0029028060999991908042920004+69100+027217FM-12+014999999V0209991C000019999999N0000001N9-00221+99999100511ADDGF100991999999999999999999
0029028060999991908043006004+69100+027217FM-12+014999999V0202701N005119999999N0000001N9-00561+99999100601ADDGF108991999999999999999999
0029028060999991908043013004+69100+027217FM-12+014999999V0203201N008219999999N0000001N9-00061+99999100461ADDGF104991999999999999999999
0029028060999991908043020004+69100+027217FM-12+014999999V0209991C000019999999N0000001N9-00221+99999100381ADDGF100991999999999999999999
0029028060999991908050106004+69100+027217FM-12+014999999V0202701N004119999999N0000001N9-00501+99999100191ADDGF100991999999999999999999
0029028060999991908050113004+69100+027217FM-12+014999999V0202501N004119999999N0000001N9+00281+99999100071ADDGF100991999999999999999999
0029028060999991908050120004+69100+027217FM-12+014999999V0209991C000019999999N0000001N9-00111+99999099951ADDGF106991999999999999999999
0029028060999991908050206004+69100+027217FM-12+014999999V0200201N003119999999N0000001N9-00501+99999099781ADDGF100991999999999999999999
0029028060999991908050213004+69100+027217FM-12+014999999V0203401N004119999999N0000001N9-00111+99999099751ADDGF100991999999999999999999
0029028060999991908050220004+69100+027217FM-12+014999999V0203601N006219999999N0000001N9-00281+99999099741ADDGF104991999999999999999999
0029028060999991908050306004+69100+027217FM-12+014999999V0203601N004119999999N0000001N9-00501+99999099791ADDGF100991999999999999999999
0029028060999991908050313004+69100+027217FM-12+014999999V0200501N008219999999N0000001N9-00061+99999099761ADDGF104991999999999999999999
0035028060999991908050320004+69100+027217FM-12+014999999V0200701N011819999999N0000001N9-00331+99999099951ADDGF108991999999999999999999MW1721
0035028060999991908050406004+69100+027217FM-12+014999999V0200201N004119999999N0000001N9-00501+99999099981ADDGF108991999999999999999999MW1721
0035028060999991908050413004+69100+027217FM-12+014999999V0200201N018019999999N0000001N9-00221+99999099961ADDGF108991999999999999999999MW1721
0035028060999991908050420004+69100+027217FM-12+014999999V0200501N009819999999N0000001N9-00331+99999100041ADDGF108991999999999999999999MW1721
0035028060999991908050506004+69100+027217FM-12+014999999V0200501N011819999999N0000001N9-00441+99999100061ADDGF108991999999999999999999MW1721
0035028060999991908050513004+69100+027217FM-12+014999999V0200501N012919999999N0000001N9-00221+99999099861ADDGF108991999999999999999999MW1721
0029028060999991908050520004+69100+027217FM-12+014999999V0200501N011819999999N0000001N9-00391+99999099721ADDGF108991999999999999999999
0035028060999991908050606004+69100+027217FM-12+014999999V0203601N008219999999N0000001N9-00441+99999100081ADDGF108991999999999999999999MW1721
0035028060999991908050613004+69100+027217FM-12+014999999V0200501N005119999999N0000001N9-00221+99999099901ADDGF108991999999999999999999MW1721
0029028060999991908050620004+69100+027217FM-12+014999999V0200501N004119999999N0000001N9-00281+99999099721ADDGF108991999999999999999999
0029028060999991908050706004+69100+027217FM-12+014999999V0200501N004119999999N0000001N9-00281+99999099121ADDGF106991999999999999999999
0029028060999991908050713004+69100+027217FM-12+014999999V0202301N008219999999N0000001N9+00221+99999098871ADDGF100991999999999999999999
0029028060999991908050720004+69100+027217FM-12+014999999V0202701N002119999999N0000001N9+00221+99999098641ADDGF108991999999999999999999
0029028060999991908050806004+69100+027217FM-12+014999999V0202701N001019999999N0000001N9-00281+99999098221ADDGF108991999999999999999999
0029028060999991908050813004+69100+027217FM-12+014999999V0202501N004119999999N0000001N9+00221+99999098101ADDGF108991999999999999999999
0035028060999991908050820004+69100+027217FM-12+014999999V0200501N001019999999N0000001N9-00171+99999098061ADDGF108991999999999999999999MW1721
0029028060999991908050906004+69100+027217FM-12+014999999V0203201N002119999999N0000001N9-00221+99999097991ADDGF108991999999999999999999
0029028060999991908050913004+69100+027217FM-12+014999999V0202301N002119999999N0000001N9+00501+99999098061ADDGF104991999999999999999999
0029028060999991908050920004+69100+027217FM-12+014999999V0201801N002119999999N0000001N9+00061+99999097881ADDGF106991999999999999999999
0029028060999991908051006004+69100+027217FM-12+014999999V0203601N003119999999N0000001N9-00111+99999097791ADDGF100991999999999999999999
0035028060999991908051013004+69100+027217FM-12+014999999V0200501N009819999999N0000001N9-00061+99999097981ADDGF108991999999999999999999MW1721
0029028060999991908051020004+69100+027217FM-12+014999999V0203601N011819999999N0000001N9-00221+99999098161ADDGF104991999999999999999999
0029028060999991908051106004+69100+027217FM-12+014999999V0202701N002119999999N0000001N9-00561+99999098041ADDGF100991999999999999999999
0029028060999991908051113004+69100+027217FM-12+014999999V0203601N006219999999N0000001N9+00001+99999098241ADDGF104991999999999999999999
0035028060999991908051120004+69100+027217FM-12+014999999V0203601N008219999999N0000001N9-00221+99999098501ADDGF108991999999999999999999MW1721
0029028060999991908051206004+69100+027217FM-12+014999999V0202701N006219999999N0000001N9-00281+99999098561ADDGF106991999999999999999999
0035028060999991908051213004+69100+027217FM-12+014999999V0202901N011819999999N0000001N9-00171+99999098721ADDGF108991999999999999999999MW1721
0029028060999991908051220004+69100+027217FM-12+014999999V0202701N009819999999N0000001N9-00171+99999098671ADDGF108991999999999999999999
0029028060999991908051306004+69100+027217FM-12+014999999V0202701N008219999999N0000001N9-00061+99999098841ADDGF108991999999999999999999
0029028060999991908051313004+69100+027217FM-12+014999999V0203201N009819999999N0000001N9+00281+99999099001ADDGF104991999999999999999999
0029028060999991908051320004+69100+027217FM-12+014999999V0202701N002119999999N0000001N9+00001+99999098841ADDGF100991999999999999999999
0029028060999991908051406004+69100+027217FM-12+014999999V0202301N003119999999N0000001N9-00221+99999099111ADDGF100991999999999999999999
0029028060999991908051413004+69100+027217FM-12+014999999V0202301N004119999999N0000001N9+00501+99999099001ADDGF100991999999999999999999
0029028060999991908051420004+69100+027217FM-12+014999999V0202701N003119999999N0000001N9+00331+99999098671ADDGF108991999999999999999999
0029028060999991908051506004+69100+027217FM-12+014999999V0203601N006219999999N0000001N9+00061+99999098751ADDGF104991999999999999999999
0035028060999991908051513004+69100+027217FM-12+014999999V0203601N004119999999N0000001N9+00281+99999099001ADDGF108991999999999999999999MW1701
0029028060999991908051520004+69100+027217FM-12+014999999V0200501N002119999999N0000001N9+00281+99999099121ADDGF100991999999999999999999
0029028060999991908051606004+69100+027217FM-12+014999999V0202701N002119999999N0000001N9+00171+99999099271ADDGF106991999999999999999999
0029028060999991908051613004+69100+027217FM-12+014999999V0202701N004119999999N0000001N9+00391+99999099141ADDGF104991999999999999999999
0029028060999991908051620004+69100+027217FM-12+014999999V0202701N002119999999N0000001N9+00391+99999099241ADDGF100991999999999999999999
0029028060999991908051706004+69100+027217FM-12+014999999V0202701N004119999999N0000001N9+00221+99999099231ADDGF108991999999999999999999
0029028060999991908051713004+69100+027217FM-12+014999999V0202901N008219999999N0000001N9+00391+99999099281ADDGF108991999999999999999999
0029028060999991908051720004+69100+027217FM-12+014999999V0202501N003119999999N0000001N9+00281+99999099321ADDGF108991999999999999999999
0029028060999991908051806004+69100+027217FM-12+014999999V0202701N006219999999N0000001N9+00281+99999098781ADDGF106991999999999999999999
0029028060999991908051813004+69100+027217FM-12+014999999V0202901N011819999999N0000001N9+00561+99999098511ADDGF104991999999999999999999
0029028060999991908051820004+69100+027217FM-12+014999999V0202901N004119999999N0000001N9+00391+99999098421ADDGF106991999999999999999999
0029028060999991908051906004+69100+027217FM-12+014999999V0202701N004119999999N0000001N9+00391+99999098261ADDGF108991999999999999999999
0035028060999991908051913004+69100+027217FM-12+014999999V0202701N009819999999N0000001N9+00561+99999098441ADDGF108991999999999999999999MW1621
0029028060999991908051920004+69100+027217FM-12+014999999V0203601N002119999999N0000001N9+00171+99999098781ADDGF108991999999999999999999
0029028060999991908052006004+69100+027217FM-12+014999999V0200901N004119999999N0000001N9+00171+99999098781ADDGF106991999999999999999999
0029028060999991908052013004+69100+027217FM-12+014999999V0202701N006219999999N0000001N9+00611+99999098781ADDGF104991999999999999999999
0029028060999991908052020004+69100+027217FM-12+014999999V0203601N003119999999N0000001N9+00331+99999098831ADDGF108991999999999999999999
0029028060999991908052106004+69100+027217FM-12+014999999V0200201N002119999999N0000001N9+00281+99999098871ADDGF108991999999999999999999
0029028060999991908052113004+69100+027217FM-12+014999999V0202301N006219999999N0000001N9+00831+99999099101ADDGF104991999999999999999999
0029028060999991908052120004+69100+027217FM-12+014999999V0209991C000019999999N0000001N9+00611+99999099231ADDGF108991999999999999999999
0029028060999991908052206004+69100+027217FM-12+014999999V0209991C000019999999N0000001N9+00221+99999099701ADDGF108991999999999999999999
0029028060999991908052213004+69100+027217FM-12+014999999V0200901N008219999999N0000001N9+00831+99999099821ADDGF106991999999999999999999
0029028060999991908052220004+69100+027217FM-12+014999999V0200901N006219999999N0000001N9+00721+99999099501ADDGF104991999999999999999999
0035028060999991908052306004+69100+027217FM-12+014999999V0201101N008219999999N0000001N9+00441+99999098591ADDGF108991999999999999999999MW1621
0035028060999991908052313004+69100+027217FM-12+014999999V0202301N015919999999N0000001N9+00671+99999097401ADDGF108991999999999999999999MW1621
0029028060999991908052320004+69100+027217FM-12+014999999V0202501N008219999999N0000001N9+00611+99999097381ADDGF104991999999999999999999
0035028060999991908052406004+69100+027217FM-12+014999999V0203201N015919999999N0000001N9+00281+99999097641ADDGF108991999999999999999999MW1621
0029028060999991908052413004+69100+027217FM-12+014999999V0203601N026219999999N0000001N9+00391+99999098951ADDGF104991999999999999999999
0029028060999991908052420004+69100+027217FM-12+014999999V0203401N013919999999N0000001N9+00171+99999099741ADDGF108991999999999999999999
0029028060999991908052506004+69100+027217FM-12+014999999V0203201N009819999999N0000001N9+00331+99999100101ADDGF108991999999999999999999
0029028060999991908052513004+69100+027217FM-12+014999999V0202701N008219999999N0000001N9+00611+99999100191ADDGF104991999999999999999999
0029028060999991908052520004+69100+027217FM-12+014999999V0200501N002119999999N0000001N9+00611+99999100151ADDGF100991999999999999999999
0029028060999991908052606004+69100+027217FM-12+014999999V0200901N002119999999N0000001N9+00561+99999100151ADDGF100991999999999999999999
0035028060999991908052613004+69100+027217FM-12+014999999V0202301N009819999999N0000001N9+01001+99999100181ADDGF108991999999999999999999MW1621
0029028060999991908052620004+69100+027217FM-12+014999999V0202001N002119999999N0000001N9+00941+99999100121ADDGF108991999999999999999999
0029028060999991908052706004+69100+027217FM-12+014999999V0202001N002119999999N0000001N9+00891+99999100061ADDGF108991999999999999999999
0035028060999991908052713004+69100+027217FM-12+014999999V0202001N004119999999N0000001N9+01061+99999099701ADDGF108991999999999999999999MW1621
0035028060999991908052720004+69100+027217FM-12+014999999V0202701N006219999999N0000001N9+00671+99999099501ADDGF108991999999999999999999MW1131
0029028060999991908052806004+69100+027217FM-12+014999999V0202701N009819999999N0000001N9+00781+99999099261ADDGF106991999999999999999999
0029028060999991908052813004+69100+027217FM-12+014999999V0202901N011819999999N0000001N9+00941+99999099761ADDGF106991999999999999999999
0029028060999991908052820004+69100+027217FM-12+014999999V0203201N013919999999N0000001N9+00831+99999099901ADDGF108991999999999999999999
0035028060999991908052906004+69100+027217FM-12+014999999V0203201N011819999999N0000001N9+00501+99999100221ADDGF108991999999999999999999MW1601
0029028060999991908052913004+69100+027217FM-12+014999999V0203601N013919999999N0000001N9+00721+99999101021ADDGF108991999999999999999999
0029028060999991908052920004+69100+027217FM-12+014999999V0209991C000019999999N0000001N9+00891+99999101101ADDGF100991999999999999999999
0035028060999991908053006004+69100+027217FM-12+014999999V0202501N004119999999N0000001N9+00501+99999100281ADDGF108991999999999999999999MW1621
0029028060999991908053013004+69100+027217FM-12+014999999V0202501N008219999999N0000001N9+01001+99999099881ADDGF108991999999999999999999
0029028060999991908053020004+69100+027217FM-12+014999999V0202701N008219999999N0000001N9+00941+99999099721ADDGF108991999999999999999999
0029028060999991908053106004+69100+027217FM-12+014999999V0202901N008219999999N0000001N9+00941+99999099681ADDGF104991999999999999999999
0029028060999991908053113004+69100+027217FM-12+014999999V0202701N013919999999N0000001N9+00831+99999099461ADDGF108991999999999999999999
0029028060999991908053120004+69100+027217FM-12+014999999V0203201N013919999999N0000001N9+00611+99999099241ADDGF105991999999999999999999
0029028060999991908060106004+69100+027217FM-12+014999999V0203601N008219999999N0000001N9+00391+99999099421ADDGF104991999999999999999999
0029028060999991908060113004+69100+027217FM-12+014999999V0203201N013919999999N0000001N9+00561+99999099421ADDGF108991999999999999999999
0029028060999991908060120004+69100+027217FM-12+014999999V0203601N011819999999N0000001N9+00221+99999099721ADDGF104991999999999999999999
0029028060999991908060206004+69100+027217FM-12+014999999V0203601N011819999999N0000001N9+00111+99999099991ADDGF108991999999999999999999
0029028060999991908060213004+69100+027217FM-12+014999999V0203601N013919999999N0000001N9+00221+99999100321ADDGF108991999999999999999999
0029028060999991908060220004+69100+027217FM-12+014999999V0203601N008219999999N0000001N9+00061+99999100361ADDGF108991999999999999999999
0029028060999991908060306004+69100+027217FM-12+014999999V0202901N009819999999N0000001N9+00221+99999100111ADDGF108991999999999999999999
0029028060999991908060313004+69100+027217FM-12+014999999V0203201N011819999999N0000001N9+00391+99999100231ADDGF106991999999999999999999
0029028060999991908060320004+69100+027217FM-12+014999999V0203601N009819999999N0000001N9+00221+99999100201ADDGF106991999999999999999999
0035028060999991908060406004+69100+027217FM-12+014999999V0202001N006219999999N0000001N9+00001+99999099271ADDGF108991999999999999999999MW1721
0035028060999991908060413004+69100+027217FM-12+014999999V0200901N006219999999N0000001N9+00221+99999098791ADDGF108991999999999999999999MW1721
0029028060999991908060420004+69100+027217FM-12+014999999V0203401N009819999999N0000001N9+00061+99999098911ADDGF106991999999999999999999
0029028060999991908060506004+69100+027217FM-12+014999999V0202901N004119999999N0000001N9-00061+99999098801ADDGF108991999999999999999999
0029028060999991908060513004+69100+027217FM-12+014999999V0202501N008219999999N0000001N9+00331+99999098511ADDGF104991999999999999999999
0035028060999991908060520004+69100+027217FM-12+014999999V0200501N006219999999N0000001N9+00221+99999098471ADDGF108991999999999999999999MW1901
0035028060999991908060606004+69100+027217FM-12+014999999V0203601N002119999999N0000001N9+00281+99999098621ADDGF108991999999999999999999MW1721
0035028060999991908060613004+69100+027217FM-12+014999999V0200501N006219999999N0000001N9+00331+99999098901ADDGF108991999999999999999999MW1901
0029028060999991908060620004+69100+027217FM-12+014999999V0203601N006219999999N0000001N9+00331+99999099031ADDGF106991999999999999999999
0029028060999991908060706004+69100+027217FM-12+014999999V0203401N008219999999N0000001N9+00061+99999099231ADDGF108991999999999999999999
0029028060999991908060713004+69100+027217FM-12+014999999V0203401N002119999999N0000001N9+00561+99999099321ADDGF108991999999999999999999
0029028060999991908060720004+69100+027217FM-12+014999999V0203601N006219999999N0000001N9+00721+99999099471ADDGF104991999999999999999999
0029028060999991908060806004+69100+027217FM-12+014999999V0200201N005119999999N0000001N9+00281+99999099521ADDGF106991999999999999999999
0029028060999991908060813004+69100+027217FM-12+014999999V0200901N002119999999N0000001N9+00891+99999099631ADDGF104991999999999999999999
0029028060999991908060820004+69100+027217FM-12+014999999V0201101N004119999999N0000001N9+00781+99999099721ADDGF100991999999999999999999
0029028060999991908060906004+69100+027217FM-12+014999999V0200201N004119999999N0000001N9+00611+99999099751ADDGF100991999999999999999999
0029028060999991908060913004+69100+027217FM-12+014999999V0202301N002119999999N0000001N9+01111+99999099801ADDGF104991999999999999999999
0029028060999991908060920004+69100+027217FM-12+014999999V0200901N004119999999N0000001N9+00891+99999099911ADDGF106991999999999999999999
0029028060999991908061006004+69100+027217FM-12+014999999V0200901N006219999999N0000001N9+00671+99999100191ADDGF108991999999999999999999
0029028060999991908061013004+69100+027217FM-12+014999999V0200901N004119999999N0000001N9+01061+99999100191ADDGF108991999999999999999999
0029028060999991908061020004+69100+027217FM-12+014999999V0200501N006219999999N0000001N9+00941+99999100381ADDGF108991999999999999999999
0029028060999991908061106004+69100+027217FM-12+014999999V0209991C000019999999N0000001N9+00891+99999100231ADDGF100991999999999999999999
0029028060999991908061113004+69100+027217FM-12+014999999V0202501N006219999999N0000001N9+01611+99999099981ADDGF106991999999999999999999
0029028060999991908061120004+69100+027217FM-12+014999999V0202501N009819999999N0000001N9+01501+99999099741ADDGF104991999999999999999999
0029028060999991908061206004+69100+027217FM-12+014999999V0201801N008219999999N0000001N9+01281+99999099511ADDGF106991999999999999999999
0029028060999991908061213004+69100+027217FM-12+014999999V0202301N011819999999N0000001N9+01941+99999099201ADDGF104991999999999999999999
0029028060999991908061220004+69100+027217FM-12+014999999V0202301N018019999999N0000001N9+01721+99999099071ADDGF108991999999999999999999
0029028060999991908061306004+69100+027217FM-12+014999999V0202501N011819999999N0000001N9+01501+99999098941ADDGF108991999999999999999999
0029028060999991908061313004+69100+027217FM-12+014999999V0202501N027819999999N0000001N9+01721+99999098831ADDGF108991999999999999999999
0029028060999991908061320004+69100+027217FM-12+014999999V0202301N020119999999N0000001N9+01441+99999098901ADDGF108991999999999999999999
0029028060999991908061406004+69100+027217FM-12+014999999V0201801N009819999999N0000001N9+01501+99999098841ADDGF108991999999999999999999
0029028060999991908061413004+69100+027217FM-12+014999999V0202001N018019999999N0000001N9+01561+99999098781ADDGF108991999999999999999999
0029028060999991908061420004+69100+027217FM-12+014999999V0202001N022119999999N0000001N9+01561+99999098461ADDGF108991999999999999999999
0029028060999991908061506004+69100+027217FM-12+014999999V0200901N006219999999N0000001N9+01281+99999098181ADDGF108991999999999999999999
0035028060999991908061513004+69100+027217FM-12+014999999V0201601N009819999999N0000001N9+01281+99999097631ADDGF108991999999999999999999MW1621
0029028060999991908061520004+69100+027217FM-12+014999999V0202301N018019999999N0000001N9+01221+99999097661ADDGF106991999999999999999999
0029028060999991908061606004+69100+027217FM-12+014999999V0202301N009819999999N0000001N9+00781+99999098391ADDGF108991999999999999999999
0029028060999991908061613004+69100+027217FM-12+014999999V0202501N013919999999N0000001N9+01171+99999098631ADDGF108991999999999999999999
0029028060999991908061620004+69100+027217FM-12+014999999V0202301N008219999999N0000001N9+01331+99999098701ADDGF106991999999999999999999
0029028060999991908061706004+69100+027217FM-12+014999999V0202301N008219999999N0000001N9+01171+99999098561ADDGF108991999999999999999999
0035028060999991908061713004+69100+027217FM-12+014999999V0202701N009819999999N0000001N9+01171+99999098301ADDGF108991999999999999999999MW1621
0035028060999991908061720004+69100+027217FM-12+014999999V0202501N008219999999N0000001N9+01001+99999098631ADDGF108991999999999999999999MW1621
0029028060999991908061806004+69100+027217FM-12+014999999V0202301N004119999999N0000001N9+01001+99999099221ADDGF100991999999999999999999
0029028060999991908061813004+69100+027217FM-12+014999999V0200501N004119999999N0000001N9+01391+99999099521ADDGF106991999999999999999999
0029028060999991908061820004+69100+027217FM-12+014999999V0200701N006219999999N0000001N9+01331+99999099401ADDGF104991999999999999999999
0035028060999991908061906004+69100+027217FM-12+014999999V0203601N006219999999N0000001N9+00781+99999098941ADDGF108991999999999999999999MW1621
0035028060999991908061913004+69100+027217FM-12+014999999V0200901N003119999999N0000001N9+01221+99999098421ADDGF108991999999999999999999MW1621
0035028060999991908061920004+69100+027217FM-12+014999999V0200901N002119999999N0000001N9+01001+99999097751ADDGF108991999999999999999999MW1621
0029028060999991908062006004+69100+027217FM-12+014999999V0203401N011819999999N0000001N9+00611+99999098911ADDGF108991999999999999999999
0029028060999991908062013004+69100+027217FM-12+014999999V0200901N002119999999N0000001N9+01281+99999099111ADDGF108991999999999999999999
0035028060999991908062020004+69100+027217FM-12+014999999V0200901N011819999999N0000001N9+00721+99999098961ADDGF108991999999999999999999MW1621
0035028060999991908062106004+69100+027217FM-12+014999999V0203601N015919999999N0000001N9+00221+99999098941ADDGF108991999999999999999999MW1721
0035028060999991908062113004+69100+027217FM-12+014999999V0203601N018019999999N0000001N9+00781+99999099351ADDGF108991999999999999999999MW1901
0029028060999991908062120004+69100+027217FM-12+014999999V0203401N004119999999N0000001N9+00721+99999999999ADDGF104991999999999999999999
0029028060999991908062206004+69100+027217FM-12+014999999V0202701N006219999999N0000001N9+00781+99999100281ADDGF106991999999999999999999
0029028060999991908062213004+69100+027217FM-12+014999999V0202501N008219999999N0000001N9+01281+99999100261ADDGF104991999999999999999999
0029028060999991908062220004+69100+027217FM-12+014999999V0203601N001019999999N0000001N9+01061+99999100391ADDGF106991999999999999999999
0029028060999991908062306004+69100+027217FM-12+014999999V0202301N006219999999N0000001N9+01281+99999100601ADDGF100991999999999999999999
0029028060999991908062313004+69100+027217FM-12+014999999V0202501N011819999999N0000001N9+01941+99999100301ADDGF100991999999999999999999
0029028060999991908062320004+69100+027217FM-12+014999999V0202301N008219999999N0000001N9+02221+99999100071ADDGF100991999999999999999999
0029028060999991908062406004+69100+027217FM-12+014999999V0202301N008219999999N0000001N9+01501+99999099961ADDGF108991999999999999999999
0035028060999991908062413004+69100+027217FM-12+014999999V0202001N011819999999N0000001N9+01831+99999099751ADDGF108991999999999999999999MW1621
0035028060999991908062420004+69100+027217FM-12+014999999V0202501N009819999999N0000001N9+01831+99999099751ADDGF104991999999999999999999MW1131
0029028060999991908062506004+69100+027217FM-12+014999999V0209991C000019999999N0000001N9+01391+99999099721ADDGF104991999999999999999999
0029028060999991908062513004+69100+027217FM-12+014999999V0202501N009819999999N0000001N9+01561+99999099561ADDGF104991999999999999999999
0035028060999991908062520004+69100+027217FM-12+014999999V0203201N002119999999N0000001N9+01501+99999099461ADDGF108991999999999999999999MW1621
0029028060999991908062606004+69100+027217FM-12+014999999V0200901N004119999999N0000001N9+01061+99999099041ADDGF104991999999999999999999
0035028060999991908062613004+69100+027217FM-12+014999999V0202301N002119999999N0000001N9+01671+99999098881ADDGF108991999999999999999999MW1641
0035028060999991908062620004+69100+027217FM-12+014999999V0200501N004119999999N0000001N9+01171+99999099081ADDGF108991999999999999999999MW1641
0035028060999991908062706004+69100+027217FM-12+014999999V0203601N011819999999N0000001N9+00441+99999099661ADDGF108991999999999999999999MW1621
0029028060999991908062713004+69100+027217FM-12+014999999V0203601N001019999999N0000001N9+01171+99999099761ADDGF108991999999999999999999
0029028060999991908062720004+69100+027217FM-12+014999999V0203601N004119999999N0000001N9+01281+99999099711ADDGF104991999999999999999999
0035028060999991908062806004+69100+027217FM-12+014999999V0201801N013919999999N0000001N9+00721+99999098791ADDGF108991999999999999999999MW1621
0035028060999991908062813004+69100+027217FM-12+014999999V0202001N008219999999N0000001N9+01441+99999098671ADDGF108991999999999999999999MW1621
0029028060999991908062820004+69100+027217FM-12+014999999V0203401N009819999999N0000001N9+00721+99999099031ADDGF108991999999999999999999
0029028060999991908062906004+69100+027217FM-12+014999999V0203601N011819999999N0000001N9+00441+99999099831ADDGF108991999999999999999999
0029028060999991908062913004+69100+027217FM-12+014999999V0203601N018019999999N0000001N9+00671+99999100141ADDGF108991999999999999999999
0029028060999991908062920004+69100+027217FM-12+014999999V0203601N011819999999N0000001N9+00561+99999100341ADDGF106991999999999999999999
0029028060999991908063006004+69100+027217FM-12+014999999V0200201N008219999999N0000001N9+00561+99999100401ADDGF108991999999999999999999
0029028060999991908063013004+69100+027217FM-12+014999999V0200201N011819999999N0000001N9+01061+99999100471ADDGF108991999999999999999999
0029028060999991908063020004+69100+027217FM-12+014999999V0203401N009819999999N0000001N9+00831+99999100471ADDGF108991999999999999999999
0029028060999991908070106004+69100+027217FM-12+014999999V0203601N009819999999N0000001N9+00501+99999100601ADDGF108991999999999999999999
0029028060999991908070113004+69100+027217FM-12+014999999V0200501N014919999999N0000001N9+00941+99999100631ADDGF104991999999999999999999
0029028060999991908070120004+69100+027217FM-12+014999999V0200501N005119999999N0000001N9+00501+99999100821ADDGF104991999999999999999999
0029028060999991908070206004+69100+027217FM-12+014999999V0200201N008219999999N0000001N9+00441+99999100561ADDGF104991999999999999999999
0029028060999991908070213004+69100+027217FM-12+014999999V0200201N018019999999N0000001N9+01001+99999100641ADDGF100991999999999999999999
0029028060999991908070220004+69100+027217FM-12+014999999V0200501N018019999999N0000001N9+00781+99999100361ADDGF100991999999999999999999
0029028060999991908070306004+69100+027217FM-12+014999999V0203601N020119999999N0000001N9+00391+99999100231ADDGF104991999999999999999999
0029028060999991908070313004+69100+027217FM-12+014999999V0200501N024219999999N0000001N9+00781+99999100141ADDGF108991999999999999999999
0035028060999991908070320004+69100+027217FM-12+014999999V0200501N027819999999N0000001N9+00331+99999099921ADDGF108991999999999999999999MW1901
0029028060999991908070406004+69100+027217FM-12+014999999V0203601N020119999999N0000001N9+00391+99999100021ADDGF104991999999999999999999
0029028060999991908070413004+69100+027217FM-12+014999999V0200501N024219999999N0000001N9+01001+99999099981ADDGF108991999999999999999999
0029028060999991908070420004+69100+027217FM-12+014999999V0200501N015919999999N0000001N9+00941+99999100191ADDGF108991999999999999999999
0029028060999991908070506004+69100+027217FM-12+014999999V0200501N013919999999N0000001N9+00441+99999100061ADDGF108991999999999999999999
0029028060999991908070513004+69100+027217FM-12+014999999V0200901N011819999999N0000001N9+01001+99999099841ADDGF108991999999999999999999
0029028060999991908070520004+69100+027217FM-12+014999999V0200901N020119999999N0000001N9+00611+99999099821ADDGF108991999999999999999999
0029028060999991908070606004+69100+027217FM-12+014999999V0200501N011819999999N0000001N9+00391+99999099741ADDGF100991999999999999999999
0029028060999991908070613004+69100+027217FM-12+014999999V0200501N015919999999N0000001N9+00831+99999099661ADDGF100991999999999999999999
0029028060999991908070620004+69100+027217FM-12+014999999V0200901N009819999999N0000001N9+00831+99999099661ADDGF100991999999999999999999
0029028060999991908070706004+69100+027217FM-12+014999999V0201401N008219999999N0000001N9+00781+99999099311ADDGF100991999999999999999999
0029028060999991908070713004+69100+027217FM-12+014999999V0202301N008219999999N0000001N9+01501+99999099391ADDGF100991999999999999999999
0029028060999991908070720004+69100+027217FM-12+014999999V0200501N011819999999N0000001N9+01281+99999099431ADDGF100991999999999999999999
0029028060999991908070806004+69100+027217FM-12+014999999V0203601N008219999999N0000001N9+00891+99999099471ADDGF108991999999999999999999
0029028060999991908070813004+69100+027217FM-12+014999999V0200501N006219999999N0000001N9+01111+99999099191ADDGF108991999999999999999999
0029028060999991908070820004+69100+027217FM-12+014999999V0203201N004119999999N0000001N9+01111+99999098941ADDGF108991999999999999999999
0029028060999991908070906004+69100+027217FM-12+014999999V0202701N004119999999N0000001N9+01001+99999098761ADDGF108991999999999999999999
0029028060999991908070913004+69100+027217FM-12+014999999V0203201N004119999999N0000001N9+01221+99999098701ADDGF104991999999999999999999
0029028060999991908070920004+69100+027217FM-12+014999999V0203601N008219999999N0000001N9+01111+99999098551ADDGF100991999999999999999999
0029028060999991908071006004+69100+027217FM-12+014999999V0202701N008219999999N0000001N9+00831+99999098501ADDGF108991999999999999999999
0029028060999991908071013004+69100+027217FM-12+014999999V0203201N009819999999N0000001N9+01111+99999098621ADDGF108991999999999999999999
0029028060999991908071020004+69100+027217FM-12+014999999V0203201N004119999999N0000001N9+00831+99999098521ADDGF108991999999999999999999
0029028060999991908071106004+69100+027217FM-12+014999999V0202701N006219999999N0000001N9+00781+99999098471ADDGF108991999999999999999999
0035028060999991908071113004+69100+027217FM-12+014999999V0203601N004119999999N0000001N9+01001+99999098561ADDGF108991999999999999999999MW1601
0029028060999991908071120004+69100+027217FM-12+014999999V0203201N004119999999N0000001N9+00831+99999098661ADDGF108991999999999999999999
0029028060999991908071206004+69100+027217FM-12+014999999V0200901N002119999999N0000001N9+00941+99999098641ADDGF104991999999999999999999
0035028060999991908071213004+69100+027217FM-12+014999999V0202301N002119999999N0000001N9+01221+99999098501ADDGF108991999999999999999999MW1621
0029028060999991908071220004+69100+027217FM-12+014999999V0200501N011819999999N0000001N9+01061+99999098711ADDGF108991999999999999999999
0029028060999991908071306004+69100+027217FM-12+014999999V0200501N009819999999N0000001N9+00781+99999098951ADDGF108991999999999999999999
0035028060999991908071313004+69100+027217FM-12+014999999V0200901N008219999999N0000001N9+01061+99999098981ADDGF108991999999999999999999MW1621
0029028060999991908071320004+69100+027217FM-12+014999999V0200901N006219999999N0000001N9+01061+99999099181ADDGF104991999999999999999999
0029028060999991908071406004+69100+027217FM-12+014999999V0200501N004119999999N0000001N9+00941+99999099501ADDGF104991999999999999999999
0029028060999991908071413004+69100+027217FM-12+014999999V0200701N006219999999N0000001N9+01441+99999099581ADDGF104991999999999999999999
0029028060999991908071420004+69100+027217FM-12+014999999V0209991C000019999999N0000001N9+01391+99999099641ADDGF100991999999999999999999
0029028060999991908071506004+69100+027217FM-12+014999999V0200501N006219999999N0000001N9+01001+99999099681ADDGF100991999999999999999999
0029028060999991908071513004+69100+027217FM-12+014999999V0201801N003119999999N0000001N9+01671+99999099391ADDGF100991999999999999999999
0029028060999991908071520004+69100+027217FM-12+014999999V0201601N002119999999N0000001N9+01671+99999099031ADDGF100991999999999999999999
0029028060999991908071606004+69100+027217FM-12+014999999V0200901N004119999999N0000001N9+01061+99999098951ADDGF108991999999999999999999
0029028060999991908071613004+69100+027217FM-12+014999999V0201601N008219999999N0000001N9+01721+99999098761ADDGF108991999999999999999999
0029028060999991908071620004+69100+027217FM-12+014999999V0201801N008219999999N0000001N9+01721+99999098741ADDGF100991999999999999999999
0029028060999991908071706004+69100+027217FM-12+014999999V0202001N013919999999N0000001N9+01671+99999098821ADDGF108991999999999999999999
0029028060999991908071713004+69100+027217FM-12+014999999V0202301N013919999999N0000001N9+01611+99999098921ADDGF104991999999999999999999
0029028060999991908071720004+69100+027217FM-12+014999999V0202301N002119999999N0000001N9+01391+99999099161ADDGF104991999999999999999999
0035028060999991908071806004+69100+027217FM-12+014999999V0203601N002119999999N0000001N9+01171+99999099631ADDGF108991999999999999999999MW1621
0035028060999991908071813004+69100+027217FM-12+014999999V0202301N013919999999N0000001N9+01891+99999099631ADDGF108991999999999999999999MW1621
0029028060999991908071820004+69100+027217FM-12+014999999V0200501N011819999999N0000001N9+01721+99999099831ADDGF107991999999999999999999
0029028060999991908071906004+69100+027217FM-12+014999999V0202301N008219999999N0000001N9+01611+99999099801ADDGF108991999999999999999999
0035028060999991908071913004+69100+027217FM-12+014999999V0202301N015919999999N0000001N9+01831+99999099741ADDGF108991999999999999999999MW1621
0035028060999991908071920004+69100+027217FM-12+014999999V0200501N011819999999N0000001N9+01221+99999099391ADDGF108991999999999999999999MW1621
0029028060999991908072006004+69100+027217FM-12+014999999V0200501N009819999999N0000001N9+00941+99999099801ADDGF108991999999999999999999
0029028060999991908072013004+69100+027217FM-12+014999999V0202301N008219999999N0000001N9+01501+99999099831ADDGF104991999999999999999999
0029028060999991908072020004+69100+027217FM-12+014999999V0202301N009819999999N0000001N9+01561+99999099831ADDGF104991999999999999999999
0029028060999991908072106004+69100+027217FM-12+014999999V0200501N009819999999N0000001N9+01111+99999099391ADDGF104991999999999999999999
0029028060999991908072113004+69100+027217FM-12+014999999V0200501N005119999999N0000001N9+01111+99999098881ADDGF108991999999999999999999
0029028060999991908072120004+69100+027217FM-12+014999999V0203601N020119999999N0000001N9+00831+99999098391ADDGF108991999999999999999999
0029028060999991908072206004+69100+027217FM-12+014999999V0203601N020119999999N0000001N9+00721+99999098901ADDGF108991999999999999999999
0029028060999991908072213004+69100+027217FM-12+014999999V0203201N009819999999N0000001N9+01281+99999099621ADDGF108991999999999999999999
0029028060999991908072220004+69100+027217FM-12+014999999V0202901N008219999999N0000001N9+01001+99999099391ADDGF108991999999999999999999
0029028060999991908072306004+69100+027217FM-12+014999999V0202701N009819999999N0000001N9+01221+99999099941ADDGF104991999999999999999999
0029028060999991908072313004+69100+027217FM-12+014999999V0202301N011819999999N0000001N9+01611+99999100161ADDGF100991999999999999999999
0029028060999991908072320004+69100+027217FM-12+014999999V0209991C000019999999N0000001N9+01891+99999100121ADDGF100991999999999999999999
0029028060999991908072406004+69100+027217FM-12+014999999V0202701N009819999999N0000001N9+01501+99999100161ADDGF104991999999999999999999
0029028060999991908072413004+69100+027217FM-12+014999999V0202301N009819999999N0000001N9+02221+99999100301ADDGF104991999999999999999999
0029028060999991908072420004+69100+027217FM-12+014999999V0201401N004119999999N0000001N9+01831+99999100301ADDGF104991999999999999999999
0029028060999991908072506004+69100+027217FM-12+014999999V0203601N008219999999N0000001N9+01501+99999100941ADDGF104991999999999999999999
0029028060999991908072513004+69100+027217FM-12+014999999V0200901N008219999999N0000001N9+02221+99999100911ADDGF108991999999999999999999
0029028060999991908072520004+69100+027217FM-12+014999999V0200901N002119999999N0000001N9+01721+99999100911ADDGF108991999999999999999999
0029028060999991908072606004+69100+027217FM-12+014999999V0202301N008219999999N0000001N9+01721+99999100871ADDGF104991999999999999999999
0029028060999991908072613004+69100+027217FM-12+014999999V0202301N009819999999N0000001N9+02501+99999100761ADDGF100991999999999999999999
0029028060999991908072620004+69100+027217FM-12+014999999V0202301N001019999999N0000001N9+02391+99999100831ADDGF100991999999999999999999
0029028060999991908072706004+69100+027217FM-12+014999999V0202501N011819999999N0000001N9+01891+99999100601ADDGF100991999999999999999999
0029028060999991908072713004+69100+027217FM-12+014999999V0202301N011819999999N0000001N9+02391+99999100541ADDGF100991999999999999999999
0029028060999991908072720004+69100+027217FM-12+014999999V0209991C000019999999N0000001N9+02331+99999100501ADDGF100991999999999999999999
0029028060999991908072806004+69100+027217FM-12+014999999V0202701N006219999999N0000001N9+01941+99999100711ADDGF100991999999999999999999
0029028060999991908072813004+69100+027217FM-12+014999999V0202701N004119999999N0000001N9+02831+99999100391ADDGF100991999999999999999999
0035028060999991908072820004+69100+027217FM-12+014999999V0202701N009819999999N0000001N9+01721+99999100321ADDGF108991999999999999999999MW1621
0029028060999991908072906004+69100+027217FM-12+014999999V0202501N004119999999N0000001N9+01781+99999100071ADDGF100991999999999999999999
0035028060999991908072913004+69100+027217FM-12+014999999V0202301N013919999999N0000001N9+02611+99999099721ADDGF106991999999999999999999MW1051
0029028060999991908072920004+69100+027217FM-12+014999999V0202701N006219999999N0000001N9+02001+99999099481ADDGF106991999999999999999999
0029028060999991908073006004+69100+027217FM-12+014999999V0202701N004119999999N0000001N9+01501+99999099301ADDGF108991999999999999999999
0035028060999991908073013004+69100+027217FM-12+014999999V0202701N020119999999N0000001N9+01171+99999099671ADDGF108991999999999999999999MW1621
0029028060999991908073020004+69100+027217FM-12+014999999V0202701N002119999999N0000001N9+01111+99999099591ADDGF104991999999999999999999
0029028060999991908073106004+69100+027217FM-12+014999999V0200901N006219999999N0000001N9+01171+99999099101ADDGF108991999999999999999999
0029028060999991908073113004+69100+027217FM-12+014999999V0200701N008219999999N0000001N9+01611+99999098661ADDGF108991999999999999999999
0035028060999991908073120004+69100+027217FM-12+014999999V0209991C000019999999N0000001N9+01281+99999098381ADDGF108991999999999999999999MW1621
0035028060999991908080106004+69100+027217FM-12+014999999V0202301N011819999999N0000001N9+01441+99999098501ADDGF108991999999999999999999MW1601
0029028060999991908080113004+69100+027217FM-12+014999999V0200901N008219999999N0000001N9+01831+99999098761ADDGF108991999999999999999999
0029028060999991908080120004+69100+027217FM-12+014999999V0200701N006219999999N0000001N9+01561+99999098871ADDGF108991999999999999999999
0035028060999991908080206004+69100+027217FM-12+014999999V0202701N013919999999N0000001N9+01281+99999099511ADDGF108991999999999999999999MW1601
0029028060999991908080213004+69100+027217FM-12+014999999V0202501N004119999999N0000001N9+01561+99999099991ADDGF106991999999999999999999
0029028060999991908080220004+69100+027217FM-12+014999999V0200901N002119999999N0000001N9+01441+99999100191ADDGF100991999999999999999999
0029028060999991908080306004+69100+027217FM-12+014999999V0200501N009819999999N0000001N9+01061+99999100151ADDGF108991999999999999999999
0029028060999991908080313004+69100+027217FM-12+014999999V0200701N013919999999N0000001N9+01171+99999099901ADDGF108991999999999999999999
0029028060999991908080320004+69100+027217FM-12+014999999V0200901N015919999999N0000001N9+01061+99999099781ADDGF108991999999999999999999
0035028060999991908080406004+69100+027217FM-12+014999999V0200701N006219999999N0000001N9+01061+99999099581ADDGF108991999999999999999999MW1601
0029028060999991908080413004+69100+027217FM-12+014999999V0200901N006219999999N0000001N9+01671+99999099461ADDGF104991999999999999999999
0029028060999991908080420004+69100+027217FM-12+014999999V0200501N002119999999N0000001N9+01561+99999099481ADDGF104991999999999999999999
0029028060999991908080506004+69100+027217FM-12+014999999V0200501N006219999999N0000001N9+01111+99999099581ADDGF108991999999999999999999
0029028060999991908080513004+69100+027217FM-12+014999999V0200901N006219999999N0000001N9+01721+99999099581ADDGF104991999999999999999999
0029028060999991908080520004+69100+027217FM-12+014999999V0200501N002119999999N0000001N9+01501+99999099561ADDGF104991999999999999999999
0029028060999991908080606004+69100+027217FM-12+014999999V0209991C000019999999N0000001N9+01331+99999099621ADDGF104991999999999999999999
0029028060999991908080613004+69100+027217FM-12+014999999V0200901N008219999999N0000001N9+01831+99999099541ADDGF104991999999999999999999
0029028060999991908080620004+69100+027217FM-12+014999999V0209991C000019999999N0000001N9+01501+99999099301ADDGF100991999999999999999999
0029028060999991908080706004+69100+027217FM-12+014999999V0209991C000019999999N0000001N9+01501+99999099241ADDGF100991999999999999999999
0029028060999991908080713004+69100+027217FM-12+014999999V0201401N008219999999N0000001N9+02171+99999099161ADDGF100991999999999999999999
0029028060999991908080720004+69100+027217FM-12+014999999V0209991C000019999999N0000001N9+01441+99999098991ADDGF100991999999999999999999
0029028060999991908080806004+69100+027217FM-12+014999999V0200501N008219999999N0000001N9+01331+99999099191ADDGF104991999999999999999999
0029028060999991908080813004+69100+027217FM-12+014999999V0209991C000019999999N0000001N9+02221+99999099321ADDGF106991999999999999999999
0029028060999991908080820004+69100+027217FM-12+014999999V0209991C000019999999N0000001N9+01501+99999099181ADDGF106991999999999999999999
0029028060999991908080906004+69100+027217FM-12+014999999V0200501N002119999999N0000001N9+01441+99999099161ADDGF104991999999999999999999
0029028060999991908080913004+69100+027217FM-12+014999999V0201401N008219999999N0000001N9+02221+99999099161ADDGF100991999999999999999999
0029028060999991908080920004+69100+027217FM-12+014999999V0209991C000019999999N0000001N9+01891+99999099071ADDGF104991999999999999999999
0029028060999991908081006004+69100+027217FM-12+014999999V0201801N003119999999N0000001N9+01671+99999099321ADDGF106991999999999999999999
0029028060999991908081013004+69100+027217FM-12+014999999V0202001N005119999999N0000001N9+02561+99999099271ADDGF106991999999999999999999
0029028060999991908081020004+69100+027217FM-12+014999999V0202301N001019999999N0000001N9+01891+99999099941ADDGF106991999999999999999999
0029028060999991908081106004+69100+027217FM-12+014999999V0209991C000019999999N0000001N9+01671+99999099681ADDGF100991999999999999999999
0029028060999991908081113004+69100+027217FM-12+014999999V0201801N009819999999N0000001N9+02611+99999100191ADDGF106991999999999999999999
0029028060999991908081120004+69100+027217FM-12+014999999V0201401N002119999999N0000001N9+01781+99999100121ADDGF100991999999999999999999
0029028060999991908081206004+69100+027217FM-12+014999999V0209991C000019999999N0000001N9+01501+99999100351ADDGF106991999999999999999999
0029028060999991908081213004+69100+027217FM-12+014999999V0202301N008219999999N0000001N9+02391+99999100741ADDGF106991999999999999999999
0029028060999991908081220004+69100+027217FM-12+014999999V0209991C000019999999N0000001N9+01781+99999100751ADDGF100991999999999999999999
0029028060999991908081306004+69100+027217FM-12+014999999V0201801N002119999999N0000001N9+01391+99999100621ADDGF104991999999999999999999
0029028060999991908081313004+69100+027217FM-12+014999999V0202301N008219999999N0000001N9+02001+99999100421ADDGF106991999999999999999999
0029028060999991908081320004+69100+027217FM-12+014999999V0209991C000019999999N0000001N9+01501+99999100741ADDGF100991999999999999999999
0029028060999991908081406004+69100+027217FM-12+014999999V0203601N004119999999N0000001N9+01281+99999100631ADDGF100991999999999999999999
0029028060999991908081413004+69100+027217FM-12+014999999V0201401N008219999999N0000001N9+02611+99999100501ADDGF100991999999999999999999
0029028060999991908081420004+69100+027217FM-12+014999999V0201801N002119999999N0000001N9+01281+99999100551ADDGF100991999999999999999999
0029028060999991908081506004+69100+027217FM-12+014999999V0201401N002119999999N0000001N9+01001+99999100501ADDGF100991999999999999999999
0029028060999991908081513004+69100+027217FM-12+014999999V0202301N006219999999N0000001N9+02441+99999100151ADDGF106991999999999999999999
0029028060999991908081520004+69100+027217FM-12+014999999V0201401N001019999999N0000001N9+01331+99999100191ADDGF100991999999999999999999
0029028060999991908081606004+69100+027217FM-12+014999999V0201801N004119999999N0000001N9+01501+99999099681ADDGF100991999999999999999999
0029028060999991908081613004+69100+027217FM-12+014999999V0202301N004119999999N0000001N9+02221+99999099701ADDGF106991999999999999999999
0035028060999991908081620004+69100+027217FM-12+014999999V0203601N002119999999N0000001N9+01331+99999099081ADDGF108991999999999999999999MW1621
0035028060999991908081706004+69100+027217FM-12+014999999V0200501N008219999999N0000001N9+01221+99999099271ADDGF108991999999999999999999MW1621
0029028060999991908081713004+69100+027217FM-12+014999999V0203601N002119999999N0000001N9+01501+99999099271ADDGF108991999999999999999999
0035028060999991908081720004+69100+027217FM-12+014999999V0203601N001019999999N0000001N9+01221+99999099061ADDGF108991999999999999999999MW1621
0029028060999991908081806004+69100+027217FM-12+014999999V0202501N006219999999N0000001N9+01061+99999098631ADDGF108991999999999999999999
0029028060999991908081813004+69100+027217FM-12+014999999V0203601N009819999999N0000001N9+01171+99999098521ADDGF108991999999999999999999
0029028060999991908081820004+69100+027217FM-12+014999999V0203601N006219999999N0000001N9+01281+99999098681ADDGF104991999999999999999999
0029028060999991908081906004+69100+027217FM-12+014999999V0203601N013919999999N0000001N9+00671+99999098901ADDGF106991999999999999999999
0035028060999991908081913004+69100+027217FM-12+014999999V0203601N027819999999N0000001N9+00831+99999098991ADDGF108991999999999999999999MW1901
0029028060999991908081920004+69100+027217FM-12+014999999V0203601N020119999999N0000001N9+00441+99999099541ADDGF108991999999999999999999
0029028060999991908082006004+69100+027217FM-12+014999999V0203601N011819999999N0000001N9+00501+99999099701ADDGF108991999999999999999999
0029028060999991908082013004+69100+027217FM-12+014999999V0203601N013919999999N0000001N9+00831+99999099701ADDGF104991999999999999999999
0029028060999991908082020004+69100+027217FM-12+014999999V0203601N004119999999N0000001N9+00671+99999099741ADDGF106991999999999999999999
0029028060999991908082106004+69100+027217FM-12+014999999V0202501N008219999999N0000001N9+00561+99999099481ADDGF108991999999999999999999
0035028060999991908082113004+69100+027217FM-12+014999999V0202701N008219999999N0000001N9+01001+99999099421ADDGF108991999999999999999999MW1621
0029028060999991908082120004+69100+027217FM-12+014999999V0203601N008219999999N0000001N9+00441+99999099701ADDGF106991999999999999999999
0029028060999991908082206004+69100+027217FM-12+014999999V0202501N004119999999N0000001N9+00391+99999099751ADDGF100991999999999999999999
0029028060999991908082213004+69100+027217FM-12+014999999V0202501N013919999999N0000001N9+00941+99999099301ADDGF108991999999999999999999
0029028060999991908082220004+69100+027217FM-12+014999999V0202301N006219999999N0000001N9+00831+99999098721ADDGF108991999999999999999999
0029028060999991908082306004+69100+027217FM-12+014999999V0203201N008219999999N0000001N9+00781+99999098071ADDGF108991999999999999999999
0035028060999991908082313004+69100+027217FM-12+014999999V0203601N027819999999N0000001N9+00831+99999098671ADDGF108991999999999999999999MW1891
0029028060999991908082320004+69100+027217FM-12+014999999V0200201N015919999999N0000001N9+00281+99999098991ADDGF106991999999999999999999
0029028060999991908082406004+69100+027217FM-12+014999999V0203201N002119999999N0000001N9+00221+99999098961ADDGF108991999999999999999999
0029028060999991908082413004+69100+027217FM-12+014999999V0202701N011819999999N0000001N9+00561+99999098671ADDGF108991999999999999999999
0035028060999991908082420004+69100+027217FM-12+014999999V0202701N002119999999N0000001N9+00441+99999098311ADDGF108991999999999999999999MW1621
0029028060999991908082506004+69100+027217FM-12+014999999V0203601N006219999999N0000001N9+00391+99999098421ADDGF104991999999999999999999
0029028060999991908082513004+69100+027217FM-12+014999999V0203601N006219999999N0000001N9+00781+99999098601ADDGF104991999999999999999999
0029028060999991908082520004+69100+027217FM-12+014999999V0203601N002119999999N0000001N9+00331+99999098641ADDGF100991999999999999999999
0029028060999991908082606004+69100+027217FM-12+014999999V0203601N009819999999N0000001N9+00391+99999098631ADDGF108991999999999999999999
0029028060999991908082613004+69100+027217FM-12+014999999V0202701N011819999999N0000001N9+00721+99999098671ADDGF108991999999999999999999
0029028060999991908082620004+69100+027217FM-12+014999999V0202701N004119999999N0000001N9+00441+99999098661ADDGF108991999999999999999999
0029028060999991908082706004+69100+027217FM-12+014999999V0202301N002119999999N0000001N9+00331+99999098581ADDGF100991999999999999999999
0029028060999991908082713004+69100+027217FM-12+014999999V0201601N004119999999N0000001N9+01001+99999098381ADDGF104991999999999999999999
0029028060999991908082720004+69100+027217FM-12+014999999V0200901N002119999999N0000001N9+00831+99999098031ADDGF108991999999999999999999
0029028060999991908082806004+69100+027217FM-12+014999999V0200501N002119999999N0000001N9+00721+99999097791ADDGF104991999999999999999999
0029028060999991908082813004+69100+027217FM-12+014999999V0200901N006219999999N0000001N9+01281+99999097621ADDGF106991999999999999999999
0029028060999991908082820004+69100+027217FM-12+014999999V0200901N011819999999N0000001N9+00831+99999097521ADDGF108991999999999999999999
0035028060999991908082906004+69100+027217FM-12+014999999V0200701N011819999999N0000001N9+00561+99999097861ADDGF108991999999999999999999MW1621
0029028060999991908082913004+69100+027217FM-12+014999999V0200501N013919999999N0000001N9+00501+99999098041ADDGF108991999999999999999999
0029028060999991908082920004+69100+027217FM-12+014999999V0200501N006219999999N0000001N9+00221+99999098101ADDGF108991999999999999999999
0029028060999991908083006004+69100+027217FM-12+014999999V0200501N008219999999N0000001N9+00221+99999098341ADDGF108991999999999999999999
0029028060999991908083013004+69100+027217FM-12+014999999V0203601N008219999999N0000001N9+00781+99999098431ADDGF108991999999999999999999
0029028060999991908083020004+69100+027217FM-12+014999999V0200501N002119999999N0000001N9+00501+99999098501ADDGF108991999999999999999999
0029028060999991908083106004+69100+027217FM-12+014999999V0209991C000019999999N0000001N9+00501+99999098231ADDGF108991999999999999999999
0029028060999991908083113004+69100+027217FM-12+014999999V0203601N008219999999N0000001N9+00781+99999098601ADDGF104991999999999999999999
0035028060999991908083120004+69100+027217FM-12+014999999V0209991C000019999999N0000001N9+00501+99999098481ADDGF108991999999999999999999MW1621
0029028060999991908090106004+69100+027217FM-12+014999999V0200501N008219999999N0000001N9+00391+99999098351ADDGF108991999999999999999999
0035028060999991908090113004+69100+027217FM-12+014999999V0200901N006219999999N0000001N9+00671+99999098551ADDGF108991999999999999999999MW1601
