0029028060999991909010106004+69100+027217FM-12+014999999V0202501N008219999999N0000001N9-00891+99999100021ADDGF108991999999999999999999
0029028060999991909010113004+69100+027217FM-12+014999999V0202501N003119999999N0000001N9-00941+99999099761ADDGF108991999999999999999999
0029028060999991909010120004+69100+027217FM-12+014999999V0209991C000019999999N0000001N9-01671+99999099711ADDGF100991999999999999999999
0029028060999991909010206004+69100+027217FM-12+014999999V0203601N002119999999N0000001N9-02441+99999099321ADDGF106991999999999999999999
0035028060999991909010213004+69100+027217FM-12+014999999V0200901N008219999999N0000001N9-00781+99999097821ADDGF108991999999999999999999MW1721
0035028060999991909010220004+69100+027217FM-12+014999999V0201601N011819999999N0000001N9-00281+99999097191ADDGF108991999999999999999999MW1721
0035028060999991909010306004+69100+027217FM-12+014999999V0201801N008219999999N0000001N9-00221+99999098061ADDGF108991999999999999999999MW1721
0029028060999991909010313004+69100+027217FM-12+014999999V0209991C000019999999N0000001N9-00501+99999097901ADDGF100991999999999999999999
0029028060999991909010320004+69100+027217FM-12+014999999V0209991C000019999999N0000001N9-00501+99999097311ADDGF104991999999999999999999
0029028060999991909010406004+69100+027217FM-12+014999999V0202501N002119999999N0000001N9-00501+99999097041ADDGF100991999999999999999999
0029028060999991909010413004+69100+027217FM-12+014999999V0202501N008219999999N0000001N9-00441+99999097261ADDGF100991999999999999999999
0029028060999991909010420004+69100+027217FM-12+014999999V0202901N004119999999N0000001N9-00501+99999097351ADDGF108991999999999999999999
0029028060999991909010506004+69100+027217FM-12+014999999V0202301N006219999999N0000001N9-00171+99999098031ADDGF100991999999999999999999
0035028060999991909010513004+69100+027217FM-12+014999999V0200901N011819999999N0000001N9-00561+99999098871ADDGF108991999999999999999999MW1721
0029028060999991909010520004+69100+027217FM-12+014999999V0209991C000019999999N0000001N9-00781+99999099711ADDGF104991999999999999999999
0029028060999991909010606004+69100+027217FM-12+014999999V0209991C000019999999N0000001N9-01281+99999099461ADDGF100991999999999999999999
0035028060999991909010613004+69100+027217FM-12+014999999V0200901N013919999999N0000001N9-01111+99999098741ADDGF108991999999999999999999MW1721
0035028060999991909010620004+69100+027217FM-12+014999999V0200901N008219999999N0000001N9-01001+99999098311ADDGF108991999999999999999999MW1721
0029028060999991909010706004+69100+027217FM-12+014999999V0209991C000019999999N0000001N9-01891+99999098021ADDGF100991999999999999999999
0035028060999991909010713004+69100+027217FM-12+014999999V0202501N002119999999N0000001N9-02391+99999098161ADDGF100991999999999999999999MW1481
0029028060999991909010720004+69100+027217FM-12+014999999V0202301N004119999999N0000001N9-01331+99999098081ADDGF104991999999999999999999
0029028060999991909010806004+69100+027217FM-12+014999999V0201801N002119999999N0000001N9-01441+99999098231ADDGF108991999999999999999999
0035028060999991909010813004+69100+027217FM-12+014999999V0202301N006219999999N0000001N9-01671+99999098301ADDGF104991999999999999999999MW1481
0029028060999991909010820004+69100+027217FM-12+014999999V0202901N004119999999N0000001N9-01611+99999098521ADDGF106991999999999999999999
0029028060999991909010906004+69100+027217FM-12+014999999V0209991C000019999999N0000001N9-01611+99999098431ADDGF108991999999999999999999
0029028060999991909010913004+69100+027217FM-12+014999999V0201801N002119999999N0000001N9-01831+99999097961ADDGF106991999999999999999999
0029028060999991909010920004+69100+027217FM-12+014999999V0202001N004119999999N0000001N9-01281+99999097191ADDGF106991999999999999999999
0029028060999991909011006004+69100+027217FM-12+014999999V0202501N024219999999N0000001N9-00391+99999095951ADDGF108991999999999999999999
0035028060999991909011013004+69100+027217FM-12+014999999V0202501N020119999999N0000001N9-00111+99999095991ADDGF108991999999999999999999MW1721
0029028060999991909011020004+69100+027217FM-12+014999999V0202001N008219999999N0000001N9-00281+99999095941ADDGF106991999999999999999999
0029028060999991909011106004+69100+027217FM-12+014999999V0202001N014919999999N0000001N9-00501+99999096151ADDGF106991999999999999999999
0029028060999991909011113004+69100+027217FM-12+014999999V0202001N029819999999N0000001N9-00221+99999095561ADDGF108991999999999999999999
0029028060999991909011120004+69100+027217FM-12+014999999V0202301N020119999999N0000001N9-00221+99999095381ADDGF100991999999999999999999
0029028060999991909011206004+69100+027217FM-12+014999999V0201801N009819999999N0000001N9-00281+99999095481ADDGF108991999999999999999999
0054028060999991909011213004+69100+027217FM-12+014999999V0201601N015919999999N0000001N9-00221+99999999999ADDGF108991999999999999999999MW1721EQDQ01 104673APOSLP
0035028060999991909011220004+69100+027217FM-12+014999999V0201601N027819999999N0000001N9-00281+99999095001ADDGF108991999999999999999999MW1721
0029028060999991909011306004+69100+027217FM-12+014999999V0202001N005119999999N0000001N9-01171+99999095951ADDGF100991999999999999999999
0035028060999991909011313004+69100+027217FM-12+014999999V0209991C000019999999N0000001N9-01891+99999096081ADDGF100991999999999999999999MW1481
0029028060999991909011320004+69100+027217FM-12+014999999V0209991C000019999999N0000001N9-02721+99999096231ADDGF100991999999999999999999
0029028060999991909011406004+69100+027217FM-12+014999999V0209991C000019999999N0000001N9-03111+99999096221ADDGF100991999999999999999999
0035028060999991909011413004+69100+027217FM-12+014999999V0202301N004119999999N0000001N9-02281+99999097031ADDGF100991999999999999999999MW1481
0029028060999991909011420004+69100+027217FM-12+014999999V0202301N008219999999N0000001N9-01831+99999097551ADDGF108991999999999999999999
0029028060999991909011506004+69100+027217FM-12+014999999V0202001N009819999999N0000001N9-01281+99999098261ADDGF106991999999999999999999
0029028060999991909011513004+69100+027217FM-12+014999999V0202301N011819999999N0000001N9-00671+99999098441ADDGF108991999999999999999999
0029028060999991909011520004+69100+027217FM-12+014999999V0200901N006219999999N0000001N9-00941+99999098681ADDGF108991999999999999999999
0029028060999991909011606004+69100+027217FM-12+014999999V0202701N014919999999N0000001N9-01001+99999098631ADDGF108991999999999999999999
0035028060999991909011613004+69100+027217FM-12+014999999V0201101N015919999999N0000001N9-01061+99999098581ADDGF108991999999999999999999MW1721
0029028060999991909011620004+69100+027217FM-12+014999999V0200901N002119999999N0000001N9-00781+99999098041ADDGF108991999999999999999999
0029028060999991909011706004+69100+027217FM-12+014999999V0202301N005119999999N0000001N9-01171+99999097901ADDGF108991999999999999999999
0029028060999991909011713004+69100+027217FM-12+014999999V0202701N011819999999N0000001N9-01221+99999098511ADDGF100991999999999999999999
0029028060999991909011720004+69100+027217FM-12+014999999V0201801N003119999999N0000001N9-00501+99999098631ADDGF108991999999999999999999
0029028060999991909011806004+69100+027217FM-12+014999999V0202301N018019999999N0000001N9-00221+99999098001ADDGF108991999999999999999999
0029028060999991909011813004+69100+027217FM-12+014999999V0202001N024219999999N0000001N9-00331+99999097421ADDGF108991999999999999999999
0035028060999991909011820004+69100+027217FM-12+014999999V0201401N020119999999N0000001N9-00391+99999096941ADDGF108991999999999999999999MW1721
0029028060999991909011906004+69100+027217FM-12+014999999V0201801N003119999999N0000001N9-00501+99999097201ADDGF100991999999999999999999
0035028060999991909011913004+69100+027217FM-12+014999999V0201801N003119999999N0000001N9-00331+99999097141ADDGF108991999999999999999999MW1721
0029028060999991909011920004+69100+027217FM-12+014999999V0201801N009819999999N0000001N9-00111+99999097701ADDGF100991999999999999999999
0029028060999991909012006004+69100+027217FM-12+014999999V0202001N015919999999N0000001N9-00221+99999098111ADDGF106991999999999999999999
0029028060999991909012013004+69100+027217FM-12+014999999V0201801N002119999999N0000001N9-00561+99999098321ADDGF100991999999999999999999
0029028060999991909012020004+69100+027217FM-12+014999999V0202001N006219999999N0000001N9-00501+99999098801ADDGF104991999999999999999999
0029028060999991909012106004+69100+027217FM-12+014999999V0202301N002119999999N0000001N9-01001+99999099431ADDGF100991999999999999999999
0029028060999991909012113004+69100+027217FM-12+014999999V0209991C000019999999N0000001N9-00671+99999099181ADDGF106991999999999999999999
0029028060999991909012120004+69100+027217FM-12+014999999V0202001N015919999999N0000001N9+00001+99999098081ADDGF108991999999999999999999
0029028060999991909012206004+69100+027217FM-12+014999999V0202301N011819999999N0000001N9+00001+99999097821ADDGF100991999999999999999999
0029028060999991909012213004+69100+027217FM-12+014999999V0202701N018019999999N0000001N9-00061+99999097501ADDGF104991999999999999999999
0029028060999991909012220004+69100+027217FM-12+014999999V0202501N024219999999N0000001N9-00061+99999097231ADDGF100991999999999999999999
0029028060999991909012306004+69100+027217FM-12+014999999V0202301N018019999999N0000001N9-00171+99999097711ADDGF100991999999999999999999
0029028060999991909012313004+69100+027217FM-12+014999999V0202901N011819999999N0000001N9-00281+99999098311ADDGF100991999999999999999999
0029028060999991909012320004+69100+027217FM-12+014999999V0202501N020119999999N0000001N9-00391+99999099071ADDGF100991999999999999999999
0029028060999991909012406004+69100+027217FM-12+014999999V0202701N003119999999N0000001N9-01061+99999099471ADDGF100991999999999999999999
0035028060999991909012413004+69100+027217FM-12+014999999V0201801N001019999999N0000001N9-01671+99999099261ADDGF108991999999999999999999MW1721
0029028060999991909012420004+69100+027217FM-12+014999999V0202001N005119999999N0000001N9-01171+99999099061ADDGF100991999999999999999999
0029028060999991909012506004+69100+027217FM-12+014999999V0202701N002119999999N0000001N9-01561+99999099741ADDGF106991999999999999999999
0029028060999991909012513004+69100+027217FM-12+014999999V0202701N001019999999N0000001N9-01171+99999100551ADDGF100991999999999999999999
0029028060999991909012520004+69100+027217FM-12+014999999V0209991C000019999999N0000001N9-01611+99999100881ADDGF104991999999999999999999
0029028060999991909012606004+69100+027217FM-12+014999999V0202701N003119999999N0000001N9-01061+99999100421ADDGF106991999999999999999999
0029028060999991909012613004+69100+027217FM-12+014999999V0202001N003119999999N0000001N9-00721+99999100081ADDGF108991999999999999999999
0029028060999991909012620004+69100+027217FM-12+014999999V0202301N014919999999N0000001N9-00721+99999099941ADDGF102991999999999999999999
0029028060999991909012706004+69100+027217FM-12+014999999V0202701N008219999999N0000001N9-01061+99999100041ADDGF104991999999999999999999
0029028060999991909012713004+69100+027217FM-12+014999999V0202301N003119999999N0000001N9-00831+99999100561ADDGF106991999999999999999999
0029028060999991909012720004+69100+027217FM-12+014999999V0202701N009819999999N0000001N9-00671+99999099671ADDGF107991999999999999999999
0029028060999991909012806004+69100+027217FM-12+014999999V0202001N018019999999N0000001N9+00111+99999098981ADDGF108991999999999999999999
0029028060999991909012813004+69100+027217FM-12+014999999V0202001N014919999999N0000001N9+00331+99999098991ADDGF106991999999999999999999
0029028060999991909012820004+69100+027217FM-12+014999999V0202001N018019999999N0000001N9+00281+99999098621ADDGF100991999999999999999999
0029028060999991909012906004+69100+027217FM-12+014999999V0202701N020119999999N0000001N9-00221+99999097911ADDGF106991999999999999999999
0029028060999991909012913004+69100+027217FM-12+014999999V0202001N021119999999N0000001N9-00111+99999097391ADDGF108991999999999999999999
0029028060999991909012920004+69100+027217FM-12+014999999V0202301N014919999999N0000001N9-00281+99999096881ADDGF108991999999999999999999
0029028060999991909013006004+69100+027217FM-12+014999999V0201801N009819999999N0000001N9-00391+99999096501ADDGF108991999999999999999999
0029028060999991909013013004+69100+027217FM-12+014999999V0202001N018019999999N0000001N9-00391+99999097701ADDGF108991999999999999999999
0035028060999991909013020004+69100+027217FM-12+014999999V0202701N018019999999N0000001N9-00671+99999096581ADDGF108991999999999999999999MW1721
0029028060999991909013106004+69100+027217FM-12+014999999V0200201N003119999999N0000001N9-00611+99999096981ADDGF108991999999999999999999
0035028060999991909013113004+69100+027217FM-12+014999999V0200201N009819999999N0000001N9-00781+99999097221ADDGF108991999999999999999999MW1721
0035028060999991909013120004+69100+027217FM-12+014999999V0200201N014919999999N0000001N9-00781+99999097621ADDGF108991999999999999999999MW1721
0035028060999991909020106004+69100+027217FM-12+014999999V0200501N005119999999N0000001N9-00671+99999097621ADDGF108991999999999999999999MW1721
0035028060999991909020113004+69100+027217FM-12+014999999V0200501N008219999999N0000001N9-00781+99999097921ADDGF108991999999999999999999MW1721
0029028060999991909020120004+69100+027217FM-12+014999999V0200501N004119999999N0000001N9-01611+99999098231ADDGF106991999999999999999999
0029028060999991909020206004+69100+027217FM-12+014999999V0209991C000019999999N0000001N9-01671+99999098551ADDGF108991999999999999999999
0029028060999991909020213004+69100+027217FM-12+014999999V0202501N006219999999N0000001N9-01891+99999098621ADDGF106991999999999999999999
0029028060999991909020220004+69100+027217FM-12+014999999V0202701N002119999999N0000001N9-01501+99999098281ADDGF108991999999999999999999
0035028060999991909020306004+69100+027217FM-12+014999999V0202701N007219999999N0000001N9-01561+99999097391ADDGF108991999999999999999999MW1721
0029028060999991909020313004+69100+027217FM-12+014999999V0202501N006219999999N0000001N9-01781+99999097311ADDGF106991999999999999999999
0029028060999991909020320004+69100+027217FM-12+014999999V0202501N009819999999N0000001N9-02331+99999097081ADDGF100991999999999999999999
0035028060999991909020406004+69100+027217FM-12+014999999V0202701N014919999999N0000001N9-02111+99999096791ADDGF106991999999999999999999MW1721
0029028060999991909020413004+69100+027217FM-12+014999999V0202701N011819999999N0000001N9-01721+99999097141ADDGF100991999999999999999999
0029028060999991909020420004+69100+027217FM-12+014999999V0202701N002119999999N0000001N9-01891+99999097541ADDGF100991999999999999999999
0029028060999991909020506004+69100+027217FM-12+014999999V0209991C000019999999N0000001N9-02281+99999098201ADDGF108991999999999999999999
0029028060999991909020513004+69100+027217FM-12+014999999V0209991C000019999999N0000001N9-02221+99999098551ADDGF108991999999999999999999
0029028060999991909020520004+69100+027217FM-12+014999999V0209991C000019999999N0000001N9-01721+99999098601ADDGF108991999999999999999999
0029028060999991909020606004+69100+027217FM-12+014999999V0201801N003119999999N0000001N9-01831+99999098501ADDGF108991999999999999999999
0035028060999991909020613004+69100+027217FM-12+014999999V0203601N002119999999N0000001N9-02111+99999098551ADDGF108991999999999999999999MW1481
0029028060999991909020620004+69100+027217FM-12+014999999V0209991C000019999999N0000001N9-01671+99999098601ADDGF100991999999999999999999
0029028060999991909020706004+69100+027217FM-12+014999999V0209991C000019999999N0000001N9-02721+99999098641ADDGF106991999999999999999999
0035028060999991909020713004+69100+027217FM-12+014999999V0203401N006219999999N0000001N9-01111+99999099471ADDGF106991999999999999999999MW1481
0029028060999991909020720004+69100+027217FM-12+014999999V0209991C000019999999N0000001N9-02001+99999100061ADDGF100991999999999999999999
0029028060999991909020806004+69100+027217FM-12+014999999V0209991C000019999999N0000001N9-02891+99999100311ADDGF104991999999999999999999
0035028060999991909020813004+69100+027217FM-12+014999999V0209991C000019999999N0000001N9-02501+99999100501ADDGF104991999999999999999999MW1481
0029028060999991909020820004+69100+027217FM-12+014999999V0209991C000019999999N0000001N9-02111+99999100241ADDGF100991999999999999999999
0029028060999991909020906004+69100+027217FM-12+014999999V0202701N011819999999N0000001N9-01281+99999099701ADDGF106991999999999999999999
0035028060999991909020913004+69100+027217FM-12+014999999V0202901N013919999999N0000001N9-01281+99999099481ADDGF104991999999999999999999MW1381
0029028060999991909020920004+69100+027217FM-12+014999999V0202501N009819999999N0000001N9-01221+99999099361ADDGF100991999999999999999999
0029028060999991909021006004+69100+027217FM-12+014999999V0202301N011819999999N0000001N9-01001+99999099521ADDGF100991999999999999999999
0035028060999991909021013004+69100+027217FM-12+014999999V0202701N013919999999N0000001N9-00941+99999099591ADDGF104991999999999999999999MW1381
0029028060999991909021020004+69100+027217FM-12+014999999V0202701N008219999999N0000001N9-01001+99999099621ADDGF100991999999999999999999
0035028060999991909021106004+69100+027217FM-12+014999999V0202301N008219999999N0000001N9-00941+99999099541ADDGF108991999999999999999999MW1721
0029028060999991909021113004+69100+027217FM-12+014999999V0202301N011819999999N0000001N9-00721+99999099541ADDGF108991999999999999999999
0029028060999991909021120004+69100+027217FM-12+014999999V0202301N013919999999N0000001N9-00891+99999099341ADDGF100991999999999999999999
0035028060999991909021206004+69100+027217FM-12+014999999V0202301N006219999999N0000001N9-00831+99999099061ADDGF108991999999999999999999MW1721
0029028060999991909021213004+69100+027217FM-12+014999999V0202701N006219999999N0000001N9-00781+99999099591ADDGF100991999999999999999999
0029028060999991909021220004+69100+027217FM-12+014999999V0202701N004119999999N0000001N9-00781+99999099711ADDGF104991999999999999999999
0029028060999991909021306004+69100+027217FM-12+014999999V0202001N004119999999N0000001N9-00781+99999099341ADDGF108991999999999999999999
0035028060999991909021313004+69100+027217FM-12+014999999V0202301N009819999999N0000001N9-00221+99999098591ADDGF108991999999999999999999MW1721
0029028060999991909021320004+69100+027217FM-12+014999999V0202001N014919999999N0000001N9-00281+99999097581ADDGF108991999999999999999999
0029028060999991909021406004+69100+027217FM-12+014999999V0202001N002119999999N0000001N9-00391+99999096201ADDGF108991999999999999999999
0029028060999991909021413004+69100+027217FM-12+014999999V0202001N004119999999N0000001N9-00391+99999095821ADDGF108991999999999999999999
0029028060999991909021420004+69100+027217FM-12+014999999V0209991C000019999999N0000001N9-01441+99999095721ADDGF108991999999999999999999
0029028060999991909021506004+69100+027217FM-12+014999999V0209991C000019999999N0000001N9-01781+99999095701ADDGF108991999999999999999999
0029028060999991909021513004+69100+027217FM-12+014999999V0203601N015919999999N0000001N9-00561+99999096231ADDGF108991999999999999999999
0029028060999991909021520004+69100+027217FM-12+014999999V0203601N020119999999N0000001N9-00891+99999096711ADDGF108991999999999999999999
0035028060999991909021606004+69100+027217FM-12+014999999V0203601N018019999999N0000001N9-01001+99999096821ADDGF106991999999999999999999MW1721
0029028060999991909021613004+69100+027217FM-12+014999999V0203601N015919999999N0000001N9-00721+99999097191ADDGF106991999999999999999999
0029028060999991909021620004+69100+027217FM-12+014999999V0203201N015919999999N0000001N9-00781+99999097471ADDGF104991999999999999999999
0029028060999991909021706004+69100+027217FM-12+014999999V0203201N020119999999N0000001N9-00611+99999097701ADDGF108991999999999999999999
0029028060999991909021713004+69100+027217FM-12+014999999V0203201N013919999999N0000001N9-00561+99999098021ADDGF108991999999999999999999
0029028060999991909021720004+69100+027217FM-12+014999999V0203201N013919999999N0000001N9-00721+99999097901ADDGF108991999999999999999999
0029028060999991909021806004+69100+027217FM-12+014999999V0203401N005119999999N0000001N9-01061+99999098061ADDGF106991999999999999999999
0029028060999991909021813004+69100+027217FM-12+014999999V0203401N006219999999N0000001N9-00611+99999098311ADDGF104991999999999999999999
0029028060999991909021820004+69100+027217FM-12+014999999V0203601N004119999999N0000001N9-00891+99999098361ADDGF100991999999999999999999
0029028060999991909021906004+69100+027217FM-12+014999999V0209991C000019999999N0000001N9-01671+99999098441ADDGF100991999999999999999999
0035028060999991909021913004+69100+027217FM-12+014999999V0202701N004119999999N0000001N9-01221+99999098391ADDGF108991999999999999999999MW1721
0029028060999991909021920004+69100+027217FM-12+014999999V0202301N011819999999N0000001N9-01001+99999097941ADDGF108991999999999999999999
0029028060999991909022006004+69100+027217FM-12+014999999V0202301N018019999999N0000001N9-00281+99999097841ADDGF108991999999999999999999
0035028060999991909022013004+69100+027217FM-12+014999999V0202501N018019999999N0000001N9+00001+99999099221ADDGF106991999999999999999999MW1381
0029028060999991909022020004+69100+027217FM-12+014999999V0203201N008219999999N0000001N9-00391+99999099751ADDGF100991999999999999999999
0035028060999991909022106004+69100+027217FM-12+014999999V0201801N005119999999N0000001N9+00111+99999099671ADDGF108991999999999999999999MW1621
0029028060999991909022113004+69100+027217FM-12+014999999V0202301N004119999999N0000001N9+00281+99999099901ADDGF104991999999999999999999
0029028060999991909022120004+69100+027217FM-12+014999999V0202001N002119999999N0000001N9+00281+99999100681ADDGF106991999999999999999999
0029028060999991909022206004+69100+027217FM-12+014999999V0202301N004119999999N0000001N9+00001+99999100981ADDGF104991999999999999999999
0029028060999991909022213004+69100+027217FM-12+014999999V0201801N003119999999N0000001N9+00331+99999100781ADDGF100991999999999999999999
0029028060999991909022220004+69100+027217FM-12+014999999V0201801N006219999999N0000001N9-00221+99999100721ADDGF100991999999999999999999
0029028060999991909022306004+69100+027217FM-12+014999999V0202301N011819999999N0000001N9-00391+99999100761ADDGF108991999999999999999999
0029028060999991909022313004+69100+027217FM-12+014999999V0202301N009819999999N0000001N9-00281+99999101241ADDGF100991999999999999999999
0029028060999991909022320004+69100+027217FM-12+014999999V0202301N011819999999N0000001N9-00611+99999101311ADDGF100991999999999999999999
0029028060999991909022406004+69100+027217FM-12+014999999V0202301N018019999999N0000001N9-00781+99999100921ADDGF106991999999999999999999
0029028060999991909022413004+69100+027217FM-12+014999999V0202501N020119999999N0000001N9-00561+99999100941ADDGF104991999999999999999999
0029028060999991909022420004+69100+027217FM-12+014999999V0202501N018019999999N0000001N9-00611+99999100701ADDGF104991999999999999999999
0029028060999991909022506004+69100+027217FM-12+014999999V0202301N026219999999N0000001N9-00501+99999100221ADDGF108991999999999999999999
0035028060999991909022513004+69100+027217FM-12+014999999V0202501N020119999999N0000001N9-00171+99999100431ADDGF106991999999999999999999MW1381
0029028060999991909022520004+69100+027217FM-12+014999999V0202301N006219999999N0000001N9-00221+99999100721ADDGF108991999999999999999999
0029028060999991909022606004+69100+027217FM-12+014999999V0202301N006219999999N0000001N9-00611+99999100961ADDGF100991999999999999999999
0029028060999991909022613004+69100+027217FM-12+014999999V0202701N008219999999N0000001N9-00561+99999100761ADDGF104991999999999999999999
0029028060999991909022620004+69100+027217FM-12+014999999V0201801N002119999999N0000001N9-00781+99999100741ADDGF108991999999999999999999
0029028060999991909022706004+69100+027217FM-12+014999999V0209991C000019999999N0000001N9-01001+99999099551ADDGF100991999999999999999999
0035028060999991909022713004+69100+027217FM-12+014999999V0203401N011819999999N0000001N9-01111+99999100061ADDGF100991999999999999999999MW1381
0029028060999991909022720004+69100+027217FM-12+014999999V0202701N004119999999N0000001N9-01441+99999100201ADDGF100991999999999999999999
0029028060999991909022806004+69100+027217FM-12+014999999V0209991C000019999999N0000001N9-02501+99999100121ADDGF100991999999999999999999
0029028060999991909022813004+69100+027217FM-12+014999999V0202301N002119999999N0000001N9-01281+99999099901ADDGF100991999999999999999999
0029028060999991909022820004+69100+027217FM-12+014999999V0209991C000019999999N0000001N9-02561+99999099601ADDGF100991999999999999999999
0029028060999991909030106004+69100+027217FM-12+014999999V0209991C000019999999N0000001N9-03501+99999099361ADDGF100991999999999999999999
0029028060999991909030113004+69100+027217FM-12+014999999V0202301N002119999999N0000001N9-01781+99999099271ADDGF100991999999999999999999
0029028060999991909030120004+69100+027217FM-12+014999999V0202301N002119999999N0000001N9-02171+99999099161ADDGF100991999999999999999999
0029028060999991909030206004+69100+027217FM-12+014999999V0209991C000019999999N0000001N9-02671+99999098981ADDGF100991999999999999999999
0029028060999991909030213004+69100+027217FM-12+014999999V0209991C000019999999N0000001N9-01941+99999099071ADDGF104991999999999999999999
0029028060999991909030220004+69100+027217FM-12+014999999V0209991C000019999999N0000001N9-02721+99999099061ADDGF100991999999999999999999
0029028060999991909030306004+69100+027217FM-12+014999999V0209991C000019999999N0000001N9-03221+99999099431ADDGF100991999999999999999999
0029028060999991909030313004+69100+027217FM-12+014999999V0209991C000019999999N0000001N9-01721+99999099721ADDGF100991999999999999999999
0029028060999991909030320004+69100+027217FM-12+014999999V0201801N001019999999N0000001N9-03281+99999099901ADDGF100991999999999999999999
0029028060999991909030406004+69100+027217FM-12+014999999V0209991C000019999999N0000001N9-03781+99999100261ADDGF100991999999999999999999
0029028060999991909030413004+69100+027217FM-12+014999999V0209991C000019999999N0000001N9-02441+99999100431ADDGF100991999999999999999999
0029028060999991909030420004+69100+027217FM-12+014999999V0209991C000019999999N0000001N9-02501+99999100511ADDGF104991999999999999999999
0035028060999991909030506004+69100+027217FM-12+014999999V0200901N008219999999N0000001N9-01721+99999100281ADDGF108991999999999999999999MW1721
0035028060999991909030513004+69100+027217FM-12+014999999V0200901N009819999999N0000001N9-01111+99999100721ADDGF108991999999999999999999MW1721
0029028060999991909030520004+69100+027217FM-12+014999999V0200501N006219999999N0000001N9-01221+99999100941ADDGF104991999999999999999999
0029028060999991909030606004+69100+027217FM-12+014999999V0209991C000019999999N0000001N9-01671+99999101191ADDGF108991999999999999999999
0035028060999991909030613004+69100+027217FM-12+014999999V0200901N006219999999N0000001N9-01001+99999101121ADDGF108991999999999999999999MW1721
0029028060999991909030620004+69100+027217FM-12+014999999V0200901N004119999999N0000001N9-00831+99999101081ADDGF104991999999999999999999
0029028060999991909030706004+69100+027217FM-12+014999999V0200501N004119999999N0000001N9-00501+99999101301ADDGF108991999999999999999999
0029028060999991909030713004+69100+027217FM-12+014999999V0201401N006219999999N0000001N9-00331+99999101381ADDGF108991999999999999999999
0029028060999991909030720004+69100+027217FM-12+014999999V0209991C000019999999N0000001N9-01281+99999101301ADDGF100991999999999999999999
0029028060999991909030806004+69100+027217FM-12+014999999V0200501N002119999999N0000001N9-02111+99999100961ADDGF100991999999999999999999
0029028060999991909030813004+69100+027217FM-12+014999999V0201801N009819999999N0000001N9-00611+99999100951ADDGF108991999999999999999999
0035028060999991909030820004+69100+027217FM-12+014999999V0202001N013919999999N0000001N9-00721+99999100701ADDGF108991999999999999999999MW1721
0029028060999991909030906004+69100+027217FM-12+014999999V0209991C000019999999N0000001N9-00611+99999100541ADDGF100991999999999999999999
0029028060999991909030913004+69100+027217FM-12+014999999V0202301N013919999999N0000001N9-00331+99999100741ADDGF100991999999999999999999
0029028060999991909030920004+69100+027217FM-12+014999999V0202001N013919999999N0000001N9-00781+99999100341ADDGF100991999999999999999999
0029028060999991909031006004+69100+027217FM-12+014999999V0201801N002119999999N0000001N9-00831+99999100441ADDGF108991999999999999999999
0029028060999991909031013004+69100+027217FM-12+014999999V0202001N015919999999N0000001N9-00441+99999100241ADDGF100991999999999999999999
0029028060999991909031020004+69100+027217FM-12+014999999V0202001N018019999999N0000001N9-00721+99999100061ADDGF108991999999999999999999
0029028060999991909031106004+69100+027217FM-12+014999999V0202001N008219999999N0000001N9-01221+99999099881ADDGF100991999999999999999999
0029028060999991909031113004+69100+027217FM-12+014999999V0202301N008219999999N0000001N9-00561+99999099961ADDGF100991999999999999999999
0029028060999991909031120004+69100+027217FM-12+014999999V0202001N020119999999N0000001N9-00611+99999099761ADDGF108991999999999999999999
0029028060999991909031206004+69100+027217FM-12+014999999V0202301N009819999999N0000001N9-00561+99999099421ADDGF108991999999999999999999
0029028060999991909031213004+69100+027217FM-12+014999999V0209991C000019999999N0000001N9-00501+99999099441ADDGF100991999999999999999999
0029028060999991909031220004+69100+027217FM-12+014999999V0202001N002119999999N0000001N9-01221+99999099471ADDGF100991999999999999999999
0035028060999991909031306004+69100+027217FM-12+014999999V0209991C000019999999N0000001N9-01561+99999099341ADDGF108991999999999999999999MW1721
0035028060999991909031313004+69100+027217FM-12+014999999V0201801N006219999999N0000001N9-00831+99999099431ADDGF108991999999999999999999MW1721
0029028060999991909031320004+69100+027217FM-12+014999999V0201801N003119999999N0000001N9-00781+99999099281ADDGF100991999999999999999999
0029028060999991909031406004+69100+027217FM-12+014999999V0209991C000019999999N0000001N9-02281+99999099721ADDGF100991999999999999999999
0029028060999991909031413004+69100+027217FM-12+014999999V0209991C000019999999N0000001N9-01061+99999099741ADDGF108991999999999999999999
0029028060999991909031420004+69100+027217FM-12+014999999V0203601N002119999999N0000001N9-01781+99999099821ADDGF100991999999999999999999
0029028060999991909031506004+69100+027217FM-12+014999999V0209991C000019999999N0000001N9-01721+99999099601ADDGF108991999999999999999999
0029028060999991909031513004+69100+027217FM-12+014999999V0209991C000019999999N0000001N9-01001+99999099751ADDGF100991999999999999999999
0029028060999991909031520004+69100+027217FM-12+014999999V0209991C000019999999N0000001N9-01281+99999099941ADDGF108991999999999999999999
0029028060999991909031606004+69100+027217FM-12+014999999V0209991C000019999999N0000001N9-01281+99999100231ADDGF108991999999999999999999
0029028060999991909031613004+69100+027217FM-12+014999999V0209991C000019999999N0000001N9-00561+99999100361ADDGF100991999999999999999999
0029028060999991909031620004+69100+027217FM-12+014999999V0209991C000019999999N0000001N9-01221+99999100601ADDGF100991999999999999999999
0029028060999991909031706004+69100+027217FM-12+014999999V0209991C000019999999N0000001N9-02281+99999100661ADDGF108991999999999999999999
0029028060999991909031713004+69100+027217FM-12+014999999V0201101N002119999999N0000001N9-00941+99999100821ADDGF100991999999999999999999
0029028060999991909031720004+69100+027217FM-12+014999999V0209991C000019999999N0000001N9-01781+99999100671ADDGF100991999999999999999999
0029028060999991909031806004+69100+027217FM-12+014999999V0200501N002119999999N0000001N9-01171+99999100461ADDGF108991999999999999999999
0029028060999991909031813004+69100+027217FM-12+014999999V0201101N002119999999N0000001N9-00561+99999100191ADDGF108991999999999999999999
0029028060999991909031820004+69100+027217FM-12+014999999V0209991C000019999999N0000001N9-00561+99999099951ADDGF108991999999999999999999
0035028060999991909031906004+69100+027217FM-12+014999999V0200901N008719999999N0000001N9-00721+99999098981ADDGF108991999999999999999999MW1721
0029028060999991909031913004+69100+027217FM-12+014999999V0202001N003119999999N0000001N9-00391+99999098991ADDGF108991999999999999999999
0029028060999991909031920004+69100+027217FM-12+014999999V0202001N011819999999N0000001N9-00501+99999099141ADDGF108991999999999999999999
0029028060999991909032006004+69100+027217FM-12+014999999V0202701N005119999999N0000001N9-01111+99999099441ADDGF100991999999999999999999
0029028060999991909032013004+69100+027217FM-12+014999999V0202501N004119999999N0000001N9-00331+99999099841ADDGF100991999999999999999999
0029028060999991909032020004+69100+027217FM-12+014999999V0209991C000019999999N0000001N9-01111+99999100121ADDGF100991999999999999999999
0029028060999991909032106004+69100+027217FM-12+014999999V0209991C000019999999N0000001N9-02391+99999100401ADDGF100991999999999999999999
0035028060999991909032113004+69100+027217FM-12+014999999V0202501N002119999999N0000001N9-00611+99999100281ADDGF100991999999999999999999MW1481
0029028060999991909032120004+69100+027217FM-12+014999999V0209991C000019999999N0000001N9-01221+99999100261ADDGF100991999999999999999999
0035028060999991909032206004+69100+027217FM-12+014999999V0209991C000019999999N0000001N9-01281+99999100221ADDGF108991999999999999999999MW1721
0029028060999991909032213004+69100+027217FM-12+014999999V0202701N001019999999N0000001N9-00671+99999100221ADDGF100991999999999999999999
0029028060999991909032220004+69100+027217FM-12+014999999V0209991C000019999999N0000001N9-01891+99999100081ADDGF100991999999999999999999
0029028060999991909032306004+69100+027217FM-12+014999999V0209991C000019999999N0000001N9-01671+99999099751ADDGF108991999999999999999999
0029028060999991909032313004+69100+027217FM-12+014999999V0209991C000019999999N0000001N9-00501+99999099581ADDGF100991999999999999999999
0029028060999991909032320004+69100+027217FM-12+014999999V0209991C000019999999N0000001N9-02171+99999099161ADDGF100991999999999999999999
0029028060999991909032406004+69100+027217FM-12+014999999V0202301N002119999999N0000001N9-01891+99999098921ADDGF100991999999999999999999
0029028060999991909032413004+69100+027217FM-12+014999999V0202701N006219999999N0000001N9-00331+99999098951ADDGF100991999999999999999999
0029028060999991909032420004+69100+027217FM-12+014999999V0202301N008219999999N0000001N9-01061+99999098921ADDGF100991999999999999999999
0029028060999991909032506004+69100+027217FM-12+014999999V0202301N001019999999N0000001N9-01781+99999098901ADDGF100991999999999999999999
0029028060999991909032513004+69100+027217FM-12+014999999V0202301N004119999999N0000001N9-00221+99999099041ADDGF100991999999999999999999
0029028060999991909032520004+69100+027217FM-12+014999999V0202301N004119999999N0000001N9-01061+99999099121ADDGF104991999999999999999999
0029028060999991909032606004+69100+027217FM-12+014999999V0209991C000019999999N0000001N9-01781+99999099101ADDGF100991999999999999999999
0029028060999991909032613004+69100+027217FM-12+014999999V0209991C000019999999N0000001N9-00221+99999099311ADDGF100991999999999999999999
0029028060999991909032620004+69100+027217FM-12+014999999V0209991C000019999999N0000001N9-01561+99999099501ADDGF100991999999999999999999
0029028060999991909032706004+69100+027217FM-12+014999999V0209991C000019999999N0000001N9-02501+99999099831ADDGF100991999999999999999999
0029028060999991909032713004+69100+027217FM-12+014999999V0209991C000019999999N0000001N9+00001+99999100121ADDGF100991999999999999999999
0029028060999991909032720004+69100+027217FM-12+014999999V0209991C000019999999N0000001N9-01611+99999100101ADDGF104991999999999999999999
0029028060999991909032806004+69100+027217FM-12+014999999V0209991C000019999999N0000001N9-01501+99999099791ADDGF108991999999999999999999
0035028060999991909032813004+69100+027217FM-12+014999999V0200901N008219999999N0000001N9-00561+99999099351ADDGF108991999999999999999999MW1721
0035028060999991909032820004+69100+027217FM-12+014999999V0200901N006219999999N0000001N9-00501+99999098821ADDGF108991999999999999999999MW1721
0035028060999991909032906004+69100+027217FM-12+014999999V0209991C000019999999N0000001N9-00391+99999098201ADDGF108991999999999999999999MW1721
0029028060999991909032913004+69100+027217FM-12+014999999V0201401N002119999999N0000001N9+00331+99999097991ADDGF108991999999999999999999
0035028060999991909032920004+69100+027217FM-12+014999999V0201401N002119999999N0000001N9-00221+99999097821ADDGF108991999999999999999999MW1721
0035028060999991909033006004+69100+027217FM-12+014999999V0203601N003119999999N0000001N9-00391+99999097871ADDGF108991999999999999999999MW1721
0029028060999991909033013004+69100+027217FM-12+014999999V0203601N011819999999N0000001N9-00171+99999098561ADDGF104991999999999999999999
0029028060999991909033020004+69100+027217FM-12+014999999V0203601N006219999999N0000001N9-00611+99999099321ADDGF100991999999999999999999
0029028060999991909033106004+69100+027217FM-12+014999999V0203601N001019999999N0000001N9-01831+99999099751ADDGF100991999999999999999999
0029028060999991909033113004+69100+027217FM-12+014999999V0203601N006219999999N0000001N9-00561+99999099921ADDGF100991999999999999999999
0029028060999991909033120004+69100+027217FM-12+014999999V0203601N002119999999N0000001N9-01561+99999099961ADDGF100991999999999999999999
0029028060999991909040106004+69100+027217FM-12+014999999V0209991C000019999999N0000001N9-01721+99999099741ADDGF108991999999999999999999
0029028060999991909040113004+69100+027217FM-12+014999999V0200901N009819999999N0000001N9-00671+99999099301ADDGF104991999999999999999999
0029028060999991909040120004+69100+027217FM-12+014999999V0200501N013919999999N0000001N9-00831+99999099061ADDGF108991999999999999999999
0035028060999991909040206004+69100+027217FM-12+014999999V0200201N014919999999N0000001N9-01001+99999099161ADDGF108991999999999999999999MW1721
0035028060999991909040213004+69100+027217FM-12+014999999V0200201N011819999999N0000001N9-00501+99999099751ADDGF100991999999999999999999MW1381
0029028060999991909040220004+69100+027217FM-12+014999999V0203601N006219999999N0000001N9-01281+99999100221ADDGF100991999999999999999999
0029028060999991909040306004+69100+027217FM-12+014999999V0202701N002119999999N0000001N9-02001+99999100511ADDGF100991999999999999999999
0029028060999991909040313004+69100+027217FM-12+014999999V0209991C000019999999N0000001N9-00391+99999100581ADDGF100991999999999999999999
0029028060999991909040320004+69100+027217FM-12+014999999V0202301N008219999999N0000001N9-00391+99999100361ADDGF106991999999999999999999
0029028060999991909040406004+69100+027217FM-12+014999999V0202301N009819999999N0000001N9-00281+99999100301ADDGF108991999999999999999999
0029028060999991909040413004+69100+027217FM-12+014999999V0202001N009819999999N0000001N9+00281+99999100241ADDGF108991999999999999999999
0029028060999991909040420004+69100+027217FM-12+014999999V0202301N011819999999N0000001N9+00441+99999100161ADDGF106991999999999999999999
0029028060999991909040506004+69100+027217FM-12+014999999V0202001N005119999999N0000001N9-00111+99999100281ADDGF100991999999999999999999
0029028060999991909040513004+69100+027217FM-12+014999999V0202001N006219999999N0000001N9+00281+99999100161ADDGF104991999999999999999999
0029028060999991909040520004+69100+027217FM-12+014999999V0202301N002119999999N0000001N9+00111+99999099871ADDGF108991999999999999999999
0029028060999991909040606004+69100+027217FM-12+014999999V0202301N005119999999N0000001N9-00111+99999099951ADDGF100991999999999999999999
0029028060999991909040613004+69100+027217FM-12+014999999V0202001N008219999999N0000001N9-00331+99999100461ADDGF100991999999999999999999
0029028060999991909040620004+69100+027217FM-12+014999999V0200901N002119999999N0000001N9-00941+99999100551ADDGF108991999999999999999999
0029028060999991909040706004+69100+027217FM-12+014999999V0209991C000019999999N0000001N9-01671+99999100551ADDGF100991999999999999999999
0029028060999991909040713004+69100+027217FM-12+014999999V0201801N002119999999N0000001N9-00111+99999100321ADDGF100991999999999999999999
0029028060999991909040720004+69100+027217FM-12+014999999V0201801N002119999999N0000001N9-00561+99999100101ADDGF108991999999999999999999
0029028060999991909040806004+69100+027217FM-12+014999999V0201801N009819999999N0000001N9-00611+99999099421ADDGF108991999999999999999999
0035028060999991909040813004+69100+027217FM-12+014999999V0201801N013919999999N0000001N9-00281+99999099221ADDGF108991999999999999999999MW1721
0035028060999991909040820004+69100+027217FM-12+014999999V0201801N009819999999N0000001N9-00721+99999098921ADDGF108991999999999999999999MW1721
0029028060999991909040906004+69100+027217FM-12+014999999V0201401N002119999999N0000001N9-00781+99999099191ADDGF100991999999999999999999
0029028060999991909040913004+69100+027217FM-12+014999999V0201401N004119999999N0000001N9-00501+99999099311ADDGF100991999999999999999999
0029028060999991909040920004+69100+027217FM-12+014999999V0209991C000019999999N0000001N9-01721+99999099471ADDGF100991999999999999999999
0029028060999991909041006004+69100+027217FM-12+014999999V0209991C000019999999N0000001N9-02391+99999100021ADDGF100991999999999999999999
0029028060999991909041013004+69100+027217FM-12+014999999V0201401N004119999999N0000001N9-00391+99999100121ADDGF100991999999999999999999
0029028060999991909041020004+69100+027217FM-12+014999999V0209991C000019999999N0000001N9-01611+99999100121ADDGF100991999999999999999999
0029028060999991909041106004+69100+027217FM-12+014999999V0209991C000019999999N0000001N9-02671+99999100391ADDGF100991999999999999999999
0029028060999991909041113004+69100+027217FM-12+014999999V0201801N003119999999N0000001N9-00501+99999100401ADDGF100991999999999999999999
0029028060999991909041120004+69100+027217FM-12+014999999V0209991C000019999999N0000001N9-01611+99999099961ADDGF100991999999999999999999
0029028060999991909041206004+69100+027217FM-12+014999999V0209991C000019999999N0000001N9-02671+99999099781ADDGF100991999999999999999999
0029028060999991909041213004+69100+027217FM-12+014999999V0202001N009819999999N0000001N9-00501+99999099501ADDGF100991999999999999999999
0029028060999991909041220004+69100+027217FM-12+014999999V0201801N005119999999N0000001N9-01001+99999099161ADDGF106991999999999999999999
0029028060999991909041306004+69100+027217FM-12+014999999V0209991C000019999999N0000001N9-02111+99999098951ADDGF100991999999999999999999
0029028060999991909041313004+69100+027217FM-12+014999999V0202501N008219999999N0000001N9-00221+99999099001ADDGF100991999999999999999999
0029028060999991909041320004+69100+027217FM-12+014999999V0202301N004119999999N0000001N9-00671+99999098941ADDGF108991999999999999999999
0029028060999991909041406004+69100+027217FM-12+014999999V0202001N003119999999N0000001N9-00721+99999098941ADDGF108991999999999999999999
0029028060999991909041413004+69100+027217FM-12+014999999V0202301N002119999999N0000001N9+00441+99999099111ADDGF106991999999999999999999
0029028060999991909041420004+69100+027217FM-12+014999999V0202501N002119999999N0000001N9-00111+99999099031ADDGF108991999999999999999999
0029028060999991909041506004+69100+027217FM-12+014999999V0202001N002119999999N0000001N9-00331+99999098941ADDGF108991999999999999999999
0029028060999991909041513004+69100+027217FM-12+014999999V0202701N002119999999N0000001N9+00171+99999099111ADDGF104991999999999999999999
0029028060999991909041520004+69100+027217FM-12+014999999V0209991C000019999999N0000001N9-00391+99999099111ADDGF106991999999999999999999
0029028060999991909041606004+69100+027217FM-12+014999999V0202001N003119999999N0000001N9-00501+99999099081ADDGF108991999999999999999999
0029028060999991909041613004+69100+027217FM-12+014999999V0202001N011819999999N0000001N9-00391+99999099671ADDGF108991999999999999999999
0029028060999991909041620004+69100+027217FM-12+014999999V0209991C000019999999N0000001N9-01221+99999100101ADDGF100991999999999999999999
0029028060999991909041706004+69100+027217FM-12+014999999V0209991C000019999999N0000001N9-01391+99999100361ADDGF100991999999999999999999
0029028060999991909041713004+69100+027217FM-12+014999999V0203601N005119999999N0000001N9-00441+99999100461ADDGF100991999999999999999999
0029028060999991909041720004+69100+027217FM-12+014999999V0200501N004119999999N0000001N9-00941+99999100511ADDGF100991999999999999999999
0029028060999991909041806004+69100+027217FM-12+014999999V0200501N002119999999N0000001N9-00781+99999100631ADDGF108991999999999999999999
0029028060999991909041813004+69100+027217FM-12+014999999V0200901N008219999999N0000001N9-00221+99999100551ADDGF106991999999999999999999
0029028060999991909041820004+69100+027217FM-12+014999999V0200701N006219999999N0000001N9-00561+99999100471ADDGF108991999999999999999999
0035028060999991909041906004+69100+027217FM-12+014999999V0203601N005119999999N0000001N9-00561+99999100271ADDGF108991999999999999999999MW1721
0035028060999991909041913004+69100+027217FM-12+014999999V0200901N006219999999N0000001N9-00331+99999100321ADDGF108991999999999999999999MW1721
0029028060999991909041920004+69100+027217FM-12+014999999V0200701N004119999999N0000001N9-00721+99999100381ADDGF104991999999999999999999
0035028060999991909042006004+69100+027217FM-12+014999999V0200501N003119999999N0000001N9-00671+99999100481ADDGF108991999999999999999999MW1721
0035028060999991909042013004+69100+027217FM-12+014999999V0200501N011819999999N0000001N9-00171+99999100431ADDGF108991999999999999999999MW1721
0035028060999991909042020004+69100+027217FM-12+014999999V0200501N013919999999N0000001N9-00391+99999100381ADDGF108991999999999999999999MW1721
0035028060999991909042106004+69100+027217FM-12+014999999V0200501N009819999999N0000001N9-00391+99999100561ADDGF108991999999999999999999MW1721
0029028060999991909042113004+69100+027217FM-12+014999999V0200701N013919999999N0000001N9-00171+99999100701ADDGF108991999999999999999999
0029028060999991909042120004+69100+027217FM-12+014999999V0200901N011819999999N0000001N9-00331+99999100871ADDGF108991999999999999999999
0035028060999991909042206004+69100+027217FM-12+014999999V0200501N008219999999N0000001N9-00501+99999101151ADDGF108991999999999999999999MW1721
0029028060999991909042213004+69100+027217FM-12+014999999V0200901N004119999999N0000001N9+00001+99999101121ADDGF106991999999999999999999
0029028060999991909042220004+69100+027217FM-12+014999999V0201401N002119999999N0000001N9-00721+99999100881ADDGF100991999999999999999999
0029028060999991909042306004+69100+027217FM-12+014999999V0209991C000019999999N0000001N9-01001+99999101071ADDGF100991999999999999999999
0029028060999991909042313004+69100+027217FM-12+014999999V0200901N004119999999N0000001N9+00171+99999100711ADDGF100991999999999999999999
0029028060999991909042320004+69100+027217FM-12+014999999V0200901N001019999999N0000001N9-00501+99999100581ADDGF100991999999999999999999
0029028060999991909042406004+69100+027217FM-12+014999999V0209991C000019999999N0000001N9-01171+99999100281ADDGF100991999999999999999999
0029028060999991909042413004+69100+027217FM-12+014999999V0200501N002119999999N0000001N9-00391+99999100221ADDGF100991999999999999999999
0029028060999991909042420004+69100+027217FM-12+014999999V0209991C000019999999N0000001N9-00941+99999100141ADDGF100991999999999999999999
0029028060999991909042506004+69100+027217FM-12+014999999V0209991C000019999999N0000001N9-01501+99999100121ADDGF108991999999999999999999
0029028060999991909042513004+69100+027217FM-12+014999999V0200501N005119999999N0000001N9-00391+99999099921ADDGF100991999999999999999999
0029028060999991909042520004+69100+027217FM-12+014999999V0209991C000019999999N0000001N9-00721+99999099661ADDGF100991999999999999999999
0029028060999991909042606004+69100+027217FM-12+014999999V0209991C000019999999N0000001N9-01441+99999099301ADDGF100991999999999999999999
0029028060999991909042613004+69100+027217FM-12+014999999V0201801N008219999999N0000001N9+00001+99999099071ADDGF104991999999999999999999
0029028060999991909042620004+69100+027217FM-12+014999999V0201401N004119999999N0000001N9-00331+99999098791ADDGF106991999999999999999999
0029028060999991909042706004+69100+027217FM-12+014999999V0200901N005119999999N0000001N9-00561+99999098441ADDGF108991999999999999999999
0029028060999991909042713004+69100+027217FM-12+014999999V0201801N008219999999N0000001N9+00061+99999098501ADDGF108991999999999999999999
0029028060999991909042720004+69100+027217FM-12+014999999V0201401N006219999999N0000001N9-00061+99999098511ADDGF108991999999999999999999
0029028060999991909042806004+69100+027217FM-12+014999999V0201801N002119999999N0000001N9+00111+99999098431ADDGF108991999999999999999999
0029028060999991909042813004+69100+027217FM-12+014999999V0201801N004119999999N0000001N9+00671+99999098501ADDGF100991999999999999999999
0029028060999991909042820004+69100+027217FM-12+014999999V0200901N001019999999N0000001N9+00331+99999098311ADDGF100991999999999999999999
0029028060999991909042906004+69100+027217FM-12+014999999V0203601N004119999999N0000001N9-00391+99999098101ADDGF108991999999999999999999
0029028060999991909042913004+69100+027217FM-12+014999999V0203601N006219999999N0000001N9+00281+99999098121ADDGF104991999999999999999999
0029028060999991909042920004+69100+027217FM-12+014999999V0203601N006219999999N0000001N9+00111+99999098031ADDGF108991999999999999999999
0029028060999991909043006004+69100+027217FM-12+014999999V0200501N009819999999N0000001N9-00171+99999098181ADDGF108991999999999999999999
0029028060999991909043013004+69100+027217FM-12+014999999V0203601N008219999999N0000001N9-00111+99999098461ADDGF108991999999999999999999
0029028060999991909043020004+69100+027217FM-12+014999999V0203601N008219999999N0000001N9-00281+99999098541ADDGF108991999999999999999999
0029028060999991909050106004+69100+027217FM-12+014999999V0203601N006219999999N0000001N9-00281+99999098711ADDGF108991999999999999999999
0029028060999991909050113004+69100+027217FM-12+014999999V0203601N006219999999N0000001N9+00111+99999098721ADDGF108991999999999999999999
0029028060999991909050120004+69100+027217FM-12+014999999V0203601N006219999999N0000001N9-00111+99999098831ADDGF108991999999999999999999
0029028060999991909050206004+69100+027217FM-12+014999999V0203601N006219999999N0000001N9-00171+99999098941ADDGF108991999999999999999999
0035028060999991909050213004+69100+027217FM-12+014999999V0203601N008219999999N0000001N9+00001+99999099081ADDGF108991999999999999999999MW1721
0035028060999991909050220004+69100+027217FM-12+014999999V0203601N015919999999N0000001N9-00061+99999099361ADDGF108991999999999999999999MW1721
0029028060999991909050306004+69100+027217FM-12+014999999V0203401N011819999999N0000001N9-00281+99999099841ADDGF100991999999999999999999
0029028060999991909050313004+69100+027217FM-12+014999999V0202701N002119999999N0000001N9+00391+99999100161ADDGF100991999999999999999999
0029028060999991909050320004+69100+027217FM-12+014999999V0200901N004119999999N0000001N9+00111+99999099991ADDGF108991999999999999999999
0035028060999991909050406004+69100+027217FM-12+014999999V0200901N009819999999N0000001N9-00061+99999099711ADDGF108991999999999999999999MW1721
0035028060999991909050413004+69100+027217FM-12+014999999V0200501N008219999999N0000001N9+00061+99999099701ADDGF108991999999999999999999MW1721
0029028060999991909050420004+69100+027217FM-12+014999999V0200501N011819999999N0000001N9+00111+99999099921ADDGF106991999999999999999999
0029028060999991909050506004+69100+027217FM-12+014999999V0203401N011819999999N0000001N9+00001+99999100911ADDGF106991999999999999999999
0029028060999991909050513004+69100+027217FM-12+014999999V0203601N015919999999N0000001N9+00221+99999101631ADDGF105991999999999999999999
0035028060999991909050520004+69100+027217FM-12+014999999V0203601N013919999999N0000001N9+00001+99999101831ADDGF106991999999999999999999MW1901
0029028060999991909050606004+69100+027217FM-12+014999999V0200201N008219999999N0000001N9-00061+99999102121ADDGF106991999999999999999999
0029028060999991909050613004+69100+027217FM-12+014999999V0203601N002119999999N0000001N9+00441+99999102111ADDGF100991999999999999999999
0029028060999991909050620004+69100+027217FM-12+014999999V0209991C000019999999N0000001N9+00061+99999101841ADDGF108991999999999999999999
0029028060999991909050706004+69100+027217FM-12+014999999V0201801N005119999999N0000001N9+00001+99999101501ADDGF106991999999999999999999
0029028060999991909050713004+69100+027217FM-12+014999999V0201801N008219999999N0000001N9+00441+99999101001ADDGF104991999999999999999999
0029028060999991909050720004+69100+027217FM-12+014999999V0202001N003119999999N0000001N9+00391+99999100631ADDGF108991999999999999999999
0029028060999991909050806004+69100+027217FM-12+014999999V0202001N002119999999N0000001N9+00111+99999100271ADDGF107991999999999999999999
0029028060999991909050813004+69100+027217FM-12+014999999V0202001N002119999999N0000001N9+00501+99999100191ADDGF106991999999999999999999
0035028060999991909050820004+69100+027217FM-12+014999999V0202001N002119999999N0000001N9+00111+99999099911ADDGF108991999999999999999999MW1721
0035028060999991909050906004+69100+027217FM-12+014999999V0209991C000019999999N0000001N9+00111+99999099551ADDGF108991999999999999999999MW1721
0035028060999991909050913004+69100+027217FM-12+014999999V0203601N009819999999N0000001N9+00061+99999099631ADDGF108991999999999999999999MW1721
0029028060999991909050920004+69100+027217FM-12+014999999V0203601N008219999999N0000001N9-00171+99999099661ADDGF106991999999999999999999
0029028060999991909051006004+69100+027217FM-12+014999999V0200501N009819999999N0000001N9-00281+99999099661ADDGF108991999999999999999999
0029028060999991909051013004+69100+027217FM-12+014999999V0203201N002119999999N0000001N9-00281+99999099701ADDGF108991999999999999999999
0029028060999991909051020004+69100+027217FM-12+014999999V0209991C000019999999N0000001N9-00441+99999099761ADDGF108991999999999999999999
0029028060999991909051106004+69100+027217FM-12+014999999V0200501N001019999999N0000001N9-00331+99999099841ADDGF108991999999999999999999
0029028060999991909051113004+69100+027217FM-12+014999999V0202701N004119999999N0000001N9-00061+99999099961ADDGF108991999999999999999999
0029028060999991909051120004+69100+027217FM-12+014999999V0209991C000019999999N0000001N9-00171+99999099941ADDGF108991999999999999999999
0029028060999991909051206004+69100+027217FM-12+014999999V0209991C000019999999N0000001N9-00501+99999099701ADDGF100991999999999999999999
0029028060999991909051213004+69100+027217FM-12+014999999V0209991C000019999999N0000001N9+00391+99999099501ADDGF100991999999999999999999
0029028060999991909051220004+69100+027217FM-12+014999999V0209991C000019999999N0000001N9+00061+99999099431ADDGF100991999999999999999999
0029028060999991909051306004+69100+027217FM-12+014999999V0209991C000019999999N0000001N9-00441+99999099271ADDGF100991999999999999999999
0029028060999991909051313004+69100+027217FM-12+014999999V0201801N004119999999N0000001N9+00391+99999099321ADDGF104991999999999999999999
0029028060999991909051320004+69100+027217FM-12+014999999V0201601N002119999999N0000001N9+00331+99999099041ADDGF104991999999999999999999
0035028060999991909051406004+69100+027217FM-12+014999999V0200901N018019999999N0000001N9-00221+99999097901ADDGF108991999999999999999999MW1721
0035028060999991909051413004+69100+027217FM-12+014999999V0200501N020119999999N0000001N9+00001+99999097101ADDGF108991999999999999999999MW1721
0035028060999991909051420004+69100+027217FM-12+014999999V0200501N008219999999N0000001N9+00061+99999097021ADDGF108991999999999999999999MW1691
0035028060999991909051506004+69100+027217FM-12+014999999V0200501N011819999999N0000001N9+00001+99999097551ADDGF108991999999999999999999MW1721
0035028060999991909051513004+69100+027217FM-12+014999999V0203401N009819999999N0000001N9+00171+99999098381ADDGF108991999999999999999999MW1721
0029028060999991909051520004+69100+027217FM-12+014999999V0202701N004119999999N0000001N9+00001+99999098801ADDGF108991999999999999999999
0029028060999991909051606004+69100+027217FM-12+014999999V0203401N005119999999N0000001N9+00001+99999099031ADDGF100991999999999999999999
0035028060999991909051613004+69100+027217FM-12+014999999V0200501N006219999999N0000001N9+00281+99999099281ADDGF104991999999999999999999MW1721
0035028060999991909051620004+69100+027217FM-12+014999999V0200201N006219999999N0000001N9-00171+99999099341ADDGF108991999999999999999999MW1721
0029028060999991909051706004+69100+027217FM-12+014999999V0203401N008219999999N0000001N9-00171+99999099421ADDGF108991999999999999999999
0029028060999991909051713004+69100+027217FM-12+014999999V0200201N009819999999N0000001N9+00061+99999099941ADDGF108991999999999999999999
0029028060999991909051720004+69100+027217FM-12+014999999V0209991C000019999999N0000001N9-00111+99999100231ADDGF106991999999999999999999
0029028060999991909051806004+69100+027217FM-12+014999999V0203601N002119999999N0000001N9-00331+99999100681ADDGF100991999999999999999999
0029028060999991909051813004+69100+027217FM-12+014999999V0203601N004119999999N0000001N9+00111+99999100801ADDGF100991999999999999999999
0029028060999991909051820004+69100+027217FM-12+014999999V0200501N002119999999N0000001N9+00001+99999100641ADDGF100991999999999999999999
0029028060999991909051906004+69100+027217FM-12+014999999V0203401N002119999999N0000001N9-00391+99999100341ADDGF100991999999999999999999
0029028060999991909051913004+69100+027217FM-12+014999999V0200701N006219999999N0000001N9+00001+99999100221ADDGF104991999999999999999999
0029028060999991909051920004+69100+027217FM-12+014999999V0200501N009819999999N0000001N9-00281+99999100141ADDGF108991999999999999999999
0035028060999991909052006004+69100+027217FM-12+014999999V0200501N006219999999N0000001N9-00281+99999100081ADDGF108991999999999999999999MW1721
0029028060999991909052013004+69100+027217FM-12+014999999V0203601N006219999999N0000001N9+00111+99999100341ADDGF108991999999999999999999
0029028060999991909052020004+69100+027217FM-12+014999999V0203601N008219999999N0000001N9+00061+99999100241ADDGF108991999999999999999999
0029028060999991909052106004+69100+027217FM-12+014999999V0203601N002119999999N0000001N9+00001+99999100631ADDGF108991999999999999999999
0029028060999991909052113004+69100+027217FM-12+014999999V0203601N006219999999N0000001N9+00221+99999100751ADDGF104991999999999999999999
0029028060999991909052120004+69100+027217FM-12+014999999V0209991C000019999999N0000001N9+00111+99999100591ADDGF104991999999999999999999
0029028060999991909052206004+69100+027217FM-12+014999999V0200201N009819999999N0000001N9+00001+99999100391ADDGF106991999999999999999999
0029028060999991909052213004+69100+027217FM-12+014999999V0203601N008219999999N0000001N9+00061+99999100441ADDGF108991999999999999999999
0029028060999991909052220004+69100+027217FM-12+014999999V0203401N006219999999N0000001N9+00001+99999100421ADDGF106991999999999999999999
0029028060999991909052306004+69100+027217FM-12+014999999V0203401N008219999999N0000001N9+00001+99999100241ADDGF108991999999999999999999
0035028060999991909052313004+69100+027217FM-12+014999999V0202901N008219999999N0000001N9+00221+99999100151ADDGF106991999999999999999999MW1721
0035028060999991909052320004+69100+027217FM-12+014999999V0202501N004119999999N0000001N9+00001+99999100061ADDGF106991999999999999999999MW1901
0029028060999991909052406004+69100+027217FM-12+014999999V0203401N006219999999N0000001N9-00061+99999099901ADDGF106991999999999999999999
0029028060999991909052413004+69100+027217FM-12+014999999V0203601N004119999999N0000001N9+00281+99999099671ADDGF105991999999999999999999
0029028060999991909052420004+69100+027217FM-12+014999999V0203601N004119999999N0000001N9+00001+99999099721ADDGF106991999999999999999999
0029028060999991909052506004+69100+027217FM-12+014999999V0203601N004119999999N0000001N9-00111+99999099881ADDGF108991999999999999999999
0029028060999991909052513004+69100+027217FM-12+014999999V0203401N004119999999N0000001N9+00061+99999100061ADDGF108991999999999999999999
0029028060999991909052520004+69100+027217FM-12+014999999V0203401N004119999999N0000001N9+00061+99999100181ADDGF108991999999999999999999
0029028060999991909052606004+69100+027217FM-12+014999999V0202701N002119999999N0000001N9+00111+99999100241ADDGF106991999999999999999999
0029028060999991909052613004+69100+027217FM-12+014999999V0202301N002119999999N0000001N9+00331+99999100031ADDGF100991999999999999999999
0029028060999991909052620004+69100+027217FM-12+014999999V0209991C000019999999N0000001N9+00331+99999099831ADDGF108991999999999999999999
0029028060999991909052706004+69100+027217FM-12+014999999V0201801N001019999999N0000001N9+00331+99999099521ADDGF100991999999999999999999
0029028060999991909052713004+69100+027217FM-12+014999999V0202901N004119999999N0000001N9+00611+99999099631ADDGF100991999999999999999999
0029028060999991909052720004+69100+027217FM-12+014999999V0209991C000019999999N0000001N9+00441+99999099621ADDGF108991999999999999999999
0029028060999991909052806004+69100+027217FM-12+014999999V0202701N001019999999N0000001N9+00501+99999099741ADDGF108991999999999999999999
0029028060999991909052813004+69100+027217FM-12+014999999V0209991C000019999999N0000001N9+00781+99999099911ADDGF104991999999999999999999
0029028060999991909052820004+69100+027217FM-12+014999999V0203601N001019999999N0000001N9+00441+99999100031ADDGF106991999999999999999999
0029028060999991909052906004+69100+027217FM-12+014999999V0200901N002119999999N0000001N9+00441+99999100031ADDGF100991999999999999999999
0029028060999991909052913004+69100+027217FM-12+014999999V0202301N011819999999N0000001N9+00891+99999099641ADDGF104991999999999999999999
0029028060999991909052920004+69100+027217FM-12+014999999V0202301N004119999999N0000001N9+01111+99999099581ADDGF106991999999999999999999
0029028060999991909053006004+69100+027217FM-12+014999999V0201601N004119999999N0000001N9+00781+99999099101ADDGF106991999999999999999999
0035028060999991909053013004+69100+027217FM-12+014999999V0202301N011819999999N0000001N9+01111+99999098881ADDGF108991999999999999999999MW1601
0029028060999991909053020004+69100+027217FM-12+014999999V0202301N004119999999N0000001N9+00891+99999098721ADDGF104991999999999999999999
0029028060999991909053106004+69100+027217FM-12+014999999V0202001N001019999999N0000001N9+00781+99999098441ADDGF108991999999999999999999
0029028060999991909053113004+69100+027217FM-12+014999999V0200501N009819999999N0000001N9+00721+99999098661ADDGF100991999999999999999999
0029028060999991909053120004+69100+027217FM-12+014999999V0200501N004119999999N0000001N9+00331+99999098861ADDGF104991999999999999999999
0035028060999991909060106004+69100+027217FM-12+014999999V0202001N002119999999N0000001N9+00331+99999098981ADDGF106991999999999999999999MW1621
0029028060999991909060113004+69100+027217FM-12+014999999V0203401N008219999999N0000001N9+00441+99999099101ADDGF108991999999999999999999
0029028060999991909060120004+69100+027217FM-12+014999999V0203401N001019999999N0000001N9+00281+99999099151ADDGF108991999999999999999999
0029028060999991909060206004+69100+027217FM-12+014999999V0203601N009819999999N0000001N9+00221+99999099221ADDGF108991999999999999999999
0029028060999991909060213004+69100+027217FM-12+014999999V0200501N006219999999N0000001N9+00391+99999099231ADDGF104991999999999999999999
0029028060999991909060220004+69100+027217FM-12+014999999V0203401N006219999999N0000001N9+00171+99999099391ADDGF108991999999999999999999
0029028060999991909060306004+69100+027217FM-12+014999999V0203601N004119999999N0000001N9+00221+99999099271ADDGF106991999999999999999999
0029028060999991909060313004+69100+027217FM-12+014999999V0200901N004119999999N0000001N9+00561+99999099141ADDGF100991999999999999999999
0029028060999991909060320004+69100+027217FM-12+014999999V0200901N006219999999N0000001N9+00501+99999098801ADDGF100991999999999999999999
0029028060999991909060406004+69100+027217FM-12+014999999V0200901N006219999999N0000001N9+00281+99999098461ADDGF104991999999999999999999
0029028060999991909060413004+69100+027217FM-12+014999999V0200901N006219999999N0000001N9+00281+99999098561ADDGF106991999999999999999999
0029028060999991909060420004+69100+027217FM-12+014999999V0200501N008219999999N0000001N9+00221+99999098471ADDGF108991999999999999999999
0029028060999991909060506004+69100+027217FM-12+014999999V0203601N006219999999N0000001N9+00111+99999098391ADDGF108991999999999999999999
0029028060999991909060513004+69100+027217FM-12+014999999V0200701N006219999999N0000001N9+00171+99999098631ADDGF108991999999999999999999
0029028060999991909060520004+69100+027217FM-12+014999999V0203601N006219999999N0000001N9+00111+99999098761ADDGF108991999999999999999999
0029028060999991909060606004+69100+027217FM-12+014999999V0203601N006219999999N0000001N9-00111+99999099021ADDGF108991999999999999999999
0029028060999991909060613004+69100+027217FM-12+014999999V0200701N004119999999N0000001N9+00331+99999099221ADDGF108991999999999999999999
0029028060999991909060620004+69100+027217FM-12+014999999V0200901N001019999999N0000001N9+00391+99999099321ADDGF104991999999999999999999
0029028060999991909060706004+69100+027217FM-12+014999999V0202001N001019999999N0000001N9+00441+99999099261ADDGF100991999999999999999999
0029028060999991909060713004+69100+027217FM-12+014999999V0202301N003119999999N0000001N9+01061+99999099261ADDGF100991999999999999999999
0029028060999991909060720004+69100+027217FM-12+014999999V0201601N003119999999N0000001N9+00891+99999099221ADDGF100991999999999999999999
0029028060999991909060806004+69100+027217FM-12+014999999V0200901N006219999999N0000001N9+00831+99999098951ADDGF100991999999999999999999
0029028060999991909060813004+69100+027217FM-12+014999999V0200701N009819999999N0000001N9+00831+99999098641ADDGF104991999999999999999999
0035028060999991909060820004+69100+027217FM-12+014999999V0200501N008219999999N0000001N9+00171+99999098441ADDGF108991999999999999999999MW1691
0029028060999991909060906004+69100+027217FM-12+014999999V0203601N006219999999N0000001N9+00221+99999098311ADDGF108991999999999999999999
0029028060999991909060913004+69100+027217FM-12+014999999V0203401N006219999999N0000001N9+00501+99999098631ADDGF108991999999999999999999
0029028060999991909060920004+69100+027217FM-12+014999999V0203201N001019999999N0000001N9+00561+99999098901ADDGF108991999999999999999999
0029028060999991909061006004+69100+027217FM-12+014999999V0203401N002119999999N0000001N9+00391+99999099301ADDGF108991999999999999999999
0029028060999991909061013004+69100+027217FM-12+014999999V0203601N009819999999N0000001N9+00611+99999099661ADDGF108991999999999999999999
0029028060999991909061020004+69100+027217FM-12+014999999V0203401N009819999999N0000001N9+00331+99999099991ADDGF108991999999999999999999
0029028060999991909061106004+69100+027217FM-12+014999999V0200501N009819999999N0000001N9+00391+99999099831ADDGF108991999999999999999999
0029028060999991909061113004+69100+027217FM-12+014999999V0200201N003119999999N0000001N9+00781+99999099751ADDGF107991999999999999999999
0029028060999991909061120004+69100+027217FM-12+014999999V0200901N004119999999N0000001N9+00501+99999099551ADDGF108991999999999999999999
0029028060999991909061206004+69100+027217FM-12+014999999V0202001N003119999999N0000001N9+00721+99999099461ADDGF100991999999999999999999
0029028060999991909061213004+69100+027217FM-12+014999999V0202001N008219999999N0000001N9+01281+99999099221ADDGF106991999999999999999999
0029028060999991909061220004+69100+027217FM-12+014999999V0202701N008219999999N0000001N9+00611+99999099111ADDGF108991999999999999999999
0029028060999991909061306004+69100+027217FM-12+014999999V0203601N013919999999N0000001N9+00391+99999099581ADDGF108991999999999999999999
0029028060999991909061313004+69100+027217FM-12+014999999V0203601N020119999999N0000001N9+00561+99999099781ADDGF106991999999999999999999
0029028060999991909061320004+69100+027217FM-12+014999999V0203601N009819999999N0000001N9+00501+99999100061ADDGF104991999999999999999999
0029028060999991909061406004+69100+027217FM-12+014999999V0203601N020119999999N0000001N9+00391+99999100201ADDGF106991999999999999999999
0029028060999991909061413004+69100+027217FM-12+014999999V0203401N009819999999N0000001N9+00611+99999100441ADDGF106991999999999999999999
0029028060999991909061420004+69100+027217FM-12+014999999V0209991C000019999999N0000001N9+00891+99999100351ADDGF100991999999999999999999
0029028060999991909061506004+69100+027217FM-12+014999999V0202001N009819999999N0000001N9+00781+99999099241ADDGF108991999999999999999999
0029028060999991909061513004+69100+027217FM-12+014999999V0202701N020119999999N0000001N9+01441+99999098951ADDGF104991999999999999999999
0029028060999991909061520004+69100+027217FM-12+014999999V0202901N008219999999N0000001N9+00671+99999099441ADDGF108991999999999999999999
0029028060999991909061606004+69100+027217FM-12+014999999V0203401N009819999999N0000001N9+00561+99999099781ADDGF108991999999999999999999
0029028060999991909061613004+69100+027217FM-12+014999999V0202701N008219999999N0000001N9+00891+99999099881ADDGF104991999999999999999999
0029028060999991909061620004+69100+027217FM-12+014999999V0202701N009819999999N0000001N9+00831+99999099661ADDGF108991999999999999999999
0029028060999991909061706004+69100+027217FM-12+014999999V0203601N006219999999N0000001N9+00501+99999099781ADDGF108991999999999999999999
0029028060999991909061713004+69100+027217FM-12+014999999V0202901N006219999999N0000001N9+00781+99999099961ADDGF104991999999999999999999
0029028060999991909061720004+69100+027217FM-12+014999999V0203601N006219999999N0000001N9+00501+99999100071ADDGF100991999999999999999999
0029028060999991909061806004+69100+027217FM-12+014999999V0203401N008219999999N0000001N9+00331+99999099961ADDGF106991999999999999999999
0029028060999991909061813004+69100+027217FM-12+014999999V0203201N008219999999N0000001N9+00671+99999099921ADDGF106991999999999999999999
0029028060999991909061820004+69100+027217FM-12+014999999V0203601N006219999999N0000001N9+00671+99999099961ADDGF100991999999999999999999
0029028060999991909061906004+69100+027217FM-12+014999999V0203401N002119999999N0000001N9+00501+99999099781ADDGF106991999999999999999999
0029028060999991909061913004+69100+027217FM-12+014999999V0200201N002119999999N0000001N9+00941+99999099581ADDGF104991999999999999999999
0029028060999991909061920004+69100+027217FM-12+014999999V0200201N004119999999N0000001N9+00831+99999099581ADDGF100991999999999999999999
0029028060999991909062006004+69100+027217FM-12+014999999V0200901N001019999999N0000001N9+00561+99999099431ADDGF104991999999999999999999
0029028060999991909062013004+69100+027217FM-12+014999999V0201801N004119999999N0000001N9+01221+99999099261ADDGF100991999999999999999999
0029028060999991909062020004+69100+027217FM-12+014999999V0200201N006219999999N0000001N9+00781+99999099311ADDGF100991999999999999999999
0029028060999991909062106004+69100+027217FM-12+014999999V0203601N004119999999N0000001N9+00441+99999099541ADDGF108991999999999999999999
0029028060999991909062113004+69100+027217FM-12+014999999V0200901N004119999999N0000001N9+00831+99999099661ADDGF108991999999999999999999
0029028060999991909062120004+69100+027217FM-12+014999999V0200901N006219999999N0000001N9+00671+99999099861ADDGF104991999999999999999999
0029028060999991909062206004+69100+027217FM-12+014999999V0200901N004119999999N0000001N9+00391+99999099801ADDGF104991999999999999999999
0029028060999991909062213004+69100+027217FM-12+014999999V0201601N004119999999N0000001N9+01221+99999099801ADDGF100991999999999999999999
0029028060999991909062220004+69100+027217FM-12+014999999V0201401N001019999999N0000001N9+01281+99999099951ADDGF100991999999999999999999
0029028060999991909062306004+69100+027217FM-12+014999999V0201801N002119999999N0000001N9+01221+99999099741ADDGF100991999999999999999999
0029028060999991909062313004+69100+027217FM-12+014999999V0201801N006219999999N0000001N9+02001+99999099621ADDGF100991999999999999999999
0029028060999991909062320004+69100+027217FM-12+014999999V0202301N004119999999N0000001N9+01831+99999099661ADDGF100991999999999999999999
0029028060999991909062406004+69100+027217FM-12+014999999V0201801N006219999999N0000001N9+01671+99999099501ADDGF104991999999999999999999
0029028060999991909062413004+69100+027217FM-12+014999999V0202001N009819999999N0000001N9+01671+99999099561ADDGF108991999999999999999999
0029028060999991909062420004+69100+027217FM-12+014999999V0202301N004119999999N0000001N9+01561+99999099441ADDGF108991999999999999999999
0029028060999991909062506004+69100+027217FM-12+014999999V0202301N011819999999N0000001N9+01941+99999099281ADDGF104991999999999999999999
0029028060999991909062513004+69100+027217FM-12+014999999V0203601N020119999999N0000001N9+02281+99999099281ADDGF104991999999999999999999
0029028060999991909062520004+69100+027217FM-12+014999999V0203401N008219999999N0000001N9+00781+99999099791ADDGF108991999999999999999999
0029028060999991909062606004+69100+027217FM-12+014999999V0200201N006219999999N0000001N9+00671+99999099911ADDGF108991999999999999999999
0029028060999991909062613004+69100+027217FM-12+014999999V0200201N006219999999N0000001N9+01061+99999099981ADDGF108991999999999999999999
0029028060999991909062620004+69100+027217FM-12+014999999V0200901N002119999999N0000001N9+00941+99999099901ADDGF108991999999999999999999
0029028060999991909062706004+69100+027217FM-12+014999999V0200201N006219999999N0000001N9+00781+99999100111ADDGF108991999999999999999999
0029028060999991909062713004+69100+027217FM-12+014999999V0200501N004119999999N0000001N9+01001+99999100071ADDGF106991999999999999999999
0029028060999991909062720004+69100+027217FM-12+014999999V0201101N002119999999N0000001N9+01171+99999099861ADDGF108991999999999999999999
0029028060999991909062806004+69100+027217FM-12+014999999V0203601N006219999999N0000001N9+00831+99999099761ADDGF108991999999999999999999
0029028060999991909062813004+69100+027217FM-12+014999999V0203601N009819999999N0000001N9+01001+99999099791ADDGF108991999999999999999999
0029028060999991909062820004+69100+027217FM-12+014999999V0200901N011819999999N0000001N9+00891+99999099521ADDGF108991999999999999999999
0035028060999991909062906004+69100+027217FM-12+014999999V0200901N008219999999N0000001N9+00611+99999098601ADDGF108991999999999999999999MW1621
0035028060999991909062913004+69100+027217FM-12+014999999V0200501N011819999999N0000001N9+00721+99999098521ADDGF108991999999999999999999MW1621
0029028060999991909062920004+69100+027217FM-12+014999999V0200201N011819999999N0000001N9+00611+99999098581ADDGF108991999999999999999999
0029028060999991909063006004+69100+027217FM-12+014999999V0200501N013919999999N0000001N9+00501+99999098551ADDGF108991999999999999999999
0029028060999991909063013004+69100+027217FM-12+014999999V0203601N013919999999N0000001N9+00721+99999098431ADDGF108991999999999999999999
0029028060999991909063020004+69100+027217FM-12+014999999V0200901N002119999999N0000001N9+00721+99999098841ADDGF108991999999999999999999
0029028060999991909070106004+69100+027217FM-12+014999999V0202901N009819999999N0000001N9+00391+99999098961ADDGF108991999999999999999999
0029028060999991909070113004+69100+027217FM-12+014999999V0202701N011819999999N0000001N9+00721+99999099221ADDGF108991999999999999999999
0029028060999991909070120004+69100+027217FM-12+014999999V0202701N011819999999N0000001N9+00721+99999099481ADDGF108991999999999999999999
0029028060999991909070206004+69100+027217FM-12+014999999V0202301N008219999999N0000001N9+00831+99999099791ADDGF108991999999999999999999
0029028060999991909070213004+69100+027217FM-12+014999999V0202301N013919999999N0000001N9+01281+99999099351ADDGF108991999999999999999999
0029028060999991909070220004+69100+027217FM-12+014999999V0203601N008219999999N0000001N9+01221+99999099481ADDGF108991999999999999999999
0029028060999991909070306004+69100+027217FM-12+014999999V0202301N008219999999N0000001N9+01001+99999099221ADDGF108991999999999999999999
0029028060999991909070313004+69100+027217FM-12+014999999V0203601N008219999999N0000001N9+01281+99999099361ADDGF108991999999999999999999
0029028060999991909070320004+69100+027217FM-12+014999999V0203601N008219999999N0000001N9+00891+99999099151ADDGF108991999999999999999999
0029028060999991909070406004+69100+027217FM-12+014999999V0200901N006219999999N0000001N9+01111+99999099501ADDGF106991999999999999999999
0029028060999991909070413004+69100+027217FM-12+014999999V0201401N006219999999N0000001N9+01611+99999099481ADDGF106991999999999999999999
0029028060999991909070420004+69100+027217FM-12+014999999V0202901N013919999999N0000001N9+01441+99999099341ADDGF108991999999999999999999
0029028060999991909070506004+69100+027217FM-12+014999999V0202301N013919999999N0000001N9+01611+99999099241ADDGF104991999999999999999999
0029028060999991909070513004+69100+027217FM-12+014999999V0202301N027819999999N0000001N9+02001+99999099221ADDGF104991999999999999999999
0029028060999991909070520004+69100+027217FM-12+014999999V0202301N015919999999N0000001N9+01781+99999099161ADDGF104991999999999999999999
0029028060999991909070606004+69100+027217FM-12+014999999V0202301N015919999999N0000001N9+01611+99999099221ADDGF104991999999999999999999
0029028060999991909070613004+69100+027217FM-12+014999999V0202301N020119999999N0000001N9+02111+99999099191ADDGF106991999999999999999999
0029028060999991909070620004+69100+027217FM-12+014999999V0202301N011819999999N0000001N9+02111+99999099081ADDGF100991999999999999999999
0029028060999991909070706004+69100+027217FM-12+014999999V0209991C000019999999N0000001N9+01781+99999099351ADDGF106991999999999999999999
0029028060999991909070713004+69100+027217FM-12+014999999V0201401N009819999999N0000001N9+02001+99999099321ADDGF106991999999999999999999
0035028060999991909070720004+69100+027217FM-12+014999999V0200501N009819999999N0000001N9+01441+99999099541ADDGF108991999999999999999999MW1621
0035028060999991909070806004+69100+027217FM-12+014999999V0200501N002119999999N0000001N9+01671+99999099401ADDGF104991999999999999999999MW1621
0035028060999991909070813004+69100+027217FM-12+014999999V0201101N008219999999N0000001N9+02221+99999099181ADDGF108991999999999999999999MW1621
0035028060999991909070820004+69100+027217FM-12+014999999V0200901N004119999999N0000001N9+01781+99999099111ADDGF104991999999999999999999MW1621
0029028060999991909070906004+69100+027217FM-12+014999999V0209991C000019999999N0000001N9+01721+99999099041ADDGF104991999999999999999999
0029028060999991909070913004+69100+027217FM-12+014999999V0202301N008219999999N0000001N9+02281+99999098911ADDGF106991999999999999999999
0029028060999991909070920004+69100+027217FM-12+014999999V0200901N004119999999N0000001N9+02001+99999098681ADDGF100991999999999999999999
0029028060999991909071006004+69100+027217FM-12+014999999V0201401N004119999999N0000001N9+02001+99999098741ADDGF104991999999999999999999
0035028060999991909071013004+69100+027217FM-12+014999999V0201601N004119999999N0000001N9+02561+99999098711ADDGF104991999999999999999999MW1051
0029028060999991909071020004+69100+027217FM-12+014999999V0209991C000019999999N0000001N9+02501+99999098631ADDGF100991999999999999999999
0029028060999991909071106004+69100+027217FM-12+014999999V0203601N008219999999N0000001N9+01831+99999098841ADDGF104991999999999999999999
0029028060999991909071113004+69100+027217FM-12+014999999V0200901N008219999999N0000001N9+02561+99999098721ADDGF100991999999999999999999
0029028060999991909071120004+69100+027217FM-12+014999999V0200701N008219999999N0000001N9+02281+99999098711ADDGF100991999999999999999999
0029028060999991909071206004+69100+027217FM-12+014999999V0203401N004119999999N0000001N9+01781+99999098821ADDGF100991999999999999999999
0029028060999991909071213004+69100+027217FM-12+014999999V0200501N008219999999N0000001N9+02171+99999098701ADDGF104991999999999999999999
0029028060999991909071220004+69100+027217FM-12+014999999V0200501N008219999999N0000001N9+01611+99999098701ADDGF104991999999999999999999
0029028060999991909071306004+69100+027217FM-12+014999999V0203601N004119999999N0000001N9+01221+99999098861ADDGF104991999999999999999999
0029028060999991909071313004+69100+027217FM-12+014999999V0200501N009819999999N0000001N9+01721+99999098701ADDGF108991999999999999999999
0029028060999991909071320004+69100+027217FM-12+014999999V0200501N006219999999N0000001N9+01441+99999098711ADDGF108991999999999999999999
0029028060999991909071406004+69100+027217FM-12+014999999V0203601N009819999999N0000001N9+01111+99999098671ADDGF108991999999999999999999
0035028060999991909071413004+69100+027217FM-12+014999999V0200501N006219999999N0000001N9+02001+99999098461ADDGF100991999999999999999999MW1051
0029028060999991909071420004+69100+027217FM-12+014999999V0200501N009819999999N0000001N9+01671+99999098461ADDGF100991999999999999999999
0029028060999991909071506004+69100+027217FM-12+014999999V0203601N009819999999N0000001N9+00941+99999098261ADDGF108991999999999999999999
0029028060999991909071513004+69100+027217FM-12+014999999V0200501N006219999999N0000001N9+01171+99999098161ADDGF108991999999999999999999
0035028060999991909071520004+69100+027217FM-12+014999999V0200501N002119999999N0000001N9+01171+99999097921ADDGF108991999999999999999999MW1621
0035028060999991909071606004+69100+027217FM-12+014999999V0203601N006219999999N0000001N9+00941+99999097471ADDGF108991999999999999999999MW1621
0029028060999991909071613004+69100+027217FM-12+014999999V0203401N009819999999N0000001N9+01001+99999097671ADDGF108991999999999999999999
0029028060999991909071620004+69100+027217FM-12+014999999V0203201N006219999999N0000001N9+01001+99999097861ADDGF106991999999999999999999
0029028060999991909071706004+69100+027217FM-12+014999999V0202701N004119999999N0000001N9+01171+99999098041ADDGF104991999999999999999999
0029028060999991909071713004+69100+027217FM-12+014999999V0201101N004119999999N0000001N9+01611+99999097981ADDGF106991999999999999999999
0029028060999991909071720004+69100+027217FM-12+014999999V0201101N004119999999N0000001N9+01331+99999098041ADDGF104991999999999999999999
0029028060999991909071806004+69100+027217FM-12+014999999V0201801N002119999999N0000001N9+01501+99999097841ADDGF100991999999999999999999
0029028060999991909071813004+69100+027217FM-12+014999999V0201101N004119999999N0000001N9+02001+99999097801ADDGF100991999999999999999999
0029028060999991909071820004+69100+027217FM-12+014999999V0200901N002119999999N0000001N9+01721+99999097641ADDGF100991999999999999999999
0029028060999991909071906004+69100+027217FM-12+014999999V0200501N006219999999N0000001N9+01501+99999097561ADDGF108991999999999999999999
0029028060999991909071913004+69100+027217FM-12+014999999V0200501N009819999999N0000001N9+01781+99999097511ADDGF108991999999999999999999
0029028060999991909071920004+69100+027217FM-12+014999999V0200701N004119999999N0000001N9+01281+99999097701ADDGF106991999999999999999999
0029028060999991909072006004+69100+027217FM-12+014999999V0200701N009819999999N0000001N9+01221+99999097991ADDGF104991999999999999999999
0029028060999991909072013004+69100+027217FM-12+014999999V0200901N001019999999N0000001N9+01171+99999098081ADDGF108991999999999999999999
0029028060999991909072020004+69100+027217FM-12+014999999V0203601N009819999999N0000001N9+00831+99999098121ADDGF108991999999999999999999
0035028060999991909072106004+69100+027217FM-12+014999999V0203601N006219999999N0000001N9+00671+99999098101ADDGF108991999999999999999999MW1621
0029028060999991909072113004+69100+027217FM-12+014999999V0200201N009819999999N0000001N9+00941+99999098111ADDGF108991999999999999999999
0035028060999991909072120004+69100+027217FM-12+014999999V0203601N009819999999N0000001N9+00671+99999097911ADDGF108991999999999999999999MW1621
0035028060999991909072206004+69100+027217FM-12+014999999V0203601N011819999999N0000001N9+00501+99999097961ADDGF108991999999999999999999MW1621
0029028060999991909072213004+69100+027217FM-12+014999999V0203601N002119999999N0000001N9+00891+99999098101ADDGF108991999999999999999999
0029028060999991909072220004+69100+027217FM-12+014999999V0203201N002119999999N0000001N9+00781+99999098281ADDGF108991999999999999999999
0029028060999991909072306004+69100+027217FM-12+014999999V0203601N006219999999N0000001N9+00781+99999098281ADDGF108991999999999999999999
0029028060999991909072313004+69100+027217FM-12+014999999V0200901N004119999999N0000001N9+01221+99999098281ADDGF108991999999999999999999
0029028060999991909072320004+69100+027217FM-12+014999999V0202301N001019999999N0000001N9+01331+99999098271ADDGF100991999999999999999999
0029028060999991909072406004+69100+027217FM-12+014999999V0202301N004119999999N0000001N9+01001+99999098151ADDGF104991999999999999999999
0029028060999991909072413004+69100+027217FM-12+014999999V0202301N006219999999N0000001N9+01781+99999097881ADDGF104991999999999999999999
0029028060999991909072420004+69100+027217FM-12+014999999V0202301N001019999999N0000001N9+01441+99999097941ADDGF104991999999999999999999
0029028060999991909072506004+69100+027217FM-12+014999999V0201101N004119999999N0000001N9+01501+99999098001ADDGF100991999999999999999999
0029028060999991909072513004+69100+027217FM-12+014999999V0200701N008219999999N0000001N9+01831+99999097991ADDGF104991999999999999999999
0029028060999991909072520004+69100+027217FM-12+014999999V0200501N008219999999N0000001N9+01221+99999098311ADDGF106991999999999999999999
0029028060999991909072606004+69100+027217FM-12+014999999V0200701N004119999999N0000001N9+00781+99999098761ADDGF108991999999999999999999
0029028060999991909072613004+69100+027217FM-12+014999999V0200901N004119999999N0000001N9+01671+99999098781ADDGF100991999999999999999999
0029028060999991909072620004+69100+027217FM-12+014999999V0200901N004119999999N0000001N9+01671+99999098761ADDGF100991999999999999999999
0029028060999991909072706004+69100+027217FM-12+014999999V0202901N008219999999N0000001N9+01281+99999098861ADDGF108991999999999999999999
0029028060999991909072713004+69100+027217FM-12+014999999V0200901N008219999999N0000001N9+01721+99999098681ADDGF104991999999999999999999
0029028060999991909072720004+69100+027217FM-12+014999999V0200701N004119999999N0000001N9+01441+99999098511ADDGF104991999999999999999999
0029028060999991909072806004+69100+027217FM-12+014999999V0200501N008219999999N0000001N9+01061+99999098501ADDGF108991999999999999999999
0029028060999991909072813004+69100+027217FM-12+014999999V0200501N006219999999N0000001N9+01501+99999098881ADDGF100991999999999999999999
0029028060999991909072820004+69100+027217FM-12+014999999V0200901N004119999999N0000001N9+01891+99999098561ADDGF104991999999999999999999
0029028060999991909072906004+69100+027217FM-12+014999999V0200701N004119999999N0000001N9+01391+99999098401ADDGF104991999999999999999999
0029028060999991909072913004+69100+027217FM-12+014999999V0200501N008219999999N0000001N9+01611+99999098941ADDGF104991999999999999999999
0035028060999991909072920004+69100+027217FM-12+014999999V0200501N020119999999N0000001N9+01001+99999099361ADDGF108991999999999999999999MW1621
0029028060999991909073006004+69100+027217FM-12+014999999V0200201N015919999999N0000001N9+00891+99999098841ADDGF108991999999999999999999
0029028060999991909073013004+69100+027217FM-12+014999999V0200701N015919999999N0000001N9+01111+99999098111ADDGF108991999999999999999999
0035028060999991909073020004+69100+027217FM-12+014999999V0200501N001019999999N0000001N9+00941+99999098181ADDGF108991999999999999999999MW1621
0029028060999991909073106004+69100+027217FM-12+014999999V0209991C000019999999N0000001N9+01111+99999098181ADDGF108991999999999999999999
0029028060999991909073113004+69100+027217FM-12+014999999V0201401N004119999999N0000001N9+01561+99999098301ADDGF108991999999999999999999
0029028060999991909073120004+69100+027217FM-12+014999999V0209991C000019999999N0000001N9+01281+99999098421ADDGF108991999999999999999999
0029028060999991909080106004+69100+027217FM-12+014999999V0203601N002119999999N0000001N9+01171+99999098631ADDGF108991999999999999999999
0029028060999991909080113004+69100+027217FM-12+014999999V0200201N004119999999N0000001N9+01561+99999098791ADDGF106991999999999999999999
0035028060999991909080120004+69100+027217FM-12+014999999V0203601N008219999999N0000001N9+01221+99999098921ADDGF108991999999999999999999MW1621
0029028060999991909080206004+69100+027217FM-12+014999999V0200501N006219999999N0000001N9+01111+99999099191ADDGF106991999999999999999999
0029028060999991909080213004+69100+027217FM-12+014999999V0200501N006219999999N0000001N9+01331+99999099381ADDGF108991999999999999999999
0029028060999991909080220004+69100+027217FM-12+014999999V0200501N008219999999N0000001N9+01061+99999099631ADDGF108991999999999999999999
0029028060999991909080306004+69100+027217FM-12+014999999V0203601N008219999999N0000001N9+00941+99999099921ADDGF108991999999999999999999
0029028060999991909080313004+69100+027217FM-12+014999999V0203401N009819999999N0000001N9+00941+99999100021ADDGF108991999999999999999999
0029028060999991909080320004+69100+027217FM-12+014999999V0203601N004119999999N0000001N9+01001+99999100081ADDGF108991999999999999999999
0029028060999991909080406004+69100+027217FM-12+014999999V0200201N002119999999N0000001N9+01001+99999999999ADDGF108991999999999999999999
0029028060999991909080413004+69100+027217FM-12+014999999V0202701N002119999999N0000001N9+01281+99999099781ADDGF106991999999999999999999
0029028060999991909080420004+69100+027217FM-12+014999999V0201101N004119999999N0000001N9+01171+99999099441ADDGF104991999999999999999999
0035028060999991909080506004+69100+027217FM-12+014999999V0200901N004119999999N0000001N9+01111+99999098821ADDGF108991999999999999999999MW1621
0035028060999991909080513004+69100+027217FM-12+014999999V0201401N008219999999N0000001N9+01281+99999098241ADDGF108991999999999999999999MW1621
0029028060999991909080520004+69100+027217FM-12+014999999V0202901N008219999999N0000001N9+00831+99999098381ADDGF106991999999999999999999
0029028060999991909080606004+69100+027217FM-12+014999999V0202501N004119999999N0000001N9+01001+99999098261ADDGF104991999999999999999999
0035028060999991909080613004+69100+027217FM-12+014999999V0202701N008219999999N0000001N9+01221+99999098461ADDGF108991999999999999999999MW1621
0029028060999991909080620004+69100+027217FM-12+014999999V0209991C000019999999N0000001N9+01001+99999098641ADDGF104991999999999999999999
0029028060999991909080706004+69100+027217FM-12+014999999V0202501N006219999999N0000001N9+01001+99999098121ADDGF104991999999999999999999
0029028060999991909080713004+69100+027217FM-12+014999999V0202501N006219999999N0000001N9+01561+99999097881ADDGF104991999999999999999999
0035028060999991909080720004+69100+027217FM-12+014999999V0202001N002119999999N0000001N9+01171+99999097631ADDGF108991999999999999999999MW1621
0035028060999991909080806004+69100+027217FM-12+014999999V0202301N004119999999N0000001N9+01001+99999097311ADDGF108991999999999999999999MW1621
0029028060999991909080813004+69100+027217FM-12+014999999V0200201N008219999999N0000001N9+01111+99999097441ADDGF106991999999999999999999
0029028060999991909080820004+69100+027217FM-12+014999999V0203601N008219999999N0000001N9+00941+99999097701ADDGF106991999999999999999999
0029028060999991909080906004+69100+027217FM-12+014999999V0203401N008219999999N0000001N9+00941+99999097911ADDGF108991999999999999999999
0029028060999991909080913004+69100+027217FM-12+014999999V0203401N008219999999N0000001N9+01221+99999097881ADDGF104991999999999999999999
0035028060999991909080920004+69100+027217FM-12+014999999V0203601N008219999999N0000001N9+00831+99999098061ADDGF106991999999999999999999MW1621
0029028060999991909081006004+69100+027217FM-12+014999999V0200201N006219999999N0000001N9+00781+99999098151ADDGF108991999999999999999999
0035028060999991909081013004+69100+027217FM-12+014999999V0200501N008219999999N0000001N9+01061+99999098221ADDGF108991999999999999999999MW1621
0035028060999991909081020004+69100+027217FM-12+014999999V0203601N008219999999N0000001N9+00781+99999098421ADDGF108991999999999999999999MW1621
0029028060999991909081106004+69100+027217FM-12+014999999V0203601N008219999999N0000001N9+00721+99999098361ADDGF108991999999999999999999
0029028060999991909081113004+69100+027217FM-12+014999999V0200501N006219999999N0000001N9+01111+99999098321ADDGF106991999999999999999999
0029028060999991909081120004+69100+027217FM-12+014999999V0203601N006219999999N0000001N9+00891+99999098351ADDGF108991999999999999999999
0029028060999991909081206004+69100+027217FM-12+014999999V0203601N006219999999N0000001N9+00721+99999098471ADDGF108991999999999999999999
0029028060999991909081213004+69100+027217FM-12+014999999V0200201N008219999999N0000001N9+01001+99999098541ADDGF108991999999999999999999
0029028060999991909081220004+69100+027217FM-12+014999999V0200901N002119999999N0000001N9+00891+99999098621ADDGF108991999999999999999999
0029028060999991909081306004+69100+027217FM-12+014999999V0200201N008219999999N0000001N9+00721+99999098181ADDGF108991999999999999999999
0029028060999991909081313004+69100+027217FM-12+014999999V0201101N004119999999N0000001N9+01221+99999097981ADDGF104991999999999999999999
0029028060999991909081320004+69100+027217FM-12+014999999V0200901N008219999999N0000001N9+01001+99999097791ADDGF108991999999999999999999
0029028060999991909081406004+69100+027217FM-12+014999999V0200901N009819999999N0000001N9+00781+99999098151ADDGF108991999999999999999999
0029028060999991909081413004+69100+027217FM-12+014999999V0200701N009819999999N0000001N9+01171+99999098241ADDGF106991999999999999999999
0029028060999991909081420004+69100+027217FM-12+014999999V0200701N008219999999N0000001N9+00721+99999098601ADDGF108991999999999999999999
0029028060999991909081506004+69100+027217FM-12+014999999V0200701N008219999999N0000001N9+00441+99999099031ADDGF108991999999999999999999
0029028060999991909081513004+69100+027217FM-12+014999999V0201101N008219999999N0000001N9+01171+99999099101ADDGF104991999999999999999999
0029028060999991909081520004+69100+027217FM-12+014999999V0200901N008219999999N0000001N9+01061+99999099271ADDGF106991999999999999999999
0029028060999991909081606004+69100+027217FM-12+014999999V0200701N009819999999N0000001N9+00561+99999099301ADDGF108991999999999999999999
0029028060999991909081613004+69100+027217FM-12+014999999V0200501N009819999999N0000001N9+01001+99999099021ADDGF108991999999999999999999
0029028060999991909081620004+69100+027217FM-12+014999999V0200901N008219999999N0000001N9+00891+99999098961ADDGF108991999999999999999999
0035028060999991909081706004+69100+027217FM-12+014999999V0200701N008219999999N0000001N9+01001+99999098741ADDGF108991999999999999999999MW1621
0029028060999991909081713004+69100+027217FM-12+014999999V0202001N009819999999N0000001N9+01671+99999098921ADDGF104991999999999999999999
0029028060999991909081720004+69100+027217FM-12+014999999V0201801N002119999999N0000001N9+01221+99999099441ADDGF104991999999999999999999
0029028060999991909081806004+69100+027217FM-12+014999999V0202001N004119999999N0000001N9+01221+99999099671ADDGF100991999999999999999999
0029028060999991909081813004+69100+027217FM-12+014999999V0202501N009819999999N0000001N9+01831+99999099621ADDGF100991999999999999999999
0029028060999991909081820004+69100+027217FM-12+014999999V0202301N001019999999N0000001N9+01331+99999099641ADDGF104991999999999999999999
0029028060999991909081906004+69100+027217FM-12+014999999V0202701N008219999999N0000001N9+01441+99999099721ADDGF108991999999999999999999
0035028060999991909081913004+69100+027217FM-12+014999999V0202701N004119999999N0000001N9+01441+99999099741ADDGF108991999999999999999999MW1621
0029028060999991909081920004+69100+027217FM-12+014999999V0202301N002119999999N0000001N9+01281+99999099581ADDGF104991999999999999999999
0029028060999991909082006004+69100+027217FM-12+014999999V0201801N004119999999N0000001N9+01611+99999099361ADDGF106991999999999999999999
0029028060999991909082013004+69100+027217FM-12+014999999V0202001N008219999999N0000001N9+02331+99999099121ADDGF100991999999999999999999
0029028060999991909082020004+69100+027217FM-12+014999999V0202701N002119999999N0000001N9+01561+99999099261ADDGF108991999999999999999999
0029028060999991909082106004+69100+027217FM-12+014999999V0201801N004119999999N0000001N9+01611+99999099351ADDGF108991999999999999999999
0029028060999991909082113004+69100+027217FM-12+014999999V0202301N008219999999N0000001N9+02061+99999099391ADDGF108991999999999999999999
0029028060999991909082120004+69100+027217FM-12+014999999V0209991C000019999999N0000001N9+01561+99999099351ADDGF106991999999999999999999
0029028060999991909082206004+69100+027217FM-12+014999999V0202001N004119999999N0000001N9+01611+99999099631ADDGF106991999999999999999999
0029028060999991909082213004+69100+027217FM-12+014999999V0201801N008219999999N0000001N9+02111+99999099741ADDGF104991999999999999999999
0029028060999991909082220004+69100+027217FM-12+014999999V0201801N004119999999N0000001N9+01611+99999099801ADDGF104991999999999999999999
0029028060999991909082306004+69100+027217FM-12+014999999V0201801N002119999999N0000001N9+01501+99999100031ADDGF100991999999999999999999
0029028060999991909082313004+69100+027217FM-12+014999999V0202301N008219999999N0000001N9+02171+99999099991ADDGF100991999999999999999999
0029028060999991909082320004+69100+027217FM-12+014999999V0201801N002119999999N0000001N9+01721+99999099841ADDGF104991999999999999999999
0029028060999991909082406004+69100+027217FM-12+014999999V0201601N004119999999N0000001N9+01501+99999099831ADDGF100991999999999999999999
0029028060999991909082413004+69100+027217FM-12+014999999V0201101N009819999999N0000001N9+02221+99999099581ADDGF100991999999999999999999
0029028060999991909082420004+69100+027217FM-12+014999999V0201101N009819999999N0000001N9+01611+99999099361ADDGF100991999999999999999999
0029028060999991909082506004+69100+027217FM-12+014999999V0201801N008219999999N0000001N9+00831+99999099261ADDGF104991999999999999999999
0029028060999991909082513004+69100+027217FM-12+014999999V0202301N011819999999N0000001N9+01331+99999099161ADDGF108991999999999999999999
0029028060999991909082520004+69100+027217FM-12+014999999V0202301N020119999999N0000001N9+01171+99999099241ADDGF104991999999999999999999
0029028060999991909082606004+69100+027217FM-12+014999999V0202501N004119999999N0000001N9+00891+99999099861ADDGF100991999999999999999999
0029028060999991909082613004+69100+027217FM-12+014999999V0202701N004119999999N0000001N9+01221+99999099871ADDGF108991999999999999999999
0029028060999991909082620004+69100+027217FM-12+014999999V0209991C000019999999N0000001N9+00941+99999099751ADDGF104991999999999999999999
0029028060999991909082706004+69100+027217FM-12+014999999V0202301N004119999999N0000001N9+01331+99999099471ADDGF108991999999999999999999
0029028060999991909082713004+69100+027217FM-12+014999999V0202001N009819999999N0000001N9+01561+99999098711ADDGF108991999999999999999999
0035028060999991909082720004+69100+027217FM-12+014999999V0202301N004119999999N0000001N9+01281+99999098711ADDGF108991999999999999999999MW1621
0029028060999991909082806004+69100+027217FM-12+014999999V0202501N006219999999N0000001N9+01281+99999098441ADDGF108991999999999999999999
0029028060999991909082813004+69100+027217FM-12+014999999V0202701N004119999999N0000001N9+01721+99999098421ADDGF104991999999999999999999
0035028060999991909082820004+69100+027217FM-12+014999999V0203201N020119999999N0000001N9+01001+99999098341ADDGF108991999999999999999999MW1621
0029028060999991909082906004+69100+027217FM-12+014999999V0202701N004119999999N0000001N9+01001+99999098421ADDGF104991999999999999999999
0029028060999991909082913004+69100+027217FM-12+014999999V0209991C000019999999N0000001N9+01281+99999098271ADDGF104991999999999999999999
0029028060999991909082920004+69100+027217FM-12+014999999V0202701N004119999999N0000001N9+01111+99999098201ADDGF108991999999999999999999
0029028060999991909083006004+69100+027217FM-12+014999999V0202701N004119999999N0000001N9+00721+99999098301ADDGF108991999999999999999999
0029028060999991909083013004+69100+027217FM-12+014999999V0202501N002119999999N0000001N9+01221+99999098221ADDGF106991999999999999999999
0035028060999991909083020004+69100+027217FM-12+014999999V0200501N009819999999N0000001N9+00721+99999097631ADDGF108991999999999999999999MW1641
0029028060999991909083106004+69100+027217FM-12+014999999V0202701N006219999999N0000001N9+00891+99999098141ADDGF106991999999999999999999
0029028060999991909083113004+69100+027217FM-12+014999999V0200501N004119999999N0000001N9+01221+99999098461ADDGF104991999999999999999999
0029028060999991909083120004+69100+027217FM-12+014999999V0200501N008219999999N0000001N9+00941+99999098511ADDGF108991999999999999999999
0029028060999991909090106004+69100+027217FM-12+014999999V0200901N008219999999N0000001N9+00941+99999097961ADDGF108991999999999999999999
0029028060999991909090113004+69100+027217FM-12+014999999V0200901N008219999999N0000001N9+01501+99999097541ADDGF108991999999999999999999
0029028060999991909090120004+69100+027217FM-12+014999999V0201801N008219999999N0000001N9+01221+99999097081ADDGF106991999999999999999999
0035028060999991909090206004+69100+027217FM-12+014999999V0201801N006219999999N0000001N9+01001+99999097241ADDGF108991999999999999999999MW1621
0035028060999991909090213004+69100+027217FM-12+014999999V0201801N011819999999N0000001N9+01221+99999097511ADDGF108991999999999999999999MW1621
0029028060999991909090220004+69100+027217FM-12+014999999V0201801N008219999999N0000001N9+00891+99999097551ADDGF106991999999999999999999
