0029028060999991910010106004+69100+027217FM-12+014999999V0209991C000019999999N0000001N9-00941+99999098201ADDGF100991999999999999999999
0029028060999991910010113004+69100+027217FM-12+014999999V0202001N008219999999N0000001N9-01001+99999098421ADDGF104991999999999999999999
0029028060999991910010120004+69100+027217FM-12+014999999V0201801N002119999999N0000001N9-01171+99999098081ADDGF100991999999999999999999
0029028060999991910010206004+69100+027217FM-12+014999999V0202001N002119999999N0000001N9-00221+99999096991ADDGF108991999999999999999999
0035028060999991910010213004+69100+027217FM-12+014999999V0201601N002119999999N0000001N9-00331+99999096871ADDGF108991999999999999999999MW1721
0035028060999991910010220004+69100+027217FM-12+014999999V0209991C000019999999N0000001N9-00441+99999096831ADDGF108991999999999999999999MW1721
0029028060999991910010306004+69100+027217FM-12+014999999V0209991C000019999999N0000001N9-00721+99999096831ADDGF106991999999999999999999
0029028060999991910010313004+69100+027217FM-12+014999999V0209991C000019999999N0000001N9-01281+99999097261ADDGF108991999999999999999999
0029028060999991910010320004+69100+027217FM-12+014999999V0209991C000019999999N0000001N9-00671+99999096961ADDGF108991999999999999999999
0035028060999991910010406004+69100+027217FM-12+014999999V0201401N008219999999N0000001N9-00501+99999096081ADDGF108991999999999999999999MW1721
0029028060999991910010413004+69100+027217FM-12+014999999V0202701N002119999999N0000001N9-01111+99999096801ADDGF104991999999999999999999
0029028060999991910010420004+69100+027217FM-12+014999999V0209991C000019999999N0000001N9-00941+99999097621ADDGF108991999999999999999999
0029028060999991910010506004+69100+027217FM-12+014999999V0202001N002119999999N0000001N9-00781+99999098911ADDGF108991999999999999999999
0029028060999991910010513004+69100+027217FM-12+014999999V0202301N004119999999N0000001N9-01001+99999099781ADDGF108991999999999999999999
0029028060999991910010520004+69100+027217FM-12+014999999V0202301N008219999999N0000001N9-01111+99999100121ADDGF108991999999999999999999
0029028060999991910010606004+69100+027217FM-12+014999999V0202301N008219999999N0000001N9-01611+99999999999ADDGF108991999999999999999999
0035028060999991910010613004+69100+027217FM-12+014999999V0202001N011819999999N0000001N9-01501+99999099761ADDGF108991999999999999999999MW1721
0029028060999991910010620004+69100+027217FM-12+014999999V0202001N027819999999N0000001N9-01171+99999098881ADDGF108991999999999999999999
0029028060999991910010706004+69100+027217FM-12+014999999V0202301N008219999999N0000001N9-00721+99999098701ADDGF108991999999999999999999
0029028060999991910010713004+69100+027217FM-12+014999999V0202501N004119999999N0000001N9-00171+99999098431ADDGF104991999999999999999999
0029028060999991910010720004+69100+027217FM-12+014999999V0202001N013919999999N0000001N9+00221+99999097801ADDGF108991999999999999999999
0029028060999991910010806004+69100+027217FM-12+014999999V0202301N006219999999N0000001N9+00221+99999097871ADDGF104991999999999999999999
0029028060999991910010813004+69100+027217FM-12+014999999V0202301N008219999999N0000001N9+00281+99999097481ADDGF104991999999999999999999
0029028060999991910010820004+69100+027217FM-12+014999999V0201801N013919999999N0000001N9+00331+99999097031ADDGF108991999999999999999999
0029028060999991910010906004+69100+027217FM-12+014999999V0201801N002119999999N0000001N9+00611+99999098401ADDGF100991999999999999999999
0029028060999991910010913004+69100+027217FM-12+014999999V0209991C000019999999N0000001N9-01391+99999098741ADDGF108991999999999999999999
0029028060999991910010920004+69100+027217FM-12+014999999V0201801N006219999999N0000001N9-00391+99999097901ADDGF108991999999999999999999
0029028060999991910011006004+69100+027217FM-12+014999999V0201801N020119999999N0000001N9+00001+99999096221ADDGF108991999999999999999999
0035028060999991910011013004+69100+027217FM-12+014999999V0201601N008219999999N0000001N9+00001+99999095221ADDGF108991999999999999999999MW1721
0029028060999991910011020004+69100+027217FM-12+014999999V0201801N020119999999N0000001N9+00001+99999104831ADDGF108991999999999999999999
0029028060999991910011106004+69100+027217FM-12+014999999V0202301N006219999999N0000001N9-00221+99999104951ADDGF104991999999999999999999
0048028060999991910011113004+69100+027217FM-12+014999999V0202501N006219999999N0000001N9-00781+99999999999ADDGF104991999999999999999999EQDQ01 095063APOSLP
0029028060999991910011120004+69100+027217FM-12+014999999V0202001N006219999999N0000001N9-00501+99999104901ADDGF106991999999999999999999
0029028060999991910011206004+69100+027217FM-12+014999999V0202001N008219999999N0000001N9-00561+99999104991ADDGF100991999999999999999999
0029028060999991910011213004+69100+027217FM-12+014999999V0202001N004119999999N0000001N9-01111+99999095232ADDGF100991999999999999999999
0029028060999991910011220004+69100+027217FM-12+014999999V0202001N002119999999N0000001N9-01111+99999095711ADDGF108991999999999999999999
0029028060999991910011306004+69100+027217FM-12+014999999V0209991C000019999999N0000001N9-01111+99999096481ADDGF100991999999999999999999
0029028060999991910011313004+69100+027217FM-12+014999999V0203401N002119999999N0000001N9-01111+99999097241ADDGF106991999999999999999999
0029028060999991910011320004+69100+027217FM-12+014999999V0209991C000019999999N0000001N9-01061+99999097621ADDGF100991999999999999999999
0029028060999991910011406004+69100+027217FM-12+014999999V0209991C000019999999N0000001N9-01501+99999097981ADDGF100991999999999999999999
0029028060999991910011413004+69100+027217FM-12+014999999V0209991C000019999999N0000001N9-02501+99999098461ADDGF100991999999999999999999
0029028060999991910011420004+69100+027217FM-12+014999999V0209991C000019999999N0000001N9-03061+99999098441ADDGF100991999999999999999999
0029028060999991910011506004+69100+027217FM-12+014999999V0209991C000019999999N0000001N9-03061+99999098461ADDGF100991999999999999999999
0029028060999991910011513004+69100+027217FM-12+014999999V0200501N002119999999N0000001N9-02331+99999098501ADDGF100991999999999999999999
0035028060999991910011520004+69100+027217FM-12+014999999V0209991C000019999999N0000001N9-01941+99999098321ADDGF108991999999999999999999MW1721
0035028060999991910011606004+69100+027217FM-12+014999999V0209991C000019999999N0000001N9-01221+99999097911ADDGF108991999999999999999999MW1721
0035028060999991910011613004+69100+027217FM-12+014999999V0200501N002119999999N0000001N9-01001+99999098361ADDGF108991999999999999999999MW1721
0029028060999991910011620004+69100+027217FM-12+014999999V0209991C000019999999N0000001N9-02721+99999097311ADDGF100991999999999999999999
0029028060999991910011706004+69100+027217FM-12+014999999V0200201N002119999999N0000001N9-03221+99999097981ADDGF106991999999999999999999
0029028060999991910011713004+69100+027217FM-12+014999999V0209991C000019999999N0000001N9-02111+99999097621ADDGF100991999999999999999999
0035028060999991910011720004+69100+027217FM-12+014999999V0209991C000019999999N0000001N9-01221+99999097081ADDGF108991999999999999999999MW1721
0035028060999991910011806004+69100+027217FM-12+014999999V0200501N006219999999N0000001N9-01001+99999096001ADDGF108991999999999999999999MW1721
0029028060999991910011813004+69100+027217FM-12+014999999V0200201N008219999999N0000001N9-00561+99999095941ADDGF108991999999999999999999
0029028060999991910011820004+69100+027217FM-12+014999999V0200201N015919999999N0000001N9-00721+99999096281ADDGF108991999999999999999999
0035028060999991910011906004+69100+027217FM-12+014999999V0200201N009819999999N0000001N9-01001+99999096541ADDGF108991999999999999999999MW1721
0029028060999991910011913004+69100+027217FM-12+014999999V0200501N004119999999N0000001N9-01061+99999097161ADDGF108991999999999999999999
0029028060999991910011920004+69100+027217FM-12+014999999V0209991C000019999999N0000001N9-02281+99999097551ADDGF100991999999999999999999
0029028060999991910012006004+69100+027217FM-12+014999999V0202001N006219999999N0000001N9-01611+99999097751ADDGF108991999999999999999999
0029028060999991910012013004+69100+027217FM-12+014999999V0202001N002119999999N0000001N9-01891+99999097941ADDGF100991999999999999999999
0029028060999991910012020004+69100+027217FM-12+014999999V0209991C000019999999N0000001N9-02111+99999097941ADDGF100991999999999999999999
0029028060999991910012106004+69100+027217FM-12+014999999V0202001N008219999999N0000001N9-01221+99999097621ADDGF108991999999999999999999
0029028060999991910012113004+69100+027217FM-12+014999999V0202001N008219999999N0000001N9-01561+99999097911ADDGF100991999999999999999999
0029028060999991910012120004+69100+027217FM-12+014999999V0202001N002119999999N0000001N9-01891+99999098271ADDGF100991999999999999999999
0029028060999991910012206004+69100+027217FM-12+014999999V0202001N002119999999N0000001N9-01721+99999098381ADDGF106991999999999999999999
0029028060999991910012213004+69100+027217FM-12+014999999V0202001N002119999999N0000001N9-01781+99999098501ADDGF108991999999999999999999
0029028060999991910012220004+69100+027217FM-12+014999999V0202001N002119999999N0000001N9-01891+99999099201ADDGF100991999999999999999999
0029028060999991910012306004+69100+027217FM-12+014999999V0209991C000019999999N0000001N9-01391+99999099831ADDGF108991999999999999999999
0029028060999991910012313004+69100+027217FM-12+014999999V0209991C000019999999N0000001N9-02441+99999100321ADDGF100991999999999999999999
0029028060999991910012320004+69100+027217FM-12+014999999V0202001N002119999999N0000001N9-02781+99999100501ADDGF100991999999999999999999
0029028060999991910012406004+69100+027217FM-12+014999999V0202001N006219999999N0000001N9-02001+99999100261ADDGF106991999999999999999999
0029028060999991910012413004+69100+027217FM-12+014999999V0202501N011819999999N0000001N9-01941+99999100061ADDGF100991999999999999999999
0029028060999991910012420004+69100+027217FM-12+014999999V0202501N009819999999N0000001N9-01671+99999099681ADDGF100991999999999999999999
0029028060999991910012506004+69100+027217FM-12+014999999V0202001N008219999999N0000001N9-01281+99999099201ADDGF107991999999999999999999
0029028060999991910012513004+69100+027217FM-12+014999999V0202701N002119999999N0000001N9-01441+99999099191ADDGF106991999999999999999999
0029028060999991910012520004+69100+027217FM-12+014999999V0209991C000019999999N0000001N9-01281+99999099041ADDGF104991999999999999999999
0029028060999991910012606004+69100+027217FM-12+014999999V0200501N002119999999N0000001N9-01111+99999098261ADDGF108991999999999999999999
0035028060999991910012613004+69100+027217FM-12+014999999V0200701N008219999999N0000001N9-01171+99999097901ADDGF108991999999999999999999MW1721
0029028060999991910012620004+69100+027217FM-12+014999999V0200701N002119999999N0000001N9-01781+99999098241ADDGF100991999999999999999999
0029028060999991910012706004+69100+027217FM-12+014999999V0202001N002119999999N0000001N9-01561+99999098821ADDGF108991999999999999999999
0029028060999991910012713004+69100+027217FM-12+014999999V0200901N001019999999N0000001N9-01721+99999099101ADDGF106991999999999999999999
0029028060999991910012720004+69100+027217FM-12+014999999V0209991C000019999999N0000001N9-01891+99999099301ADDGF108991999999999999999999
0035028060999991910012806004+69100+027217FM-12+014999999V0200501N006219999999N0000001N9-01441+99999099041ADDGF108991999999999999999999MW1741
0035028060999991910012813004+69100+027217FM-12+014999999V0200901N001019999999N0000001N9-01111+99999098561ADDGF108991999999999999999999MW1741
0035028060999991910012820004+69100+027217FM-12+014999999V0209991C000019999999N0000001N9-00831+99999098141ADDGF108991999999999999999999MW1701
0029028060999991910012906004+69100+027217FM-12+014999999V0202301N008219999999N0000001N9-01221+99999098421ADDGF104991999999999999999999
0029028060999991910012913004+69100+027217FM-12+014999999V0202301N004119999999N0000001N9-00831+99999098511ADDGF108991999999999999999999
0035028060999991910012920004+69100+027217FM-12+014999999V0202301N013919999999N0000001N9-00671+99999098661ADDGF108991999999999999999999MW1721
0035028060999991910013006004+69100+027217FM-12+014999999V0201401N002119999999N0000001N9-00671+99999098501ADDGF108991999999999999999999MW1721
0035028060999991910013013004+69100+027217FM-12+014999999V0202301N008219999999N0000001N9-00501+99999098231ADDGF108991999999999999999999MW1721
0029028060999991910013020004+69100+027217FM-12+014999999V0202001N008219999999N0000001N9-00441+99999097981ADDGF108991999999999999999999
0029028060999991910013106004+69100+027217FM-12+014999999V0201801N004119999999N0000001N9-00501+99999097351ADDGF108991999999999999999999
0029028060999991910013113004+69100+027217FM-12+014999999V0209991C000019999999N0000001N9-00671+99999097261ADDGF108991999999999999999999
0029028060999991910013120004+69100+027217FM-12+014999999V0202001N006219999999N0000001N9-00671+99999097301ADDGF108991999999999999999999
0029028060999991910020106004+69100+027217FM-12+014999999V0202701N008219999999N0000001N9-00721+99999098301ADDGF100991999999999999999999
0029028060999991910020113004+69100+027217FM-12+014999999V0202701N009819999999N0000001N9-01221+99999098161ADDGF108991999999999999999999
0029028060999991910020120004+69100+027217FM-12+014999999V0209991C000019999999N0000001N9-01391+99999098021ADDGF100991999999999999999999
0029028060999991910020206004+69100+027217FM-12+014999999V0209991C000019999999N0000001N9-02941+99999098541ADDGF100991999999999999999999
0029028060999991910020213004+69100+027217FM-12+014999999V0209991C000019999999N0000001N9-02171+99999098871ADDGF108991999999999999999999
0035028060999991910020220004+69100+027217FM-12+014999999V0209991C000019999999N0000001N9-01331+99999098671ADDGF108991999999999999999999MW1701
0029028060999991910020306004+69100+027217FM-12+014999999V0202701N004119999999N0000001N9-00331+99999098781ADDGF108991999999999999999999
0029028060999991910020313004+69100+027217FM-12+014999999V0202301N009819999999N0000001N9-00171+99999098981ADDGF108991999999999999999999
0029028060999991910020320004+69100+027217FM-12+014999999V0202001N011819999999N0000001N9-00281+99999098861ADDGF108991999999999999999999
0029028060999991910020406004+69100+027217FM-12+014999999V0202001N006219999999N0000001N9-00281+99999099031ADDGF108991999999999999999999
0029028060999991910020413004+69100+027217FM-12+014999999V0202301N008219999999N0000001N9-00281+99999098991ADDGF108991999999999999999999
0029028060999991910020420004+69100+027217FM-12+014999999V0202301N027819999999N0000001N9-00221+99999098901ADDGF108991999999999999999999
0029028060999991910020506004+69100+027217FM-12+014999999V0202301N013919999999N0000001N9-00611+99999098421ADDGF108991999999999999999999
0029028060999991910020513004+69100+027217FM-12+014999999V0202301N009819999999N0000001N9-00611+99999098321ADDGF108991999999999999999999
0029028060999991910020520004+69100+027217FM-12+014999999V0202301N006219999999N0000001N9-00721+99999097671ADDGF108991999999999999999999
0035028060999991910020606004+69100+027217FM-12+014999999V0201401N009819999999N0000001N9-00171+99999096161ADDGF108991999999999999999999MW1721
0029028060999991910020613004+69100+027217FM-12+014999999V0202301N013919999999N0000001N9+00001+99999095751ADDGF108991999999999999999999
0029028060999991910020620004+69100+027217FM-12+014999999V0201801N009819999999N0000001N9+00001+99999095261ADDGF108991999999999999999999
0048028060999991910020706004+69100+027217FM-12+014999999V0202301N008219999999N0000001N9-00111+99999999999ADDGF108991999999999999999999EQDQ01 104903APOSLP
0029028060999991910020713004+69100+027217FM-12+014999999V0202301N009819999999N0000001N9-00171+99999095081ADDGF107991999999999999999999
0029028060999991910020720004+69100+027217FM-12+014999999V0202301N004119999999N0000001N9-00281+99999095161ADDGF108991999999999999999999
0029028060999991910020806004+69100+027217FM-12+014999999V0202701N004119999999N0000001N9-00721+99999095461ADDGF106991999999999999999999
0029028060999991910020813004+69100+027217FM-12+014999999V0202701N004119999999N0000001N9-01001+99999096041ADDGF100991999999999999999999
0029028060999991910020820004+69100+027217FM-12+014999999V0202301N002119999999N0000001N9-01391+99999096871ADDGF100991999999999999999999
0029028060999991910020906004+69100+027217FM-12+014999999V0209991C000019999999N0000001N9-01001+99999097551ADDGF106991999999999999999999
0029028060999991910020913004+69100+027217FM-12+014999999V0202301N002119999999N0000001N9-00561+99999097981ADDGF108991999999999999999999
0029028060999991910020920004+69100+027217FM-12+014999999V0209991C000019999999N0000001N9-00831+99999098421ADDGF108991999999999999999999
0029028060999991910021006004+69100+027217FM-12+014999999V0209991C000019999999N0000001N9-01111+99999099071ADDGF108991999999999999999999
0029028060999991910021013004+69100+027217FM-12+014999999V0202301N006219999999N0000001N9-00561+99999099071ADDGF100991999999999999999999
0029028060999991910021020004+69100+027217FM-12+014999999V0209991C000019999999N0000001N9-01061+99999099031ADDGF100991999999999999999999
0029028060999991910021106004+69100+027217FM-12+014999999V0202001N004119999999N0000001N9-00781+99999098481ADDGF108991999999999999999999
0035028060999991910021113004+69100+027217FM-12+014999999V0202301N013919999999N0000001N9-00611+99999098311ADDGF106991999999999999999999MW1721
0029028060999991910021120004+69100+027217FM-12+014999999V0202301N013919999999N0000001N9-00501+99999098021ADDGF108991999999999999999999
0029028060999991910021206004+69100+027217FM-12+014999999V0202501N008219999999N0000001N9-00391+99999097951ADDGF106991999999999999999999
0029028060999991910021213004+69100+027217FM-12+014999999V0202501N008219999999N0000001N9-00391+99999098431ADDGF100991999999999999999999
0029028060999991910021220004+69100+027217FM-12+014999999V0202301N006219999999N0000001N9-00391+99999098601ADDGF104991999999999999999999
0029028060999991910021306004+69100+027217FM-12+014999999V0202301N009819999999N0000001N9-00111+99999098111ADDGF108991999999999999999999
0029028060999991910021313004+69100+027217FM-12+014999999V0202301N013919999999N0000001N9-00111+99999097421ADDGF108991999999999999999999
0029028060999991910021320004+69100+027217FM-12+014999999V0202301N027819999999N0000001N9+00111+99999097511ADDGF104991999999999999999999
0029028060999991910021406004+69100+027217FM-12+014999999V0202301N013919999999N0000001N9+00221+99999098241ADDGF108991999999999999999999
0029028060999991910021413004+69100+027217FM-12+014999999V0202501N009819999999N0000001N9+00001+99999098661ADDGF104991999999999999999999
0029028060999991910021420004+69100+027217FM-12+014999999V0202301N009819999999N0000001N9+00111+99999098871ADDGF108991999999999999999999
0029028060999991910021506004+69100+027217FM-12+014999999V0202501N011819999999N0000001N9+00001+99999098561ADDGF108991999999999999999999
0029028060999991910021513004+69100+027217FM-12+014999999V0202501N020119999999N0000001N9-00111+99999098621ADDGF106991999999999999999999
0029028060999991910021520004+69100+027217FM-12+014999999V0202301N009819999999N0000001N9-00061+99999098641ADDGF108991999999999999999999
0029028060999991910021606004+69100+027217FM-12+014999999V0202301N009819999999N0000001N9-00501+99999098591ADDGF108991999999999999999999
0029028060999991910021613004+69100+027217FM-12+014999999V0202301N009819999999N0000001N9-00831+99999098741ADDGF104991999999999999999999
0029028060999991910021620004+69100+027217FM-12+014999999V0202301N008219999999N0000001N9-01221+99999098791ADDGF104991999999999999999999
0029028060999991910021706004+69100+027217FM-12+014999999V0202301N008219999999N0000001N9-01001+99999098961ADDGF108991999999999999999999
0029028060999991910021713004+69100+027217FM-12+014999999V0202301N008219999999N0000001N9-00781+99999098721ADDGF108991999999999999999999
0029028060999991910021720004+69100+027217FM-12+014999999V0202001N006219999999N0000001N9-00611+99999098701ADDGF108991999999999999999999
0029028060999991910021806004+69100+027217FM-12+014999999V0201801N008219999999N0000001N9-00391+99999098101ADDGF108991999999999999999999
0029028060999991910021813004+69100+027217FM-12+014999999V0201601N008219999999N0000001N9-00281+99999097601ADDGF108991999999999999999999
0035028060999991910021820004+69100+027217FM-12+014999999V0201801N009819999999N0000001N9-00111+99999097281ADDGF108991999999999999999999MW1721
0029028060999991910021906004+69100+027217FM-12+014999999V0202001N004119999999N0000001N9+00111+99999096841ADDGF108991999999999999999999
0029028060999991910021913004+69100+027217FM-12+014999999V0202501N008219999999N0000001N9+00281+99999096921ADDGF106991999999999999999999
0029028060999991910021920004+69100+027217FM-12+014999999V0209991C000019999999N0000001N9+00111+99999097561ADDGF104991999999999999999999
0029028060999991910022006004+69100+027217FM-12+014999999V0209991C000019999999N0000001N9-00501+99999098951ADDGF100991999999999999999999
0029028060999991910022013004+69100+027217FM-12+014999999V0200901N001019999999N0000001N9-00171+99999098951ADDGF108991999999999999999999
0029028060999991910022020004+69100+027217FM-12+014999999V0202301N027819999999N0000001N9+00111+99999098881ADDGF106991999999999999999999
0029028060999991910022106004+69100+027217FM-12+014999999V0202301N027819999999N0000001N9+00001+99999098841ADDGF108991999999999999999999
0029028060999991910022113004+69100+027217FM-12+014999999V0202501N015919999999N0000001N9+00171+99999099081ADDGF106991999999999999999999
0029028060999991910022120004+69100+027217FM-12+014999999V0202301N015919999999N0000001N9-00061+99999099021ADDGF108991999999999999999999
0029028060999991910022206004+69100+027217FM-12+014999999V0202301N020119999999N0000001N9+00001+99999098671ADDGF108991999999999999999999
0029028060999991910022213004+69100+027217FM-12+014999999V0202301N015919999999N0000001N9+00111+99999098881ADDGF108991999999999999999999
0029028060999991910022220004+69100+027217FM-12+014999999V0202001N020119999999N0000001N9+00281+99999098981ADDGF108991999999999999999999
0029028060999991910022306004+69100+027217FM-12+014999999V0202301N008219999999N0000001N9+00001+99999099161ADDGF108991999999999999999999
0035028060999991910022313004+69100+027217FM-12+014999999V0202001N006219999999N0000001N9-00281+99999098991ADDGF108991999999999999999999MW1721
0029028060999991910022320004+69100+027217FM-12+014999999V0201801N009819999999N0000001N9-00441+99999098831ADDGF108991999999999999999999
0029028060999991910022406004+69100+027217FM-12+014999999V0201801N008219999999N0000001N9-00111+99999098881ADDGF108991999999999999999999
0029028060999991910022413004+69100+027217FM-12+014999999V0202001N004119999999N0000001N9+00061+99999098921ADDGF100991999999999999999999
0029028060999991910022420004+69100+027217FM-12+014999999V0202301N004119999999N0000001N9-00391+99999099021ADDGF100991999999999999999999
0029028060999991910022506004+69100+027217FM-12+014999999V0202301N002119999999N0000001N9-00501+99999099241ADDGF108991999999999999999999
0029028060999991910022513004+69100+027217FM-12+014999999V0202301N002119999999N0000001N9-00391+99999099191ADDGF108991999999999999999999
0029028060999991910022520004+69100+027217FM-12+014999999V0202301N002119999999N0000001N9-00501+99999098881ADDGF108991999999999999999999
0035028060999991910022606004+69100+027217FM-12+014999999V0200501N001019999999N0000001N9-00611+99999098281ADDGF108991999999999999999999MW1721
0035028060999991910022613004+69100+027217FM-12+014999999V0200901N002119999999N0000001N9-00501+99999098311ADDGF108991999999999999999999MW1721
0029028060999991910022620004+69100+027217FM-12+014999999V0209991C000019999999N0000001N9-00721+99999098391ADDGF108991999999999999999999
0029028060999991910022706004+69100+027217FM-12+014999999V0209991C000019999999N0000001N9-01111+99999098591ADDGF108991999999999999999999
0029028060999991910022713004+69100+027217FM-12+014999999V0202501N004119999999N0000001N9-00671+99999098841ADDGF104991999999999999999999
0029028060999991910022720004+69100+027217FM-12+014999999V0201801N004119999999N0000001N9-01061+99999099111ADDGF104991999999999999999999
0029028060999991910022806004+69100+027217FM-12+014999999V0202301N008219999999N0000001N9-01221+99999099591ADDGF108991999999999999999999
0035028060999991910022813004+69100+027217FM-12+014999999V0202701N006219999999N0000001N9-00721+99999099801ADDGF108991999999999999999999MW1721
0029028060999991910022820004+69100+027217FM-12+014999999V0209991C000019999999N0000001N9-00891+99999099911ADDGF108991999999999999999999
0029028060999991910030106004+69100+027217FM-12+014999999V0209991C000019999999N0000001N9-01111+99999099681ADDGF108991999999999999999999
0029028060999991910030113004+69100+027217FM-12+014999999V0209991C000019999999N0000001N9-01111+99999099911ADDGF108991999999999999999999
0029028060999991910030120004+69100+027217FM-12+014999999V0209991C000019999999N0000001N9-02501+99999100281ADDGF100991999999999999999999
0029028060999991910030206004+69100+027217FM-12+014999999V0209991C000019999999N0000001N9-02281+99999100631ADDGF104991999999999999999999
0029028060999991910030213004+69100+027217FM-12+014999999V0209991C000019999999N0000001N9-01221+99999100581ADDGF104991999999999999999999
0029028060999991910030220004+69100+027217FM-12+014999999V0209991C000019999999N0000001N9-01441+99999100601ADDGF108991999999999999999999
0029028060999991910030306004+69100+027217FM-12+014999999V0209991C000019999999N0000001N9-01441+99999100271ADDGF106991999999999999999999
0029028060999991910030313004+69100+027217FM-12+014999999V0202501N002119999999N0000001N9-00831+99999100241ADDGF100991999999999999999999
0029028060999991910030320004+69100+027217FM-12+014999999V0209991C000019999999N0000001N9-01781+99999100231ADDGF100991999999999999999999
0029028060999991910030406004+69100+027217FM-12+014999999V0209991C000019999999N0000001N9-01391+99999100471ADDGF100991999999999999999999
0029028060999991910030413004+69100+027217FM-12+014999999V0201101N004119999999N0000001N9-01061+99999100191ADDGF108991999999999999999999
0035028060999991910030420004+69100+027217FM-12+014999999V0202301N004119999999N0000001N9-00721+99999099301ADDGF108991999999999999999999MW1721
0029028060999991910030506004+69100+027217FM-12+014999999V0202301N002119999999N0000001N9+00061+99999099391ADDGF104991999999999999999999
0029028060999991910030513004+69100+027217FM-12+014999999V0203401N004119999999N0000001N9-00111+99999099991ADDGF104991999999999999999999
0029028060999991910030520004+69100+027217FM-12+014999999V0209991C000019999999N0000001N9-01221+99999099991ADDGF108991999999999999999999
0029028060999991910030606004+69100+027217FM-12+014999999V0202301N004119999999N0000001N9-00501+99999100821ADDGF106991999999999999999999
0029028060999991910030613004+69100+027217FM-12+014999999V0202501N008219999999N0000001N9-00221+99999100861ADDGF108991999999999999999999
0029028060999991910030620004+69100+027217FM-12+014999999V0202301N009819999999N0000001N9-00281+99999100381ADDGF108991999999999999999999
0029028060999991910030706004+69100+027217FM-12+014999999V0202301N008219999999N0000001N9-00391+99999099981ADDGF104991999999999999999999
0029028060999991910030713004+69100+027217FM-12+014999999V0202301N008219999999N0000001N9-00221+99999100021ADDGF104991999999999999999999
0029028060999991910030720004+69100+027217FM-12+014999999V0202301N006219999999N0000001N9-00561+99999100081ADDGF100991999999999999999999
0029028060999991910030806004+69100+027217FM-12+014999999V0202301N008219999999N0000001N9-01281+99999100031ADDGF100991999999999999999999
0029028060999991910030813004+69100+027217FM-12+014999999V0202701N008219999999N0000001N9-00831+99999100021ADDGF106991999999999999999999
0029028060999991910030820004+69100+027217FM-12+014999999V0209991C000019999999N0000001N9-01501+99999999999ADDGF100991999999999999999999
0029028060999991910030906004+69100+027217FM-12+014999999V0209991C000019999999N0000001N9-01611+99999099911ADDGF100991999999999999999999
0029028060999991910030913004+69100+027217FM-12+014999999V0202501N006219999999N0000001N9-00611+99999099831ADDGF100991999999999999999999
0029028060999991910030920004+69100+027217FM-12+014999999V0202501N002119999999N0000001N9-00721+99999099801ADDGF108991999999999999999999
0029028060999991910031006004+69100+027217FM-12+014999999V0202301N004119999999N0000001N9-00781+99999099761ADDGF108991999999999999999999
0029028060999991910031013004+69100+027217FM-12+014999999V0209991C000019999999N0000001N9-00221+99999099471ADDGF108991999999999999999999
0029028060999991910031020004+69100+027217FM-12+014999999V0209991C000019999999N0000001N9-00501+99999099161ADDGF108991999999999999999999
0029028060999991910031106004+69100+027217FM-12+014999999V0200501N004119999999N0000001N9-00501+99999098961ADDGF108991999999999999999999
0029028060999991910031113004+69100+027217FM-12+014999999V0202301N004119999999N0000001N9-00281+99999098821ADDGF108991999999999999999999
0035028060999991910031120004+69100+027217FM-12+014999999V0200501N009819999999N0000001N9-00441+99999098581ADDGF108991999999999999999999MW1721
0029028060999991910031206004+69100+027217FM-12+014999999V0200501N011819999999N0000001N9-00721+99999098841ADDGF108991999999999999999999
0029028060999991910031213004+69100+027217FM-12+014999999V0200501N008219999999N0000001N9-00611+99999099201ADDGF108991999999999999999999
0029028060999991910031220004+69100+027217FM-12+014999999V0209991C000019999999N0000001N9-01111+99999099921ADDGF100991999999999999999999
0029028060999991910031306004+69100+027217FM-12+014999999V0209991C000019999999N0000001N9-01501+99999100391ADDGF100991999999999999999999
0029028060999991910031313004+69100+027217FM-12+014999999V0202901N008219999999N0000001N9-00891+99999100271ADDGF100991999999999999999999
0029028060999991910031320004+69100+027217FM-12+014999999V0202501N006219999999N0000001N9-01281+99999100151ADDGF100991999999999999999999
0029028060999991910031406004+69100+027217FM-12+014999999V0202501N008219999999N0000001N9-01721+99999099981ADDGF104991999999999999999999
0029028060999991910031413004+69100+027217FM-12+014999999V0202701N004119999999N0000001N9-01001+99999099831ADDGF100991999999999999999999
0029028060999991910031420004+69100+027217FM-12+014999999V0202701N002119999999N0000001N9-02221+99999099431ADDGF100991999999999999999999
0035028060999991910031506004+69100+027217FM-12+014999999V0200501N004119999999N0000001N9-01501+99999098701ADDGF108991999999999999999999MW1701
0029028060999991910031513004+69100+027217FM-12+014999999V0202001N004119999999N0000001N9-00721+99999098421ADDGF108991999999999999999999
0029028060999991910031520004+69100+027217FM-12+014999999V0202001N002119999999N0000001N9-00831+99999098161ADDGF108991999999999999999999
0029028060999991910031606004+69100+027217FM-12+014999999V0201801N004119999999N0000001N9-00891+99999097861ADDGF108991999999999999999999
0029028060999991910031613004+69100+027217FM-12+014999999V0202301N006219999999N0000001N9-00501+99999097741ADDGF106991999999999999999999
0029028060999991910031620004+69100+027217FM-12+014999999V0202301N004119999999N0000001N9-00671+99999097791ADDGF106991999999999999999999
0029028060999991910031706004+69100+027217FM-12+014999999V0200901N004119999999N0000001N9-00501+99999097591ADDGF106991999999999999999999
0029028060999991910031713004+69100+027217FM-12+014999999V0201101N004119999999N0000001N9+00061+99999097681ADDGF105991999999999999999999
0029028060999991910031720004+69100+027217FM-12+014999999V0201401N004119999999N0000001N9-00281+99999097761ADDGF104991999999999999999999
0029028060999991910031806004+69100+027217FM-12+014999999V0200901N004119999999N0000001N9-00441+99999098071ADDGF106991999999999999999999
0035028060999991910031813004+69100+027217FM-12+014999999V0200901N008219999999N0000001N9-00391+99999097991ADDGF108991999999999999999999MW1701
0029028060999991910031820004+69100+027217FM-12+014999999V0209991C000019999999N0000001N9-00781+99999098071ADDGF104991999999999999999999
0029028060999991910031906004+69100+027217FM-12+014999999V0209991C000019999999N0000001N9-01671+99999098311ADDGF100991999999999999999999
0029028060999991910031913004+69100+027217FM-12+014999999V0200901N002119999999N0000001N9-00221+99999098381ADDGF100991999999999999999999
0029028060999991910031920004+69100+027217FM-12+014999999V0209991C000019999999N0000001N9-01891+99999098361ADDGF100991999999999999999999
0029028060999991910032006004+69100+027217FM-12+014999999V0200501N002119999999N0000001N9-02001+99999098441ADDGF108991999999999999999999
0029028060999991910032013004+69100+027217FM-12+014999999V0202301N002119999999N0000001N9-00611+99999098681ADDGF100991999999999999999999
0029028060999991910032020004+69100+027217FM-12+014999999V0209991C000019999999N0000001N9-00781+99999098561ADDGF104991999999999999999999
0029028060999991910032106004+69100+027217FM-12+014999999V0201801N008219999999N0000001N9-00281+99999097601ADDGF106991999999999999999999
0035028060999991910032113004+69100+027217FM-12+014999999V0202301N011819999999N0000001N9+00111+99999096881ADDGF108991999999999999999999MW1691
0029028060999991910032120004+69100+027217FM-12+014999999V0202001N011819999999N0000001N9+00111+99999096751ADDGF100991999999999999999999
0029028060999991910032206004+69100+027217FM-12+014999999V0202501N004119999999N0000001N9-00721+99999096711ADDGF100991999999999999999999
0029028060999991910032213004+69100+027217FM-12+014999999V0202501N011819999999N0000001N9+00111+99999096591ADDGF100991999999999999999999
0029028060999991910032220004+69100+027217FM-12+014999999V0209991C000019999999N0000001N9-00281+99999096701ADDGF100991999999999999999999
0029028060999991910032306004+69100+027217FM-12+014999999V0202501N004119999999N0000001N9-00391+99999097541ADDGF100991999999999999999999
0029028060999991910032313004+69100+027217FM-12+014999999V0202901N006219999999N0000001N9+00111+99999098031ADDGF100991999999999999999999
0029028060999991910032320004+69100+027217FM-12+014999999V0202501N006219999999N0000001N9-00501+99999098271ADDGF100991999999999999999999
0029028060999991910032406004+69100+027217FM-12+014999999V0202501N002119999999N0000001N9-00941+99999097581ADDGF108991999999999999999999
0029028060999991910032413004+69100+027217FM-12+014999999V0202301N004119999999N0000001N9+00061+99999097341ADDGF108991999999999999999999
0029028060999991910032420004+69100+027217FM-12+014999999V0202001N011819999999N0000001N9-00221+99999097301ADDGF100991999999999999999999
0029028060999991910032506004+69100+027217FM-12+014999999V0202901N008219999999N0000001N9-00501+99999098741ADDGF100991999999999999999999
0029028060999991910032513004+69100+027217FM-12+014999999V0203201N015919999999N0000001N9+00001+99999098761ADDGF100991999999999999999999
0029028060999991910032520004+69100+027217FM-12+014999999V0202901N009819999999N0000001N9-00221+99999099271ADDGF108991999999999999999999
0029028060999991910032606004+69100+027217FM-12+014999999V0203601N008219999999N0000001N9-00281+99999099991ADDGF108991999999999999999999
0029028060999991910032613004+69100+027217FM-12+014999999V0203401N006219999999N0000001N9-00061+99999100431ADDGF106991999999999999999999
0029028060999991910032620004+69100+027217FM-12+014999999V0209991C000019999999N0000001N9-00501+99999100511ADDGF106991999999999999999999
0029028060999991910032706004+69100+027217FM-12+014999999V0209991C000019999999N0000001N9-01281+99999100991ADDGF100991999999999999999999
0029028060999991910032713004+69100+027217FM-12+014999999V0209991C000019999999N0000001N9+00001+99999100781ADDGF100991999999999999999999
0029028060999991910032720004+69100+027217FM-12+014999999V0209991C000019999999N0000001N9-01221+99999101071ADDGF100991999999999999999999
0029028060999991910032806004+69100+027217FM-12+014999999V0209991C000019999999N0000001N9-01941+99999100711ADDGF100991999999999999999999
0029028060999991910032813004+69100+027217FM-12+014999999V0209991C000019999999N0000001N9-00281+99999100031ADDGF100991999999999999999999
0029028060999991910032820004+69100+027217FM-12+014999999V0209991C000019999999N0000001N9-01331+99999099981ADDGF100991999999999999999999
0029028060999991910032906004+69100+027217FM-12+014999999V0209991C000019999999N0000001N9-02111+99999100541ADDGF100991999999999999999999
0029028060999991910032913004+69100+027217FM-12+014999999V0201801N004119999999N0000001N9-00061+99999100941ADDGF100991999999999999999999
0029028060999991910032920004+69100+027217FM-12+014999999V0209991C000019999999N0000001N9-00671+99999101071ADDGF100991999999999999999999
0029028060999991910033006004+69100+027217FM-12+014999999V0201801N008219999999N0000001N9-00391+99999100711ADDGF100991999999999999999999
0035028060999991910033013004+69100+027217FM-12+014999999V0202001N009819999999N0000001N9+00171+99999100661ADDGF108991999999999999999999MW1621
0029028060999991910033020004+69100+027217FM-12+014999999V0202001N009819999999N0000001N9+00171+99999100461ADDGF106991999999999999999999
0029028060999991910033106004+69100+027217FM-12+014999999V0202301N008219999999N0000001N9+00111+99999099721ADDGF106991999999999999999999
0029028060999991910033113004+69100+027217FM-12+014999999V0202501N013919999999N0000001N9+00781+99999099361ADDGF100991999999999999999999
0029028060999991910033120004+69100+027217FM-12+014999999V0202701N013919999999N0000001N9-00111+99999099871ADDGF100991999999999999999999
0029028060999991910040106004+69100+027217FM-12+014999999V0202301N004119999999N0000001N9-00391+99999100841ADDGF100991999999999999999999
0029028060999991910040113004+69100+027217FM-12+014999999V0202501N011819999999N0000001N9+00061+99999100841ADDGF100991999999999999999999
0029028060999991910040120004+69100+027217FM-12+014999999V0203601N008219999999N0000001N9-00221+99999100801ADDGF106991999999999999999999
0029028060999991910040206004+69100+027217FM-12+014999999V0203401N002119999999N0000001N9-00611+99999100991ADDGF108991999999999999999999
0029028060999991910040213004+69100+027217FM-12+014999999V0200901N008219999999N0000001N9-00391+99999100801ADDGF108991999999999999999999
0035028060999991910040220004+69100+027217FM-12+014999999V0200501N006219999999N0000001N9-00721+99999100481ADDGF108991999999999999999999MW1721
0035028060999991910040306004+69100+027217FM-12+014999999V0200701N004119999999N0000001N9-00721+99999999999ADDGF108991999999999999999999MW1721
0029028060999991910040313004+69100+027217FM-12+014999999V0201801N002119999999N0000001N9+00171+99999099501ADDGF108991999999999999999999
0029028060999991910040320004+69100+027217FM-12+014999999V0201401N004119999999N0000001N9-00281+99999098951ADDGF106991999999999999999999
0029028060999991910040406004+69100+027217FM-12+014999999V0209991C000019999999N0000001N9-00501+99999098261ADDGF100991999999999999999999
0029028060999991910040413004+69100+027217FM-12+014999999V0202001N008219999999N0000001N9+00221+99999099781ADDGF108991999999999999999999
0029028060999991910040420004+69100+027217FM-12+014999999V0209991C000019999999N0000001N9-00441+99999100681ADDGF106991999999999999999999
0029028060999991910040506004+69100+027217FM-12+014999999V0200201N008219999999N0000001N9-00561+99999099751ADDGF100991999999999999999999
0029028060999991910040513004+69100+027217FM-12+014999999V0203601N002119999999N0000001N9-00061+99999099841ADDGF108991999999999999999999
0029028060999991910040520004+69100+027217FM-12+014999999V0203401N009819999999N0000001N9-00281+99999099441ADDGF105991999999999999999999
0029028060999991910040606004+69100+027217FM-12+014999999V0202001N009819999999N0000001N9-00171+99999098431ADDGF108991999999999999999999
0029028060999991910040613004+69100+027217FM-12+014999999V0202001N008219999999N0000001N9+00221+99999098361ADDGF108991999999999999999999
0029028060999991910040620004+69100+027217FM-12+014999999V0203601N004119999999N0000001N9-00061+99999098261ADDGF108991999999999999999999
0029028060999991910040706004+69100+027217FM-12+014999999V0203401N002119999999N0000001N9-00721+99999099181ADDGF100991999999999999999999
0029028060999991910040713004+69100+027217FM-12+014999999V0203601N002119999999N0000001N9-00281+99999099461ADDGF100991999999999999999999
0029028060999991910040720004+69100+027217FM-12+014999999V0209991C000019999999N0000001N9-01281+99999099241ADDGF100991999999999999999999
0029028060999991910040806004+69100+027217FM-12+014999999V0203401N001019999999N0000001N9-01721+99999098941ADDGF100991999999999999999999
0029028060999991910040813004+69100+027217FM-12+014999999V0200201N004119999999N0000001N9-00171+99999098381ADDGF108991999999999999999999
0029028060999991910040820004+69100+027217FM-12+014999999V0201601N001019999999N0000001N9-00391+99999097621ADDGF108991999999999999999999
0035028060999991910040906004+69100+027217FM-12+014999999V0203601N006219999999N0000001N9-00781+99999097501ADDGF108991999999999999999999MW1721
0035028060999991910040913004+69100+027217FM-12+014999999V0200201N011819999999N0000001N9-00561+99999097901ADDGF108991999999999999999999MW1721
0029028060999991910040920004+69100+027217FM-12+014999999V0203601N008219999999N0000001N9-01001+99999098781ADDGF106991999999999999999999
0029028060999991910041006004+69100+027217FM-12+014999999V0203601N001019999999N0000001N9-01561+99999099271ADDGF100991999999999999999999
0029028060999991910041013004+69100+027217FM-12+014999999V0203401N004119999999N0000001N9-00561+99999099421ADDGF100991999999999999999999
0029028060999991910041020004+69100+027217FM-12+014999999V0202001N002119999999N0000001N9-01331+99999099241ADDGF106991999999999999999999
0029028060999991910041106004+69100+027217FM-12+014999999V0201801N006219999999N0000001N9-01221+99999098711ADDGF106991999999999999999999
0035028060999991910041113004+69100+027217FM-12+014999999V0201801N011819999999N0000001N9-00611+99999097781ADDGF108991999999999999999999MW1721
0035028060999991910041120004+69100+027217FM-12+014999999V0202001N009819999999N0000001N9-00281+99999096961ADDGF108991999999999999999999MW1721
0029028060999991910041206004+69100+027217FM-12+014999999V0203601N008219999999N0000001N9-00671+99999096621ADDGF108991999999999999999999
0035028060999991910041213004+69100+027217FM-12+014999999V0200201N011819999999N0000001N9-00281+99999097151ADDGF108991999999999999999999MW1721
0029028060999991910041220004+69100+027217FM-12+014999999V0203601N004119999999N0000001N9-00941+99999098041ADDGF106991999999999999999999
0029028060999991910041306004+69100+027217FM-12+014999999V0200501N004119999999N0000001N9-01001+99999097751ADDGF108991999999999999999999
0035028060999991910041313004+69100+027217FM-12+014999999V0203601N011819999999N0000001N9-00611+99999097551ADDGF108991999999999999999999MW1721
0029028060999991910041320004+69100+027217FM-12+014999999V0203601N008219999999N0000001N9-00941+99999098231ADDGF106991999999999999999999
0029028060999991910041406004+69100+027217FM-12+014999999V0203601N006219999999N0000001N9-01281+99999099881ADDGF100991999999999999999999
0029028060999991910041413004+69100+027217FM-12+014999999V0203601N004119999999N0000001N9-00891+99999100201ADDGF104991999999999999999999
0029028060999991910041420004+69100+027217FM-12+014999999V0200501N001019999999N0000001N9-01441+99999100261ADDGF104991999999999999999999
0029028060999991910041506004+69100+027217FM-12+014999999V0200501N004119999999N0000001N9-01391+99999100061ADDGF108991999999999999999999
0035028060999991910041513004+69100+027217FM-12+014999999V0200501N008219999999N0000001N9-00891+99999099881ADDGF108991999999999999999999MW1721
0029028060999991910041520004+69100+027217FM-12+014999999V0203601N004119999999N0000001N9-01501+99999100101ADDGF104991999999999999999999
0029028060999991910041606004+69100+027217FM-12+014999999V0200701N004119999999N0000001N9-01391+99999100511ADDGF108991999999999999999999
0029028060999991910041613004+69100+027217FM-12+014999999V0200901N009819999999N0000001N9-00391+99999100641ADDGF106991999999999999999999
0035028060999991910041620004+69100+027217FM-12+014999999V0201101N011819999999N0000001N9-00501+99999100791ADDGF108991999999999999999999MW1721
0029028060999991910041706004+69100+027217FM-12+014999999V0201101N008219999999N0000001N9-00561+99999100541ADDGF108991999999999999999999
0029028060999991910041713004+69100+027217FM-12+014999999V0202301N004119999999N0000001N9-00061+99999100301ADDGF108991999999999999999999
0029028060999991910041720004+69100+027217FM-12+014999999V0201801N001019999999N0000001N9+00111+99999099921ADDGF108991999999999999999999
0029028060999991910041806004+69100+027217FM-12+014999999V0202301N008219999999N0000001N9+00391+99999099321ADDGF100991999999999999999999
0029028060999991910041813004+69100+027217FM-12+014999999V0202701N009819999999N0000001N9+00671+99999099551ADDGF100991999999999999999999
0029028060999991910041820004+69100+027217FM-12+014999999V0202301N001019999999N0000001N9+00001+99999099301ADDGF104991999999999999999999
0029028060999991910041906004+69100+027217FM-12+014999999V0202001N004119999999N0000001N9+00281+99999098761ADDGF108991999999999999999999
0029028060999991910041913004+69100+027217FM-12+014999999V0209991C000019999999N0000001N9+00561+99999098441ADDGF108991999999999999999999
0029028060999991910041920004+69100+027217FM-12+014999999V0202001N002119999999N0000001N9+00331+99999098181ADDGF108991999999999999999999
0029028060999991910042006004+69100+027217FM-12+014999999V0209991C000019999999N0000001N9+00111+99999097741ADDGF108991999999999999999999
0029028060999991910042013004+69100+027217FM-12+014999999V0203601N004119999999N0000001N9+00441+99999097511ADDGF100991999999999999999999
0035028060999991910042020004+69100+027217FM-12+014999999V0203601N004119999999N0000001N9+00171+99999097431ADDGF108991999999999999999999MW1621
0035028060999991910042106004+69100+027217FM-12+014999999V0200501N008219999999N0000001N9+00171+99999097221ADDGF108991999999999999999999MW1691
0035028060999991910042113004+69100+027217FM-12+014999999V0203601N009819999999N0000001N9+00111+99999097121ADDGF108991999999999999999999MW1691
0029028060999991910042120004+69100+027217FM-12+014999999V0203601N008219999999N0000001N9+00061+99999097351ADDGF106991999999999999999999
0035028060999991910042206004+69100+027217FM-12+014999999V0202301N004119999999N0000001N9-00111+99999097801ADDGF108991999999999999999999MW1691
0029028060999991910042213004+69100+027217FM-12+014999999V0203601N002119999999N0000001N9+00171+99999098071ADDGF106991999999999999999999
0029028060999991910042220004+69100+027217FM-12+014999999V0200901N002119999999N0000001N9+00001+99999098361ADDGF108991999999999999999999
0029028060999991910042306004+69100+027217FM-12+014999999V0200501N004119999999N0000001N9-00281+99999098701ADDGF106991999999999999999999
0029028060999991910042313004+69100+027217FM-12+014999999V0200901N006219999999N0000001N9+00061+99999098751ADDGF106991999999999999999999
0035028060999991910042320004+69100+027217FM-12+014999999V0200701N009819999999N0000001N9-00221+99999098911ADDGF108991999999999999999999MW1721
0035028060999991910042406004+69100+027217FM-12+014999999V0200901N008219999999N0000001N9-00441+99999099031ADDGF108991999999999999999999MW1721
0035028060999991910042413004+69100+027217FM-12+014999999V0200901N004119999999N0000001N9-00221+99999099031ADDGF108991999999999999999999MW1721
0035028060999991910042420004+69100+027217FM-12+014999999V0200901N011819999999N0000001N9-00391+99999099061ADDGF108991999999999999999999MW1721
0029028060999991910042506004+69100+027217FM-12+014999999V0200901N004119999999N0000001N9-00391+99999098761ADDGF108991999999999999999999
0029028060999991910042513004+69100+027217FM-12+014999999V0200901N004119999999N0000001N9+00171+99999098621ADDGF104991999999999999999999
0035028060999991910042520004+69100+027217FM-12+014999999V0200901N009819999999N0000001N9+00061+99999098081ADDGF108991999999999999999999MW1721
0029028060999991910042606004+69100+027217FM-12+014999999V0201801N008219999999N0000001N9+00221+99999098221ADDGF106991999999999999999999
0029028060999991910042613004+69100+027217FM-12+014999999V0200901N002119999999N0000001N9+00561+99999097991ADDGF108991999999999999999999
0035028060999991910042620004+69100+027217FM-12+014999999V0200901N002119999999N0000001N9+00171+99999097321ADDGF108991999999999999999999MW1691
0029028060999991910042706004+69100+027217FM-12+014999999V0202301N008219999999N0000001N9+00171+99999098151ADDGF108991999999999999999999
0029028060999991910042713004+69100+027217FM-12+014999999V0202501N009819999999N0000001N9+00331+99999098661ADDGF106991999999999999999999
0029028060999991910042720004+69100+027217FM-12+014999999V0202501N008219999999N0000001N9+00281+99999099201ADDGF104991999999999999999999
0029028060999991910042806004+69100+027217FM-12+014999999V0202501N004119999999N0000001N9+00061+99999099661ADDGF108991999999999999999999
0029028060999991910042813004+69100+027217FM-12+014999999V0202301N002119999999N0000001N9+00671+99999099521ADDGF100991999999999999999999
0029028060999991910042820004+69100+027217FM-12+014999999V0203601N002119999999N0000001N9+00281+99999099541ADDGF100991999999999999999999
0035028060999991910042906004+69100+027217FM-12+014999999V0200901N006219999999N0000001N9+00221+99999098921ADDGF108991999999999999999999MW1691
0035028060999991910042913004+69100+027217FM-12+014999999V0202001N011819999999N0000001N9+00391+99999098941ADDGF108991999999999999999999MW1621
0029028060999991910042920004+69100+027217FM-12+014999999V0202301N006219999999N0000001N9+00501+99999099241ADDGF108991999999999999999999
0029028060999991910043006004+69100+027217FM-12+014999999V0201801N002119999999N0000001N9+00391+99999099511ADDGF108991999999999999999999
0029028060999991910043013004+69100+027217FM-12+014999999V0202301N011819999999N0000001N9+01001+99999099701ADDGF100991999999999999999999
0029028060999991910043020004+69100+027217FM-12+014999999V0201801N001019999999N0000001N9+00721+99999099541ADDGF104991999999999999999999
0029028060999991910050106004+69100+027217FM-12+014999999V0202301N004119999999N0000001N9+00501+99999099301ADDGF100991999999999999999999
0029028060999991910050113004+69100+027217FM-12+014999999V0202301N013919999999N0000001N9+00501+99999099361ADDGF108991999999999999999999
0029028060999991910050120004+69100+027217FM-12+014999999V0202901N002119999999N0000001N9+00281+99999099761ADDGF100991999999999999999999
0029028060999991910050206004+69100+027217FM-12+014999999V0201801N004119999999N0000001N9+00221+99999099681ADDGF100991999999999999999999
0029028060999991910050213004+69100+027217FM-12+014999999V0202301N009819999999N0000001N9+00721+99999099461ADDGF100991999999999999999999
0029028060999991910050220004+69100+027217FM-12+014999999V0201801N002119999999N0000001N9+00501+99999099301ADDGF106991999999999999999999
0035028060999991910050306004+69100+027217FM-12+014999999V0201801N002119999999N0000001N9+00331+99999099151ADDGF108991999999999999999999MW1691
0035028060999991910050313004+69100+027217FM-12+014999999V0200901N004119999999N0000001N9+00221+99999099461ADDGF108991999999999999999999MW1691
0029028060999991910050320004+69100+027217FM-12+014999999V0200501N008219999999N0000001N9+00221+99999099591ADDGF108991999999999999999999
0035028060999991910050406004+69100+027217FM-12+014999999V0200201N006219999999N0000001N9+00111+99999099561ADDGF108991999999999999999999MW1721
0029028060999991910050413004+69100+027217FM-12+014999999V0200901N006219999999N0000001N9+00331+99999099481ADDGF108991999999999999999999
0029028060999991910050420004+69100+027217FM-12+014999999V0200901N004119999999N0000001N9+00221+99999099351ADDGF106991999999999999999999
0029028060999991910050506004+69100+027217FM-12+014999999V0200901N004119999999N0000001N9+00221+99999099031ADDGF106991999999999999999999
0029028060999991910050513004+69100+027217FM-12+014999999V0201101N006219999999N0000001N9+00831+99999098941ADDGF104991999999999999999999
0029028060999991910050520004+69100+027217FM-12+014999999V0201401N006219999999N0000001N9+00721+99999098951ADDGF108991999999999999999999
0029028060999991910050606004+69100+027217FM-12+014999999V0209991C000019999999N0000001N9+00501+99999099101ADDGF108991999999999999999999
0029028060999991910050613004+69100+027217FM-12+014999999V0200901N004119999999N0000001N9+00831+99999098981ADDGF104991999999999999999999
0029028060999991910050620004+69100+027217FM-12+014999999V0200901N004119999999N0000001N9+00941+99999099081ADDGF100991999999999999999999
0029028060999991910050706004+69100+027217FM-12+014999999V0200701N008219999999N0000001N9+00611+99999098821ADDGF104991999999999999999999
0029028060999991910050713004+69100+027217FM-12+014999999V0200901N006219999999N0000001N9+01171+99999098701ADDGF100991999999999999999999
0029028060999991910050720004+69100+027217FM-12+014999999V0200901N002119999999N0000001N9+00831+99999098561ADDGF100991999999999999999999
0035028060999991910050806004+69100+027217FM-12+014999999V0200901N004119999999N0000001N9+00281+99999098761ADDGF108991999999999999999999MW1621
0029028060999991910050813004+69100+027217FM-12+014999999V0201601N004119999999N0000001N9+00671+99999098861ADDGF108991999999999999999999
0035028060999991910050820004+69100+027217FM-12+014999999V0200901N008219999999N0000001N9+00441+99999098991ADDGF108991999999999999999999MW1621
0029028060999991910050906004+69100+027217FM-12+014999999V0202501N009819999999N0000001N9+00391+99999099801ADDGF104991999999999999999999
0029028060999991910050913004+69100+027217FM-12+014999999V0202301N011819999999N0000001N9+00781+99999100511ADDGF100991999999999999999999
0029028060999991910050920004+69100+027217FM-12+014999999V0202501N002119999999N0000001N9+00831+99999100861ADDGF100991999999999999999999
0029028060999991910051006004+69100+027217FM-12+014999999V0202701N002119999999N0000001N9+00391+99999100981ADDGF106991999999999999999999
0029028060999991910051013004+69100+027217FM-12+014999999V0200901N006219999999N0000001N9+01391+99999100821ADDGF100991999999999999999999
0029028060999991910051020004+69100+027217FM-12+014999999V0201101N001019999999N0000001N9+00941+99999100711ADDGF104991999999999999999999
0029028060999991910051106004+69100+027217FM-12+014999999V0201801N004119999999N0000001N9+00501+99999100461ADDGF108991999999999999999999
0029028060999991910051113004+69100+027217FM-12+014999999V0202501N015919999999N0000001N9+00831+99999100161ADDGF104991999999999999999999
0029028060999991910051120004+69100+027217FM-12+014999999V0202501N008219999999N0000001N9+00611+99999100551ADDGF104991999999999999999999
0029028060999991910051206004+69100+027217FM-12+014999999V0202701N011819999999N0000001N9+00611+99999101401ADDGF104991999999999999999999
0029028060999991910051213004+69100+027217FM-12+014999999V0203201N011819999999N0000001N9+00781+99999101961ADDGF104991999999999999999999
0029028060999991910051220004+69100+027217FM-12+014999999V0209991C000019999999N0000001N9+00721+99999101881ADDGF106991999999999999999999
0029028060999991910051306004+69100+027217FM-12+014999999V0202301N004119999999N0000001N9+00671+99999101671ADDGF100991999999999999999999
0029028060999991910051313004+69100+027217FM-12+014999999V0202501N002119999999N0000001N9+01501+99999101271ADDGF100991999999999999999999
0029028060999991910051320004+69100+027217FM-12+014999999V0202501N004119999999N0000001N9+01001+99999100701ADDGF106991999999999999999999
0029028060999991910051406004+69100+027217FM-12+014999999V0202501N004119999999N0000001N9+00611+99999100111ADDGF106991999999999999999999
0029028060999991910051413004+69100+027217FM-12+014999999V0203401N009819999999N0000001N9+99999+99999100081ADDGF100991999999999999999999
0029028060999991910051420004+69100+027217FM-12+014999999V0203401N011819999999N0000001N9+00501+99999100181ADDGF106991999999999999999999
0029028060999991910051506004+69100+027217FM-12+014999999V0203401N008219999999N0000001N9+00111+99999100381ADDGF108991999999999999999999
0029028060999991910051513004+69100+027217FM-12+014999999V0203401N009819999999N0000001N9+00171+99999100381ADDGF104991999999999999999999
0035028060999991910051520004+69100+027217FM-12+014999999V0203401N004119999999N0000001N9-00061+99999100021ADDGF108991999999999999999999MW1861
0029028060999991910051606004+69100+027217FM-12+014999999V0203601N008219999999N0000001N9-00221+99999100361ADDGF108991999999999999999999
0029028060999991910051613004+69100+027217FM-12+014999999V0203201N009819999999N0000001N9-00061+99999100641ADDGF108991999999999999999999
0029028060999991910051620004+69100+027217FM-12+014999999V0203401N008219999999N0000001N9-00111+99999100701ADDGF108991999999999999999999
0029028060999991910051706004+69100+027217FM-12+014999999V0203401N009819999999N0000001N9+00061+99999100321ADDGF108991999999999999999999
0029028060999991910051713004+69100+027217FM-12+014999999V0202701N011819999999N0000001N9+00391+99999100031ADDGF108991999999999999999999
0029028060999991910051720004+69100+027217FM-12+014999999V0202701N008219999999N0000001N9+00441+99999099711ADDGF106991999999999999999999
0029028060999991910051806004+69100+027217FM-12+014999999V0203201N008219999999N0000001N9+00281+99999099581ADDGF108991999999999999999999
0029028060999991910051813004+69100+027217FM-12+014999999V0203401N006219999999N0000001N9+00441+99999099711ADDGF106991999999999999999999
0029028060999991910051820004+69100+027217FM-12+014999999V0203601N011819999999N0000001N9+00281+99999099821ADDGF104991999999999999999999
0029028060999991910051906004+69100+027217FM-12+014999999V0203601N006219999999N0000001N9+00221+99999100031ADDGF108991999999999999999999
0029028060999991910051913004+69100+027217FM-12+014999999V0203601N008219999999N0000001N9+00281+99999100311ADDGF108991999999999999999999
0029028060999991910051920004+69100+027217FM-12+014999999V0203601N006219999999N0000001N9+00171+99999100471ADDGF108991999999999999999999
0029028060999991910052006004+69100+027217FM-12+014999999V0203401N006219999999N0000001N9+00171+99999100841ADDGF108991999999999999999999
0029028060999991910052013004+69100+027217FM-12+014999999V0203201N004119999999N0000001N9+00501+99999100951ADDGF100991999999999999999999
0029028060999991910052020004+69100+027217FM-12+014999999V0203201N008219999999N0000001N9+00331+99999100801ADDGF100991999999999999999999
0029028060999991910052106004+69100+027217FM-12+014999999V0209991C000019999999N0000001N9+00001+99999100601ADDGF108991999999999999999999
0029028060999991910052113004+69100+027217FM-12+014999999V0200901N002119999999N0000001N9+00441+99999100391ADDGF108991999999999999999999
0029028060999991910052120004+69100+027217FM-12+014999999V0203401N008219999999N0000001N9+00171+99999100391ADDGF108991999999999999999999
0029028060999991910052206004+69100+027217FM-12+014999999V0202501N009819999999N0000001N9+00281+99999099721ADDGF108991999999999999999999
0029028060999991910052213004+69100+027217FM-12+014999999V0202501N009819999999N0000001N9+00501+99999099021ADDGF108991999999999999999999
0029028060999991910052220004+69100+027217FM-12+014999999V0203401N011819999999N0000001N9+00281+99999098311ADDGF104991999999999999999999
0035028060999991910052306004+69100+027217FM-12+014999999V0203601N009819999999N0000001N9-00061+99999099021ADDGF108991999999999999999999MW1861
0029028060999991910052313004+69100+027217FM-12+014999999V0203601N013919999999N0000001N9+00111+99999099261ADDGF108991999999999999999999
0035028060999991910052320004+69100+027217FM-12+014999999V0203601N015919999999N0000001N9-00111+99999098941ADDGF108991999999999999999999MW1861
0029028060999991910052406004+69100+027217FM-12+014999999V0203601N008219999999N0000001N9-00281+99999098921ADDGF104991999999999999999999
0029028060999991910052413004+69100+027217FM-12+014999999V0203601N027819999999N0000001N9-00061+99999099001ADDGF106991999999999999999999
0029028060999991910052420004+69100+027217FM-12+014999999V0203201N027819999999N0000001N9-00111+99999099021ADDGF108991999999999999999999
0035028060999991910052506004+69100+027217FM-12+014999999V0203601N011819999999N0000001N9-00111+99999099041ADDGF108991999999999999999999MW1721
0029028060999991910052513004+69100+027217FM-12+014999999V0203201N008219999999N0000001N9-00061+99999099081ADDGF108991999999999999999999
0029028060999991910052520004+69100+027217FM-12+014999999V0203601N006219999999N0000001N9-00061+99999099271ADDGF104991999999999999999999
0029028060999991910052606004+69100+027217FM-12+014999999V0203601N008219999999N0000001N9-00061+99999099511ADDGF104991999999999999999999
0029028060999991910052613004+69100+027217FM-12+014999999V0203601N009819999999N0000001N9+00221+99999099401ADDGF100991999999999999999999
0035028060999991910052620004+69100+027217FM-12+014999999V0203601N008219999999N0000001N9+00221+99999099221ADDGF108991999999999999999999MW1691
0029028060999991910052706004+69100+027217FM-12+014999999V0200501N008219999999N0000001N9+00221+99999099661ADDGF108991999999999999999999
0029028060999991910052713004+69100+027217FM-12+014999999V0200901N006219999999N0000001N9+00561+99999099901ADDGF106991999999999999999999
0029028060999991910052720004+69100+027217FM-12+014999999V0200201N009819999999N0000001N9+00221+99999100061ADDGF106991999999999999999999
0029028060999991910052806004+69100+027217FM-12+014999999V0200501N006219999999N0000001N9+00111+99999100201ADDGF108991999999999999999999
0029028060999991910052813004+69100+027217FM-12+014999999V0200201N004119999999N0000001N9+00281+99999100121ADDGF106991999999999999999999
0029028060999991910052820004+69100+027217FM-12+014999999V0200901N006219999999N0000001N9+00281+99999100081ADDGF108991999999999999999999
0029028060999991910052906004+69100+027217FM-12+014999999V0200901N008219999999N0000001N9+00111+99999099961ADDGF108991999999999999999999
0029028060999991910052913004+69100+027217FM-12+014999999V0200901N006219999999N0000001N9+00391+99999099741ADDGF106991999999999999999999
0029028060999991910052920004+69100+027217FM-12+014999999V0209991C000019999999N0000001N9+00331+99999099501ADDGF100991999999999999999999
0029028060999991910053006004+69100+027217FM-12+014999999V0200901N004119999999N0000001N9+00281+99999099161ADDGF108991999999999999999999
0029028060999991910053013004+69100+027217FM-12+014999999V0200901N004119999999N0000001N9+00611+99999098921ADDGF106991999999999999999999
0029028060999991910053020004+69100+027217FM-12+014999999V0201101N002119999999N0000001N9+00501+99999098761ADDGF104991999999999999999999
0029028060999991910053106004+69100+027217FM-12+014999999V0200901N004119999999N0000001N9+00281+99999098551ADDGF108991999999999999999999
0029028060999991910053113004+69100+027217FM-12+014999999V0201101N004119999999N0000001N9+00831+99999098421ADDGF106991999999999999999999
0029028060999991910053120004+69100+027217FM-12+014999999V0200901N008219999999N0000001N9+00721+99999098151ADDGF106991999999999999999999
0029028060999991910060106004+69100+027217FM-12+014999999V0200901N006219999999N0000001N9+00611+99999098101ADDGF104991999999999999999999
0029028060999991910060113004+69100+027217FM-12+014999999V0201601N009819999999N0000001N9+01111+99999098141ADDGF104991999999999999999999
0029028060999991910060120004+69100+027217FM-12+014999999V0200901N011819999999N0000001N9+00671+99999098161ADDGF106991999999999999999999
0029028060999991910060206004+69100+027217FM-12+014999999V0200501N009819999999N0000001N9+00441+99999098201ADDGF108991999999999999999999
0029028060999991910060213004+69100+027217FM-12+014999999V0200201N011819999999N0000001N9+00781+99999098501ADDGF104991999999999999999999
0029028060999991910060220004+69100+027217FM-12+014999999V0200901N009819999999N0000001N9+00501+99999098981ADDGF100991999999999999999999
0029028060999991910060306004+69100+027217FM-12+014999999V0200901N004119999999N0000001N9+00441+99999099341ADDGF106991999999999999999999
0029028060999991910060313004+69100+027217FM-12+014999999V0200901N008219999999N0000001N9+01001+99999099311ADDGF100991999999999999999999
0029028060999991910060320004+69100+027217FM-12+014999999V0200901N006219999999N0000001N9+01001+99999099161ADDGF104991999999999999999999
0029028060999991910060406004+69100+027217FM-12+014999999V0201801N008219999999N0000001N9+01061+99999099191ADDGF104991999999999999999999
0029028060999991910060413004+69100+027217FM-12+014999999V0201801N008219999999N0000001N9+01281+99999099031ADDGF104991999999999999999999
0035028060999991910060420004+69100+027217FM-12+014999999V0201401N009819999999N0000001N9+99999+99999098831ADDGF108991999999999999999999MW1621
0029028060999991910060506004+69100+027217FM-12+014999999V0202501N009819999999N0000001N9+01061+99999098581ADDGF106991999999999999999999
0029028060999991910060513004+69100+027217FM-12+014999999V0202701N013919999999N0000001N9+01501+99999098671ADDGF104991999999999999999999
0029028060999991910060520004+69100+027217FM-12+014999999V0203201N015919999999N0000001N9+01171+99999099021ADDGF100991999999999999999999
0029028060999991910060606004+69100+027217FM-12+014999999V0202701N009819999999N0000001N9+00781+99999099431ADDGF108991999999999999999999
0029028060999991910060613004+69100+027217FM-12+014999999V0202701N020119999999N0000001N9+00941+99999099341ADDGF104991999999999999999999
0029028060999991910060620004+69100+027217FM-12+014999999V0202701N009819999999N0000001N9+00721+99999099551ADDGF104991999999999999999999
0029028060999991910060706004+69100+027217FM-12+014999999V0202701N006219999999N0000001N9+00441+99999100061ADDGF108991999999999999999999
0029028060999991910060713004+69100+027217FM-12+014999999V0202501N009819999999N0000001N9+01061+99999099681ADDGF104991999999999999999999
0029028060999991910060720004+69100+027217FM-12+014999999V0202501N011819999999N0000001N9+01001+99999098951ADDGF104991999999999999999999
0029028060999991910060806004+69100+027217FM-12+014999999V0202701N013919999999N0000001N9+01001+99999098471ADDGF104991999999999999999999
0029028060999991910060813004+69100+027217FM-12+014999999V0202701N024219999999N0000001N9+00941+99999098641ADDGF106991999999999999999999
0029028060999991910060820004+69100+027217FM-12+014999999V0202701N013919999999N0000001N9+00561+99999099341ADDGF106991999999999999999999
0029028060999991910060906004+69100+027217FM-12+014999999V0202701N008219999999N0000001N9+00391+99999100201ADDGF106991999999999999999999
0029028060999991910060913004+69100+027217FM-12+014999999V0203201N008219999999N0000001N9+00721+99999100481ADDGF106991999999999999999999
0029028060999991910060920004+69100+027217FM-12+014999999V0200201N002119999999N0000001N9+00941+99999100351ADDGF100991999999999999999999
0029028060999991910061006004+69100+027217FM-12+014999999V0202001N011819999999N0000001N9+01111+99999099801ADDGF108991999999999999999999
0029028060999991910061013004+69100+027217FM-12+014999999V0202001N011819999999N0000001N9+02061+99999099181ADDGF100991999999999999999999
0029028060999991910061020004+69100+027217FM-12+014999999V0209991C000019999999N0000001N9+01941+99999099031ADDGF106991999999999999999999
0029028060999991910061106004+69100+027217FM-12+014999999V0202001N002119999999N0000001N9+01561+99999099381ADDGF108991999999999999999999
0035028060999991910061113004+69100+027217FM-12+014999999V0200201N004119999999N0000001N9+01111+99999099711ADDGF108991999999999999999999MW1621
0035028060999991910061120004+69100+027217FM-12+014999999V0200901N006219999999N0000001N9+00721+99999100031ADDGF108991999999999999999999MW1621
0035028060999991910061206004+69100+027217FM-12+014999999V0200901N004119999999N0000001N9+00781+99999100241ADDGF108991999999999999999999MW1621
0029028060999991910061213004+69100+027217FM-12+014999999V0201601N002119999999N0000001N9+01061+99999100461ADDGF106991999999999999999999
0029028060999991910061220004+69100+027217FM-12+014999999V0200901N004119999999N0000001N9+01221+99999100231ADDGF108991999999999999999999
0029028060999991910061306004+69100+027217FM-12+014999999V0201801N009819999999N0000001N9+01221+99999099661ADDGF108991999999999999999999
0029028060999991910061313004+69100+027217FM-12+014999999V0202001N006219999999N0000001N9+02331+99999099721ADDGF106991999999999999999999
0029028060999991910061320004+69100+027217FM-12+014999999V0202001N004119999999N0000001N9+01781+99999099961ADDGF106991999999999999999999
0029028060999991910061406004+69100+027217FM-12+014999999V0200201N006219999999N0000001N9+01221+99999100181ADDGF104991999999999999999999
0029028060999991910061413004+69100+027217FM-12+014999999V0200901N004119999999N0000001N9+01941+99999099951ADDGF106991999999999999999999
0035028060999991910061420004+69100+027217FM-12+014999999V0200201N002119999999N0000001N9+01501+99999099761ADDGF108991999999999999999999MW1621
0029028060999991910061506004+69100+027217FM-12+014999999V0200901N002119999999N0000001N9+01221+99999099351ADDGF108991999999999999999999
0029028060999991910061513004+69100+027217FM-12+014999999V0201801N004119999999N0000001N9+02061+99999099081ADDGF106991999999999999999999
0029028060999991910061520004+69100+027217FM-12+014999999V0201801N002119999999N0000001N9+02391+99999098581ADDGF106991999999999999999999
0029028060999991910061606004+69100+027217FM-12+014999999V0203601N006219999999N0000001N9+00611+99999099071ADDGF108991999999999999999999
0029028060999991910061613004+69100+027217FM-12+014999999V0203401N006219999999N0000001N9+00891+99999099431ADDGF108991999999999999999999
0035028060999991910061620004+69100+027217FM-12+014999999V0209991C000019999999N0000001N9+00721+99999099381ADDGF108991999999999999999999MW1621
0029028060999991910061706004+69100+027217FM-12+014999999V0202701N006219999999N0000001N9+00441+99999099141ADDGF108991999999999999999999
0035028060999991910061713004+69100+027217FM-12+014999999V0203401N008219999999N0000001N9+00721+99999098901ADDGF106991999999999999999999MW1621
0029028060999991910061720004+69100+027217FM-12+014999999V0203201N008219999999N0000001N9+00441+99999098781ADDGF108991999999999999999999
0029028060999991910061806004+69100+027217FM-12+014999999V0203601N006219999999N0000001N9+00281+99999099201ADDGF106991999999999999999999
0035028060999991910061813004+69100+027217FM-12+014999999V0203601N011819999999N0000001N9+00391+99999099391ADDGF108991999999999999999999MW1721
0035028060999991910061820004+69100+027217FM-12+014999999V0203601N009819999999N0000001N9+00171+99999099741ADDGF108991999999999999999999MW1621
0029028060999991910061906004+69100+027217FM-12+014999999V0203601N013919999999N0000001N9+00221+99999100021ADDGF108991999999999999999999
0029028060999991910061913004+69100+027217FM-12+014999999V0200501N009819999999N0000001N9+00441+99999100181ADDGF108991999999999999999999
0029028060999991910061920004+69100+027217FM-12+014999999V0203601N002119999999N0000001N9+00561+99999100031ADDGF106991999999999999999999
0029028060999991910062006004+69100+027217FM-12+014999999V0202701N002119999999N0000001N9+00561+99999099831ADDGF108991999999999999999999
0029028060999991910062013004+69100+027217FM-12+014999999V0203601N006219999999N0000001N9+00941+99999099821ADDGF108991999999999999999999
0029028060999991910062020004+69100+027217FM-12+014999999V0203601N008219999999N0000001N9+00611+99999099911ADDGF108991999999999999999999
0035028060999991910062106004+69100+027217FM-12+014999999V0203601N009819999999N0000001N9+00391+99999999999ADDGF108991999999999999999999MW1691
0029028060999991910062113004+69100+027217FM-12+014999999V0200201N011819999999N0000001N9+00721+99999999999ADDGF108991999999999999999999
0029028060999991910062120004+69100+027217FM-12+014999999V0200201N009819999999N0000001N9+00501+99999999999ADDGF108991999999999999999999
0029028060999991910062206004+69100+027217FM-12+014999999V0203601N011819999999N0000001N9+00391+99999099881ADDGF108991999999999999999999
0029028060999991910062213004+69100+027217FM-12+014999999V0200201N008219999999N0000001N9+00721+99999099681ADDGF106991999999999999999999
0029028060999991910062220004+69100+027217FM-12+014999999V0203601N004119999999N0000001N9+00331+99999099901ADDGF108991999999999999999999
0029028060999991910062306004+69100+027217FM-12+014999999V0203601N008219999999N0000001N9+00331+99999099941ADDGF108991999999999999999999
0029028060999991910062313004+69100+027217FM-12+014999999V0200201N008219999999N0000001N9+00671+99999099901ADDGF108991999999999999999999
0029028060999991910062320004+69100+027217FM-12+014999999V0200201N006219999999N0000001N9+00501+99999099871ADDGF106991999999999999999999
0029028060999991910062406004+69100+027217FM-12+014999999V0203601N009819999999N0000001N9+00331+99999099751ADDGF108991999999999999999999
0029028060999991910062413004+69100+027217FM-12+014999999V0200501N009819999999N0000001N9+00671+99999099581ADDGF108991999999999999999999
0029028060999991910062420004+69100+027217FM-12+014999999V0200701N008219999999N0000001N9+00391+99999099551ADDGF108991999999999999999999
0035028060999991910062506004+69100+027217FM-12+014999999V0200501N009819999999N0000001N9+00281+99999099341ADDGF108991999999999999999999MW1691
0029028060999991910062513004+69100+027217FM-12+014999999V0200701N013919999999N0000001N9+00331+99999099031ADDGF108991999999999999999999
0029028060999991910062520004+69100+027217FM-12+014999999V0200501N020119999999N0000001N9+00331+99999098551ADDGF108991999999999999999999
0035028060999991910062606004+69100+027217FM-12+014999999V0200701N011819999999N0000001N9+00331+99999098711ADDGF108991999999999999999999MW1621
0035028060999991910062613004+69100+027217FM-12+014999999V0200701N008219999999N0000001N9+00671+99999099031ADDGF108991999999999999999999MW1621
0029028060999991910062620004+69100+027217FM-12+014999999V0200501N008219999999N0000001N9+00501+99999099271ADDGF108991999999999999999999
0035028060999991910062706004+69100+027217FM-12+014999999V0200501N006219999999N0000001N9+00501+99999099511ADDGF108991999999999999999999MW1621
0035028060999991910062713004+69100+027217FM-12+014999999V0200501N006219999999N0000001N9+00501+99999099541ADDGF108991999999999999999999MW1621
0029028060999991910062720004+69100+027217FM-12+014999999V0200901N004119999999N0000001N9+00611+99999099461ADDGF108991999999999999999999
0029028060999991910062806004+69100+027217FM-12+014999999V0200501N006219999999N0000001N9+00671+99999099441ADDGF108991999999999999999999
0029028060999991910062813004+69100+027217FM-12+014999999V0200901N008219999999N0000001N9+01501+99999099141ADDGF104991999999999999999999
0029028060999991910062820004+69100+027217FM-12+014999999V0200901N011819999999N0000001N9+01221+99999098761ADDGF100991999999999999999999
0035028060999991910062906004+69100+027217FM-12+014999999V0200901N006219999999N0000001N9+00561+99999098661ADDGF108991999999999999999999MW1621
0035028060999991910062913004+69100+027217FM-12+014999999V0200901N004119999999N0000001N9+00781+99999098821ADDGF108991999999999999999999MW1621
0029028060999991910062920004+69100+027217FM-12+014999999V0200901N006219999999N0000001N9+00721+99999098761ADDGF108991999999999999999999
0035028060999991910063006004+69100+027217FM-12+014999999V0200501N006219999999N0000001N9+00671+99999098741ADDGF108991999999999999999999MW1621
0029028060999991910063013004+69100+027217FM-12+014999999V0200501N008219999999N0000001N9+00831+99999098751ADDGF108991999999999999999999
0035028060999991910063020004+69100+027217FM-12+014999999V0200201N008219999999N0000001N9+00611+99999098841ADDGF108991999999999999999999MW1621
0029028060999991910070106004+69100+027217FM-12+014999999V0200901N004119999999N0000001N9+00781+99999099111ADDGF104991999999999999999999
0029028060999991910070113004+69100+027217FM-12+014999999V0200901N009819999999N0000001N9+01221+99999099121ADDGF100991999999999999999999
0029028060999991910070120004+69100+027217FM-12+014999999V0200501N009819999999N0000001N9+00561+99999099201ADDGF108991999999999999999999
0029028060999991910070206004+69100+027217FM-12+014999999V0200701N004119999999N0000001N9+00501+99999099111ADDGF108991999999999999999999
0029028060999991910070213004+69100+027217FM-12+014999999V0200501N008219999999N0000001N9+00721+99999099041ADDGF108991999999999999999999
0029028060999991910070220004+69100+027217FM-12+014999999V0200501N008219999999N0000001N9+00441+99999098981ADDGF108991999999999999999999
0035028060999991910070306004+69100+027217FM-12+014999999V0200501N008219999999N0000001N9+00391+99999098561ADDGF108991999999999999999999MW1621
0035028060999991910070313004+69100+027217FM-12+014999999V0200501N006219999999N0000001N9+00781+99999098711ADDGF108991999999999999999999MW1621
0029028060999991910070320004+69100+027217FM-12+014999999V0200501N004119999999N0000001N9+00721+99999098701ADDGF108991999999999999999999
0035028060999991910070406004+69100+027217FM-12+014999999V0203601N004119999999N0000001N9+00781+99999098701ADDGF108991999999999999999999MW1621
0029028060999991910070413004+69100+027217FM-12+014999999V0200201N006219999999N0000001N9+01331+99999098721ADDGF108991999999999999999999
0029028060999991910070420004+69100+027217FM-12+014999999V0209991C000019999999N0000001N9+01391+99999098881ADDGF106991999999999999999999
0029028060999991910070506004+69100+027217FM-12+014999999V0200201N004119999999N0000001N9+01061+99999099341ADDGF108991999999999999999999
0035028060999991910070513004+69100+027217FM-12+014999999V0201101N002119999999N0000001N9+01171+99999099441ADDGF108991999999999999999999MW1621
0035028060999991910070520004+69100+027217FM-12+014999999V0200701N009819999999N0000001N9+00891+99999099581ADDGF108991999999999999999999MW1621
0029028060999991910070606004+69100+027217FM-12+014999999V0200901N004119999999N0000001N9+00891+99999100031ADDGF104991999999999999999999
0029028060999991910070613004+69100+027217FM-12+014999999V0201601N006219999999N0000001N9+01671+99999099941ADDGF100991999999999999999999
0029028060999991910070620004+69100+027217FM-12+014999999V0201601N006219999999N0000001N9+01561+99999099741ADDGF104991999999999999999999
0035028060999991910070706004+69100+027217FM-12+014999999V0201101N004119999999N0000001N9+01391+99999099711ADDGF108991999999999999999999MW1621
0029028060999991910070713004+69100+027217FM-12+014999999V0202001N002119999999N0000001N9+01561+99999099661ADDGF106991999999999999999999
0029028060999991910070720004+69100+027217FM-12+014999999V0209991C000019999999N0000001N9+01781+99999099711ADDGF104991999999999999999999
0035028060999991910070806004+69100+027217FM-12+014999999V0200701N004119999999N0000001N9+01391+99999099581ADDGF108991999999999999999999MW1641
0035028060999991910070813004+69100+027217FM-12+014999999V0203601N008219999999N0000001N9+00941+99999099551ADDGF108991999999999999999999MW1641
0029028060999991910070820004+69100+027217FM-12+014999999V0203601N009819999999N0000001N9+00671+99999099631ADDGF108991999999999999999999
0029028060999991910070906004+69100+027217FM-12+014999999V0203601N009819999999N0000001N9+00501+99999099741ADDGF108991999999999999999999
0035028060999991910070913004+69100+027217FM-12+014999999V0200201N013919999999N0000001N9+00781+99999099661ADDGF108991999999999999999999MW1621
0029028060999991910070920004+69100+027217FM-12+014999999V0200201N011819999999N0000001N9+00671+99999099941ADDGF104991999999999999999999
0029028060999991910071006004+69100+027217FM-12+014999999V0202301N004119999999N0000001N9+00721+99999100141ADDGF104991999999999999999999
0029028060999991910071013004+69100+027217FM-12+014999999V0202301N001019999999N0000001N9+01561+99999100101ADDGF100991999999999999999999
0029028060999991910071020004+69100+027217FM-12+014999999V0201801N001019999999N0000001N9+01501+99999100061ADDGF100991999999999999999999
0029028060999991910071106004+69100+027217FM-12+014999999V0202301N004119999999N0000001N9+01611+99999999999ADDGF100991999999999999999999
0029028060999991910071113004+69100+027217FM-12+014999999V0203201N008219999999N0000001N9+01941+99999099761ADDGF100991999999999999999999
0029028060999991910071120004+69100+027217FM-12+014999999V0209991C000019999999N0000001N9+01721+99999099431ADDGF108991999999999999999999
0029028060999991910071206004+69100+027217FM-12+014999999V0203401N004119999999N0000001N9+01331+99999099391ADDGF108991999999999999999999
0029028060999991910071213004+69100+027217FM-12+014999999V0203401N008219999999N0000001N9+01441+99999099621ADDGF108991999999999999999999
0029028060999991910071220004+69100+027217FM-12+014999999V0203401N002119999999N0000001N9+01171+99999099711ADDGF106991999999999999999999
0029028060999991910071306004+69100+027217FM-12+014999999V0203401N002119999999N0000001N9+00831+99999099911ADDGF106991999999999999999999
0029028060999991910071313004+69100+027217FM-12+014999999V0203601N004119999999N0000001N9+01171+99999100181ADDGF108991999999999999999999
0029028060999991910071320004+69100+027217FM-12+014999999V0201601N002119999999N0000001N9+01001+99999099991ADDGF108991999999999999999999
0035028060999991910071406004+69100+027217FM-12+014999999V0201801N004119999999N0000001N9+01061+99999099401ADDGF108991999999999999999999MW1601
0029028060999991910071413004+69100+027217FM-12+014999999V0201601N003119999999N0000001N9+01281+99999099161ADDGF106991999999999999999999
0029028060999991910071420004+69100+027217FM-12+014999999V0200201N002119999999N0000001N9+01171+99999098831ADDGF108991999999999999999999
0029028060999991910071506004+69100+027217FM-12+014999999V0200901N008219999999N0000001N9+00891+99999098631ADDGF108991999999999999999999
0029028060999991910071513004+69100+027217FM-12+014999999V0200901N009819999999N0000001N9+01001+99999098621ADDGF106991999999999999999999
0029028060999991910071520004+69100+027217FM-12+014999999V0200201N011819999999N0000001N9+00721+99999098441ADDGF108991999999999999999999
0029028060999991910071606004+69100+027217FM-12+014999999V0200201N009819999999N0000001N9+00671+99999098621ADDGF108991999999999999999999
0029028060999991910071613004+69100+027217FM-12+014999999V0200201N013919999999N0000001N9+00561+99999098941ADDGF108991999999999999999999
0029028060999991910071620004+69100+027217FM-12+014999999V0200201N006219999999N0000001N9+00501+99999099121ADDGF106991999999999999999999
0029028060999991910071706004+69100+027217FM-12+014999999V0200201N006219999999N0000001N9+00391+99999099161ADDGF108991999999999999999999
0029028060999991910071713004+69100+027217FM-12+014999999V0203601N008219999999N0000001N9+00781+99999099181ADDGF106991999999999999999999
0035028060999991910071720004+69100+027217FM-12+014999999V0203601N008219999999N0000001N9+00501+99999099431ADDGF108991999999999999999999MW1621
0029028060999991910071806004+69100+027217FM-12+014999999V0203601N013919999999N0000001N9+00561+99999099201ADDGF108991999999999999999999
0029028060999991910071813004+69100+027217FM-12+014999999V0203401N009819999999N0000001N9+00781+99999099151ADDGF108991999999999999999999
0029028060999991910071820004+69100+027217FM-12+014999999V0203401N008219999999N0000001N9+00561+99999098951ADDGF108991999999999999999999
0035028060999991910071906004+69100+027217FM-12+014999999V0203201N011819999999N0000001N9+00561+99999098461ADDGF108991999999999999999999MW1621
0035028060999991910071913004+69100+027217FM-12+014999999V0203201N013919999999N0000001N9+00611+99999098421ADDGF108991999999999999999999MW1621
0035028060999991910071920004+69100+027217FM-12+014999999V0202701N011819999999N0000001N9+00441+99999098311ADDGF108991999999999999999999MW1621
0029028060999991910072006004+69100+027217FM-12+014999999V0202701N006219999999N0000001N9+00561+99999098381ADDGF106991999999999999999999
0035028060999991910072013004+69100+027217FM-12+014999999V0202501N008219999999N0000001N9+01171+99999098581ADDGF108991999999999999999999MW1621
0029028060999991910072020004+69100+027217FM-12+014999999V0209991C000019999999N0000001N9+99999+99999098821ADDGF100991999999999999999999
0029028060999991910072106004+69100+027217FM-12+014999999V0202001N004119999999N0000001N9+01111+99999099181ADDGF100991999999999999999999
0029028060999991910072113004+69100+027217FM-12+014999999V0201601N006219999999N0000001N9+01671+99999099241ADDGF100991999999999999999999
0029028060999991910072120004+69100+027217FM-12+014999999V0200901N008219999999N0000001N9+99999+99999099231ADDGF100991999999999999999999
0029028060999991910072206004+69100+027217FM-12+014999999V0201101N004119999999N0000001N9+01331+99999099501ADDGF100991999999999999999999
0029028060999991910072213004+69100+027217FM-12+014999999V0200901N008219999999N0000001N9+01281+99999099471ADDGF100991999999999999999999
0029028060999991910072220004+69100+027217FM-12+014999999V0200501N008219999999N0000001N9+01221+99999099481ADDGF104991999999999999999999
0029028060999991910072306004+69100+027217FM-12+014999999V0200901N004119999999N0000001N9+00891+99999099071ADDGF104991999999999999999999
0029028060999991910072313004+69100+027217FM-12+014999999V0201101N006219999999N0000001N9+02001+99999098911ADDGF104991999999999999999999
0029028060999991910072320004+69100+027217FM-12+014999999V0201401N002119999999N0000001N9+01671+99999098801ADDGF104991999999999999999999
0029028060999991910072406004+69100+027217FM-12+014999999V0200901N008219999999N0000001N9+01561+99999098661ADDGF100991999999999999999999
0029028060999991910072413004+69100+027217FM-12+014999999V0200501N008219999999N0000001N9+01781+99999098561ADDGF100991999999999999999999
0029028060999991910072420004+69100+027217FM-12+014999999V0200901N002119999999N0000001N9+01391+99999098591ADDGF100991999999999999999999
0035028060999991910072506004+69100+027217FM-12+014999999V0203601N008219999999N0000001N9+01061+99999098341ADDGF108991999999999999999999MW1641
0035028060999991910072513004+69100+027217FM-12+014999999V0200501N006219999999N0000001N9+01001+99999098201ADDGF108991999999999999999999MW1641
0029028060999991910072520004+69100+027217FM-12+014999999V0203401N008219999999N0000001N9+00781+99999098101ADDGF108991999999999999999999
0035028060999991910072606004+69100+027217FM-12+014999999V0203601N006219999999N0000001N9+00671+99999098281ADDGF108991999999999999999999MW1621
0029028060999991910072613004+69100+027217FM-12+014999999V0203401N004119999999N0000001N9+00891+99999098581ADDGF108991999999999999999999
0029028060999991910072620004+69100+027217FM-12+014999999V0209991C000019999999N0000001N9+01001+99999098991ADDGF100991999999999999999999
0029028060999991910072706004+69100+027217FM-12+014999999V0209991C000019999999N0000001N9+01111+99999099261ADDGF104991999999999999999999
0029028060999991910072713004+69100+027217FM-12+014999999V0202001N006219999999N0000001N9+02281+99999099141ADDGF106991999999999999999999
0029028060999991910072720004+69100+027217FM-12+014999999V0201801N002119999999N0000001N9+01941+99999099461ADDGF100991999999999999999999
0029028060999991910072806004+69100+027217FM-12+014999999V0202501N004119999999N0000001N9+01611+99999099671ADDGF104991999999999999999999
0029028060999991910072813004+69100+027217FM-12+014999999V0202001N004119999999N0000001N9+02391+99999099681ADDGF104991999999999999999999
0029028060999991910072820004+69100+027217FM-12+014999999V0203601N008219999999N0000001N9+01331+99999099831ADDGF104991999999999999999999
0029028060999991910072906004+69100+027217FM-12+014999999V0200201N008219999999N0000001N9+00831+99999099881ADDGF108991999999999999999999
0029028060999991910072913004+69100+027217FM-12+014999999V0200701N009819999999N0000001N9+01171+99999099751ADDGF108991999999999999999999
0029028060999991910072920004+69100+027217FM-12+014999999V0203601N011819999999N0000001N9+00781+99999099601ADDGF108991999999999999999999
0029028060999991910073006004+69100+027217FM-12+014999999V0200201N009819999999N0000001N9+00611+99999099701ADDGF108991999999999999999999
0035028060999991910073013004+69100+027217FM-12+014999999V0203601N008219999999N0000001N9+00781+99999099681ADDGF108991999999999999999999MW1621
0029028060999991910073020004+69100+027217FM-12+014999999V0200501N006219999999N0000001N9+00671+99999099871ADDGF107991999999999999999999
0029028060999991910073106004+69100+027217FM-12+014999999V0200501N004119999999N0000001N9+00561+99999100261ADDGF108991999999999999999999
0029028060999991910073113004+69100+027217FM-12+014999999V0200901N002119999999N0000001N9+01171+99999100111ADDGF106991999999999999999999
0029028060999991910073120004+69100+027217FM-12+014999999V0209991C000019999999N0000001N9+01171+99999100441ADDGF100991999999999999999999
0029028060999991910080106004+69100+027217FM-12+014999999V0200901N001019999999N0000001N9+01001+99999100661ADDGF100991999999999999999999
0029028060999991910080113004+69100+027217FM-12+014999999V0200901N002119999999N0000001N9+01831+99999100641ADDGF100991999999999999999999
0029028060999991910080120004+69100+027217FM-12+014999999V0200901N001019999999N0000001N9+01441+99999100721ADDGF100991999999999999999999
0029028060999991910080206004+69100+027217FM-12+014999999V0209991C000019999999N0000001N9+01221+99999100951ADDGF100991999999999999999999
0029028060999991910080213004+69100+027217FM-12+014999999V0200901N004119999999N0000001N9+02281+99999100801ADDGF100991999999999999999999
0029028060999991910080220004+69100+027217FM-12+014999999V0202501N002119999999N0000001N9+01721+99999100641ADDGF104991999999999999999999
0029028060999991910080306004+69100+027217FM-12+014999999V0200501N008219999999N0000001N9+00941+99999100751ADDGF108991999999999999999999
0029028060999991910080313004+69100+027217FM-12+014999999V0200901N008219999999N0000001N9+01441+99999100801ADDGF100991999999999999999999
0029028060999991910080320004+69100+027217FM-12+014999999V0200901N009819999999N0000001N9+01281+99999100861ADDGF100991999999999999999999
0029028060999991910080406004+69100+027217FM-12+014999999V0200901N006219999999N0000001N9+00611+99999101061ADDGF108991999999999999999999
0029028060999991910080413004+69100+027217FM-12+014999999V0201101N008219999999N0000001N9+99999+99999100821ADDGF100991999999999999999999
0029028060999991910080420004+69100+027217FM-12+014999999V0200901N008219999999N0000001N9+01501+99999100921ADDGF100991999999999999999999
0029028060999991910080506004+69100+027217FM-12+014999999V0200901N002119999999N0000001N9+01281+99999100951ADDGF100991999999999999999999
0029028060999991910080513004+69100+027217FM-12+014999999V0202001N004119999999N0000001N9+02171+99999100951ADDGF100991999999999999999999
0029028060999991910080520004+69100+027217FM-12+014999999V0201401N002119999999N0000001N9+02061+99999100781ADDGF100991999999999999999999
0029028060999991910080606004+69100+027217FM-12+014999999V0202001N004119999999N0000001N9+01891+99999100701ADDGF100991999999999999999999
0029028060999991910080613004+69100+027217FM-12+014999999V0202301N008219999999N0000001N9+02281+99999100511ADDGF100991999999999999999999
0029028060999991910080620004+69100+027217FM-12+014999999V0202301N002119999999N0000001N9+01831+99999100231ADDGF104991999999999999999999
0029028060999991910080706004+69100+027217FM-12+014999999V0200201N008219999999N0000001N9+01441+99999100591ADDGF104991999999999999999999
0029028060999991910080713004+69100+027217FM-12+014999999V0200501N008219999999N0000001N9+01721+99999100641ADDGF100991999999999999999999
0029028060999991910080720004+69100+027217FM-12+014999999V0200701N004119999999N0000001N9+01001+99999100721ADDGF100991999999999999999999
0029028060999991910080806004+69100+027217FM-12+014999999V0202001N004119999999N0000001N9+00781+99999100181ADDGF100991999999999999999999
0029028060999991910080813004+69100+027217FM-12+014999999V0203601N002119999999N0000001N9+01941+99999099881ADDGF104991999999999999999999
0029028060999991910080820004+69100+027217FM-12+014999999V0200501N009819999999N0000001N9+00721+99999100231ADDGF106991999999999999999999
0029028060999991910080906004+69100+027217FM-12+014999999V0203601N013919999999N0000001N9+00611+99999100421ADDGF108991999999999999999999
0029028060999991910080913004+69100+027217FM-12+014999999V0200201N009819999999N0000001N9+00831+99999100511ADDGF108991999999999999999999
0029028060999991910080920004+69100+027217FM-12+014999999V0200701N013919999999N0000001N9+00671+99999100541ADDGF108991999999999999999999
0029028060999991910081006004+69100+027217FM-12+014999999V0202701N006219999999N0000001N9+00671+99999100081ADDGF104991999999999999999999
0029028060999991910081013004+69100+027217FM-12+014999999V0203201N004119999999N0000001N9+01561+99999099421ADDGF100991999999999999999999
0029028060999991910081020004+69100+027217FM-12+014999999V0203601N006219999999N0000001N9+00891+99999099341ADDGF106991999999999999999999
0029028060999991910081106004+69100+027217FM-12+014999999V0203401N009819999999N0000001N9+00561+99999099351ADDGF108991999999999999999999
0029028060999991910081113004+69100+027217FM-12+014999999V0203601N013919999999N0000001N9+00671+99999099301ADDGF108991999999999999999999
0035028060999991910081120004+69100+027217FM-12+014999999V0203601N013919999999N0000001N9+00501+99999099401ADDGF108991999999999999999999MW1691
0029028060999991910081206004+69100+027217FM-12+014999999V0200501N006219999999N0000001N9+00501+99999099711ADDGF106991999999999999999999
0029028060999991910081213004+69100+027217FM-12+014999999V0200501N008219999999N0000001N9+01001+99999099711ADDGF104991999999999999999999
0029028060999991910081220004+69100+027217FM-12+014999999V0200501N008219999999N0000001N9+00721+99999099761ADDGF108991999999999999999999
0029028060999991910081306004+69100+027217FM-12+014999999V0203601N004119999999N0000001N9+00671+99999099701ADDGF100991999999999999999999
0029028060999991910081313004+69100+027217FM-12+014999999V0200901N006219999999N0000001N9+00941+99999099621ADDGF100991999999999999999999
0029028060999991910081320004+69100+027217FM-12+014999999V0203601N002119999999N0000001N9+00891+99999099591ADDGF108991999999999999999999
0029028060999991910081406004+69100+027217FM-12+014999999V0203601N006219999999N0000001N9+00611+99999099591ADDGF108991999999999999999999
0029028060999991910081413004+69100+027217FM-12+014999999V0203601N002119999999N0000001N9+01061+99999099601ADDGF104991999999999999999999
0029028060999991910081420004+69100+027217FM-12+014999999V0200501N002119999999N0000001N9+00721+99999099431ADDGF108991999999999999999999
0029028060999991910081506004+69100+027217FM-12+014999999V0202701N004119999999N0000001N9+00671+99999099341ADDGF108991999999999999999999
0029028060999991910081513004+69100+027217FM-12+014999999V0202901N006219999999N0000001N9+01171+99999099191ADDGF100991999999999999999999
0029028060999991910081520004+69100+027217FM-12+014999999V0203401N006219999999N0000001N9+00781+99999099201ADDGF108991999999999999999999
0029028060999991910081606004+69100+027217FM-12+014999999V0203401N004119999999N0000001N9+00611+99999099271ADDGF108991999999999999999999
0035028060999991910081613004+69100+027217FM-12+014999999V0203201N008219999999N0000001N9+00891+99999099101ADDGF108991999999999999999999MW1621
0029028060999991910081620004+69100+027217FM-12+014999999V0202501N002119999999N0000001N9+00671+99999099081ADDGF108991999999999999999999
0029028060999991910081706004+69100+027217FM-12+014999999V0203401N006219999999N0000001N9+00671+99999098911ADDGF106991999999999999999999
0029028060999991910081713004+69100+027217FM-12+014999999V0203401N008219999999N0000001N9+01001+99999098871ADDGF106991999999999999999999
0029028060999991910081720004+69100+027217FM-12+014999999V0202701N002119999999N0000001N9+00721+99999098751ADDGF106991999999999999999999
0029028060999991910081806004+69100+027217FM-12+014999999V0202501N008219999999N0000001N9+00561+99999098431ADDGF108991999999999999999999
0029028060999991910081813004+69100+027217FM-12+014999999V0202701N009819999999N0000001N9+01001+99999098151ADDGF106991999999999999999999
0029028060999991910081820004+69100+027217FM-12+014999999V0202701N004119999999N0000001N9+00281+99999098421ADDGF104991999999999999999999
0029028060999991910081906004+69100+027217FM-12+014999999V0202501N011819999999N0000001N9+00281+99999098151ADDGF104991999999999999999999
0035028060999991910081913004+69100+027217FM-12+014999999V0202301N013919999999N0000001N9+00721+99999097821ADDGF108991999999999999999999MW1621
0029028060999991910081920004+69100+027217FM-12+014999999V0203201N008219999999N0000001N9+00281+99999097511ADDGF106991999999999999999999
0029028060999991910082006004+69100+027217FM-12+014999999V0203201N011819999999N0000001N9+00391+99999098021ADDGF104991999999999999999999
0029028060999991910082013004+69100+027217FM-12+014999999V0203201N009819999999N0000001N9+00561+99999098241ADDGF104991999999999999999999
0029028060999991910082020004+69100+027217FM-12+014999999V0202701N001019999999N0000001N9+00501+99999098311ADDGF108991999999999999999999
0029028060999991910082106004+69100+027217FM-12+014999999V0202301N008219999999N0000001N9+00721+99999098061ADDGF106991999999999999999999
0029028060999991910082113004+69100+027217FM-12+014999999V0202501N004119999999N0000001N9+01221+99999098061ADDGF100991999999999999999999
0035028060999991910082120004+69100+027217FM-12+014999999V0209991C000019999999N0000001N9+00721+99999097991ADDGF108991999999999999999999MW1601
0029028060999991910082206004+69100+027217FM-12+014999999V0202501N002119999999N0000001N9+00671+99999098181ADDGF108991999999999999999999
0035028060999991910082213004+69100+027217FM-12+014999999V0203601N004119999999N0000001N9+00831+99999098261ADDGF106991999999999999999999MW1601
0029028060999991910082220004+69100+027217FM-12+014999999V0203601N002119999999N0000001N9+00561+99999098441ADDGF108991999999999999999999
0029028060999991910082306004+69100+027217FM-12+014999999V0203601N002119999999N0000001N9+00501+99999098601ADDGF108991999999999999999999
0029028060999991910082313004+69100+027217FM-12+014999999V0203601N008219999999N0000001N9+00721+99999098621ADDGF106991999999999999999999
0035028060999991910082320004+69100+027217FM-12+014999999V0203601N009819999999N0000001N9+00441+99999098791ADDGF108991999999999999999999MW1621
0029028060999991910082406004+69100+027217FM-12+014999999V0203401N009819999999N0000001N9+00281+99999099061ADDGF106991999999999999999999
0029028060999991910082413004+69100+027217FM-12+014999999V0203201N013919999999N0000001N9+00611+99999099241ADDGF106991999999999999999999
0029028060999991910082420004+69100+027217FM-12+014999999V0209991C000019999999N0000001N9+00331+99999099441ADDGF100991999999999999999999
0029028060999991910082506004+69100+027217FM-12+014999999V0202701N008219999999N0000001N9+00331+99999099681ADDGF100991999999999999999999
0029028060999991910082513004+69100+027217FM-12+014999999V0202901N006219999999N0000001N9+00891+99999099741ADDGF100991999999999999999999
0029028060999991910082520004+69100+027217FM-12+014999999V0209991C000019999999N0000001N9+00671+99999099841ADDGF104991999999999999999999
0029028060999991910082606004+69100+027217FM-12+014999999V0202701N008219999999N0000001N9+00671+99999100021ADDGF100991999999999999999999
0029028060999991910082613004+69100+027217FM-12+014999999V0202001N008219999999N0000001N9+01441+99999099831ADDGF100991999999999999999999
0029028060999991910082620004+69100+027217FM-12+014999999V0209991C000019999999N0000001N9+01001+99999099861ADDGF108991999999999999999999
0029028060999991910082706004+69100+027217FM-12+014999999V0202301N013919999999N0000001N9+01001+99999100021ADDGF108991999999999999999999
0029028060999991910082713004+69100+027217FM-12+014999999V0202301N006219999999N0000001N9+01391+99999099961ADDGF108991999999999999999999
0035028060999991910082720004+69100+027217FM-12+014999999V0209991C000019999999N0000001N9+01001+99999099941ADDGF108991999999999999999999MW1621
0035028060999991910082806004+69100+027217FM-12+014999999V0201801N002119999999N0000001N9+00781+99999099941ADDGF108991999999999999999999MW1621
0029028060999991910082813004+69100+027217FM-12+014999999V0209991C000019999999N0000001N9+01001+99999099751ADDGF108991999999999999999999
0029028060999991910082820004+69100+027217FM-12+014999999V0209991C000019999999N0000001N9+00891+99999099951ADDGF108991999999999999999999
0029028060999991910082906004+69100+027217FM-12+014999999V0209991C000019999999N0000001N9+00831+99999099961ADDGF108991999999999999999999
0029028060999991910082913004+69100+027217FM-12+014999999V0202001N002119999999N0000001N9+01111+99999100101ADDGF108991999999999999999999
0029028060999991910082920004+69100+027217FM-12+014999999V0209991C000019999999N0000001N9+00671+99999100271ADDGF105991999999999999999999
0029028060999991910083006004+69100+027217FM-12+014999999V0200901N002119999999N0000001N9+00721+99999100541ADDGF108991999999999999999999
0029028060999991910083013004+69100+027217FM-12+014999999V0201601N002119999999N0000001N9+01111+99999100711ADDGF106991999999999999999999
0029028060999991910083020004+69100+027217FM-12+014999999V0209991C000019999999N0000001N9+00941+99999100751ADDGF108991999999999999999999
0029028060999991910083106004+69100+027217FM-12+014999999V0202001N002119999999N0000001N9+00671+99999100721ADDGF100991999999999999999999
0029028060999991910083113004+69100+027217FM-12+014999999V0202001N006219999999N0000001N9+01671+99999100581ADDGF106991999999999999999999
0029028060999991910083120004+69100+027217FM-12+014999999V0201801N008219999999N0000001N9+01441+99999100521ADDGF106991999999999999999999
0029028060999991910090106004+69100+027217FM-12+014999999V0202001N002119999999N0000001N9+00941+99999100581ADDGF106991999999999999999999
0029028060999991910090113004+69100+027217FM-12+014999999V0202301N013919999999N0000001N9+01611+99999100541ADDGF100991999999999999999999
0029028060999991910090120004+69100+027217FM-12+014999999V0202301N008219999999N0000001N9+01281+99999100601ADDGF106991999999999999999999
0029028060999991910090206004+69100+027217FM-12+014999999V0202301N006219999999N0000001N9+01061+99999100511ADDGF106991999999999999999999
0029028060999991910090213004+69100+027217FM-12+014999999V0202301N011819999999N0000001N9+01391+99999100501ADDGF108991999999999999999999
0029028060999991910090220004+69100+027217FM-12+014999999V0202301N004119999999N0000001N9+01331+99999100421ADDGF108991999999999999999999
