0029028060999991911010106004+69100+027217FM-12+014999999V0209991C000019999999N0000001N9-01171+99999098991ADDGF106991999999999999999999
0000028060999991911010113004+69100+027217FM-12+014999999V0209991C000019999999N0000001N9-01171+99999099031
0029028060999991911010120004+69100+027217FM-12+014999999V0209991C000019999999N0000001N9-01281+99999099441ADDGF108991999999999999999999
0029028060999991911010206004+69100+027217FM-12+014999999V0209991C000019999999N0000001N9-01221+99999100181ADDGF106991999999999999999999
0029028060999991911010213004+69100+027217FM-12+014999999V0209991C000019999999N0000001N9-00941+99999100581ADDGF108991999999999999999999
0029028060999991911010220004+69100+027217FM-12+014999999V0209991C000019999999N0000001N9-01891+99999100921ADDGF100991999999999999999999
0029028060999991911010306004+69100+027217FM-12+014999999V0202301N006219999999N0000001N9-00831+99999100941ADDGF104991999999999999999999
0029028060999991911010313004+69100+027217FM-12+014999999V0202501N008219999999N0000001N9-01281+99999101121ADDGF100991999999999999999999
0029028060999991911010320004+69100+027217FM-12+014999999V0202501N008219999999N0000001N9-01281+99999101201ADDGF104991999999999999999999
0029028060999991911010406004+69100+027217FM-12+014999999V0202301N006219999999N0000001N9-01671+99999101221ADDGF100991999999999999999999
0029028060999991911010413004+69100+027217FM-12+014999999V0202701N008219999999N0000001N9-01781+99999101281ADDGF100991999999999999999999
0029028060999991911010420004+69100+027217FM-12+014999999V0202701N008219999999N0000001N9-01781+99999101441ADDGF100991999999999999999999
0029028060999991911010506004+69100+027217FM-12+014999999V0209991C000019999999N0000001N9-01831+99999101701ADDGF100991999999999999999999
0029028060999991911010513004+69100+027217FM-12+014999999V0202501N004119999999N0000001N9-01831+99999101741ADDGF100991999999999999999999
0029028060999991911010520004+69100+027217FM-12+014999999V0202501N004119999999N0000001N9-01611+99999101581ADDGF100991999999999999999999
0029028060999991911010606004+69100+027217FM-12+014999999V0202301N004119999999N0000001N9-01281+99999101421ADDGF100991999999999999999999
0029028060999991911010613004+69100+027217FM-12+014999999V0202001N006219999999N0000001N9-01221+99999101311ADDGF100991999999999999999999
0029028060999991911010620004+69100+027217FM-12+014999999V0201801N006219999999N0000001N9-00941+99999100911ADDGF100991999999999999999999
0029028060999991911010706004+69100+027217FM-12+014999999V0201801N006219999999N0000001N9-00891+99999100071ADDGF104991999999999999999999
0029028060999991911010713004+69100+027217FM-12+014999999V0202001N013919999999N0000001N9-00391+99999099711ADDGF106991999999999999999999
0029028060999991911010720004+69100+027217FM-12+014999999V0201801N011819999999N0000001N9-00111+99999099581ADDGF106991999999999999999999
0029028060999991911010806004+69100+027217FM-12+014999999V0202301N013919999999N0000001N9-00171+99999099471ADDGF108991999999999999999999
0029028060999991911010813004+69100+027217FM-12+014999999V0202301N013919999999N0000001N9-00061+99999098961ADDGF106991999999999999999999
0029028060999991911010820004+69100+027217FM-12+014999999V0202301N020119999999N0000001N9-00111+99999098431ADDGF108991999999999999999999
0029028060999991911010906004+69100+027217FM-12+014999999V0202301N011819999999N0000001N9-00061+99999098041ADDGF108991999999999999999999
0029028060999991911010913004+69100+027217FM-12+014999999V0201801N002119999999N0000001N9-00171+99999097681ADDGF108991999999999999999999
0029028060999991911010920004+69100+027217FM-12+014999999V0202001N004119999999N0000001N9-00721+99999097391ADDGF100991999999999999999999
0029028060999991911011006004+69100+027217FM-12+014999999V0202301N004119999999N0000001N9-01171+99999097361ADDGF100991999999999999999999
0029028060999991911011013004+69100+027217FM-12+014999999V0202301N006219999999N0000001N9-00781+99999097361ADDGF106991999999999999999999
0029028060999991911011020004+69100+027217FM-12+014999999V0202501N006219999999N0000001N9-00941+99999097181ADDGF100991999999999999999999
0029028060999991911011106004+69100+027217FM-12+014999999V0202301N008219999999N0000001N9-01611+99999096941ADDGF100991999999999999999999
0029028060999991911011113004+69100+027217FM-12+014999999V0202301N004119999999N0000001N9-01941+99999096901ADDGF100991999999999999999999
0029028060999991911011120004+69100+027217FM-12+014999999V0209991C000019999999N0000001N9-02831+99999096901ADDGF100991999999999999999999
0029028060999991911011206004+69100+027217FM-12+014999999V0202501N001019999999N0000001N9-03281+99999097401ADDGF100991999999999999999999
0029028060999991911011213004+69100+027217FM-12+014999999V0202301N002119999999N0000001N9-02831+99999097641ADDGF100991999999999999999999
0029028060999991911011220004+69100+027217FM-12+014999999V0202301N001019999999N0000001N9-02831+99999097801ADDGF100991999999999999999999
0029028060999991911011306004+69100+027217FM-12+014999999V0209991C000019999999N0000001N9-03111+99999097781ADDGF100991999999999999999999
0029028060999991911011313004+69100+027217FM-12+014999999V0201801N001019999999N0000001N9-02331+99999098271ADDGF104991999999999999999999
0029028060999991911011320004+69100+027217FM-12+014999999V0209991C000019999999N0000001N9-02061+99999098501ADDGF100991999999999999999999
0029028060999991911011406004+69100+027217FM-12+014999999V0209991C000019999999N0000001N9-02331+99999098751ADDGF100991999999999999999999
0029028060999991911011413004+69100+027217FM-12+014999999V0201801N001019999999N0000001N9-02061+99999098901ADDGF100991999999999999999999
0029028060999991911011420004+69100+027217FM-12+014999999V0209991C000019999999N0000001N9-02001+99999098861ADDGF100991999999999999999999
0035028060999991911011506004+69100+027217FM-12+014999999V0201801N004119999999N0000001N9-01441+99999098241ADDGF108991999999999999999999MW1721
0029028060999991911011513004+69100+027217FM-12+014999999V0202001N001019999999N0000001N9-01441+99999098301ADDGF108991999999999999999999
0029028060999991911011520004+69100+027217FM-12+014999999V0209991C000019999999N0000001N9-00891+99999098591ADDGF100991999999999999999999
0035028060999991911011606004+69100+027217FM-12+014999999V0202001N008219999999N0000001N9-00831+99999097521ADDGF108991999999999999999999MW1701
0035028060999991911011613004+69100+027217FM-12+014999999V0202301N009819999999N0000001N9-00671+99999096401ADDGF108991999999999999999999MW1701
0035028060999991911011620004+69100+027217FM-12+014999999V0203201N011819999999N0000001N9-00281+99999096821ADDGF108991999999999999999999MW1701
0029028060999991911011706004+69100+027217FM-12+014999999V0202501N008219999999N0000001N9-01331+99999097271ADDGF100991999999999999999999
0035028060999991911011713004+69100+027217FM-12+014999999V0202501N020119999999N0000001N9-00561+99999095661ADDGF108991999999999999999999MW1721
0035028060999991911011720004+69100+027217FM-12+014999999V0203201N015919999999N0000001N9+00061+99999095271ADDGF108991999999999999999999MW1721
0029028060999991911011806004+69100+027217FM-12+014999999V0202001N006219999999N0000001N9-01171+99999096271ADDGF100991999999999999999999
0029028060999991911011813004+69100+027217FM-12+014999999V0203401N020119999999N0000001N9-00221+99999097231ADDGF104991999999999999999999
0029028060999991911011820004+69100+027217FM-12+014999999V0203601N015919999999N0000001N9-00561+99999098201ADDGF104991999999999999999999
0029028060999991911011906004+69100+027217FM-12+014999999V0202301N004119999999N0000001N9-00941+99999098481ADDGF100991999999999999999999
0029028060999991911011913004+69100+027217FM-12+014999999V0201801N001019999999N0000001N9-00721+99999097781ADDGF108991999999999999999999
0035028060999991911011920004+69100+027217FM-12+014999999V0202001N020119999999N0000001N9-00281+99999096581ADDGF108991999999999999999999MW1701
0029028060999991911012006004+69100+027217FM-12+014999999V0202501N002119999999N0000001N9-00391+99999097221ADDGF100991999999999999999999
0029028060999991911012013004+69100+027217FM-12+014999999V0202501N006219999999N0000001N9-00561+99999097581ADDGF104991999999999999999999
0029028060999991911012020004+69100+027217FM-12+014999999V0202301N002119999999N0000001N9-00781+99999098151ADDGF100991999999999999999999
0029028060999991911012106004+69100+027217FM-12+014999999V0202301N004119999999N0000001N9-00611+99999097311ADDGF100991999999999999999999
0029028060999991911012113004+69100+027217FM-12+014999999V0202301N001019999999N0000001N9-00501+99999096951ADDGF100991999999999999999999
0035028060999991911012120004+69100+027217FM-12+014999999V0200901N002119999999N0000001N9-00611+99999096081ADDGF108991999999999999999999MW1721
0029028060999991911012206004+69100+027217FM-12+014999999V0203401N006219999999N0000001N9-00831+99999096421ADDGF100991999999999999999999
0029028060999991911012213004+69100+027217FM-12+014999999V0203401N008219999999N0000001N9-00671+99999097111ADDGF100991999999999999999999
0029028060999991911012220004+69100+027217FM-12+014999999V0202701N008219999999N0000001N9-00721+99999097581ADDGF100991999999999999999999
0029028060999991911012306004+69100+027217FM-12+014999999V0202501N006219999999N0000001N9-00831+99999098631ADDGF104991999999999999999999
0029028060999991911012313004+69100+027217FM-12+014999999V0202701N011819999999N0000001N9-00441+99999097831ADDGF104991999999999999999999
0029028060999991911012320004+69100+027217FM-12+014999999V0202301N011819999999N0000001N9-00281+99999097921ADDGF100991999999999999999999
0029028060999991911012406004+69100+027217FM-12+014999999V0202501N013919999999N0000001N9+00001+99999097831ADDGF106991999999999999999999
0029028060999991911012413004+69100+027217FM-12+014999999V0202701N011819999999N0000001N9-00061+99999097671ADDGF100991999999999999999999
0029028060999991911012420004+69100+027217FM-12+014999999V0201801N004119999999N0000001N9-00281+99999097301ADDGF100991999999999999999999
0035028060999991911012506004+69100+027217FM-12+014999999V0201801N013919999999N0000001N9-00441+99999096041ADDGF104991999999999999999999MW1701
0035028060999991911012513004+69100+027217FM-12+014999999V0202301N009819999999N0000001N9-00331+99999095521ADDGF108991999999999999999999MW1701
0029028060999991911012520004+69100+027217FM-12+014999999V0202301N004119999999N0000001N9-00891+99999095681ADDGF100991999999999999999999
0029028060999991911012606004+69100+027217FM-12+014999999V0202501N008219999999N0000001N9-01331+99999095481ADDGF100991999999999999999999
0035028060999991911012613004+69100+027217FM-12+014999999V0202301N006219999999N0000001N9-01061+99999095671ADDGF100991999999999999999999MW1481
0029028060999991911012620004+69100+027217FM-12+014999999V0202301N008219999999N0000001N9-00891+99999096151ADDGF100991999999999999999999
0029028060999991911012706004+69100+027217FM-12+014999999V0202501N006219999999N0000001N9-01441+99999096591ADDGF100991999999999999999999
0035028060999991911012713004+69100+027217FM-12+014999999V0202501N008219999999N0000001N9-00721+99999096681ADDGF106991999999999999999999MW1701
0029028060999991911012720004+69100+027217FM-12+014999999V0202301N004119999999N0000001N9-00831+99999097351ADDGF104991999999999999999999
0029028060999991911012806004+69100+027217FM-12+014999999V0202501N008219999999N0000001N9-00891+99999097871ADDGF108991999999999999999999
0029028060999991911012813004+69100+027217FM-12+014999999V0203401N008219999999N0000001N9-00671+99999098621ADDGF108991999999999999999999
0029028060999991911012820004+69100+027217FM-12+014999999V0209991C000019999999N0000001N9-01001+99999099581ADDGF100991999999999999999999
0035028060999991911012906004+69100+027217FM-12+014999999V0209991C000019999999N0000001N9-01061+99999100621ADDGF100991999999999999999999MW1481
0035028060999991911012913004+69100+027217FM-12+014999999V0202301N002119999999N0000001N9-01221+99999101361ADDGF100991999999999999999999MW1481
0035028060999991911012920004+69100+027217FM-12+014999999V0202301N002119999999N0000001N9-01671+99999101671ADDGF106991999999999999999999MW1481
0035028060999991911013006004+69100+027217FM-12+014999999V0201801N002119999999N0000001N9-02391+99999101081ADDGF104991999999999999999999MW1481
0035028060999991911013013004+69100+027217FM-12+014999999V0202501N008219999999N0000001N9-01171+99999100981ADDGF104991999999999999999999MW1481
0035028060999991911013020004+69100+027217FM-12+014999999V0202301N006219999999N0000001N9-01221+99999100021ADDGF104991999999999999999999MW1381
0035028060999991911013106004+69100+027217FM-12+014999999V0202301N009819999999N0000001N9-00611+99999098801ADDGF108991999999999999999999MW1701
0029028060999991911013113004+69100+027217FM-12+014999999V0209991C000019999999N0000001N9-00831+99999098871ADDGF104991999999999999999999
0029028060999991911013120004+69100+027217FM-12+014999999V0202301N001019999999N0000001N9-00941+99999099401ADDGF100991999999999999999999
0029028060999991911020106004+69100+027217FM-12+014999999V0209991C000019999999N0000001N9-01001+99999100101ADDGF100991999999999999999999
0029028060999991911020113004+69100+027217FM-12+014999999V0202301N006219999999N0000001N9-01061+99999100221ADDGF104991999999999999999999
0035028060999991911020120004+69100+027217FM-12+014999999V0202001N008219999999N0000001N9-00941+99999099901ADDGF108991999999999999999999MW1381
0029028060999991911020206004+69100+027217FM-12+014999999V0209991C000019999999N0000001N9-01831+99999098981ADDGF100991999999999999999999
0029028060999991911020213004+69100+027217FM-12+014999999V0202301N002119999999N0000001N9-01061+99999099361ADDGF104991999999999999999999
0029028060999991911020220004+69100+027217FM-12+014999999V0209991C000019999999N0000001N9-01061+99999099601ADDGF108991999999999999999999
0035028060999991911020306004+69100+027217FM-12+014999999V0201801N009819999999N0000001N9-00831+99999098271ADDGF108991999999999999999999MW1701
0035028060999991911020313004+69100+027217FM-12+014999999V0202501N008219999999N0000001N9-00671+99999097561ADDGF108991999999999999999999MW1701
0035028060999991911020320004+69100+027217FM-12+014999999V0209991C000019999999N0000001N9-01061+99999097121ADDGF100991999999999999999999MW1701
0029028060999991911020406004+69100+027217FM-12+014999999V0203201N002119999999N0000001N9-00671+99999097361ADDGF100991999999999999999999
0029028060999991911020413004+69100+027217FM-12+014999999V0202901N004119999999N0000001N9-00561+99999097801ADDGF104991999999999999999999
0029028060999991911020420004+69100+027217FM-12+014999999V0202301N002119999999N0000001N9-00721+99999098461ADDGF100991999999999999999999
0035028060999991911020506004+69100+027217FM-12+014999999V0200901N002119999999N0000001N9-01061+99999099781ADDGF104991999999999999999999MW1701
0029028060999991911020513004+69100+027217FM-12+014999999V0201601N002119999999N0000001N9-01441+99999100521ADDGF104991999999999999999999
0029028060999991911020520004+69100+027217FM-12+014999999V0202301N004119999999N0000001N9-01781+99999100821ADDGF100991999999999999999999
0029028060999991911020606004+69100+027217FM-12+014999999V0202301N009819999999N0000001N9-01281+99999100361ADDGF106991999999999999999999
0029028060999991911020613004+69100+027217FM-12+014999999V0202501N011819999999N0000001N9-01391+99999099551ADDGF100991999999999999999999
0035028060999991911020620004+69100+027217FM-12+014999999V0202001N020119999999N0000001N9-01331+99999098351ADDGF106991999999999999999999MW1381
0029028060999991911020706004+69100+027217FM-12+014999999V0203601N009819999999N0000001N9-01061+99999098031ADDGF104991999999999999999999
0029028060999991911020713004+69100+027217FM-12+014999999V0203601N008219999999N0000001N9-00891+99999098831ADDGF100991999999999999999999
0029028060999991911020720004+69100+027217FM-12+014999999V0203201N006219999999N0000001N9-01331+99999099241ADDGF100991999999999999999999
0029028060999991911020806004+69100+027217FM-12+014999999V0209991C000019999999N0000001N9-01781+99999099641ADDGF100991999999999999999999
0029028060999991911020813004+69100+027217FM-12+014999999V0202501N006219999999N0000001N9-01281+99999099711ADDGF104991999999999999999999
0029028060999991911020820004+69100+027217FM-12+014999999V0209991C000019999999N0000001N9-01111+99999099401ADDGF100991999999999999999999
0029028060999991911020906004+69100+027217FM-12+014999999V0209991C000019999999N0000001N9-01441+99999099281ADDGF108991999999999999999999
0035028060999991911020913004+69100+027217FM-12+014999999V0209991C000019999999N0000001N9-01171+99999099511ADDGF108991999999999999999999MW1701
0029028060999991911020920004+69100+027217FM-12+014999999V0209991C000019999999N0000001N9-00941+99999099761ADDGF104991999999999999999999
0029028060999991911021006004+69100+027217FM-12+014999999V0202301N004119999999N0000001N9-00671+99999099921ADDGF108991999999999999999999
0029028060999991911021013004+69100+027217FM-12+014999999V0202501N006219999999N0000001N9-00671+99999100181ADDGF104991999999999999999999
0029028060999991911021020004+69100+027217FM-12+014999999V0202501N009819999999N0000001N9-00721+99999099981ADDGF104991999999999999999999
0035028060999991911021106004+69100+027217FM-12+014999999V0202301N011819999999N0000001N9-00611+99999099671ADDGF108991999999999999999999MW1381
0029028060999991911021113004+69100+027217FM-12+014999999V0202001N011819999999N0000001N9-00671+99999099751ADDGF108991999999999999999999
0035028060999991911021120004+69100+027217FM-12+014999999V0202301N008219999999N0000001N9-00781+99999099901ADDGF104991999999999999999999MW1381
0035028060999991911021206004+69100+027217FM-12+014999999V0202501N009819999999N0000001N9-01221+99999100471ADDGF104991999999999999999999MW1381
0029028060999991911021213004+69100+027217FM-12+014999999V0202301N011819999999N0000001N9-01061+99999100661ADDGF108991999999999999999999
0035028060999991911021220004+69100+027217FM-12+014999999V0202501N020119999999N0000001N9-01001+99999100431ADDGF106991999999999999999999MW1381
0035028060999991911021306004+69100+027217FM-12+014999999V0202301N013919999999N0000001N9-00781+99999100181ADDGF106991999999999999999999MW1381
0029028060999991911021313004+69100+027217FM-12+014999999V0202301N020119999999N0000001N9-00561+99999099671ADDGF108991999999999999999999
0035028060999991911021320004+69100+027217FM-12+014999999V0202301N020119999999N0000001N9-00391+99999099001ADDGF108991999999999999999999MW1381
0035028060999991911021406004+69100+027217FM-12+014999999V0202301N020119999999N0000001N9-00221+99999098471ADDGF106991999999999999999999MW1381
0029028060999991911021413004+69100+027217FM-12+014999999V0202301N009819999999N0000001N9-00221+99999098241ADDGF106991999999999999999999
0035028060999991911021420004+69100+027217FM-12+014999999V0202501N008219999999N0000001N9-00391+99999098021ADDGF104991999999999999999999MW1381
0029028060999991911021506004+69100+027217FM-12+014999999V0209991C000019999999N0000001N9-00561+99999098111ADDGF106991999999999999999999
0029028060999991911021513004+69100+027217FM-12+014999999V0200501N002119999999N0000001N9-00831+99999097761ADDGF100991999999999999999999
0029028060999991911021520004+69100+027217FM-12+014999999V0209991C000019999999N0000001N9-01721+99999097441ADDGF108991999999999999999999
0029028060999991911021606004+69100+027217FM-12+014999999V0200501N002119999999N0000001N9-01001+99999096521ADDGF108991999999999999999999
0029028060999991911021613004+69100+027217FM-12+014999999V0209991C000019999999N0000001N9-01501+99999096401ADDGF100991999999999999999999
0029028060999991911021620004+69100+027217FM-12+014999999V0209991C000019999999N0000001N9-02061+99999096311ADDGF108991999999999999999999
0029028060999991911021706004+69100+027217FM-12+014999999V0201801N001019999999N0000001N9-02061+99999096301ADDGF108991999999999999999999
0035028060999991911021713004+69100+027217FM-12+014999999V0200901N002119999999N0000001N9-01111+99999096461ADDGF108991999999999999999999MW1701
0029028060999991911021720004+69100+027217FM-12+014999999V0200901N001019999999N0000001N9-02221+99999096861ADDGF100991999999999999999999
0029028060999991911021806004+69100+027217FM-12+014999999V0202301N002119999999N0000001N9-02781+99999097231ADDGF104991999999999999999999
0029028060999991911021813004+69100+027217FM-12+014999999V0209991C000019999999N0000001N9-02171+99999097511ADDGF100991999999999999999999
0029028060999991911021820004+69100+027217FM-12+014999999V0209991C000019999999N0000001N9-02391+99999097591ADDGF100991999999999999999999
0029028060999991911021906004+69100+027217FM-12+014999999V0202301N001019999999N0000001N9-02891+99999097421ADDGF100991999999999999999999
0029028060999991911021913004+69100+027217FM-12+014999999V0209991C000019999999N0000001N9-02331+99999097161ADDGF100991999999999999999999
0029028060999991911021920004+69100+027217FM-12+014999999V0209991C000019999999N0000001N9-03501+99999096961ADDGF100991999999999999999999
0029028060999991911022006004+69100+027217FM-12+014999999V0209991C000019999999N0000001N9-03781+99999096901ADDGF100991999999999999999999
0029028060999991911022013004+69100+027217FM-12+014999999V0202301N004119999999N0000001N9-02501+99999097261ADDGF106991999999999999999999
0029028060999991911022020004+69100+027217FM-12+014999999V0209991C000019999999N0000001N9-03111+99999097591ADDGF100991999999999999999999
0029028060999991911022106004+69100+027217FM-12+014999999V0202501N006219999999N0000001N9-02721+99999097521ADDGF104991999999999999999999
0029028060999991911022113004+69100+027217FM-12+014999999V0202501N008219999999N0000001N9-01331+99999097551ADDGF100991999999999999999999
0029028060999991911022120004+69100+027217FM-12+014999999V0202501N006219999999N0000001N9-01891+99999096861ADDGF100991999999999999999999
0029028060999991911022206004+69100+027217FM-12+014999999V0202701N008219999999N0000001N9-01941+99999096081ADDGF100991999999999999999999
0029028060999991911022213004+69100+027217FM-12+014999999V0202701N004119999999N0000001N9-01781+99999096081ADDGF104991999999999999999999
0035028060999991911022220004+69100+027217FM-12+014999999V0200501N004119999999N0000001N9-01781+99999095621ADDGF108991999999999999999999MW1701
0029028060999991911022306004+69100+027217FM-12+014999999V0200501N004119999999N0000001N9-01561+99999095361ADDGF108991999999999999999999
0029028060999991911022313004+69100+027217FM-12+014999999V0203601N006219999999N0000001N9-01221+99999095711ADDGF100991999999999999999999
0029028060999991911022320004+69100+027217FM-12+014999999V0209991C000019999999N0000001N9-01831+99999095951ADDGF100991999999999999999999
0029028060999991911022406004+69100+027217FM-12+014999999V0209991C000019999999N0000001N9-02891+99999095941ADDGF100991999999999999999999
0029028060999991911022413004+69100+027217FM-12+014999999V0202301N002119999999N0000001N9-02171+99999096001ADDGF100991999999999999999999
0029028060999991911022420004+69100+027217FM-12+014999999V0202301N002119999999N0000001N9-02611+99999096141ADDGF100991999999999999999999
0029028060999991911022506004+69100+027217FM-12+014999999V0209991C000019999999N0000001N9-01941+99999097041ADDGF100991999999999999999999
0029028060999991911022513004+69100+027217FM-12+014999999V0209991C000019999999N0000001N9-01831+99999097401ADDGF100991999999999999999999
0029028060999991911022520004+69100+027217FM-12+014999999V0202501N004119999999N0000001N9-02111+99999097521ADDGF100991999999999999999999
0029028060999991911022606004+69100+027217FM-12+014999999V0202301N006219999999N0000001N9-02441+99999097721ADDGF100991999999999999999999
0029028060999991911022613004+69100+027217FM-12+014999999V0202501N006219999999N0000001N9-01941+99999097951ADDGF100991999999999999999999
0029028060999991911022620004+69100+027217FM-12+014999999V0202501N006219999999N0000001N9-02001+99999098001ADDGF108991999999999999999999
0035028060999991911022706004+69100+027217FM-12+014999999V0202301N009819999999N0000001N9-01171+99999097201ADDGF108991999999999999999999MW1701
0029028060999991911022713004+69100+027217FM-12+014999999V0202501N009819999999N0000001N9-01001+99999097501ADDGF108991999999999999999999
0029028060999991911022720004+69100+027217FM-12+014999999V0202501N009819999999N0000001N9-01111+99999097781ADDGF108991999999999999999999
0029028060999991911022806004+69100+027217FM-12+014999999V0202701N008219999999N0000001N9-01501+99999098041ADDGF100991999999999999999999
0035028060999991911022813004+69100+027217FM-12+014999999V0202501N008219999999N0000001N9-00891+99999098231ADDGF104991999999999999999999MW1381
0029028060999991911022820004+69100+027217FM-12+014999999V0202301N002119999999N0000001N9-01281+99999098311ADDGF108991999999999999999999
0035028060999991911030106004+69100+027217FM-12+014999999V0200901N008219999999N0000001N9-00941+99999097431ADDGF108991999999999999999999MW1721
0035028060999991911030113004+69100+027217FM-12+014999999V0200901N008219999999N0000001N9-00781+99999097111ADDGF108991999999999999999999MW1701
0035028060999991911030120004+69100+027217FM-12+014999999V0200901N006219999999N0000001N9-00831+99999097221ADDGF108991999999999999999999MW1701
0035028060999991911030206004+69100+027217FM-12+014999999V0200901N008219999999N0000001N9-00831+99999097141ADDGF108991999999999999999999MW1721
0035028060999991911030213004+69100+027217FM-12+014999999V0200701N008219999999N0000001N9-00721+99999097321ADDGF108991999999999999999999MW1721
0035028060999991911030220004+69100+027217FM-12+014999999V0200701N006219999999N0000001N9-00721+99999097561ADDGF108991999999999999999999MW1721
0029028060999991911030306004+69100+027217FM-12+014999999V0200901N004119999999N0000001N9-00781+99999098271ADDGF108991999999999999999999
0035028060999991911030313004+69100+027217FM-12+014999999V0200901N004119999999N0000001N9-00831+99999098641ADDGF108991999999999999999999MW1701
0035028060999991911030320004+69100+027217FM-12+014999999V0201101N004119999999N0000001N9-01061+99999098671ADDGF108991999999999999999999MW1701
0035028060999991911030406004+69100+027217FM-12+014999999V0200901N002119999999N0000001N9-01281+99999098061ADDGF108991999999999999999999MW1701
0035028060999991911030413004+69100+027217FM-12+014999999V0200901N004119999999N0000001N9-01061+99999097841ADDGF108991999999999999999999MW1701
0035028060999991911030420004+69100+027217FM-12+014999999V0209991C000019999999N0000001N9-01061+99999097741ADDGF108991999999999999999999MW1701
0029028060999991911030506004+69100+027217FM-12+014999999V0209991C000019999999N0000001N9-01171+99999097901ADDGF106991999999999999999999
0029028060999991911030513004+69100+027217FM-12+014999999V0202301N002119999999N0000001N9-00891+99999098021ADDGF106991999999999999999999
0029028060999991911030520004+69100+027217FM-12+014999999V0209991C000019999999N0000001N9-01391+99999098461ADDGF100991999999999999999999
0029028060999991911030606004+69100+027217FM-12+014999999V0203601N008219999999N0000001N9-00561+99999098831ADDGF100991999999999999999999
0029028060999991911030613004+69100+027217FM-12+014999999V0203601N009819999999N0000001N9-00391+99999099201ADDGF104991999999999999999999
0035028060999991911030620004+69100+027217FM-12+014999999V0203601N009819999999N0000001N9-00501+99999099301ADDGF104991999999999999999999MW1381
0029028060999991911030706004+69100+027217FM-12+014999999V0203601N009819999999N0000001N9-00441+99999099481ADDGF106991999999999999999999
0035028060999991911030713004+69100+027217FM-12+014999999V0203601N006219999999N0000001N9-00391+99999099701ADDGF108991999999999999999999MW1701
0029028060999991911030720004+69100+027217FM-12+014999999V0209991C000019999999N0000001N9-00831+99999099861ADDGF100991999999999999999999
0029028060999991911030806004+69100+027217FM-12+014999999V0200501N001019999999N0000001N9-00671+99999099961ADDGF100991999999999999999999
0029028060999991911030813004+69100+027217FM-12+014999999V0200501N002119999999N0000001N9-00561+99999099841ADDGF106991999999999999999999
0035028060999991911030820004+69100+027217FM-12+014999999V0200201N002119999999N0000001N9-01111+99999099761ADDGF108991999999999999999999MW1701
0029028060999991911030906004+69100+027217FM-12+014999999V0209991C000019999999N0000001N9-02441+99999099621ADDGF104991999999999999999999
0029028060999991911030913004+69100+027217FM-12+014999999V0200201N001019999999N0000001N9-01331+99999099581ADDGF108991999999999999999999
0029028060999991911030920004+69100+027217FM-12+014999999V0209991C000019999999N0000001N9-01891+99999099481ADDGF104991999999999999999999
0035028060999991911031006004+69100+027217FM-12+014999999V0201601N004119999999N0000001N9-00781+99999099191ADDGF108991999999999999999999MW1701
0029028060999991911031013004+69100+027217FM-12+014999999V0202501N009819999999N0000001N9-00501+99999099201ADDGF108991999999999999999999
0029028060999991911031020004+69100+027217FM-12+014999999V0202301N009819999999N0000001N9-00561+99999099311ADDGF108991999999999999999999
0029028060999991911031106004+69100+027217FM-12+014999999V0201801N004119999999N0000001N9-00721+99999099191ADDGF108991999999999999999999
0029028060999991911031113004+69100+027217FM-12+014999999V0201801N006219999999N0000001N9-00501+99999099181ADDGF100991999999999999999999
0029028060999991911031120004+69100+027217FM-12+014999999V0201401N008219999999N0000001N9-00561+99999098991ADDGF108991999999999999999999
0035028060999991911031206004+69100+027217FM-12+014999999V0201101N008219999999N0000001N9-00561+99999098301ADDGF108991999999999999999999MW1701
0009028060999991911031213004+69100+027217FM-12+014999999V0201101N004119999999N0000001N9-00171+99999098001ADDMW1701
0029028060999991911031220004+69100+027217FM-12+014999999V0201801N008219999999N0000001N9-00061+99999098111ADDGF108991999999999999999999
0029028060999991911031306004+69100+027217FM-12+014999999V0202301N011819999999N0000001N9-00391+99999098471ADDGF104991999999999999999999
0029028060999991911031313004+69100+027217FM-12+014999999V0202501N008219999999N0000001N9-00281+99999098661ADDGF100991999999999999999999
0029028060999991911031320004+69100+027217FM-12+014999999V0202501N008219999999N0000001N9-00331+99999098751ADDGF104991999999999999999999
0029028060999991911031406004+69100+027217FM-12+014999999V0202501N004119999999N0000001N9-00441+99999099041ADDGF106991999999999999999999
0029028060999991911031413004+69100+027217FM-12+014999999V0202701N002119999999N0000001N9-00331+99999099461ADDGF100991999999999999999999
0029028060999991911031420004+69100+027217FM-12+014999999V0209991C000019999999N0000001N9-01331+99999099501ADDGF100991999999999999999999
0029028060999991911031506004+69100+027217FM-12+014999999V0202701N001019999999N0000001N9-01721+99999099621ADDGF100991999999999999999999
0029028060999991911031513004+69100+027217FM-12+014999999V0202301N001019999999N0000001N9-00391+99999099641ADDGF100991999999999999999999
0029028060999991911031520004+69100+027217FM-12+014999999V0209991C000019999999N0000001N9-00721+99999099911ADDGF100991999999999999999999
0029028060999991911031606004+69100+027217FM-12+014999999V0203601N006219999999N0000001N9-00671+99999100181ADDGF100991999999999999999999
0029028060999991911031613004+69100+027217FM-12+014999999V0203601N008219999999N0000001N9-00331+99999100421ADDGF104991999999999999999999
0029028060999991911031620004+69100+027217FM-12+014999999V0209991C000019999999N0000001N9-00501+99999100501ADDGF104991999999999999999999
0029028060999991911031706004+69100+027217FM-12+014999999V0202501N006219999999N0000001N9-00721+99999099761ADDGF104991999999999999999999
0029028060999991911031713004+69100+027217FM-12+014999999V0203401N009819999999N0000001N9-00331+99999100071ADDGF108991999999999999999999
0035028060999991911031720004+69100+027217FM-12+014999999V0203401N009819999999N0000001N9-00611+99999100341ADDGF104991999999999999999999MW1381
0035028060999991911031806004+69100+027217FM-12+014999999V0202501N008219999999N0000001N9-00441+99999100271ADDGF106991999999999999999999MW1381
0035028060999991911031813004+69100+027217FM-12+014999999V0202701N008219999999N0000001N9-00171+99999100061ADDGF106991999999999999999999MW1381
0035028060999991911031820004+69100+027217FM-12+014999999V0202301N009819999999N0000001N9-00221+99999099601ADDGF104991999999999999999999MW1381
0029028060999991911031906004+69100+027217FM-12+014999999V0202901N008219999999N0000001N9+00001+99999098961ADDGF104991999999999999999999
0029028060999991911031913004+69100+027217FM-12+014999999V0203601N009819999999N0000001N9-00331+99999099141ADDGF104991999999999999999999
0029028060999991911031920004+69100+027217FM-12+014999999V0203201N004119999999N0000001N9-01171+99999100341ADDGF100991999999999999999999
0029028060999991911032006004+69100+027217FM-12+014999999V0202301N002119999999N0000001N9-01391+99999100681ADDGF104991999999999999999999
0035028060999991911032013004+69100+027217FM-12+014999999V0202501N006219999999N0000001N9-00781+99999100221ADDGF108991999999999999999999MW1701
0029028060999991911032020004+69100+027217FM-12+014999999V0202301N008219999999N0000001N9-00501+99999099951ADDGF106991999999999999999999
0029028060999991911032106004+69100+027217FM-12+014999999V0202501N009819999999N0000001N9-00171+99999099981ADDGF108991999999999999999999
0029028060999991911032113004+69100+027217FM-12+014999999V0202901N004119999999N0000001N9+00221+99999100151ADDGF104991999999999999999999
0029028060999991911032120004+69100+027217FM-12+014999999V0202301N004119999999N0000001N9-00221+99999100061ADDGF108991999999999999999999
0029028060999991911032206004+69100+027217FM-12+014999999V0202301N002119999999N0000001N9-00391+99999099741ADDGF100991999999999999999999
0029028060999991911032213004+69100+027217FM-12+014999999V0202001N002119999999N0000001N9-00331+99999099431ADDGF100991999999999999999999
0029028060999991911032220004+69100+027217FM-12+014999999V0209991C000019999999N0000001N9-01331+99999099021ADDGF100991999999999999999999
0029028060999991911032306004+69100+027217FM-12+014999999V0209991C000019999999N0000001N9-01171+99999098361ADDGF108991999999999999999999
0035028060999991911032313004+69100+027217FM-12+014999999V0200901N002119999999N0000001N9-00721+99999098351ADDGF108991999999999999999999MW1741
0035028060999991911032320004+69100+027217FM-12+014999999V0200901N006219999999N0000001N9-00781+99999098431ADDGF108991999999999999999999MW1741
0035028060999991911032406004+69100+027217FM-12+014999999V0200201N004119999999N0000001N9-00671+99999099261ADDGF108991999999999999999999MW1721
0000028060999991911032413004+69100+027217FM-12+014999999V0200901N004119999999N0000001N9-00671+99999099921
0035028060999991911032420004+69100+027217FM-12+014999999V0202301N004119999999N0000001N9-00721+99999100311ADDGF108991999999999999999999MW1381
0029028060999991911032506004+69100+027217FM-12+014999999V0202501N006219999999N0000001N9-01061+99999099401ADDGF104991999999999999999999
0029028060999991911032513004+69100+027217FM-12+014999999V0202501N011819999999N0000001N9-00391+99999098551ADDGF104991999999999999999999
0029028060999991911032520004+69100+027217FM-12+014999999V0202501N008219999999N0000001N9-00061+99999098431ADDGF100991999999999999999999
0029028060999991911032606004+69100+027217FM-12+014999999V0202701N006219999999N0000001N9-00171+99999099081ADDGF108991999999999999999999
0029028060999991911032613004+69100+027217FM-12+014999999V0202501N009819999999N0000001N9+00171+99999098721ADDGF106991999999999999999999
0029028060999991911032620004+69100+027217FM-12+014999999V0202501N013919999999N0000001N9+00221+99999098181ADDGF106991999999999999999999
0029028060999991911032706004+69100+027217FM-12+014999999V0202501N027819999999N0000001N9+00331+99999096221ADDGF106991999999999999999999
0035028060999991911032713004+69100+027217FM-12+014999999V0202901N011819999999N0000001N9-00281+99999096991ADDGF106991999999999999999999MW1681
0029028060999991911032720004+69100+027217FM-12+014999999V0202701N013919999999N0000001N9-00781+99999097381ADDGF100991999999999999999999
0029028060999991911032806004+69100+027217FM-12+014999999V0203601N008219999999N0000001N9-01061+99999098021ADDGF100991999999999999999999
0029028060999991911032813004+69100+027217FM-12+014999999V0203601N009819999999N0000001N9-00831+99999098701ADDGF100991999999999999999999
0029028060999991911032820004+69100+027217FM-12+014999999V0202501N008219999999N0000001N9-01061+99999098681ADDGF100991999999999999999999
0029028060999991911032906004+69100+027217FM-12+014999999V0202501N002119999999N0000001N9-01001+99999098801ADDGF106991999999999999999999
0029028060999991911032913004+69100+027217FM-12+014999999V0202901N008219999999N0000001N9-00501+99999098941ADDGF100991999999999999999999
0029028060999991911032920004+69100+027217FM-12+014999999V0202501N006219999999N0000001N9-01061+99999099151ADDGF104991999999999999999999
0029028060999991911033006004+69100+027217FM-12+014999999V0202301N002119999999N0000001N9-00831+99999098431ADDGF108991999999999999999999
0029028060999991911033013004+69100+027217FM-12+014999999V0202501N009819999999N0000001N9+00061+99999097501ADDGF108991999999999999999999
0029028060999991911033020004+69100+027217FM-12+014999999V0202001N006219999999N0000001N9+00111+99999096551ADDGF108991999999999999999999
0029028060999991911033106004+69100+027217FM-12+014999999V0202901N006219999999N0000001N9+99999+99999095471ADDGF108991999999999999999999
0029028060999991911033113004+69100+027217FM-12+014999999V0203601N027819999999N0000001N9-00441+99999096921ADDGF104991999999999999999999
0029028060999991911033120004+69100+027217FM-12+014999999V0203201N008219999999N0000001N9-01171+99999097821ADDGF100991999999999999999999
0029028060999991911040106004+69100+027217FM-12+014999999V0202301N002119999999N0000001N9-01171+99999097951ADDGF100991999999999999999999
0029028060999991911040113004+69100+027217FM-12+014999999V0202701N002119999999N0000001N9-00281+99999097791ADDGF100991999999999999999999
0029028060999991911040120004+69100+027217FM-12+014999999V0209991C000019999999N0000001N9-01281+99999097511ADDGF108991999999999999999999
0029028060999991911040206004+69100+027217FM-12+014999999V0209991C000019999999N0000001N9-01671+99999097521ADDGF100991999999999999999999
0029028060999991911040213004+69100+027217FM-12+014999999V0203601N006219999999N0000001N9-00781+99999097711ADDGF100991999999999999999999
0029028060999991911040220004+69100+027217FM-12+014999999V0203601N002119999999N0000001N9-01221+99999098031ADDGF100991999999999999999999
0029028060999991911040306004+69100+027217FM-12+014999999V0203601N002119999999N0000001N9-01281+99999098791ADDGF100991999999999999999999
0035028060999991911040313004+69100+027217FM-12+014999999V0203201N009819999999N0000001N9-00941+99999099301ADDGF100991999999999999999999MW1381
0029028060999991911040320004+69100+027217FM-12+014999999V0203201N006219999999N0000001N9-01111+99999099711ADDGF100991999999999999999999
0029028060999991911040406004+69100+027217FM-12+014999999V0203601N006219999999N0000001N9-01061+99999100281ADDGF104991999999999999999999
0029028060999991911040413004+69100+027217FM-12+014999999V0203601N006219999999N0000001N9-00501+99999100781ADDGF100991999999999999999999
0029028060999991911040420004+69100+027217FM-12+014999999V0209991C000019999999N0000001N9-01611+99999100751ADDGF100991999999999999999999
0029028060999991911040506004+69100+027217FM-12+014999999V0202301N001019999999N0000001N9-01331+99999100231ADDGF104991999999999999999999
0029028060999991911040513004+69100+027217FM-12+014999999V0202301N011819999999N0000001N9-00501+99999099581ADDGF108991999999999999999999
0035028060999991911040520004+69100+027217FM-12+014999999V0202501N013919999999N0000001N9-00441+99999098761ADDGF108991999999999999999999MW1381
0029028060999991911040606004+69100+027217FM-12+014999999V0202701N009819999999N0000001N9-00061+99999098341ADDGF100991999999999999999999
0029028060999991911040613004+69100+027217FM-12+014999999V0202701N008219999999N0000001N9+00221+99999098861ADDGF100991999999999999999999
0029028060999991911040620004+69100+027217FM-12+014999999V0202701N002119999999N0000001N9-00061+99999099231ADDGF100991999999999999999999
0029028060999991911040706004+69100+027217FM-12+014999999V0203201N002119999999N0000001N9+00001+99999099621ADDGF104991999999999999999999
0029028060999991911040713004+69100+027217FM-12+014999999V0202701N006219999999N0000001N9+00221+99999099871ADDGF104991999999999999999999
0029028060999991911040720004+69100+027217FM-12+014999999V0202501N002119999999N0000001N9+00221+99999099601ADDGF106991999999999999999999
0029028060999991911040806004+69100+027217FM-12+014999999V0202501N002119999999N0000001N9-00221+99999098381ADDGF100991999999999999999999
0035028060999991911040813004+69100+027217FM-12+014999999V0203401N009819999999N0000001N9+00281+99999098021ADDGF104991999999999999999999MW1721
0035028060999991911040820004+69100+027217FM-12+014999999V0203201N006219999999N0000001N9-00331+99999098341ADDGF100991999999999999999999MW1001
0029028060999991911040906004+69100+027217FM-12+014999999V0202701N004119999999N0000001N9-00721+99999098281ADDGF100991999999999999999999
0029028060999991911040913004+69100+027217FM-12+014999999V0202701N009819999999N0000001N9-00281+99999098391ADDGF100991999999999999999999
0029028060999991911040920004+69100+027217FM-12+014999999V0202701N008219999999N0000001N9-00721+99999098341ADDGF100991999999999999999999
0029028060999991911041006004+69100+027217FM-12+014999999V0202701N006219999999N0000001N9-00671+99999098241ADDGF104991999999999999999999
0029028060999991911041013004+69100+027217FM-12+014999999V0202701N009819999999N0000001N9-00281+99999098141ADDGF104991999999999999999999
0029028060999991911041020004+69100+027217FM-12+014999999V0202701N006219999999N0000001N9-00501+99999098141ADDGF104991999999999999999999
0029028060999991911041106004+69100+027217FM-12+014999999V0203601N004119999999N0000001N9-00441+99999097741ADDGF100991999999999999999999
0029028060999991911041113004+69100+027217FM-12+014999999V0203401N004119999999N0000001N9-00221+99999097841ADDGF100991999999999999999999
0029028060999991911041120004+69100+027217FM-12+014999999V0209991C000019999999N0000001N9-00611+99999097761ADDGF106991999999999999999999
0029028060999991911041206004+69100+027217FM-12+014999999V0203601N004119999999N0000001N9-00721+99999097661ADDGF104991999999999999999999
0029028060999991911041213004+69100+027217FM-12+014999999V0203401N008219999999N0000001N9-00281+99999097961ADDGF104991999999999999999999
0029028060999991911041220004+69100+027217FM-12+014999999V0203401N004119999999N0000001N9-00561+99999098321ADDGF106991999999999999999999
0029028060999991911041306004+69100+027217FM-12+014999999V0203201N004119999999N0000001N9-00611+99999098561ADDGF104991999999999999999999
0029028060999991911041313004+69100+027217FM-12+014999999V0202701N006219999999N0000001N9-00391+99999098681ADDGF104991999999999999999999
0029028060999991911041320004+69100+027217FM-12+014999999V0209991C000019999999N0000001N9-00721+99999098781ADDGF100991999999999999999999
0035028060999991911041406004+69100+027217FM-12+014999999V0202001N004119999999N0000001N9-00611+99999097261ADDGF108991999999999999999999MW1701
0029028060999991911041413004+69100+027217FM-12+014999999V0202001N002119999999N0000001N9+00171+99999096941ADDGF106991999999999999999999
0029028060999991911041420004+69100+027217FM-12+014999999V0209991C000019999999N0000001N9-00391+99999096981ADDGF100991999999999999999999
0029028060999991911041506004+69100+027217FM-12+014999999V0209991C000019999999N0000001N9-00721+99999096981ADDGF100991999999999999999999
0029028060999991911041513004+69100+027217FM-12+014999999V0202001N006219999999N0000001N9+00391+99999097081ADDGF108991999999999999999999
0035028060999991911041520004+69100+027217FM-12+014999999V0201801N002119999999N0000001N9+00111+99999097151ADDGF108991999999999999999999MW1681
0035028060999991911041606004+69100+027217FM-12+014999999V0200901N002119999999N0000001N9+00061+99999097261ADDGF108991999999999999999999MW1701
0035028060999991911041613004+69100+027217FM-12+014999999V0201601N004119999999N0000001N9+00221+99999097041ADDGF108991999999999999999999MW1701
0035028060999991911041620004+69100+027217FM-12+014999999V0201401N001019999999N0000001N9+00061+99999097081ADDGF108991999999999999999999MW1701
0035028060999991911041706004+69100+027217FM-12+014999999V0200901N001019999999N0000001N9-00061+99999097021ADDGF108991999999999999999999MW1701
0029028060999991911041713004+69100+027217FM-12+014999999V0200501N002119999999N0000001N9+00281+99999097081ADDGF104991999999999999999999
0029028060999991911041720004+69100+027217FM-12+014999999V0209991C000019999999N0000001N9-00281+99999097281ADDGF104991999999999999999999
0029028060999991911041806004+69100+027217FM-12+014999999V0202701N004119999999N0000001N9-00221+99999097391ADDGF100991999999999999999999
0029028060999991911041813004+69100+027217FM-12+014999999V0202701N009819999999N0000001N9+00171+99999097621ADDGF100991999999999999999999
0035028060999991911041820004+69100+027217FM-12+014999999V0202701N009819999999N0000001N9-00061+99999097821ADDGF108991999999999999999999MW1701
0029028060999991911041906004+69100+027217FM-12+014999999V0203601N011819999999N0000001N9-00061+99999098361ADDGF104991999999999999999999
0035028060999991911041913004+69100+027217FM-12+014999999V0203601N011819999999N0000001N9+00111+99999099321ADDGF108991999999999999999999MW1701
0029028060999991911041920004+69100+027217FM-12+014999999V0203601N008219999999N0000001N9+00001+99999100071ADDGF108991999999999999999999
0029028060999991911042006004+69100+027217FM-12+014999999V0203601N001019999999N0000001N9-00061+99999100791ADDGF108991999999999999999999
0029028060999991911042013004+69100+027217FM-12+014999999V0203601N001019999999N0000001N9+00221+99999101021ADDGF108991999999999999999999
0029028060999991911042020004+69100+027217FM-12+014999999V0201101N001019999999N0000001N9-00061+99999100951ADDGF104991999999999999999999
0029028060999991911042106004+69100+027217FM-12+014999999V0201401N001019999999N0000001N9+00281+99999100381ADDGF100991999999999999999999
0029028060999991911042113004+69100+027217FM-12+014999999V0202001N002119999999N0000001N9+00781+99999099781ADDGF100991999999999999999999
0029028060999991911042120004+69100+027217FM-12+014999999V0202001N006219999999N0000001N9+00561+99999099201ADDGF104991999999999999999999
0035028060999991911042206004+69100+027217FM-12+014999999V0209991C000019999999N0000001N9+00171+99999098381ADDGF108991999999999999999999MW1601
0035028060999991911042213004+69100+027217FM-12+014999999V0203601N004119999999N0000001N9+00221+99999098201ADDGF108991999999999999999999MW1721
0029028060999991911042220004+69100+027217FM-12+014999999V0203601N002119999999N0000001N9-00111+99999098241ADDGF108991999999999999999999
0035028060999991911042306004+69100+027217FM-12+014999999V0200501N006219999999N0000001N9-00111+99999097721ADDGF108991999999999999999999MW1741
0035028060999991911042313004+69100+027217FM-12+014999999V0200501N006219999999N0000001N9-00061+99999097681ADDGF106991999999999999999999MW1701
0029028060999991911042320004+69100+027217FM-12+014999999V0200701N008219999999N0000001N9-00331+99999097821ADDGF108991999999999999999999
0035028060999991911042406004+69100+027217FM-12+014999999V0200701N008219999999N0000001N9-00501+99999097461ADDGF108991999999999999999999MW1701
0035028060999991911042413004+69100+027217FM-12+014999999V0200501N009819999999N0000001N9-00331+99999097751ADDGF108991999999999999999999MW1701
0029028060999991911042420004+69100+027217FM-12+014999999V0200501N006219999999N0000001N9-00671+99999098001ADDGF106991999999999999999999
0029028060999991911042506004+69100+027217FM-12+014999999V0200501N008219999999N0000001N9-00781+99999098501ADDGF108991999999999999999999
0029028060999991911042513004+69100+027217FM-12+014999999V0200501N006219999999N0000001N9-00561+99999098841ADDGF100991999999999999999999
0029028060999991911042520004+69100+027217FM-12+014999999V0200501N002119999999N0000001N9-00781+99999099241ADDGF106991999999999999999999
0029028060999991911042606004+69100+027217FM-12+014999999V0209991C000019999999N0000001N9-01061+99999099561ADDGF100991999999999999999999
0029028060999991911042613004+69100+027217FM-12+014999999V0209991C000019999999N0000001N9-00221+99999099631ADDGF100991999999999999999999
0029028060999991911042620004+69100+027217FM-12+014999999V0203401N001019999999N0000001N9-01111+99999099781ADDGF100991999999999999999999
0029028060999991911042706004+69100+027217FM-12+014999999V0203601N002119999999N0000001N9-00721+99999999999ADDGF100991999999999999999999
0029028060999991911042713004+69100+027217FM-12+014999999V0200201N004119999999N0000001N9-00331+99999099951ADDGF100991999999999999999999
0029028060999991911042720004+69100+027217FM-12+014999999V0200901N006219999999N0000001N9-00671+99999999999ADDGF100991999999999999999999
0029028060999991911042806004+69100+027217FM-12+014999999V0200901N006219999999N0000001N9-00781+99999099841ADDGF100991999999999999999999
0035028060999991911042813004+69100+027217FM-12+014999999V0201401N011819999999N0000001N9-00501+99999099441ADDGF108991999999999999999999MW1701
0035028060999991911042820004+69100+027217FM-12+014999999V0200901N008219999999N0000001N9-00561+99999099031ADDGF108991999999999999999999MW1701
0035028060999991911042906004+69100+027217FM-12+014999999V0200901N004119999999N0000001N9-00331+99999098621ADDGF108991999999999999999999MW1701
0029028060999991911042913004+69100+027217FM-12+014999999V0201801N002119999999N0000001N9+00281+99999098421ADDGF106991999999999999999999
0029028060999991911042920004+69100+027217FM-12+014999999V0202001N001019999999N0000001N9+00281+99999098361ADDGF108991999999999999999999
0035028060999991911043006004+69100+027217FM-12+014999999V0200901N004119999999N0000001N9+00061+99999097711ADDGF108991999999999999999999MW1691
0035028060999991911043013004+69100+027217FM-12+014999999V0209991C000019999999N0000001N9+00331+99999097671ADDGF108991999999999999999999MW1601
0029028060999991911043020004+69100+027217FM-12+014999999V0202501N002119999999N0000001N9+00111+99999097871ADDGF108991999999999999999999
0029028060999991911050106004+69100+027217FM-12+014999999V0203601N004119999999N0000001N9-00171+99999098801ADDGF104991999999999999999999
0029028060999991911050113004+69100+027217FM-12+014999999V0203601N008219999999N0000001N9+00001+99999099241ADDGF104991999999999999999999
0029028060999991911050120004+69100+027217FM-12+014999999V0209991C000019999999N0000001N9-00441+99999099751ADDGF100991999999999999999999
0029028060999991911050206004+69100+027217FM-12+014999999V0209991C000019999999N0000001N9-00281+99999100271ADDGF104991999999999999999999
0029028060999991911050213004+69100+027217FM-12+014999999V0201801N001019999999N0000001N9+00221+99999100521ADDGF100991999999999999999999
0029028060999991911050220004+69100+027217FM-12+014999999V0202001N001019999999N0000001N9-00061+99999100441ADDGF100991999999999999999999
0029028060999991911050306004+69100+027217FM-12+014999999V0202301N001019999999N0000001N9+00001+99999100381ADDGF100991999999999999999999
0029028060999991911050313004+69100+027217FM-12+014999999V0202301N004119999999N0000001N9+00781+99999100431ADDGF100991999999999999999999
0029028060999991911050320004+69100+027217FM-12+014999999V0209991C000019999999N0000001N9+00331+99999100421ADDGF100991999999999999999999
0029028060999991911050406004+69100+027217FM-12+014999999V0202301N001019999999N0000001N9+00331+99999100421ADDGF100991999999999999999999
0029028060999991911050413004+69100+027217FM-12+014999999V0201801N006219999999N0000001N9+00941+99999100441ADDGF100991999999999999999999
0029028060999991911050420004+69100+027217FM-12+014999999V0201801N004119999999N0000001N9+00611+99999100481ADDGF100991999999999999999999
0029028060999991911050506004+69100+027217FM-12+014999999V0202001N002119999999N0000001N9+00721+99999100301ADDGF100991999999999999999999
0029028060999991911050513004+69100+027217FM-12+014999999V0201801N011819999999N0000001N9+00941+99999100181ADDGF100991999999999999999999
0029028060999991911050520004+69100+027217FM-12+014999999V0200901N006219999999N0000001N9+00721+99999100021ADDGF106991999999999999999999
0035028060999991911050606004+69100+027217FM-12+014999999V0201801N009819999999N0000001N9+00281+99999099541ADDGF108991999999999999999999MW1641
0029028060999991911050613004+69100+027217FM-12+014999999V0202501N008219999999N0000001N9+00721+99999099561ADDGF100991999999999999999999
0035028060999991911050620004+69100+027217FM-12+014999999V0202701N006219999999N0000001N9+00281+99999100111ADDGF100991999999999999999999MW1601
0029028060999991911050706004+69100+027217FM-12+014999999V0202301N002119999999N0000001N9+00281+99999100161ADDGF100991999999999999999999
0029028060999991911050713004+69100+027217FM-12+014999999V0202701N006219999999N0000001N9+00781+99999099961ADDGF100991999999999999999999
0029028060999991911050720004+69100+027217FM-12+014999999V0209991C000019999999N0000001N9+00221+99999099621ADDGF106991999999999999999999
0046028060999991911050806004+69100+027217FM-12+014999999V0202501N002119999999N0000001N9+00441+99999099431ADDAJ100009199999999GF100991999999999999999999
0029028060999991911050813004+69100+027217FM-12+014999999V0202501N004119999999N0000001N9+00891+99999099631ADDGF100991999999999999999999
0029028060999991911050820004+69100+027217FM-12+014999999V0202301N006219999999N0000001N9+00561+99999099421ADDGF108991999999999999999999
0046028060999991911050906004+69100+027217FM-12+014999999V0202501N006219999999N0000001N9+00671+99999099511ADDAJ100009199999999GF100991999999999999999999
0029028060999991911050913004+69100+027217FM-12+014999999V0202301N004119999999N0000001N9+00941+99999099601ADDGF100991999999999999999999
0029028060999991911050920004+69100+027217FM-12+014999999V0202301N004119999999N0000001N9+00501+99999099341ADDGF100991999999999999999999
0046028060999991911051006004+69100+027217FM-12+014999999V0202701N008219999999N0000001N9+00441+99999099061ADDAJ100009199999999GF100991999999999999999999
0029028060999991911051013004+69100+027217FM-12+014999999V0202701N011819999999N0000001N9+00561+99999099951ADDGF104991999999999999999999
0029028060999991911051020004+69100+027217FM-12+014999999V0202501N009819999999N0000001N9+00171+99999100511ADDGF106991999999999999999999
0046028060999991911051106004+69100+027217FM-12+014999999V0202701N009819999999N0000001N9+00171+99999100661ADDAJ100009199999999GF104991999999999999999999
0029028060999991911051113004+69100+027217FM-12+014999999V0202501N011819999999N0000001N9+00441+99999100321ADDGF104991999999999999999999
0029028060999991911051120004+69100+027217FM-12+014999999V0202701N009819999999N0000001N9+00281+99999099761ADDGF106991999999999999999999
0046028060999991911051206004+69100+027217FM-12+014999999V0203601N004119999999N0000001N9+00061+99999099951ADDAJ100009199999999GF104991999999999999999999
0035028060999991911051213004+69100+027217FM-12+014999999V0203201N006219999999N0000001N9+00171+99999999999ADDGF108991999999999999999999MW1701
0029028060999991911051220004+69100+027217FM-12+014999999V0203201N004119999999N0000001N9-00061+99999100021ADDGF104991999999999999999999
0046028060999991911051306004+69100+027217FM-12+014999999V0203201N006219999999N0000001N9+00001+99999100221ADDAJ100009199999999GF106991999999999999999999
0035028060999991911051313004+69100+027217FM-12+014999999V0203201N006219999999N0000001N9+00221+99999100111ADDGF106991999999999999999999MW1901
0029028060999991911051320004+69100+027217FM-12+014999999V0209991C000019999999N0000001N9+00001+99999100031ADDGF108991999999999999999999
0046028060999991911051406004+69100+027217FM-12+014999999V0202701N006219999999N0000001N9+00061+99999099541ADDAJ100009199999999GF108991999999999999999999
0029028060999991911051413004+69100+027217FM-12+014999999V0202301N004119999999N0000001N9+00281+99999099191ADDGF106991999999999999999999
0035028060999991911051420004+69100+027217FM-12+014999999V0200501N006219999999N0000001N9+00061+99999099341ADDGF108991999999999999999999MW1701
0052028060999991911051506004+69100+027217FM-12+014999999V0203601N006219999999N0000001N9-00281+99999099551ADDAJ100009199999999GF108991999999999999999999MW1701
0035028060999991911051513004+69100+027217FM-12+014999999V0200501N006219999999N0000001N9-00221+99999099671ADDGF108991999999999999999999MW1701
0035028060999991911051520004+69100+027217FM-12+014999999V0200501N006219999999N0000001N9-00391+99999099741ADDGF108991999999999999999999MW1701
0046028060999991911051606004+69100+027217FM-12+014999999V0200701N004119999999N0000001N9-00281+99999100071ADDAJ100009199999999GF104991999999999999999999
0029028060999991911051613004+69100+027217FM-12+014999999V0209991C000019999999N0000001N9-00111+99999100151ADDGF106991999999999999999999
0029028060999991911051620004+69100+027217FM-12+014999999V0200701N004119999999N0000001N9-00281+99999100151ADDGF108991999999999999999999
0046028060999991911051706004+69100+027217FM-12+014999999V0201601N006219999999N0000001N9-00171+99999099951ADDAJ100009199999999GF108991999999999999999999
0029028060999991911051713004+69100+027217FM-12+014999999V0201801N002119999999N0000001N9+00281+99999099921ADDGF104991999999999999999999
0029028060999991911051720004+69100+027217FM-12+014999999V0201101N004119999999N0000001N9+00061+99999099951ADDGF100991999999999999999999
0046028060999991911051806004+69100+027217FM-12+014999999V0201801N002119999999N0000001N9+00061+99999099981ADDAJ100009199999999GF108991999999999999999999
0029028060999991911051813004+69100+027217FM-12+014999999V0201801N001019999999N0000001N9+00281+99999099881ADDGF106991999999999999999999
0029028060999991911051820004+69100+027217FM-12+014999999V0201401N002119999999N0000001N9+00221+99999099741ADDGF106991999999999999999999
0046028060999991911051906004+69100+027217FM-12+014999999V0200901N008219999999N0000001N9-00061+99999099661ADDAJ100009199999999GF100991999999999999999999
0029028060999991911051913004+69100+027217FM-12+014999999V0200901N008219999999N0000001N9+00111+99999099951ADDGF104991999999999999999999
0029028060999991911051920004+69100+027217FM-12+014999999V0200701N006219999999N0000001N9-00171+99999100311ADDGF106991999999999999999999
0046028060999991911052006004+69100+027217FM-12+014999999V0203601N006219999999N0000001N9-00221+99999100441ADDAJ100009199999999GF108991999999999999999999
0035028060999991911052013004+69100+027217FM-12+014999999V0200501N006219999999N0000001N9-00111+99999100541ADDGF108991999999999999999999MW1701
0029028060999991911052020004+69100+027217FM-12+014999999V0209991C000019999999N0000001N9-00111+99999100511ADDGF108991999999999999999999
0046028060999991911052106004+69100+027217FM-12+014999999V0203201N004119999999N0000001N9+00001+99999100321ADDAJ100009199999999GF100991999999999999999999
0029028060999991911052113004+69100+027217FM-12+014999999V0202301N008219999999N0000001N9+00221+99999100111ADDGF100991999999999999999999
0029028060999991911052120004+69100+027217FM-12+014999999V0201801N004119999999N0000001N9+00281+99999099841ADDGF100991999999999999999999
0046028060999991911052206004+69100+027217FM-12+014999999V0202301N009819999999N0000001N9+00331+99999099361ADDAJ100009199999999GF108991999999999999999999
0029028060999991911052213004+69100+027217FM-12+014999999V0202301N011819999999N0000001N9+00671+99999099271ADDGF104991999999999999999999
0029028060999991911052220004+69100+027217FM-12+014999999V0202001N002119999999N0000001N9+00781+99999099431ADDGF108991999999999999999999
0046028060999991911052306004+69100+027217FM-12+014999999V0201801N008219999999N0000001N9+00781+99999099311ADDAJ100009199999999GF100991999999999999999999
0029028060999991911052313004+69100+027217FM-12+014999999V0202001N011819999999N0000001N9+01331+99999099521ADDGF100991999999999999999999
0029028060999991911052320004+69100+027217FM-12+014999999V0201601N002119999999N0000001N9+01001+99999099471ADDGF100991999999999999999999
0046028060999991911052406004+69100+027217FM-12+014999999V0202301N004119999999N0000001N9+01061+99999099581ADDAJ100009199999999GF100991999999999999999999
0029028060999991911052413004+69100+027217FM-12+014999999V0201801N006219999999N0000001N9+01441+99999099681ADDGF100991999999999999999999
0029028060999991911052420004+69100+027217FM-12+014999999V0202001N002119999999N0000001N9+01221+99999099761ADDGF100991999999999999999999
0046028060999991911052506004+69100+027217FM-12+014999999V0202501N008219999999N0000001N9+01221+99999100071ADDAJ100009199999999GF100991999999999999999999
0029028060999991911052513004+69100+027217FM-12+014999999V0202701N008219999999N0000001N9+01441+99999100181ADDGF100991999999999999999999
0029028060999991911052520004+69100+027217FM-12+014999999V0201801N004119999999N0000001N9+01331+99999100431ADDGF100991999999999999999999
0046028060999991911052606004+69100+027217FM-12+014999999V0202301N002119999999N0000001N9+01281+99999100861ADDAJ100009199999999GF100991999999999999999999
0029028060999991911052613004+69100+027217FM-12+014999999V0202501N006219999999N0000001N9+01941+99999100921ADDGF100991999999999999999999
0029028060999991911052620004+69100+027217FM-12+014999999V0201801N002119999999N0000001N9+01831+99999100921ADDGF100991999999999999999999
0046028060999991911052706004+69100+027217FM-12+014999999V0209991C000019999999N0000001N9+01441+99999100961ADDAJ100009199999999GF100991999999999999999999
0029028060999991911052713004+69100+027217FM-12+014999999V0202301N009819999999N0000001N9+02061+99999100631ADDGF104991999999999999999999
0029028060999991911052720004+69100+027217FM-12+014999999V0203201N001019999999N0000001N9+01561+99999100661ADDGF104991999999999999999999
0046028060999991911052806004+69100+027217FM-12+014999999V0209991C000019999999N0000001N9+01111+99999100581ADDAJ100009199999999GF104991999999999999999999
0029028060999991911052813004+69100+027217FM-12+014999999V0202501N008219999999N0000001N9+01721+99999100421ADDGF100991999999999999999999
0029028060999991911052820004+69100+027217FM-12+014999999V0202501N004119999999N0000001N9+01281+99999100141ADDGF104991999999999999999999
0046028060999991911052906004+69100+027217FM-12+014999999V0202501N008219999999N0000001N9+00781+99999100181ADDAJ100009199999999GF108991999999999999999999
0035028060999991911052913004+69100+027217FM-12+014999999V0203401N013919999999N0000001N9+01061+99999100101ADDGF108991999999999999999999MW1811
0029028060999991911052920004+69100+027217FM-12+014999999V0203201N009819999999N0000001N9+00671+99999100391ADDGF104991999999999999999999
0046028060999991911053006004+69100+027217FM-12+014999999V0203401N009819999999N0000001N9+00671+99999099981ADDAJ100009199999999GF104991999999999999999999
0029028060999991911053013004+69100+027217FM-12+014999999V0203401N011819999999N0000001N9+00501+99999099991ADDGF103991999999999999999999
0029028060999991911053020004+69100+027217FM-12+014999999V0203601N008219999999N0000001N9+00331+99999100161ADDGF104991999999999999999999
0046028060999991911053106004+69100+027217FM-12+014999999V0203401N009819999999N0000001N9+00281+99999100601ADDAJ100009199999999GF108991999999999999999999
0029028060999991911053113004+69100+027217FM-12+014999999V0203401N013919999999N0000001N9+00221+99999100631ADDGF106991999999999999999999
0029028060999991911053120004+69100+027217FM-12+014999999V0203401N006219999999N0000001N9+00331+99999100751ADDGF108991999999999999999999
0046028060999991911060106004+69100+027217FM-12+014999999V0202501N006219999999N0000001N9+00391+99999100141ADDAJ100009199999999GF108991999999999999999999
0029028060999991911060113004+69100+027217FM-12+014999999V0202701N011819999999N0000001N9+01391+99999100061ADDGF108991999999999999999999
0029028060999991911060120004+69100+027217FM-12+014999999V0202701N008219999999N0000001N9+01331+99999100061ADDGF108991999999999999999999
0046028060999991911060206004+69100+027217FM-12+014999999V0202301N006219999999N0000001N9+00941+99999099841ADDAJ100009199999999GF104991999999999999999999
0029028060999991911060213004+69100+027217FM-12+014999999V0203601N009819999999N0000001N9+01501+99999099751ADDGF104991999999999999999999
0029028060999991911060220004+69100+027217FM-12+014999999V0203601N009819999999N0000001N9+00831+99999100141ADDGF104991999999999999999999
0052028060999991911060306004+69100+027217FM-12+014999999V0202701N002119999999N0000001N9+00611+99999100431ADDAJ100009199999999GF108991999999999999999999MW1601
0035028060999991911060313004+69100+027217FM-12+014999999V0203601N009819999999N0000001N9+01441+99999100221ADDGF108991999999999999999999MW1601
0029028060999991911060320004+69100+027217FM-12+014999999V0203201N011819999999N0000001N9+01441+99999100351ADDGF108991999999999999999999
0046028060999991911060406004+69100+027217FM-12+014999999V0202701N006219999999N0000001N9+01331+99999100261ADDAJ100009199999999GF104991999999999999999999
0029028060999991911060413004+69100+027217FM-12+014999999V0202501N009819999999N0000001N9+02281+99999100161ADDGF100991999999999999999999
0029028060999991911060420004+69100+027217FM-12+014999999V0209991C000019999999N0000001N9+02061+99999100141ADDGF100991999999999999999999
0046028060999991911060506004+69100+027217FM-12+014999999V0202501N006219999999N0000001N9+01721+99999099431ADDAJ100009199999999GF100991999999999999999999
0029028060999991911060513004+69100+027217FM-12+014999999V0202701N011819999999N0000001N9+02111+99999098911ADDGF106991999999999999999999
0029028060999991911060520004+69100+027217FM-12+014999999V0202701N013919999999N0000001N9+01391+99999098901ADDGF104991999999999999999999
0046028060999991911060606004+69100+027217FM-12+014999999V0202501N004119999999N0000001N9+00891+99999098901ADDAJ100009199999999GF100991999999999999999999
0029028060999991911060613004+69100+027217FM-12+014999999V0200901N004119999999N0000001N9+01221+99999098541ADDGF108991999999999999999999
0035028060999991911060620004+69100+027217FM-12+014999999V0200901N006219999999N0000001N9+00441+99999098621ADDGF108991999999999999999999MW1621
0052028060999991911060706004+69100+027217FM-12+014999999V0203601N009819999999N0000001N9+00171+99999098901ADDAJ100009199999999GF108991999999999999999999MW1721
0029028060999991911060713004+69100+027217FM-12+014999999V0200201N006219999999N0000001N9+00501+99999099231ADDGF108991999999999999999999
0029028060999991911060720004+69100+027217FM-12+014999999V0200901N002119999999N0000001N9+00171+99999099431ADDGF108991999999999999999999
0046028060999991911060806004+69100+027217FM-12+014999999V0203601N002119999999N0000001N9+00111+99999099461ADDAJ100009199999999GF108991999999999999999999
0029028060999991911060813004+69100+027217FM-12+014999999V0200501N004119999999N0000001N9+00391+99999099281ADDGF108991999999999999999999
0029028060999991911060820004+69100+027217FM-12+014999999V0200201N006219999999N0000001N9+00281+99999099281ADDGF108991999999999999999999
0046028060999991911060906004+69100+027217FM-12+014999999V0200501N008219999999N0000001N9+00061+99999099221ADDAJ100009199999999GF106991999999999999999999
0029028060999991911060913004+69100+027217FM-12+014999999V0200201N009819999999N0000001N9+00281+99999099181ADDGF108991999999999999999999
0029028060999991911060920004+69100+027217FM-12+014999999V0203601N013919999999N0000001N9+00221+99999098951ADDGF108991999999999999999999
0052028060999991911061006004+69100+027217FM-12+014999999V0203601N009819999999N0000001N9-00111+99999098511ADDAJ100009199999999GF108991999999999999999999MW1741
0035028060999991911061013004+69100+027217FM-12+014999999V0203601N011819999999N0000001N9+00001+99999098501ADDGF108991999999999999999999MW1741
0035028060999991911061020004+69100+027217FM-12+014999999V0200201N009819999999N0000001N9+00001+99999098601ADDGF108991999999999999999999MW1741
0046028060999991911061106004+69100+027217FM-12+014999999V0203601N011819999999N0000001N9+00061+99999098361ADDAJ100009199999999GF108991999999999999999999
0029028060999991911061113004+69100+027217FM-12+014999999V0203601N009819999999N0000001N9+00331+99999098401ADDGF108991999999999999999999
0035028060999991911061120004+69100+027217FM-12+014999999V0200201N013919999999N0000001N9+00111+99999098701ADDGF108991999999999999999999MW1741
0046028060999991911061206004+69100+027217FM-12+014999999V0203601N008219999999N0000001N9+00171+99999098641ADDAJ100009199999999GF108991999999999999999999
0029028060999991911061213004+69100+027217FM-12+014999999V0200201N011819999999N0000001N9+00561+99999098911ADDGF106991999999999999999999
0029028060999991911061220004+69100+027217FM-12+014999999V0200501N006219999999N0000001N9+00391+99999099041ADDGF108991999999999999999999
0046028060999991911061306004+69100+027217FM-12+014999999V0203601N002119999999N0000001N9+00171+99999098991ADDAJ100009199999999GF108991999999999999999999
0029028060999991911061313004+69100+027217FM-12+014999999V0203401N008219999999N0000001N9+00501+99999099031ADDGF106991999999999999999999
0035028060999991911061320004+69100+027217FM-12+014999999V0203601N006219999999N0000001N9+00331+99999099031ADDGF108991999999999999999999MW1701
0046028060999991911061406004+69100+027217FM-12+014999999V0203601N004119999999N0000001N9+00171+99999099151ADDAJ100009199999999GF108991999999999999999999
0029028060999991911061413004+69100+027217FM-12+014999999V0202701N002119999999N0000001N9+00561+99999099031ADDGF108991999999999999999999
0035028060999991911061420004+69100+027217FM-12+014999999V0203601N002119999999N0000001N9+00171+99999098961ADDGF108991999999999999999999MW1691
0046028060999991911061506004+69100+027217FM-12+014999999V0203201N006219999999N0000001N9+00501+99999098901ADDAJ100009199999999GF106991999999999999999999
0029028060999991911061513004+69100+027217FM-12+014999999V0202701N009819999999N0000001N9+00831+99999098511ADDGF106991999999999999999999
0029028060999991911061520004+69100+027217FM-12+014999999V0202701N006219999999N0000001N9+00391+99999097281ADDGF108991999999999999999999
0046028060999991911061606004+69100+027217FM-12+014999999V0203601N008219999999N0000001N9+00281+99999098991ADDAJ100009199999999GF108991999999999999999999
0029028060999991911061613004+69100+027217FM-12+014999999V0203601N006219999999N0000001N9+00501+99999099201ADDGF108991999999999999999999
0029028060999991911061620004+69100+027217FM-12+014999999V0203601N004119999999N0000001N9+00331+99999099591ADDGF108991999999999999999999
0046028060999991911061706004+69100+027217FM-12+014999999V0203601N002119999999N0000001N9+00281+99999099861ADDAJ100009199999999GF108991999999999999999999
0029028060999991911061713004+69100+027217FM-12+014999999V0203601N002119999999N0000001N9+00781+99999100031ADDGF106991999999999999999999
0029028060999991911061720004+69100+027217FM-12+014999999V0201601N002119999999N0000001N9+00671+99999100221ADDGF105991999999999999999999
0046028060999991911061806004+69100+027217FM-12+014999999V0200901N002119999999N0000001N9+00781+99999100111ADDAJ100009199999999GF100991999999999999999999
0029028060999991911061813004+69100+027217FM-12+014999999V0200901N004119999999N0000001N9+01061+99999099841ADDGF104991999999999999999999
0029028060999991911061820004+69100+027217FM-12+014999999V0200901N008219999999N0000001N9+00501+99999099751ADDGF102991999999999999999999
0046028060999991911061906004+69100+027217FM-12+014999999V0200201N013919999999N0000001N9+00331+99999099021ADDAJ100009199999999GF108991999999999999999999
0029028060999991911061913004+69100+027217FM-12+014999999V0203601N011819999999N0000001N9+00611+99999098781ADDGF106991999999999999999999
0029028060999991911061920004+69100+027217FM-12+014999999V0203601N006219999999N0000001N9+00441+99999098501ADDGF108991999999999999999999
0046028060999991911062006004+69100+027217FM-12+014999999V0202701N002119999999N0000001N9+00391+99999098381ADDAJ100009199999999GF108991999999999999999999
0029028060999991911062013004+69100+027217FM-12+014999999V0202701N004119999999N0000001N9+00831+99999098381ADDGF108991999999999999999999
0029028060999991911062020004+69100+027217FM-12+014999999V0201801N002119999999N0000001N9+00941+99999097951ADDGF108991999999999999999999
0052028060999991911062106004+69100+027217FM-12+014999999V0203401N004119999999N0000001N9+00221+99999098401ADDAJ100009199999999GF108991999999999999999999MW1691
0029028060999991911062113004+69100+027217FM-12+014999999V0202701N008219999999N0000001N9+00941+99999098501ADDGF108991999999999999999999
0029028060999991911062120004+69100+027217FM-12+014999999V0203401N002119999999N0000001N9+00831+99999098921ADDGF106991999999999999999999
0046028060999991911062206004+69100+027217FM-12+014999999V0202301N002119999999N0000001N9+00721+99999099021ADDAJ100009199999999GF104991999999999999999999
0029028060999991911062213004+69100+027217FM-12+014999999V0201801N004119999999N0000001N9+01281+99999098951ADDGF108991999999999999999999
0035028060999991911062220004+69100+027217FM-12+014999999V0201801N002119999999N0000001N9+00891+99999098911ADDGF108991999999999999999999MW1601
0046028060999991911062306004+69100+027217FM-12+014999999V0202001N004119999999N0000001N9+00941+99999098991ADDAJ100009199999999GF106991999999999999999999
0000028060999991911062313004+69100+027217FM-12+014999999V0200201N004119999999N0000001N9+01281+99999099521
0029028060999991911062320004+69100+027217FM-12+014999999V0209991C000019999999N0000001N9+00941+99999099901ADDGF104991999999999999999999
0046028060999991911062406004+69100+027217FM-12+014999999V0201801N008219999999N0000001N9+01221+99999099961ADDAJ100009199999999GF104991999999999999999999
0029028060999991911062413004+69100+027217FM-12+014999999V0202001N008219999999N0000001N9+01941+99999099721ADDGF108991999999999999999999
0029028060999991911062420004+69100+027217FM-12+014999999V0209991C000019999999N0000001N9+01331+99999099821ADDGF108991999999999999999999
0046028060999991911062506004+69100+027217FM-12+014999999V0203601N008219999999N0000001N9+00891+99999100071ADDAJ100009199999999GF108991999999999999999999
0029028060999991911062513004+69100+027217FM-12+014999999V0200501N008219999999N0000001N9+01061+99999100021ADDGF108991999999999999999999
0029028060999991911062520004+69100+027217FM-12+014999999V0200501N004119999999N0000001N9+00891+99999099961ADDGF108991999999999999999999
0046028060999991911062606004+69100+027217FM-12+014999999V0201801N002119999999N0000001N9+01111+99999099501ADDAJ100009199999999GF108991999999999999999999
0029028060999991911062613004+69100+027217FM-12+014999999V0201801N008219999999N0000001N9+02171+99999099081ADDGF104991999999999999999999
0029028060999991911062620004+69100+027217FM-12+014999999V0209991C000019999999N0000001N9+01781+99999099311ADDGF106991999999999999999999
0052028060999991911062706004+69100+027217FM-12+014999999V0200901N002119999999N0000001N9+01281+99999098831ADDAJ100009199999999GF108991999999999999999999MW1641
0035028060999991911062713004+69100+027217FM-12+014999999V0201801N002119999999N0000001N9+01611+99999098001ADDGF108991999999999999999999MW1641
0029028060999991911062720004+69100+027217FM-12+014999999V0202001N015919999999N0000001N9+01721+99999097791ADDGF104991999999999999999999
0052028060999991911062806004+69100+027217FM-12+014999999V0201801N004119999999N0000001N9+01281+99999098311ADDAJ100009199999999GF108991999999999999999999MW1641
0029028060999991911062813004+69100+027217FM-12+014999999V0203601N006219999999N0000001N9+01561+99999098471ADDGF104991999999999999999999
0029028060999991911062820004+69100+027217FM-12+014999999V0200701N006219999999N0000001N9+01331+99999098441ADDGF106991999999999999999999
0046028060999991911062906004+69100+027217FM-12+014999999V0200201N009819999999N0000001N9+00611+99999098351ADDAJ100009199999999GF108991999999999999999999
0029028060999991911062913004+69100+027217FM-12+014999999V0200701N008219999999N0000001N9+00781+99999098541ADDGF108991999999999999999999
0029028060999991911062920004+69100+027217FM-12+014999999V0200701N006219999999N0000001N9+00671+99999098601ADDGF108991999999999999999999
0046028060999991911063006004+69100+027217FM-12+014999999V0200501N006219999999N0000001N9+00611+99999098751ADDAJ100009199999999GF108991999999999999999999
0029028060999991911063013004+69100+027217FM-12+014999999V0201401N004119999999N0000001N9+01001+99999098981ADDGF104991999999999999999999
0029028060999991911063020004+69100+027217FM-12+014999999V0201601N006219999999N0000001N9+01171+99999098951ADDGF100991999999999999999999
0046028060999991911070106004+69100+027217FM-12+014999999V0201801N008219999999N0000001N9+01501+99999098481ADDAJ100009199999999GF104991999999999999999999
0029028060999991911070113004+69100+027217FM-12+014999999V0201601N008219999999N0000001N9+01331+99999098191ADDGF108991999999999999999999
0029028060999991911070120004+69100+027217FM-12+014999999V0201601N006219999999N0000001N9+01331+99999097951ADDGF108991999999999999999999
0046028060999991911070206004+69100+027217FM-12+014999999V0202301N008219999999N0000001N9+01331+99999098071ADDAJ100009199999999GF108991999999999999999999
0029028060999991911070213004+69100+027217FM-12+014999999V0201401N009819999999N0000001N9+01671+99999098041ADDGF104991999999999999999999
0029028060999991911070220004+69100+027217FM-12+014999999V0202701N001019999999N0000001N9+01611+99999097751ADDGF104991999999999999999999
0046028060999991911070306004+69100+027217FM-12+014999999V0203601N006219999999N0000001N9+01281+99999098031ADDAJ100009199999999GF108991999999999999999999
0029028060999991911070313004+69100+027217FM-12+014999999V0202001N004119999999N0000001N9+01501+99999098591ADDGF106991999999999999999999
0029028060999991911070320004+69100+027217FM-12+014999999V0209991C000019999999N0000001N9+01221+99999098951ADDGF100991999999999999999999
0046028060999991911070406004+69100+027217FM-12+014999999V0203601N006219999999N0000001N9+01001+99999098961ADDAJ100009199999999GF106991999999999999999999
0029028060999991911070413004+69100+027217FM-12+014999999V0202301N009819999999N0000001N9+01561+99999099181ADDGF104991999999999999999999
0029028060999991911070420004+69100+027217FM-12+014999999V0202701N008219999999N0000001N9+01061+99999099621ADDGF106991999999999999999999
0046028060999991911070506004+69100+027217FM-12+014999999V0202901N004119999999N0000001N9+01001+99999099831ADDAJ100009199999999GF104991999999999999999999
0029028060999991911070513004+69100+027217FM-12+014999999V0202701N006219999999N0000001N9+01671+99999099581ADDGF100991999999999999999999
0029028060999991911070520004+69100+027217FM-12+014999999V0200901N006219999999N0000001N9+01561+99999099231ADDGF106991999999999999999999
0046028060999991911070606004+69100+027217FM-12+014999999V0202001N011819999999N0000001N9+01331+99999098671ADDAJ100009199999999GF106991999999999999999999
0029028060999991911070613004+69100+027217FM-12+014999999V0202301N006219999999N0000001N9+01561+99999098741ADDGF106991999999999999999999
0029028060999991911070620004+69100+027217FM-12+014999999V0200901N006219999999N0000001N9+01221+99999098831ADDGF104991999999999999999999
0046028060999991911070706004+69100+027217FM-12+014999999V0202501N009819999999N0000001N9+01611+99999098541ADDAJ100009199999999GF105991999999999999999999
0035028060999991911070713004+69100+027217FM-12+014999999V0203601N009819999999N0000001N9+01611+99999098681ADDGF108991999999999999999999MW1621
0035028060999991911070720004+69100+027217FM-12+014999999V0203401N008219999999N0000001N9+00831+99999098991ADDGF108991999999999999999999MW1621
0046028060999991911070806004+69100+027217FM-12+014999999V0202701N004119999999N0000001N9+01001+99999099181ADDAJ100009199999999GF106991999999999999999999
0029028060999991911070813004+69100+027217FM-12+014999999V0203401N006219999999N0000001N9+01441+99999099381ADDGF104991999999999999999999
0029028060999991911070820004+69100+027217FM-12+014999999V0200901N001019999999N0000001N9+00781+99999099781ADDGF100991999999999999999999
0046028060999991911070906004+69100+027217FM-12+014999999V0203201N002119999999N0000001N9+01001+99999100311ADDAJ100009199999999GF105991999999999999999999
0029028060999991911070913004+69100+027217FM-12+014999999V0202701N002119999999N0000001N9+01281+99999100341ADDGF106991999999999999999999
0029028060999991911070920004+69100+027217FM-12+014999999V0201801N004119999999N0000001N9+01221+99999100081ADDGF104991999999999999999999
0046028060999991911071006004+69100+027217FM-12+014999999V0202501N006219999999N0000001N9+01111+99999099431ADDAJ100009199999999GF104991999999999999999999
0000028060999991911071013004+69100+027217FM-12+014999999V0203201N008219999999N0000001N9+01171+99999099261
0029028060999991911071020004+69100+027217FM-12+014999999V0203601N008219999999N0000001N9+00831+99999099381ADDGF108991999999999999999999
0046028060999991911071106004+69100+027217FM-12+014999999V0203601N006219999999N0000001N9+00721+99999099681ADDAJ100009199999999GF108991999999999999999999
0000028060999991911071113004+69100+027217FM-12+014999999V0200501N008219999999N0000001N9+00891+99999099841
0029028060999991911071120004+69100+027217FM-12+014999999V0203601N006219999999N0000001N9+00721+99999099991ADDGF108991999999999999999999
0046028060999991911071206004+69100+027217FM-12+014999999V0203601N006219999999N0000001N9+00831+99999999999ADDAJ100009199999999GF104991999999999999999999
0029028060999991911071213004+69100+027217FM-12+014999999V0203601N008219999999N0000001N9+01221+99999100061ADDGF104991999999999999999999
0029028060999991911071220004+69100+027217FM-12+014999999V0200501N004119999999N0000001N9+00941+99999100141ADDGF100991999999999999999999
0046028060999991911071306004+69100+027217FM-12+014999999V0200501N002119999999N0000001N9+01001+99999100111ADDAJ100009199999999GF100991999999999999999999
0029028060999991911071313004+69100+027217FM-12+014999999V0209991C000019999999N0000001N9+01501+99999099801ADDGF100991999999999999999999
0029028060999991911071320004+69100+027217FM-12+014999999V0200901N002119999999N0000001N9+01441+99999099351ADDGF106991999999999999999999
0052028060999991911071406004+69100+027217FM-12+014999999V0209991C000019999999N0000001N9+01391+99999098881ADDAJ100009199999999GF108991999999999999999999MW1621
0035028060999991911071413004+69100+027217FM-12+014999999V0202301N006219999999N0000001N9+01441+99999098271ADDGF108991999999999999999999MW1621
0035028060999991911071420004+69100+027217FM-12+014999999V0202001N001019999999N0000001N9+01331+99999098061ADDGF108991999999999999999999MW1621
0052028060999991911071506004+69100+027217FM-12+014999999V0200201N008219999999N0000001N9+00831+99999097901ADDAJ100009199999999GF108991999999999999999999MW1621
0035028060999991911071513004+69100+027217FM-12+014999999V0203601N006219999999N0000001N9+01061+99999098041ADDGF108991999999999999999999MW1621
0029028060999991911071520004+69100+027217FM-12+014999999V0200201N008219999999N0000001N9+00941+99999097961ADDGF106991999999999999999999
0046028060999991911071606004+69100+027217FM-12+014999999V0200501N009819999999N0000001N9+00561+99999098151ADDAJ100009199999999GF108991999999999999999999
0029028060999991911071613004+69100+027217FM-12+014999999V0200501N009819999999N0000001N9+00721+99999098101ADDGF108991999999999999999999
0035028060999991911071620004+69100+027217FM-12+014999999V0200201N009819999999N0000001N9+00501+99999097821ADDGF108991999999999999999999MW1621
0052028060999991911071706004+69100+027217FM-12+014999999V0200501N008219999999N0000001N9+00501+99999097641ADDAJ100009199999999GF108991999999999999999999MW1621
0029028060999991911071713004+69100+027217FM-12+014999999V0200201N009819999999N0000001N9+01001+99999097701ADDGF108991999999999999999999
0029028060999991911071720004+69100+027217FM-12+014999999V0200201N011819999999N0000001N9+00671+99999097581ADDGF108991999999999999999999
0046028060999991911071806004+69100+027217FM-12+014999999V0200201N009819999999N0000001N9+00561+99999097821ADDAJ100009199999999GF108991999999999999999999
0029028060999991911071813004+69100+027217FM-12+014999999V0200901N002119999999N0000001N9+00781+99999097861ADDGF108991999999999999999999
0029028060999991911071820004+69100+027217FM-12+014999999V0209991C000019999999N0000001N9+00721+99999098121ADDGF108991999999999999999999
0046028060999991911071906004+69100+027217FM-12+014999999V0209991C000019999999N0000001N9+00891+99999098231ADDAJ100009199999999GF108991999999999999999999
0029028060999991911071913004+69100+027217FM-12+014999999V0209991C000019999999N0000001N9+01671+99999098341ADDGF104991999999999999999999
0029028060999991911071920004+69100+027217FM-12+014999999V0209991C000019999999N0000001N9+01391+99999098441ADDGF108991999999999999999999
0046028060999991911072006004+69100+027217FM-12+014999999V0200901N002119999999N0000001N9+01171+99999098991ADDAJ100009199999999GF108991999999999999999999
0029028060999991911072013004+69100+027217FM-12+014999999V0200901N002119999999N0000001N9+01561+99999099231ADDGF106991999999999999999999
0029028060999991911072020004+69100+027217FM-12+014999999V0209991C000019999999N0000001N9+01331+99999099631ADDGF106991999999999999999999
0046028060999991911072106004+69100+027217FM-12+014999999V0200201N008219999999N0000001N9+01001+99999099921ADDAJ100009199999999GF108991999999999999999999
0029028060999991911072113004+69100+027217FM-12+014999999V0200901N004119999999N0000001N9+01441+99999100061ADDGF108991999999999999999999
0029028060999991911072120004+69100+027217FM-12+014999999V0200901N006219999999N0000001N9+01171+99999100461ADDGF108991999999999999999999
0046028060999991911072206004+69100+027217FM-12+014999999V0200901N004119999999N0000001N9+00891+99999099961ADDAJ100009199999999GF108991999999999999999999
0029028060999991911072213004+69100+027217FM-12+014999999V0200901N004119999999N0000001N9+01221+99999100471ADDGF108991999999999999999999
0029028060999991911072220004+69100+027217FM-12+014999999V0200901N004119999999N0000001N9+01001+99999100271ADDGF108991999999999999999999
0046028060999991911072306004+69100+027217FM-12+014999999V0200901N008219999999N0000001N9+00941+99999099921ADDAJ100009199999999GF108991999999999999999999
0029028060999991911072313004+69100+027217FM-12+014999999V0200901N006219999999N0000001N9+01671+99999099741ADDGF104991999999999999999999
0029028060999991911072320004+69100+027217FM-12+014999999V0200901N002119999999N0000001N9+01331+99999099721ADDGF108991999999999999999999
0046028060999991911072406004+69100+027217FM-12+014999999V0203601N006219999999N0000001N9+01111+99999100021ADDAJ100009199999999GF108991999999999999999999
0029028060999991911072413004+69100+027217FM-12+014999999V0200201N006219999999N0000001N9+01891+99999999999ADDGF104991999999999999999999
0029028060999991911072420004+69100+027217FM-12+014999999V0200901N004119999999N0000001N9+01441+99999100191ADDGF104991999999999999999999
0046028060999991911072506004+69100+027217FM-12+014999999V0200501N004119999999N0000001N9+00831+99999100511ADDAJ100009199999999GF108991999999999999999999
0029028060999991911072513004+69100+027217FM-12+014999999V0200901N006219999999N0000001N9+01831+99999100521ADDGF100991999999999999999999
0029028060999991911072520004+69100+027217FM-12+014999999V0200701N002119999999N0000001N9+01441+99999100721ADDGF106991999999999999999999
0046028060999991911072606004+69100+027217FM-12+014999999V0200901N004119999999N0000001N9+01171+99999100751ADDAJ100009199999999GF104991999999999999999999
0029028060999991911072613004+69100+027217FM-12+014999999V0201801N002119999999N0000001N9+01611+99999100701ADDGF104991999999999999999999
0029028060999991911072620004+69100+027217FM-12+014999999V0203601N002119999999N0000001N9+01331+99999100671ADDGF108991999999999999999999
0046028060999991911072706004+69100+027217FM-12+014999999V0209991C000019999999N0000001N9+01501+99999100521ADDAJ100009199999999GF108991999999999999999999
0029028060999991911072713004+69100+027217FM-12+014999999V0201801N004119999999N0000001N9+02001+99999100481ADDGF106991999999999999999999
0029028060999991911072720004+69100+027217FM-12+014999999V0201801N006219999999N0000001N9+01561+99999100461ADDGF108991999999999999999999
0046028060999991911072806004+69100+027217FM-12+014999999V0202001N004119999999N0000001N9+01501+99999100741ADDAJ100009199999999GF100991999999999999999999
0029028060999991911072813004+69100+027217FM-12+014999999V0202001N002119999999N0000001N9+02281+99999100631ADDGF106991999999999999999999
0029028060999991911072820004+69100+027217FM-12+014999999V0201801N002119999999N0000001N9+01831+99999100601ADDGF108991999999999999999999
0046028060999991911072906004+69100+027217FM-12+014999999V0201801N004119999999N0000001N9+01561+99999100621ADDAJ100009199999999GF104991999999999999999999
0029028060999991911072913004+69100+027217FM-12+014999999V0201801N008219999999N0000001N9+02391+99999100421ADDGF106991999999999999999999
0029028060999991911072920004+69100+027217FM-12+014999999V0202001N011819999999N0000001N9+01611+99999100321ADDGF108991999999999999999999
0046028060999991911073006004+69100+027217FM-12+014999999V0202301N004119999999N0000001N9+01331+99999100381ADDAJ100009199999999GF104991999999999999999999
0029028060999991911073013004+69100+027217FM-12+014999999V0202001N008219999999N0000001N9+01941+99999099881ADDGF100991999999999999999999
0029028060999991911073020004+69100+027217FM-12+014999999V0202301N004119999999N0000001N9+01501+99999099831ADDGF108991999999999999999999
0046028060999991911073106004+69100+027217FM-12+014999999V0203401N008219999999N0000001N9+01001+99999099961ADDAJ100009199999999GF108991999999999999999999
0029028060999991911073113004+69100+027217FM-12+014999999V0203601N008219999999N0000001N9+01281+99999100481ADDGF106991999999999999999999
0029028060999991911073120004+69100+027217FM-12+014999999V0203601N002119999999N0000001N9+00941+99999100881ADDGF100991999999999999999999
0046028060999991911080106004+69100+027217FM-12+014999999V0202001N002119999999N0000001N9+01001+99999101041ADDAJ100009199999999GF108991999999999999999999
0000028060999991911080113004+69100+027217FM-12+014999999V0209991C000019999999N0000001N9+01721+99999100711
0029028060999991911080120004+69100+027217FM-12+014999999V0209991C000019999999N0000001N9+01441+99999100661ADDGF108991999999999999999999
0046028060999991911080206004+69100+027217FM-12+014999999V0202701N001019999999N0000001N9+01331+99999100101ADDAJ100009199999999GF106991999999999999999999
0029028060999991911080213004+69100+027217FM-12+014999999V0203401N002119999999N0000001N9+01831+99999100201ADDGF106991999999999999999999
0029028060999991911080220004+69100+027217FM-12+014999999V0200201N001019999999N0000001N9+01281+99999100181ADDGF104991999999999999999999
0046028060999991911080306004+69100+027217FM-12+014999999V0200201N002119999999N0000001N9+01441+99999100041ADDAJ100009199999999GF100991999999999999999999
0029028060999991911080313004+69100+027217FM-12+014999999V0200901N006219999999N0000001N9+01781+99999100061ADDGF100991999999999999999999
0029028060999991911080320004+69100+027217FM-12+014999999V0200901N001019999999N0000001N9+01281+99999100081ADDGF104991999999999999999999
0046028060999991911080406004+69100+027217FM-12+014999999V0200901N004119999999N0000001N9+01331+99999099741ADDAJ100009199999999GF100991999999999999999999
0029028060999991911080413004+69100+027217FM-12+014999999V0201101N004119999999N0000001N9+02331+99999099421ADDGF104991999999999999999999
0035028060999991911080420004+69100+027217FM-12+014999999V0203601N004119999999N0000001N9+01721+99999099151ADDGF108991999999999999999999MW1641
0046028060999991911080506004+69100+027217FM-12+014999999V0200501N001019999999N0000001N9+01501+99999099081ADDAJ100009199999999GF104991999999999999999999
0029028060999991911080513004+69100+027217FM-12+014999999V0201601N002119999999N0000001N9+02391+99999098991ADDGF100991999999999999999999
0035028060999991911080520004+69100+027217FM-12+014999999V0202701N006219999999N0000001N9+01501+99999099161ADDGF106991999999999999999999MW1641
0046028060999991911080606004+69100+027217FM-12+014999999V0203601N001019999999N0000001N9+01281+99999099711ADDAJ100009199999999GF108991999999999999999999
0029028060999991911080613004+69100+027217FM-12+014999999V0200901N006219999999N0000001N9+01611+99999099911ADDGF106991999999999999999999
0029028060999991911080620004+69100+027217FM-12+014999999V0200901N002119999999N0000001N9+01441+99999099951ADDGF100991999999999999999999
0046028060999991911080706004+69100+027217FM-12+014999999V0201801N004119999999N0000001N9+01501+99999100061ADDAJ100009199999999GF100991999999999999999999
0029028060999991911080713004+69100+027217FM-12+014999999V0200901N006219999999N0000001N9+02171+99999099951ADDGF100991999999999999999999
0029028060999991911080720004+69100+027217FM-12+014999999V0209991C000019999999N0000001N9+01831+99999099921ADDGF100991999999999999999999
0046028060999991911080806004+69100+027217FM-12+014999999V0201801N004119999999N0000001N9+01831+99999100321ADDAJ100009199999999GF100991999999999999999999
0035028060999991911080813004+69100+027217FM-12+014999999V0200901N002119999999N0000001N9+01941+99999100361ADDGF108991999999999999999999MW1621
0029028060999991911080820004+69100+027217FM-12+014999999V0209991C000019999999N0000001N9+01671+99999100461ADDGF108991999999999999999999
0046028060999991911080906004+69100+027217FM-12+014999999V0201801N004119999999N0000001N9+01781+99999100321ADDAJ100009199999999GF100991999999999999999999
0029028060999991911080913004+69100+027217FM-12+014999999V0202301N008219999999N0000001N9+02221+99999100161ADDGF104991999999999999999999
0029028060999991911080920004+69100+027217FM-12+014999999V0209991C000019999999N0000001N9+01611+99999100441ADDGF104991999999999999999999
0046028060999991911081006004+69100+027217FM-12+014999999V0209991C000019999999N0000001N9+01561+99999100751ADDAJ100009199999999GF100991999999999999999999
0029028060999991911081013004+69100+027217FM-12+014999999V0202501N006219999999N0000001N9+02221+99999100671ADDGF100991999999999999999999
0029028060999991911081020004+69100+027217FM-12+014999999V0209991C000019999999N0000001N9+01831+99999100401ADDGF104991999999999999999999
0046028060999991911081106004+69100+027217FM-12+014999999V0201801N008219999999N0000001N9+02001+99999100151ADDAJ100009199999999GF100991999999999999999999
0029028060999991911081113004+69100+027217FM-12+014999999V0202301N006219999999N0000001N9+02221+99999099921ADDGF104991999999999999999999
0029028060999991911081120004+69100+027217FM-12+014999999V0203601N001019999999N0000001N9+01501+99999100201ADDGF104991999999999999999999
0046028060999991911081206004+69100+027217FM-12+014999999V0202701N004119999999N0000001N9+01281+99999100541ADDAJ100009199999999GF100991999999999999999999
0029028060999991911081213004+69100+027217FM-12+014999999V0202501N004119999999N0000001N9+01501+99999100461ADDGF105991999999999999999999
0029028060999991911081220004+69100+027217FM-12+014999999V0203601N002119999999N0000001N9+01061+99999100581ADDGF106991999999999999999999
0046028060999991911081306004+69100+027217FM-12+014999999V0202501N006219999999N0000001N9+00891+99999100501ADDAJ100009199999999GF104991999999999999999999
0029028060999991911081313004+69100+027217FM-12+014999999V0202301N009819999999N0000001N9+01501+99999100471ADDGF104991999999999999999999
0029028060999991911081320004+69100+027217FM-12+014999999V0202701N001019999999N0000001N9+00941+99999099551ADDGF104991999999999999999999
0046028060999991911081406004+69100+027217FM-12+014999999V0203601N008219999999N0000001N9+00721+99999099311ADDAJ100009199999999GF106991999999999999999999
0029028060999991911081413004+69100+027217FM-12+014999999V0203201N008219999999N0000001N9+01001+99999099141ADDGF105991999999999999999999
0029028060999991911081420004+69100+027217FM-12+014999999V0203601N002119999999N0000001N9+00721+99999098631ADDGF108991999999999999999999
0046028060999991911081506004+69100+027217FM-12+014999999V0200901N009819999999N0000001N9+00611+99999098591ADDAJ100009199999999GF108991999999999999999999
0029028060999991911081513004+69100+027217FM-12+014999999V0200701N009819999999N0000001N9+00891+99999099141ADDGF106991999999999999999999
0029028060999991911081520004+69100+027217FM-12+014999999V0200201N006219999999N0000001N9+00441+99999099351ADDGF104991999999999999999999
0046028060999991911081606004+69100+027217FM-12+014999999V0200501N006219999999N0000001N9+00501+99999099581ADDAJ100009199999999GF104991999999999999999999
0029028060999991911081613004+69100+027217FM-12+014999999V0203601N006219999999N0000001N9+00671+99999099561ADDGF104991999999999999999999
0029028060999991911081620004+69100+027217FM-12+014999999V0200201N006219999999N0000001N9+00281+99999099621ADDGF104991999999999999999999
0052028060999991911081706004+69100+027217FM-12+014999999V0203601N011819999999N0000001N9+00331+99999099061ADDAJ100009199999999GF108991999999999999999999MW1721
0035028060999991911081713004+69100+027217FM-12+014999999V0203601N011819999999N0000001N9+00561+99999098841ADDGF108991999999999999999999MW1621
0029028060999991911081720004+69100+027217FM-12+014999999V0200501N011819999999N0000001N9+00561+99999098911ADDGF108991999999999999999999
0052028060999991911081806004+69100+027217FM-12+014999999V0200501N011819999999N0000001N9+00561+99999098351ADDAJ100009199999999GF108991999999999999999999MW1621
0035028060999991911081813004+69100+027217FM-12+014999999V0200501N009819999999N0000001N9+00781+99999098261ADDGF108991999999999999999999MW1621
0029028060999991911081820004+69100+027217FM-12+014999999V0200201N002119999999N0000001N9+00891+99999098101ADDGF108991999999999999999999
0046028060999991911081906004+69100+027217FM-12+014999999V0200501N002119999999N0000001N9+01001+99999098141ADDAJ100009199999999GF108991999999999999999999
0029028060999991911081913004+69100+027217FM-12+014999999V0200901N002119999999N0000001N9+01221+99999098301ADDGF108991999999999999999999
0029028060999991911081920004+69100+027217FM-12+014999999V0200901N002119999999N0000001N9+01061+99999098581ADDGF106991999999999999999999
0046028060999991911082006004+69100+027217FM-12+014999999V0200701N002119999999N0000001N9+00941+99999098591ADDAJ100009199999999GF104991999999999999999999
0029028060999991911082013004+69100+027217FM-12+014999999V0200501N004119999999N0000001N9+01391+99999098621ADDGF105991999999999999999999
0035028060999991911082020004+69100+027217FM-12+014999999V0200501N008219999999N0000001N9+00781+99999099071ADDGF106991999999999999999999MW1621
0052028060999991911082106004+69100+027217FM-12+014999999V0200701N006219999999N0000001N9+00781+99999099061ADDAJ100009199999999GF108991999999999999999999MW1621
0009028060999991911082113004+69100+027217FM-12+014999999V0200501N008219999999N0000001N9+01001+99999099231ADDMW1621
0035028060999991911082120004+69100+027217FM-12+014999999V0200501N006219999999N0000001N9+00781+99999099301ADDGF108991999999999999999999MW1621
0052028060999991911082206004+69100+027217FM-12+014999999V0200701N004119999999N0000001N9+00721+99999099231ADDAJ100009199999999GF108991999999999999999999MW1621
0029028060999991911082213004+69100+027217FM-12+014999999V0200901N006219999999N0000001N9+01111+99999099201ADDGF106991999999999999999999
0029028060999991911082220004+69100+027217FM-12+014999999V0200501N004119999999N0000001N9+01061+99999099241ADDGF106991999999999999999999
0046028060999991911082306004+69100+027217FM-12+014999999V0200901N002119999999N0000001N9+01061+99999099241ADDAJ100009199999999GF108991999999999999999999
0029028060999991911082313004+69100+027217FM-12+014999999V0200701N004119999999N0000001N9+01501+99999099221ADDGF104991999999999999999999
0029028060999991911082320004+69100+027217FM-12+014999999V0200901N002119999999N0000001N9+01171+99999099121ADDGF106991999999999999999999
0052028060999991911082406004+69100+027217FM-12+014999999V0201601N004119999999N0000001N9+01001+99999099071ADDAJ100009199999999GF108991999999999999999999MW1621
0029028060999991911082413004+69100+027217FM-12+014999999V0201801N006219999999N0000001N9+01501+99999099201ADDGF104991999999999999999999
0029028060999991911082420004+69100+027217FM-12+014999999V0201601N002119999999N0000001N9+01061+99999099221ADDGF104991999999999999999999
0052028060999991911082506004+69100+027217FM-12+014999999V0202701N002119999999N0000001N9+00831+99999098831ADDAJ100009199999999GF108991999999999999999999MW1641
0029028060999991911082513004+69100+027217FM-12+014999999V0202501N004119999999N0000001N9+01391+99999098911ADDGF100991999999999999999999
0035028060999991911082520004+69100+027217FM-12+014999999V0209991C000019999999N0000001N9+00781+99999099121ADDGF104991999999999999999999MW1601
0046028060999991911082606004+69100+027217FM-12+014999999V0202501N002119999999N0000001N9+00781+99999099441ADDAJ100009199999999GF100991999999999999999999
0029028060999991911082613004+69100+027217FM-12+014999999V0201401N004119999999N0000001N9+01441+99999099281ADDGF104991999999999999999999
0029028060999991911082620004+69100+027217FM-12+014999999V0202301N001019999999N0000001N9+01221+99999099161ADDGF104991999999999999999999
0046028060999991911082706004+69100+027217FM-12+014999999V0201101N004119999999N0000001N9+01171+99999098601ADDAJ100009199999999GF108991999999999999999999
0035028060999991911082713004+69100+027217FM-12+014999999V0200901N002119999999N0000001N9+01281+99999098351ADDGF108991999999999999999999MW1621
0029028060999991911082720004+69100+027217FM-12+014999999V0202301N001019999999N0000001N9+01111+99999098271ADDGF104991999999999999999999
0046028060999991911082806004+69100+027217FM-12+014999999V0202501N002119999999N0000001N9+01001+99999098191ADDAJ100009199999999GF108991999999999999999999
0029028060999991911082813004+69100+027217FM-12+014999999V0202501N001019999999N0000001N9+01331+99999098261ADDGF104991999999999999999999
0029028060999991911082820004+69100+027217FM-12+014999999V0200201N001019999999N0000001N9+01061+99999098301ADDGF108991999999999999999999
0046028060999991911082906004+69100+027217FM-12+014999999V0203401N002119999999N0000001N9+00941+99999098541ADDAJ100009199999999GF108991999999999999999999
