0029028060999991912010106004+69100+027217FM-12+014999999V0202301N001019999999N0000001N9-01061+99999097961ADDGF106991999999999999999999
0029028060999991912010113004+69100+027217FM-12+014999999V0203601N001019999999N0000001N9-01171+99999098681ADDGF100991999999999999999999
0029028060999991912010120004+69100+027217FM-12+014999999V0209991C000019999999N0000001N9-01501+99999098541ADDGF100991999999999999999999
0035028060999991912010206004+69100+027217FM-12+014999999V0200501N004119999999N0000001N9-01171+99999097671ADDGF108991999999999999999999MW1701
0035028060999991912010213004+69100+027217FM-12+014999999V0200501N004119999999N0000001N9-01221+99999097831ADDGF108991999999999999999999MW1701
0029028060999991912010220004+69100+027217FM-12+014999999V0200201N002119999999N0000001N9-01331+99999098031ADDGF100991999999999999999999
0029028060999991912010306004+69100+027217FM-12+014999999V0209991C000019999999N0000001N9-01441+99999098201ADDGF100991999999999999999999
0029028060999991912010313004+69100+027217FM-12+014999999V0203601N002119999999N0000001N9-01281+99999098551ADDGF100991999999999999999999
0035028060999991912010320004+69100+027217FM-12+014999999V0203601N008219999999N0000001N9-01061+99999098471ADDGF108991999999999999999999MW1701
0029028060999991912010406004+69100+027217FM-12+014999999V0203601N002119999999N0000001N9-01781+99999098511ADDGF100991999999999999999999
0035028060999991912010413004+69100+027217FM-12+014999999V0203401N006219999999N0000001N9-01721+99999098751ADDGF100991999999999999999999MW1481
0029028060999991912010420004+69100+027217FM-12+014999999V0209991C000019999999N0000001N9-02611+99999099031ADDGF100991999999999999999999
0029028060999991912010506004+69100+027217FM-12+014999999V0209991C000019999999N0000001N9-02781+99999098621ADDGF100991999999999999999999
0029028060999991912010513004+69100+027217FM-12+014999999V0202701N004119999999N0000001N9-01781+99999098381ADDGF104991999999999999999999
0029028060999991912010520004+69100+027217FM-12+014999999V0202701N004119999999N0000001N9-01611+99999098231ADDGF100991999999999999999999
0029028060999991912010606004+69100+027217FM-12+014999999V0202501N006219999999N0000001N9-02281+99999097641ADDGF100991999999999999999999
0029028060999991912010613004+69100+027217FM-12+014999999V0202501N009819999999N0000001N9-02111+99999097301ADDGF100991999999999999999999
0029028060999991912010620004+69100+027217FM-12+014999999V0202301N009819999999N0000001N9-02501+99999096981ADDGF104991999999999999999999
0029028060999991912010706004+69100+027217FM-12+014999999V0209991C000019999999N0000001N9-02721+99999096761ADDGF100991999999999999999999
0029028060999991912010713004+69100+027217FM-12+014999999V0202301N008219999999N0000001N9-01441+99999096841ADDGF104991999999999999999999
0029028060999991912010720004+69100+027217FM-12+014999999V0202301N006219999999N0000001N9-01501+99999097201ADDGF106991999999999999999999
0029028060999991912010806004+69100+027217FM-12+014999999V0202301N002119999999N0000001N9-01721+99999097711ADDGF104991999999999999999999
0029028060999991912010813004+69100+027217FM-12+014999999V0202301N006219999999N0000001N9-01671+99999098351ADDGF104991999999999999999999
0029028060999991912010820004+69100+027217FM-12+014999999V0202301N008219999999N0000001N9-01781+99999098711ADDGF108991999999999999999999
0029028060999991912010906004+69100+027217FM-12+014999999V0202501N006219999999N0000001N9-02061+99999098511ADDGF100991999999999999999999
0029028060999991912010913004+69100+027217FM-12+014999999V0202501N001019999999N0000001N9-02671+99999098461ADDGF100991999999999999999999
0029028060999991912010920004+69100+027217FM-12+014999999V0209991C000019999999N0000001N9-02721+99999098381ADDGF100991999999999999999999
0029028060999991912011006004+69100+027217FM-12+014999999V0203601N004119999999N0000001N9-02061+99999098241ADDGF100991999999999999999999
0029028060999991912011013004+69100+027217FM-12+014999999V0203401N009819999999N0000001N9-01171+99999098421ADDGF100991999999999999999999
0029028060999991912011020004+69100+027217FM-12+014999999V0202301N001019999999N0000001N9-01281+99999098741ADDGF100991999999999999999999
0029028060999991912011106004+69100+027217FM-12+014999999V0202501N004119999999N0000001N9-01001+99999099181ADDGF106991999999999999999999
0035028060999991912011113004+69100+027217FM-12+014999999V0202301N009819999999N0000001N9-01111+99999099301ADDGF108991999999999999999999MW1721
0029028060999991912011120004+69100+027217FM-12+014999999V0202301N011819999999N0000001N9-00501+99999099621ADDGF104991999999999999999999
0029028060999991912011206004+69100+027217FM-12+014999999V0202301N001019999999N0000001N9-01221+99999099981ADDGF100991999999999999999999
0029028060999991912011213004+69100+027217FM-12+014999999V0202301N009819999999N0000001N9-00721+99999099911ADDGF100991999999999999999999
0029028060999991912011220004+69100+027217FM-12+014999999V0202301N009819999999N0000001N9-00781+99999099921ADDGF100991999999999999999999
0029028060999991912011306004+69100+027217FM-12+014999999V0202501N008219999999N0000001N9-00611+99999100101ADDGF104991999999999999999999
0029028060999991912011313004+69100+027217FM-12+014999999V0202501N006219999999N0000001N9-00831+99999100751ADDGF100991999999999999999999
0029028060999991912011320004+69100+027217FM-12+014999999V0202301N008219999999N0000001N9-00221+99999101391ADDGF108991999999999999999999
0029028060999991912011406004+69100+027217FM-12+014999999V0202301N013919999999N0000001N9-00611+99999101641ADDGF104991999999999999999999
0035028060999991912011413004+69100+027217FM-12+014999999V0202501N013919999999N0000001N9-00561+99999101671ADDGF108991999999999999999999MW1701
0035028060999991912011420004+69100+027217FM-12+014999999V0202301N015919999999N0000001N9-00671+99999101661ADDGF104991999999999999999999MW1701
0029028060999991912011506004+69100+027217FM-12+014999999V0202301N013919999999N0000001N9-00611+99999101391ADDGF108991999999999999999999
0029028060999991912011513004+69100+027217FM-12+014999999V0202501N013919999999N0000001N9-00721+99999101281ADDGF100991999999999999999999
0029028060999991912011520004+69100+027217FM-12+014999999V0202001N009819999999N0000001N9-00721+99999101421ADDGF104991999999999999999999
0029028060999991912011606004+69100+027217FM-12+014999999V0202301N008219999999N0000001N9-00721+99999101671ADDGF104991999999999999999999
0029028060999991912011613004+69100+027217FM-12+014999999V0202701N009819999999N0000001N9-01061+99999101861ADDGF100991999999999999999999
0029028060999991912011620004+69100+027217FM-12+014999999V0202501N011819999999N0000001N9-01111+99999102191ADDGF100991999999999999999999
0029028060999991912011706004+69100+027217FM-12+014999999V0202501N006219999999N0000001N9-01331+99999102421ADDGF100991999999999999999999
0029028060999991912011713004+69100+027217FM-12+014999999V0202701N009819999999N0000001N9-01331+99999102671ADDGF100991999999999999999999
0029028060999991912011720004+69100+027217FM-12+014999999V0202701N008219999999N0000001N9-01111+99999102841ADDGF100991999999999999999999
0029028060999991912011806004+69100+027217FM-12+014999999V0209991C000019999999N0000001N9-00831+99999102801ADDGF100991999999999999999999
0029028060999991912011813004+69100+027217FM-12+014999999V0202701N001019999999N0000001N9-01281+99999102521ADDGF100991999999999999999999
0029028060999991912011820004+69100+027217FM-12+014999999V0202701N002119999999N0000001N9-01391+99999102001ADDGF100991999999999999999999
0029028060999991912011906004+69100+027217FM-12+014999999V0202301N006219999999N0000001N9-01781+99999101721ADDGF100991999999999999999999
0029028060999991912011913004+69100+027217FM-12+014999999V0202501N011819999999N0000001N9-01721+99999101151ADDGF100991999999999999999999
0029028060999991912011920004+69100+027217FM-12+014999999V0209991C000019999999N0000001N9-02221+99999100791ADDGF100991999999999999999999
0029028060999991912012006004+69100+027217FM-12+014999999V0202301N006219999999N0000001N9-01281+99999099471ADDGF104991999999999999999999
0035028060999991912012013004+69100+027217FM-12+014999999V0209991C000019999999N0000001N9-00781+99999099431ADDGF104991999999999999999999MW1481
0029028060999991912012020004+69100+027217FM-12+014999999V0202301N004119999999N0000001N9-00441+99999099261ADDGF104991999999999999999999
0029028060999991912012106004+69100+027217FM-12+014999999V0209991C000019999999N0000001N9-00441+99999099261ADDGF108991999999999999999999
0009028060999991912012113004+69100+027217FM-12+014999999V0200701N002119999999N0000001N9-00781+99999099321ADDMW1701
0029028060999991912012120004+69100+027217FM-12+014999999V0209991C000019999999N0000001N9-01111+99999099381ADDGF108991999999999999999999
0029028060999991912012206004+69100+027217FM-12+014999999V0202701N002119999999N0000001N9-00891+99999098881ADDGF108991999999999999999999
0029028060999991912012213004+69100+027217FM-12+014999999V0202501N006219999999N0000001N9-01001+99999098261ADDGF104991999999999999999999
0029028060999991912012220004+69100+027217FM-12+014999999V0202501N011819999999N0000001N9-00611+99999097271ADDGF108991999999999999999999
0029028060999991912012306004+69100+027217FM-12+014999999V0202901N006219999999N0000001N9-00331+99999096791ADDGF100991999999999999999999
0035028060999991912012313004+69100+027217FM-12+014999999V0203601N008219999999N0000001N9-00781+99999097421ADDGF108991999999999999999999MW1701
0029028060999991912012320004+69100+027217FM-12+014999999V0209991C000019999999N0000001N9-01441+99999098111ADDGF100991999999999999999999
0029028060999991912012406004+69100+027217FM-12+014999999V0202701N001019999999N0000001N9-02171+99999098351ADDGF104991999999999999999999
0029028060999991912012413004+69100+027217FM-12+014999999V0201801N004119999999N0000001N9-02001+99999098351ADDGF100991999999999999999999
0029028060999991912012420004+69100+027217FM-12+014999999V0209991C000019999999N0000001N9-03281+99999098351ADDGF100991999999999999999999
0029028060999991912012506004+69100+027217FM-12+014999999V0201801N001019999999N0000001N9-03281+99999098221ADDGF100991999999999999999999
0029028060999991912012513004+69100+027217FM-12+014999999V0201801N004119999999N0000001N9-02281+99999098121ADDGF104991999999999999999999
0029028060999991912012520004+69100+027217FM-12+014999999V0200701N006219999999N0000001N9-01721+99999098441ADDGF104991999999999999999999
0029028060999991912012606004+69100+027217FM-12+014999999V0209991C000019999999N0000001N9-01941+99999098941ADDGF100991999999999999999999
0029028060999991912012613004+69100+027217FM-12+014999999V0202501N002119999999N0000001N9-02331+99999099161ADDGF100991999999999999999999
0029028060999991912012620004+69100+027217FM-12+014999999V0202501N001019999999N0000001N9-02501+99999099001ADDGF100991999999999999999999
0029028060999991912012706004+69100+027217FM-12+014999999V0202501N011819999999N0000001N9-02221+99999097881ADDGF100991999999999999999999
0035028060999991912012713004+69100+027217FM-12+014999999V0202501N008219999999N0000001N9-01781+99999096911ADDGF108991999999999999999999MW1721
0029028060999991912012720004+69100+027217FM-12+014999999V0203601N013919999999N0000001N9-01221+99999096801ADDGF100991999999999999999999
0029028060999991912012806004+69100+027217FM-12+014999999V0202701N002119999999N0000001N9-02781+99999097541ADDGF100991999999999999999999
0029028060999991912012813004+69100+027217FM-12+014999999V0202501N002119999999N0000001N9-02111+99999097711ADDGF104991999999999999999999
0029028060999991912012820004+69100+027217FM-12+014999999V0202701N001019999999N0000001N9-01721+99999098081ADDGF100991999999999999999999
0029028060999991912012906004+69100+027217FM-12+014999999V0202301N004119999999N0000001N9-02221+99999098721ADDGF106991999999999999999999
0029028060999991912012913004+69100+027217FM-12+014999999V0209991C000019999999N0000001N9-02781+99999098981ADDGF100991999999999999999999
0029028060999991912012920004+69100+027217FM-12+014999999V0209991C000019999999N0000001N9-03001+99999099111ADDGF100991999999999999999999
0029028060999991912013006004+69100+027217FM-12+014999999V0209991C000019999999N0000001N9-02331+99999098911ADDGF100991999999999999999999
0029028060999991912013013004+69100+027217FM-12+014999999V0209991C000019999999N0000001N9-02721+99999099061ADDGF100991999999999999999999
0029028060999991912013020004+69100+027217FM-12+014999999V0209991C000019999999N0000001N9-03501+99999098911ADDGF100991999999999999999999
0029028060999991912013106004+69100+027217FM-12+014999999V0201801N001019999999N0000001N9-03331+99999098941ADDGF100991999999999999999999
0029028060999991912013113004+69100+027217FM-12+014999999V0201801N002119999999N0000001N9-03221+99999098911ADDGF100991999999999999999999
0029028060999991912013120004+69100+027217FM-12+014999999V0209991C000019999999N0000001N9-03281+99999098791ADDGF100991999999999999999999
0029028060999991912020106004+69100+027217FM-12+014999999V0209991C000019999999N0000001N9-03891+99999098841ADDGF100991999999999999999999
0029028060999991912020113004+69100+027217FM-12+014999999V0209991C000019999999N0000001N9-03441+99999098871ADDGF100991999999999999999999
0029028060999991912020120004+69100+027217FM-12+014999999V0203601N006219999999N0000001N9-02061+99999098791ADDGF100991999999999999999999
0029028060999991912020206004+69100+027217FM-12+014999999V0209991C000019999999N0000001N9-02721+99999098271ADDGF100991999999999999999999
0029028060999991912020213004+69100+027217FM-12+014999999V0203601N002119999999N0000001N9-02111+99999098031ADDGF100991999999999999999999
0029028060999991912020220004+69100+027217FM-12+014999999V0209991C000019999999N0000001N9-02441+99999097861ADDGF100991999999999999999999
0029028060999991912020306004+69100+027217FM-12+014999999V0209991C000019999999N0000001N9-02831+99999097081ADDGF100991999999999999999999
0029028060999991912020313004+69100+027217FM-12+014999999V0202301N001019999999N0000001N9-02781+99999097271ADDGF100991999999999999999999
0029028060999991912020320004+69100+027217FM-12+014999999V0201801N001019999999N0000001N9-03781+99999097311ADDGF100991999999999999999999
0029028060999991912020406004+69100+027217FM-12+014999999V0202301N001019999999N0000001N9-03561+99999097141ADDGF100991999999999999999999
0029028060999991912020413004+69100+027217FM-12+014999999V0202501N002119999999N0000001N9-02781+99999097281ADDGF100991999999999999999999
0029028060999991912020420004+69100+027217FM-12+014999999V0202501N001019999999N0000001N9-02501+99999097301ADDGF100991999999999999999999
0029028060999991912020506004+69100+027217FM-12+014999999V0202301N001019999999N0000001N9-02561+99999097401ADDGF100991999999999999999999
0029028060999991912020513004+69100+027217FM-12+014999999V0202501N004119999999N0000001N9-02561+99999097701ADDGF100991999999999999999999
0029028060999991912020520004+69100+027217FM-12+014999999V0202301N009819999999N0000001N9-02671+99999097661ADDGF100991999999999999999999
0029028060999991912020606004+69100+027217FM-12+014999999V0202501N004119999999N0000001N9-01671+99999097671ADDGF104991999999999999999999
0029028060999991912020613004+69100+027217FM-12+014999999V0202901N006219999999N0000001N9-01391+99999097991ADDGF104991999999999999999999
0029028060999991912020620004+69100+027217FM-12+014999999V0202901N011819999999N0000001N9-01781+99999098121ADDGF100991999999999999999999
0029028060999991912020706004+69100+027217FM-12+014999999V0202501N006219999999N0000001N9-01891+99999098431ADDGF100991999999999999999999
0029028060999991912020713004+69100+027217FM-12+014999999V0202501N004119999999N0000001N9-01891+99999098711ADDGF100991999999999999999999
0029028060999991912020720004+69100+027217FM-12+014999999V0202301N004119999999N0000001N9-02671+99999099221ADDGF100991999999999999999999
0029028060999991912020806004+69100+027217FM-12+014999999V0209991C000019999999N0000001N9-02111+99999099401ADDGF108991999999999999999999
0029028060999991912020813004+69100+027217FM-12+014999999V0209991C000019999999N0000001N9-01941+99999099581ADDGF108991999999999999999999
0035028060999991912020820004+69100+027217FM-12+014999999V0200501N002119999999N0000001N9-01671+99999099271ADDGF108991999999999999999999MW1701
0029028060999991912020906004+69100+027217FM-12+014999999V0200901N001019999999N0000001N9-01611+99999099081ADDGF104991999999999999999999
0029028060999991912020913004+69100+027217FM-12+014999999V0202501N002119999999N0000001N9-01891+99999099301ADDGF104991999999999999999999
0029028060999991912020920004+69100+027217FM-12+014999999V0209991C000019999999N0000001N9-01391+99999099301ADDGF108991999999999999999999
0035028060999991912021006004+69100+027217FM-12+014999999V0200501N002119999999N0000001N9-01001+99999099141ADDGF108991999999999999999999MW1721
0029028060999991912021013004+69100+027217FM-12+014999999V0203601N006219999999N0000001N9-00941+99999099431ADDGF106991999999999999999999
0035028060999991912021020004+69100+027217FM-12+014999999V0209991C000019999999N0000001N9-01391+99999099741ADDGF108991999999999999999999MW1701
0029028060999991912021106004+69100+027217FM-12+014999999V0203601N002119999999N0000001N9-01221+99999100151ADDGF104991999999999999999999
0029028060999991912021113004+69100+027217FM-12+014999999V0209991C000019999999N0000001N9-01721+99999100301ADDGF100991999999999999999999
0029028060999991912021120004+69100+027217FM-12+014999999V0209991C000019999999N0000001N9-02721+99999100601ADDGF100991999999999999999999
0029028060999991912021206004+69100+027217FM-12+014999999V0209991C000019999999N0000001N9-03501+99999100791ADDGF100991999999999999999999
0035028060999991912021213004+69100+027217FM-12+014999999V0209991C000019999999N0000001N9-02611+99999100561ADDGF100991999999999999999999MW1481
0029028060999991912021220004+69100+027217FM-12+014999999V0202301N002119999999N0000001N9-02111+99999100471ADDGF104991999999999999999999
0029028060999991912021306004+69100+027217FM-12+014999999V0202701N001019999999N0000001N9-01891+99999100121ADDGF104991999999999999999999
0029028060999991912021313004+69100+027217FM-12+014999999V0202701N008219999999N0000001N9-01831+99999099601ADDGF106991999999999999999999
0035028060999991912021320004+69100+027217FM-12+014999999V0202301N011819999999N0000001N9-01671+99999098911ADDGF108991999999999999999999MW1381
0029028060999991912021406004+69100+027217FM-12+014999999V0202501N009819999999N0000001N9-01331+99999097681ADDGF104991999999999999999999
0035028060999991912021413004+69100+027217FM-12+014999999V0203601N011819999999N0000001N9-00561+99999097241ADDGF104991999999999999999999MW1381
0029028060999991912021420004+69100+027217FM-12+014999999V0200501N002119999999N0000001N9-01061+99999098351ADDGF100991999999999999999999
0035028060999991912021506004+69100+027217FM-12+014999999V0202301N001019999999N0000001N9-01611+99999099031ADDGF104991999999999999999999MW1701
0029028060999991912021513004+69100+027217FM-12+014999999V0209991C000019999999N0000001N9-01221+99999099321ADDGF100991999999999999999999
0029028060999991912021520004+69100+027217FM-12+014999999V0209991C000019999999N0000001N9-01831+99999099101ADDGF100991999999999999999999
0029028060999991912021606004+69100+027217FM-12+014999999V0200901N002119999999N0000001N9-01671+99999098641ADDGF104991999999999999999999
0029028060999991912021613004+69100+027217FM-12+014999999V0200901N002119999999N0000001N9-01561+99999099061ADDGF104991999999999999999999
0029028060999991912021620004+69100+027217FM-12+014999999V0209991C000019999999N0000001N9-03221+99999099241ADDGF100991999999999999999999
0029028060999991912021706004+69100+027217FM-12+014999999V0200901N001019999999N0000001N9-02221+99999098941ADDGF108991999999999999999999
0029028060999991912021713004+69100+027217FM-12+014999999V0200701N002119999999N0000001N9-01831+99999098861ADDGF106991999999999999999999
0029028060999991912021720004+69100+027217FM-12+014999999V0209991C000019999999N0000001N9-02391+99999098591ADDGF100991999999999999999999
0029028060999991912021806004+69100+027217FM-12+014999999V0202001N001019999999N0000001N9-01781+99999098141ADDGF106991999999999999999999
0035028060999991912021813004+69100+027217FM-12+014999999V0202901N002119999999N0000001N9-01671+99999098581ADDGF100991999999999999999999MW1481
0029028060999991912021820004+69100+027217FM-12+014999999V0209991C000019999999N0000001N9-02561+99999098941ADDGF100991999999999999999999
0029028060999991912021906004+69100+027217FM-12+014999999V0209991C000019999999N0000001N9-02611+99999099521ADDGF100991999999999999999999
0029028060999991912021913004+69100+027217FM-12+014999999V0209991C000019999999N0000001N9-02671+99999099961ADDGF100991999999999999999999
0035028060999991912021920004+69100+027217FM-12+014999999V0209991C000019999999N0000001N9-03781+99999100141ADDGF100991999999999999999999MW1001
0029028060999991912022006004+69100+027217FM-12+014999999V0209991C000019999999N0000001N9-03781+99999100221ADDGF100991999999999999999999
0029028060999991912022013004+69100+027217FM-12+014999999V0209991C000019999999N0000001N9-02501+99999100261ADDGF100991999999999999999999
0035028060999991912022020004+69100+027217FM-12+014999999V0209991C000019999999N0000001N9-02721+99999099911ADDGF100991999999999999999999MW1001
0029028060999991912022106004+69100+027217FM-12+014999999V0202301N002119999999N0000001N9-01781+99999099781ADDGF100991999999999999999999
0035028060999991912022113004+69100+027217FM-12+014999999V0202301N004119999999N0000001N9-01441+99999099521ADDGF100991999999999999999999MW1481
0029028060999991912022120004+69100+027217FM-12+014999999V0202301N008219999999N0000001N9-01721+99999099431ADDGF104991999999999999999999
0029028060999991912022206004+69100+027217FM-12+014999999V0203601N009819999999N0000001N9-00781+99999099151ADDGF108991999999999999999999
0035028060999991912022213004+69100+027217FM-12+014999999V0203401N009819999999N0000001N9-01221+99999099621ADDGF100991999999999999999999MW1381
0029028060999991912022220004+69100+027217FM-12+014999999V0200501N004119999999N0000001N9-01671+99999100311ADDGF100991999999999999999999
0029028060999991912022306004+69100+027217FM-12+014999999V0209991C000019999999N0000001N9-01611+99999100711ADDGF106991999999999999999999
0029028060999991912022313004+69100+027217FM-12+014999999V0202701N004119999999N0000001N9-01221+99999100681ADDGF104991999999999999999999
0029028060999991912022320004+69100+027217FM-12+014999999V0202301N002119999999N0000001N9-01891+99999100601ADDGF100991999999999999999999
0029028060999991912022406004+69100+027217FM-12+014999999V0202001N002119999999N0000001N9-02831+99999099861ADDGF100991999999999999999999
0029028060999991912022413004+69100+027217FM-12+014999999V0202301N004119999999N0000001N9-01781+99999099591ADDGF100991999999999999999999
0029028060999991912022420004+69100+027217FM-12+014999999V0202501N004119999999N0000001N9-02061+99999099181ADDGF100991999999999999999999
0035028060999991912022506004+69100+027217FM-12+014999999V0201801N006219999999N0000001N9-01831+99999098711ADDGF108991999999999999999999MW1721
0029028060999991912022513004+69100+027217FM-12+014999999V0201801N002119999999N0000001N9-01781+99999098721ADDGF100991999999999999999999
0029028060999991912022520004+69100+027217FM-12+014999999V0201801N001019999999N0000001N9-03221+99999098901ADDGF100991999999999999999999
0029028060999991912022606004+69100+027217FM-12+014999999V0202301N004119999999N0000001N9-02721+99999098951ADDGF104991999999999999999999
0029028060999991912022613004+69100+027217FM-12+014999999V0209991C000019999999N0000001N9-02221+99999099001ADDGF100991999999999999999999
0029028060999991912022620004+69100+027217FM-12+014999999V0209991C000019999999N0000001N9-03111+99999099031ADDGF100991999999999999999999
0035028060999991912022706004+69100+027217FM-12+014999999V0200901N001019999999N0000001N9-02221+99999098501ADDGF108991999999999999999999MW1721
0035028060999991912022713004+69100+027217FM-12+014999999V0200901N001019999999N0000001N9-01441+99999098441ADDGF108991999999999999999999MW1721
0029028060999991912022720004+69100+027217FM-12+014999999V0209991C000019999999N0000001N9-01281+99999098391ADDGF108991999999999999999999
0035028060999991912022806004+69100+027217FM-12+014999999V0201401N004119999999N0000001N9-01221+99999098031ADDGF108991999999999999999999MW1741
0029028060999991912022813004+69100+027217FM-12+014999999V0202301N006219999999N0000001N9-00781+99999097901ADDGF104991999999999999999999
0035028060999991912022820004+69100+027217FM-12+014999999V0202001N008219999999N0000001N9-00501+99999097401ADDGF106991999999999999999999MW1701
0029028060999991912022906004+69100+027217FM-12+014999999V0202501N004119999999N0000001N9-00611+99999097081ADDGF104991999999999999999999
0029028060999991912022913004+69100+027217FM-12+014999999V0202701N006219999999N0000001N9-00111+99999097831ADDGF100991999999999999999999
0029028060999991912022920004+69100+027217FM-12+014999999V0209991C000019999999N0000001N9-00391+99999097841ADDGF100991999999999999999999
0035028060999991912030106004+69100+027217FM-12+014999999V0200501N002119999999N0000001N9-00501+99999097881ADDGF108991999999999999999999MW1721
0029028060999991912030113004+69100+027217FM-12+014999999V0200901N008219999999N0000001N9-00831+99999097921ADDGF106991999999999999999999
0035028060999991912030120004+69100+027217FM-12+014999999V0200901N008219999999N0000001N9-01281+99999098271ADDGF108991999999999999999999MW1721
0029028060999991912030206004+69100+027217FM-12+014999999V0200901N009819999999N0000001N9-01281+99999098041ADDGF108991999999999999999999
0029028060999991912030213004+69100+027217FM-12+014999999V0201401N004119999999N0000001N9-01281+99999098061ADDGF106991999999999999999999
0035028060999991912030220004+69100+027217FM-12+014999999V0201801N002119999999N0000001N9-01281+99999098081ADDGF106991999999999999999999MW1381
0029028060999991912030306004+69100+027217FM-12+014999999V0201801N001019999999N0000001N9-01171+99999097831ADDGF108991999999999999999999
0029028060999991912030313004+69100+027217FM-12+014999999V0202001N002119999999N0000001N9-00831+99999097641ADDGF106991999999999999999999
0029028060999991912030320004+69100+027217FM-12+014999999V0209991C000019999999N0000001N9-01781+99999097801ADDGF100991999999999999999999
0029028060999991912030406004+69100+027217FM-12+014999999V0209991C000019999999N0000001N9-02501+99999097961ADDGF108991999999999999999999
0029028060999991912030413004+69100+027217FM-12+014999999V0203601N004119999999N0000001N9-01281+99999098241ADDGF108991999999999999999999
0029028060999991912030420004+69100+027217FM-12+014999999V0200901N008219999999N0000001N9-00891+99999098521ADDGF108991999999999999999999
0029028060999991912030506004+69100+027217FM-12+014999999V0200901N008219999999N0000001N9-01281+99999099021ADDGF108991999999999999999999
0035028060999991912030513004+69100+027217FM-12+014999999V0200901N008219999999N0000001N9-01441+99999099471ADDGF100991999999999999999999MW1381
0029028060999991912030520004+69100+027217FM-12+014999999V0209991C000019999999N0000001N9-02331+99999100031ADDGF100991999999999999999999
0029028060999991912030606004+69100+027217FM-12+014999999V0201101N002119999999N0000001N9-03721+99999100271ADDGF100991999999999999999999
0029028060999991912030613004+69100+027217FM-12+014999999V0200901N004119999999N0000001N9-02001+99999100021ADDGF100991999999999999999999
0029028060999991912030620004+69100+027217FM-12+014999999V0200901N002119999999N0000001N9-01781+99999099741ADDGF108991999999999999999999
0035028060999991912030706004+69100+027217FM-12+014999999V0201801N006219999999N0000001N9-01501+99999099301ADDGF108991999999999999999999MW1721
0035028060999991912030713004+69100+027217FM-12+014999999V0202001N008219999999N0000001N9-01281+99999099071ADDGF108991999999999999999999MW1721
0035028060999991912030720004+69100+027217FM-12+014999999V0202301N006219999999N0000001N9-01221+99999098881ADDGF108991999999999999999999MW1721
0035028060999991912030806004+69100+027217FM-12+014999999V0202001N002119999999N0000001N9-01221+99999098861ADDGF108991999999999999999999MW1721
0035028060999991912030813004+69100+027217FM-12+014999999V0202301N002119999999N0000001N9-01061+99999098761ADDGF108991999999999999999999MW1721
0029028060999991912030820004+69100+027217FM-12+014999999V0209991C000019999999N0000001N9-01781+99999098941ADDGF100991999999999999999999
0029028060999991912030906004+69100+027217FM-12+014999999V0209991C000019999999N0000001N9-01721+99999099341ADDGF104991999999999999999999
0029028060999991912030913004+69100+027217FM-12+014999999V0202301N002119999999N0000001N9-00781+99999099701ADDGF100991999999999999999999
0029028060999991912030920004+69100+027217FM-12+014999999V0202301N001019999999N0000001N9-01221+99999100031ADDGF104991999999999999999999
0029028060999991912031006004+69100+027217FM-12+014999999V0202301N001019999999N0000001N9-01221+99999100521ADDGF104991999999999999999999
0029028060999991912031013004+69100+027217FM-12+014999999V0202501N004119999999N0000001N9-00781+99999100751ADDGF100991999999999999999999
0029028060999991912031020004+69100+027217FM-12+014999999V0202301N006219999999N0000001N9-01281+99999100951ADDGF100991999999999999999999
0029028060999991912031106004+69100+027217FM-12+014999999V0209991C000019999999N0000001N9-01781+99999101191ADDGF108991999999999999999999
0029028060999991912031113004+69100+027217FM-12+014999999V0202501N009819999999N0000001N9-00721+99999101301ADDGF104991999999999999999999
0029028060999991912031120004+69100+027217FM-12+014999999V0209991C000019999999N0000001N9-01441+99999101301ADDGF100991999999999999999999
0029028060999991912031206004+69100+027217FM-12+014999999V0202301N004119999999N0000001N9-01061+99999101001ADDGF104991999999999999999999
0029028060999991912031213004+69100+027217FM-12+014999999V0202501N006219999999N0000001N9-00611+99999100881ADDGF104991999999999999999999
0029028060999991912031220004+69100+027217FM-12+014999999V0202301N004119999999N0000001N9-00441+99999100631ADDGF108991999999999999999999
0029028060999991912031306004+69100+027217FM-12+014999999V0202501N008219999999N0000001N9-00611+99999100141ADDGF106991999999999999999999
0029028060999991912031313004+69100+027217FM-12+014999999V0202301N008219999999N0000001N9-00391+99999099921ADDGF100991999999999999999999
0029028060999991912031320004+69100+027217FM-12+014999999V0202301N009819999999N0000001N9-01001+99999099761ADDGF100991999999999999999999
0035028060999991912031406004+69100+027217FM-12+014999999V0202701N004119999999N0000001N9-01331+99999099951ADDGF100991999999999999999999MW1381
0029028060999991912031413004+69100+027217FM-12+014999999V0202301N008219999999N0000001N9-01061+99999100061ADDGF108991999999999999999999
0029028060999991912031420004+69100+027217FM-12+014999999V0202301N002119999999N0000001N9-01281+99999100361ADDGF100991999999999999999999
0035028060999991912031506004+69100+027217FM-12+014999999V0202501N008219999999N0000001N9-00561+99999099881ADDGF106991999999999999999999MW1381
0035028060999991912031513004+69100+027217FM-12+014999999V0202501N009819999999N0000001N9-00281+99999099661ADDGF106991999999999999999999MW1381
0035028060999991912031520004+69100+027217FM-12+014999999V0202301N009819999999N0000001N9-00331+99999099261ADDGF108991999999999999999999MW1381
0029028060999991912031606004+69100+027217FM-12+014999999V0202301N009819999999N0000001N9-00171+99999099471ADDGF108991999999999999999999
0035028060999991912031613004+69100+027217FM-12+014999999V0202301N008219999999N0000001N9-00171+99999099511ADDGF106991999999999999999999MW1381
0035028060999991912031620004+69100+027217FM-12+014999999V0202301N009819999999N0000001N9-00221+99999099511ADDGF108991999999999999999999MW1381
0035028060999991912031706004+69100+027217FM-12+014999999V0202501N011819999999N0000001N9-00391+99999099441ADDGF106991999999999999999999MW1381
0035028060999991912031713004+69100+027217FM-12+014999999V0202701N009819999999N0000001N9-00441+99999099591ADDGF104991999999999999999999MW1381
0035028060999991912031720004+69100+027217FM-12+014999999V0202701N009819999999N0000001N9-00281+99999099541ADDGF100991999999999999999999MW1381
0029028060999991912031806004+69100+027217FM-12+014999999V0202301N009819999999N0000001N9-00501+99999099391ADDGF104991999999999999999999
0029028060999991912031813004+69100+027217FM-12+014999999V0202301N011819999999N0000001N9-00221+99999099421ADDGF106991999999999999999999
0029028060999991912031820004+69100+027217FM-12+014999999V0202301N004119999999N0000001N9-00391+99999099581ADDGF100991999999999999999999
0029028060999991912031906004+69100+027217FM-12+014999999V0202301N006219999999N0000001N9-00441+99999099661ADDGF106991999999999999999999
0029028060999991912031913004+69100+027217FM-12+014999999V0202701N002119999999N0000001N9-00221+99999099701ADDGF100991999999999999999999
0029028060999991912031920004+69100+027217FM-12+014999999V0209991C000019999999N0000001N9-00501+99999099591ADDGF100991999999999999999999
0029028060999991912032006004+69100+027217FM-12+014999999V0200701N002119999999N0000001N9-00671+99999099511ADDGF106991999999999999999999
0029028060999991912032013004+69100+027217FM-12+014999999V0200901N002119999999N0000001N9-00221+99999099671ADDGF108991999999999999999999
0029028060999991912032020004+69100+027217FM-12+014999999V0209991C000019999999N0000001N9-00561+99999099591ADDGF100991999999999999999999
0029028060999991912032106004+69100+027217FM-12+014999999V0200901N001019999999N0000001N9-00831+99999099601ADDGF108991999999999999999999
0029028060999991912032113004+69100+027217FM-12+014999999V0201401N002119999999N0000001N9-00221+99999099401ADDGF108991999999999999999999
0035028060999991912032120004+69100+027217FM-12+014999999V0200901N001019999999N0000001N9-00221+99999099191ADDGF108991999999999999999999MW1701
0029028060999991912032206004+69100+027217FM-12+014999999V0209991C000019999999N0000001N9-00221+99999099101ADDGF108991999999999999999999
0029028060999991912032213004+69100+027217FM-12+014999999V0209991C000019999999N0000001N9+00111+99999099041ADDGF108991999999999999999999
0035028060999991912032220004+69100+027217FM-12+014999999V0200901N008219999999N0000001N9-00171+99999098761ADDGF108991999999999999999999MW1701
0035028060999991912032306004+69100+027217FM-12+014999999V0200901N004119999999N0000001N9-00221+99999098551ADDGF108991999999999999999999MW1721
0035028060999991912032313004+69100+027217FM-12+014999999V0200901N002119999999N0000001N9+00001+99999098631ADDGF108991999999999999999999MW1721
0035028060999991912032320004+69100+027217FM-12+014999999V0201101N002119999999N0000001N9-00111+99999098751ADDGF108991999999999999999999MW1721
0029028060999991912032406004+69100+027217FM-12+014999999V0201401N004119999999N0000001N9-00221+99999098721ADDGF108991999999999999999999
0029028060999991912032413004+69100+027217FM-12+014999999V0202501N001019999999N0000001N9-00061+99999098831ADDGF100991999999999999999999
0029028060999991912032420004+69100+027217FM-12+014999999V0209991C000019999999N0000001N9-00281+99999098991ADDGF100991999999999999999999
0029028060999991912032506004+69100+027217FM-12+014999999V0209991C000019999999N0000001N9-00561+99999099151ADDGF106991999999999999999999
0029028060999991912032513004+69100+027217FM-12+014999999V0203601N004119999999N0000001N9-00281+99999099301ADDGF100991999999999999999999
0029028060999991912032520004+69100+027217FM-12+014999999V0200501N002119999999N0000001N9-00561+99999099581ADDGF104991999999999999999999
0029028060999991912032606004+69100+027217FM-12+014999999V0200901N001019999999N0000001N9-00611+99999099871ADDGF100991999999999999999999
0029028060999991912032613004+69100+027217FM-12+014999999V0200901N002119999999N0000001N9-00391+99999100021ADDGF100991999999999999999999
0029028060999991912032620004+69100+027217FM-12+014999999V0209991C000019999999N0000001N9-01611+99999099741ADDGF100991999999999999999999
0035028060999991912032706004+69100+027217FM-12+014999999V0200901N002119999999N0000001N9-00721+99999099061ADDGF108991999999999999999999MW1701
0035028060999991912032713004+69100+027217FM-12+014999999V0202001N002119999999N0000001N9-00061+99999098421ADDGF108991999999999999999999MW1721
0035028060999991912032720004+69100+027217FM-12+014999999V0201801N004119999999N0000001N9-00111+99999098151ADDGF108991999999999999999999MW1721
0029028060999991912032806004+69100+027217FM-12+014999999V0201801N002119999999N0000001N9-00221+99999098001ADDGF106991999999999999999999
0029028060999991912032813004+69100+027217FM-12+014999999V0202301N006219999999N0000001N9+00001+99999097911ADDGF106991999999999999999999
0029028060999991912032820004+69100+027217FM-12+014999999V0209991C000019999999N0000001N9-00501+99999097601ADDGF108991999999999999999999
0035028060999991912032906004+69100+027217FM-12+014999999V0203601N004119999999N0000001N9-00391+99999097111ADDGF108991999999999999999999MW1701
0029028060999991912032913004+69100+027217FM-12+014999999V0203601N008219999999N0000001N9-00501+99999096951ADDGF108991999999999999999999
0035028060999991912032920004+69100+027217FM-12+014999999V0203601N004119999999N0000001N9-00611+99999097081ADDGF108991999999999999999999MW1701
0035028060999991912033006004+69100+027217FM-12+014999999V0203401N009819999999N0000001N9-01001+99999097151ADDGF108991999999999999999999MW1701
0029028060999991912033013004+69100+027217FM-12+014999999V0203601N011819999999N0000001N9-01111+99999097641ADDGF108991999999999999999999
0035028060999991912033020004+69100+027217FM-12+014999999V0200501N009819999999N0000001N9-01611+99999097991ADDGF104991999999999999999999MW1381
0029028060999991912033106004+69100+027217FM-12+014999999V0209991C000019999999N0000001N9-01831+99999098311ADDGF100991999999999999999999
0029028060999991912033113004+69100+027217FM-12+014999999V0203401N006219999999N0000001N9-01221+99999098671ADDGF100991999999999999999999
0029028060999991912033120004+69100+027217FM-12+014999999V0209991C000019999999N0000001N9-02611+99999098701ADDGF100991999999999999999999
0035028060999991912040106004+69100+027217FM-12+014999999V0202301N008219999999N0000001N9-02111+99999098581ADDGF100991999999999999999999MW1381
0035028060999991912040113004+69100+027217FM-12+014999999V0202901N011819999999N0000001N9-01111+99999098561ADDGF104991999999999999999999MW1381
0035028060999991912040120004+69100+027217FM-12+014999999V0202501N006219999999N0000001N9-01391+99999098721ADDGF100991999999999999999999MW1381
0029028060999991912040206004+69100+027217FM-12+014999999V0202501N004119999999N0000001N9-02611+99999099151ADDGF100991999999999999999999
0029028060999991912040213004+69100+027217FM-12+014999999V0202701N006219999999N0000001N9-00891+99999099161ADDGF100991999999999999999999
0035028060999991912040220004+69100+027217FM-12+014999999V0202701N004119999999N0000001N9-01281+99999098921ADDGF100991999999999999999999MW1001
0029028060999991912040306004+69100+027217FM-12+014999999V0202501N008219999999N0000001N9-00831+99999098231ADDGF106991999999999999999999
0029028060999991912040313004+69100+027217FM-12+014999999V0202001N006219999999N0000001N9-00111+99999098121ADDGF100991999999999999999999
0035028060999991912040320004+69100+027217FM-12+014999999V0202501N008219999999N0000001N9-00221+99999098121ADDGF104991999999999999999999MW1381
0035028060999991912040406004+69100+027217FM-12+014999999V0202301N006219999999N0000001N9-00281+99999097581ADDGF100991999999999999999999MW1721
0035028060999991912040413004+69100+027217FM-12+014999999V0202501N013919999999N0000001N9+00331+99999096941ADDGF100991999999999999999999MW1721
0035028060999991912040420004+69100+027217FM-12+014999999V0200501N013919999999N0000001N9-00281+99999097061ADDGF106991999999999999999999MW1721
0035028060999991912040506004+69100+027217FM-12+014999999V0200901N020119999999N0000001N9-00781+99999096081ADDGF108991999999999999999999MW1741
0035028060999991912040513004+69100+027217FM-12+014999999V0200901N027819999999N0000001N9-00891+99999095741ADDGF108991999999999999999999MW1741
0035028060999991912040520004+69100+027217FM-12+014999999V0203601N020119999999N0000001N9-01221+99999096081ADDGF108991999999999999999999MW1741
0029028060999991912040606004+69100+027217FM-12+014999999V0200201N011819999999N0000001N9-01001+99999096591ADDGF106991999999999999999999
0029028060999991912040613004+69100+027217FM-12+014999999V0200501N013919999999N0000001N9-01061+99999097061ADDGF108991999999999999999999
0029028060999991912040620004+69100+027217FM-12+014999999V0203601N011819999999N0000001N9-01061+99999097281ADDGF108991999999999999999999
0029028060999991912040706004+69100+027217FM-12+014999999V0203601N001019999999N0000001N9-01331+99999097541ADDGF100991999999999999999999
0029028060999991912040713004+69100+027217FM-12+014999999V0203601N006219999999N0000001N9-00891+99999097341ADDGF100991999999999999999999
0029028060999991912040720004+69100+027217FM-12+014999999V0209991C000019999999N0000001N9-01941+99999097441ADDGF100991999999999999999999
0029028060999991912040806004+69100+027217FM-12+014999999V0200201N011819999999N0000001N9-01111+99999097831ADDGF100991999999999999999999
0029028060999991912040813004+69100+027217FM-12+014999999V0200501N008219999999N0000001N9-01061+99999098261ADDGF100991999999999999999999
0029028060999991912040820004+69100+027217FM-12+014999999V0209991C000019999999N0000001N9-01611+99999098511ADDGF100991999999999999999999
0029028060999991912040906004+69100+027217FM-12+014999999V0202701N002119999999N0000001N9-01941+99999098421ADDGF100991999999999999999999
0029028060999991912040913004+69100+027217FM-12+014999999V0203601N006219999999N0000001N9-00611+99999098431ADDGF100991999999999999999999
0029028060999991912040920004+69100+027217FM-12+014999999V0203401N001019999999N0000001N9-01781+99999098551ADDGF100991999999999999999999
0029028060999991912041006004+69100+027217FM-12+014999999V0201801N002119999999N0000001N9-02331+99999098831ADDGF100991999999999999999999
0029028060999991912041013004+69100+027217FM-12+014999999V0209991C000019999999N0000001N9-00561+99999098941ADDGF100991999999999999999999
0029028060999991912041020004+69100+027217FM-12+014999999V0209991C000019999999N0000001N9-01501+99999099001ADDGF100991999999999999999999
0029028060999991912041106004+69100+027217FM-12+014999999V0209991C000019999999N0000001N9-02501+99999099261ADDGF100991999999999999999999
0029028060999991912041113004+69100+027217FM-12+014999999V0209991C000019999999N0000001N9-00671+99999099061ADDGF100991999999999999999999
0029028060999991912041120004+69100+027217FM-12+014999999V0200201N002119999999N0000001N9-02001+99999099141ADDGF100991999999999999999999
0029028060999991912041206004+69100+027217FM-12+014999999V0209991C000019999999N0000001N9-02561+99999099661ADDGF100991999999999999999999
0029028060999991912041213004+69100+027217FM-12+014999999V0203601N001019999999N0000001N9-00611+99999099591ADDGF100991999999999999999999
0029028060999991912041220004+69100+027217FM-12+014999999V0209991C000019999999N0000001N9-01781+99999099631ADDGF100991999999999999999999
0029028060999991912041306004+69100+027217FM-12+014999999V0209991C000019999999N0000001N9-02111+99999099781ADDGF100991999999999999999999
0029028060999991912041313004+69100+027217FM-12+014999999V0200201N002119999999N0000001N9-00391+99999099721ADDGF100991999999999999999999
0029028060999991912041320004+69100+027217FM-12+014999999V0209991C000019999999N0000001N9-01501+99999099901ADDGF100991999999999999999999
0029028060999991912041406004+69100+027217FM-12+014999999V0202701N001019999999N0000001N9-02221+99999100311ADDGF100991999999999999999999
0029028060999991912041413004+69100+027217FM-12+014999999V0202501N002119999999N0000001N9+00001+99999099961ADDGF100991999999999999999999
0029028060999991912041420004+69100+027217FM-12+014999999V0209991C000019999999N0000001N9-00391+99999099621ADDGF104991999999999999999999
0029028060999991912041506004+69100+027217FM-12+014999999V0202701N002119999999N0000001N9-00501+99999098961ADDGF100991999999999999999999
0029028060999991912041513004+69100+027217FM-12+014999999V0202501N008219999999N0000001N9+00281+99999098591ADDGF106991999999999999999999
0029028060999991912041520004+69100+027217FM-12+014999999V0202501N008219999999N0000001N9+00061+99999098241ADDGF104991999999999999999999
0029028060999991912041606004+69100+027217FM-12+014999999V0202301N008219999999N0000001N9-00331+99999098871ADDGF100991999999999999999999
0029028060999991912041613004+69100+027217FM-12+014999999V0202701N009819999999N0000001N9+00001+99999099181ADDGF100991999999999999999999
0029028060999991912041620004+69100+027217FM-12+014999999V0201401N002119999999N0000001N9-00221+99999098661ADDGF108991999999999999999999
0029028060999991912041706004+69100+027217FM-12+014999999V0202701N015919999999N0000001N9+00561+99999097381ADDGF100991999999999999999999
0029028060999991912041713004+69100+027217FM-12+014999999V0202701N008219999999N0000001N9+00391+99999098321ADDGF100991999999999999999999
0029028060999991912041720004+69100+027217FM-12+014999999V0203401N004119999999N0000001N9-00221+99999099361ADDGF100991999999999999999999
0029028060999991912041806004+69100+027217FM-12+014999999V0201801N001019999999N0000001N9-00281+99999099761ADDGF100991999999999999999999
0029028060999991912041813004+69100+027217FM-12+014999999V0202701N008219999999N0000001N9+00061+99999100551ADDGF100991999999999999999999
0029028060999991912041820004+69100+027217FM-12+014999999V0202301N004119999999N0000001N9-00391+99999100861ADDGF100991999999999999999999
0029028060999991912041906004+69100+027217FM-12+014999999V0202501N006219999999N0000001N9-00281+99999100661ADDGF108991999999999999999999
0029028060999991912041913004+69100+027217FM-12+014999999V0202701N004119999999N0000001N9+00501+99999100881ADDGF100991999999999999999999
0029028060999991912041920004+69100+027217FM-12+014999999V0202701N004119999999N0000001N9-00171+99999101301ADDGF104991999999999999999999
0029028060999991912042006004+69100+027217FM-12+014999999V0201801N001019999999N0000001N9-00331+99999101861ADDGF106991999999999999999999
0029028060999991912042013004+69100+027217FM-12+014999999V0201801N001019999999N0000001N9+00671+99999101921ADDGF100991999999999999999999
0029028060999991912042020004+69100+027217FM-12+014999999V0201801N002119999999N0000001N9+00061+99999102071ADDGF108991999999999999999999
0029028060999991912042106004+69100+027217FM-12+014999999V0202001N002119999999N0000001N9+00111+99999101961ADDGF100991999999999999999999
0029028060999991912042113004+69100+027217FM-12+014999999V0202001N002119999999N0000001N9+00831+99999101681ADDGF100991999999999999999999
0029028060999991912042120004+69100+027217FM-12+014999999V0209991C000019999999N0000001N9+00111+99999101561ADDGF100991999999999999999999
0029028060999991912042206004+69100+027217FM-12+014999999V0209991C000019999999N0000001N9+00061+99999101311ADDGF100991999999999999999999
0029028060999991912042213004+69100+027217FM-12+014999999V0202701N008219999999N0000001N9+00891+99999100991ADDGF100991999999999999999999
0029028060999991912042220004+69100+027217FM-12+014999999V0203601N002119999999N0000001N9+00331+99999101101ADDGF104991999999999999999999
0029028060999991912042306004+69100+027217FM-12+014999999V0202501N006219999999N0000001N9+00221+99999101031ADDGF104991999999999999999999
0029028060999991912042313004+69100+027217FM-12+014999999V0202701N008219999999N0000001N9+00391+99999100911ADDGF104991999999999999999999
0029028060999991912042320004+69100+027217FM-12+014999999V0202701N009819999999N0000001N9+00281+99999100551ADDGF106991999999999999999999
0029028060999991912042406004+69100+027217FM-12+014999999V0203601N013919999999N0000001N9+00221+99999100231ADDGF104991999999999999999999
0029028060999991912042413004+69100+027217FM-12+014999999V0200201N002119999999N0000001N9+00281+99999100281ADDGF104991999999999999999999
0029028060999991912042420004+69100+027217FM-12+014999999V0201801N002119999999N0000001N9+00061+99999100161ADDGF108991999999999999999999
0029028060999991912042506004+69100+027217FM-12+014999999V0202501N002119999999N0000001N9+00221+99999099751ADDGF108991999999999999999999
0029028060999991912042513004+69100+027217FM-12+014999999V0202501N006219999999N0000001N9+00501+99999099441ADDGF100991999999999999999999
0029028060999991912042520004+69100+027217FM-12+014999999V0202301N002119999999N0000001N9+00221+99999098641ADDGF104991999999999999999999
0029028060999991912042606004+69100+027217FM-12+014999999V0202701N004119999999N0000001N9+00001+99999098301ADDGF108991999999999999999999
0029028060999991912042613004+69100+027217FM-12+014999999V0203401N006219999999N0000001N9+00221+99999098341ADDGF104991999999999999999999
0029028060999991912042620004+69100+027217FM-12+014999999V0203201N004119999999N0000001N9-00111+99999098441ADDGF106991999999999999999999
0029028060999991912042706004+69100+027217FM-12+014999999V0203601N004119999999N0000001N9-00061+99999098791ADDGF106991999999999999999999
0029028060999991912042713004+69100+027217FM-12+014999999V0200501N015919999999N0000001N9+00001+99999098911ADDGF106991999999999999999999
0035028060999991912042720004+69100+027217FM-12+014999999V0200501N011819999999N0000001N9-00281+99999099231ADDGF108991999999999999999999MW1721
0029028060999991912042806004+69100+027217FM-12+014999999V0200201N011819999999N0000001N9-00501+99999099751ADDGF106991999999999999999999
0029028060999991912042813004+69100+027217FM-12+014999999V0203601N011819999999N0000001N9-00331+99999099741ADDGF104991999999999999999999
0029028060999991912042820004+69100+027217FM-12+014999999V0203601N006219999999N0000001N9-00611+99999100071ADDGF108991999999999999999999
0029028060999991912042906004+69100+027217FM-12+014999999V0203401N004119999999N0000001N9-00501+99999100021ADDGF104991999999999999999999
0029028060999991912042913004+69100+027217FM-12+014999999V0202701N004119999999N0000001N9-00171+99999099921ADDGF104991999999999999999999
0029028060999991912042920004+69100+027217FM-12+014999999V0202701N002119999999N0000001N9-00441+99999099641ADDGF104991999999999999999999
0029028060999991912043006004+69100+027217FM-12+014999999V0202701N011819999999N0000001N9-00221+99999098951ADDGF108991999999999999999999
0029028060999991912043013004+69100+027217FM-12+014999999V0203601N011819999999N0000001N9+00001+99999098821ADDGF108991999999999999999999
0029028060999991912043020004+69100+027217FM-12+014999999V0203601N009819999999N0000001N9-00391+99999099081ADDGF106991999999999999999999
0035028060999991912050106004+69100+027217FM-12+014999999V0200501N002119999999N0000001N9-00391+99999099071ADDGF108991999999999999999999MW1701
0029028060999991912050113004+69100+027217FM-12+014999999V0203401N009819999999N0000001N9-00331+99999099441ADDGF100991999999999999999999
0029028060999991912050120004+69100+027217FM-12+014999999V0203601N006219999999N0000001N9-00501+99999099751ADDGF106991999999999999999999
0029028060999991912050206004+69100+027217FM-12+014999999V0203401N004119999999N0000001N9-00501+99999099941ADDGF104991999999999999999999
0029028060999991912050213004+69100+027217FM-12+014999999V0203601N004119999999N0000001N9-00281+99999099741ADDGF106991999999999999999999
0029028060999991912050220004+69100+027217FM-12+014999999V0203601N002119999999N0000001N9-00501+99999099621ADDGF100991999999999999999999
0029028060999991912050306004+69100+027217FM-12+014999999V0202501N004119999999N0000001N9-00781+99999099711ADDGF100991999999999999999999
0029028060999991912050313004+69100+027217FM-12+014999999V0201801N002119999999N0000001N9-00061+99999099271ADDGF104991999999999999999999
0029028060999991912050320004+69100+027217FM-12+014999999V0202701N002119999999N0000001N9-00331+99999099221ADDGF100991999999999999999999
0035028060999991912050406004+69100+027217FM-12+014999999V0200501N001019999999N0000001N9-00391+99999098881ADDGF108991999999999999999999MW1701
0029028060999991912050413004+69100+027217FM-12+014999999V0209991C000019999999N0000001N9+00061+99999099061ADDGF104991999999999999999999
0029028060999991912050420004+69100+027217FM-12+014999999V0200901N001019999999N0000001N9-00281+99999099031ADDGF100991999999999999999999
0029028060999991912050506004+69100+027217FM-12+014999999V0201101N002119999999N0000001N9-00891+99999098961ADDGF100991999999999999999999
0029028060999991912050513004+69100+027217FM-12+014999999V0209991C000019999999N0000001N9+00111+99999099031ADDGF100991999999999999999999
0029028060999991912050520004+69100+027217FM-12+014999999V0209991C000019999999N0000001N9-00441+99999099281ADDGF100991999999999999999999
0029028060999991912050606004+69100+027217FM-12+014999999V0202901N008219999999N0000001N9-00941+99999099201ADDGF100991999999999999999999
0029028060999991912050613004+69100+027217FM-12+014999999V0203201N011819999999N0000001N9+00001+99999099261ADDGF100991999999999999999999
0029028060999991912050620004+69100+027217FM-12+014999999V0203601N011819999999N0000001N9-00221+99999099641ADDGF104991999999999999999999
0029028060999991912050706004+69100+027217FM-12+014999999V0202701N008219999999N0000001N9-00561+99999100021ADDGF106991999999999999999999
0035028060999991912050713004+69100+027217FM-12+014999999V0203601N006219999999N0000001N9-00061+99999100301ADDGF108991999999999999999999MW1701
0029028060999991912050720004+69100+027217FM-12+014999999V0203601N001019999999N0000001N9-00501+99999100831ADDGF100991999999999999999999
0029028060999991912050806004+69100+027217FM-12+014999999V0202301N001019999999N0000001N9-00721+99999100961ADDGF100991999999999999999999
0029028060999991912050813004+69100+027217FM-12+014999999V0202301N008219999999N0000001N9-00061+99999100521ADDGF100991999999999999999999
0029028060999991912050820004+69100+027217FM-12+014999999V0201801N011819999999N0000001N9+00001+99999099861ADDGF104991999999999999999999
0029028060999991912050906004+69100+027217FM-12+014999999V0202501N009819999999N0000001N9-00061+99999099201ADDGF104991999999999999999999
0029028060999991912050913004+69100+027217FM-12+014999999V0202501N006219999999N0000001N9+00611+99999099031ADDGF100991999999999999999999
0029028060999991912050920004+69100+027217FM-12+014999999V0209991C000019999999N0000001N9+00561+99999098921ADDGF104991999999999999999999
0029028060999991912051006004+69100+027217FM-12+014999999V0202001N006219999999N0000001N9+00391+99999098751ADDGF104991999999999999999999
0029028060999991912051013004+69100+027217FM-12+014999999V0209991C000019999999N0000001N9+00721+99999098801ADDGF104991999999999999999999
0029028060999991912051020004+69100+027217FM-12+014999999V0203601N004119999999N0000001N9+00221+99999098901ADDGF106991999999999999999999
0029028060999991912051106004+69100+027217FM-12+014999999V0200501N008219999999N0000001N9+00001+99999098911ADDGF108991999999999999999999
0029028060999991912051113004+69100+027217FM-12+014999999V0200501N008219999999N0000001N9+00061+99999098951ADDGF108991999999999999999999
0029028060999991912051120004+69100+027217FM-12+014999999V0200501N004119999999N0000001N9-00221+99999098951ADDGF106991999999999999999999
0035028060999991912051206004+69100+027217FM-12+014999999V0200901N006219999999N0000001N9-00391+99999098791ADDGF108991999999999999999999MW1741
0035028060999991912051213004+69100+027217FM-12+014999999V0200901N008219999999N0000001N9-00171+99999098481ADDGF108991999999999999999999MW1741
0035028060999991912051220004+69100+027217FM-12+014999999V0200501N009819999999N0000001N9-00221+99999098621ADDGF108991999999999999999999MW1741
0035028060999991912051306004+69100+027217FM-12+014999999V0200501N006219999999N0000001N9-00111+99999098781ADDGF108991999999999999999999MW1721
0035028060999991912051313004+69100+027217FM-12+014999999V0200501N011819999999N0000001N9+00001+99999098791ADDGF108991999999999999999999MW1721
0035028060999991912051320004+69100+027217FM-12+014999999V0200501N009819999999N0000001N9-00221+99999098951ADDGF108991999999999999999999MW1721
0035028060999991912051406004+69100+027217FM-12+014999999V0200501N008219999999N0000001N9-00111+99999099261ADDGF108991999999999999999999MW1701
0009028060999991912051413004+69100+027217FM-12+014999999V0200201N006219999999N0000001N9+00221+99999099261ADDMW1701
0035028060999991912051420004+69100+027217FM-12+014999999V0200901N002119999999N0000001N9+00001+99999099621ADDGF108991999999999999999999MW1701
0035028060999991912051506004+69100+027217FM-12+014999999V0200901N004119999999N0000001N9+00001+99999099881ADDGF108991999999999999999999MW1721
0029028060999991912051513004+69100+027217FM-12+014999999V0200701N002119999999N0000001N9+00391+99999100121ADDGF106991999999999999999999
0029028060999991912051520004+69100+027217FM-12+014999999V0200701N004119999999N0000001N9+00061+99999100431ADDGF108991999999999999999999
0029028060999991912051606004+69100+027217FM-12+014999999V0200901N006219999999N0000001N9-00171+99999100741ADDGF108991999999999999999999
0029028060999991912051613004+69100+027217FM-12+014999999V0200901N004119999999N0000001N9+00221+99999100761ADDGF100991999999999999999999
0029028060999991912051620004+69100+027217FM-12+014999999V0200701N008219999999N0000001N9+00001+99999100751ADDGF100991999999999999999999
0029028060999991912051706004+69100+027217FM-12+014999999V0200901N002119999999N0000001N9-00171+99999100791ADDGF100991999999999999999999
0029028060999991912051713004+69100+027217FM-12+014999999V0201101N004119999999N0000001N9+00501+99999100791ADDGF100991999999999999999999
0029028060999991912051720004+69100+027217FM-12+014999999V0200901N004119999999N0000001N9+00221+99999100671ADDGF100991999999999999999999
0029028060999991912051806004+69100+027217FM-12+014999999V0200901N002119999999N0000001N9+00061+99999100641ADDGF100991999999999999999999
0029028060999991912051813004+69100+027217FM-12+014999999V0201101N004119999999N0000001N9+00671+99999099951ADDGF100991999999999999999999
0029028060999991912051820004+69100+027217FM-12+014999999V0200901N004119999999N0000001N9+00221+99999099881ADDGF100991999999999999999999
0029028060999991912051906004+69100+027217FM-12+014999999V0201101N004119999999N0000001N9+00061+99999099631ADDGF100991999999999999999999
0029028060999991912051913004+69100+027217FM-12+014999999V0200901N004119999999N0000001N9+00331+99999099421ADDGF104991999999999999999999
0029028060999991912051920004+69100+027217FM-12+014999999V0200501N002119999999N0000001N9+00221+99999099281ADDGF108991999999999999999999
0035028060999991912052006004+69100+027217FM-12+014999999V0200901N002119999999N0000001N9+00221+99999099071ADDGF108991999999999999999999MW1621
0035028060999991912052013004+69100+027217FM-12+014999999V0200901N001019999999N0000001N9+00331+99999099021ADDGF108991999999999999999999MW1621
0035028060999991912052020004+69100+027217FM-12+014999999V0201801N004119999999N0000001N9+00391+99999099161ADDGF106991999999999999999999MW1621
0046028060999991912052106004+69100+027217FM-12+014999999V0202001N001019999999N0000001N9+00441+99999099351ADDAJ100009199999999GF106991999999999999999999
0029028060999991912052113004+69100+027217FM-12+014999999V0209991C000019999999N0000001N9+00781+99999099401ADDGF104991999999999999999999
0029028060999991912052120004+69100+027217FM-12+014999999V0209991C000019999999N0000001N9+00671+99999099341ADDGF104991999999999999999999
0046028060999991912052206004+69100+027217FM-12+014999999V0203601N002119999999N0000001N9+00721+99999099561ADDAJ100009199999999GF100991999999999999999999
0029028060999991912052213004+69100+027217FM-12+014999999V0203601N002119999999N0000001N9+01001+99999099511ADDGF100991999999999999999999
0029028060999991912052220004+69100+027217FM-12+014999999V0209991C000019999999N0000001N9+00721+99999099421ADDGF100991999999999999999999
0046028060999991912052306004+69100+027217FM-12+014999999V0203601N001019999999N0000001N9+00561+99999099471ADDAJ100009199999999GF100991999999999999999999
0029028060999991912052313004+69100+027217FM-12+014999999V0201801N002119999999N0000001N9+01331+99999099661ADDGF100991999999999999999999
0029028060999991912052320004+69100+027217FM-12+014999999V0200901N001019999999N0000001N9+00831+99999099711ADDGF100991999999999999999999
0046028060999991912052406004+69100+027217FM-12+014999999V0201601N008219999999N0000001N9+00831+99999099761ADDAJ100009199999999GF104991999999999999999999
0009028060999991912052413004+69100+027217FM-12+014999999V0201601N004119999999N0000001N9+00831+99999099861ADDMW1601
0029028060999991912052420004+69100+027217FM-12+014999999V0201801N001019999999N0000001N9+00721+99999099841ADDGF106991999999999999999999
0046028060999991912052506004+69100+027217FM-12+014999999V0209991C000019999999N0000001N9+00611+99999100161ADDAJ100009199999999GF108991999999999999999999
0009028060999991912052513004+69100+027217FM-12+014999999V0209991C000019999999N0000001N9+00721+99999100191ADDMW1601
0029028060999991912052520004+69100+027217FM-12+014999999V0203601N001019999999N0000001N9+00501+99999100201ADDGF108991999999999999999999
0046028060999991912052606004+69100+027217FM-12+014999999V0200501N006219999999N0000001N9+00501+99999100351ADDAJ100009199999999GF108991999999999999999999
0029028060999991912052613004+69100+027217FM-12+014999999V0200901N002119999999N0000001N9+00781+99999100341ADDGF106991999999999999999999
0029028060999991912052620004+69100+027217FM-12+014999999V0200901N002119999999N0000001N9+00561+99999100301ADDGF106991999999999999999999
0046028060999991912052706004+69100+027217FM-12+014999999V0201401N002119999999N0000001N9+00441+99999100181ADDAJ100009199999999GF106991999999999999999999
0029028060999991912052713004+69100+027217FM-12+014999999V0201801N001019999999N0000001N9+01001+99999099921ADDGF104991999999999999999999
0029028060999991912052720004+69100+027217FM-12+014999999V0200901N001019999999N0000001N9+00831+99999099701ADDGF104991999999999999999999
0046028060999991912052806004+69100+027217FM-12+014999999V0200201N008219999999N0000001N9+00671+99999099661ADDAJ100009199999999GF104991999999999999999999
0029028060999991912052813004+69100+027217FM-12+014999999V0200501N008219999999N0000001N9+00891+99999099521ADDGF108991999999999999999999
0029028060999991912052820004+69100+027217FM-12+014999999V0200701N006219999999N0000001N9+00391+99999099481ADDGF108991999999999999999999
0046028060999991912052906004+69100+027217FM-12+014999999V0200701N006219999999N0000001N9+00281+99999099281ADDAJ100009199999999GF108991999999999999999999
0029028060999991912052913004+69100+027217FM-12+014999999V0200701N004119999999N0000001N9+00671+99999099201ADDGF108991999999999999999999
0029028060999991912052920004+69100+027217FM-12+014999999V0200501N006219999999N0000001N9+00331+99999099161ADDGF108991999999999999999999
0046028060999991912053006004+69100+027217FM-12+014999999V0200701N008219999999N0000001N9+00331+99999099041ADDAJ100009199999999GF108991999999999999999999
0035028060999991912053013004+69100+027217FM-12+014999999V0203601N008219999999N0000001N9+00221+99999099311ADDGF108991999999999999999999MW1641
0035028060999991912053020004+69100+027217FM-12+014999999V0203601N006219999999N0000001N9+00221+99999099391ADDGF108991999999999999999999MW1641
0035028060999991912053106004+69100+027217FM-12+014999999V0203601N009819999999N0000001N9+00061+99999099221ADDGF108991999999999999999999MW1721
0035028060999991912053113004+69100+027217FM-12+014999999V0200501N006219999999N0000001N9+00111+99999099661ADDGF108991999999999999999999MW1721
0029028060999991912053120004+69100+027217FM-12+014999999V0200501N001019999999N0000001N9+00171+99999099701ADDGF106991999999999999999999
0046028060999991912060106004+69100+027217FM-12+014999999V0200501N008219999999N0000001N9+00221+99999099541ADDAJ100009199999999GF108991999999999999999999
0029028060999991912060113004+69100+027217FM-12+014999999V0200701N008219999999N0000001N9+00501+99999099311ADDGF106991999999999999999999
0029028060999991912060120004+69100+027217FM-12+014999999V0200501N006219999999N0000001N9+00221+99999099141ADDGF106991999999999999999999
0046028060999991912060206004+69100+027217FM-12+014999999V0203201N004119999999N0000001N9+00441+99999098751ADDAJ100009199999999GF106991999999999999999999
0029028060999991912060213004+69100+027217FM-12+014999999V0202701N009819999999N0000001N9+00941+99999098541ADDGF108991999999999999999999
0029028060999991912060220004+69100+027217FM-12+014999999V0209991C000019999999N0000001N9+00391+99999098511ADDGF106991999999999999999999
0046028060999991912060306004+69100+027217FM-12+014999999V0202701N004119999999N0000001N9+00331+99999098591ADDAJ100009199999999GF106991999999999999999999
0029028060999991912060313004+69100+027217FM-12+014999999V0203601N009819999999N0000001N9+00611+99999098841ADDGF104991999999999999999999
0035028060999991912060320004+69100+027217FM-12+014999999V0202901N006219999999N0000001N9+00331+99999098841ADDGF108991999999999999999999MW1701
0046028060999991912060406004+69100+027217FM-12+014999999V0203601N011819999999N0000001N9+00281+99999098911ADDAJ100009199999999GF108991999999999999999999
0029028060999991912060413004+69100+027217FM-12+014999999V0203601N009819999999N0000001N9+00501+99999099231ADDGF108991999999999999999999
0035028060999991912060420004+69100+027217FM-12+014999999V0203601N006219999999N0000001N9+00281+99999099391ADDGF108991999999999999999999MW1621
0052028060999991912060506004+69100+027217FM-12+014999999V0203601N008219999999N0000001N9+00221+99999099521ADDAJ100009199999999GF108991999999999999999999MW1621
0029028060999991912060513004+69100+027217FM-12+014999999V0203601N006219999999N0000001N9+00721+99999099871ADDGF104991999999999999999999
0029028060999991912060520004+69100+027217FM-12+014999999V0203201N002119999999N0000001N9+00611+99999100081ADDGF100991999999999999999999
0046028060999991912060606004+69100+027217FM-12+014999999V0202701N008219999999N0000001N9+00721+99999100061ADDAJ100009199999999GF100991999999999999999999
0029028060999991912060613004+69100+027217FM-12+014999999V0203401N008219999999N0000001N9+01671+99999099741ADDGF100991999999999999999999
0029028060999991912060620004+69100+027217FM-12+014999999V0200701N004119999999N0000001N9+01061+99999099941ADDGF104991999999999999999999
0046028060999991912060706004+69100+027217FM-12+014999999V0209991C000019999999N0000001N9+00941+99999099951ADDAJ100009199999999GF100991999999999999999999
0029028060999991912060713004+69100+027217FM-12+014999999V0209991C000019999999N0000001N9+01721+99999099821ADDGF106991999999999999999999
0029028060999991912060720004+69100+027217FM-12+014999999V0209991C000019999999N0000001N9+01561+99999099721ADDGF100991999999999999999999
0046028060999991912060806004+69100+027217FM-12+014999999V0200501N006219999999N0000001N9+00781+99999099911ADDAJ100009199999999GF100991999999999999999999
0029028060999991912060813004+69100+027217FM-12+014999999V0200901N006219999999N0000001N9+01441+99999099671ADDGF100991999999999999999999
0029028060999991912060820004+69100+027217FM-12+014999999V0209991C000019999999N0000001N9+01281+99999099541ADDGF104991999999999999999999
0046028060999991912060906004+69100+027217FM-12+014999999V0200701N004119999999N0000001N9+00831+99999099121ADDAJ100009199999999GF106991999999999999999999
0029028060999991912060913004+69100+027217FM-12+014999999V0200901N004119999999N0000001N9+01561+99999098661ADDGF106991999999999999999999
0029028060999991912060920004+69100+027217FM-12+014999999V0200501N009819999999N0000001N9+01001+99999098591ADDGF108991999999999999999999
0046028060999991912061006004+69100+027217FM-12+014999999V0200501N008219999999N0000001N9+00501+99999098681ADDAJ100009199999999GF108991999999999999999999
0029028060999991912061013004+69100+027217FM-12+014999999V0200501N008219999999N0000001N9+01001+99999098701ADDGF104991999999999999999999
0029028060999991912061020004+69100+027217FM-12+014999999V0200901N004119999999N0000001N9+00501+99999098861ADDGF106991999999999999999999
0052028060999991912061106004+69100+027217FM-12+014999999V0200901N002119999999N0000001N9+00221+99999098881ADDAJ100009199999999GF108991999999999999999999MW1621
0029028060999991912061113004+69100+027217FM-12+014999999V0203201N004119999999N0000001N9+00721+99999099141ADDGF106991999999999999999999
0029028060999991912061120004+69100+027217FM-12+014999999V0200501N008219999999N0000001N9+00561+99999099261ADDGF108991999999999999999999
0046028060999991912061206004+69100+027217FM-12+014999999V0200701N002119999999N0000001N9+00501+99999099301ADDAJ100009199999999GF106991999999999999999999
0029028060999991912061213004+69100+027217FM-12+014999999V0200901N002119999999N0000001N9+00781+99999099001ADDGF104991999999999999999999
0029028060999991912061220004+69100+027217FM-12+014999999V0201601N004119999999N0000001N9+00831+99999098781ADDGF108991999999999999999999
0052028060999991912061306004+69100+027217FM-12+014999999V0202301N004119999999N0000001N9+00721+99999098221ADDAJ100009199999999GF108991999999999999999999MW1601
0035028060999991912061313004+69100+027217FM-12+014999999V0202301N008219999999N0000001N9+00831+99999098161ADDGF108991999999999999999999MW1901
0029028060999991912061320004+69100+027217FM-12+014999999V0203601N009819999999N0000001N9+00561+99999098381ADDGF106991999999999999999999
0046028060999991912061406004+69100+027217FM-12+014999999V0203401N002119999999N0000001N9+00331+99999099061ADDAJ100009199999999GF108991999999999999999999
0029028060999991912061413004+69100+027217FM-12+014999999V0200201N006219999999N0000001N9+00671+99999099341ADDGF106991999999999999999999
0029028060999991912061420004+69100+027217FM-12+014999999V0200201N004119999999N0000001N9+00501+99999099481ADDGF104991999999999999999999
0046028060999991912061506004+69100+027217FM-12+014999999V0200901N004119999999N0000001N9+00501+99999099821ADDAJ100009199999999GF104991999999999999999999
0029028060999991912061513004+69100+027217FM-12+014999999V0200901N008219999999N0000001N9+01001+99999099671ADDGF100991999999999999999999
0029028060999991912061520004+69100+027217FM-12+014999999V0200701N011819999999N0000001N9+00721+99999099231ADDGF104991999999999999999999
0052028060999991912061606004+69100+027217FM-12+014999999V0200901N011819999999N0000001N9+00111+99999098441ADDAJ100009199999999GF108991999999999999999999MW1901
0035028060999991912061613004+69100+027217FM-12+014999999V0200701N008219999999N0000001N9+00111+99999098111ADDGF108991999999999999999999MW1741
0035028060999991912061620004+69100+027217FM-12+014999999V0200901N004119999999N0000001N9+00061+99999097981ADDGF108991999999999999999999MW1741
0035028060999991912061706004+69100+027217FM-12+014999999V0200901N004119999999N0000001N9+00061+99999097921ADDGF108991999999999999999999MW1721
0035028060999991912061713004+69100+027217FM-12+014999999V0209991C000019999999N0000001N9+00171+99999098231ADDGF108991999999999999999999MW1721
0029028060999991912061720004+69100+027217FM-12+014999999V0202701N004119999999N0000001N9+00281+99999098591ADDGF108991999999999999999999
0029028060999991912061806004+69100+027217FM-12+014999999V0203201N001019999999N0000001N9+00441+99999098781ADDGF100991999999999999999999
0029028060999991912061813004+69100+027217FM-12+014999999V0209991C000019999999N0000001N9+00781+99999098801ADDGF100991999999999999999999
0029028060999991912061820004+69100+027217FM-12+014999999V0202701N002119999999N0000001N9+00611+99999099061ADDGF104991999999999999999999
0046028060999991912061906004+69100+027217FM-12+014999999V0202901N002119999999N0000001N9+00831+99999099401ADDAJ100009199999999GF100991999999999999999999
0029028060999991912061913004+69100+027217FM-12+014999999V0200901N004119999999N0000001N9+01221+99999099661ADDGF100991999999999999999999
0029028060999991912061920004+69100+027217FM-12+014999999V0200901N004119999999N0000001N9+01061+99999099841ADDGF100991999999999999999999
0052028060999991912062006004+69100+027217FM-12+014999999V0200701N008219999999N0000001N9+00501+99999099661ADDAJ100009199999999GF108991999999999999999999MW1641
0029028060999991912062013004+69100+027217FM-12+014999999V0200701N008219999999N0000001N9+00671+99999099461ADDGF108991999999999999999999
0035028060999991912062020004+69100+027217FM-12+014999999V0200901N008219999999N0000001N9+00781+99999099421ADDGF108991999999999999999999MW1641
0046028060999991912062106004+69100+027217FM-12+014999999V0202701N002119999999N0000001N9+00831+99999099671ADDAJ100009199999999GF104991999999999999999999
0029028060999991912062113004+69100+027217FM-12+014999999V0202001N002119999999N0000001N9+02061+99999099631ADDGF100991999999999999999999
0029028060999991912062120004+69100+027217FM-12+014999999V0200901N002119999999N0000001N9+01781+99999099781ADDGF100991999999999999999999
0046028060999991912062206004+69100+027217FM-12+014999999V0200901N004119999999N0000001N9+01781+99999099991ADDAJ100009199999999GF100991999999999999999999
0029028060999991912062213004+69100+027217FM-12+014999999V0200701N006219999999N0000001N9+02061+99999100121ADDGF100991999999999999999999
0029028060999991912062220004+69100+027217FM-12+014999999V0209991C000019999999N0000001N9+01721+99999100261ADDGF100991999999999999999999
0046028060999991912062306004+69100+027217FM-12+014999999V0200901N004119999999N0000001N9+01331+99999100481ADDAJ100009199999999GF100991999999999999999999
0029028060999991912062313004+69100+027217FM-12+014999999V0201401N004119999999N0000001N9+02001+99999100201ADDGF100991999999999999999999
0035028060999991912062320004+69100+027217FM-12+014999999V0200501N004119999999N0000001N9+01831+99999100271ADDGF104991999999999999999999MW1601
0046028060999991912062406004+69100+027217FM-12+014999999V0200501N004119999999N0000001N9+01611+99999100431ADDAJ100009199999999GF100991999999999999999999
0029028060999991912062413004+69100+027217FM-12+014999999V0200901N009819999999N0000001N9+02391+99999100311ADDGF100991999999999999999999
0029028060999991912062420004+69100+027217FM-12+014999999V0200501N006219999999N0000001N9+01831+99999100481ADDGF100991999999999999999999
0046028060999991912062506004+69100+027217FM-12+014999999V0200901N006219999999N0000001N9+01611+99999100391ADDAJ100009199999999GF100991999999999999999999
0029028060999991912062513004+69100+027217FM-12+014999999V0200701N006219999999N0000001N9+02171+99999100221ADDGF100991999999999999999999
0029028060999991912062520004+69100+027217FM-12+014999999V0200701N008219999999N0000001N9+01781+99999100041ADDGF100991999999999999999999
0046028060999991912062606004+69100+027217FM-12+014999999V0200501N004119999999N0000001N9+01671+99999100151ADDAJ100009199999999GF104991999999999999999999
0029028060999991912062613004+69100+027217FM-12+014999999V0200901N004119999999N0000001N9+02111+99999100111ADDGF104991999999999999999999
0029028060999991912062620004+69100+027217FM-12+014999999V0200901N006219999999N0000001N9+01831+99999100071ADDGF104991999999999999999999
0046028060999991912062706004+69100+027217FM-12+014999999V0209991C000019999999N0000001N9+01441+99999100441ADDAJ100009199999999GF104991999999999999999999
0029028060999991912062713004+69100+027217FM-12+014999999V0201601N006219999999N0000001N9+02171+99999100061ADDGF100991999999999999999999
0029028060999991912062720004+69100+027217FM-12+014999999V0201401N004119999999N0000001N9+01501+99999100201ADDGF100991999999999999999999
0046028060999991912062806004+69100+027217FM-12+014999999V0203601N008219999999N0000001N9+01501+99999099781ADDAJ100009199999999GF100991999999999999999999
0035028060999991912062813004+69100+027217FM-12+014999999V0201601N004119999999N0000001N9+02001+99999099781ADDGF100991999999999999999999MW1171
0035028060999991912062820004+69100+027217FM-12+014999999V0200901N011819999999N0000001N9+00831+99999099581ADDGF108991999999999999999999MW1621
0046028060999991912062906004+69100+027217FM-12+014999999V0203601N009819999999N0000001N9+00441+99999099671ADDAJ100009199999999GF108991999999999999999999
0029028060999991912062913004+69100+027217FM-12+014999999V0200201N004119999999N0000001N9+00671+99999099701ADDGF108991999999999999999999
0029028060999991912062920004+69100+027217FM-12+014999999V0203601N006219999999N0000001N9+00441+99999099961ADDGF108991999999999999999999
0046028060999991912063006004+69100+027217FM-12+014999999V0203601N011819999999N0000001N9+00331+99999099751ADDAJ100009199999999GF108991999999999999999999
0000028060999991912063013004+69100+027217FM-12+014999999V0203601N008219999999N0000001N9+00831+99999099801
0029028060999991912063020004+69100+027217FM-12+014999999V0203601N006219999999N0000001N9+00611+99999099821ADDGF108991999999999999999999
0046028060999991912070106004+69100+027217FM-12+014999999V0203601N011819999999N0000001N9+00671+99999099711ADDAJ100009199999999GF108991999999999999999999
0029028060999991912070113004+69100+027217FM-12+014999999V0203601N006219999999N0000001N9+00671+99999099641ADDGF108991999999999999999999
0029028060999991912070120004+69100+027217FM-12+014999999V0203601N011819999999N0000001N9+00501+99999099911ADDGF108991999999999999999999
0046028060999991912070206004+69100+027217FM-12+014999999V0203601N008219999999N0000001N9+00331+99999100161ADDAJ100009199999999GF108991999999999999999999
0029028060999991912070213004+69100+027217FM-12+014999999V0203601N011819999999N0000001N9+00831+99999100231ADDGF108991999999999999999999
0029028060999991912070220004+69100+027217FM-12+014999999V0200901N002119999999N0000001N9+00781+99999100361ADDGF106991999999999999999999
0046028060999991912070306004+69100+027217FM-12+014999999V0202701N004119999999N0000001N9+00671+99999100221ADDAJ100009199999999GF105991999999999999999999
0029028060999991912070313004+69100+027217FM-12+014999999V0202001N002119999999N0000001N9+01501+99999099751ADDGF104991999999999999999999
0029028060999991912070320004+69100+027217FM-12+014999999V0202001N002119999999N0000001N9+01221+99999099671ADDGF104991999999999999999999
0046028060999991912070406004+69100+027217FM-12+014999999V0202301N008219999999N0000001N9+01221+99999099261ADDAJ100009199999999GF106991999999999999999999
0029028060999991912070413004+69100+027217FM-12+014999999V0202701N008219999999N0000001N9+02001+99999098981ADDGF104991999999999999999999
0029028060999991912070420004+69100+027217FM-12+014999999V0202501N008219999999N0000001N9+01671+99999098461ADDGF106991999999999999999999
0046028060999991912070506004+69100+027217FM-12+014999999V0203401N006219999999N0000001N9+01221+99999097911ADDAJ100009199999999GF104991999999999999999999
0009028060999991912070513004+69100+027217FM-12+014999999V0203201N027819999999N0000001N9+00941+99999098001ADDMW1621
0029028060999991912070520004+69100+027217FM-12+014999999V0203201N013919999999N0000001N9+00721+99999098281ADDGF108991999999999999999999
0046028060999991912070606004+69100+027217FM-12+014999999V0203401N011819999999N0000001N9+00721+99999098681ADDAJ100009199999999GF108991999999999999999999
0029028060999991912070613004+69100+027217FM-12+014999999V0203401N015919999999N0000001N9+00941+99999099001ADDGF106991999999999999999999
0029028060999991912070620004+69100+027217FM-12+014999999V0203401N009819999999N0000001N9+00611+99999099041ADDGF104991999999999999999999
0046028060999991912070706004+69100+027217FM-12+014999999V0203601N015919999999N0000001N9+00721+99999099161ADDAJ100009199999999GF106991999999999999999999
0029028060999991912070713004+69100+027217FM-12+014999999V0203201N008219999999N0000001N9+01221+99999099111ADDGF100991999999999999999999
0029028060999991912070720004+69100+027217FM-12+014999999V0203601N004119999999N0000001N9+00941+99999099391ADDGF106991999999999999999999
0046028060999991912070806004+69100+027217FM-12+014999999V0203601N001019999999N0000001N9+01111+99999099761ADDAJ100009199999999GF104991999999999999999999
0000028060999991912070813004+69100+027217FM-12+014999999V0201401N001019999999N0000001N9+01501+99999099711
0029028060999991912070820004+69100+027217FM-12+014999999V0201401N004119999999N0000001N9+01331+99999099631ADDGF100991999999999999999999
0046028060999991912070906004+69100+027217FM-12+014999999V0201801N004119999999N0000001N9+01671+99999099361ADDAJ100009199999999GF108991999999999999999999
0029028060999991912070913004+69100+027217FM-12+014999999V0202301N008219999999N0000001N9+02111+99999099401ADDGF100991999999999999999999
0029028060999991912070920004+69100+027217FM-12+014999999V0202001N004119999999N0000001N9+01941+99999099271ADDGF108991999999999999999999
0046028060999991912071006004+69100+027217FM-12+014999999V0203601N004119999999N0000001N9+01501+99999099591ADDAJ100009199999999GF108991999999999999999999
0029028060999991912071013004+69100+027217FM-12+014999999V0200201N006219999999N0000001N9+01221+99999099911ADDGF108991999999999999999999
0029028060999991912071020004+69100+027217FM-12+014999999V0200201N004119999999N0000001N9+01111+99999100031ADDGF108991999999999999999999
0046028060999991912071106004+69100+027217FM-12+014999999V0200501N006219999999N0000001N9+00831+99999100481ADDAJ100009199999999GF108991999999999999999999
0029028060999991912071113004+69100+027217FM-12+014999999V0203601N006219999999N0000001N9+01331+99999100481ADDGF100991999999999999999999
0029028060999991912071120004+69100+027217FM-12+014999999V0209991C000019999999N0000001N9+01111+99999100481ADDGF100991999999999999999999
0046028060999991912071206004+69100+027217FM-12+014999999V0202301N004119999999N0000001N9+01171+99999100561ADDAJ100009199999999GF100991999999999999999999
0029028060999991912071213004+69100+027217FM-12+014999999V0202301N004119999999N0000001N9+02221+99999100631ADDGF100991999999999999999999
0029028060999991912071220004+69100+027217FM-12+014999999V0209991C000019999999N0000001N9+01831+99999100671ADDGF100991999999999999999999
0046028060999991912071306004+69100+027217FM-12+014999999V0202001N002119999999N0000001N9+01721+99999100761ADDAJ100009199999999GF100991999999999999999999
0029028060999991912071313004+69100+027217FM-12+014999999V0202701N009819999999N0000001N9+02671+99999100441ADDGF100991999999999999999999
0029028060999991912071320004+69100+027217FM-12+014999999V0201801N006219999999N0000001N9+02221+99999100151ADDGF100991999999999999999999
0046028060999991912071406004+69100+027217FM-12+014999999V0202501N004119999999N0000001N9+01781+99999100201ADDAJ100009199999999GF106991999999999999999999
0029028060999991912071413004+69100+027217FM-12+014999999V0202301N008219999999N0000001N9+01941+99999100401ADDGF108991999999999999999999
0029028060999991912071420004+69100+027217FM-12+014999999V0209991C000019999999N0000001N9+01391+99999100631ADDGF106991999999999999999999
0052028060999991912071506004+69100+027217FM-12+014999999V0201101N001019999999N0000001N9+01111+99999100381ADDAJ100009199999999GF108991999999999999999999MW1621
0029028060999991912071513004+69100+027217FM-12+014999999V0202301N009819999999N0000001N9+02501+99999099901ADDGF106991999999999999999999
0035028060999991912071520004+69100+027217FM-12+014999999V0202301N006219999999N0000001N9+01501+99999099601ADDGF108991999999999999999999MW1621
0046028060999991912071606004+69100+027217FM-12+014999999V0203601N008219999999N0000001N9+01391+99999099221ADDAJ100009199999999GF106991999999999999999999
0029028060999991912071613004+69100+027217FM-12+014999999V0202301N009819999999N0000001N9+01671+99999099121ADDGF100991999999999999999999
0029028060999991912071620004+69100+027217FM-12+014999999V0202701N006219999999N0000001N9+01281+99999098881ADDGF104991999999999999999999
0046028060999991912071706004+69100+027217FM-12+014999999V0203601N008219999999N0000001N9+01061+99999098941ADDAJ100009199999999GF106991999999999999999999
0029028060999991912071713004+69100+027217FM-12+014999999V0202701N004119999999N0000001N9+01061+99999099321ADDGF106991999999999999999999
0029028060999991912071720004+69100+027217FM-12+014999999V0203601N008219999999N0000001N9+01061+99999099741ADDGF108991999999999999999999
0046028060999991912071806004+69100+027217FM-12+014999999V0203601N002119999999N0000001N9+00831+99999099951ADDAJ100009199999999GF104991999999999999999999
0029028060999991912071813004+69100+027217FM-12+014999999V0202001N004119999999N0000001N9+01331+99999099751ADDGF106991999999999999999999
0029028060999991912071820004+69100+027217FM-12+014999999V0202001N008219999999N0000001N9+01331+99999099561ADDGF106991999999999999999999
0046028060999991912071906004+69100+027217FM-12+014999999V0202701N006219999999N0000001N9+01111+99999099201ADDAJ100009199999999GF108991999999999999999999
0029028060999991912071913004+69100+027217FM-12+014999999V0203401N013919999999N0000001N9+01281+99999099241ADDGF106991999999999999999999
0029028060999991912071920004+69100+027217FM-12+014999999V0209991C000019999999N0000001N9+01001+99999099391ADDGF104991999999999999999999
0046028060999991912072006004+69100+027217FM-12+014999999V0203401N009819999999N0000001N9+00891+99999099521ADDAJ100009199999999GF108991999999999999999999
0029028060999991912072013004+69100+027217FM-12+014999999V0203401N008219999999N0000001N9+01001+99999099791ADDGF108991999999999999999999
0029028060999991912072020004+69100+027217FM-12+014999999V0209991C000019999999N0000001N9+00831+99999099791ADDGF108991999999999999999999
0046028060999991912072106004+69100+027217FM-12+014999999V0203401N002119999999N0000001N9+00891+99999099961ADDAJ100009199999999GF108991999999999999999999
0029028060999991912072113004+69100+027217FM-12+014999999V0203401N004119999999N0000001N9+01171+99999099991ADDGF108991999999999999999999
0029028060999991912072120004+69100+027217FM-12+014999999V0209991C000019999999N0000001N9+00831+99999100071ADDGF108991999999999999999999
0046028060999991912072206004+69100+027217FM-12+014999999V0203401N004119999999N0000001N9+00611+99999100201ADDAJ100009199999999GF108991999999999999999999
0029028060999991912072213004+69100+027217FM-12+014999999V0203601N006219999999N0000001N9+01061+99999100261ADDGF108991999999999999999999
0029028060999991912072220004+69100+027217FM-12+014999999V0200501N002119999999N0000001N9+00941+99999100501ADDGF108991999999999999999999
0046028060999991912072306004+69100+027217FM-12+014999999V0202301N004119999999N0000001N9+00781+99999100511ADDAJ100009199999999GF108991999999999999999999
0029028060999991912072313004+69100+027217FM-12+014999999V0202001N008219999999N0000001N9+01671+99999099741ADDGF106991999999999999999999
0029028060999991912072320004+69100+027217FM-12+014999999V0209991C000019999999N0000001N9+01391+99999099401ADDGF106991999999999999999999
0046028060999991912072406004+69100+027217FM-12+014999999V0202701N008219999999N0000001N9+01171+99999099121ADDAJ100009199999999GF106991999999999999999999
0029028060999991912072413004+69100+027217FM-12+014999999V0203401N013919999999N0000001N9+01331+99999099351ADDGF105991999999999999999999
0029028060999991912072420004+69100+027217FM-12+014999999V0203601N004119999999N0000001N9+00781+99999099521ADDGF104991999999999999999999
0046028060999991912072506004+69100+027217FM-12+014999999V0203601N002119999999N0000001N9+00831+99999099911ADDAJ100009199999999GF106991999999999999999999
0029028060999991912072513004+69100+027217FM-12+014999999V0203601N002119999999N0000001N9+01391+99999099911ADDGF106991999999999999999999
0029028060999991912072520004+69100+027217FM-12+014999999V0209991C000019999999N0000001N9+01061+99999099751ADDGF104991999999999999999999
0046028060999991912072606004+69100+027217FM-12+014999999V0209991C000019999999N0000001N9+00891+99999099501ADDAJ100009199999999GF100991999999999999999999
0029028060999991912072613004+69100+027217FM-12+014999999V0202701N002119999999N0000001N9+01441+99999099501ADDGF108991999999999999999999
0029028060999991912072620004+69100+027217FM-12+014999999V0203401N004119999999N0000001N9+00831+99999099581ADDGF108991999999999999999999
0046028060999991912072706004+69100+027217FM-12+014999999V0202701N006219999999N0000001N9+00781+99999099431ADDAJ100009199999999GF108991999999999999999999
0029028060999991912072713004+69100+027217FM-12+014999999V0202701N002119999999N0000001N9+01331+99999099301ADDGF108991999999999999999999
0029028060999991912072720004+69100+027217FM-12+014999999V0200901N004119999999N0000001N9+00941+99999099021ADDGF108991999999999999999999
0046028060999991912072806004+69100+027217FM-12+014999999V0200901N004119999999N0000001N9+00891+99999098911ADDAJ100009199999999GF108991999999999999999999
0035028060999991912072813004+69100+027217FM-12+014999999V0200901N002119999999N0000001N9+01111+99999098741ADDGF108991999999999999999999MW1601
0029028060999991912072820004+69100+027217FM-12+014999999V0209991C000019999999N0000001N9+01001+99999098621ADDGF108991999999999999999999
0046028060999991912072906004+69100+027217FM-12+014999999V0209991C000019999999N0000001N9+01111+99999098421ADDAJ100009199999999GF108991999999999999999999
0029028060999991912072913004+69100+027217FM-12+014999999V0201801N004119999999N0000001N9+01671+99999098281ADDGF106991999999999999999999
0035028060999991912072920004+69100+027217FM-12+014999999V0201801N004119999999N0000001N9+01561+99999098041ADDGF108991999999999999999999MW1171
0046028060999991912073006004+69100+027217FM-12+014999999V0202001N009819999999N0000001N9+01281+99999097881ADDAJ100009199999999GF108991999999999999999999
0029028060999991912073013004+69100+027217FM-12+014999999V0201801N006219999999N0000001N9+01891+99999098001ADDGF104991999999999999999999
0029028060999991912073020004+69100+027217FM-12+014999999V0203601N008219999999N0000001N9+01441+99999098261ADDGF106991999999999999999999
0046028060999991912073106004+69100+027217FM-12+014999999V0201801N006219999999N0000001N9+01391+99999098311ADDAJ100009199999999GF108991999999999999999999
0029028060999991912073113004+69100+027217FM-12+014999999V0201801N009819999999N0000001N9+02001+99999098321ADDGF104991999999999999999999
0029028060999991912073120004+69100+027217FM-12+014999999V0203401N002119999999N0000001N9+01501+99999098581ADDGF108991999999999999999999
0046028060999991912080106004+69100+027217FM-12+014999999V0201801N006219999999N0000001N9+01501+99999098641ADDAJ100009199999999GF106991999999999999999999
0029028060999991912080113004+69100+027217FM-12+014999999V0201801N009819999999N0000001N9+01891+99999098781ADDGF104991999999999999999999
0029028060999991912080120004+69100+027217FM-12+014999999V0201801N008219999999N0000001N9+01501+99999098911ADDGF108991999999999999999999
0046028060999991912080206004+69100+027217FM-12+014999999V0201801N002119999999N0000001N9+01441+99999099351ADDAJ100009199999999GF100991999999999999999999
0029028060999991912080213004+69100+027217FM-12+014999999V0202301N006219999999N0000001N9+02111+99999099281ADDGF100991999999999999999999
0035028060999991912080220004+69100+027217FM-12+014999999V0201801N004119999999N0000001N9+01501+99999099431ADDGF108991999999999999999999MW1641
0052028060999991912080306004+69100+027217FM-12+014999999V0202301N006219999999N0000001N9+01721+99999099581ADDAJ100009199999999GF108991999999999999999999MW1641
0029028060999991912080313004+69100+027217FM-12+014999999V0202301N004119999999N0000001N9+02171+99999099911ADDGF100991999999999999999999
0029028060999991912080320004+69100+027217FM-12+014999999V0200501N006219999999N0000001N9+01611+99999100321ADDGF106991999999999999999999
0052028060999991912080406004+69100+027217FM-12+014999999V0200501N008219999999N0000001N9+01171+99999099951ADDAJ100009199999999GF108991999999999999999999MW1621
0035028060999991912080413004+69100+027217FM-12+014999999V0200901N001019999999N0000001N9+02001+99999099421ADDGF108991999999999999999999MW1171
0029028060999991912080420004+69100+027217FM-12+014999999V0202701N008219999999N0000001N9+01391+99999099661ADDGF106991999999999999999999
0046028060999991912080506004+69100+027217FM-12+014999999V0200201N008219999999N0000001N9+00671+99999099901ADDAJ100009199999999GF108991999999999999999999
0029028060999991912080513004+69100+027217FM-12+014999999V0200701N008219999999N0000001N9+00891+99999100751ADDGF108991999999999999999999
0029028060999991912080520004+69100+027217FM-12+014999999V0200901N008219999999N0000001N9+00721+99999100701ADDGF108991999999999999999999
0046028060999991912080606004+69100+027217FM-12+014999999V0200901N004119999999N0000001N9+00721+99999100431ADDAJ100009199999999GF108991999999999999999999
0029028060999991912080613004+69100+027217FM-12+014999999V0200901N002119999999N0000001N9+01001+99999100151ADDGF108991999999999999999999
0029028060999991912080620004+69100+027217FM-12+014999999V0209991C000019999999N0000001N9+01281+99999100061ADDGF108991999999999999999999
0046028060999991912080706004+69100+027217FM-12+014999999V0200901N002119999999N0000001N9+01281+99999099801ADDAJ100009199999999GF108991999999999999999999
0029028060999991912080713004+69100+027217FM-12+014999999V0202301N004119999999N0000001N9+01831+99999099671ADDGF100991999999999999999999
0029028060999991912080720004+69100+027217FM-12+014999999V0209991C000019999999N0000001N9+01781+99999099511ADDGF104991999999999999999999
0052028060999991912080806004+69100+027217FM-12+014999999V0202301N004119999999N0000001N9+01721+99999099551ADDAJ100009199999999GF108991999999999999999999MW1621
0035028060999991912080813004+69100+027217FM-12+014999999V0209991C000019999999N0000001N9+02061+99999099701ADDGF104991999999999999999999MW1171
0029028060999991912080820004+69100+027217FM-12+014999999V0209991C000019999999N0000001N9+01781+99999099791ADDGF104991999999999999999999
0046028060999991912080906004+69100+027217FM-12+014999999V0202301N001019999999N0000001N9+01781+99999099871ADDAJ100009199999999GF100991999999999999999999
0029028060999991912080913004+69100+027217FM-12+014999999V0202701N006219999999N0000001N9+02281+99999099921ADDGF104991999999999999999999
0029028060999991912080920004+69100+027217FM-12+014999999V0202501N001019999999N0000001N9+01831+99999099901ADDGF106991999999999999999999
0046028060999991912081006004+69100+027217FM-12+014999999V0202501N004119999999N0000001N9+01781+99999099941ADDAJ100009199999999GF108991999999999999999999
0029028060999991912081013004+69100+027217FM-12+014999999V0202001N006219999999N0000001N9+02781+99999099881ADDGF100991999999999999999999
0029028060999991912081020004+69100+027217FM-12+014999999V0201801N001019999999N0000001N9+02281+99999099961ADDGF104991999999999999999999
0046028060999991912081106004+69100+027217FM-12+014999999V0202701N006219999999N0000001N9+01781+99999100141ADDAJ100009199999999GF106991999999999999999999
0029028060999991912081113004+69100+027217FM-12+014999999V0200901N008219999999N0000001N9+02441+99999099911ADDGF100991999999999999999999
0029028060999991912081120004+69100+027217FM-12+014999999V0200901N001019999999N0000001N9+01941+99999099911ADDGF100991999999999999999999
0046028060999991912081206004+69100+027217FM-12+014999999V0200501N004119999999N0000001N9+01721+99999099901ADDAJ100009199999999GF100991999999999999999999
0029028060999991912081213004+69100+027217FM-12+014999999V0200901N006219999999N0000001N9+02221+99999099881ADDGF100991999999999999999999
0029028060999991912081220004+69100+027217FM-12+014999999V0200701N004119999999N0000001N9+01611+99999099901ADDGF106991999999999999999999
0046028060999991912081306004+69100+027217FM-12+014999999V0200701N008219999999N0000001N9+01111+99999100081ADDAJ100009199999999GF108991999999999999999999
0029028060999991912081313004+69100+027217FM-12+014999999V0201101N006219999999N0000001N9+01561+99999100021ADDGF100991999999999999999999
0029028060999991912081320004+69100+027217FM-12+014999999V0200901N001019999999N0000001N9+01061+99999999999ADDGF100991999999999999999999
0046028060999991912081406004+69100+027217FM-12+014999999V0200701N002119999999N0000001N9+00891+99999100031ADDAJ100009199999999GF100991999999999999999999
0029028060999991912081413004+69100+027217FM-12+014999999V0200901N004119999999N0000001N9+01611+99999099841ADDGF100991999999999999999999
0029028060999991912081420004+69100+027217FM-12+014999999V0200901N008219999999N0000001N9+01001+99999099911ADDGF104991999999999999999999
0046028060999991912081506004+69100+027217FM-12+014999999V0200901N008219999999N0000001N9+00671+99999100101ADDAJ100009199999999GF108991999999999999999999
0029028060999991912081513004+69100+027217FM-12+014999999V0200901N008219999999N0000001N9+00941+99999099951ADDGF106991999999999999999999
0029028060999991912081520004+69100+027217FM-12+014999999V0200701N004119999999N0000001N9+00561+99999099781ADDGF108991999999999999999999
0046028060999991912081606004+69100+027217FM-12+014999999V0200501N006219999999N0000001N9+00441+99999099601ADDAJ100009199999999GF108991999999999999999999
0029028060999991912081613004+69100+027217FM-12+014999999V0200701N004119999999N0000001N9+00831+99999099321ADDGF100991999999999999999999
0029028060999991912081620004+69100+027217FM-12+014999999V0200701N006219999999N0000001N9+00611+99999099101ADDGF108991999999999999999999
0046028060999991912081706004+69100+027217FM-12+014999999V0200701N004119999999N0000001N9+00671+99999098921ADDAJ100009199999999GF108991999999999999999999
0029028060999991912081713004+69100+027217FM-12+014999999V0200901N006219999999N0000001N9+00941+99999098911ADDGF104991999999999999999999
0035028060999991912081720004+69100+027217FM-12+014999999V0200901N008219999999N0000001N9+00671+99999099101ADDGF108991999999999999999999MW1621
0046028060999991912081806004+69100+027217FM-12+014999999V0200901N008219999999N0000001N9+00891+99999099401ADDAJ100009199999999GF108991999999999999999999
0029028060999991912081813004+69100+027217FM-12+014999999V0200901N006219999999N0000001N9+01221+99999099661ADDGF104991999999999999999999
0029028060999991912081820004+69100+027217FM-12+014999999V0200901N001019999999N0000001N9+00941+99999099951ADDGF106991999999999999999999
0046028060999991912081906004+69100+027217FM-12+014999999V0200901N004119999999N0000001N9+01001+99999100201ADDAJ100009199999999GF108991999999999999999999
0029028060999991912081913004+69100+027217FM-12+014999999V0200901N001019999999N0000001N9+01221+99999100381ADDGF106991999999999999999999
0029028060999991912081920004+69100+027217FM-12+014999999V0209991C000019999999N0000001N9+00891+99999100401ADDGF106991999999999999999999
0046028060999991912082006004+69100+027217FM-12+014999999V0200701N004119999999N0000001N9+00781+99999100461ADDAJ100009199999999GF108991999999999999999999
0029028060999991912082013004+69100+027217FM-12+014999999V0200901N004119999999N0000001N9+01111+99999100671ADDGF106991999999999999999999
0029028060999991912082020004+69100+027217FM-12+014999999V0209991C000019999999N0000001N9+00891+99999100631ADDGF106991999999999999999999
0046028060999991912082106004+69100+027217FM-12+014999999V0209991C000019999999N0000001N9+00941+99999100551ADDAJ100009199999999GF106991999999999999999999
0029028060999991912082113004+69100+027217FM-12+014999999V0201801N006219999999N0000001N9+01391+99999100421ADDGF104991999999999999999999
0029028060999991912082120004+69100+027217FM-12+014999999V0202501N004119999999N0000001N9+01111+99999100191ADDGF106991999999999999999999
0046028060999991912082206004+69100+027217FM-12+014999999V0202301N004119999999N0000001N9+01001+99999099981ADDAJ100009199999999GF108991999999999999999999
0029028060999991912082213004+69100+027217FM-12+014999999V0202501N004119999999N0000001N9+01171+99999099751ADDGF104991999999999999999999
0029028060999991912082220004+69100+027217FM-12+014999999V0202501N004119999999N0000001N9+01001+99999099431ADDGF106991999999999999999999
0046028060999991912082306004+69100+027217FM-12+014999999V0202501N008219999999N0000001N9+00941+99999099071ADDAJ100009199999999GF106991999999999999999999
0029028060999991912082313004+69100+027217FM-12+014999999V0202701N009819999999N0000001N9+01221+99999098831ADDGF106991999999999999999999
0029028060999991912082320004+69100+027217FM-12+014999999V0200201N004119999999N0000001N9+00781+99999098821ADDGF108991999999999999999999
0052028060999991912082406004+69100+027217FM-12+014999999V0200501N006219999999N0000001N9+00671+99999098831ADDAJ100009199999999GF108991999999999999999999MW1621
0035028060999991912082413004+69100+027217FM-12+014999999V0200501N008219999999N0000001N9+00611+99999098961ADDGF108991999999999999999999MW1621
0035028060999991912082420004+69100+027217FM-12+014999999V0200701N008219999999N0000001N9+00441+99999098921ADDGF108991999999999999999999MW1621
0046028060999991912082506004+69100+027217FM-12+014999999V0200501N008219999999N0000001N9+00501+99999098761ADDAJ100009199999999GF108991999999999999999999
0029028060999991912082513004+69100+027217FM-12+014999999V0200901N002119999999N0000001N9+00781+99999098681ADDGF104991999999999999999999
0029028060999991912082520004+69100+027217FM-12+014999999V0200501N008219999999N0000001N9+00561+99999098631ADDGF108991999999999999999999
0052028060999991912082606004+69100+027217FM-12+014999999V0200501N008219999999N0000001N9+00391+99999098471ADDAJ100009199999999GF108991999999999999999999MW1621
0035028060999991912082613004+69100+027217FM-12+014999999V0200701N009819999999N0000001N9+00611+99999098381ADDGF108991999999999999999999MW1601
0035028060999991912082620004+69100+027217FM-12+014999999V0200701N006219999999N0000001N9+00561+99999098461ADDGF108991999999999999999999MW1601
0046028060999991912082706004+69100+027217FM-12+014999999V0200201N009819999999N0000001N9+00331+99999098271ADDAJ100009199999999GF108991999999999999999999
0029028060999991912082713004+69100+027217FM-12+014999999V0200201N006219999999N0000001N9+00611+99999098261ADDGF106991999999999999999999
0035028060999991912082720004+69100+027217FM-12+014999999V0209991C000019999999N0000001N9+00221+99999098511ADDGF106991999999999999999999MW1601
0046028060999991912082806004+69100+027217FM-12+014999999V0209991C000019999999N0000001N9+00111+99999098881ADDAJ100009199999999GF106991999999999999999999
0029028060999991912082813004+69100+027217FM-12+014999999V0200901N002119999999N0000001N9+00611+99999099061ADDGF104991999999999999999999
0029028060999991912082820004+69100+027217FM-12+014999999V0200701N006219999999N0000001N9+00331+99999099181ADDGF106991999999999999999999
0046028060999991912082906004+69100+027217FM-12+014999999V0200701N011819999999N0000001N9+00221+99999098841ADDAJ100009199999999GF108991999999999999999999
