0029028060999991913010106004+69100+027217FM-12+014999999V0202301N004119999999N0000001N9-01721+99999097631ADDGF106991999999999999999999
0029028060999991913010113004+69100+027217FM-12+014999999V0201601N004119999999N0000001N9-01001+99999097401ADDGF104991999999999999999999
0035028060999991913010120004+69100+027217FM-12+014999999V0209991C000019999999N0000001N9-01061+99999097181ADDGF108991999999999999999999MW1721
0029028060999991913010206004+69100+027217FM-12+014999999V0202301N006219999999N0000001N9-00781+99999096781ADDGF108991999999999999999999
0029028060999991913010213004+69100+027217FM-12+014999999V0202301N002119999999N0000001N9-00781+99999096761ADDGF106991999999999999999999
0029028060999991913010220004+69100+027217FM-12+014999999V0209991C000019999999N0000001N9-00671+99999097111ADDGF108991999999999999999999
0029028060999991913010306004+69100+027217FM-12+014999999V0202301N004119999999N0000001N9-01221+99999098281ADDGF106991999999999999999999
0029028060999991913010313004+69100+027217FM-12+014999999V0203401N002119999999N0000001N9-00611+99999099081ADDGF100991999999999999999999
0029028060999991913010320004+69100+027217FM-12+014999999V0202301N001019999999N0000001N9-01171+99999099511ADDGF100991999999999999999999
0029028060999991913010406004+69100+027217FM-12+014999999V0201801N001019999999N0000001N9-01221+99999099061ADDGF100991999999999999999999
0029028060999991913010413004+69100+027217FM-12+014999999V0202301N006219999999N0000001N9-01171+99999099301ADDGF104991999999999999999999
0029028060999991913010420004+69100+027217FM-12+014999999V0202301N004119999999N0000001N9-01061+99999099311ADDGF104991999999999999999999
0035028060999991913010506004+69100+027217FM-12+014999999V0201801N004119999999N0000001N9-00721+99999098671ADDGF108991999999999999999999MW1721
0029028060999991913010513004+69100+027217FM-12+014999999V0202301N009819999999N0000001N9-00501+99999098521ADDGF104991999999999999999999
0029028060999991913010520004+69100+027217FM-12+014999999V0202301N004119999999N0000001N9-00831+99999098911ADDGF100991999999999999999999
0029028060999991913010606004+69100+027217FM-12+014999999V0202301N004119999999N0000001N9-00781+99999098641ADDGF104991999999999999999999
0035028060999991913010613004+69100+027217FM-12+014999999V0202301N002119999999N0000001N9-00221+99999098541ADDGF108991999999999999999999MW1721
0035028060999991913010620004+69100+027217FM-12+014999999V0201401N002119999999N0000001N9-00391+99999098641ADDGF108991999999999999999999MW1721
0035028060999991913010706004+69100+027217FM-12+014999999V0209991C000019999999N0000001N9-00671+99999098871ADDGF108991999999999999999999MW1721
0029028060999991913010713004+69100+027217FM-12+014999999V0202501N004119999999N0000001N9-01221+99999099671ADDGF100991999999999999999999
0035028060999991913010720004+69100+027217FM-12+014999999V0202301N001019999999N0000001N9-01561+99999100121ADDGF100991999999999999999999MW1481
0029028060999991913010806004+69100+027217FM-12+014999999V0202301N002119999999N0000001N9-01561+99999100361ADDGF100991999999999999999999
0029028060999991913010813004+69100+027217FM-12+014999999V0209991C000019999999N0000001N9-01281+99999100591ADDGF100991999999999999999999
0029028060999991913010820004+69100+027217FM-12+014999999V0202301N006219999999N0000001N9-01171+99999101021ADDGF104991999999999999999999
0029028060999991913010906004+69100+027217FM-12+014999999V0202301N006219999999N0000001N9-00671+99999101061ADDGF104991999999999999999999
0029028060999991913010913004+69100+027217FM-12+014999999V0202501N006219999999N0000001N9-00441+99999101261ADDGF106991999999999999999999
0029028060999991913010920004+69100+027217FM-12+014999999V0202501N008219999999N0000001N9-00611+99999101501ADDGF106991999999999999999999
0029028060999991913011006004+69100+027217FM-12+014999999V0202301N002119999999N0000001N9-00331+99999102001ADDGF106991999999999999999999
0029028060999991913011013004+69100+027217FM-12+014999999V0202301N002119999999N0000001N9-00781+99999102151ADDGF100991999999999999999999
0029028060999991913011020004+69100+027217FM-12+014999999V0209991C000019999999N0000001N9-01171+99999102201ADDGF104991999999999999999999
0029028060999991913011106004+69100+027217FM-12+014999999V0209991C000019999999N0000001N9-01501+99999102241ADDGF104991999999999999999999
0029028060999991913011113004+69100+027217FM-12+014999999V0202301N002119999999N0000001N9-01561+99999102271ADDGF104991999999999999999999
0029028060999991913011120004+69100+027217FM-12+014999999V0209991C000019999999N0000001N9-01611+99999101991ADDGF100991999999999999999999
0029028060999991913011206004+69100+027217FM-12+014999999V0209991C000019999999N0000001N9-01611+99999101721ADDGF100991999999999999999999
0029028060999991913011213004+69100+027217FM-12+014999999V0209991C000019999999N0000001N9-02221+99999101631ADDGF100991999999999999999999
0029028060999991913011220004+69100+027217FM-12+014999999V0209991C000019999999N0000001N9-01001+99999101761ADDGF104991999999999999999999
0029028060999991913011306004+69100+027217FM-12+014999999V0202301N002119999999N0000001N9-00831+99999101621ADDGF104991999999999999999999
0029028060999991913011313004+69100+027217FM-12+014999999V0209991C000019999999N0000001N9-00671+99999101601ADDGF104991999999999999999999
0029028060999991913011320004+69100+027217FM-12+014999999V0202301N006219999999N0000001N9-00561+99999101321ADDGF104991999999999999999999
0029028060999991913011406004+69100+027217FM-12+014999999V0202501N006219999999N0000001N9-01001+99999101021ADDGF100991999999999999999999
0029028060999991913011413004+69100+027217FM-12+014999999V0202701N002119999999N0000001N9-01611+99999100881ADDGF100991999999999999999999
0029028060999991913011420004+69100+027217FM-12+014999999V0202501N004119999999N0000001N9-01721+99999100881ADDGF100991999999999999999999
0029028060999991913011506004+69100+027217FM-12+014999999V0202501N001019999999N0000001N9-01561+99999100311ADDGF100991999999999999999999
0029028060999991913011513004+69100+027217FM-12+014999999V0202501N006219999999N0000001N9-01561+99999100301ADDGF104991999999999999999999
0029028060999991913011520004+69100+027217FM-12+014999999V0202501N006219999999N0000001N9-01391+99999100191ADDGF100991999999999999999999
0029028060999991913011606004+69100+027217FM-12+014999999V0202501N008219999999N0000001N9-00781+99999099661ADDGF104991999999999999999999
0029028060999991913011613004+69100+027217FM-12+014999999V0202301N009819999999N0000001N9-01501+99999099341ADDGF104991999999999999999999
0029028060999991913011620004+69100+027217FM-12+014999999V0202301N011819999999N0000001N9-01831+99999099001ADDGF104991999999999999999999
0035028060999991913011706004+69100+027217FM-12+014999999V0202501N004119999999N0000001N9-01501+99999098831ADDGF106991999999999999999999MW1861
0029028060999991913011713004+69100+027217FM-12+014999999V0209991C000019999999N0000001N9-01501+99999099161ADDGF104991999999999999999999
0029028060999991913011720004+69100+027217FM-12+014999999V0209991C000019999999N0000001N9-01561+99999099481ADDGF100991999999999999999999
0029028060999991913011806004+69100+027217FM-12+014999999V0202301N002119999999N0000001N9-01561+99999099741ADDGF108991999999999999999999
0029028060999991913011813004+69100+027217FM-12+014999999V0201101N002119999999N0000001N9-01501+99999099561ADDGF104991999999999999999999
0029028060999991913011820004+69100+027217FM-12+014999999V0209991C000019999999N0000001N9-01501+99999099431ADDGF104991999999999999999999
0029028060999991913011906004+69100+027217FM-12+014999999V0200501N001019999999N0000001N9-01561+99999099121ADDGF108991999999999999999999
0029028060999991913011913004+69100+027217FM-12+014999999V0209991C000019999999N0000001N9-02891+99999099021ADDGF108991999999999999999999
0029028060999991913011920004+69100+027217FM-12+014999999V0202001N006219999999N0000001N9-02001+99999098741ADDGF108991999999999999999999
0029028060999991913012006004+69100+027217FM-12+014999999V0202001N004119999999N0000001N9-01611+99999098521ADDGF108991999999999999999999
0029028060999991913012013004+69100+027217FM-12+014999999V0202001N002119999999N0000001N9-01721+99999098381ADDGF106991999999999999999999
0029028060999991913012020004+69100+027217FM-12+014999999V0209991C000019999999N0000001N9-01671+99999097991ADDGF104991999999999999999999
0029028060999991913012106004+69100+027217FM-12+014999999V0202301N002119999999N0000001N9-02281+99999097641ADDGF100991999999999999999999
0035028060999991913012113004+69100+027217FM-12+014999999V0202701N006219999999N0000001N9-01391+99999098441ADDGF100991999999999999999999MW1481
0029028060999991913012120004+69100+027217FM-12+014999999V0203201N008219999999N0000001N9-01331+99999098661ADDGF104991999999999999999999
0029028060999991913012206004+69100+027217FM-12+014999999V0202301N006219999999N0000001N9-01281+99999098921ADDGF100991999999999999999999
0029028060999991913012213004+69100+027217FM-12+014999999V0202301N004119999999N0000001N9-02111+99999099161ADDGF100991999999999999999999
0035028060999991913012220004+69100+027217FM-12+014999999V0202301N001019999999N0000001N9-02671+99999099361ADDGF100991999999999999999999MW1481
0029028060999991913012306004+69100+027217FM-12+014999999V0202001N001019999999N0000001N9-02281+99999099671ADDGF100991999999999999999999
0029028060999991913012313004+69100+027217FM-12+014999999V0201801N001019999999N0000001N9-02941+99999099821ADDGF104991999999999999999999
0029028060999991913012320004+69100+027217FM-12+014999999V0202301N001019999999N0000001N9-02891+99999099701ADDGF104991999999999999999999
0029028060999991913012406004+69100+027217FM-12+014999999V0202301N002119999999N0000001N9-02281+99999099431ADDGF104991999999999999999999
0035028060999991913012413004+69100+027217FM-12+014999999V0200901N004119999999N0000001N9-01611+99999099591ADDGF108991999999999999999999MW1721
0035028060999991913012420004+69100+027217FM-12+014999999V0200901N004119999999N0000001N9-01441+99999099761ADDGF106991999999999999999999MW1721
0029028060999991913012506004+69100+027217FM-12+014999999V0200901N002119999999N0000001N9-01501+99999099821ADDGF108991999999999999999999
0029028060999991913012513004+69100+027217FM-12+014999999V0200701N002119999999N0000001N9-01501+99999099751ADDGF106991999999999999999999
0029028060999991913012520004+69100+027217FM-12+014999999V0209991C000019999999N0000001N9-01831+99999099721ADDGF106991999999999999999999
0029028060999991913012606004+69100+027217FM-12+014999999V0209991C000019999999N0000001N9-01941+99999099701ADDGF106991999999999999999999
0035028060999991913012613004+69100+027217FM-12+014999999V0209991C000019999999N0000001N9-01501+99999099941ADDGF106991999999999999999999MW1721
0029028060999991913012620004+69100+027217FM-12+014999999V0209991C000019999999N0000001N9-01781+99999100201ADDGF104991999999999999999999
0029028060999991913012706004+69100+027217FM-12+014999999V0202001N001019999999N0000001N9-02671+99999100551ADDGF100991999999999999999999
0029028060999991913012713004+69100+027217FM-12+014999999V0202301N002119999999N0000001N9-01831+99999100751ADDGF104991999999999999999999
0029028060999991913012720004+69100+027217FM-12+014999999V0209991C000019999999N0000001N9-01831+99999101031ADDGF104991999999999999999999
0029028060999991913012806004+69100+027217FM-12+014999999V0202301N002119999999N0000001N9-01781+99999100951ADDGF104991999999999999999999
0029028060999991913012813004+69100+027217FM-12+014999999V0202701N008219999999N0000001N9-01281+99999100441ADDGF104991999999999999999999
0029028060999991913012820004+69100+027217FM-12+014999999V0202501N008219999999N0000001N9-01001+99999100121ADDGF104991999999999999999999
0029028060999991913012906004+69100+027217FM-12+014999999V0202301N004119999999N0000001N9-00781+99999999999ADDGF104991999999999999999999
0029028060999991913012913004+69100+027217FM-12+014999999V0202501N002119999999N0000001N9-00781+99999099791ADDGF104991999999999999999999
0029028060999991913012920004+69100+027217FM-12+014999999V0202301N004119999999N0000001N9-01061+99999099351ADDGF104991999999999999999999
0029028060999991913013006004+69100+027217FM-12+014999999V0202501N006219999999N0000001N9-00781+99999098751ADDGF106991999999999999999999
0029028060999991913013013004+69100+027217FM-12+014999999V0202501N008219999999N0000001N9-01331+99999098551ADDGF104991999999999999999999
0029028060999991913013020004+69100+027217FM-12+014999999V0202501N008219999999N0000001N9-01501+99999098321ADDGF100991999999999999999999
0029028060999991913013106004+69100+027217FM-12+014999999V0202301N008219999999N0000001N9-01781+99999098241ADDGF100991999999999999999999
0029028060999991913013113004+69100+027217FM-12+014999999V0202301N004119999999N0000001N9-01501+99999098111ADDGF100991999999999999999999
0029028060999991913013120004+69100+027217FM-12+014999999V0202301N006219999999N0000001N9-00721+99999097821ADDGF104991999999999999999999
0029028060999991913020106004+69100+027217FM-12+014999999V0202001N006219999999N0000001N9-00891+99999097681ADDGF108991999999999999999999
0029028060999991913020113004+69100+027217FM-12+014999999V0202001N006219999999N0000001N9-01001+99999097701ADDGF104991999999999999999999
0029028060999991913020120004+69100+027217FM-12+014999999V0202001N004119999999N0000001N9-01001+99999097721ADDGF108991999999999999999999
0029028060999991913020206004+69100+027217FM-12+014999999V0201601N008219999999N0000001N9-01221+99999097401ADDGF108991999999999999999999
0035028060999991913020213004+69100+027217FM-12+014999999V0202301N004119999999N0000001N9-01001+99999096981ADDGF108991999999999999999999MW1721
0035028060999991913020220004+69100+027217FM-12+014999999V0202301N011819999999N0000001N9-00561+99999096881ADDGF108991999999999999999999MW1721
0029028060999991913020306004+69100+027217FM-12+014999999V0202301N008219999999N0000001N9-00941+99999097021ADDGF106991999999999999999999
0029028060999991913020313004+69100+027217FM-12+014999999V0202301N009819999999N0000001N9-01221+99999097261ADDGF104991999999999999999999
0035028060999991913020320004+69100+027217FM-12+014999999V0202301N008219999999N0000001N9-01561+99999097361ADDGF104991999999999999999999MW1381
0029028060999991913020406004+69100+027217FM-12+014999999V0202301N001019999999N0000001N9-00831+99999097201ADDGF104991999999999999999999
0029028060999991913020413004+69100+027217FM-12+014999999V0202701N002119999999N0000001N9-01331+99999096781ADDGF106991999999999999999999
0035028060999991913020420004+69100+027217FM-12+014999999V0201401N002119999999N0000001N9-00561+99999096601ADDGF108991999999999999999999MW1721
0029028060999991913020506004+69100+027217FM-12+014999999V0201801N006219999999N0000001N9-00721+99999096671ADDGF106991999999999999999999
0029028060999991913020513004+69100+027217FM-12+014999999V0201801N004119999999N0000001N9-01001+99999096921ADDGF108991999999999999999999
0029028060999991913020520004+69100+027217FM-12+014999999V0202301N002119999999N0000001N9-01061+99999097361ADDGF106991999999999999999999
0029028060999991913020606004+69100+027217FM-12+014999999V0202001N001019999999N0000001N9-02781+99999098261ADDGF104991999999999999999999
0029028060999991913020613004+69100+027217FM-12+014999999V0209991C000019999999N0000001N9-02061+99999098501ADDGF100991999999999999999999
0029028060999991913020620004+69100+027217FM-12+014999999V0209991C000019999999N0000001N9-03061+99999098911ADDGF100991999999999999999999
0029028060999991913020706004+69100+027217FM-12+014999999V0209991C000019999999N0000001N9-01721+99999099101ADDGF104991999999999999999999
0029028060999991913020713004+69100+027217FM-12+014999999V0201801N006219999999N0000001N9-01001+99999099121ADDGF108991999999999999999999
0029028060999991913020720004+69100+027217FM-12+014999999V0202301N008219999999N0000001N9-00891+99999098831ADDGF108991999999999999999999
0029028060999991913020806004+69100+027217FM-12+014999999V0202301N009819999999N0000001N9-00391+99999098861ADDGF106991999999999999999999
0029028060999991913020813004+69100+027217FM-12+014999999V0202501N013919999999N0000001N9-00501+99999098861ADDGF108991999999999999999999
0029028060999991913020820004+69100+027217FM-12+014999999V0202301N004119999999N0000001N9-00611+99999098911ADDGF108991999999999999999999
0029028060999991913020906004+69100+027217FM-12+014999999V0201801N004119999999N0000001N9-00781+99999098911ADDGF106991999999999999999999
0035028060999991913020913004+69100+027217FM-12+014999999V0201801N004119999999N0000001N9-00671+99999098991ADDGF108991999999999999999999MW1481
0029028060999991913020920004+69100+027217FM-12+014999999V0202301N004119999999N0000001N9-00501+99999098711ADDGF108991999999999999999999
0029028060999991913021006004+69100+027217FM-12+014999999V0201801N006219999999N0000001N9-00611+99999098681ADDGF106991999999999999999999
0035028060999991913021013004+69100+027217FM-12+014999999V0201801N008219999999N0000001N9-00331+99999098871ADDGF108991999999999999999999MW1701
0029028060999991913021020004+69100+027217FM-12+014999999V0201801N008219999999N0000001N9-00441+99999098781ADDGF108991999999999999999999
0029028060999991913021106004+69100+027217FM-12+014999999V0202301N004119999999N0000001N9-00671+99999099481ADDGF108991999999999999999999
0035028060999991913021113004+69100+027217FM-12+014999999V0202701N004119999999N0000001N9-00941+99999100081ADDGF106991999999999999999999MW1481
0029028060999991913021120004+69100+027217FM-12+014999999V0202301N001019999999N0000001N9-01001+99999100501ADDGF104991999999999999999999
0029028060999991913021206004+69100+027217FM-12+014999999V0202301N001019999999N0000001N9-01331+99999100021ADDGF104991999999999999999999
0035028060999991913021213004+69100+027217FM-12+014999999V0202301N004119999999N0000001N9-00671+99999099241ADDGF108991999999999999999999MW1721
0029028060999991913021220004+69100+027217FM-12+014999999V0209991C000019999999N0000001N9-01561+99999099741ADDGF100991999999999999999999
0029028060999991913021306004+69100+027217FM-12+014999999V0209991C000019999999N0000001N9-01331+99999100471ADDGF100991999999999999999999
0029028060999991913021313004+69100+027217FM-12+014999999V0202701N004119999999N0000001N9-00781+99999100511ADDGF104991999999999999999999
0035028060999991913021320004+69100+027217FM-12+014999999V0202501N004119999999N0000001N9-00781+99999099461ADDGF108991999999999999999999MW1721
0035028060999991913021406004+69100+027217FM-12+014999999V0202501N006219999999N0000001N9-00721+99999099001ADDGF104991999999999999999999MW1381
0029028060999991913021413004+69100+027217FM-12+014999999V0202501N006219999999N0000001N9-00391+99999098991ADDGF104991999999999999999999
0029028060999991913021420004+69100+027217FM-12+014999999V0202301N006219999999N0000001N9-00171+99999099201ADDGF100991999999999999999999
0029028060999991913021506004+69100+027217FM-12+014999999V0202001N004119999999N0000001N9-00171+99999099921ADDGF106991999999999999999999
0035028060999991913021513004+69100+027217FM-12+014999999V0202301N011819999999N0000001N9-00061+99999099481ADDGF106991999999999999999999MW1381
0029028060999991913021520004+69100+027217FM-12+014999999V0202301N008219999999N0000001N9+00001+99999099231ADDGF106991999999999999999999
0029028060999991913021606004+69100+027217FM-12+014999999V0202701N002119999999N0000001N9+00221+99999099201ADDGF100991999999999999999999
0029028060999991913021613004+69100+027217FM-12+014999999V0202701N008219999999N0000001N9+00281+99999099201ADDGF100991999999999999999999
0029028060999991913021620004+69100+027217FM-12+014999999V0202701N001019999999N0000001N9-00501+99999099471ADDGF100991999999999999999999
0029028060999991913021706004+69100+027217FM-12+014999999V0202701N011819999999N0000001N9-00331+99999099101ADDGF104991999999999999999999
0029028060999991913021713004+69100+027217FM-12+014999999V0203201N013919999999N0000001N9-00561+99999100461ADDGF104991999999999999999999
0029028060999991913021720004+69100+027217FM-12+014999999V0202901N011819999999N0000001N9-00941+99999101111ADDGF100991999999999999999999
0029028060999991913021806004+69100+027217FM-12+014999999V0202701N008219999999N0000001N9-01331+99999100391ADDGF100991999999999999999999
0029028060999991913021813004+69100+027217FM-12+014999999V0202501N020119999999N0000001N9-00671+99999098941ADDGF106991999999999999999999
0029028060999991913021820004+69100+027217FM-12+014999999V0202501N020119999999N0000001N9-00281+99999097991ADDGF104991999999999999999999
0029028060999991913021906004+69100+027217FM-12+014999999V0202701N009819999999N0000001N9-01221+99999098431ADDGF100991999999999999999999
0029028060999991913021913004+69100+027217FM-12+014999999V0202301N009819999999N0000001N9-01061+99999098541ADDGF100991999999999999999999
0029028060999991913021920004+69100+027217FM-12+014999999V0202301N008219999999N0000001N9-01721+99999098161ADDGF100991999999999999999999
0029028060999991913022006004+69100+027217FM-12+014999999V0200901N002119999999N0000001N9-01611+99999096921ADDGF108991999999999999999999
0029028060999991913022013004+69100+027217FM-12+014999999V0202301N004119999999N0000001N9-01441+99999096921ADDGF100991999999999999999999
0029028060999991913022020004+69100+027217FM-12+014999999V0202301N004119999999N0000001N9-01561+99999096911ADDGF100991999999999999999999
0029028060999991913022106004+69100+027217FM-12+014999999V0202301N004119999999N0000001N9-01611+99999096631ADDGF104991999999999999999999
0035028060999991913022113004+69100+027217FM-12+014999999V0202301N008219999999N0000001N9-01111+99999096721ADDGF106991999999999999999999MW1721
0029028060999991913022120004+69100+027217FM-12+014999999V0202901N009819999999N0000001N9-01221+99999097181ADDGF104991999999999999999999
0029028060999991913022206004+69100+027217FM-12+014999999V0203601N008219999999N0000001N9-01331+99999097671ADDGF104991999999999999999999
0029028060999991913022213004+69100+027217FM-12+014999999V0203401N008219999999N0000001N9-01331+99999098071ADDGF100991999999999999999999
0029028060999991913022220004+69100+027217FM-12+014999999V0203401N002119999999N0000001N9-02001+99999098301ADDGF100991999999999999999999
0029028060999991913022306004+69100+027217FM-12+014999999V0203601N001019999999N0000001N9-02001+99999098161ADDGF100991999999999999999999
0029028060999991913022313004+69100+027217FM-12+014999999V0209991C000019999999N0000001N9-01891+99999098241ADDGF104991999999999999999999
0029028060999991913022320004+69100+027217FM-12+014999999V0209991C000019999999N0000001N9-02111+99999097761ADDGF104991999999999999999999
0029028060999991913022406004+69100+027217FM-12+014999999V0209991C000019999999N0000001N9-03001+99999097861ADDGF100991999999999999999999
0029028060999991913022413004+69100+027217FM-12+014999999V0202701N004119999999N0000001N9-01501+99999097791ADDGF100991999999999999999999
0029028060999991913022420004+69100+027217FM-12+014999999V0200201N011819999999N0000001N9-01001+99999097911ADDGF108991999999999999999999
0029028060999991913022506004+69100+027217FM-12+014999999V0203601N002119999999N0000001N9-01281+99999098721ADDGF100991999999999999999999
0029028060999991913022513004+69100+027217FM-12+014999999V0202501N006219999999N0000001N9-01281+99999098831ADDGF100991999999999999999999
0029028060999991913022520004+69100+027217FM-12+014999999V0202901N002119999999N0000001N9-01891+99999098511ADDGF100991999999999999999999
0029028060999991913022606004+69100+027217FM-12+014999999V0202301N002119999999N0000001N9-02221+99999097961ADDGF100991999999999999999999
0029028060999991913022613004+69100+027217FM-12+014999999V0202301N002119999999N0000001N9-01891+99999097801ADDGF104991999999999999999999
0029028060999991913022620004+69100+027217FM-12+014999999V0209991C000019999999N0000001N9-03111+99999097511ADDGF100991999999999999999999
0029028060999991913022706004+69100+027217FM-12+014999999V0209991C000019999999N0000001N9-03281+99999097671ADDGF100991999999999999999999
0029028060999991913022713004+69100+027217FM-12+014999999V0202301N004119999999N0000001N9-02221+99999097781ADDGF106991999999999999999999
0029028060999991913022720004+69100+027217FM-12+014999999V0202301N002119999999N0000001N9-03221+99999098181ADDGF104991999999999999999999
0029028060999991913022806004+69100+027217FM-12+014999999V0202001N002119999999N0000001N9-03611+99999098601ADDGF100991999999999999999999
0029028060999991913022813004+69100+027217FM-12+014999999V0200501N004119999999N0000001N9-02391+99999099041ADDGF100991999999999999999999
0029028060999991913022820004+69100+027217FM-12+014999999V0209991C000019999999N0000001N9-03281+99999099541ADDGF100991999999999999999999
0029028060999991913030106004+69100+027217FM-12+014999999V0201801N001019999999N0000001N9-03721+99999100221ADDGF100991999999999999999999
0029028060999991913030113004+69100+027217FM-12+014999999V0209991C000019999999N0000001N9-02221+99999100421ADDGF100991999999999999999999
0029028060999991913030120004+69100+027217FM-12+014999999V0209991C000019999999N0000001N9-03001+99999100231ADDGF100991999999999999999999
0029028060999991913030206004+69100+027217FM-12+014999999V0201801N004119999999N0000001N9-03001+99999099681ADDGF100991999999999999999999
0029028060999991913030213004+69100+027217FM-12+014999999V0201801N008219999999N0000001N9-01221+99999099061ADDGF108991999999999999999999
0029028060999991913030220004+69100+027217FM-12+014999999V0201801N011819999999N0000001N9-01171+99999098221ADDGF108991999999999999999999
0035028060999991913030306004+69100+027217FM-12+014999999V0201801N008219999999N0000001N9-01061+99999097161ADDGF108991999999999999999999MW1721
0029028060999991913030313004+69100+027217FM-12+014999999V0202301N006219999999N0000001N9-00611+99999096911ADDGF100991999999999999999999
0029028060999991913030320004+69100+027217FM-12+014999999V0201801N011819999999N0000001N9-00331+99999096221ADDGF108991999999999999999999
0029028060999991913030406004+69100+027217FM-12+014999999V0202001N004119999999N0000001N9-00391+99999096101ADDGF108991999999999999999999
0029028060999991913030413004+69100+027217FM-12+014999999V0201801N004119999999N0000001N9-00391+99999096181ADDGF108991999999999999999999
0035028060999991913030420004+69100+027217FM-12+014999999V0202301N004119999999N0000001N9-00781+99999096521ADDGF108991999999999999999999MW1701
0029028060999991913030506004+69100+027217FM-12+014999999V0201801N004119999999N0000001N9-00781+99999096151ADDGF108991999999999999999999
0035028060999991913030513004+69100+027217FM-12+014999999V0201401N006219999999N0000001N9-00611+99999095271ADDGF108991999999999999999999MW1721
0035028060999991913030520004+69100+027217FM-12+014999999V0201401N006219999999N0000001N9-00721+99999095241ADDGF108991999999999999999999MW1721
0029028060999991913030606004+69100+027217FM-12+014999999V0201401N004119999999N0000001N9+00001+99999095271ADDGF108991999999999999999999
0029028060999991913030613004+69100+027217FM-12+014999999V0201801N004119999999N0000001N9-00111+99999095071ADDGF106991999999999999999999
0029028060999991913030620004+69100+027217FM-12+014999999V0201401N004119999999N0000001N9-00281+99999095041ADDGF100991999999999999999999
0029028060999991913030706004+69100+027217FM-12+014999999V0202501N009819999999N0000001N9-00281+99999095321ADDGF106991999999999999999999
0029028060999991913030713004+69100+027217FM-12+014999999V0202501N004119999999N0000001N9-00111+99999095701ADDGF106991999999999999999999
0029028060999991913030720004+69100+027217FM-12+014999999V0202301N004119999999N0000001N9-00611+99999095861ADDGF100991999999999999999999
0029028060999991913030806004+69100+027217FM-12+014999999V0202301N001019999999N0000001N9-01891+99999096421ADDGF100991999999999999999999
0029028060999991913030813004+69100+027217FM-12+014999999V0202301N004119999999N0000001N9-00171+99999096801ADDGF106991999999999999999999
0029028060999991913030820004+69100+027217FM-12+014999999V0202301N004119999999N0000001N9-00501+99999097441ADDGF100991999999999999999999
0029028060999991913030906004+69100+027217FM-12+014999999V0202301N003119999999N0000001N9-01111+99999098021ADDGF106991999999999999999999
0029028060999991913030913004+69100+027217FM-12+014999999V0202301N004119999999N0000001N9-00441+99999098181ADDGF106991999999999999999999
0029028060999991913030920004+69100+027217FM-12+014999999V0202301N002119999999N0000001N9-00721+99999097591ADDGF108991999999999999999999
0029028060999991913031006004+69100+027217FM-12+014999999V0202301N004119999999N0000001N9-00561+99999096301ADDGF108991999999999999999999
0029028060999991913031013004+69100+027217FM-12+014999999V0202301N003119999999N0000001N9-00281+99999095871ADDGF108991999999999999999999
0029028060999991913031020004+69100+027217FM-12+014999999V0202301N004119999999N0000001N9-00611+99999096001ADDGF108991999999999999999999
0035028060999991913031106004+69100+027217FM-12+014999999V0201401N004119999999N0000001N9-00501+99999095961ADDGF108991999999999999999999MW1721
0029028060999991913031113004+69100+027217FM-12+014999999V0201401N004119999999N0000001N9-01001+99999096521ADDGF108991999999999999999999
0029028060999991913031120004+69100+027217FM-12+014999999V0202301N004119999999N0000001N9-01111+99999097061ADDGF100991999999999999999999
0029028060999991913031206004+69100+027217FM-12+014999999V0202301N002119999999N0000001N9-02001+99999097261ADDGF100991999999999999999999
0035028060999991913031213004+69100+027217FM-12+014999999V0202301N002119999999N0000001N9-00501+99999097441ADDGF108991999999999999999999MW1721
0029028060999991913031220004+69100+027217FM-12+014999999V0202301N004119999999N0000001N9-01001+99999097681ADDGF100991999999999999999999
0029028060999991913031306004+69100+027217FM-12+014999999V0201801N004119999999N0000001N9+00721+99999097701ADDGF108991999999999999999999
0029028060999991913031313004+69100+027217FM-12+014999999V0201801N011819999999N0000001N9-00111+99999097341ADDGF106991999999999999999999
0029028060999991913031320004+69100+027217FM-12+014999999V0201801N008219999999N0000001N9-00501+99999096631ADDGF106991999999999999999999
0029028060999991913031406004+69100+027217FM-12+014999999V0202301N006219999999N0000001N9-00941+99999096841ADDGF100991999999999999999999
0029028060999991913031413004+69100+027217FM-12+014999999V0202001N008219999999N0000001N9-00611+99999097141ADDGF100991999999999999999999
0029028060999991913031420004+69100+027217FM-12+014999999V0202301N004119999999N0000001N9-01891+99999097181ADDGF100991999999999999999999
0029028060999991913031506004+69100+027217FM-12+014999999V0202001N004119999999N0000001N9-02781+99999096881ADDGF100991999999999999999999
0029028060999991913031513004+69100+027217FM-12+014999999V0202001N002119999999N0000001N9-00831+99999096981ADDGF100991999999999999999999
0029028060999991913031520004+69100+027217FM-12+014999999V0209991C000019999999N0000001N9-02671+99999096921ADDGF100991999999999999999999
0029028060999991913031606004+69100+027217FM-12+014999999V0202301N002119999999N0000001N9-02171+99999096911ADDGF108991999999999999999999
0029028060999991913031613004+69100+027217FM-12+014999999V0202001N004119999999N0000001N9-01061+99999096881ADDGF108991999999999999999999
0035028060999991913031620004+69100+027217FM-12+014999999V0202001N002119999999N0000001N9-01221+99999096661ADDGF108991999999999999999999MW1701
0029028060999991913031706004+69100+027217FM-12+014999999V0202301N001019999999N0000001N9-01441+99999096561ADDGF106991999999999999999999
0029028060999991913031713004+69100+027217FM-12+014999999V0202301N001019999999N0000001N9-00671+99999096591ADDGF100991999999999999999999
0029028060999991913031720004+69100+027217FM-12+014999999V0209991C000019999999N0000001N9-02001+99999097121ADDGF100991999999999999999999
0029028060999991913031806004+69100+027217FM-12+014999999V0202001N001019999999N0000001N9-02061+99999097541ADDGF100991999999999999999999
0029028060999991913031813004+69100+027217FM-12+014999999V0202001N001019999999N0000001N9-00671+99999097661ADDGF100991999999999999999999
0029028060999991913031820004+69100+027217FM-12+014999999V0201801N001019999999N0000001N9-01721+99999097481ADDGF100991999999999999999999
0029028060999991913031906004+69100+027217FM-12+014999999V0201801N001019999999N0000001N9-01611+99999096821ADDGF100991999999999999999999
0035028060999991913031913004+69100+027217FM-12+014999999V0200901N002119999999N0000001N9-00721+99999096621ADDGF108991999999999999999999MW1721
0029028060999991913031920004+69100+027217FM-12+014999999V0209991C000019999999N0000001N9-01891+99999096801ADDGF108991999999999999999999
0029028060999991913032006004+69100+027217FM-12+014999999V0209991C000019999999N0000001N9-02221+99999097121ADDGF100991999999999999999999
0029028060999991913032013004+69100+027217FM-12+014999999V0203201N004119999999N0000001N9-00611+99999097311ADDGF100991999999999999999999
0029028060999991913032020004+69100+027217FM-12+014999999V0202701N002119999999N0000001N9-02001+99999097511ADDGF100991999999999999999999
0029028060999991913032106004+69100+027217FM-12+014999999V0202001N002119999999N0000001N9-02221+99999097671ADDGF100991999999999999999999
0029028060999991913032113004+69100+027217FM-12+014999999V0202301N001019999999N0000001N9-00721+99999097821ADDGF100991999999999999999999
0029028060999991913032120004+69100+027217FM-12+014999999V0202301N001019999999N0000001N9-01721+99999097821ADDGF100991999999999999999999
0029028060999991913032206004+69100+027217FM-12+014999999V0202301N004119999999N0000001N9-01501+99999097921ADDGF100991999999999999999999
0029028060999991913032213004+69100+027217FM-12+014999999V0202001N006219999999N0000001N9-00721+99999097981ADDGF100991999999999999999999
0029028060999991913032220004+69100+027217FM-12+014999999V0202301N001019999999N0000001N9-01781+99999097981ADDGF100991999999999999999999
0029028060999991913032306004+69100+027217FM-12+014999999V0209991C000019999999N0000001N9-02671+99999097831ADDGF100991999999999999999999
0029028060999991913032313004+69100+027217FM-12+014999999V0203401N002119999999N0000001N9-00781+99999097981ADDGF104991999999999999999999
0029028060999991913032320004+69100+027217FM-12+014999999V0209991C000019999999N0000001N9-02171+99999098321ADDGF100991999999999999999999
0029028060999991913032406004+69100+027217FM-12+014999999V0203201N001019999999N0000001N9-01891+99999098241ADDGF100991999999999999999999
0029028060999991913032413004+69100+027217FM-12+014999999V0202001N002119999999N0000001N9-00501+99999098391ADDGF100991999999999999999999
0029028060999991913032420004+69100+027217FM-12+014999999V0209991C000019999999N0000001N9-01561+99999098751ADDGF100991999999999999999999
0029028060999991913032506004+69100+027217FM-12+014999999V0209991C000019999999N0000001N9-02331+99999099161ADDGF100991999999999999999999
0029028060999991913032513004+69100+027217FM-12+014999999V0202301N002119999999N0000001N9-00611+99999099041ADDGF100991999999999999999999
0029028060999991913032520004+69100+027217FM-12+014999999V0202301N002119999999N0000001N9-00781+99999098641ADDGF108991999999999999999999
0029028060999991913032606004+69100+027217FM-12+014999999V0202301N002119999999N0000001N9-00281+99999097821ADDGF100991999999999999999999
0029028060999991913032613004+69100+027217FM-12+014999999V0202301N002119999999N0000001N9+00281+99999098031ADDGF108991999999999999999999
0029028060999991913032620004+69100+027217FM-12+014999999V0202001N004119999999N0000001N9-00281+99999098381ADDGF106991999999999999999999
0029028060999991913032706004+69100+027217FM-12+014999999V0203401N003119999999N0000001N9+00111+99999099801ADDGF108991999999999999999999
0029028060999991913032713004+69100+027217FM-12+014999999V0209991C000019999999N0000001N9+00111+99999100281ADDGF104991999999999999999999
0029028060999991913032720004+69100+027217FM-12+014999999V0203401N001019999999N0000001N9-00891+99999100661ADDGF100991999999999999999999
0029028060999991913032806004+69100+027217FM-12+014999999V0203401N001019999999N0000001N9-01501+99999101341ADDGF100991999999999999999999
0029028060999991913032813004+69100+027217FM-12+014999999V0202301N006219999999N0000001N9+00001+99999101031ADDGF108991999999999999999999
0029028060999991913032820004+69100+027217FM-12+014999999V0202001N004119999999N0000001N9-00441+99999100631ADDGF106991999999999999999999
0029028060999991913032906004+69100+027217FM-12+014999999V0202001N001019999999N0000001N9-00831+99999100791ADDGF100991999999999999999999
0029028060999991913032913004+69100+027217FM-12+014999999V0202501N004119999999N0000001N9+00001+99999100861ADDGF100991999999999999999999
0029028060999991913032920004+69100+027217FM-12+014999999V0209991C000019999999N0000001N9-00221+99999100711ADDGF100991999999999999999999
0029028060999991913033006004+69100+027217FM-12+014999999V0202001N001019999999N0000001N9-00441+99999100391ADDGF100991999999999999999999
0029028060999991913033013004+69100+027217FM-12+014999999V0202501N004119999999N0000001N9+00171+99999100201ADDGF100991999999999999999999
0029028060999991913033020004+69100+027217FM-12+014999999V0201801N004119999999N0000001N9-00441+99999100341ADDGF108991999999999999999999
0029028060999991913033106004+69100+027217FM-12+014999999V0202001N002119999999N0000001N9-00611+99999099681ADDGF108991999999999999999999
0035028060999991913033113004+69100+027217FM-12+014999999V0201801N004119999999N0000001N9+00061+99999099231ADDGF108991999999999999999999MW1601
0029028060999991913033120004+69100+027217FM-12+014999999V0202301N002119999999N0000001N9-00391+99999099481ADDGF100991999999999999999999
0029028060999991913040106004+69100+027217FM-12+014999999V0202301N006219999999N0000001N9-00331+99999099541ADDGF108991999999999999999999
0029028060999991913040113004+69100+027217FM-12+014999999V0201801N002119999999N0000001N9+00221+99999099591ADDGF108991999999999999999999
0029028060999991913040120004+69100+027217FM-12+014999999V0202301N001019999999N0000001N9-00221+99999099661ADDGF104991999999999999999999
0029028060999991913040206004+69100+027217FM-12+014999999V0202501N004119999999N0000001N9-00391+99999099701ADDGF108991999999999999999999
0035028060999991913040213004+69100+027217FM-12+014999999V0209991C000019999999N0000001N9+00001+99999099821ADDGF108991999999999999999999MW1621
0035028060999991913040220004+69100+027217FM-12+014999999V0203601N002119999999N0000001N9-00111+99999099721ADDGF108991999999999999999999MW1721
0029028060999991913040306004+69100+027217FM-12+014999999V0200901N001019999999N0000001N9-00061+99999099621ADDGF108991999999999999999999
0029028060999991913040313004+69100+027217FM-12+014999999V0203601N001019999999N0000001N9+00111+99999099361ADDGF108991999999999999999999
0035028060999991913040320004+69100+027217FM-12+014999999V0202001N001019999999N0000001N9+00001+99999099151ADDGF108991999999999999999999MW1721
0029028060999991913040406004+69100+027217FM-12+014999999V0203601N002119999999N0000001N9-00171+99999099481ADDGF108991999999999999999999
0029028060999991913040413004+69100+027217FM-12+014999999V0203601N004119999999N0000001N9-00061+99999100121ADDGF108991999999999999999999
0029028060999991913040420004+69100+027217FM-12+014999999V0203601N001019999999N0000001N9-00221+99999100421ADDGF106991999999999999999999
0029028060999991913040506004+69100+027217FM-12+014999999V0202701N001019999999N0000001N9-00611+99999099761ADDGF100991999999999999999999
0029028060999991913040513004+69100+027217FM-12+014999999V0202301N004119999999N0000001N9+00221+99999098921ADDGF108991999999999999999999
0035028060999991913040520004+69100+027217FM-12+014999999V0201801N002119999999N0000001N9+00061+99999098641ADDGF108991999999999999999999MW1721
0029028060999991913040606004+69100+027217FM-12+014999999V0200901N002119999999N0000001N9-00111+99999099101ADDGF108991999999999999999999
0029028060999991913040613004+69100+027217FM-12+014999999V0200901N001019999999N0000001N9+00221+99999099201ADDGF100991999999999999999999
0029028060999991913040620004+69100+027217FM-12+014999999V0209991C000019999999N0000001N9-00061+99999099321ADDGF104991999999999999999999
0029028060999991913040706004+69100+027217FM-12+014999999V0202301N002119999999N0000001N9-00111+99999099081ADDGF108991999999999999999999
0029028060999991913040713004+69100+027217FM-12+014999999V0202301N006219999999N0000001N9+00001+99999098751ADDGF100991999999999999999999
0029028060999991913040720004+69100+027217FM-12+014999999V0202501N006219999999N0000001N9-00111+99999098341ADDGF104991999999999999999999
0029028060999991913040806004+69100+027217FM-12+014999999V0203601N006219999999N0000001N9-00611+99999098361ADDGF100991999999999999999999
0029028060999991913040813004+69100+027217FM-12+014999999V0203201N009819999999N0000001N9-00561+99999098641ADDGF100991999999999999999999
0029028060999991913040820004+69100+027217FM-12+014999999V0202701N009819999999N0000001N9-01001+99999098861ADDGF100991999999999999999999
0029028060999991913040906004+69100+027217FM-12+014999999V0202501N008219999999N0000001N9-01221+99999098941ADDGF100991999999999999999999
0029028060999991913040913004+69100+027217FM-12+014999999V0202701N008219999999N0000001N9-00561+99999098581ADDGF100991999999999999999999
0029028060999991913040920004+69100+027217FM-12+014999999V0202501N013919999999N0000001N9-00501+99999098181ADDGF108991999999999999999999
0035028060999991913041006004+69100+027217FM-12+014999999V0202301N008219999999N0000001N9-00111+99999096122ADDGF108991999999999999999999MW1721
0035028060999991913041013004+69100+027217FM-12+014999999V0200501N020119999999N0000001N9-00611+99999096791ADDGF108991999999999999999999MW1721
0029028060999991913041020004+69100+027217FM-12+014999999V0200501N008219999999N0000001N9-00611+99999097831ADDGF100991999999999999999999
0029028060999991913041106004+69100+027217FM-12+014999999V0209991C000019999999N0000001N9-02561+99999098201ADDGF100991999999999999999999
0029028060999991913041113004+69100+027217FM-12+014999999V0209991C000019999999N0000001N9-00561+99999098361ADDGF100991999999999999999999
0029028060999991913041120004+69100+027217FM-12+014999999V0209991C000019999999N0000001N9-01891+99999098661ADDGF100991999999999999999999
0029028060999991913041206004+69100+027217FM-12+014999999V0209991C000019999999N0000001N9-02501+99999099081ADDGF100991999999999999999999
0029028060999991913041213004+69100+027217FM-12+014999999V0200501N011819999999N0000001N9-00721+99999099001ADDGF104991999999999999999999
0029028060999991913041220004+69100+027217FM-12+014999999V0203601N011819999999N0000001N9-00721+99999098871ADDGF108991999999999999999999
0035028060999991913041306004+69100+027217FM-12+014999999V0200501N009819999999N0000001N9-00721+99999099081ADDGF100991999999999999999999MW1381
0035028060999991913041313004+69100+027217FM-12+014999999V0200501N006219999999N0000001N9-00611+99999099271ADDGF100991999999999999999999MW1381
0035028060999991913041320004+69100+027217FM-12+014999999V0203601N006219999999N0000001N9-00891+99999099541ADDGF106991999999999999999999MW1381
0029028060999991913041406004+69100+027217FM-12+014999999V0203601N001019999999N0000001N9-00781+99999100031ADDGF108991999999999999999999
0029028060999991913041413004+69100+027217FM-12+014999999V0200901N002119999999N0000001N9-00391+99999100341ADDGF108991999999999999999999
0029028060999991913041420004+69100+027217FM-12+014999999V0209991C000019999999N0000001N9-00891+99999100361ADDGF100991999999999999999999
0029028060999991913041506004+69100+027217FM-12+014999999V0209991C000019999999N0000001N9-01781+99999100391ADDGF100991999999999999999999
0029028060999991913041513004+69100+027217FM-12+014999999V0201801N002119999999N0000001N9-00281+99999100301ADDGF100991999999999999999999
0029028060999991913041520004+69100+027217FM-12+014999999V0209991C000019999999N0000001N9-01221+99999100081ADDGF100991999999999999999999
0029028060999991913041606004+69100+027217FM-12+014999999V0201601N001019999999N0000001N9-01781+99999099831ADDGF100991999999999999999999
0029028060999991913041613004+69100+027217FM-12+014999999V0202501N006219999999N0000001N9-00061+99999099831ADDGF100991999999999999999999
0029028060999991913041620004+69100+027217FM-12+014999999V0202301N004119999999N0000001N9-00281+99999099861ADDGF104991999999999999999999
0029028060999991913041706004+69100+027217FM-12+014999999V0201801N001019999999N0000001N9-00831+99999099961ADDGF100991999999999999999999
0029028060999991913041713004+69100+027217FM-12+014999999V0202301N006219999999N0000001N9+00561+99999100101ADDGF100991999999999999999999
0029028060999991913041720004+69100+027217FM-12+014999999V0201401N002119999999N0000001N9+00061+99999100121ADDGF104991999999999999999999
0029028060999991913041806004+69100+027217FM-12+014999999V0200701N002119999999N0000001N9+00111+99999099911ADDGF104991999999999999999999
0029028060999991913041813004+69100+027217FM-12+014999999V0201401N002119999999N0000001N9+00441+99999099401ADDGF108991999999999999999999
0029028060999991913041820004+69100+027217FM-12+014999999V0201401N008219999999N0000001N9+00221+99999099421ADDGF106991999999999999999999
0029028060999991913041906004+69100+027217FM-12+014999999V0200501N002119999999N0000001N9+00221+99999099391ADDGF108991999999999999999999
0029028060999991913041913004+69100+027217FM-12+014999999V0201601N011819999999N0000001N9+00441+99999099221ADDGF108991999999999999999999
0029028060999991913041920004+69100+027217FM-12+014999999V0201601N008219999999N0000001N9+00221+99999099321ADDGF108991999999999999999999
0029028060999991913042006004+69100+027217FM-12+014999999V0201601N004119999999N0000001N9+00221+99999099621ADDGF104991999999999999999999
0029028060999991913042013004+69100+027217FM-12+014999999V0201401N006219999999N0000001N9+00721+99999099321ADDGF100991999999999999999999
0029028060999991913042020004+69100+027217FM-12+014999999V0201601N002119999999N0000001N9+00561+99999098991ADDGF108991999999999999999999
0029028060999991913042106004+69100+027217FM-12+014999999V0201801N001019999999N0000001N9+00391+99999098801ADDGF108991999999999999999999
0029028060999991913042113004+69100+027217FM-12+014999999V0202301N011819999999N0000001N9+00561+99999099021ADDGF104991999999999999999999
0029028060999991913042120004+69100+027217FM-12+014999999V0202301N006219999999N0000001N9+00281+99999099321ADDGF100991999999999999999999
0029028060999991913042206004+69100+027217FM-12+014999999V0202501N006219999999N0000001N9+00001+99999099671ADDGF108991999999999999999999
0029028060999991913042213004+69100+027217FM-12+014999999V0202501N008219999999N0000001N9+00441+99999099441ADDGF100991999999999999999999
0029028060999991913042220004+69100+027217FM-12+014999999V0202501N011819999999N0000001N9+00391+99999099441ADDGF108991999999999999999999
0029028060999991913042306004+69100+027217FM-12+014999999V0202301N006219999999N0000001N9+00391+99999099141ADDGF108991999999999999999999
0029028060999991913042313004+69100+027217FM-12+014999999V0202501N011819999999N0000001N9+00721+99999099191ADDGF104991999999999999999999
0029028060999991913042320004+69100+027217FM-12+014999999V0202701N008219999999N0000001N9+00561+99999099561ADDGF100991999999999999999999
0029028060999991913042406004+69100+027217FM-12+014999999V0202301N004119999999N0000001N9+00061+99999100031ADDGF100991999999999999999999
0029028060999991913042413004+69100+027217FM-12+014999999V0203201N004119999999N0000001N9+00781+99999100151ADDGF100991999999999999999999
0029028060999991913042420004+69100+027217FM-12+014999999V0200501N002119999999N0000001N9+00001+99999100191ADDGF100991999999999999999999
0029028060999991913042506004+69100+027217FM-12+014999999V0209991C000019999999N0000001N9-00111+99999100311ADDGF100991999999999999999999
0029028060999991913042513004+69100+027217FM-12+014999999V0200901N004119999999N0000001N9+00501+99999100101ADDGF100991999999999999999999
0029028060999991913042520004+69100+027217FM-12+014999999V0200501N002119999999N0000001N9+00171+99999100041ADDGF100991999999999999999999
0029028060999991913042606004+69100+027217FM-12+014999999V0200501N004119999999N0000001N9-00111+99999099911ADDGF108991999999999999999999
0029028060999991913042613004+69100+027217FM-12+014999999V0200501N004119999999N0000001N9+00221+99999099631ADDGF108991999999999999999999
0035028060999991913042620004+69100+027217FM-12+014999999V0200501N008219999999N0000001N9+00001+99999099271ADDGF108991999999999999999999MW1721
0029028060999991913042706004+69100+027217FM-12+014999999V0200501N006219999999N0000001N9-00111+99999099511ADDGF108991999999999999999999
0029028060999991913042713004+69100+027217FM-12+014999999V0203601N008219999999N0000001N9+00221+99999099901ADDGF100991999999999999999999
0029028060999991913042720004+69100+027217FM-12+014999999V0200501N002119999999N0000001N9-00061+99999100581ADDGF108991999999999999999999
0029028060999991913042806004+69100+027217FM-12+014999999V0200201N002119999999N0000001N9-00061+99999101181ADDGF100991999999999999999999
0029028060999991913042813004+69100+027217FM-12+014999999V0202301N004119999999N0000001N9+00281+99999101141ADDGF100991999999999999999999
0029028060999991913042820004+69100+027217FM-12+014999999V0209991C000019999999N0000001N9+00171+99999100821ADDGF108991999999999999999999
0035028060999991913042906004+69100+027217FM-12+014999999V0203601N009819999999N0000001N9-00171+99999101081ADDGF108991999999999999999999MW1701
0029028060999991913042913004+69100+027217FM-12+014999999V0200501N009819999999N0000001N9-00221+99999101561ADDGF100991999999999999999999
0029028060999991913042920004+69100+027217FM-12+014999999V0200901N002119999999N0000001N9-00671+99999101621ADDGF100991999999999999999999
0029028060999991913043006004+69100+027217FM-12+014999999V0200901N002119999999N0000001N9-00671+99999101151ADDGF100991999999999999999999
0029028060999991913043013004+69100+027217FM-12+014999999V0200901N004119999999N0000001N9+00061+99999100961ADDGF108991999999999999999999
0029028060999991913043020004+69100+027217FM-12+014999999V0200901N006219999999N0000001N9-00281+99999100951ADDGF108991999999999999999999
0029028060999991913050106004+69100+027217FM-12+014999999V0200501N001019999999N0000001N9-00501+99999101001ADDGF100991999999999999999999
0029028060999991913050113004+69100+027217FM-12+014999999V0200901N001019999999N0000001N9+00221+99999100821ADDGF106991999999999999999999
0029028060999991913050120004+69100+027217FM-12+014999999V0200701N004119999999N0000001N9-00281+99999100781ADDGF104991999999999999999999
0029028060999991913050206004+69100+027217FM-12+014999999V0201801N004119999999N0000001N9-00281+99999100721ADDGF100991999999999999999999
0029028060999991913050213004+69100+027217FM-12+014999999V0201801N002119999999N0000001N9+00281+99999100301ADDGF100991999999999999999999
0029028060999991913050220004+69100+027217FM-12+014999999V0200901N002119999999N0000001N9-00171+99999099941ADDGF100991999999999999999999
0029028060999991913050306004+69100+027217FM-12+014999999V0201601N004119999999N0000001N9-00391+99999099821ADDGF108991999999999999999999
0029028060999991913050313004+69100+027217FM-12+014999999V0200901N006219999999N0000001N9-00061+99999099911ADDGF108991999999999999999999
0029028060999991913050320004+69100+027217FM-12+014999999V0200501N008219999999N0000001N9-00391+99999100081ADDGF108991999999999999999999
0029028060999991913050406004+69100+027217FM-12+014999999V0203601N002119999999N0000001N9-00391+99999100241ADDGF108991999999999999999999
0029028060999991913050413004+69100+027217FM-12+014999999V0200901N002119999999N0000001N9+00171+99999100381ADDGF106991999999999999999999
0029028060999991913050420004+69100+027217FM-12+014999999V0209991C000019999999N0000001N9-00171+99999100581ADDGF104991999999999999999999
0029028060999991913050506004+69100+027217FM-12+014999999V0209991C000019999999N0000001N9-00441+99999100541ADDGF100991999999999999999999
0029028060999991913050513004+69100+027217FM-12+014999999V0202301N004119999999N0000001N9+00671+99999100241ADDGF100991999999999999999999
0029028060999991913050520004+69100+027217FM-12+014999999V0203201N002119999999N0000001N9+00331+99999100101ADDGF106991999999999999999999
0046028060999991913050606004+69100+027217FM-12+014999999V0200501N001019999999N0000001N9+00281+99999100261ADDAJ100009199999999GF108991999999999999999999
0029028060999991913050613004+69100+027217FM-12+014999999V0200201N006219999999N0000001N9+00441+99999100341ADDGF106991999999999999999999
0029028060999991913050620004+69100+027217FM-12+014999999V0209991C000019999999N0000001N9+00171+99999100501ADDGF108991999999999999999999
0046028060999991913050706004+69100+027217FM-12+014999999V0200901N002119999999N0000001N9+00171+99999100701ADDAJ100009199999999GF104991999999999999999999
0029028060999991913050713004+69100+027217FM-12+014999999V0202501N002119999999N0000001N9+00611+99999100481ADDGF100991999999999999999999
0029028060999991913050720004+69100+027217FM-12+014999999V0202501N002119999999N0000001N9+00391+99999100391ADDGF104991999999999999999999
0046028060999991913050806004+69100+027217FM-12+014999999V0203401N001019999999N0000001N9+00391+99999100281ADDAJ100009199999999GF108991999999999999999999
0029028060999991913050813004+69100+027217FM-12+014999999V0203201N006219999999N0000001N9+00501+99999100461ADDGF108991999999999999999999
0029028060999991913050820004+69100+027217FM-12+014999999V0209991C000019999999N0000001N9+00171+99999100551ADDGF108991999999999999999999
0046028060999991913050906004+69100+027217FM-12+014999999V0202501N006219999999N0000001N9+00281+99999100421ADDAJ100009199999999GF100991999999999999999999
0029028060999991913050913004+69100+027217FM-12+014999999V0202701N006219999999N0000001N9+00561+99999100351ADDGF106991999999999999999999
0029028060999991913050920004+69100+027217FM-12+014999999V0202701N001019999999N0000001N9+00281+99999100271ADDGF108991999999999999999999
0046028060999991913051006004+69100+027217FM-12+014999999V0202301N006219999999N0000001N9+00221+99999099951ADDAJ100009199999999GF108991999999999999999999
0029028060999991913051013004+69100+027217FM-12+014999999V0202501N009819999999N0000001N9+00611+99999099641ADDGF104991999999999999999999
0029028060999991913051020004+69100+027217FM-12+014999999V0203601N004119999999N0000001N9+00331+99999099541ADDGF104991999999999999999999
0046028060999991913051106004+69100+027217FM-12+014999999V0200201N001019999999N0000001N9+00061+99999099721ADDAJ100009199999999GF108991999999999999999999
0029028060999991913051113004+69100+027217FM-12+014999999V0203601N008219999999N0000001N9+00111+99999100061ADDGF104991999999999999999999
0035028060999991913051120004+69100+027217FM-12+014999999V0203601N008219999999N0000001N9-00281+99999100341ADDGF108991999999999999999999MW1721
0046028060999991913051206004+69100+027217FM-12+014999999V0200201N006219999999N0000001N9-00281+99999100081ADDAJ100009199999999GF108991999999999999999999
0035028060999991913051213004+69100+027217FM-12+014999999V0200501N008219999999N0000001N9-00111+99999100061ADDGF108991999999999999999999MW1701
0029028060999991913051220004+69100+027217FM-12+014999999V0203601N006219999999N0000001N9-00281+99999100261ADDGF106991999999999999999999
0046028060999991913051306004+69100+027217FM-12+014999999V0203201N004119999999N0000001N9-00281+99999100381ADDAJ100009199999999GF106991999999999999999999
0029028060999991913051313004+69100+027217FM-12+014999999V0203201N006219999999N0000001N9-00061+99999100321ADDGF108991999999999999999999
0035028060999991913051320004+69100+027217FM-12+014999999V0203601N011819999999N0000001N9-00331+99999099991ADDGF108991999999999999999999MW1701
0046028060999991913051406004+69100+027217FM-12+014999999V0203401N008219999999N0000001N9-00281+99999100021ADDAJ100009199999999GF104991999999999999999999
0029028060999991913051413004+69100+027217FM-12+014999999V0203601N009819999999N0000001N9+00001+99999099881ADDGF104991999999999999999999
0029028060999991913051420004+69100+027217FM-12+014999999V0203201N006219999999N0000001N9-00171+99999099521ADDGF108991999999999999999999
0052028060999991913051506004+69100+027217FM-12+014999999V0203401N011819999999N0000001N9-00111+99999098941ADDAJ100009199999999GF108991999999999999999999MW1891
0029028060999991913051513004+69100+027217FM-12+014999999V0203601N008219999999N0000001N9+00221+99999098901ADDGF104991999999999999999999
0029028060999991913051520004+69100+027217FM-12+014999999V0202701N006219999999N0000001N9-00061+99999098781ADDGF106991999999999999999999
0046028060999991913051606004+69100+027217FM-12+014999999V0203401N009819999999N0000001N9+00061+99999098261ADDAJ100009199999999GF108991999999999999999999
0029028060999991913051613004+69100+027217FM-12+014999999V0202701N008219999999N0000001N9+00221+99999098431ADDGF104991999999999999999999
0029028060999991913051620004+69100+027217FM-12+014999999V0203601N001019999999N0000001N9-00111+99999098321ADDGF106991999999999999999999
0046028060999991913051706004+69100+027217FM-12+014999999V0203601N006219999999N0000001N9-00111+99999097861ADDAJ100009199999999GF108991999999999999999999
0029028060999991913051713004+69100+027217FM-12+014999999V0200501N009819999999N0000001N9+00111+99999098021ADDGF106991999999999999999999
0029028060999991913051720004+69100+027217FM-12+014999999V0203601N006219999999N0000001N9-00281+99999098671ADDGF104991999999999999999999
0046028060999991913051806004+69100+027217FM-12+014999999V0203401N004119999999N0000001N9-00061+99999099601ADDAJ100009199999999GF104991999999999999999999
0029028060999991913051813004+69100+027217FM-12+014999999V0203401N006219999999N0000001N9+00331+99999099921ADDGF104991999999999999999999
0029028060999991913051820004+69100+027217FM-12+014999999V0200901N001019999999N0000001N9+00001+99999100071ADDGF100991999999999999999999
0046028060999991913051906004+69100+027217FM-12+014999999V0201801N004119999999N0000001N9+00221+99999099831ADDAJ100009199999999GF108991999999999999999999
0029028060999991913051913004+69100+027217FM-12+014999999V0202001N009819999999N0000001N9+00941+99999099341ADDGF100991999999999999999999
0029028060999991913051920004+69100+027217FM-12+014999999V0201601N001019999999N0000001N9+00721+99999098911ADDGF104991999999999999999999
0046028060999991913052006004+69100+027217FM-12+014999999V0201801N001019999999N0000001N9+00501+99999098591ADDAJ100009199999999GF108991999999999999999999
0029028060999991913052013004+69100+027217FM-12+014999999V0202501N011819999999N0000001N9+01111+99999098581ADDGF104991999999999999999999
0029028060999991913052020004+69100+027217FM-12+014999999V0202301N006219999999N0000001N9+00831+99999098621ADDGF105991999999999999999999
0046028060999991913052106004+69100+027217FM-12+014999999V0202701N008219999999N0000001N9+00611+99999098681ADDAJ100009199999999GF104991999999999999999999
0029028060999991913052113004+69100+027217FM-12+014999999V0202901N009819999999N0000001N9+01001+99999098781ADDGF104991999999999999999999
0029028060999991913052120004+69100+027217FM-12+014999999V0203601N006219999999N0000001N9+00281+99999099221ADDGF106991999999999999999999
0052028060999991913052206004+69100+027217FM-12+014999999V0202301N002119999999N0000001N9+00111+99999099551ADDAJ100009199999999GF108991999999999999999999MW1701
0029028060999991913052213004+69100+027217FM-12+014999999V0203601N008219999999N0000001N9+00441+99999099921ADDGF104991999999999999999999
0029028060999991913052220004+69100+027217FM-12+014999999V0200201N002119999999N0000001N9+00171+99999100321ADDGF106991999999999999999999
0046028060999991913052306004+69100+027217FM-12+014999999V0200901N002119999999N0000001N9+00281+99999100461ADDAJ100009199999999GF105991999999999999999999
0029028060999991913052313004+69100+027217FM-12+014999999V0201101N006219999999N0000001N9+00891+99999100121ADDGF100991999999999999999999
0029028060999991913052320004+69100+027217FM-12+014999999V0200901N001019999999N0000001N9+00831+99999099711ADDGF106991999999999999999999
0052028060999991913052406004+69100+027217FM-12+014999999V0201601N004119999999N0000001N9+00891+99999099111ADDAJ100009199999999GF108991999999999999999999MW1621
0029028060999991913052413004+69100+027217FM-12+014999999V0202301N009819999999N0000001N9+01501+99999098721ADDGF104991999999999999999999
0035028060999991913052420004+69100+027217FM-12+014999999V0202001N001019999999N0000001N9+01111+99999098461ADDGF108991999999999999999999MW1601
0046028060999991913052506004+69100+027217FM-12+014999999V0201801N004119999999N0000001N9+00831+99999097781ADDAJ100009199999999GF108991999999999999999999
0035028060999991913052513004+69100+027217FM-12+014999999V0203201N009819999999N0000001N9+00441+99999098101ADDGF108991999999999999999999MW1621
0029028060999991913052520004+69100+027217FM-12+014999999V0203401N011819999999N0000001N9+00111+99999098801ADDGF106991999999999999999999
0046028060999991913052606004+69100+027217FM-12+014999999V0200201N011819999999N0000001N9+00221+99999099241ADDAJ100009199999999GF104991999999999999999999
0029028060999991913052613004+69100+027217FM-12+014999999V0202501N006219999999N0000001N9+00331+99999099381ADDGF106991999999999999999999
0029028060999991913052620004+69100+027217FM-12+014999999V0203601N002119999999N0000001N9+00221+99999099361ADDGF108991999999999999999999
0046028060999991913052706004+69100+027217FM-12+014999999V0200501N004119999999N0000001N9+00111+99999099261ADDAJ100009199999999GF108991999999999999999999
0029028060999991913052713004+69100+027217FM-12+014999999V0203601N006219999999N0000001N9+00671+99999099261ADDGF108991999999999999999999
0029028060999991913052720004+69100+027217FM-12+014999999V0203401N006219999999N0000001N9+00331+99999099361ADDGF108991999999999999999999
0046028060999991913052806004+69100+027217FM-12+014999999V0203601N006219999999N0000001N9+00171+99999099461ADDAJ100009199999999GF108991999999999999999999
0029028060999991913052813004+69100+027217FM-12+014999999V0203601N001019999999N0000001N9+00441+99999099601ADDGF108991999999999999999999
0035028060999991913052820004+69100+027217FM-12+014999999V0200501N006219999999N0000001N9+00111+99999099711ADDGF108991999999999999999999MW1681
0046028060999991913052906004+69100+027217FM-12+014999999V0203401N001019999999N0000001N9+00111+99999099921ADDAJ100009199999999GF106991999999999999999999
0029028060999991913052913004+69100+027217FM-12+014999999V0203201N002119999999N0000001N9+00441+99999099921ADDGF106991999999999999999999
0029028060999991913052920004+69100+027217FM-12+014999999V0200501N004119999999N0000001N9+00221+99999099791ADDGF108991999999999999999999
0046028060999991913053006004+69100+027217FM-12+014999999V0202001N002119999999N0000001N9+00391+99999099741ADDAJ100009199999999GF108991999999999999999999
0029028060999991913053013004+69100+027217FM-12+014999999V0202301N004119999999N0000001N9+00891+99999099441ADDGF106991999999999999999999
0035028060999991913053020004+69100+027217FM-12+014999999V0201801N004119999999N0000001N9+00671+99999099241ADDGF108991999999999999999999MW1601
0046028060999991913053106004+69100+027217FM-12+014999999V0202701N001019999999N0000001N9+00611+99999099441ADDAJ100009199999999GF106991999999999999999999
0029028060999991913053113004+69100+027217FM-12+014999999V0209991C000019999999N0000001N9+01001+99999099631ADDGF106991999999999999999999
0029028060999991913053120004+69100+027217FM-12+014999999V0200501N006219999999N0000001N9+00441+99999099871ADDGF100991999999999999999999
0052028060999991913060106004+69100+027217FM-12+014999999V0200901N004119999999N0000001N9+00281+99999099741ADDAJ100009199999999GF108991999999999999999999MW1621
0035028060999991913060113004+69100+027217FM-12+014999999V0200901N006219999999N0000001N9+00831+99999099161ADDGF108991999999999999999999MW1621
0035028060999991913060120004+69100+027217FM-12+014999999V0200901N002119999999N0000001N9+01221+99999098201ADDGF108991999999999999999999MW1621
0046028060999991913060206004+69100+027217FM-12+014999999V0202501N006219999999N0000001N9+01221+99999098431ADDAJ100009199999999GF106991999999999999999999
0029028060999991913060213004+69100+027217FM-12+014999999V0202701N011819999999N0000001N9+01171+99999098941ADDGF104991999999999999999999
0029028060999991913060220004+69100+027217FM-12+014999999V0203201N013919999999N0000001N9+01001+99999099111ADDGF106991999999999999999999
0046028060999991913060306004+69100+027217FM-12+014999999V0202701N011819999999N0000001N9+01061+99999098601ADDAJ100009199999999GF104991999999999999999999
0035028060999991913060313004+69100+027217FM-12+014999999V0203601N013919999999N0000001N9+00781+99999098951ADDGF108991999999999999999999MW1811
0029028060999991913060320004+69100+027217FM-12+014999999V0203601N008219999999N0000001N9+00721+99999099111ADDGF106991999999999999999999
0046028060999991913060406004+69100+027217FM-12+014999999V0203601N004119999999N0000001N9+00501+99999099341ADDAJ100009199999999GF108991999999999999999999
0029028060999991913060413004+69100+027217FM-12+014999999V0200901N006219999999N0000001N9+00611+99999099501ADDGF106991999999999999999999
0029028060999991913060420004+69100+027217FM-12+014999999V0200901N004119999999N0000001N9+00441+99999099591ADDGF106991999999999999999999
0046028060999991913060506004+69100+027217FM-12+014999999V0201401N004119999999N0000001N9+00331+99999099671ADDAJ100009199999999GF106991999999999999999999
0029028060999991913060513004+69100+027217FM-12+014999999V0202701N004119999999N0000001N9+01281+99999099501ADDGF104991999999999999999999
0035028060999991913060520004+69100+027217FM-12+014999999V0202301N002119999999N0000001N9+00891+99999099141ADDGF108991999999999999999999MW1621
0052028060999991913060606004+69100+027217FM-12+014999999V0202301N006219999999N0000001N9+00721+99999098641ADDAJ100009199999999GF108991999999999999999999MW1621
0035028060999991913060613004+69100+027217FM-12+014999999V0203401N008219999999N0000001N9+01061+99999098591ADDGF108991999999999999999999MW1811
0029028060999991913060620004+69100+027217FM-12+014999999V0203601N008219999999N0000001N9+00671+99999098901ADDGF108991999999999999999999
0046028060999991913060706004+69100+027217FM-12+014999999V0200901N008219999999N0000001N9+00221+99999099081ADDAJ100009199999999GF108991999999999999999999
0029028060999991913060713004+69100+027217FM-12+014999999V0200901N009819999999N0000001N9+00331+99999098951ADDGF108991999999999999999999
0029028060999991913060720004+69100+027217FM-12+014999999V0200501N009819999999N0000001N9+00221+99999098831ADDGF108991999999999999999999
0052028060999991913060806004+69100+027217FM-12+014999999V0200901N008219999999N0000001N9+00001+99999098111ADDAJ100009199999999GF108991999999999999999999MW1701
0035028060999991913060813004+69100+027217FM-12+014999999V0200701N008219999999N0000001N9+00221+99999097841ADDGF108991999999999999999999MW1701
0035028060999991913060820004+69100+027217FM-12+014999999V0200501N006219999999N0000001N9+00111+99999097841ADDGF108991999999999999999999MW1691
0046028060999991913060906004+69100+027217FM-12+014999999V0203601N002119999999N0000001N9+00221+99999097581ADDAJ100009199999999GF108991999999999999999999
0029028060999991913060913004+69100+027217FM-12+014999999V0203401N004119999999N0000001N9+00501+99999097431ADDGF106991999999999999999999
0029028060999991913060920004+69100+027217FM-12+014999999V0200501N006219999999N0000001N9+00221+99999097471ADDGF108991999999999999999999
0046028060999991913061006004+69100+027217FM-12+014999999V0203601N004119999999N0000001N9+00111+99999097341ADDAJ100009199999999GF108991999999999999999999
0029028060999991913061013004+69100+027217FM-12+014999999V0200901N002119999999N0000001N9+00441+99999097781ADDGF106991999999999999999999
0035028060999991913061020004+69100+027217FM-12+014999999V0200901N004119999999N0000001N9+00281+99999097791ADDGF108991999999999999999999MW1701
0046028060999991913061106004+69100+027217FM-12+014999999V0201801N001019999999N0000001N9+00281+99999097401ADDAJ100009199999999GF108991999999999999999999
0035028060999991913061113004+69100+027217FM-12+014999999V0202701N006219999999N0000001N9+00721+99999097421ADDGF108991999999999999999999MW1601
0035028060999991913061120004+69100+027217FM-12+014999999V0203601N001019999999N0000001N9+00331+99999097481ADDGF108991999999999999999999MW1601
0052028060999991913061206004+69100+027217FM-12+014999999V0200501N006219999999N0000001N9+00221+99999097821ADDAJ100009199999999GF108991999999999999999999MW1691
0029028060999991913061213004+69100+027217FM-12+014999999V0203601N011819999999N0000001N9+00441+99999097801ADDGF108991999999999999999999
0035028060999991913061220004+69100+027217FM-12+014999999V0200501N009819999999N0000001N9+00221+99999098041ADDGF108991999999999999999999MW1601
0046028060999991913061306004+69100+027217FM-12+014999999V0203601N008219999999N0000001N9+00331+99999098201ADDAJ100009199999999GF106991999999999999999999
0029028060999991913061313004+69100+027217FM-12+014999999V0203601N009819999999N0000001N9+00671+99999098511ADDGF106991999999999999999999
0029028060999991913061320004+69100+027217FM-12+014999999V0203401N006219999999N0000001N9+00441+99999098941ADDGF104991999999999999999999
0046028060999991913061406004+69100+027217FM-12+014999999V0202501N006219999999N0000001N9+00501+99999099241ADDAJ100009199999999GF104991999999999999999999
0035028060999991913061413004+69100+027217FM-12+014999999V0203201N006219999999N0000001N9+00831+99999099431ADDGF108991999999999999999999MW1811
0029028060999991913061420004+69100+027217FM-12+014999999V0203601N004119999999N0000001N9+00611+99999099671ADDGF106991999999999999999999
0046028060999991913061506004+69100+027217FM-12+014999999V0201801N004119999999N0000001N9+00721+99999100201ADDAJ100009199999999GF100991999999999999999999
0029028060999991913061513004+69100+027217FM-12+014999999V0202301N009819999999N0000001N9+01281+99999100121ADDGF104991999999999999999999
0035028060999991913061520004+69100+027217FM-12+014999999V0202301N008219999999N0000001N9+01061+99999100111ADDGF108991999999999999999999MW1601
0046028060999991913061606004+69100+027217FM-12+014999999V0202501N008219999999N0000001N9+01221+99999100461ADDAJ100009199999999GF100991999999999999999999
0029028060999991913061613004+69100+027217FM-12+014999999V0202701N009819999999N0000001N9+01941+99999100281ADDGF104991999999999999999999
0029028060999991913061620004+69100+027217FM-12+014999999V0202701N002119999999N0000001N9+01561+99999100261ADDGF108991999999999999999999
0052028060999991913061706004+69100+027217FM-12+014999999V0200501N004119999999N0000001N9+01111+99999100301ADDAJ100009199999999GF108991999999999999999999MW1601
0035028060999991913061713004+69100+027217FM-12+014999999V0200501N008219999999N0000001N9+00891+99999100111ADDGF108991999999999999999999MW1621
0029028060999991913061720004+69100+027217FM-12+014999999V0203601N009819999999N0000001N9+00501+99999100461ADDGF108991999999999999999999
0046028060999991913061806004+69100+027217FM-12+014999999V0203601N011819999999N0000001N9+00561+99999100321ADDAJ100009199999999GF108991999999999999999999
0029028060999991913061813004+69100+027217FM-12+014999999V0200501N009819999999N0000001N9+00831+99999100281ADDGF104991999999999999999999
0029028060999991913061820004+69100+027217FM-12+014999999V0200501N011819999999N0000001N9+00611+99999100521ADDGF108991999999999999999999
0046028060999991913061906004+69100+027217FM-12+014999999V0200201N011819999999N0000001N9+00501+99999100591ADDAJ100009199999999GF105991999999999999999999
0029028060999991913061913004+69100+027217FM-12+014999999V0200501N009819999999N0000001N9+01111+99999100541ADDGF100991999999999999999999
0029028060999991913061920004+69100+027217FM-12+014999999V0200901N004119999999N0000001N9+00671+99999100441ADDGF100991999999999999999999
0046028060999991913062006004+69100+027217FM-12+014999999V0200501N006219999999N0000001N9+00561+99999100431ADDAJ100009199999999GF100991999999999999999999
0029028060999991913062013004+69100+027217FM-12+014999999V0200701N008219999999N0000001N9+01061+99999100381ADDGF100991999999999999999999
0029028060999991913062020004+69100+027217FM-12+014999999V0200501N006219999999N0000001N9+00891+99999100361ADDGF100991999999999999999999
0046028060999991913062106004+69100+027217FM-12+014999999V0200501N006219999999N0000001N9+00611+99999100401ADDAJ100009199999999GF108991999999999999999999
0029028060999991913062113004+69100+027217FM-12+014999999V0200201N006219999999N0000001N9+01221+99999100301ADDGF100991999999999999999999
0029028060999991913062120004+69100+027217FM-12+014999999V0203601N006219999999N0000001N9+00941+99999100261ADDGF100991999999999999999999
0046028060999991913062206004+69100+027217FM-12+014999999V0201801N002119999999N0000001N9+00891+99999100271ADDAJ100009199999999GF100991999999999999999999
0029028060999991913062213004+69100+027217FM-12+014999999V0202301N002119999999N0000001N9+02061+99999099981ADDGF100991999999999999999999
0029028060999991913062220004+69100+027217FM-12+014999999V0200201N006219999999N0000001N9+01561+99999099861ADDGF100991999999999999999999
0046028060999991913062306004+69100+027217FM-12+014999999V0203601N006219999999N0000001N9+01331+99999099791ADDAJ100009199999999GF100991999999999999999999
0029028060999991913062313004+69100+027217FM-12+014999999V0200201N008219999999N0000001N9+01501+99999099701ADDGF100991999999999999999999
0029028060999991913062320004+69100+027217FM-12+014999999V0200501N008219999999N0000001N9+00781+99999099831ADDGF108991999999999999999999
0046028060999991913062406004+69100+027217FM-12+014999999V0200501N006219999999N0000001N9+00501+99999099841ADDAJ100009199999999GF108991999999999999999999
0029028060999991913062413004+69100+027217FM-12+014999999V0203601N006219999999N0000001N9+01061+99999099581ADDGF100991999999999999999999
0029028060999991913062420004+69100+027217FM-12+014999999V0203601N009819999999N0000001N9+00721+99999099621ADDGF100991999999999999999999
0046028060999991913062506004+69100+027217FM-12+014999999V0203601N006219999999N0000001N9+00561+99999099831ADDAJ100009199999999GF104991999999999999999999
0029028060999991913062513004+69100+027217FM-12+014999999V0200501N006219999999N0000001N9+00941+99999099901ADDGF100991999999999999999999
0029028060999991913062520004+69100+027217FM-12+014999999V0200501N004119999999N0000001N9+00781+99999099961ADDGF100991999999999999999999
0046028060999991913062606004+69100+027217FM-12+014999999V0202301N002119999999N0000001N9+00781+99999099861ADDAJ100009199999999GF100991999999999999999999
0029028060999991913062613004+69100+027217FM-12+014999999V0201601N006219999999N0000001N9+01441+99999099561ADDGF100991999999999999999999
0029028060999991913062620004+69100+027217FM-12+014999999V0200901N001019999999N0000001N9+01331+99999099321ADDGF100991999999999999999999
0046028060999991913062706004+69100+027217FM-12+014999999V0200201N002119999999N0000001N9+00831+99999099421ADDAJ100009199999999GF106991999999999999999999
0029028060999991913062713004+69100+027217FM-12+014999999V0202501N004119999999N0000001N9+01501+99999099241ADDGF104991999999999999999999
0029028060999991913062720004+69100+027217FM-12+014999999V0201601N002119999999N0000001N9+01171+99999099361ADDGF106991999999999999999999
0046028060999991913062806004+69100+027217FM-12+014999999V0201801N001019999999N0000001N9+00891+99999099621ADDAJ100009199999999GF100991999999999999999999
0029028060999991913062813004+69100+027217FM-12+014999999V0201801N002119999999N0000001N9+01561+99999099461ADDGF104991999999999999999999
0029028060999991913062820004+69100+027217FM-12+014999999V0200201N008219999999N0000001N9+01221+99999099551ADDGF108991999999999999999999
0046028060999991913062906004+69100+027217FM-12+014999999V0200501N008219999999N0000001N9+01001+99999099681ADDAJ100009199999999GF100991999999999999999999
0029028060999991913062913004+69100+027217FM-12+014999999V0200501N008219999999N0000001N9+01561+99999099721ADDGF105991999999999999999999
0029028060999991913062920004+69100+027217FM-12+014999999V0200901N004119999999N0000001N9+01331+99999099951ADDGF102991999999999999999999
0046028060999991913063006004+69100+027217FM-12+014999999V0200901N002119999999N0000001N9+01441+99999100181ADDAJ100009199999999GF100991999999999999999999
0029028060999991913063013004+69100+027217FM-12+014999999V0202001N004119999999N0000001N9+01831+99999100261ADDGF100991999999999999999999
0029028060999991913063020004+69100+027217FM-12+014999999V0200501N004119999999N0000001N9+01501+99999100381ADDGF100991999999999999999999
0046028060999991913070106004+69100+027217FM-12+014999999V0200501N004119999999N0000001N9+01281+99999100441ADDAJ100009199999999GF100991999999999999999999
0029028060999991913070113004+69100+027217FM-12+014999999V0202501N006219999999N0000001N9+02001+99999100421ADDGF100991999999999999999999
0029028060999991913070120004+69100+027217FM-12+014999999V0200701N008219999999N0000001N9+01441+99999100361ADDGF106991999999999999999999
0046028060999991913070206004+69100+027217FM-12+014999999V0201101N004119999999N0000001N9+01221+99999100391ADDAJ100009199999999GF108991999999999999999999
0035028060999991913070213004+69100+027217FM-12+014999999V0202901N008219999999N0000001N9+01501+99999100161ADDGF108991999999999999999999MW1621
0029028060999991913070220004+69100+027217FM-12+014999999V0200501N002119999999N0000001N9+01171+99999999999ADDGF106991999999999999999999
0046028060999991913070306004+69100+027217FM-12+014999999V0202301N004119999999N0000001N9+01221+99999099101ADDAJ100009199999999GF106991999999999999999999
0029028060999991913070313004+69100+027217FM-12+014999999V0202501N011819999999N0000001N9+01941+99999098471ADDGF105991999999999999999999
0029028060999991913070320004+69100+027217FM-12+014999999V0203401N001019999999N0000001N9+01501+99999098721ADDGF106991999999999999999999
0046028060999991913070406004+69100+027217FM-12+014999999V0202501N004119999999N0000001N9+01281+99999098621ADDAJ100009199999999GF100991999999999999999999
0029028060999991913070413004+69100+027217FM-12+014999999V0200501N006219999999N0000001N9+01331+99999098431ADDGF108991999999999999999999
0035028060999991913070420004+69100+027217FM-12+014999999V0200501N008219999999N0000001N9+00781+99999098381ADDGF108991999999999999999999MW1641
0046028060999991913070506004+69100+027217FM-12+014999999V0200501N006219999999N0000001N9+00561+99999098351ADDAJ100009199999999GF108991999999999999999999
0029028060999991913070513004+69100+027217FM-12+014999999V0203601N002119999999N0000001N9+01111+99999098351ADDGF106991999999999999999999
0029028060999991913070520004+69100+027217FM-12+014999999V0203601N006219999999N0000001N9+00891+99999098441ADDGF106991999999999999999999
0046028060999991913070606004+69100+027217FM-12+014999999V0201601N004119999999N0000001N9+01001+99999098701ADDAJ100009199999999GF106991999999999999999999
0029028060999991913070613004+69100+027217FM-12+014999999V0200501N006219999999N0000001N9+01221+99999098701ADDGF106991999999999999999999
0029028060999991913070620004+69100+027217FM-12+014999999V0200501N002119999999N0000001N9+00831+99999099081ADDGF100991999999999999999999
0046028060999991913070706004+69100+027217FM-12+014999999V0200501N002119999999N0000001N9+01001+99999099551ADDAJ100009199999999GF100991999999999999999999
0029028060999991913070713004+69100+027217FM-12+014999999V0201801N004119999999N0000001N9+01391+99999099671ADDGF104991999999999999999999
0029028060999991913070720004+69100+027217FM-12+014999999V0202701N004119999999N0000001N9+01111+99999099991ADDGF104991999999999999999999
0046028060999991913070806004+69100+027217FM-12+014999999V0202301N002119999999N0000001N9+01391+99999100191ADDAJ100009199999999GF100991999999999999999999
0029028060999991913070813004+69100+027217FM-12+014999999V0201801N006219999999N0000001N9+01781+99999100191ADDGF100991999999999999999999
0029028060999991913070820004+69100+027217FM-12+014999999V0201401N004119999999N0000001N9+01501+99999100381ADDGF100991999999999999999999
0046028060999991913070906004+69100+027217FM-12+014999999V0201401N006219999999N0000001N9+01501+99999100641ADDAJ100009199999999GF100991999999999999999999
0029028060999991913070913004+69100+027217FM-12+014999999V0201401N006219999999N0000001N9+01831+99999100471ADDGF100991999999999999999999
0029028060999991913070920004+69100+027217FM-12+014999999V0201801N002119999999N0000001N9+01611+99999100481ADDGF100991999999999999999999
0046028060999991913071006004+69100+027217FM-12+014999999V0201801N006219999999N0000001N9+01611+99999100511ADDAJ100009199999999GF100991999999999999999999
0029028060999991913071013004+69100+027217FM-12+014999999V0202001N006219999999N0000001N9+02221+99999100321ADDGF100991999999999999999999
0029028060999991913071020004+69100+027217FM-12+014999999V0201401N002119999999N0000001N9+01941+99999100231ADDGF100991999999999999999999
0046028060999991913071106004+69100+027217FM-12+014999999V0201601N002119999999N0000001N9+01891+99999100201ADDAJ100009199999999GF100991999999999999999999
0029028060999991913071113004+69100+027217FM-12+014999999V0202301N006219999999N0000001N9+02561+99999100071ADDGF104991999999999999999999
0029028060999991913071120004+69100+027217FM-12+014999999V0202301N002119999999N0000001N9+02111+99999099901ADDGF104991999999999999999999
0046028060999991913071206004+69100+027217FM-12+014999999V0202301N006219999999N0000001N9+02111+99999099941ADDAJ100009199999999GF100991999999999999999999
0035028060999991913071213004+69100+027217FM-12+014999999V0201801N004119999999N0000001N9+02561+99999099831ADDGF104991999999999999999999MW1171
0029028060999991913071220004+69100+027217FM-12+014999999V0209991C000019999999N0000001N9+02171+99999099871ADDGF100991999999999999999999
0046028060999991913071306004+69100+027217FM-12+014999999V0202301N001019999999N0000001N9+02391+99999100101ADDAJ100009199999999GF100991999999999999999999
0029028060999991913071313004+69100+027217FM-12+014999999V0202301N002119999999N0000001N9+02941+99999099871ADDGF108991999999999999999999
0029028060999991913071320004+69100+027217FM-12+014999999V0209991C000019999999N0000001N9+02281+99999099951ADDGF100991999999999999999999
0046028060999991913071406004+69100+027217FM-12+014999999V0209991C000019999999N0000001N9+02501+99999099981ADDAJ100009199999999GF100991999999999999999999
0029028060999991913071413004+69100+027217FM-12+014999999V0201601N004119999999N0000001N9+03001+99999099881ADDGF100991999999999999999999
0035028060999991913071420004+69100+027217FM-12+014999999V0203601N004119999999N0000001N9+02061+99999099721ADDGF108991999999999999999999MW1171
0046028060999991913071506004+69100+027217FM-12+014999999V0202301N002119999999N0000001N9+02281+99999099701ADDAJ100009199999999GF100991999999999999999999
0029028060999991913071513004+69100+027217FM-12+014999999V0201801N004119999999N0000001N9+02891+99999099561ADDGF100991999999999999999999
0029028060999991913071520004+69100+027217FM-12+014999999V0200501N002119999999N0000001N9+02061+99999099361ADDGF104991999999999999999999
0046028060999991913071606004+69100+027217FM-12+014999999V0200501N002119999999N0000001N9+01891+99999099421ADDAJ100009199999999GF100991999999999999999999
0029028060999991913071613004+69100+027217FM-12+014999999V0200701N004119999999N0000001N9+02671+99999099311ADDGF100991999999999999999999
0029028060999991913071620004+69100+027217FM-12+014999999V0200901N002119999999N0000001N9+02221+99999099301ADDGF100991999999999999999999
0046028060999991913071706004+69100+027217FM-12+014999999V0201601N004119999999N0000001N9+02171+99999099581ADDAJ100009199999999GF100991999999999999999999
0029028060999991913071713004+69100+027217FM-12+014999999V0201601N006219999999N0000001N9+02721+99999099581ADDGF100991999999999999999999
0029028060999991913071720004+69100+027217FM-12+014999999V0201401N002119999999N0000001N9+02281+99999099661ADDGF100991999999999999999999
0046028060999991913071806004+69100+027217FM-12+014999999V0201801N002119999999N0000001N9+02221+99999099901ADDAJ100009199999999GF100991999999999999999999
0029028060999991913071813004+69100+027217FM-12+014999999V0201401N004119999999N0000001N9+02781+99999099701ADDGF100991999999999999999999
0029028060999991913071820004+69100+027217FM-12+014999999V0209991C000019999999N0000001N9+02281+99999099581ADDGF100991999999999999999999
0046028060999991913071906004+69100+027217FM-12+014999999V0201401N004119999999N0000001N9+02111+99999099661ADDAJ100009199999999GF104991999999999999999999
0029028060999991913071913004+69100+027217FM-12+014999999V0201101N006219999999N0000001N9+02331+99999099401ADDGF104991999999999999999999
0029028060999991913071920004+69100+027217FM-12+014999999V0200901N001019999999N0000001N9+02281+99999099341ADDGF100991999999999999999999
0046028060999991913072006004+69100+027217FM-12+014999999V0201601N004119999999N0000001N9+02171+99999099361ADDAJ100009199999999GF100991999999999999999999
0029028060999991913072013004+69100+027217FM-12+014999999V0201601N004119999999N0000001N9+02441+99999099321ADDGF104991999999999999999999
0029028060999991913072020004+69100+027217FM-12+014999999V0209991C000019999999N0000001N9+02221+99999099321ADDGF100991999999999999999999
0046028060999991913072106004+69100+027217FM-12+014999999V0201601N002119999999N0000001N9+02111+99999099551ADDAJ100009199999999GF100991999999999999999999
0029028060999991913072113004+69100+027217FM-12+014999999V0202001N004119999999N0000001N9+02501+99999099461ADDGF104991999999999999999999
0029028060999991913072120004+69100+027217FM-12+014999999V0209991C000019999999N0000001N9+02111+99999099621ADDGF100991999999999999999999
0046028060999991913072206004+69100+027217FM-12+014999999V0202301N001019999999N0000001N9+02111+99999099741ADDAJ100009199999999GF100991999999999999999999
0029028060999991913072213004+69100+027217FM-12+014999999V0202501N006219999999N0000001N9+02671+99999099711ADDGF104991999999999999999999
0029028060999991913072220004+69100+027217FM-12+014999999V0200501N004119999999N0000001N9+01831+99999099721ADDGF108991999999999999999999
0052028060999991913072306004+69100+027217FM-12+014999999V0201801N002119999999N0000001N9+01721+99999099111ADDAJ100009199999999GF108991999999999999999999MW1621
0035028060999991913072313004+69100+027217FM-12+014999999V0203401N008219999999N0000001N9+01391+99999099621ADDGF108991999999999999999999MW1601
0029028060999991913072320004+69100+027217FM-12+014999999V0202301N006219999999N0000001N9+01171+99999099911ADDGF104991999999999999999999
0046028060999991913072406004+69100+027217FM-12+014999999V0202701N008219999999N0000001N9+01001+99999099981ADDAJ100009199999999GF104991999999999999999999
0029028060999991913072413004+69100+027217FM-12+014999999V0202701N008219999999N0000001N9+01171+99999099831ADDGF108991999999999999999999
0029028060999991913072420004+69100+027217FM-12+014999999V0203201N013919999999N0000001N9+00671+99999099591ADDGF106991999999999999999999
0046028060999991913072506004+69100+027217FM-12+014999999V0203601N008219999999N0000001N9+00781+99999099791ADDAJ100009199999999GF108991999999999999999999
0035028060999991913072513004+69100+027217FM-12+014999999V0203201N006219999999N0000001N9+00941+99999099961ADDGF108991999999999999999999MW1601
0029028060999991913072520004+69100+027217FM-12+014999999V0203601N006219999999N0000001N9+00671+99999100021ADDGF104991999999999999999999
0052028060999991913072606004+69100+027217FM-12+014999999V0203201N002119999999N0000001N9+00561+99999099841ADDAJ100009199999999GF108991999999999999999999MW1601
0029028060999991913072613004+69100+027217FM-12+014999999V0202701N002119999999N0000001N9+00831+99999099981ADDGF106991999999999999999999
0029028060999991913072620004+69100+027217FM-12+014999999V0203601N006219999999N0000001N9+00671+99999100061ADDGF104991999999999999999999
0046028060999991913072706004+69100+027217FM-12+014999999V0203401N004119999999N0000001N9+00781+99999100281ADDAJ100009199999999GF104991999999999999999999
0029028060999991913072713004+69100+027217FM-12+014999999V0202701N004119999999N0000001N9+01061+99999100061ADDGF104991999999999999999999
0029028060999991913072720004+69100+027217FM-12+014999999V0201801N002119999999N0000001N9+00781+99999099951ADDGF100991999999999999999999
0046028060999991913072806004+69100+027217FM-12+014999999V0202501N006219999999N0000001N9+01001+99999099581ADDAJ100009199999999GF106991999999999999999999
0029028060999991913072813004+69100+027217FM-12+014999999V0200901N004119999999N0000001N9+01561+99999099281ADDGF108991999999999999999999
0029028060999991913072820004+69100+027217FM-12+014999999V0200901N001019999999N0000001N9+01061+99999099201ADDGF106991999999999999999999
0046028060999991913072906004+69100+027217FM-12+014999999V0202301N002119999999N0000001N9+01221+99999099231ADDAJ100009199999999GF104991999999999999999999
0029028060999991913072913004+69100+027217FM-12+014999999V0202701N002119999999N0000001N9+01781+99999099231ADDGF104991999999999999999999
0029028060999991913072920004+69100+027217FM-12+014999999V0209991C000019999999N0000001N9+01331+99999099201ADDGF108991999999999999999999
0052028060999991913073006004+69100+027217FM-12+014999999V0203601N006219999999N0000001N9+00831+99999099511ADDAJ100009199999999GF108991999999999999999999MW1601
0029028060999991913073013004+69100+027217FM-12+014999999V0203601N006219999999N0000001N9+01331+99999099601ADDGF106991999999999999999999
0029028060999991913073020004+69100+027217FM-12+014999999V0209991C000019999999N0000001N9+01061+99999099561ADDGF104991999999999999999999
0046028060999991913073106004+69100+027217FM-12+014999999V0202001N004119999999N0000001N9+01221+99999099271ADDAJ100009199999999GF104991999999999999999999
0035028060999991913073113004+69100+027217FM-12+014999999V0209991C000019999999N0000001N9+01561+99999098901ADDGF108991999999999999999999MW1601
0029028060999991913073120004+69100+027217FM-12+014999999V0203601N002119999999N0000001N9+01171+99999099161ADDGF106991999999999999999999
0046028060999991913080106004+69100+027217FM-12+014999999V0201401N002119999999N0000001N9+01001+99999099381ADDAJ100009199999999GF106991999999999999999999
0035028060999991913080113004+69100+027217FM-12+014999999V0203201N002119999999N0000001N9+01331+99999099031ADDGF108991999999999999999999MW1621
0035028060999991913080120004+69100+027217FM-12+014999999V0203201N004119999999N0000001N9+01171+99999098951ADDGF108991999999999999999999MW1621
0046028060999991913080206004+69100+027217FM-12+014999999V0200501N006219999999N0000001N9+01061+99999099031ADDAJ100009199999999GF108991999999999999999999
0029028060999991913080213004+69100+027217FM-12+014999999V0203601N008219999999N0000001N9+01281+99999099221ADDGF108991999999999999999999
0029028060999991913080220004+69100+027217FM-12+014999999V0209991C000019999999N0000001N9+01281+99999099121ADDGF100991999999999999999999
0052028060999991913080306004+69100+027217FM-12+014999999V0201801N004119999999N0000001N9+00891+99999098301ADDAJ100009199999999GF108991999999999999999999MW1621
0029028060999991913080313004+69100+027217FM-12+014999999V0201801N008219999999N0000001N9+01331+99999097631ADDGF108991999999999999999999
0029028060999991913080320004+69100+027217FM-12+014999999V0201801N002119999999N0000001N9+01221+99999097641ADDGF106991999999999999999999
0046028060999991913080406004+69100+027217FM-12+014999999V0202301N004119999999N0000001N9+01061+99999097861ADDAJ100009199999999GF104991999999999999999999
0029028060999991913080413004+69100+027217FM-12+014999999V0202301N004119999999N0000001N9+01501+99999098021ADDGF104991999999999999999999
0029028060999991913080420004+69100+027217FM-12+014999999V0203601N006219999999N0000001N9+00941+99999098431ADDGF106991999999999999999999
0046028060999991913080506004+69100+027217FM-12+014999999V0203601N006219999999N0000001N9+00781+99999099021ADDAJ100009199999999GF108991999999999999999999
0029028060999991913080513004+69100+027217FM-12+014999999V0200701N008219999999N0000001N9+01001+99999099181ADDGF108991999999999999999999
0029028060999991913080520004+69100+027217FM-12+014999999V0200501N008219999999N0000001N9+00781+99999099231ADDGF108991999999999999999999
0046028060999991913080606004+69100+027217FM-12+014999999V0200501N008219999999N0000001N9+00611+99999099081ADDAJ100009199999999GF108991999999999999999999
0029028060999991913080613004+69100+027217FM-12+014999999V0200501N009819999999N0000001N9+00831+99999098951ADDGF108991999999999999999999
0029028060999991913080620004+69100+027217FM-12+014999999V0200701N013919999999N0000001N9+00671+99999098841ADDGF108991999999999999999999
0052028060999991913080706004+69100+027217FM-12+014999999V0203601N011819999999N0000001N9+00501+99999098681ADDAJ100009199999999GF108991999999999999999999MW1621
0035028060999991913080713004+69100+027217FM-12+014999999V0200201N013919999999N0000001N9+00391+99999099041ADDGF108991999999999999999999MW1641
0035028060999991913080720004+69100+027217FM-12+014999999V0200501N008219999999N0000001N9+00221+99999099351ADDGF108991999999999999999999MW1641
0052028060999991913080806004+69100+027217FM-12+014999999V0200901N008219999999N0000001N9+00501+99999099461ADDAJ100009199999999GF108991999999999999999999MW1641
0035028060999991913080813004+69100+027217FM-12+014999999V0200501N004119999999N0000001N9+00721+99999099191ADDGF108991999999999999999999MW1641
0035028060999991913080820004+69100+027217FM-12+014999999V0200701N011819999999N0000001N9+00611+99999098661ADDGF108991999999999999999999MW1641
0052028060999991913080906004+69100+027217FM-12+014999999V0200701N004119999999N0000001N9+00891+99999098201ADDAJ100009199999999GF108991999999999999999999MW1641
0035028060999991913080913004+69100+027217FM-12+014999999V0202701N006219999999N0000001N9+00941+99999098021ADDGF108991999999999999999999MW1641
0029028060999991913080920004+69100+027217FM-12+014999999V0202501N002119999999N0000001N9+01061+99999098421ADDGF106991999999999999999999
0046028060999991913081006004+69100+027217FM-12+014999999V0202001N004119999999N0000001N9+01001+99999098841ADDAJ100009199999999GF108991999999999999999999
0029028060999991913081013004+69100+027217FM-12+014999999V0202501N006219999999N0000001N9+01391+99999099001ADDGF104991999999999999999999
0029028060999991913081020004+69100+027217FM-12+014999999V0202301N001019999999N0000001N9+01111+99999099271ADDGF106991999999999999999999
0046028060999991913081106004+69100+027217FM-12+014999999V0202501N006219999999N0000001N9+00941+99999099741ADDAJ100009199999999GF106991999999999999999999
0029028060999991913081113004+69100+027217FM-12+014999999V0202501N004119999999N0000001N9+01561+99999999999ADDGF104991999999999999999999
0029028060999991913081120004+69100+027217FM-12+014999999V0209991C000019999999N0000001N9+01171+99999100201ADDGF100991999999999999999999
0046028060999991913081206004+69100+027217FM-12+014999999V0209991C000019999999N0000001N9+00941+99999100521ADDAJ100009199999999GF100991999999999999999999
0029028060999991913081213004+69100+027217FM-12+014999999V0209991C000019999999N0000001N9+02001+99999100511ADDGF100991999999999999999999
0029028060999991913081220004+69100+027217FM-12+014999999V0209991C000019999999N0000001N9+01331+99999100581ADDGF100991999999999999999999
0046028060999991913081306004+69100+027217FM-12+014999999V0203601N002119999999N0000001N9+01611+99999100641ADDAJ100009199999999GF108991999999999999999999
0029028060999991913081313004+69100+027217FM-12+014999999V0200201N006219999999N0000001N9+01331+99999100621ADDGF100991999999999999999999
0029028060999991913081320004+69100+027217FM-12+014999999V0200501N004119999999N0000001N9+00891+99999100741ADDGF104991999999999999999999
0046028060999991913081406004+69100+027217FM-12+014999999V0200701N004119999999N0000001N9+00671+99999100621ADDAJ100009199999999GF108991999999999999999999
0029028060999991913081413004+69100+027217FM-12+014999999V0200901N002119999999N0000001N9+01001+99999100561ADDGF100991999999999999999999
0029028060999991913081420004+69100+027217FM-12+014999999V0209991C000019999999N0000001N9+00721+99999100521ADDGF100991999999999999999999
0046028060999991913081506004+69100+027217FM-12+014999999V0209991C000019999999N0000001N9+00671+99999100671ADDAJ100009199999999GF108991999999999999999999
0029028060999991913081513004+69100+027217FM-12+014999999V0202301N004119999999N0000001N9+01941+99999100621ADDGF100991999999999999999999
0029028060999991913081520004+69100+027217FM-12+014999999V0209991C000019999999N0000001N9+01281+99999100631ADDGF100991999999999999999999
0046028060999991913081606004+69100+027217FM-12+014999999V0202301N004119999999N0000001N9+01171+99999100841ADDAJ100009199999999GF104991999999999999999999
0029028060999991913081613004+69100+027217FM-12+014999999V0202301N004119999999N0000001N9+01831+99999100821ADDGF104991999999999999999999
0029028060999991913081620004+69100+027217FM-12+014999999V0201801N004119999999N0000001N9+01281+99999100821ADDGF106991999999999999999999
0046028060999991913081706004+69100+027217FM-12+014999999V0202501N006219999999N0000001N9+01111+99999100781ADDAJ100009199999999GF100991999999999999999999
0029028060999991913081713004+69100+027217FM-12+014999999V0202301N002119999999N0000001N9+01941+99999100641ADDGF100991999999999999999999
0029028060999991913081720004+69100+027217FM-12+014999999V0209991C000019999999N0000001N9+01061+99999100661ADDGF100991999999999999999999
0046028060999991913081806004+69100+027217FM-12+014999999V0202001N004119999999N0000001N9+01171+99999100671ADDAJ100009199999999GF100991999999999999999999
0029028060999991913081813004+69100+027217FM-12+014999999V0202301N006219999999N0000001N9+01781+99999100441ADDGF104991999999999999999999
0029028060999991913081820004+69100+027217FM-12+014999999V0201801N004119999999N0000001N9+01501+99999100271ADDGF106991999999999999999999
0046028060999991913081906004+69100+027217FM-12+014999999V0209991C000019999999N0000001N9+01171+99999100421ADDAJ100009199999999GF100991999999999999999999
0029028060999991913081913004+69100+027217FM-12+014999999V0203601N009819999999N0000001N9+01391+99999100521ADDGF106991999999999999999999
0029028060999991913081920004+69100+027217FM-12+014999999V0200201N006219999999N0000001N9+00831+99999100661ADDGF104991999999999999999999
0046028060999991913082006004+69100+027217FM-12+014999999V0202301N004119999999N0000001N9+00781+99999100601ADDAJ100009199999999GF108991999999999999999999
0029028060999991913082013004+69100+027217FM-12+014999999V0202301N006219999999N0000001N9+01501+99999100441ADDGF100991999999999999999999
0029028060999991913082020004+69100+027217FM-12+014999999V0209991C000019999999N0000001N9+00831+99999100361ADDGF100991999999999999999999
0046028060999991913082106004+69100+027217FM-12+014999999V0209991C000019999999N0000001N9+00611+99999100321ADDAJ100009199999999GF104991999999999999999999
0029028060999991913082113004+69100+027217FM-12+014999999V0202001N006219999999N0000001N9+01331+99999100201ADDGF100991999999999999999999
0029028060999991913082120004+69100+027217FM-12+014999999V0209991C000019999999N0000001N9+00781+99999100321ADDGF100991999999999999999999
0046028060999991913082206004+69100+027217FM-12+014999999V0202001N006219999999N0000001N9+00891+99999100031ADDAJ100009199999999GF100991999999999999999999
0029028060999991913082213004+69100+027217FM-12+014999999V0201401N006219999999N0000001N9+01331+99999099681ADDGF100991999999999999999999
0029028060999991913082220004+69100+027217FM-12+014999999V0202001N002119999999N0000001N9+00941+99999099511ADDGF100991999999999999999999
0046028060999991913082306004+69100+027217FM-12+014999999V0200901N004119999999N0000001N9+01001+99999099231ADDAJ100009199999999GF108991999999999999999999
0035028060999991913082313004+69100+027217FM-12+014999999V0200701N002119999999N0000001N9+01221+99999098981ADDGF108991999999999999999999MW1621
0029028060999991913082320004+69100+027217FM-12+014999999V0209991C000019999999N0000001N9+01111+99999098871ADDGF106991999999999999999999
0046028060999991913082406004+69100+027217FM-12+014999999V0202301N009819999999N0000001N9+01221+99999098991ADDAJ100009199999999GF104991999999999999999999
0029028060999991913082413004+69100+027217FM-12+014999999V0202001N008219999999N0000001N9+01501+99999098831ADDGF104991999999999999999999
0029028060999991913082420004+69100+027217FM-12+014999999V0202301N011819999999N0000001N9+01391+99999099021ADDGF108991999999999999999999
0046028060999991913082506004+69100+027217FM-12+014999999V0202701N006219999999N0000001N9+01391+99999099481ADDAJ100009199999999GF100991999999999999999999
0029028060999991913082513004+69100+027217FM-12+014999999V0202301N006219999999N0000001N9+01611+99999099591ADDGF104991999999999999999999
0029028060999991913082520004+69100+027217FM-12+014999999V0209991C000019999999N0000001N9+01061+99999099581ADDGF100991999999999999999999
0046028060999991913082606004+69100+027217FM-12+014999999V0202301N006219999999N0000001N9+01061+99999099351ADDAJ100009199999999GF108991999999999999999999
0029028060999991913082613004+69100+027217FM-12+014999999V0202501N011819999999N0000001N9+01671+99999099361ADDGF104991999999999999999999
0029028060999991913082620004+69100+027217FM-12+014999999V0202301N006219999999N0000001N9+01061+99999099511ADDGF106991999999999999999999
0046028060999991913082706004+69100+027217FM-12+014999999V0202501N008219999999N0000001N9+01001+99999099351ADDAJ100009199999999GF106991999999999999999999
0029028060999991913082713004+69100+027217FM-12+014999999V0202701N006219999999N0000001N9+01221+99999099511ADDGF100991999999999999999999
0029028060999991913082720004+69100+027217FM-12+014999999V0202701N002119999999N0000001N9+00831+99999099561ADDGF104991999999999999999999
0046028060999991913082806004+69100+027217FM-12+014999999V0202501N008219999999N0000001N9+00611+99999099471ADDAJ100009199999999GF106991999999999999999999
0035028060999991913082813004+69100+027217FM-12+014999999V0202301N008219999999N0000001N9+01001+99999099401ADDGF108991999999999999999999MW1601
0029028060999991913082820004+69100+027217FM-12+014999999V0202301N001019999999N0000001N9+01061+99999099541ADDGF108991999999999999999999
0046028060999991913082906004+69100+027217FM-12+014999999V0202301N002119999999N0000001N9+01171+99999099601ADDAJ100009199999999GF108991999999999999999999
