0029028060999991914010106004+69100+027217FM-12+014999999V0202501N004119999999N0000001N9-01001+99999097041ADDGF104991999999999999999999
0029028060999991914010113004+69100+027217FM-12+014999999V0202501N004119999999N0000001N9-00941+99999096721ADDGF100991999999999999999999
0029028060999991914010120004+69100+027217FM-12+014999999V0202301N006219999999N0000001N9-00721+99999096351ADDGF108991999999999999999999
0029028060999991914010206004+69100+027217FM-12+014999999V0202301N004119999999N0000001N9-02001+99999096101ADDGF100991999999999999999999
0035028060999991914010213004+69100+027217FM-12+014999999V0202301N001019999999N0000001N9-01221+99999096121ADDGF108991999999999999999999MW1721
0035028060999991914010220004+69100+027217FM-12+014999999V0200501N004119999999N0000001N9-00781+99999096871ADDGF108991999999999999999999MW1721
0029028060999991914010306004+69100+027217FM-12+014999999V0200501N004119999999N0000001N9-01061+99999097941ADDGF104991999999999999999999
0029028060999991914010313004+69100+027217FM-12+014999999V0203601N004119999999N0000001N9-01561+99999098481ADDGF100991999999999999999999
0029028060999991914010320004+69100+027217FM-12+014999999V0209991C000019999999N0000001N9-01671+99999098671ADDGF100991999999999999999999
0029028060999991914010406004+69100+027217FM-12+014999999V0209991C000019999999N0000001N9-03221+99999098341ADDGF100991999999999999999999
0029028060999991914010413004+69100+027217FM-12+014999999V0202301N001019999999N0000001N9-03001+99999098021ADDGF100991999999999999999999
0029028060999991914010420004+69100+027217FM-12+014999999V0209991C000019999999N0000001N9-02781+99999098021ADDGF100991999999999999999999
0029028060999991914010506004+69100+027217FM-12+014999999V0202301N002119999999N0000001N9-02611+99999097561ADDGF106991999999999999999999
0029028060999991914010513004+69100+027217FM-12+014999999V0209991C000019999999N0000001N9-01941+99999097601ADDGF104991999999999999999999
0029028060999991914010520004+69100+027217FM-12+014999999V0209991C000019999999N0000001N9-02941+99999097621ADDGF104991999999999999999999
0029028060999991914010606004+69100+027217FM-12+014999999V0200501N004119999999N0000001N9-01331+99999097381ADDGF104991999999999999999999
0029028060999991914010613004+69100+027217FM-12+014999999V0209991C000019999999N0000001N9-01501+99999097541ADDGF100991999999999999999999
0029028060999991914010620004+69100+027217FM-12+014999999V0209991C000019999999N0000001N9-02441+99999097781ADDGF100991999999999999999999
0029028060999991914010706004+69100+027217FM-12+014999999V0209991C000019999999N0000001N9-02561+99999098101ADDGF100991999999999999999999
0029028060999991914010713004+69100+027217FM-12+014999999V0209991C000019999999N0000001N9-02941+99999098461ADDGF100991999999999999999999
0029028060999991914010720004+69100+027217FM-12+014999999V0209991C000019999999N0000001N9-03001+99999098791ADDGF100991999999999999999999
0029028060999991914010806004+69100+027217FM-12+014999999V0202701N002119999999N0000001N9-03221+99999099021ADDGF100991999999999999999999
0029028060999991914010813004+69100+027217FM-12+014999999V0202501N002119999999N0000001N9-03171+99999099271ADDGF100991999999999999999999
0029028060999991914010820004+69100+027217FM-12+014999999V0200901N001019999999N0000001N9-02891+99999099631ADDGF100991999999999999999999
0029028060999991914010906004+69100+027217FM-12+014999999V0202001N002119999999N0000001N9-03331+99999099981ADDGF100991999999999999999999
0029028060999991914010913004+69100+027217FM-12+014999999V0202301N001019999999N0000001N9-03501+99999100701ADDGF100991999999999999999999
0029028060999991914010920004+69100+027217FM-12+014999999V0202301N002119999999N0000001N9-03111+99999101101ADDGF100991999999999999999999
0029028060999991914011006004+69100+027217FM-12+014999999V0202301N004119999999N0000001N9-02611+99999101321ADDGF104991999999999999999999
0029028060999991914011013004+69100+027217FM-12+014999999V0202301N006219999999N0000001N9-01891+99999101481ADDGF104991999999999999999999
0029028060999991914011020004+69100+027217FM-12+014999999V0202301N004119999999N0000001N9-01561+99999101461ADDGF100991999999999999999999
0029028060999991914011106004+69100+027217FM-12+014999999V0202301N004119999999N0000001N9-02001+99999101221ADDGF100991999999999999999999
0029028060999991914011113004+69100+027217FM-12+014999999V0202301N008219999999N0000001N9-01721+99999101361ADDGF100991999999999999999999
0029028060999991914011120004+69100+027217FM-12+014999999V0202301N011819999999N0000001N9-01561+99999101321ADDGF104991999999999999999999
0029028060999991914011206004+69100+027217FM-12+014999999V0202301N009819999999N0000001N9-01391+99999100801ADDGF104991999999999999999999
0029028060999991914011213004+69100+027217FM-12+014999999V0202301N011819999999N0000001N9-01611+99999100311ADDGF104991999999999999999999
0029028060999991914011220004+69100+027217FM-12+014999999V0202301N011819999999N0000001N9-01111+99999099861ADDGF108991999999999999999999
0029028060999991914011306004+69100+027217FM-12+014999999V0202301N011819999999N0000001N9-00281+99999098861ADDGF106991999999999999999999
0035028060999991914011313004+69100+027217FM-12+014999999V0202701N006219999999N0000001N9-00781+99999099071ADDGF104991999999999999999999MW1721
0029028060999991914011320004+69100+027217FM-12+014999999V0200201N006219999999N0000001N9-00781+99999099541ADDGF100991999999999999999999
0029028060999991914011406004+69100+027217FM-12+014999999V0203201N002119999999N0000001N9-01001+99999099981ADDGF104991999999999999999999
0029028060999991914011413004+69100+027217FM-12+014999999V0202301N004119999999N0000001N9-01171+99999099401ADDGF104991999999999999999999
0029028060999991914011420004+69100+027217FM-12+014999999V0200501N006219999999N0000001N9-00781+99999099301ADDGF104991999999999999999999
0029028060999991914011506004+69100+027217FM-12+014999999V0203601N001019999999N0000001N9-01221+99999099031ADDGF108991999999999999999999
0029028060999991914011513004+69100+027217FM-12+014999999V0209991C000019999999N0000001N9-01501+99999098681ADDGF108991999999999999999999
0029028060999991914011520004+69100+027217FM-12+014999999V0209991C000019999999N0000001N9-01891+99999098821ADDGF108991999999999999999999
0029028060999991914011606004+69100+027217FM-12+014999999V0209991C000019999999N0000001N9-02941+99999099071ADDGF100991999999999999999999
0029028060999991914011613004+69100+027217FM-12+014999999V0202701N001019999999N0000001N9-03391+99999099141ADDGF100991999999999999999999
0029028060999991914011620004+69100+027217FM-12+014999999V0209991C000019999999N0000001N9-03781+99999099241ADDGF100991999999999999999999
0029028060999991914011706004+69100+027217FM-12+014999999V0209991C000019999999N0000001N9-03611+99999099201ADDGF106991999999999999999999
0029028060999991914011713004+69100+027217FM-12+014999999V0202501N011819999999N0000001N9-01391+99999098441ADDGF108991999999999999999999
0035028060999991914011720004+69100+027217FM-12+014999999V0202301N017019999999N0000001N9-01061+99999097481ADDGF108991999999999999999999MW1701
0029028060999991914011806004+69100+027217FM-12+014999999V0200501N006219999999N0000001N9-00171+99999097271ADDGF108991999999999999999999
0029028060999991914011813004+69100+027217FM-12+014999999V0203601N008219999999N0000001N9-00671+99999098161ADDGF108991999999999999999999
0029028060999991914011820004+69100+027217FM-12+014999999V0202301N001019999999N0000001N9-01001+99999098821ADDGF106991999999999999999999
0029028060999991914011906004+69100+027217FM-12+014999999V0202301N006219999999N0000001N9-01001+99999098661ADDGF108991999999999999999999
0029028060999991914011913004+69100+027217FM-12+014999999V0202301N006219999999N0000001N9-00281+99999097961ADDGF108991999999999999999999
0029028060999991914011920004+69100+027217FM-12+014999999V0202301N019019999999N0000001N9+00171+99999097321ADDGF100991999999999999999999
0029028060999991914012006004+69100+027217FM-12+014999999V0209991C000019999999N0000001N9-00441+99999098021ADDGF108991999999999999999999
0029028060999991914012020004+69100+027217FM-12+014999999V0209991C000019999999N0000001N9-00281+99999097161ADDGF108991999999999999999999
0029028060999991914012106004+69100+027217FM-12+014999999V0202001N004119999999N0000001N9-00561+99999097161ADDGF108991999999999999999999
0035028060999991914012113004+69100+027217FM-12+014999999V0203601N015919999999N0000001N9-00781+99999098111ADDGF108991999999999999999999MW1721
0029028060999991914012120004+69100+027217FM-12+014999999V0203601N004119999999N0000001N9-01281+99999099081ADDGF108991999999999999999999
0035028060999991914012206004+69100+027217FM-12+014999999V0202501N006219999999N0000001N9-01281+99999098381ADDGF108991999999999999999999MW1721
0029028060999991914012213004+69100+027217FM-12+014999999V0202001N004119999999N0000001N9-01001+99999097671ADDGF108991999999999999999999
0035028060999991914012220004+69100+027217FM-12+014999999V0202001N006219999999N0000001N9-00611+99999097441ADDGF108991999999999999999999MW1721
0029028060999991914012306004+69100+027217FM-12+014999999V0209991C000019999999N0000001N9-00281+99999097601ADDGF106991999999999999999999
0035028060999991914012313004+69100+027217FM-12+014999999V0209991C000019999999N0000001N9-00281+99999097671ADDGF108991999999999999999999MW1721
0029028060999991914012320004+69100+027217FM-12+014999999V0203601N002119999999N0000001N9-00061+99999097791ADDGF108991999999999999999999
0029028060999991914012406004+69100+027217FM-12+014999999V0202301N004119999999N0000001N9+00171+99999097511ADDGF108991999999999999999999
0029028060999991914012413004+69100+027217FM-12+014999999V0202501N008219999999N0000001N9-00171+99999097191ADDGF104991999999999999999999
0029028060999991914012420004+69100+027217FM-12+014999999V0202501N013919999999N0000001N9+00061+99999096231ADDGF108991999999999999999999
0029028060999991914012506004+69100+027217FM-12+014999999V0202501N008219999999N0000001N9-00171+99999095361ADDGF100991999999999999999999
0048028060999991914012513004+69100+027217FM-12+014999999V0202301N004119999999N0000001N9-00611+99999999999ADDGF104991999999999999999999EQDQ01 104793APOSLP
0029028060999991914012520004+69100+027217FM-12+014999999V0209991C000019999999N0000001N9-00891+99999095041ADDGF100991999999999999999999
0035028060999991914012606004+69100+027217FM-12+014999999V0200901N008219999999N0000001N9-00611+99999095621ADDGF108991999999999999999999MW1721
0035028060999991914012613004+69100+027217FM-12+014999999V0200901N008219999999N0000001N9-01001+99999095541ADDGF108991999999999999999999MW1721
0029028060999991914012620004+69100+027217FM-12+014999999V0201401N002119999999N0000001N9-01561+99999095621ADDGF108991999999999999999999
0029028060999991914012706004+69100+027217FM-12+014999999V0202301N002119999999N0000001N9-01111+99999096761ADDGF104991999999999999999999
0029028060999991914012713004+69100+027217FM-12+014999999V0203201N002119999999N0000001N9-01441+99999097281ADDGF100991999999999999999999
0029028060999991914012720004+69100+027217FM-12+014999999V0209991C000019999999N0000001N9-02171+99999097551ADDGF100991999999999999999999
0029028060999991914012806004+69100+027217FM-12+014999999V0202001N004119999999N0000001N9-01891+99999097201ADDGF108991999999999999999999
0029028060999991914012813004+69100+027217FM-12+014999999V0202301N008219999999N0000001N9-01501+99999097001ADDGF108991999999999999999999
0029028060999991914012820004+69100+027217FM-12+014999999V0202301N009819999999N0000001N9-01501+99999096551ADDGF108991999999999999999999
0035028060999991914012906004+69100+027217FM-12+014999999V0200901N006219999999N0000001N9-01391+99999096591ADDGF108991999999999999999999MW1721
0029028060999991914012913004+69100+027217FM-12+014999999V0200701N002119999999N0000001N9-01331+99999096401ADDGF108991999999999999999999
0035028060999991914012920004+69100+027217FM-12+014999999V0200701N004119999999N0000001N9-01391+99999095741ADDGF108991999999999999999999MW1721
0035028060999991914013006004+69100+027217FM-12+014999999V0202501N002119999999N0000001N9-01611+99999095441ADDGF108991999999999999999999MW1701
0029028060999991914013013004+69100+027217FM-12+014999999V0202301N001019999999N0000001N9-01721+99999095741ADDGF104991999999999999999999
0029028060999991914013020004+69100+027217FM-12+014999999V0209991C000019999999N0000001N9-01561+99999095901ADDGF108991999999999999999999
0029028060999991914013106004+69100+027217FM-12+014999999V0202001N001019999999N0000001N9-02111+99999096521ADDGF100991999999999999999999
0029028060999991914013113004+69100+027217FM-12+014999999V0201801N001019999999N0000001N9-02171+99999097061ADDGF100991999999999999999999
0048028060999991914013120004+69100+027217FM-12+014999999V0209991C000019999999N0000001N9+99999+99999097071ADDGF100991999999999999999999EQDQ01 +03173ATOT  
0035028060999991914020106004+69100+027217FM-12+014999999V0200901N004119999999N0000001N9-01721+99999104962ADDGF108991999999999999999999MW1741
0029028060999991914020113004+69100+027217FM-12+014999999V0209991C000019999999N0000001N9-01941+99999104791ADDGF100991999999999999999999
0035028060999991914020120004+69100+027217FM-12+014999999V0203601N011819999999N0000001N9-00781+99999096042ADDGF108991999999999999999999MW1741
0029028060999991914020206004+69100+027217FM-12+014999999V0209991C000019999999N0000001N9-01281+99999096991ADDGF108991999999999999999999
0035028060999991914020213004+69100+027217FM-12+014999999V0200901N004119999999N0000001N9-01171+99999095701ADDGF108991999999999999999999MW1701
0029028060999991914020220004+69100+027217FM-12+014999999V0200501N006219999999N0000001N9-01281+99999096441ADDGF100991999999999999999999
0029028060999991914020306004+69100+027217FM-12+014999999V0209991C000019999999N0000001N9-02561+99999097021ADDGF100991999999999999999999
0029028060999991914020313004+69100+027217FM-12+014999999V0202301N004119999999N0000001N9-02111+99999097191ADDGF100991999999999999999999
0029028060999991914020320004+69100+027217FM-12+014999999V0202501N009819999999N0000001N9-01831+99999097021ADDGF100991999999999999999999
0029028060999991914020406004+69100+027217FM-12+014999999V0202501N002119999999N0000001N9-02501+99999097681ADDGF100991999999999999999999
0029028060999991914020413004+69100+027217FM-12+014999999V0202701N006219999999N0000001N9-01001+99999097861ADDGF100991999999999999999999
0029028060999991914020420004+69100+027217FM-12+014999999V0202301N006219999999N0000001N9-01611+99999097981ADDGF104991999999999999999999
0029028060999991914020506004+69100+027217FM-12+014999999V0209991C000019999999N0000001N9-02281+99999097481ADDGF100991999999999999999999
0029028060999991914020513004+69100+027217FM-12+014999999V0202301N004119999999N0000001N9-02061+99999097801ADDGF108991999999999999999999
0029028060999991914020520004+69100+027217FM-12+014999999V0209991C000019999999N0000001N9-01501+99999097981ADDGF100991999999999999999999
0029028060999991914020606004+69100+027217FM-12+014999999V0202001N006219999999N0000001N9-01831+99999098121ADDGF100991999999999999999999
0029028060999991914020613004+69100+027217FM-12+014999999V0202301N009819999999N0000001N9-01561+99999098151ADDGF100991999999999999999999
0029028060999991914020620004+69100+027217FM-12+014999999V0202501N006219999999N0000001N9-01001+99999098191ADDGF100991999999999999999999
0029028060999991914020706004+69100+027217FM-12+014999999V0202501N002119999999N0000001N9-01721+99999098941ADDGF100991999999999999999999
0029028060999991914020713004+69100+027217FM-12+014999999V0202301N002119999999N0000001N9-01671+99999099351ADDGF100991999999999999999999
0029028060999991914020720004+69100+027217FM-12+014999999V0202301N001019999999N0000001N9-02441+99999099471ADDGF100991999999999999999999
0029028060999991914020806004+69100+027217FM-12+014999999V0209991C000019999999N0000001N9-02441+99999099041ADDGF108991999999999999999999
0035028060999991914020813004+69100+027217FM-12+014999999V0201601N002119999999N0000001N9-01391+99999098801ADDGF108991999999999999999999MW1701
0035028060999991914020820004+69100+027217FM-12+014999999V0201401N002119999999N0000001N9-01281+99999098511ADDGF108991999999999999999999MW1701
0035028060999991914020906004+69100+027217FM-12+014999999V0201801N001019999999N0000001N9-01281+99999098031ADDGF108991999999999999999999MW1701
0035028060999991914020913004+69100+027217FM-12+014999999V0200901N002119999999N0000001N9-01281+99999097321ADDGF108991999999999999999999MW1701
0029028060999991914020920004+69100+027217FM-12+014999999V0209991C000019999999N0000001N9-01221+99999097431ADDGF100991999999999999999999
0029028060999991914021006004+69100+027217FM-12+014999999V0202001N006219999999N0000001N9-01111+99999098511ADDGF100991999999999999999999
0029028060999991914021013004+69100+027217FM-12+014999999V0202301N002119999999N0000001N9-01281+99999099021ADDGF100991999999999999999999
0029028060999991914021020004+69100+027217FM-12+014999999V0209991C000019999999N0000001N9-02781+99999099161ADDGF104991999999999999999999
0029028060999991914021106004+69100+027217FM-12+014999999V0202301N011819999999N0000001N9-00891+99999098181ADDGF108991999999999999999999
0029028060999991914021113004+69100+027217FM-12+014999999V0202301N008219999999N0000001N9-00891+99999098501ADDGF104991999999999999999999
0029028060999991914021120004+69100+027217FM-12+014999999V0209991C000019999999N0000001N9-00781+99999098391ADDGF104991999999999999999999
0029028060999991914021206004+69100+027217FM-12+014999999V0202501N006219999999N0000001N9-00671+99999098321ADDGF106991999999999999999999
0029028060999991914021213004+69100+027217FM-12+014999999V0209991C000019999999N0000001N9-00781+99999098481ADDGF108991999999999999999999
0029028060999991914021220004+69100+027217FM-12+014999999V0209991C000019999999N0000001N9-00831+99999098391ADDGF106991999999999999999999
0029028060999991914021306004+69100+027217FM-12+014999999V0201801N002119999999N0000001N9-00611+99999098481ADDGF108991999999999999999999
0029028060999991914021313004+69100+027217FM-12+014999999V0209991C000019999999N0000001N9-00111+99999097991ADDGF108991999999999999999999
0029028060999991914021320004+69100+027217FM-12+014999999V0202301N008219999999N0000001N9-00331+99999098461ADDGF106991999999999999999999
0029028060999991914021406004+69100+027217FM-12+014999999V0202301N006219999999N0000001N9-00221+99999098341ADDGF108991999999999999999999
0029028060999991914021413004+69100+027217FM-12+014999999V0202301N006219999999N0000001N9-00111+99999098021ADDGF108991999999999999999999
0035028060999991914021420004+69100+027217FM-12+014999999V0201801N002119999999N0000001N9-00061+99999097721ADDGF108991999999999999999999MW1721
0029028060999991914021506004+69100+027217FM-12+014999999V0201801N004119999999N0000001N9+00001+99999097361ADDGF108991999999999999999999
0029028060999991914021513004+69100+027217FM-12+014999999V0202301N006219999999N0000001N9+00061+99999097321ADDGF108991999999999999999999
0029028060999991914021520004+69100+027217FM-12+014999999V0202301N004119999999N0000001N9-00111+99999097161ADDGF108991999999999999999999
0029028060999991914021606004+69100+027217FM-12+014999999V0200901N006219999999N0000001N9-00281+99999096431ADDGF108991999999999999999999
0035028060999991914021613004+69100+027217FM-12+014999999V0200501N006219999999N0000001N9-00281+99999096421ADDGF108991999999999999999999MW1701
0035028060999991914021620004+69100+027217FM-12+014999999V0200501N004119999999N0000001N9-00281+99999096541ADDGF108991999999999999999999MW1701
0029028060999991914021706004+69100+027217FM-12+014999999V0200501N002119999999N0000001N9-00281+99999096981ADDGF108991999999999999999999
0035028060999991914021713004+69100+027217FM-12+014999999V0200701N004119999999N0000001N9-00221+99999097261ADDGF108991999999999999999999MW1701
0029028060999991914021720004+69100+027217FM-12+014999999V0203601N008219999999N0000001N9-00781+99999097561ADDGF100991999999999999999999
0029028060999991914021806004+69100+027217FM-12+014999999V0200701N004119999999N0000001N9-00721+99999098201ADDGF108991999999999999999999
0029028060999991914021813004+69100+027217FM-12+014999999V0203601N004119999999N0000001N9-00721+99999098511ADDGF108991999999999999999999
0029028060999991914021820004+69100+027217FM-12+014999999V0200501N006219999999N0000001N9-00831+99999098681ADDGF108991999999999999999999
0029028060999991914021906004+69100+027217FM-12+014999999V0200901N002119999999N0000001N9-00781+99999098861ADDGF108991999999999999999999
0029028060999991914021913004+69100+027217FM-12+014999999V0203601N004119999999N0000001N9-00611+99999098921ADDGF108991999999999999999999
0029028060999991914021920004+69100+027217FM-12+014999999V0200501N004119999999N0000001N9-00891+99999098911ADDGF108991999999999999999999
0029028060999991914022006004+69100+027217FM-12+014999999V0209991C000019999999N0000001N9-02171+99999099061ADDGF100991999999999999999999
0029028060999991914022013004+69100+027217FM-12+014999999V0209991C000019999999N0000001N9-01171+99999099081ADDGF100991999999999999999999
0029028060999991914022020004+69100+027217FM-12+014999999V0209991C000019999999N0000001N9-02061+99999099191ADDGF106991999999999999999999
0029028060999991914022106004+69100+027217FM-12+014999999V0202301N001019999999N0000001N9-02171+99999099201ADDGF100991999999999999999999
0029028060999991914022113004+69100+027217FM-12+014999999V0202301N001019999999N0000001N9-01501+99999099351ADDGF100991999999999999999999
0029028060999991914022120004+69100+027217FM-12+014999999V0209991C000019999999N0000001N9-02561+99999099361ADDGF100991999999999999999999
0029028060999991914022206004+69100+027217FM-12+014999999V0202301N015919999999N0000001N9-02111+99999099221ADDGF104991999999999999999999
0029028060999991914022213004+69100+027217FM-12+014999999V0202301N011819999999N0000001N9-01561+99999099311ADDGF106991999999999999999999
0029028060999991914022220004+69100+027217FM-12+014999999V0202301N015919999999N0000001N9-01671+99999099381ADDGF108991999999999999999999
0029028060999991914022306004+69100+027217FM-12+014999999V0209991C000019999999N0000001N9-01501+99999099461ADDGF108991999999999999999999
0029028060999991914022313004+69100+027217FM-12+014999999V0202301N004119999999N0000001N9-01281+99999099401ADDGF104991999999999999999999
0029028060999991914022320004+69100+027217FM-12+014999999V0202301N020119999999N0000001N9-01001+99999099071ADDGF108991999999999999999999
0029028060999991914022406004+69100+027217FM-12+014999999V0203601N004119999999N0000001N9-01221+99999099511ADDGF106991999999999999999999
0029028060999991914022413004+69100+027217FM-12+014999999V0202301N002119999999N0000001N9-01171+99999099991ADDGF108991999999999999999999
0029028060999991914022420004+69100+027217FM-12+014999999V0209991C000019999999N0000001N9-01001+99999100201ADDGF108991999999999999999999
0029028060999991914022506004+69100+027217FM-12+014999999V0201801N002119999999N0000001N9-01001+99999100021ADDGF108991999999999999999999
0035028060999991914022513004+69100+027217FM-12+014999999V0202001N004119999999N0000001N9-00781+99999099801ADDGF108991999999999999999999MW1701
0029028060999991914022520004+69100+027217FM-12+014999999V0202001N008219999999N0000001N9-00721+99999099621ADDGF108991999999999999999999
0029028060999991914022606004+69100+027217FM-12+014999999V0202501N004119999999N0000001N9-01221+99999099521ADDGF104991999999999999999999
0029028060999991914022613004+69100+027217FM-12+014999999V0202501N002119999999N0000001N9-00441+99999099701ADDGF104991999999999999999999
0029028060999991914022620004+69100+027217FM-12+014999999V0202301N004119999999N0000001N9-01061+99999099601ADDGF100991999999999999999999
0029028060999991914022706004+69100+027217FM-12+014999999V0202501N002119999999N0000001N9-01281+99999099181ADDGF104991999999999999999999
0029028060999991914022713004+69100+027217FM-12+014999999V0202501N004119999999N0000001N9-00831+99999099161ADDGF106991999999999999999999
0029028060999991914022720004+69100+027217FM-12+014999999V0202301N002119999999N0000001N9-01331+99999099151ADDGF104991999999999999999999
0029028060999991914022806004+69100+027217FM-12+014999999V0202301N004119999999N0000001N9-01831+99999099271ADDGF106991999999999999999999
0029028060999991914022813004+69100+027217FM-12+014999999V0202701N002119999999N0000001N9-00891+99999099201ADDGF100991999999999999999999
0029028060999991914022820004+69100+027217FM-12+014999999V0202701N001019999999N0000001N9-01441+99999098861ADDGF108991999999999999999999
0029028060999991914030106004+69100+027217FM-12+014999999V0202501N011819999999N0000001N9-00781+99999097621ADDGF108991999999999999999999
0029028060999991914030113004+69100+027217FM-12+014999999V0202501N008219999999N0000001N9-00671+99999097481ADDGF100991999999999999999999
0029028060999991914030120004+69100+027217FM-12+014999999V0202301N004119999999N0000001N9-00611+99999097191ADDGF104991999999999999999999
0029028060999991914030206004+69100+027217FM-12+014999999V0202501N008219999999N0000001N9-00281+99999096981ADDGF108991999999999999999999
0029028060999991914030213004+69100+027217FM-12+014999999V0200501N002119999999N0000001N9-00441+99999096881ADDGF108991999999999999999999
0029028060999991914030220004+69100+027217FM-12+014999999V0202301N002119999999N0000001N9-00721+99999097031ADDGF108991999999999999999999
0029028060999991914030306004+69100+027217FM-12+014999999V0202301N002119999999N0000001N9-01611+99999097391ADDGF104991999999999999999999
0029028060999991914030313004+69100+027217FM-12+014999999V0202501N004119999999N0000001N9-00611+99999097721ADDGF100991999999999999999999
0029028060999991914030320004+69100+027217FM-12+014999999V0202301N008219999999N0000001N9-00331+99999097831ADDGF108991999999999999999999
0029028060999991914030406004+69100+027217FM-12+014999999V0202301N004119999999N0000001N9-00171+99999097951ADDGF108991999999999999999999
0029028060999991914030413004+69100+027217FM-12+014999999V0201801N006219999999N0000001N9-00061+99999098031ADDGF108991999999999999999999
0029028060999991914030420004+69100+027217FM-12+014999999V0202001N004119999999N0000001N9-00111+99999098201ADDGF104991999999999999999999
0035028060999991914030506004+69100+027217FM-12+014999999V0200901N004119999999N0000001N9-00721+99999097841ADDGF108991999999999999999999MW1701
0029028060999991914030513004+69100+027217FM-12+014999999V0209991C000019999999N0000001N9-00281+99999097951ADDGF100991999999999999999999
0029028060999991914030520004+69100+027217FM-12+014999999V0200501N004119999999N0000001N9-00391+99999097791ADDGF108991999999999999999999
0029028060999991914030606004+69100+027217FM-12+014999999V0209991C000019999999N0000001N9-00561+99999098141ADDGF108991999999999999999999
0029028060999991914030613004+69100+027217FM-12+014999999V0200501N002119999999N0000001N9-00501+99999098221ADDGF108991999999999999999999
0035028060999991914030620004+69100+027217FM-12+014999999V0200901N004119999999N0000001N9-00781+99999098321ADDGF108991999999999999999999MW1721
0035028060999991914030706004+69100+027217FM-12+014999999V0200901N004119999999N0000001N9-00721+99999097911ADDGF108991999999999999999999MW1721
0029028060999991914030713004+69100+027217FM-12+014999999V0200901N002119999999N0000001N9-00561+99999097951ADDGF108991999999999999999999
0035028060999991914030720004+69100+027217FM-12+014999999V0200501N006219999999N0000001N9-00721+99999098001ADDGF108991999999999999999999MW1721
0035028060999991914030806004+69100+027217FM-12+014999999V0200501N004119999999N0000001N9-00781+99999098381ADDGF108991999999999999999999MW1721
0035028060999991914030813004+69100+027217FM-12+014999999V0200201N008219999999N0000001N9-00671+99999098461ADDGF108991999999999999999999MW1721
0035028060999991914030820004+69100+027217FM-12+014999999V0200901N006219999999N0000001N9-00781+99999098561ADDGF108991999999999999999999MW1721
0035028060999991914030906004+69100+027217FM-12+014999999V0200501N008219999999N0000001N9-00781+99999098351ADDGF108991999999999999999999MW1701
0035028060999991914030913004+69100+027217FM-12+014999999V0200501N008219999999N0000001N9-00671+99999098241ADDGF108991999999999999999999MW1701
0029028060999991914030920004+69100+027217FM-12+014999999V0200501N020119999999N0000001N9-00781+99999098111ADDGF108991999999999999999999
0035028060999991914031006004+69100+027217FM-12+014999999V0200501N027819999999N0000001N9-00781+99999098021ADDGF108991999999999999999999MW1721
0035028060999991914031013004+69100+027217FM-12+014999999V0200201N020119999999N0000001N9-00831+99999098021ADDGF108991999999999999999999MW1721
0035028060999991914031020004+69100+027217FM-12+014999999V0200201N020119999999N0000001N9-00941+99999098061ADDGF108991999999999999999999MW1721
0029028060999991914031106004+69100+027217FM-12+014999999V0200501N004119999999N0000001N9-00941+99999098151ADDGF108991999999999999999999
0029028060999991914031113004+69100+027217FM-12+014999999V0203601N008219999999N0000001N9-00891+99999098561ADDGF100991999999999999999999
0029028060999991914031120004+69100+027217FM-12+014999999V0203601N001019999999N0000001N9-01281+99999098551ADDGF106991999999999999999999
0029028060999991914031206004+69100+027217FM-12+014999999V0203601N002119999999N0000001N9-01441+99999098701ADDGF108991999999999999999999
0029028060999991914031213004+69100+027217FM-12+014999999V0203201N004119999999N0000001N9-00781+99999098791ADDGF100991999999999999999999
0029028060999991914031220004+69100+027217FM-12+014999999V0203601N001019999999N0000001N9-02281+99999098741ADDGF100991999999999999999999
0029028060999991914031306004+69100+027217FM-12+014999999V0202301N004119999999N0000001N9-01061+99999098381ADDGF104991999999999999999999
0029028060999991914031313004+69100+027217FM-12+014999999V0203401N006219999999N0000001N9-00561+99999098701ADDGF104991999999999999999999
0029028060999991914031320004+69100+027217FM-12+014999999V0202301N004119999999N0000001N9-01061+99999098961ADDGF104991999999999999999999
0029028060999991914031406004+69100+027217FM-12+014999999V0202301N004119999999N0000001N9-01001+99999099031ADDGF108991999999999999999999
0029028060999991914031413004+69100+027217FM-12+014999999V0203601N004119999999N0000001N9-00561+99999099111ADDGF108991999999999999999999
0029028060999991914031420004+69100+027217FM-12+014999999V0209991C000019999999N0000001N9-01501+99999099221ADDGF104991999999999999999999
0048028060999991914031506004+69100+027217FM-12+014999999V0209991C000019999999N0000001N9+99999+99999099351ADDGF100991999999999999999999EQDQ01 +03333ATOT  
0029028060999991914031513004+69100+027217FM-12+014999999V0203601N001019999999N0000001N9-01001+99999099311ADDGF100991999999999999999999
0035028060999991914031520004+69100+027217FM-12+014999999V0200501N004119999999N0000001N9-01001+99999099041ADDGF108991999999999999999999MW1701
0035028060999991914031606004+69100+027217FM-12+014999999V0200501N004119999999N0000001N9-01061+99999098511ADDGF108991999999999999999999MW1701
0035028060999991914031613004+69100+027217FM-12+014999999V0200701N009819999999N0000001N9-00941+99999098471ADDGF108991999999999999999999MW1701
0029028060999991914031620004+69100+027217FM-12+014999999V0203601N004119999999N0000001N9-01281+99999098401ADDGF100991999999999999999999
0029028060999991914031706004+69100+027217FM-12+014999999V0200201N001019999999N0000001N9-02391+99999098351ADDGF100991999999999999999999
0029028060999991914031713004+69100+027217FM-12+014999999V0200901N004119999999N0000001N9-00891+99999098521ADDGF100991999999999999999999
0029028060999991914031720004+69100+027217FM-12+014999999V0200201N001019999999N0000001N9-01721+99999098751ADDGF100991999999999999999999
0029028060999991914031806004+69100+027217FM-12+014999999V0200501N001019999999N0000001N9-03331+99999099221ADDGF100991999999999999999999
0029028060999991914031813004+69100+027217FM-12+014999999V0209991C000019999999N0000001N9-01781+99999099661ADDGF100991999999999999999999
0029028060999991914031820004+69100+027217FM-12+014999999V0209991C000019999999N0000001N9-02561+99999099881ADDGF100991999999999999999999
0029028060999991914031906004+69100+027217FM-12+014999999V0209991C000019999999N0000001N9-03501+99999999999ADDGF100991999999999999999999
0029028060999991914031913004+69100+027217FM-12+014999999V0201801N008219999999N0000001N9-01331+99999099941ADDGF100991999999999999999999
0029028060999991914031920004+69100+027217FM-12+014999999V0201801N004119999999N0000001N9-01441+99999099941ADDGF108991999999999999999999
0035028060999991914032006004+69100+027217FM-12+014999999V0202001N009819999999N0000001N9-01501+99999099641ADDGF108991999999999999999999MW1701
0029028060999991914032013004+69100+027217FM-12+014999999V0202301N011819999999N0000001N9-01061+99999099601ADDGF104991999999999999999999
0029028060999991914032020004+69100+027217FM-12+014999999V0202301N004119999999N0000001N9-01221+99999099661ADDGF100991999999999999999999
0029028060999991914032106004+69100+027217FM-12+014999999V0202301N008219999999N0000001N9-00501+99999099741ADDGF108991999999999999999999
0029028060999991914032113004+69100+027217FM-12+014999999V0202301N006219999999N0000001N9-00221+99999099821ADDGF106991999999999999999999
0029028060999991914032120004+69100+027217FM-12+014999999V0202001N008219999999N0000001N9-00671+99999099961ADDGF106991999999999999999999
0029028060999991914032206004+69100+027217FM-12+014999999V0202301N002119999999N0000001N9-01001+99999099801ADDGF108991999999999999999999
0029028060999991914032213004+69100+027217FM-12+014999999V0202001N008219999999N0000001N9-00561+99999099841ADDGF108991999999999999999999
0029028060999991914032220004+69100+027217FM-12+014999999V0202301N008219999999N0000001N9-00781+99999099671ADDGF104991999999999999999999
0029028060999991914032306004+69100+027217FM-12+014999999V0202301N009819999999N0000001N9-00561+99999099581ADDGF108991999999999999999999
0029028060999991914032313004+69100+027217FM-12+014999999V0202501N011819999999N0000001N9-00561+99999099511ADDGF108991999999999999999999
0029028060999991914032320004+69100+027217FM-12+014999999V0202301N009819999999N0000001N9-00561+99999099701ADDGF108991999999999999999999
0029028060999991914032406004+69100+027217FM-12+014999999V0201801N004119999999N0000001N9-00331+99999099321ADDGF108991999999999999999999
0029028060999991914032413004+69100+027217FM-12+014999999V0202301N011819999999N0000001N9-00281+99999099471ADDGF108991999999999999999999
0029028060999991914032420004+69100+027217FM-12+014999999V0202501N020119999999N0000001N9-00061+99999099541ADDGF108991999999999999999999
0029028060999991914032506004+69100+027217FM-12+014999999V0202001N004119999999N0000001N9-00171+99999099741ADDGF108991999999999999999999
0029028060999991914032513004+69100+027217FM-12+014999999V0202301N009819999999N0000001N9+00171+99999099661ADDGF104991999999999999999999
0029028060999991914032520004+69100+027217FM-12+014999999V0201801N002119999999N0000001N9-00441+99999099591ADDGF100991999999999999999999
0029028060999991914032606004+69100+027217FM-12+014999999V0201801N001019999999N0000001N9-02281+99999099551ADDGF100991999999999999999999
0029028060999991914032613004+69100+027217FM-12+014999999V0202301N009819999999N0000001N9-00171+99999099461ADDGF100991999999999999999999
0029028060999991914032620004+69100+027217FM-12+014999999V0209991C000019999999N0000001N9-00781+99999099341ADDGF100991999999999999999999
0029028060999991914032706004+69100+027217FM-12+014999999V0202501N001019999999N0000001N9-02221+99999099471ADDGF100991999999999999999999
0029028060999991914032713004+69100+027217FM-12+014999999V0202301N011819999999N0000001N9-00331+99999099481ADDGF100991999999999999999999
0029028060999991914032720004+69100+027217FM-12+014999999V0201801N002119999999N0000001N9-00781+99999099391ADDGF100991999999999999999999
0029028060999991914032806004+69100+027217FM-12+014999999V0201801N001019999999N0000001N9-02281+99999099181ADDGF100991999999999999999999
0029028060999991914032813004+69100+027217FM-12+014999999V0201801N006219999999N0000001N9-00441+99999099241ADDGF100991999999999999999999
0029028060999991914032820004+69100+027217FM-12+014999999V0201801N001019999999N0000001N9-01221+99999099241ADDGF100991999999999999999999
0029028060999991914032906004+69100+027217FM-12+014999999V0201801N001019999999N0000001N9-01781+99999099271ADDGF100991999999999999999999
0029028060999991914032913004+69100+027217FM-12+014999999V0202701N004119999999N0000001N9-00391+99999099441ADDGF100991999999999999999999
0029028060999991914032920004+69100+027217FM-12+014999999V0202301N002119999999N0000001N9-01111+99999099321ADDGF100991999999999999999999
0029028060999991914033006004+69100+027217FM-12+014999999V0202501N009819999999N0000001N9-01281+99999099221ADDGF100991999999999999999999
0029028060999991914033013004+69100+027217FM-12+014999999V0203201N009819999999N0000001N9-00331+99999099471ADDGF100991999999999999999999
0029028060999991914033020004+69100+027217FM-12+014999999V0203201N004119999999N0000001N9-00831+99999099721ADDGF104991999999999999999999
0029028060999991914033106004+69100+027217FM-12+014999999V0203401N006219999999N0000001N9-00781+99999099861ADDGF104991999999999999999999
0029028060999991914033113004+69100+027217FM-12+014999999V0203601N006219999999N0000001N9-00501+99999100101ADDGF104991999999999999999999
0029028060999991914033120004+69100+027217FM-12+014999999V0209991C000019999999N0000001N9-01001+99999100081ADDGF104991999999999999999999
0029028060999991914040106004+69100+027217FM-12+014999999V0202301N004119999999N0000001N9-01781+99999099901ADDGF100991999999999999999999
0029028060999991914040113004+69100+027217FM-12+014999999V0203201N008219999999N0000001N9-00501+99999099911ADDGF100991999999999999999999
0029028060999991914040120004+69100+027217FM-12+014999999V0209991C000019999999N0000001N9-01331+99999099991ADDGF100991999999999999999999
0029028060999991914040206004+69100+027217FM-12+014999999V0209991C000019999999N0000001N9-02001+99999099761ADDGF100991999999999999999999
0029028060999991914040213004+69100+027217FM-12+014999999V0202001N002119999999N0000001N9-00561+99999099831ADDGF104991999999999999999999
0029028060999991914040220004+69100+027217FM-12+014999999V0200501N001019999999N0000001N9-00831+99999099791ADDGF108991999999999999999999
0029028060999991914040306004+69100+027217FM-12+014999999V0209991C000019999999N0000001N9-01611+99999099761ADDGF108991999999999999999999
0029028060999991914040313004+69100+027217FM-12+014999999V0200901N004119999999N0000001N9-00671+99999099721ADDGF104991999999999999999999
0035028060999991914040320004+69100+027217FM-12+014999999V0201101N006219999999N0000001N9-00331+99999099471ADDGF108991999999999999999999MW1721
0029028060999991914040406004+69100+027217FM-12+014999999V0202301N009819999999N0000001N9-00221+99999099201ADDGF108991999999999999999999
0029028060999991914040413004+69100+027217FM-12+014999999V0202301N011819999999N0000001N9-00171+99999099121ADDGF108991999999999999999999
0029028060999991914040420004+69100+027217FM-12+014999999V0202301N006219999999N0000001N9-00221+99999099061ADDGF108991999999999999999999
0029028060999991914040506004+69100+027217FM-12+014999999V0202301N008219999999N0000001N9-00171+99999098861ADDGF108991999999999999999999
0029028060999991914040513004+69100+027217FM-12+014999999V0202301N004119999999N0000001N9+00001+99999098751ADDGF108991999999999999999999
0029028060999991914040520004+69100+027217FM-12+014999999V0209991C000019999999N0000001N9-00281+99999098711ADDGF106991999999999999999999
0029028060999991914040606004+69100+027217FM-12+014999999V0209991C000019999999N0000001N9-01331+99999098521ADDGF100991999999999999999999
0029028060999991914040613004+69100+027217FM-12+014999999V0200201N006219999999N0000001N9-00171+99999098591ADDGF106991999999999999999999
0029028060999991914040620004+69100+027217FM-12+014999999V0200201N002119999999N0000001N9-01001+99999098671ADDGF100991999999999999999999
0029028060999991914040706004+69100+027217FM-12+014999999V0200201N006219999999N0000001N9-01281+99999098471ADDGF108991999999999999999999
0035028060999991914040713004+69100+027217FM-12+014999999V0203601N006219999999N0000001N9-00331+99999098381ADDGF108991999999999999999999MW1701
0029028060999991914040720004+69100+027217FM-12+014999999V0203601N001019999999N0000001N9-00831+99999098671ADDGF104991999999999999999999
0029028060999991914040806004+69100+027217FM-12+014999999V0201801N001019999999N0000001N9-01501+99999099031ADDGF104991999999999999999999
0029028060999991914040813004+69100+027217FM-12+014999999V0200901N004119999999N0000001N9-00331+99999099481ADDGF100991999999999999999999
0029028060999991914040820004+69100+027217FM-12+014999999V0200901N008219999999N0000001N9-00831+99999099711ADDGF106991999999999999999999
0035028060999991914040906004+69100+027217FM-12+014999999V0200901N004119999999N0000001N9-01171+99999099791ADDGF108991999999999999999999MW1721
0035028060999991914040913004+69100+027217FM-12+014999999V0200901N004119999999N0000001N9-00391+99999099901ADDGF108991999999999999999999MW1721
0035028060999991914040920004+69100+027217FM-12+014999999V0200901N004119999999N0000001N9-00391+99999099881ADDGF108991999999999999999999MW1721
0029028060999991914041006004+69100+027217FM-12+014999999V0200901N001019999999N0000001N9-00891+99999100101ADDGF100991999999999999999999
0029028060999991914041013004+69100+027217FM-12+014999999V0200901N006219999999N0000001N9-00281+99999099961ADDGF104991999999999999999999
0029028060999991914041020004+69100+027217FM-12+014999999V0201601N004119999999N0000001N9-00331+99999099831ADDGF108991999999999999999999
0029028060999991914041106004+69100+027217FM-12+014999999V0201801N008219999999N0000001N9-00171+99999099661ADDGF100991999999999999999999
0029028060999991914041113004+69100+027217FM-12+014999999V0201801N008219999999N0000001N9+00331+99999099481ADDGF100991999999999999999999
0029028060999991914041120004+69100+027217FM-12+014999999V0201801N009819999999N0000001N9+00221+99999099221ADDGF108991999999999999999999
0029028060999991914041206004+69100+027217FM-12+014999999V0201801N006219999999N0000001N9-00061+99999098861ADDGF108991999999999999999999
0035028060999991914041213004+69100+027217FM-12+014999999V0202001N008219999999N0000001N9+00221+99999098561ADDGF108991999999999999999999MW1701
0029028060999991914041220004+69100+027217FM-12+014999999V0201801N009819999999N0000001N9+00171+99999098241ADDGF108991999999999999999999
0029028060999991914041306004+69100+027217FM-12+014999999V0201801N006219999999N0000001N9+00171+99999097501ADDGF108991999999999999999999
0029028060999991914041313004+69100+027217FM-12+014999999V0202501N009819999999N0000001N9+00391+99999097471ADDGF104991999999999999999999
0029028060999991914041320004+69100+027217FM-12+014999999V0202501N006219999999N0000001N9+00001+99999097881ADDGF106991999999999999999999
0029028060999991914041406004+69100+027217FM-12+014999999V0209991C000019999999N0000001N9-00221+99999097681ADDGF100991999999999999999999
0029028060999991914041413004+69100+027217FM-12+014999999V0202301N006219999999N0000001N9+00501+99999097421ADDGF108991999999999999999999
0035028060999991914041420004+69100+027217FM-12+014999999V0201801N002119999999N0000001N9+00061+99999097301ADDGF108991999999999999999999MW1621
0035028060999991914041506004+69100+027217FM-12+014999999V0203601N011819999999N0000001N9-00221+99999097281ADDGF108991999999999999999999MW1721
0035028060999991914041513004+69100+027217FM-12+014999999V0200501N011819999999N0000001N9+00061+99999097881ADDGF108991999999999999999999MW1721
0029028060999991914041520004+69100+027217FM-12+014999999V0203201N004119999999N0000001N9-00111+99999098741ADDGF106991999999999999999999
0029028060999991914041606004+69100+027217FM-12+014999999V0203201N002119999999N0000001N9+00001+99999099231ADDGF106991999999999999999999
0029028060999991914041613004+69100+027217FM-12+014999999V0202301N004119999999N0000001N9+00281+99999099351ADDGF100991999999999999999999
0029028060999991914041620004+69100+027217FM-12+014999999V0202501N006219999999N0000001N9-00221+99999099221ADDGF106991999999999999999999
0029028060999991914041706004+69100+027217FM-12+014999999V0202501N004119999999N0000001N9-00061+99999099541ADDGF106991999999999999999999
0029028060999991914041713004+69100+027217FM-12+014999999V0202901N006219999999N0000001N9+00441+99999099991ADDGF100991999999999999999999
0029028060999991914041720004+69100+027217FM-12+014999999V0202701N009819999999N0000001N9+00171+99999099861ADDGF106991999999999999999999
0029028060999991914041806004+69100+027217FM-12+014999999V0202301N008219999999N0000001N9+00281+99999099121ADDGF100991999999999999999999
0029028060999991914041813004+69100+027217FM-12+014999999V0203201N020119999999N0000001N9+00221+99999099421ADDGF104991999999999999999999
0029028060999991914041820004+69100+027217FM-12+014999999V0203401N015919999999N0000001N9-00221+99999099541ADDGF106991999999999999999999
0029028060999991914041906004+69100+027217FM-12+014999999V0209991C000019999999N0000001N9-00171+99999099941ADDGF100991999999999999999999
0029028060999991914041913004+69100+027217FM-12+014999999V0202301N008219999999N0000001N9+00111+99999099561ADDGF104991999999999999999999
0029028060999991914041920004+69100+027217FM-12+014999999V0202301N004119999999N0000001N9+00111+99999099301ADDGF106991999999999999999999
0029028060999991914042006004+69100+027217FM-12+014999999V0202301N006219999999N0000001N9+00111+99999099081ADDGF108991999999999999999999
0029028060999991914042013004+69100+027217FM-12+014999999V0202001N004119999999N0000001N9+00671+99999099231ADDGF100991999999999999999999
0029028060999991914042020004+69100+027217FM-12+014999999V0203201N011819999999N0000001N9+00171+99999099221ADDGF104991999999999999999999
0029028060999991914042106004+69100+027217FM-12+014999999V0202301N004119999999N0000001N9-00221+99999099221ADDGF100991999999999999999999
0035028060999991914042113004+69100+027217FM-12+014999999V0202501N009819999999N0000001N9+00221+99999098421ADDGF108991999999999999999999MW1601
0029028060999991914042120004+69100+027217FM-12+014999999V0203601N015919999999N0000001N9+00331+99999098791ADDGF104991999999999999999999
0029028060999991914042206004+69100+027217FM-12+014999999V0202501N020119999999N0000001N9+00221+99999098381ADDGF100991999999999999999999
0035028060999991914042213004+69100+027217FM-12+014999999V0203601N013919999999N0000001N9+00331+99999098581ADDGF106991999999999999999999MW1701
0029028060999991914042220004+69100+027217FM-12+014999999V0203601N008219999999N0000001N9+00221+99999099311ADDGF104991999999999999999999
0029028060999991914042306004+69100+027217FM-12+014999999V0202301N002119999999N0000001N9-00221+99999099541ADDGF108991999999999999999999
0029028060999991914042313004+69100+027217FM-12+014999999V0202301N008219999999N0000001N9+00671+99999099101ADDGF100991999999999999999999
0029028060999991914042320004+69100+027217FM-12+014999999V0202001N004119999999N0000001N9+00561+99999098421ADDGF108991999999999999999999
0029028060999991914042406004+69100+027217FM-12+014999999V0201801N002119999999N0000001N9+00441+99999097301ADDGF104991999999999999999999
0035028060999991914042413004+69100+027217FM-12+014999999V0202301N006219999999N0000001N9+00391+99999096741ADDGF108991999999999999999999MW1601
0035028060999991914042420004+69100+027217FM-12+014999999V0203601N011819999999N0000001N9+00001+99999096781ADDGF108991999999999999999999MW1741
0035028060999991914042506004+69100+027217FM-12+014999999V0200201N006219999999N0000001N9+00001+99999097671ADDGF108991999999999999999999MW1741
0029028060999991914042513004+69100+027217FM-12+014999999V0203601N011819999999N0000001N9+00001+99999098321ADDGF104991999999999999999999
0029028060999991914042520004+69100+027217FM-12+014999999V0203201N011819999999N0000001N9-00501+99999098601ADDGF104991999999999999999999
0029028060999991914042606004+69100+027217FM-12+014999999V0202501N013919999999N0000001N9-00221+99999097261ADDGF108991999999999999999999
0035028060999991914042613004+69100+027217FM-12+014999999V0201801N002119999999N0000001N9+00001+99999096631ADDGF108991999999999999999999MW1701
0029028060999991914042620004+69100+027217FM-12+014999999V0203601N004119999999N0000001N9-00391+99999097061ADDGF104991999999999999999999
0029028060999991914042706004+69100+027217FM-12+014999999V0203401N009819999999N0000001N9-00221+99999097521ADDGF100991999999999999999999
0029028060999991914042713004+69100+027217FM-12+014999999V0203401N015919999999N0000001N9+00001+99999098111ADDGF104991999999999999999999
0029028060999991914042720004+69100+027217FM-12+014999999V0202701N013919999999N0000001N9-00441+99999098351ADDGF100991999999999999999999
0029028060999991914042806004+69100+027217FM-12+014999999V0202301N004119999999N0000001N9-00721+99999097881ADDGF100991999999999999999999
0035028060999991914042813004+69100+027217FM-12+014999999V0200901N006219999999N0000001N9-00391+99999096661ADDGF108991999999999999999999MW1701
0029028060999991914042820004+69100+027217FM-12+014999999V0203601N002119999999N0000001N9-00331+99999096151ADDGF106991999999999999999999
0035028060999991914042906004+69100+027217FM-12+014999999V0203601N004119999999N0000001N9-00441+99999096111ADDGF108991999999999999999999MW1701
0029028060999991914042913004+69100+027217FM-12+014999999V0203601N006219999999N0000001N9-00111+99999096461ADDGF100991999999999999999999
0029028060999991914042920004+69100+027217FM-12+014999999V0203601N002119999999N0000001N9-00391+99999096781ADDGF104991999999999999999999
0029028060999991914043006004+69100+027217FM-12+014999999V0203201N009819999999N0000001N9-00281+99999097161ADDGF100991999999999999999999
0029028060999991914043013004+69100+027217FM-12+014999999V0203601N015919999999N0000001N9-00111+99999097441ADDGF100991999999999999999999
0029028060999991914043020004+69100+027217FM-12+014999999V0203401N008219999999N0000001N9-00441+99999097641ADDGF106991999999999999999999
0029028060999991914050106004+69100+027217FM-12+014999999V0203601N009819999999N0000001N9-00391+99999097821ADDGF104991999999999999999999
0029028060999991914050113004+69100+027217FM-12+014999999V0203601N011819999999N0000001N9-00221+99999097991ADDGF100991999999999999999999
0029028060999991914050120004+69100+027217FM-12+014999999V0202701N002119999999N0000001N9-00501+99999098121ADDGF100991999999999999999999
0029028060999991914050206004+69100+027217FM-12+014999999V0202701N015919999999N0000001N9-00501+99999097911ADDGF104991999999999999999999
0029028060999991914050213004+69100+027217FM-12+014999999V0203601N015919999999N0000001N9+00061+99999098381ADDGF104991999999999999999999
0035028060999991914050220004+69100+027217FM-12+014999999V0203601N008219999999N0000001N9-00171+99999098631ADDGF108991999999999999999999MW1701
0029028060999991914050306004+69100+027217FM-12+014999999V0203201N002119999999N0000001N9-00221+99999098861ADDGF108991999999999999999999
0029028060999991914050313004+69100+027217FM-12+014999999V0202301N002119999999N0000001N9+00281+99999098751ADDGF100991999999999999999999
0029028060999991914050320004+69100+027217FM-12+014999999V0200901N002119999999N0000001N9-00061+99999098431ADDGF108991999999999999999999
0035028060999991914050406004+69100+027217FM-12+014999999V0200501N006219999999N0000001N9-00221+99999098281ADDGF108991999999999999999999MW1701
0035028060999991914050413004+69100+027217FM-12+014999999V0203601N008219999999N0000001N9+00001+99999098591ADDGF108991999999999999999999MW1701
0029028060999991914050420004+69100+027217FM-12+014999999V0203601N002119999999N0000001N9-00281+99999098981ADDGF108991999999999999999999
0029028060999991914050506004+69100+027217FM-12+014999999V0200501N004119999999N0000001N9-00391+99999098881ADDGF106991999999999999999999
0029028060999991914050513004+69100+027217FM-12+014999999V0200901N004119999999N0000001N9-00061+99999098941ADDGF100991999999999999999999
0029028060999991914050520004+69100+027217FM-12+014999999V0200901N004119999999N0000001N9-00171+99999098521ADDGF108991999999999999999999
0035028060999991914050606004+69100+027217FM-12+014999999V0200701N008219999999N0000001N9-00171+99999097391ADDGF108991999999999999999999MW1741
0035028060999991914050613004+69100+027217FM-12+014999999V0200501N015919999999N0000001N9-00111+99999097101ADDGF108991999999999999999999MW1741
0035028060999991914050620004+69100+027217FM-12+014999999V0203601N020119999999N0000001N9-00221+99999097701ADDGF108991999999999999999999MW1701
0029028060999991914050706004+69100+027217FM-12+014999999V0202701N002119999999N0000001N9-00221+99999098831ADDGF100991999999999999999999
0029028060999991914050713004+69100+027217FM-12+014999999V0202701N001019999999N0000001N9+00221+99999099231ADDGF100991999999999999999999
0029028060999991914050720004+69100+027217FM-12+014999999V0200901N001019999999N0000001N9-00221+99999099431ADDGF100991999999999999999999
0029028060999991914050806004+69100+027217FM-12+014999999V0200901N002119999999N0000001N9-00111+99999099241ADDGF100991999999999999999999
0029028060999991914050813004+69100+027217FM-12+014999999V0200901N011819999999N0000001N9+00781+99999099101ADDGF100991999999999999999999
0029028060999991914050820004+69100+027217FM-12+014999999V0209991C000019999999N0000001N9+00561+99999098961ADDGF100991999999999999999999
0029028060999991914050906004+69100+027217FM-12+014999999V0202001N004119999999N0000001N9+00221+99999098861ADDGF100991999999999999999999
0029028060999991914050913004+69100+027217FM-12+014999999V0201801N004119999999N0000001N9+00671+99999098621ADDGF100991999999999999999999
0029028060999991914050920004+69100+027217FM-12+014999999V0201801N001019999999N0000001N9+00501+99999098521ADDGF100991999999999999999999
0029028060999991914051006004+69100+027217FM-12+014999999V0200901N004119999999N0000001N9+00441+99999097861ADDGF108991999999999999999999
0035028060999991914051013004+69100+027217FM-12+014999999V0200901N004119999999N0000001N9+00441+99999096941ADDGF108991999999999999999999MW1641
0035028060999991914051020004+69100+027217FM-12+014999999V0200901N009819999999N0000001N9+00001+99999096561ADDGF108991999999999999999999MW1741
0035028060999991914051106004+69100+027217FM-12+014999999V0202901N020119999999N0000001N9-00221+99999096281ADDGF108991999999999999999999MW1741
0029028060999991914051113004+69100+027217FM-12+014999999V0202701N027819999999N0000001N9+00111+99999096761ADDGF108991999999999999999999
0029028060999991914051120004+69100+027217FM-12+014999999V0202701N020119999999N0000001N9-00061+99999097111ADDGF108991999999999999999999
0029028060999991914051206004+69100+027217FM-12+014999999V0202701N020119999999N0000001N9-00221+99999097791ADDGF104991999999999999999999
0029028060999991914051213004+69100+027217FM-12+014999999V0202701N015919999999N0000001N9+00221+99999098381ADDGF108991999999999999999999
0029028060999991914051220004+69100+027217FM-12+014999999V0202701N006219999999N0000001N9+00221+99999099101ADDGF108991999999999999999999
0029028060999991914051306004+69100+027217FM-12+014999999V0202701N006219999999N0000001N9-00061+99999099941ADDGF100991999999999999999999
0029028060999991914051313004+69100+027217FM-12+014999999V0202701N004119999999N0000001N9+00561+99999100311ADDGF100991999999999999999999
0029028060999991914051320004+69100+027217FM-12+014999999V0201401N002119999999N0000001N9+00331+99999100241ADDGF108991999999999999999999
0029028060999991914051406004+69100+027217FM-12+014999999V0200901N002119999999N0000001N9+00391+99999099961ADDGF108991999999999999999999
0029028060999991914051413004+69100+027217FM-12+014999999V0201401N006219999999N0000001N9+00671+99999099671ADDGF108991999999999999999999
0029028060999991914051420004+69100+027217FM-12+014999999V0201801N004119999999N0000001N9+00221+99999099381ADDGF108991999999999999999999
0029028060999991914051506004+69100+027217FM-12+014999999V0202301N002119999999N0000001N9+00281+99999098871ADDGF100991999999999999999999
0029028060999991914051513004+69100+027217FM-12+014999999V0202701N009819999999N0000001N9+00721+99999099271ADDGF100991999999999999999999
0029028060999991914051520004+69100+027217FM-12+014999999V0202501N004119999999N0000001N9+00501+99999099071ADDGF105991999999999999999999
0029028060999991914051606004+69100+027217FM-12+014999999V0202701N009819999999N0000001N9+00391+99999099801ADDGF104991999999999999999999
0029028060999991914051613004+69100+027217FM-12+014999999V0202701N013919999999N0000001N9+00671+99999100591ADDGF100991999999999999999999
0029028060999991914051620004+69100+027217FM-12+014999999V0202701N013919999999N0000001N9+00441+99999100361ADDGF104991999999999999999999
0029028060999991914051706004+69100+027217FM-12+014999999V0202501N004119999999N0000001N9+00331+99999100501ADDGF100991999999999999999999
0029028060999991914051713004+69100+027217FM-12+014999999V0202701N006219999999N0000001N9+00781+99999100421ADDGF100991999999999999999999
0029028060999991914051720004+69100+027217FM-12+014999999V0202701N004119999999N0000001N9+00441+99999100261ADDGF100991999999999999999999
0035028060999991914051806004+69100+027217FM-12+014999999V0202501N002119999999N0000001N9+00221+99999099421ADDGF108991999999999999999999MW1601
0029028060999991914051813004+69100+027217FM-12+014999999V0202301N004119999999N0000001N9+00721+99999098881ADDGF106991999999999999999999
0029028060999991914051820004+69100+027217FM-12+014999999V0202301N006219999999N0000001N9+00441+99999098601ADDGF100991999999999999999999
0046028060999991914051906004+69100+027217FM-12+014999999V0202701N002119999999N0000001N9+00331+99999098021ADDAJ100009199999999GF100991999999999999999999
0035028060999991914051913004+69100+027217FM-12+014999999V0202701N003119999999N0000001N9+00611+99999097911ADDGF108991999999999999999999MW1601
0029028060999991914051920004+69100+027217FM-12+014999999V0203401N002119999999N0000001N9+00221+99999097791ADDGF106991999999999999999999
0052028060999991914052006004+69100+027217FM-12+014999999V0203601N006219999999N0000001N9+00221+99999097911ADDAJ100009199999999GF108991999999999999999999MW1601
0035028060999991914052013004+69100+027217FM-12+014999999V0203601N008219999999N0000001N9+00281+99999098581ADDGF108991999999999999999999MW1701
0029028060999991914052020004+69100+027217FM-12+014999999V0203601N011819999999N0000001N9+00171+99999099201ADDGF106991999999999999999999
0046028060999991914052106004+69100+027217FM-12+014999999V0202901N006219999999N0000001N9+00111+99999099751ADDAJ100009199999999GF104991999999999999999999
0029028060999991914052113004+69100+027217FM-12+014999999V0202701N011819999999N0000001N9+00331+99999999999ADDGF104991999999999999999999
0029028060999991914052120004+69100+027217FM-12+014999999V0202701N002119999999N0000001N9+00221+99999100261ADDGF104991999999999999999999
0046028060999991914052206004+69100+027217FM-12+014999999V0201801N002119999999N0000001N9+00391+99999100201ADDAJ100009199999999GF100991999999999999999999
0029028060999991914052213004+69100+027217FM-12+014999999V0201801N011819999999N0000001N9+00891+99999099991ADDGF100991999999999999999999
0029028060999991914052220004+69100+027217FM-12+014999999V0202301N004119999999N0000001N9+00611+99999099661ADDGF108991999999999999999999
0046028060999991914052306004+69100+027217FM-12+014999999V0202301N006219999999N0000001N9+00501+99999099301ADDAJ100009199999999GF108991999999999999999999
0029028060999991914052313004+69100+027217FM-12+014999999V0202501N006219999999N0000001N9+00781+99999098991ADDGF104991999999999999999999
0029028060999991914052320004+69100+027217FM-12+014999999V0202701N009819999999N0000001N9+00501+99999098831ADDGF104991999999999999999999
0046028060999991914052406004+69100+027217FM-12+014999999V0202701N002119999999N0000001N9+00281+99999099151ADDAJ100009199999999GF100991999999999999999999
0029028060999991914052413004+69100+027217FM-12+014999999V0200501N011819999999N0000001N9+00671+99999098961ADDGF104991999999999999999999
0035028060999991914052420004+69100+027217FM-12+014999999V0200501N008219999999N0000001N9+00001+99999099031ADDGF108991999999999999999999MW1701
0046028060999991914052506004+69100+027217FM-12+014999999V0203601N008219999999N0000001N9+00001+99999099541ADDAJ100009199999999GF100991999999999999999999
0029028060999991914052513004+69100+027217FM-12+014999999V0202701N004119999999N0000001N9+00501+99999099901ADDGF100991999999999999999999
0029028060999991914052520004+69100+027217FM-12+014999999V0202701N002119999999N0000001N9+00331+99999100101ADDGF100991999999999999999999
0046028060999991914052606004+69100+027217FM-12+014999999V0202701N006219999999N0000001N9+00391+99999100221ADDAJ100009199999999GF100991999999999999999999
0029028060999991914052613004+69100+027217FM-12+014999999V0202501N013919999999N0000001N9+01111+99999100301ADDGF100991999999999999999999
0029028060999991914052620004+69100+027217FM-12+014999999V0202001N002119999999N0000001N9+00891+99999099901ADDGF100991999999999999999999
0046028060999991914052706004+69100+027217FM-12+014999999V0201801N001019999999N0000001N9+00611+99999099591ADDAJ100009199999999GF100991999999999999999999
0029028060999991914052713004+69100+027217FM-12+014999999V0200901N001019999999N0000001N9+01111+99999099351ADDGF104991999999999999999999
0029028060999991914052720004+69100+027217FM-12+014999999V0200501N008219999999N0000001N9+00501+99999099601ADDGF104991999999999999999999
0046028060999991914052806004+69100+027217FM-12+014999999V0203601N006219999999N0000001N9+00331+99999100071ADDAJ100009199999999GF108991999999999999999999
0029028060999991914052813004+69100+027217FM-12+014999999V0209991C000019999999N0000001N9+00831+99999100421ADDGF106991999999999999999999
0029028060999991914052820004+69100+027217FM-12+014999999V0203601N004119999999N0000001N9+00501+99999100541ADDGF104991999999999999999999
0046028060999991914052906004+69100+027217FM-12+014999999V0203601N002119999999N0000001N9+00441+99999100481ADDAJ100009199999999GF100991999999999999999999
0029028060999991914052913004+69100+027217FM-12+014999999V0202501N004119999999N0000001N9+01221+99999100021ADDGF100991999999999999999999
0029028060999991914052920004+69100+027217FM-12+014999999V0201801N001019999999N0000001N9+00941+99999099901ADDGF104991999999999999999999
0046028060999991914053006004+69100+027217FM-12+014999999V0201801N008219999999N0000001N9+00941+99999099631ADDAJ100009199999999GF100991999999999999999999
0029028060999991914053013004+69100+027217FM-12+014999999V0202301N011819999999N0000001N9+01441+99999099381ADDGF100991999999999999999999
0029028060999991914053020004+69100+027217FM-12+014999999V0202301N006219999999N0000001N9+01171+99999099021ADDGF100991999999999999999999
0046028060999991914053106004+69100+027217FM-12+014999999V0202301N006219999999N0000001N9+00671+99999098721ADDAJ100009199999999GF108991999999999999999999
0029028060999991914053113004+69100+027217FM-12+014999999V0202701N006219999999N0000001N9+01171+99999098821ADDGF104991999999999999999999
0029028060999991914053120004+69100+027217FM-12+014999999V0203601N002119999999N0000001N9+00941+99999098791ADDGF108991999999999999999999
0052028060999991914060106004+69100+027217FM-12+014999999V0202301N002119999999N0000001N9+00611+99999098591ADDAJ100009199999999GF108991999999999999999999MW1601
0029028060999991914060113004+69100+027217FM-12+014999999V0201801N008219999999N0000001N9+00891+99999098521ADDGF108991999999999999999999
0035028060999991914060120004+69100+027217FM-12+014999999V0209991C000019999999N0000001N9+00671+99999098541ADDGF108991999999999999999999MW1601
0046028060999991914060206004+69100+027217FM-12+014999999V0209991C000019999999N0000001N9+00721+99999098341ADDAJ100009199999999GF100991999999999999999999
0035028060999991914060213004+69100+027217FM-12+014999999V0200501N004119999999N0000001N9+00781+99999098301ADDGF108991999999999999999999MW1601
0035028060999991914060220004+69100+027217FM-12+014999999V0203601N006219999999N0000001N9+00441+99999098141ADDGF108991999999999999999999MW1601
0046028060999991914060306004+69100+027217FM-12+014999999V0200201N014919999999N0000001N9+00281+99999098341ADDAJ100009199999999GF108991999999999999999999
0035028060999991914060313004+69100+027217FM-12+014999999V0200501N015919999999N0000001N9+00281+99999098341ADDGF108991999999999999999999MW1621
0029028060999991914060320004+69100+027217FM-12+014999999V0200501N015919999999N0000001N9+00171+99999098361ADDGF108991999999999999999999
0046028060999991914060406004+69100+027217FM-12+014999999V0200501N006219999999N0000001N9+00221+99999098341ADDAJ100009199999999GF108991999999999999999999
0029028060999991914060413004+69100+027217FM-12+014999999V0200501N002119999999N0000001N9+00781+99999098511ADDGF104991999999999999999999
0035028060999991914060420004+69100+027217FM-12+014999999V0203601N009819999999N0000001N9+00611+99999098701ADDGF108991999999999999999999MW1601
0046028060999991914060506004+69100+027217FM-12+014999999V0200501N011819999999N0000001N9+00331+99999098881ADDAJ100009199999999GF108991999999999999999999
0029028060999991914060513004+69100+027217FM-12+014999999V0203601N015919999999N0000001N9+00441+99999098921ADDGF108991999999999999999999
0029028060999991914060520004+69100+027217FM-12+014999999V0203601N011819999999N0000001N9+00281+99999099071ADDGF108991999999999999999999
0046028060999991914060606004+69100+027217FM-12+014999999V0200201N011819999999N0000001N9+00281+99999098871ADDAJ100009199999999GF108991999999999999999999
0029028060999991914060613004+69100+027217FM-12+014999999V0203601N011819999999N0000001N9+00501+99999098951ADDGF108991999999999999999999
0029028060999991914060620004+69100+027217FM-12+014999999V0200501N009819999999N0000001N9+00221+99999098951ADDGF108991999999999999999999
0052028060999991914060706004+69100+027217FM-12+014999999V0203601N011819999999N0000001N9+00111+99999098801ADDAJ100009199999999GF108991999999999999999999MW1691
0029028060999991914060713004+69100+027217FM-12+014999999V0200501N015919999999N0000001N9+00441+99999099221ADDGF108991999999999999999999
0029028060999991914060720004+69100+027217FM-12+014999999V0203601N006219999999N0000001N9+00331+99999099621ADDGF108991999999999999999999
0046028060999991914060806004+69100+027217FM-12+014999999V0203601N002119999999N0000001N9+00441+99999999999ADDAJ100009199999999GF104991999999999999999999
0035028060999991914060813004+69100+027217FM-12+014999999V0203601N002119999999N0000001N9+00561+99999100191ADDGF108991999999999999999999MW1601
0029028060999991914060820004+69100+027217FM-12+014999999V0203601N004119999999N0000001N9+00561+99999100391ADDGF106991999999999999999999
0046028060999991914060906004+69100+027217FM-12+014999999V0203601N002119999999N0000001N9+00391+99999100561ADDAJ100009199999999GF104991999999999999999999
0029028060999991914060913004+69100+027217FM-12+014999999V0202701N002119999999N0000001N9+01001+99999100541ADDGF100991999999999999999999
0029028060999991914060920004+69100+027217FM-12+014999999V0201801N004119999999N0000001N9+01001+99999100321ADDGF100991999999999999999999
0046028060999991914061006004+69100+027217FM-12+014999999V0202701N008219999999N0000001N9+01281+99999100061ADDAJ100009199999999GF104991999999999999999999
0029028060999991914061013004+69100+027217FM-12+014999999V0202701N015919999999N0000001N9+02001+99999099861ADDGF100991999999999999999999
0029028060999991914061020004+69100+027217FM-12+014999999V0209991C000019999999N0000001N9+01671+99999099861ADDGF106991999999999999999999
0046028060999991914061106004+69100+027217FM-12+014999999V0202501N008219999999N0000001N9+01441+99999099991ADDAJ100009199999999GF100991999999999999999999
0029028060999991914061113004+69100+027217FM-12+014999999V0202701N015919999999N0000001N9+01611+99999100121ADDGF104991999999999999999999
0029028060999991914061120004+69100+027217FM-12+014999999V0202701N004119999999N0000001N9+01441+99999100121ADDGF108991999999999999999999
0046028060999991914061206004+69100+027217FM-12+014999999V0202701N002119999999N0000001N9+01221+99999099911ADDAJ100009199999999GF104991999999999999999999
0029028060999991914061213004+69100+027217FM-12+014999999V0202001N008219999999N0000001N9+02111+99999099341ADDGF106991999999999999999999
0029028060999991914061220004+69100+027217FM-12+014999999V0202501N006219999999N0000001N9+01671+99999098801ADDGF100991999999999999999999
0046028060999991914061306004+69100+027217FM-12+014999999V0202701N018019999999N0000001N9+00781+99999098991ADDAJ100009199999999GF106991999999999999999999
0029028060999991914061313004+69100+027217FM-12+014999999V0203201N027819999999N0000001N9+00831+99999099431ADDGF106991999999999999999999
0029028060999991914061320004+69100+027217FM-12+014999999V0203601N015919999999N0000001N9+00441+99999099831ADDGF104991999999999999999999
0046028060999991914061406004+69100+027217FM-12+014999999V0203201N015919999999N0000001N9+00391+99999099831ADDAJ100009199999999GF104991999999999999999999
0029028060999991914061413004+69100+027217FM-12+014999999V0203601N011819999999N0000001N9+00781+99999099861ADDGF104991999999999999999999
0029028060999991914061420004+69100+027217FM-12+014999999V0203601N008219999999N0000001N9+00561+99999099881ADDGF104991999999999999999999
0046028060999991914061506004+69100+027217FM-12+014999999V0203401N006219999999N0000001N9+00561+99999099351ADDAJ100009199999999GF106991999999999999999999
0029028060999991914061513004+69100+027217FM-12+014999999V0203201N008219999999N0000001N9+00941+99999099031ADDGF106991999999999999999999
0029028060999991914061520004+69100+027217FM-12+014999999V0203601N006219999999N0000001N9+00671+99999099021ADDGF104991999999999999999999
0046028060999991914061606004+69100+027217FM-12+014999999V0203601N006219999999N0000001N9+00391+99999099471ADDAJ100009199999999GF106991999999999999999999
0029028060999991914061613004+69100+027217FM-12+014999999V0203601N013919999999N0000001N9+00831+99999099711ADDGF106991999999999999999999
0029028060999991914061620004+69100+027217FM-12+014999999V0203201N011819999999N0000001N9+00611+99999099741ADDGF106991999999999999999999
0046028060999991914061706004+69100+027217FM-12+014999999V0202701N006219999999N0000001N9+00501+99999099511ADDAJ100009199999999GF104991999999999999999999
0029028060999991914061713004+69100+027217FM-12+014999999V0202701N015919999999N0000001N9+00781+99999098961ADDGF108991999999999999999999
0029028060999991914061720004+69100+027217FM-12+014999999V0202701N008219999999N0000001N9+00721+99999098471ADDGF106991999999999999999999
0046028060999991914061806004+69100+027217FM-12+014999999V0203601N013919999999N0000001N9+00501+99999098481ADDAJ100009199999999GF108991999999999999999999
0029028060999991914061813004+69100+027217FM-12+014999999V0203601N015919999999N0000001N9+00891+99999099021ADDGF106991999999999999999999
0029028060999991914061820004+69100+027217FM-12+014999999V0202701N004119999999N0000001N9+00721+99999099021ADDGF104991999999999999999999
0052028060999991914061906004+69100+027217FM-12+014999999V0202701N006219999999N0000001N9+00611+99999098991ADDAJ100009199999999GF108991999999999999999999MW1601
0029028060999991914061913004+69100+027217FM-12+014999999V0203601N008219999999N0000001N9+01281+99999099421ADDGF104991999999999999999999
0029028060999991914061920004+69100+027217FM-12+014999999V0209991C000019999999N0000001N9+01281+99999099581ADDGF106991999999999999999999
0046028060999991914062006004+69100+027217FM-12+014999999V0200501N002119999999N0000001N9+01111+99999099511ADDAJ100009199999999GF104991999999999999999999
0029028060999991914062013004+69100+027217FM-12+014999999V0200501N001019999999N0000001N9+01281+99999099601ADDGF108991999999999999999999
0029028060999991914062020004+69100+027217FM-12+014999999V0201401N001019999999N0000001N9+01171+99999099621ADDGF106991999999999999999999
0046028060999991914062106004+69100+027217FM-12+014999999V0200501N001019999999N0000001N9+01001+99999099881ADDAJ100009199999999GF104991999999999999999999
0029028060999991914062113004+69100+027217FM-12+014999999V0200901N006219999999N0000001N9+01561+99999100101ADDGF100991999999999999999999
0029028060999991914062120004+69100+027217FM-12+014999999V0200901N001019999999N0000001N9+01331+99999100111ADDGF100991999999999999999999
0046028060999991914062206004+69100+027217FM-12+014999999V0200901N001019999999N0000001N9+01721+99999100021ADDAJ100009199999999GF100991999999999999999999
0029028060999991914062213004+69100+027217FM-12+014999999V0202301N008219999999N0000001N9+02671+99999099791ADDGF100991999999999999999999
0029028060999991914062220004+69100+027217FM-12+014999999V0202501N009819999999N0000001N9+02331+99999099641ADDGF100991999999999999999999
0046028060999991914062306004+69100+027217FM-12+014999999V0203401N006219999999N0000001N9+01501+99999100041ADDAJ100009199999999GF104991999999999999999999
0029028060999991914062313004+69100+027217FM-12+014999999V0200201N004119999999N0000001N9+01781+99999100311ADDGF104991999999999999999999
0029028060999991914062320004+69100+027217FM-12+014999999V0201401N002119999999N0000001N9+01831+99999100201ADDGF100991999999999999999999
0046028060999991914062406004+69100+027217FM-12+014999999V0201801N001019999999N0000001N9+01831+99999099941ADDAJ100009199999999GF100991999999999999999999
0029028060999991914062413004+69100+027217FM-12+014999999V0202301N008219999999N0000001N9+02611+99999099591ADDGF104991999999999999999999
0029028060999991914062420004+69100+027217FM-12+014999999V0209991C000019999999N0000001N9+01941+99999099781ADDGF104991999999999999999999
0046028060999991914062506004+69100+027217FM-12+014999999V0200901N004119999999N0000001N9+01891+99999099821ADDAJ100009199999999GF100991999999999999999999
0029028060999991914062513004+69100+027217FM-12+014999999V0200901N008219999999N0000001N9+02611+99999099401ADDGF104991999999999999999999
0029028060999991914062520004+69100+027217FM-12+014999999V0200901N002119999999N0000001N9+02391+99999099351ADDGF108991999999999999999999
0046028060999991914062606004+69100+027217FM-12+014999999V0200901N002119999999N0000001N9+01721+99999099341ADDAJ100009199999999GF104991999999999999999999
0029028060999991914062613004+69100+027217FM-12+014999999V0203601N011819999999N0000001N9+01441+99999099591ADDGF108991999999999999999999
0029028060999991914062620004+69100+027217FM-12+014999999V0203601N011819999999N0000001N9+01221+99999099921ADDGF108991999999999999999999
0046028060999991914062706004+69100+027217FM-12+014999999V0200901N008219999999N0000001N9+01281+99999100101ADDAJ100009199999999GF106991999999999999999999
0029028060999991914062713004+69100+027217FM-12+014999999V0200501N008219999999N0000001N9+01391+99999099961ADDGF108991999999999999999999
0035028060999991914062720004+69100+027217FM-12+014999999V0200701N004119999999N0000001N9+01171+99999099631ADDGF108991999999999999999999MW1601
0052028060999991914062806004+69100+027217FM-12+014999999V0200901N011819999999N0000001N9+00721+99999098831ADDAJ100009199999999GF108991999999999999999999MW1641
0029028060999991914062813004+69100+027217FM-12+014999999V0200901N008219999999N0000001N9+00891+99999098541ADDGF108991999999999999999999
0029028060999991914062820004+69100+027217FM-12+014999999V0200901N004119999999N0000001N9+00721+99999098281ADDGF108991999999999999999999
0046028060999991914062906004+69100+027217FM-12+014999999V0200901N004119999999N0000001N9+00781+99999098031ADDAJ100009199999999GF108991999999999999999999
0029028060999991914062913004+69100+027217FM-12+014999999V0201801N002119999999N0000001N9+01391+99999098321ADDGF108991999999999999999999
0029028060999991914062920004+69100+027217FM-12+014999999V0201801N004119999999N0000001N9+01221+99999098471ADDGF100991999999999999999999
0046028060999991914063006004+69100+027217FM-12+014999999V0209991C000019999999N0000001N9+01441+99999098511ADDAJ100009199999999GF101991999999999999999999
0029028060999991914063013004+69100+027217FM-12+014999999V0209991C000019999999N0000001N9+01671+99999098521ADDGF100991999999999999999999
0029028060999991914063020004+69100+027217FM-12+014999999V0209991C000019999999N0000001N9+01221+99999098541ADDGF100991999999999999999999
0046028060999991914070106004+69100+027217FM-12+014999999V0209991C000019999999N0000001N9+01281+99999098721ADDAJ100009199999999GF100991999999999999999999
0029028060999991914070113004+69100+027217FM-12+014999999V0202001N004119999999N0000001N9+01501+99999098461ADDGF108991999999999999999999
0029028060999991914070120004+69100+027217FM-12+014999999V0201801N002119999999N0000001N9+01171+99999098391ADDGF100991999999999999999999
0046028060999991914070206004+69100+027217FM-12+014999999V0202901N015919999999N0000001N9+01221+99999099031ADDAJ100009199999999GF108991999999999999999999
0029028060999991914070213004+69100+027217FM-12+014999999V0202501N011819999999N0000001N9+01391+99999099831ADDGF106991999999999999999999
0029028060999991914070220004+69100+027217FM-12+014999999V0202901N013919999999N0000001N9+01391+99999100161ADDGF108991999999999999999999
0046028060999991914070306004+69100+027217FM-12+014999999V0209991C000019999999N0000001N9+01391+99999100321ADDAJ100009199999999GF100991999999999999999999
0029028060999991914070313004+69100+027217FM-12+014999999V0201801N001019999999N0000001N9+02001+99999100161ADDGF100991999999999999999999
0029028060999991914070320004+69100+027217FM-12+014999999V0209991C000019999999N0000001N9+01721+99999100481ADDGF100991999999999999999999
0046028060999991914070406004+69100+027217FM-12+014999999V0209991C000019999999N0000001N9+01781+99999100521ADDAJ100009199999999GF100991999999999999999999
0029028060999991914070413004+69100+027217FM-12+014999999V0202001N006219999999N0000001N9+02721+99999100581ADDGF100991999999999999999999
0029028060999991914070420004+69100+027217FM-12+014999999V0209991C000019999999N0000001N9+02441+99999100321ADDGF100991999999999999999999
0046028060999991914070506004+69100+027217FM-12+014999999V0209991C000019999999N0000001N9+02221+99999100461ADDAJ100009199999999GF100991999999999999999999
0029028060999991914070513004+69100+027217FM-12+014999999V0203601N002119999999N0000001N9+02941+99999100551ADDGF100991999999999999999999
0029028060999991914070520004+69100+027217FM-12+014999999V0201401N004119999999N0000001N9+02891+99999100301ADDGF100991999999999999999999
0046028060999991914070606004+69100+027217FM-12+014999999V0200901N004119999999N0000001N9+02001+99999100711ADDAJ100009199999999GF100991999999999999999999
0029028060999991914070613004+69100+027217FM-12+014999999V0201801N004119999999N0000001N9+02891+99999101081ADDGF100991999999999999999999
0029028060999991914070620004+69100+027217FM-12+014999999V0202301N006219999999N0000001N9+02221+99999101081ADDGF100991999999999999999999
0046028060999991914070706004+69100+027217FM-12+014999999V0200901N004119999999N0000001N9+02671+99999100601ADDAJ100009199999999GF100991999999999999999999
0029028060999991914070713004+69100+027217FM-12+014999999V0201401N004119999999N0000001N9+03001+99999100421ADDGF100991999999999999999999
0029028060999991914070720004+69100+027217FM-12+014999999V0201801N004119999999N0000001N9+02281+99999100751ADDGF100991999999999999999999
0046028060999991914070806004+69100+027217FM-12+014999999V0200501N006219999999N0000001N9+02221+99999100391ADDAJ100009199999999GF104991999999999999999999
0029028060999991914070813004+69100+027217FM-12+014999999V0209991C000019999999N0000001N9+02891+99999100261ADDGF100991999999999999999999
0029028060999991914070820004+69100+027217FM-12+014999999V0200501N004119999999N0000001N9+02781+99999100271ADDGF100991999999999999999999
0046028060999991914070906004+69100+027217FM-12+014999999V0202501N004119999999N0000001N9+01831+99999999999ADDAJ100009199999999GF104991999999999999999999
0029028060999991914070913004+69100+027217FM-12+014999999V0200501N006219999999N0000001N9+02221+99999100021ADDGF104991999999999999999999
0029028060999991914070920004+69100+027217FM-12+014999999V0203601N006219999999N0000001N9+01001+99999099761ADDGF108991999999999999999999
0046028060999991914071006004+69100+027217FM-12+014999999V0200901N004119999999N0000001N9+01281+99999100441ADDAJ100009199999999GF108991999999999999999999
0029028060999991914071013004+69100+027217FM-12+014999999V0209991C000019999999N0000001N9+01831+99999100391ADDGF100991999999999999999999
0029028060999991914071020004+69100+027217FM-12+014999999V0200901N001019999999N0000001N9+01831+99999100141ADDGF100991999999999999999999
0046028060999991914071106004+69100+027217FM-12+014999999V0200501N006219999999N0000001N9+01671+99999100281ADDAJ100009199999999GF108991999999999999999999
0029028060999991914071113004+69100+027217FM-12+014999999V0200501N001019999999N0000001N9+01831+99999100401ADDGF100991999999999999999999
0029028060999991914071120004+69100+027217FM-12+014999999V0201801N001019999999N0000001N9+01501+99999100281ADDGF108991999999999999999999
0046028060999991914071206004+69100+027217FM-12+014999999V0203601N006219999999N0000001N9+01281+99999100581ADDAJ100009199999999GF108991999999999999999999
0029028060999991914071213004+69100+027217FM-12+014999999V0202701N004119999999N0000001N9+01721+99999100391ADDGF100991999999999999999999
0029028060999991914071220004+69100+027217FM-12+014999999V0200901N001019999999N0000001N9+01561+99999100141ADDGF100991999999999999999999
0046028060999991914071306004+69100+027217FM-12+014999999V0203601N008219999999N0000001N9+01391+99999100141ADDAJ100009199999999GF106991999999999999999999
0029028060999991914071313004+69100+027217FM-12+014999999V0203601N008219999999N0000001N9+01721+99999099941ADDGF104991999999999999999999
0029028060999991914071320004+69100+027217FM-12+014999999V0203601N006219999999N0000001N9+01331+99999100081ADDGF104991999999999999999999
0046028060999991914071406004+69100+027217FM-12+014999999V0200501N004119999999N0000001N9+01001+99999100031ADDAJ100009199999999GF104991999999999999999999
0029028060999991914071413004+69100+027217FM-12+014999999V0200901N006219999999N0000001N9+01441+99999099911ADDGF104991999999999999999999
0029028060999991914071420004+69100+027217FM-12+014999999V0200501N006219999999N0000001N9+01221+99999100061ADDGF104991999999999999999999
0046028060999991914071506004+69100+027217FM-12+014999999V0201801N001019999999N0000001N9+01281+99999099951ADDAJ100009199999999GF100991999999999999999999
0029028060999991914071513004+69100+027217FM-12+014999999V0200901N006219999999N0000001N9+01501+99999099881ADDGF106991999999999999999999
0029028060999991914071520004+69100+027217FM-12+014999999V0200701N004119999999N0000001N9+01391+99999099591ADDGF104991999999999999999999
0046028060999991914071606004+69100+027217FM-12+014999999V0200501N001019999999N0000001N9+01441+99999099601ADDAJ100009199999999GF100991999999999999999999
0029028060999991914071613004+69100+027217FM-12+014999999V0202701N006219999999N0000001N9+02111+99999099081ADDGF100991999999999999999999
0029028060999991914071620004+69100+027217FM-12+014999999V0200501N008219999999N0000001N9+01221+99999099561ADDGF108991999999999999999999
0046028060999991914071706004+69100+027217FM-12+014999999V0203601N006219999999N0000001N9+00781+99999099701ADDAJ100009199999999GF108991999999999999999999
0029028060999991914071713004+69100+027217FM-12+014999999V0200501N006219999999N0000001N9+01061+99999099781ADDGF104991999999999999999999
0029028060999991914071720004+69100+027217FM-12+014999999V0203601N006219999999N0000001N9+01001+99999099821ADDGF106991999999999999999999
0046028060999991914071806004+69100+027217FM-12+014999999V0202701N004119999999N0000001N9+00781+99999099881ADDAJ100009199999999GF100991999999999999999999
0029028060999991914071813004+69100+027217FM-12+014999999V0202701N008219999999N0000001N9+01441+99999099521ADDGF104991999999999999999999
0029028060999991914071820004+69100+027217FM-12+014999999V0203601N001019999999N0000001N9+00941+99999099401ADDGF108991999999999999999999
0046028060999991914071906004+69100+027217FM-12+014999999V0200501N006219999999N0000001N9+01001+99999099041ADDAJ100009199999999GF106991999999999999999999
0029028060999991914071913004+69100+027217FM-12+014999999V0202701N004119999999N0000001N9+01171+99999099231ADDGF106991999999999999999999
0029028060999991914071920004+69100+027217FM-12+014999999V0209991C000019999999N0000001N9+01221+99999099341ADDGF106991999999999999999999
0046028060999991914072006004+69100+027217FM-12+014999999V0200501N004119999999N0000001N9+00781+99999099591ADDAJ100009199999999GF108991999999999999999999
0029028060999991914072013004+69100+027217FM-12+014999999V0203601N001019999999N0000001N9+01221+99999099421ADDGF104991999999999999999999
0029028060999991914072020004+69100+027217FM-12+014999999V0203601N006219999999N0000001N9+00891+99999099191ADDGF106991999999999999999999
0046028060999991914072106004+69100+027217FM-12+014999999V0203601N004119999999N0000001N9+00561+99999099381ADDAJ100009199999999GF106991999999999999999999
0029028060999991914072113004+69100+027217FM-12+014999999V0203601N006219999999N0000001N9+01061+99999099681ADDGF104991999999999999999999
0035028060999991914072120004+69100+027217FM-12+014999999V0203401N008219999999N0000001N9+00781+99999099071ADDGF108991999999999999999999MW1601
0046028060999991914072206004+69100+027217FM-12+014999999V0203601N006219999999N0000001N9+00611+99999098941ADDAJ100009199999999GF108991999999999999999999
0029028060999991914072213004+69100+027217FM-12+014999999V0203601N001019999999N0000001N9+00781+99999098841ADDGF108991999999999999999999
0035028060999991914072220004+69100+027217FM-12+014999999V0200201N002119999999N0000001N9+00781+99999098901ADDGF108991999999999999999999MW1621
0046028060999991914072306004+69100+027217FM-12+014999999V0200501N008219999999N0000001N9+00501+99999098871ADDAJ100009199999999GF108991999999999999999999
0029028060999991914072313004+69100+027217FM-12+014999999V0203601N006219999999N0000001N9+00831+99999098911ADDGF104991999999999999999999
0029028060999991914072320004+69100+027217FM-12+014999999V0200501N004119999999N0000001N9+00671+99999098911ADDGF104991999999999999999999
0052028060999991914072406004+69100+027217FM-12+014999999V0200501N015919999999N0000001N9+00611+99999098751ADDAJ100009199999999GF108991999999999999999999MW1601
0035028060999991914072413004+69100+027217FM-12+014999999V0200501N015919999999N0000001N9+00561+99999098681ADDGF108991999999999999999999MW1641
0035028060999991914072420004+69100+027217FM-12+014999999V0200501N013919999999N0000001N9+00611+99999098761ADDGF108991999999999999999999MW1641
0046028060999991914072506004+69100+027217FM-12+014999999V0200501N015919999999N0000001N9+00611+99999099071ADDAJ100009199999999GF108991999999999999999999
0029028060999991914072513004+69100+027217FM-12+014999999V0200501N013919999999N0000001N9+00831+99999099271ADDGF106991999999999999999999
0029028060999991914072520004+69100+027217FM-12+014999999V0200901N013919999999N0000001N9+00611+99999099301ADDGF108991999999999999999999
0046028060999991914072606004+69100+027217FM-12+014999999V0200901N008219999999N0000001N9+00611+99999099181ADDAJ100009199999999GF108991999999999999999999
0029028060999991914072613004+69100+027217FM-12+014999999V0200901N006219999999N0000001N9+01061+99999099101ADDGF104991999999999999999999
0029028060999991914072620004+69100+027217FM-12+014999999V0200701N004119999999N0000001N9+01061+99999098881ADDGF104991999999999999999999
0046028060999991914072706004+69100+027217FM-12+014999999V0200501N006219999999N0000001N9+00441+99999099141ADDAJ100009199999999GF108991999999999999999999
0029028060999991914072713004+69100+027217FM-12+014999999V0200901N006219999999N0000001N9+01171+99999099111ADDGF100991999999999999999999
0029028060999991914072720004+69100+027217FM-12+014999999V0200901N004119999999N0000001N9+00941+99999098941ADDGF106991999999999999999999
0046028060999991914072806004+69100+027217FM-12+014999999V0200901N004119999999N0000001N9+00781+99999098801ADDAJ100009199999999GF108991999999999999999999
0029028060999991914072813004+69100+027217FM-12+014999999V0200901N006219999999N0000001N9+01061+99999098821ADDGF108991999999999999999999
0029028060999991914072820004+69100+027217FM-12+014999999V0200901N002119999999N0000001N9+01001+99999098621ADDGF108991999999999999999999
0046028060999991914072906004+69100+027217FM-12+014999999V0200501N004119999999N0000001N9+01061+99999098621ADDAJ100009199999999GF106991999999999999999999
0035028060999991914072913004+69100+027217FM-12+014999999V0203601N004119999999N0000001N9+01221+99999098741ADDGF108991999999999999999999MW1601
0035028060999991914072920004+69100+027217FM-12+014999999V0203601N008219999999N0000001N9+00721+99999098921ADDGF108991999999999999999999MW1601
0046028060999991914073006004+69100+027217FM-12+014999999V0203601N011819999999N0000001N9+00501+99999099121ADDAJ100009199999999GF106991999999999999999999
0029028060999991914073013004+69100+027217FM-12+014999999V0200701N008219999999N0000001N9+00941+99999099201ADDGF104991999999999999999999
0029028060999991914073020004+69100+027217FM-12+014999999V0200201N011819999999N0000001N9+00721+99999099311ADDGF106991999999999999999999
0046028060999991914073106004+69100+027217FM-12+014999999V0203601N013919999999N0000001N9+00611+99999099351ADDAJ100009199999999GF108991999999999999999999
0029028060999991914073113004+69100+027217FM-12+014999999V0200501N011819999999N0000001N9+00831+99999099501ADDGF108991999999999999999999
0029028060999991914073120004+69100+027217FM-12+014999999V0200501N008219999999N0000001N9+00831+99999099781ADDGF106991999999999999999999
0046028060999991914080106004+69100+027217FM-12+014999999V0203601N011819999999N0000001N9+00501+99999100111ADDAJ100009199999999GF108991999999999999999999
0029028060999991914080113004+69100+027217FM-12+014999999V0200501N013919999999N0000001N9+01111+99999100191ADDGF100991999999999999999999
0029028060999991914080120004+69100+027217FM-12+014999999V0200501N002119999999N0000001N9+00781+99999100341ADDGF100991999999999999999999
0046028060999991914080206004+69100+027217FM-12+014999999V0200901N002119999999N0000001N9+00721+99999100511ADDAJ100009199999999GF108991999999999999999999
0029028060999991914080213004+69100+027217FM-12+014999999V0200901N006219999999N0000001N9+01061+99999100391ADDGF100991999999999999999999
0029028060999991914080220004+69100+027217FM-12+014999999V0201401N004119999999N0000001N9+00781+99999100271ADDGF100991999999999999999999
0046028060999991914080306004+69100+027217FM-12+014999999V0200901N002119999999N0000001N9+00501+99999100551ADDAJ100009199999999GF108991999999999999999999
0029028060999991914080313004+69100+027217FM-12+014999999V0201401N008219999999N0000001N9+00891+99999100351ADDGF104991999999999999999999
0029028060999991914080320004+69100+027217FM-12+014999999V0200901N004119999999N0000001N9+00781+99999100201ADDGF100991999999999999999999
0046028060999991914080406004+69100+027217FM-12+014999999V0200901N004119999999N0000001N9+00671+99999100121ADDAJ100009199999999GF108991999999999999999999
0029028060999991914080413004+69100+027217FM-12+014999999V0200701N006219999999N0000001N9+01111+99999099961ADDGF100991999999999999999999
0029028060999991914080420004+69100+027217FM-12+014999999V0200901N001019999999N0000001N9+00941+99999099741ADDGF100991999999999999999999
0046028060999991914080506004+69100+027217FM-12+014999999V0209991C000019999999N0000001N9+00671+99999099671ADDAJ100009199999999GF108991999999999999999999
0029028060999991914080513004+69100+027217FM-12+014999999V0200901N004119999999N0000001N9+01721+99999099501ADDGF100991999999999999999999
0029028060999991914080520004+69100+027217FM-12+014999999V0200901N001019999999N0000001N9+01331+99999099521ADDGF100991999999999999999999
0046028060999991914080606004+69100+027217FM-12+014999999V0200701N008219999999N0000001N9+01171+99999099511ADDAJ100009199999999GF100991999999999999999999
0029028060999991914080613004+69100+027217FM-12+014999999V0200701N011819999999N0000001N9+01391+99999099511ADDGF106991999999999999999999
0029028060999991914080620004+69100+027217FM-12+014999999V0200901N004119999999N0000001N9+01171+99999099541ADDGF108991999999999999999999
0046028060999991914080706004+69100+027217FM-12+014999999V0200701N004119999999N0000001N9+00891+99999099461ADDAJ100009199999999GF108991999999999999999999
0029028060999991914080713004+69100+027217FM-12+014999999V0200901N008219999999N0000001N9+01501+99999099461ADDGF108991999999999999999999
0029028060999991914080720004+69100+027217FM-12+014999999V0200501N004119999999N0000001N9+01331+99999099381ADDGF100991999999999999999999
0046028060999991914080806004+69100+027217FM-12+014999999V0200701N001019999999N0000001N9+01171+99999099501ADDAJ100009199999999GF108991999999999999999999
0029028060999991914080813004+69100+027217FM-12+014999999V0200901N004119999999N0000001N9+02331+99999099361ADDGF100991999999999999999999
0029028060999991914080820004+69100+027217FM-12+014999999V0209991C000019999999N0000001N9+01781+99999099281ADDGF104991999999999999999999
0046028060999991914080906004+69100+027217FM-12+014999999V0209991C000019999999N0000001N9+01611+99999099421ADDAJ100009199999999GF100991999999999999999999
0029028060999991914080913004+69100+027217FM-12+014999999V0202301N006219999999N0000001N9+02391+99999099271ADDGF100991999999999999999999
0029028060999991914080920004+69100+027217FM-12+014999999V0202301N001019999999N0000001N9+01831+99999099201ADDGF100991999999999999999999
0046028060999991914081006004+69100+027217FM-12+014999999V0201801N006219999999N0000001N9+01671+99999099071ADDAJ100009199999999GF100991999999999999999999
0029028060999991914081013004+69100+027217FM-12+014999999V0202301N004119999999N0000001N9+01831+99999099061ADDGF104991999999999999999999
0029028060999991914081020004+69100+027217FM-12+014999999V0202501N004119999999N0000001N9+01671+99999098991ADDGF106991999999999999999999
0046028060999991914081106004+69100+027217FM-12+014999999V0203601N004119999999N0000001N9+01281+99999099071ADDAJ100009199999999GF106991999999999999999999
0029028060999991914081113004+69100+027217FM-12+014999999V0209991C000019999999N0000001N9+01501+99999099041ADDGF108991999999999999999999
0029028060999991914081120004+69100+027217FM-12+014999999V0203601N001019999999N0000001N9+01221+99999099221ADDGF104991999999999999999999
0046028060999991914081206004+69100+027217FM-12+014999999V0209991C000019999999N0000001N9+00941+99999099341ADDAJ100009199999999GF100991999999999999999999
0029028060999991914081213004+69100+027217FM-12+014999999V0200901N002119999999N0000001N9+01501+99999099161ADDGF100991999999999999999999
0029028060999991914081220004+69100+027217FM-12+014999999V0209991C000019999999N0000001N9+01221+99999099231ADDGF106991999999999999999999
0046028060999991914081306004+69100+027217FM-12+014999999V0203601N004119999999N0000001N9+01111+99999099441ADDAJ100009199999999GF108991999999999999999999
0029028060999991914081313004+69100+027217FM-12+014999999V0200901N002119999999N0000001N9+01561+99999099561ADDGF100991999999999999999999
0035028060999991914081320004+69100+027217FM-12+014999999V0200901N008219999999N0000001N9+01171+99999099721ADDGF108991999999999999999999MW1601
0046028060999991914081406004+69100+027217FM-12+014999999V0200901N011819999999N0000001N9+01171+99999099961ADDAJ100009199999999GF108991999999999999999999
0029028060999991914081413004+69100+027217FM-12+014999999V0200701N008219999999N0000001N9+01331+99999100061ADDGF106991999999999999999999
0029028060999991914081420004+69100+027217FM-12+014999999V0200701N008219999999N0000001N9+00941+99999100101ADDGF108991999999999999999999
0046028060999991914081506004+69100+027217FM-12+014999999V0200701N009819999999N0000001N9+00831+99999999999ADDAJ100009199999999GF104991999999999999999999
0029028060999991914081513004+69100+027217FM-12+014999999V0203601N011819999999N0000001N9+01001+99999099871ADDGF108991999999999999999999
0029028060999991914081520004+69100+027217FM-12+014999999V0200501N008219999999N0000001N9+00831+99999099751ADDGF108991999999999999999999
0046028060999991914081606004+69100+027217FM-12+014999999V0200501N004119999999N0000001N9+00831+99999099601ADDAJ100009199999999GF104991999999999999999999
0029028060999991914081613004+69100+027217FM-12+014999999V0200201N006219999999N0000001N9+01281+99999099521ADDGF104991999999999999999999
0029028060999991914081620004+69100+027217FM-12+014999999V0203601N008219999999N0000001N9+00721+99999099751ADDGF108991999999999999999999
0046028060999991914081706004+69100+027217FM-12+014999999V0203601N008219999999N0000001N9+00611+99999099631ADDAJ100009199999999GF108991999999999999999999
0029028060999991914081713004+69100+027217FM-12+014999999V0203601N008219999999N0000001N9+00781+99999099711ADDGF104991999999999999999999
0029028060999991914081720004+69100+027217FM-12+014999999V0200201N006219999999N0000001N9+00671+99999099751ADDGF108991999999999999999999
0046028060999991914081806004+69100+027217FM-12+014999999V0202301N004119999999N0000001N9+00671+99999099391ADDAJ100009199999999GF108991999999999999999999
0035028060999991914081813004+69100+027217FM-12+014999999V0201801N006219999999N0000001N9+00831+99999098961ADDGF108991999999999999999999MW1601
0035028060999991914081820004+69100+027217FM-12+014999999V0200901N006219999999N0000001N9+00561+99999098551ADDGF108991999999999999999999MW1641
0046028060999991914081906004+69100+027217FM-12+014999999V0200501N015919999999N0000001N9+00501+99999099231ADDAJ100009199999999GF106991999999999999999999
0035028060999991914081913004+69100+027217FM-12+014999999V0200501N020119999999N0000001N9+00781+99999099591ADDGF108991999999999999999999MW1601
0029028060999991914081920004+69100+027217FM-12+014999999V0203601N002119999999N0000001N9+00331+99999099941ADDGF104991999999999999999999
0046028060999991914082006004+69100+027217FM-12+014999999V0200201N020119999999N0000001N9+00391+99999099941ADDAJ100009199999999GF108991999999999999999999
0035028060999991914082013004+69100+027217FM-12+014999999V0203601N011819999999N0000001N9+00611+99999099991ADDGF108991999999999999999999MW1601
0029028060999991914082020004+69100+027217FM-12+014999999V0200901N004119999999N0000001N9+00501+99999099951ADDGF108991999999999999999999
0046028060999991914082106004+69100+027217FM-12+014999999V0203201N013919999999N0000001N9+00671+99999099621ADDAJ100009199999999GF108991999999999999999999
0029028060999991914082113004+69100+027217FM-12+014999999V0203601N008219999999N0000001N9+00611+99999099481ADDGF108991999999999999999999
0035028060999991914082120004+69100+027217FM-12+014999999V0203601N006219999999N0000001N9+00561+99999099521ADDGF108991999999999999999999MW1621
0046028060999991914082206004+69100+027217FM-12+014999999V0203601N002119999999N0000001N9+00561+99999099361ADDAJ100009199999999GF108991999999999999999999
0029028060999991914082213004+69100+027217FM-12+014999999V0200501N008219999999N0000001N9+00831+99999099301ADDGF106991999999999999999999
0035028060999991914082220004+69100+027217FM-12+014999999V0203601N004119999999N0000001N9+00671+99999099351ADDGF108991999999999999999999MW1601
0046028060999991914082306004+69100+027217FM-12+014999999V0203401N004119999999N0000001N9+00721+99999099661ADDAJ100009199999999GF106991999999999999999999
0029028060999991914082313004+69100+027217FM-12+014999999V0203601N006219999999N0000001N9+01171+99999099791ADDGF104991999999999999999999
0029028060999991914082320004+69100+027217FM-12+014999999V0209991C000019999999N0000001N9+00721+99999100021ADDGF108991999999999999999999
0046028060999991914082406004+69100+027217FM-12+014999999V0203601N002119999999N0000001N9+00671+99999100161ADDAJ100009199999999GF108991999999999999999999
0029028060999991914082413004+69100+027217FM-12+014999999V0200901N004119999999N0000001N9+01001+99999100161ADDGF108991999999999999999999
0029028060999991914082420004+69100+027217FM-12+014999999V0209991C000019999999N0000001N9+00281+99999100031ADDGF100991999999999999999999
0046028060999991914082506004+69100+027217FM-12+014999999V0201801N004119999999N0000001N9+00671+99999099921ADDAJ100009199999999GF100991999999999999999999
0029028060999991914082513004+69100+027217FM-12+014999999V0201801N008219999999N0000001N9+01501+99999099741ADDGF100991999999999999999999
0029028060999991914082520004+69100+027217FM-12+014999999V0201801N009819999999N0000001N9+01221+99999099471ADDGF108991999999999999999999
0052028060999991914082606004+69100+027217FM-12+014999999V0209991C000019999999N0000001N9+01221+99999099661ADDAJ100009199999999GF108991999999999999999999MW1621
0029028060999991914082613004+69100+027217FM-12+014999999V0209991C000019999999N0000001N9+01171+99999099871ADDGF108991999999999999999999
0029028060999991914082620004+69100+027217FM-12+014999999V0209991C000019999999N0000001N9+01001+99999099921ADDGF106991999999999999999999
0046028060999991914082706004+69100+027217FM-12+014999999V0202001N004119999999N0000001N9+01001+99999100241ADDAJ100009199999999GF108991999999999999999999
0029028060999991914082713004+69100+027217FM-12+014999999V0209991C000019999999N0000001N9+01281+99999100471ADDGF106991999999999999999999
0029028060999991914082720004+69100+027217FM-12+014999999V0209991C000019999999N0000001N9+00941+99999100501ADDGF104991999999999999999999
0046028060999991914082806004+69100+027217FM-12+014999999V0209991C000019999999N0000001N9+00831+99999100591ADDAJ100009199999999GF108991999999999999999999
0029028060999991914082813004+69100+027217FM-12+014999999V0201801N004119999999N0000001N9+01671+99999100421ADDGF100991999999999999999999
0029028060999991914082820004+69100+027217FM-12+014999999V0209991C000019999999N0000001N9+01061+99999100391ADDGF100991999999999999999999
0046028060999991914082906004+69100+027217FM-12+014999999V0201801N002119999999N0000001N9+00941+99999099981ADDAJ100009199999999GF108991999999999999999999
0035028060999991914082913004+69100+027217FM-12+014999999V0201801N008219999999N0000001N9+01061+99999099631ADDGF108991999999999999999999MW1621
0035028060999991914082920004+69100+027217FM-12+014999999V0201801N002119999999N0000001N9+01061+99999099511ADDGF108991999999999999999999MW1621
