0029028060999991915010106004+69100+027217FM-12+014999999V0209991C000019999999N0000001N9-00561+99999099061ADDGF100991999999999999999999
0029028060999991915010113004+69100+027217FM-12+014999999V0202701N002119999999N0000001N9-01061+99999099381ADDGF104991999999999999999999
0035028060999991915010120004+69100+027217FM-12+014999999V0209991C000019999999N0000001N9-02331+99999099461ADDGF100991999999999999999999MW1721
0035028060999991915010206004+69100+027217FM-12+014999999V0201801N004119999999N0000001N9-00831+99999099221ADDGF104991999999999999999999MW1481
0029028060999991915010213004+69100+027217FM-12+014999999V0202301N008219999999N0000001N9-00721+99999099481ADDGF104991999999999999999999
0029028060999991915010220004+69100+027217FM-12+014999999V0202301N011819999999N0000001N9-00221+99999099301ADDGF104991999999999999999999
0035028060999991915010306004+69100+027217FM-12+014999999V0202301N015919999999N0000001N9-00501+99999099281ADDGF108991999999999999999999MW1381
0035028060999991915010313004+69100+027217FM-12+014999999V0202301N015919999999N0000001N9-00391+99999099321ADDGF108991999999999999999999MW1381
0035028060999991915010320004+69100+027217FM-12+014999999V0202301N015919999999N0000001N9-00561+99999099431ADDGF108991999999999999999999MW1381
0029028060999991915010406004+69100+027217FM-12+014999999V0202301N011819999999N0000001N9-00611+99999099721ADDGF106991999999999999999999
0029028060999991915010413004+69100+027217FM-12+014999999V0202301N004119999999N0000001N9-00561+99999099951ADDGF100991999999999999999999
0029028060999991915010420004+69100+027217FM-12+014999999V0202501N008219999999N0000001N9-00721+99999100101ADDGF104991999999999999999999
0029028060999991915010506004+69100+027217FM-12+014999999V0202501N015919999999N0000001N9-00561+99999100361ADDGF106991999999999999999999
0035028060999991915010513004+69100+027217FM-12+014999999V0202701N015919999999N0000001N9-00671+99999100541ADDGF106991999999999999999999MW1381
0029028060999991915010520004+69100+027217FM-12+014999999V0202301N011819999999N0000001N9-00781+99999100561ADDGF108991999999999999999999
0029028060999991915010606004+69100+027217FM-12+014999999V0202301N006219999999N0000001N9-01391+99999100401ADDGF106991999999999999999999
0029028060999991915010613004+69100+027217FM-12+014999999V0202001N008219999999N0000001N9-01561+99999100391ADDGF104991999999999999999999
0029028060999991915010620004+69100+027217FM-12+014999999V0202501N011819999999N0000001N9-01561+99999100501ADDGF108991999999999999999999
0035028060999991915010706004+69100+027217FM-12+014999999V0201801N004119999999N0000001N9-01611+99999100461ADDGF100991999999999999999999MW1481
0035028060999991915010713004+69100+027217FM-12+014999999V0202301N002119999999N0000001N9-02281+99999100621ADDGF100991999999999999999999MW1481
0035028060999991915010720004+69100+027217FM-12+014999999V0209991C000019999999N0000001N9-03171+99999100501ADDGF100991999999999999999999MW1481
0035028060999991915010806004+69100+027217FM-12+014999999V0202301N001019999999N0000001N9-03111+99999099901ADDGF100991999999999999999999MW1481
0035028060999991915010813004+69100+027217FM-12+014999999V0202301N001019999999N0000001N9-03111+99999099631ADDGF104991999999999999999999MW1481
0029028060999991915010820004+69100+027217FM-12+014999999V0200501N002119999999N0000001N9-02221+99999099191ADDGF108991999999999999999999
0035028060999991915010906004+69100+027217FM-12+014999999V0200501N001019999999N0000001N9-01501+99999098711ADDGF106991999999999999999999MW1701
0035028060999991915010913004+69100+027217FM-12+014999999V0200701N002119999999N0000001N9-01391+99999098501ADDGF106991999999999999999999MW1701
0029028060999991915010920004+69100+027217FM-12+014999999V0209991C000019999999N0000001N9-01281+99999098321ADDGF106991999999999999999999
0035028060999991915011006004+69100+027217FM-12+014999999V0209991C000019999999N0000001N9-01891+99999097941ADDGF100991999999999999999999MW1481
0035028060999991915011013004+69100+027217FM-12+014999999V0209991C000019999999N0000001N9-02611+99999098061ADDGF100991999999999999999999MW1481
0035028060999991915011020004+69100+027217FM-12+014999999V0202301N002119999999N0000001N9-02281+99999098071ADDGF108991999999999999999999MW1701
0029028060999991915011106004+69100+027217FM-12+014999999V0209991C000019999999N0000001N9-02331+99999097911ADDGF106991999999999999999999
0029028060999991915011113004+69100+027217FM-12+014999999V0201401N004119999999N0000001N9-01941+99999097911ADDGF108991999999999999999999
0029028060999991915011120004+69100+027217FM-12+014999999V0201601N008219999999N0000001N9-01781+99999097941ADDGF108991999999999999999999
0029028060999991915011206004+69100+027217FM-12+014999999V0201801N001019999999N0000001N9-03331+99999097991ADDGF100991999999999999999999
0029028060999991915011213004+69100+027217FM-12+014999999V0201801N001019999999N0000001N9-02391+99999097961ADDGF108991999999999999999999
0035028060999991915011220004+69100+027217FM-12+014999999V0200501N002119999999N0000001N9-01001+99999098041ADDGF108991999999999999999999MW1701
0035028060999991915011306004+69100+027217FM-12+014999999V0201401N001019999999N0000001N9-00561+99999098391ADDGF108991999999999999999999MW1701
0035028060999991915011313004+69100+027217FM-12+014999999V0200501N002119999999N0000001N9-00501+99999098791ADDGF108991999999999999999999MW1701
0035028060999991915011320004+69100+027217FM-12+014999999V0209991C000019999999N0000001N9-00501+99999099151ADDGF108991999999999999999999MW1701
0035028060999991915011406004+69100+027217FM-12+014999999V0200901N001019999999N0000001N9-00561+99999099241ADDGF108991999999999999999999MW1701
0029028060999991915011413004+69100+027217FM-12+014999999V0200901N001019999999N0000001N9-00941+99999099361ADDGF100991999999999999999999
0029028060999991915011420004+69100+027217FM-12+014999999V0209991C000019999999N0000001N9-01941+99999099311ADDGF100991999999999999999999
0029028060999991915011506004+69100+027217FM-12+014999999V0209991C000019999999N0000001N9-01111+99999098921ADDGF108991999999999999999999
0035028060999991915011513004+69100+027217FM-12+014999999V0209991C000019999999N0000001N9-01501+99999098661ADDGF104991999999999999999999MW1481
0029028060999991915011520004+69100+027217FM-12+014999999V0202301N002119999999N0000001N9-01221+99999098481ADDGF106991999999999999999999
0029028060999991915011606004+69100+027217FM-12+014999999V0200201N002119999999N0000001N9-01391+99999098541ADDGF108991999999999999999999
0029028060999991915011613004+69100+027217FM-12+014999999V0200901N004119999999N0000001N9-01171+99999098621ADDGF108991999999999999999999
0029028060999991915011620004+69100+027217FM-12+014999999V0200901N002119999999N0000001N9-01331+99999098711ADDGF108991999999999999999999
0029028060999991915011706004+69100+027217FM-12+014999999V0202301N002119999999N0000001N9-01111+99999098861ADDGF108991999999999999999999
0035028060999991915011713004+69100+027217FM-12+014999999V0200501N001019999999N0000001N9-01441+99999099111ADDGF104991999999999999999999MW1481
0035028060999991915011720004+69100+027217FM-12+014999999V0209991C000019999999N0000001N9-02221+99999099431ADDGF106991999999999999999999MW1481
0035028060999991915011806004+69100+027217FM-12+014999999V0209991C000019999999N0000001N9-02561+99999099591ADDGF100991999999999999999999MW1481
0035028060999991915011813004+69100+027217FM-12+014999999V0209991C000019999999N0000001N9-03111+99999099751ADDGF100991999999999999999999MW1481
0035028060999991915011820004+69100+027217FM-12+014999999V0209991C000019999999N0000001N9-03281+99999100041ADDGF100991999999999999999999MW1481
0035028060999991915011906004+69100+027217FM-12+014999999V0209991C000019999999N0000001N9-03001+99999099961ADDGF100991999999999999999999MW1481
0035028060999991915011913004+69100+027217FM-12+014999999V0209991C000019999999N0000001N9-03061+99999099791ADDGF100991999999999999999999MW1481
0035028060999991915011920004+69100+027217FM-12+014999999V0209991C000019999999N0000001N9-03561+99999099471ADDGF100991999999999999999999MW1481
0035028060999991915012006004+69100+027217FM-12+014999999V0201801N015919999999N0000001N9-01281+99999098561ADDGF108991999999999999999999MW1701
0035028060999991915012013004+69100+027217FM-12+014999999V0201601N002119999999N0000001N9-01171+99999098511ADDGF108991999999999999999999MW1701
0035028060999991915012020004+69100+027217FM-12+014999999V0201401N002119999999N0000001N9-01171+99999098521ADDGF108991999999999999999999MW1701
0035028060999991915012106004+69100+027217FM-12+014999999V0200901N004119999999N0000001N9-01111+99999098161ADDGF108991999999999999999999MW1701
0035028060999991915012113004+69100+027217FM-12+014999999V0200901N006219999999N0000001N9-01061+99999098141ADDGF108991999999999999999999MW1701
0029028060999991915012120004+69100+027217FM-12+014999999V0209991C000019999999N0000001N9-00941+99999098111ADDGF108991999999999999999999
0029028060999991915012206004+69100+027217FM-12+014999999V0200901N001019999999N0000001N9-00891+99999098381ADDGF108991999999999999999999
0029028060999991915012213004+69100+027217FM-12+014999999V0200901N004119999999N0000001N9-00831+99999098621ADDGF108991999999999999999999
0029028060999991915012220004+69100+027217FM-12+014999999V0200901N002119999999N0000001N9-00721+99999098471ADDGF108991999999999999999999
0029028060999991915012306004+69100+027217FM-12+014999999V0202001N004119999999N0000001N9-00391+99999098431ADDGF108991999999999999999999
0035028060999991915012313004+69100+027217FM-12+014999999V0201801N004119999999N0000001N9-00281+99999098511ADDGF108991999999999999999999MW1701
0029028060999991915012320004+69100+027217FM-12+014999999V0202301N006219999999N0000001N9-00781+99999098511ADDGF104991999999999999999999
0035028060999991915012406004+69100+027217FM-12+014999999V0202301N002119999999N0000001N9-00721+99999098041ADDGF106991999999999999999999MW1701
0029028060999991915012413004+69100+027217FM-12+014999999V0202501N004119999999N0000001N9-00721+99999097761ADDGF108991999999999999999999
0029028060999991915012420004+69100+027217FM-12+014999999V0202301N006219999999N0000001N9-00891+99999097421ADDGF108991999999999999999999
0035028060999991915012506004+69100+027217FM-12+014999999V0209991C000019999999N0000001N9-01221+99999097641ADDGF106991999999999999999999MW1481
0035028060999991915012513004+69100+027217FM-12+014999999V0200501N009819999999N0000001N9-00391+99999098241ADDGF108991999999999999999999MW1721
0029028060999991915012520004+69100+027217FM-12+014999999V0200501N006219999999N0000001N9-00721+99999098911ADDGF108991999999999999999999
0035028060999991915012606004+69100+027217FM-12+014999999V0203601N004119999999N0000001N9-01001+99999099321ADDGF104991999999999999999999MW1481
0029028060999991915012613004+69100+027217FM-12+014999999V0203601N002119999999N0000001N9-01331+99999099551ADDGF100991999999999999999999
0029028060999991915012620004+69100+027217FM-12+014999999V0203601N001019999999N0000001N9-01281+99999099711ADDGF104991999999999999999999
0035028060999991915012706004+69100+027217FM-12+014999999V0209991C000019999999N0000001N9-02781+99999099361ADDGF100991999999999999999999MW1481
0035028060999991915012713004+69100+027217FM-12+014999999V0202701N002119999999N0000001N9-02781+99999099391ADDGF100991999999999999999999MW1481
0035028060999991915012720004+69100+027217FM-12+014999999V0209991C000019999999N0000001N9-03111+99999099301ADDGF100991999999999999999999MW1481
0035028060999991915012806004+69100+027217FM-12+014999999V0209991C000019999999N0000001N9-03891+99999098961ADDGF100991999999999999999999MW1481
0035028060999991915012813004+69100+027217FM-12+014999999V0209991C000019999999N0000001N9-03781+99999098681ADDGF104991999999999999999999MW1481
0035028060999991915012820004+69100+027217FM-12+014999999V0209991C000019999999N0000001N9-03561+99999098351ADDGF104991999999999999999999MW1481
0029028060999991915012906004+69100+027217FM-12+014999999V0202301N001019999999N0000001N9-03221+99999097601ADDGF104991999999999999999999
0035028060999991915012913004+69100+027217FM-12+014999999V0202301N004119999999N0000001N9-02111+99999097191ADDGF108991999999999999999999MW1701
0029028060999991915012920004+69100+027217FM-12+014999999V0202301N006219999999N0000001N9-01721+99999096941ADDGF106991999999999999999999
0035028060999991915013006004+69100+027217FM-12+014999999V0202301N006219999999N0000001N9-02611+99999097751ADDGF100991999999999999999999MW1481
0035028060999991915013013004+69100+027217FM-12+014999999V0202301N004119999999N0000001N9-02561+99999098021ADDGF100991999999999999999999MW1481
0035028060999991915013020004+69100+027217FM-12+014999999V0202301N001019999999N0000001N9-02941+99999097941ADDGF104991999999999999999999MW1481
0035028060999991915013106004+69100+027217FM-12+014999999V0202301N002119999999N0000001N9-02781+99999097591ADDGF100991999999999999999999MW1481
0035028060999991915013113004+69100+027217FM-12+014999999V0200901N001019999999N0000001N9-03281+99999097721ADDGF100991999999999999999999MW1481
0035028060999991915013120004+69100+027217FM-12+014999999V0209991C000019999999N0000001N9-02941+99999097981ADDGF104991999999999999999999MW1481
0029028060999991915020106004+69100+027217FM-12+014999999V0201801N011819999999N0000001N9-01501+99999098421ADDGF108991999999999999999999
0035028060999991915020113004+69100+027217FM-12+014999999V0202001N011819999999N0000001N9-01061+99999098951ADDGF108991999999999999999999MW1701
0035028060999991915020120004+69100+027217FM-12+014999999V0202301N008219999999N0000001N9-01281+99999099151ADDGF106991999999999999999999MW1701
0029028060999991915020206004+69100+027217FM-12+014999999V0201801N004119999999N0000001N9-01111+99999099191ADDGF108991999999999999999999
0029028060999991915020213004+69100+027217FM-12+014999999V0202301N009819999999N0000001N9-00671+99999098981ADDGF108991999999999999999999
0035028060999991915020220004+69100+027217FM-12+014999999V0202301N015919999999N0000001N9-00501+99999099001ADDGF108991999999999999999999MW1701
0029028060999991915020306004+69100+027217FM-12+014999999V0201801N008219999999N0000001N9-00501+99999099591ADDGF108991999999999999999999
0035028060999991915020313004+69100+027217FM-12+014999999V0202301N008219999999N0000001N9-00611+99999099831ADDGF108991999999999999999999MW1381
0029028060999991915020320004+69100+027217FM-12+014999999V0202301N006219999999N0000001N9-01061+99999099991ADDGF104991999999999999999999
0035028060999991915020406004+69100+027217FM-12+014999999V0202301N011819999999N0000001N9-00941+99999100311ADDGF108991999999999999999999MW1701
0035028060999991915020413004+69100+027217FM-12+014999999V0202301N015919999999N0000001N9-01061+99999100511ADDGF108991999999999999999999MW1701
0029028060999991915020420004+69100+027217FM-12+014999999V0202301N020119999999N0000001N9-01061+99999100961ADDGF108991999999999999999999
0029028060999991915020506004+69100+027217FM-12+014999999V0202301N015919999999N0000001N9-00781+99999101591ADDGF108991999999999999999999
0035028060999991915020513004+69100+027217FM-12+014999999V0202301N011819999999N0000001N9-01001+99999101901ADDGF104991999999999999999999MW1381
0035028060999991915020520004+69100+027217FM-12+014999999V0202301N015919999999N0000001N9-01171+99999101941ADDGF104991999999999999999999MW1381
0029028060999991915020606004+69100+027217FM-12+014999999V0202301N009819999999N0000001N9-01441+99999102021ADDGF104991999999999999999999
0035028060999991915020613004+69100+027217FM-12+014999999V0202701N015919999999N0000001N9-01331+99999102361ADDGF100991999999999999999999MW1381
0029028060999991915020620004+69100+027217FM-12+014999999V0202701N011819999999N0000001N9-01611+99999102321ADDGF100991999999999999999999
0029028060999991915020706004+69100+027217FM-12+014999999V0202501N011819999999N0000001N9-01781+99999102541ADDGF100991999999999999999999
0029028060999991915020713004+69100+027217FM-12+014999999V0202301N011819999999N0000001N9-01781+99999102671ADDGF100991999999999999999999
0029028060999991915020720004+69100+027217FM-12+014999999V0202301N006219999999N0000001N9-02281+99999102701ADDGF100991999999999999999999
0035028060999991915020806004+69100+027217FM-12+014999999V0202301N001019999999N0000001N9-03061+99999102041ADDGF100991999999999999999999MW1481
0035028060999991915020813004+69100+027217FM-12+014999999V0209991C000019999999N0000001N9-02501+99999101461ADDGF100991999999999999999999MW1481
0035028060999991915020820004+69100+027217FM-12+014999999V0209991C000019999999N0000001N9-02111+99999100761ADDGF100991999999999999999999MW1481
0035028060999991915020906004+69100+027217FM-12+014999999V0202001N008219999999N0000001N9-00781+99999099941ADDGF108991999999999999999999MW1701
0035028060999991915020913004+69100+027217FM-12+014999999V0202301N015919999999N0000001N9-00501+99999099711ADDGF108991999999999999999999MW1701
0029028060999991915020920004+69100+027217FM-12+014999999V0202301N015919999999N0000001N9-00221+99999099701ADDGF108991999999999999999999
0029028060999991915021006004+69100+027217FM-12+014999999V0202301N004119999999N0000001N9-00281+99999099601ADDGF108991999999999999999999
0029028060999991915021013004+69100+027217FM-12+014999999V0202301N004119999999N0000001N9-00111+99999099471ADDGF108991999999999999999999
0029028060999991915021020004+69100+027217FM-12+014999999V0202301N002119999999N0000001N9-00391+99999099781ADDGF108991999999999999999999
0029028060999991915021106004+69100+027217FM-12+014999999V0202301N004119999999N0000001N9-01221+99999099671ADDGF108991999999999999999999
0029028060999991915021113004+69100+027217FM-12+014999999V0202501N002119999999N0000001N9-01171+99999099671ADDGF100991999999999999999999
0035028060999991915021120004+69100+027217FM-12+014999999V0202301N002119999999N0000001N9-01221+99999099711ADDGF100991999999999999999999MW1481
0035028060999991915021206004+69100+027217FM-12+014999999V0209991C000019999999N0000001N9-01061+99999099831ADDGF104991999999999999999999MW1481
0035028060999991915021213004+69100+027217FM-12+014999999V0202301N002119999999N0000001N9-01391+99999099941ADDGF100991999999999999999999MW1481
0035028060999991915021220004+69100+027217FM-12+014999999V0202301N004119999999N0000001N9-01501+99999099761ADDGF100991999999999999999999MW1481
0035028060999991915021306004+69100+027217FM-12+014999999V0200501N002119999999N0000001N9-01281+99999099381ADDGF108991999999999999999999MW1481
0035028060999991915021313004+69100+027217FM-12+014999999V0202701N002119999999N0000001N9-01221+99999099241ADDGF108991999999999999999999MW1701
0035028060999991915021320004+69100+027217FM-12+014999999V0209991C000019999999N0000001N9-01281+99999098951ADDGF108991999999999999999999MW1481
0029028060999991915021406004+69100+027217FM-12+014999999V0200901N002119999999N0000001N9-01061+99999098391ADDGF108991999999999999999999
0029028060999991915021413004+69100+027217FM-12+014999999V0209991C000019999999N0000001N9-01221+99999098311ADDGF108991999999999999999999
0029028060999991915021420004+69100+027217FM-12+014999999V0209991C000019999999N0000001N9-01611+99999098271ADDGF108991999999999999999999
0029028060999991915021506004+69100+027217FM-12+014999999V0209991C000019999999N0000001N9-02001+99999098231ADDGF108991999999999999999999
0035028060999991915021513004+69100+027217FM-12+014999999V0209991C000019999999N0000001N9-02111+99999098351ADDGF100991999999999999999999MW1481
0029028060999991915021520004+69100+027217FM-12+014999999V0209991C000019999999N0000001N9-02501+99999098271ADDGF108991999999999999999999
0035028060999991915021606004+69100+027217FM-12+014999999V0202301N002119999999N0000001N9-02671+99999098221ADDGF100991999999999999999999MW1481
0035028060999991915021613004+69100+027217FM-12+014999999V0202301N001019999999N0000001N9-02561+99999098381ADDGF100991999999999999999999MW1481
0035028060999991915021620004+69100+027217FM-12+014999999V0209991C000019999999N0000001N9-01501+99999098621ADDGF100991999999999999999999MW1481
0035028060999991915021706004+69100+027217FM-12+014999999V0202301N002119999999N0000001N9-02001+99999098311ADDGF100991999999999999999999MW1481
0035028060999991915021713004+69100+027217FM-12+014999999V0202301N002119999999N0000001N9-01561+99999098551ADDGF106991999999999999999999MW1481
0035028060999991915021720004+69100+027217FM-12+014999999V0209991C000019999999N0000001N9-01501+99999098751ADDGF108991999999999999999999MW1701
0035028060999991915021806004+69100+027217FM-12+014999999V0202301N001019999999N0000001N9-03001+99999098791ADDGF100991999999999999999999MW1481
0035028060999991915021813004+69100+027217FM-12+014999999V0202301N002119999999N0000001N9-02221+99999099081ADDGF100991999999999999999999MW1481
0035028060999991915021820004+69100+027217FM-12+014999999V0209991C000019999999N0000001N9-03671+99999099111ADDGF100991999999999999999999MW1481
0035028060999991915021906004+69100+027217FM-12+014999999V0202501N001019999999N0000001N9-04061+99999099161ADDGF100991999999999999999999MW1481
0035028060999991915021913004+69100+027217FM-12+014999999V0209991C000019999999N0000001N9-03001+99999098871ADDGF100991999999999999999999MW1481
0035028060999991915021920004+69100+027217FM-12+014999999V0209991C000019999999N0000001N9-03721+99999098681ADDGF100991999999999999999999MW1481
0035028060999991915022006004+69100+027217FM-12+014999999V0209991C000019999999N0000001N9-03501+99999098361ADDGF100991999999999999999999MW1481
0035028060999991915022013004+69100+027217FM-12+014999999V0200901N001019999999N0000001N9-02171+99999098401ADDGF106991999999999999999999MW1481
0035028060999991915022020004+69100+027217FM-12+014999999V0200901N004119999999N0000001N9-01331+99999098351ADDGF108991999999999999999999MW1701
0029028060999991915022106004+69100+027217FM-12+014999999V0201801N002119999999N0000001N9-01281+99999097801ADDGF108991999999999999999999
0035028060999991915022113004+69100+027217FM-12+014999999V0201801N002119999999N0000001N9-01171+99999097821ADDGF108991999999999999999999MW1701
0035028060999991915022120004+69100+027217FM-12+014999999V0201801N002119999999N0000001N9-01111+99999097861ADDGF108991999999999999999999MW1701
0029028060999991915022206004+69100+027217FM-12+014999999V0209991C000019999999N0000001N9-01441+99999098281ADDGF100991999999999999999999
0029028060999991915022213004+69100+027217FM-12+014999999V0202301N001019999999N0000001N9-01441+99999098281ADDGF100991999999999999999999
0029028060999991915022220004+69100+027217FM-12+014999999V0200901N002119999999N0000001N9-02721+99999098541ADDGF100991999999999999999999
0029028060999991915022306004+69100+027217FM-12+014999999V0200901N004119999999N0000001N9-02391+99999098751ADDGF108991999999999999999999
0029028060999991915022313004+69100+027217FM-12+014999999V0203601N006219999999N0000001N9-00831+99999098861ADDGF108991999999999999999999
0029028060999991915022320004+69100+027217FM-12+014999999V0202701N002119999999N0000001N9-00831+99999099021ADDGF106991999999999999999999
0035028060999991915022406004+69100+027217FM-12+014999999V0200501N015919999999N0000001N9-00611+99999099041ADDGF108991999999999999999999MW1701
0035028060999991915022413004+69100+027217FM-12+014999999V0200501N020119999999N0000001N9-00721+99999099161ADDGF108991999999999999999999MW1701
0035028060999991915022420004+69100+027217FM-12+014999999V0200501N009819999999N0000001N9-00781+99999099431ADDGF106991999999999999999999MW1701
0029028060999991915022506004+69100+027217FM-12+014999999V0200901N011819999999N0000001N9-00721+99999099551ADDGF108991999999999999999999
0035028060999991915022513004+69100+027217FM-12+014999999V0200701N009819999999N0000001N9-00611+99999099591ADDGF108991999999999999999999MW1701
0029028060999991915022520004+69100+027217FM-12+014999999V0200701N004119999999N0000001N9-00721+99999099671ADDGF106991999999999999999999
0029028060999991915022606004+69100+027217FM-12+014999999V0209991C000019999999N0000001N9-01501+99999099701ADDGF108991999999999999999999
0029028060999991915022613004+69100+027217FM-12+014999999V0202301N002119999999N0000001N9-00891+99999099581ADDGF100991999999999999999999
0029028060999991915022620004+69100+027217FM-12+014999999V0201401N004119999999N0000001N9-01171+99999099471ADDGF106991999999999999999999
0035028060999991915022706004+69100+027217FM-12+014999999V0202501N002119999999N0000001N9-01891+99999099351ADDGF100991999999999999999999MW1481
0029028060999991915022713004+69100+027217FM-12+014999999V0202301N008219999999N0000001N9-00891+99999099311ADDGF100991999999999999999999
0029028060999991915022720004+69100+027217FM-12+014999999V0202501N008219999999N0000001N9-01001+99999099001ADDGF106991999999999999999999
0029028060999991915022806004+69100+027217FM-12+014999999V0209991C000019999999N0000001N9-01281+99999098901ADDGF108991999999999999999999
0035028060999991915022813004+69100+027217FM-12+014999999V0202301N002119999999N0000001N9-01111+99999098961ADDGF108991999999999999999999MW1721
0035028060999991915022820004+69100+027217FM-12+014999999V0202301N001019999999N0000001N9-01221+99999098941ADDGF108991999999999999999999MW1721
0035028060999991915030106004+69100+027217FM-12+014999999V0200201N004119999999N0000001N9-01221+99999099431ADDGF108991999999999999999999MW1701
0035028060999991915030113004+69100+027217FM-12+014999999V0200901N006219999999N0000001N9-01001+99999099991ADDGF108991999999999999999999MW1701
0035028060999991915030120004+69100+027217FM-12+014999999V0200901N004119999999N0000001N9-01171+99999100601ADDGF108991999999999999999999MW1701
0035028060999991915030206004+69100+027217FM-12+014999999V0200901N001019999999N0000001N9-01501+99999100901ADDGF108991999999999999999999MW1701
0029028060999991915030213004+69100+027217FM-12+014999999V0201801N002119999999N0000001N9-01281+99999101111ADDGF100991999999999999999999
0029028060999991915030220004+69100+027217FM-12+014999999V0201801N004119999999N0000001N9-01781+99999101071ADDGF100991999999999999999999
0029028060999991915030306004+69100+027217FM-12+014999999V0202301N001019999999N0000001N9-02391+99999101001ADDGF108991999999999999999999
0029028060999991915030313004+69100+027217FM-12+014999999V0209991C000019999999N0000001N9-01781+99999101141ADDGF100991999999999999999999
0029028060999991915030320004+69100+027217FM-12+014999999V0209991C000019999999N0000001N9-02671+99999101351ADDGF104991999999999999999999
0029028060999991915030406004+69100+027217FM-12+014999999V0201801N001019999999N0000001N9-02001+99999101681ADDGF108991999999999999999999
0035028060999991915030413004+69100+027217FM-12+014999999V0202301N001019999999N0000001N9-01891+99999101721ADDGF100991999999999999999999MW1481
0029028060999991915030420004+69100+027217FM-12+014999999V0209991C000019999999N0000001N9-01781+99999101621ADDGF108991999999999999999999
0029028060999991915030506004+69100+027217FM-12+014999999V0201801N004119999999N0000001N9-01781+99999101351ADDGF104991999999999999999999
0029028060999991915030513004+69100+027217FM-12+014999999V0202301N008219999999N0000001N9-01501+99999101191ADDGF104991999999999999999999
0029028060999991915030520004+69100+027217FM-12+014999999V0202301N004119999999N0000001N9-01831+99999100991ADDGF108991999999999999999999
0035028060999991915030606004+69100+027217FM-12+014999999V0209991C000019999999N0000001N9-02111+99999100681ADDGF100991999999999999999999MW1481
0035028060999991915030613004+69100+027217FM-12+014999999V0202301N002119999999N0000001N9-01781+99999100521ADDGF100991999999999999999999MW1481
0029028060999991915030620004+69100+027217FM-12+014999999V0202301N004119999999N0000001N9-01831+99999100501ADDGF108991999999999999999999
0029028060999991915030706004+69100+027217FM-12+014999999V0202301N009819999999N0000001N9-01781+99999100631ADDGF106991999999999999999999
0029028060999991915030713004+69100+027217FM-12+014999999V0202501N011819999999N0000001N9-01611+99999100711ADDGF100991999999999999999999
0029028060999991915030720004+69100+027217FM-12+014999999V0202501N011819999999N0000001N9-01831+99999100521ADDGF108991999999999999999999
0029028060999991915030806004+69100+027217FM-12+014999999V0202701N011819999999N0000001N9-01611+99999099951ADDGF106991999999999999999999
0029028060999991915030813004+69100+027217FM-12+014999999V0202501N011819999999N0000001N9-01221+99999099701ADDGF105991999999999999999999
0029028060999991915030820004+69100+027217FM-12+014999999V0202301N006219999999N0000001N9-01441+99999099431ADDGF104991999999999999999999
0029028060999991915030906004+69100+027217FM-12+014999999V0202301N002119999999N0000001N9-01501+99999099781ADDGF100991999999999999999999
0029028060999991915030913004+69100+027217FM-12+014999999V0202301N004119999999N0000001N9-00781+99999099781ADDGF100991999999999999999999
0029028060999991915030920004+69100+027217FM-12+014999999V0202301N002119999999N0000001N9-01281+99999099641ADDGF108991999999999999999999
0029028060999991915031006004+69100+027217FM-12+014999999V0202701N002119999999N0000001N9-01501+99999098901ADDGF108991999999999999999999
0029028060999991915031013004+69100+027217FM-12+014999999V0202301N009819999999N0000001N9-00831+99999098421ADDGF108991999999999999999999
0035028060999991915031020004+69100+027217FM-12+014999999V0209991C000019999999N0000001N9-00831+99999097951ADDGF108991999999999999999999MW1701
0035028060999991915031106004+69100+027217FM-12+014999999V0200501N004119999999N0000001N9-00781+99999097821ADDGF108991999999999999999999MW1701
0029028060999991915031113004+69100+027217FM-12+014999999V0203601N006219999999N0000001N9-00671+99999098161ADDGF108991999999999999999999
0029028060999991915031120004+69100+027217FM-12+014999999V0209991C000019999999N0000001N9-00721+99999098521ADDGF108991999999999999999999
0029028060999991915031206004+69100+027217FM-12+014999999V0209991C000019999999N0000001N9-01001+99999098471ADDGF108991999999999999999999
0035028060999991915031213004+69100+027217FM-12+014999999V0202301N008219999999N0000001N9-00611+99999098101ADDGF108991999999999999999999MW1701
0029028060999991915031220004+69100+027217FM-12+014999999V0202301N009819999999N0000001N9-00781+99999097991ADDGF108991999999999999999999
0029028060999991915031306004+69100+027217FM-12+014999999V0209991C000019999999N0000001N9-01281+99999097961ADDGF100991999999999999999999
0029028060999991915031313004+69100+027217FM-12+014999999V0202301N002119999999N0000001N9-00331+99999098151ADDGF100991999999999999999999
0029028060999991915031320004+69100+027217FM-12+014999999V0209991C000019999999N0000001N9-00891+99999098301ADDGF106991999999999999999999
0029028060999991915031406004+69100+027217FM-12+014999999V0201601N004119999999N0000001N9-01001+99999097911ADDGF106991999999999999999999
0035028060999991915031413004+69100+027217FM-12+014999999V0201601N009819999999N0000001N9-00781+99999097351ADDGF108991999999999999999999MW1741
0035028060999991915031420004+69100+027217FM-12+014999999V0201801N009819999999N0000001N9-00831+99999096671ADDGF108991999999999999999999MW1741
0035028060999991915031506004+69100+027217FM-12+014999999V0200501N006219999999N0000001N9-01221+99999096951ADDGF108991999999999999999999MW1701
0035028060999991915031513004+69100+027217FM-12+014999999V0200501N002119999999N0000001N9-01171+99999097161ADDGF100991999999999999999999MW1701
0029028060999991915031520004+69100+027217FM-12+014999999V0209991C000019999999N0000001N9-02111+99999097501ADDGF100991999999999999999999
0035028060999991915031606004+69100+027217FM-12+014999999V0203601N011819999999N0000001N9-01001+99999097591ADDGF104991999999999999999999MW1721
0035028060999991915031613004+69100+027217FM-12+014999999V0200201N024219999999N0000001N9-01001+99999097861ADDGF100991999999999999999999MW1381
0029028060999991915031620004+69100+027217FM-12+014999999V0200201N015919999999N0000001N9-01501+99999098141ADDGF100991999999999999999999
0035028060999991915031706004+69100+027217FM-12+014999999V0203601N018019999999N0000001N9-01611+99999097961ADDGF100991999999999999999999MW1381
0035028060999991915031713004+69100+027217FM-12+014999999V0203601N015919999999N0000001N9-01441+99999097881ADDGF100991999999999999999999MW1381
0035028060999991915031720004+69100+027217FM-12+014999999V0203601N006219999999N0000001N9-01671+99999097741ADDGF104991999999999999999999MW1381
0029028060999991915031806004+69100+027217FM-12+014999999V0203601N006219999999N0000001N9-01611+99999097671ADDGF100991999999999999999999
0035028060999991915031813004+69100+027217FM-12+014999999V0203401N011819999999N0000001N9-01061+99999097671ADDGF106991999999999999999999MW1381
0029028060999991915031820004+69100+027217FM-12+014999999V0203201N004119999999N0000001N9-01221+99999097751ADDGF104991999999999999999999
0029028060999991915031906004+69100+027217FM-12+014999999V0202301N006219999999N0000001N9-01671+99999097761ADDGF100991999999999999999999
0029028060999991915031913004+69100+027217FM-12+014999999V0203201N009819999999N0000001N9-00891+99999097921ADDGF100991999999999999999999
0029028060999991915031920004+69100+027217FM-12+014999999V0202301N004119999999N0000001N9-01391+99999098061ADDGF100991999999999999999999
0029028060999991915032006004+69100+027217FM-12+014999999V0201801N004119999999N0000001N9-02001+99999098271ADDGF104991999999999999999999
0029028060999991915032013004+69100+027217FM-12+014999999V0202701N004119999999N0000001N9-01111+99999098481ADDGF108991999999999999999999
0029028060999991915032020004+69100+027217FM-12+014999999V0202301N002119999999N0000001N9-01111+99999098381ADDGF108991999999999999999999
0029028060999991915032106004+69100+027217FM-12+014999999V0200701N002119999999N0000001N9-02391+99999098121ADDGF100991999999999999999999
0029028060999991915032113004+69100+027217FM-12+014999999V0202001N002119999999N0000001N9-01001+99999097861ADDGF100991999999999999999999
0029028060999991915032120004+69100+027217FM-12+014999999V0209991C000019999999N0000001N9-01891+99999097621ADDGF100991999999999999999999
0029028060999991915032206004+69100+027217FM-12+014999999V0202301N002119999999N0000001N9-02281+99999097101ADDGF100991999999999999999999
0029028060999991915032213004+69100+027217FM-12+014999999V0203401N006219999999N0000001N9-00671+99999097301ADDGF100991999999999999999999
0029028060999991915032220004+69100+027217FM-12+014999999V0209991C000019999999N0000001N9-01001+99999097801ADDGF108991999999999999999999
0029028060999991915032306004+69100+027217FM-12+014999999V0203201N009819999999N0000001N9-01111+99999098541ADDGF100991999999999999999999
0029028060999991915032313004+69100+027217FM-12+014999999V0203601N009819999999N0000001N9-00781+99999098881ADDGF100991999999999999999999
0029028060999991915032320004+69100+027217FM-12+014999999V0203201N004119999999N0000001N9-01331+99999099001ADDGF100991999999999999999999
0035028060999991915032406004+69100+027217FM-12+014999999V0200501N006219999999N0000001N9-01331+99999097671ADDGF108991999999999999999999MW1701
0035028060999991915032413004+69100+027217FM-12+014999999V0200501N004119999999N0000001N9-00831+99999097111ADDGF108991999999999999999999MW1701
0029028060999991915032420004+69100+027217FM-12+014999999V0200501N002119999999N0000001N9-01111+99999097151ADDGF104991999999999999999999
0029028060999991915032506004+69100+027217FM-12+014999999V0203601N002119999999N0000001N9-01171+99999097671ADDGF100991999999999999999999
0029028060999991915032513004+69100+027217FM-12+014999999V0203601N009819999999N0000001N9-00671+99999097991ADDGF100991999999999999999999
0029028060999991915032520004+69100+027217FM-12+014999999V0203601N006219999999N0000001N9-01281+99999098231ADDGF100991999999999999999999
0029028060999991915032606004+69100+027217FM-12+014999999V0203601N011819999999N0000001N9-01111+99999098551ADDGF100991999999999999999999
0029028060999991915032613004+69100+027217FM-12+014999999V0203601N009819999999N0000001N9-00721+99999098961ADDGF100991999999999999999999
0029028060999991915032620004+69100+027217FM-12+014999999V0203601N004119999999N0000001N9-01561+99999099231ADDGF104991999999999999999999
0035028060999991915032706004+69100+027217FM-12+014999999V0203601N006219999999N0000001N9-01061+99999099521ADDGF100991999999999999999999MW1701
0029028060999991915032713004+69100+027217FM-12+014999999V0203601N034019999999N0000001N9-00781+99999099581ADDGF100991999999999999999999
0029028060999991915032720004+69100+027217FM-12+014999999V0202701N002119999999N0000001N9-02391+99999099551ADDGF100991999999999999999999
0029028060999991915032806004+69100+027217FM-12+014999999V0202701N004119999999N0000001N9-01671+99999098481ADDGF100991999999999999999999
0029028060999991915032813004+69100+027217FM-12+014999999V0202501N006219999999N0000001N9-00671+99999097901ADDGF104991999999999999999999
0029028060999991915032820004+69100+027217FM-12+014999999V0200501N002119999999N0000001N9-00891+99999097761ADDGF106991999999999999999999
0029028060999991915032906004+69100+027217FM-12+014999999V0200501N002119999999N0000001N9-01561+99999097461ADDGF104991999999999999999999
0029028060999991915032913004+69100+027217FM-12+014999999V0201401N004119999999N0000001N9-00561+99999097231ADDGF104991999999999999999999
0035028060999991915032920004+69100+027217FM-12+014999999V0201601N004119999999N0000001N9-00721+99999097221ADDGF108991999999999999999999MW1701
0035028060999991915033006004+69100+027217FM-12+014999999V0200501N002119999999N0000001N9-00781+99999097071ADDGF108991999999999999999999MW1741
0029028060999991915033013004+69100+027217FM-12+014999999V0202701N006219999999N0000001N9-00671+99999097521ADDGF100991999999999999999999
0029028060999991915033020004+69100+027217FM-12+014999999V0209991C000019999999N0000001N9-01941+99999098161ADDGF100991999999999999999999
0029028060999991915033106004+69100+027217FM-12+014999999V0202301N001019999999N0000001N9-02671+99999098271ADDGF100991999999999999999999
0029028060999991915033113004+69100+027217FM-12+014999999V0202701N002119999999N0000001N9-01001+99999098221ADDGF100991999999999999999999
0035028060999991915033120004+69100+027217FM-12+014999999V0209991C000019999999N0000001N9-01171+99999098081ADDGF106991999999999999999999MW1701
0029028060999991915040106004+69100+027217FM-12+014999999V0209991C000019999999N0000001N9-01111+99999098081ADDGF100991999999999999999999
0029028060999991915040113004+69100+027217FM-12+014999999V0202701N004119999999N0000001N9-00611+99999098041ADDGF100991999999999999999999
0029028060999991915040120004+69100+027217FM-12+014999999V0202701N006219999999N0000001N9-01671+99999098161ADDGF100991999999999999999999
0029028060999991915040206004+69100+027217FM-12+014999999V0202701N002119999999N0000001N9-01671+99999098221ADDGF100991999999999999999999
0029028060999991915040213004+69100+027217FM-12+014999999V0202701N006219999999N0000001N9-00441+99999098271ADDGF100991999999999999999999
0029028060999991915040220004+69100+027217FM-12+014999999V0202301N004119999999N0000001N9-00941+99999098381ADDGF108991999999999999999999
0035028060999991915040306004+69100+027217FM-12+014999999V0209991C000019999999N0000001N9-01501+99999098621ADDGF100991999999999999999999MW1481
0029028060999991915040313004+69100+027217FM-12+014999999V0203201N004119999999N0000001N9-00111+99999098711ADDGF100991999999999999999999
0029028060999991915040320004+69100+027217FM-12+014999999V0209991C000019999999N0000001N9-01671+99999098881ADDGF100991999999999999999999
0035028060999991915040406004+69100+027217FM-12+014999999V0202701N002119999999N0000001N9-01891+99999098791ADDGF100991999999999999999999MW1481
0029028060999991915040413004+69100+027217FM-12+014999999V0203201N002119999999N0000001N9-00221+99999098911ADDGF100991999999999999999999
0029028060999991915040420004+69100+027217FM-12+014999999V0209991C000019999999N0000001N9-01671+99999098961ADDGF100991999999999999999999
0035028060999991915040506004+69100+027217FM-12+014999999V0202701N009819999999N0000001N9-01671+99999098911ADDGF100991999999999999999999MW1481
0029028060999991915040513004+69100+027217FM-12+014999999V0202701N009819999999N0000001N9-00391+99999098991ADDGF100991999999999999999999
0029028060999991915040520004+69100+027217FM-12+014999999V0203601N006219999999N0000001N9-02171+99999098901ADDGF100991999999999999999999
0029028060999991915040606004+69100+027217FM-12+014999999V0203201N004119999999N0000001N9-01611+99999098831ADDGF100991999999999999999999
0029028060999991915040613004+69100+027217FM-12+014999999V0202301N008219999999N0000001N9-00221+99999098951ADDGF100991999999999999999999
0029028060999991915040620004+69100+027217FM-12+014999999V0202001N004119999999N0000001N9-00561+99999099201ADDGF104991999999999999999999
0035028060999991915040706004+69100+027217FM-12+014999999V0209991C000019999999N0000001N9-01391+99999099441ADDGF100991999999999999999999MW1481
0029028060999991915040713004+69100+027217FM-12+014999999V0202301N008219999999N0000001N9+00221+99999099191ADDGF100991999999999999999999
0029028060999991915040720004+69100+027217FM-12+014999999V0201401N002119999999N0000001N9-00721+99999098921ADDGF106991999999999999999999
0035028060999991915040806004+69100+027217FM-12+014999999V0200901N004119999999N0000001N9-00441+99999098261ADDGF108991999999999999999999MW1721
0029028060999991915040813004+69100+027217FM-12+014999999V0209991C000019999999N0000001N9-00061+99999098151ADDGF104991999999999999999999
0029028060999991915040820004+69100+027217FM-12+014999999V0200901N002119999999N0000001N9-00111+99999098261ADDGF108991999999999999999999
0035028060999991915040906004+69100+027217FM-12+014999999V0200901N004119999999N0000001N9+00001+99999097791ADDGF108991999999999999999999MW1701
0029028060999991915040913004+69100+027217FM-12+014999999V0202001N006219999999N0000001N9+00331+99999097991ADDGF108991999999999999999999
0029028060999991915040920004+69100+027217FM-12+014999999V0202001N002119999999N0000001N9+00171+99999098181ADDGF108991999999999999999999
0029028060999991915041006004+69100+027217FM-12+014999999V0202301N002119999999N0000001N9-00111+99999098191ADDGF100991999999999999999999
0029028060999991915041013004+69100+027217FM-12+014999999V0202701N006219999999N0000001N9+00281+99999098541ADDGF100991999999999999999999
0029028060999991915041020004+69100+027217FM-12+014999999V0209991C000019999999N0000001N9-00391+99999098831ADDGF100991999999999999999999
0029028060999991915041106004+69100+027217FM-12+014999999V0209991C000019999999N0000001N9-00611+99999099121ADDGF100991999999999999999999
0029028060999991915041113004+69100+027217FM-12+014999999V0202701N006219999999N0000001N9+00281+99999099681ADDGF100991999999999999999999
0029028060999991915041120004+69100+027217FM-12+014999999V0202701N004119999999N0000001N9-00281+99999100031ADDGF104991999999999999999999
0029028060999991915041206004+69100+027217FM-12+014999999V0202701N002119999999N0000001N9-00611+99999100241ADDGF100991999999999999999999
0029028060999991915041213004+69100+027217FM-12+014999999V0201801N009819999999N0000001N9+00221+99999099951ADDGF100991999999999999999999
0029028060999991915041220004+69100+027217FM-12+014999999V0201801N011819999999N0000001N9+00171+99999099831ADDGF108991999999999999999999
0035028060999991915041306004+69100+027217FM-12+014999999V0202301N009819999999N0000001N9+00171+99999099391ADDGF108991999999999999999999MW1701
0035028060999991915041313004+69100+027217FM-12+014999999V0202301N011819999999N0000001N9+00111+99999099351ADDGF108991999999999999999999MW1741
0029028060999991915041320004+69100+027217FM-12+014999999V0202301N004119999999N0000001N9+00001+99999099831ADDGF100991999999999999999999
0029028060999991915041406004+69100+027217FM-12+014999999V0202301N002119999999N0000001N9-00281+99999100071ADDGF108991999999999999999999
0029028060999991915041413004+69100+027217FM-12+014999999V0202301N011819999999N0000001N9+00561+99999099721ADDGF100991999999999999999999
0029028060999991915041420004+69100+027217FM-12+014999999V0202301N004119999999N0000001N9+00171+99999099471ADDGF100991999999999999999999
0029028060999991915041506004+69100+027217FM-12+014999999V0202301N004119999999N0000001N9+00001+99999099101ADDGF100991999999999999999999
0029028060999991915041513004+69100+027217FM-12+014999999V0202301N009819999999N0000001N9+00561+99999098801ADDGF100991999999999999999999
0029028060999991915041520004+69100+027217FM-12+014999999V0202701N002119999999N0000001N9+00221+99999099021ADDGF106991999999999999999999
0029028060999991915041606004+69100+027217FM-12+014999999V0202301N004119999999N0000001N9+00111+99999098801ADDGF104991999999999999999999
0029028060999991915041613004+69100+027217FM-12+014999999V0202701N004119999999N0000001N9+00501+99999098521ADDGF104991999999999999999999
0029028060999991915041620004+69100+027217FM-12+014999999V0201801N001019999999N0000001N9+00281+99999098281ADDGF106991999999999999999999
0029028060999991915041706004+69100+027217FM-12+014999999V0202301N004119999999N0000001N9+00281+99999097981ADDGF100991999999999999999999
0029028060999991915041713004+69100+027217FM-12+014999999V0202301N004119999999N0000001N9+00501+99999098071ADDGF106991999999999999999999
0029028060999991915041720004+69100+027217FM-12+014999999V0201801N001019999999N0000001N9+00221+99999098231ADDGF108991999999999999999999
0035028060999991915041806004+69100+027217FM-12+014999999V0203601N002119999999N0000001N9+00111+99999098431ADDGF108991999999999999999999MW1721
0029028060999991915041813004+69100+027217FM-12+014999999V0202501N004119999999N0000001N9+00221+99999098831ADDGF104991999999999999999999
0029028060999991915041820004+69100+027217FM-12+014999999V0209991C000019999999N0000001N9+00001+99999098991ADDGF100991999999999999999999
0029028060999991915041906004+69100+027217FM-12+014999999V0209991C000019999999N0000001N9-00111+99999099181ADDGF100991999999999999999999
0029028060999991915041913004+69100+027217FM-12+014999999V0202501N006219999999N0000001N9+00331+99999099101ADDGF104991999999999999999999
0029028060999991915041920004+69100+027217FM-12+014999999V0201801N004119999999N0000001N9+00111+99999099161ADDGF106991999999999999999999
0029028060999991915042006004+69100+027217FM-12+014999999V0201801N002119999999N0000001N9+00111+99999098991ADDGF106991999999999999999999
0029028060999991915042013004+69100+027217FM-12+014999999V0201801N006219999999N0000001N9+00441+99999098791ADDGF106991999999999999999999
0035028060999991915042020004+69100+027217FM-12+014999999V0201801N002119999999N0000001N9+00111+99999098751ADDGF108991999999999999999999MW1601
0029028060999991915042106004+69100+027217FM-12+014999999V0202001N008219999999N0000001N9+00221+99999098671ADDGF108991999999999999999999
0029028060999991915042113004+69100+027217FM-12+014999999V0202301N006219999999N0000001N9+00331+99999098381ADDGF108991999999999999999999
0035028060999991915042120004+69100+027217FM-12+014999999V0202001N011819999999N0000001N9+00501+99999098381ADDGF108991999999999999999999MW1721
0035028060999991915042206004+69100+027217FM-12+014999999V0202001N006219999999N0000001N9+00171+99999098021ADDGF108991999999999999999999MW1701
0029028060999991915042213004+69100+027217FM-12+014999999V0202501N011819999999N0000001N9+00391+99999098351ADDGF100991999999999999999999
0029028060999991915042220004+69100+027217FM-12+014999999V0202501N006219999999N0000001N9+00111+99999098591ADDGF104991999999999999999999
0029028060999991915042306004+69100+027217FM-12+014999999V0202701N004119999999N0000001N9-00111+99999099341ADDGF100991999999999999999999
0029028060999991915042313004+69100+027217FM-12+014999999V0202701N009819999999N0000001N9+00441+99999099621ADDGF100991999999999999999999
0029028060999991915042320004+69100+027217FM-12+014999999V0202701N015919999999N0000001N9+00111+99999099351ADDGF104991999999999999999999
0029028060999991915042406004+69100+027217FM-12+014999999V0202701N009819999999N0000001N9+00221+99999098541ADDGF108991999999999999999999
0035028060999991915042413004+69100+027217FM-12+014999999V0202701N015919999999N0000001N9+00281+99999098271ADDGF108991999999999999999999MW1601
0029028060999991915042420004+69100+027217FM-12+014999999V0202701N015919999999N0000001N9+00221+99999098431ADDGF104991999999999999999999
0029028060999991915042506004+69100+027217FM-12+014999999V0202701N006219999999N0000001N9+00001+99999098621ADDGF100991999999999999999999
0029028060999991915042513004+69100+027217FM-12+014999999V0202701N004119999999N0000001N9+00221+99999098871ADDGF100991999999999999999999
0029028060999991915042520004+69100+027217FM-12+014999999V0202501N004119999999N0000001N9-00111+99999098401ADDGF104991999999999999999999
0035028060999991915042606004+69100+027217FM-12+014999999V0202301N004119999999N0000001N9-00281+99999097681ADDGF108991999999999999999999MW1701
0029028060999991915042613004+69100+027217FM-12+014999999V0203601N009819999999N0000001N9-00111+99999098391ADDGF106991999999999999999999
0029028060999991915042620004+69100+027217FM-12+014999999V0203601N004119999999N0000001N9-00611+99999099141ADDGF104991999999999999999999
0029028060999991915042706004+69100+027217FM-12+014999999V0202901N008219999999N0000001N9-00391+99999099551ADDGF100991999999999999999999
0029028060999991915042713004+69100+027217FM-12+014999999V0203201N011819999999N0000001N9+00111+99999099671ADDGF100991999999999999999999
0029028060999991915042720004+69100+027217FM-12+014999999V0202701N015919999999N0000001N9-00111+99999098711ADDGF108991999999999999999999
0035028060999991915042806004+69100+027217FM-12+014999999V0202501N009819999999N0000001N9-00111+99999095672ADDGF100991999999999999999999MW1701
0035028060999991915042813004+69100+027217FM-12+014999999V0203601N015919999999N0000001N9+00221+99999095681ADDGF104991999999999999999999MW1701
0035028060999991915042820004+69100+027217FM-12+014999999V0200201N027819999999N0000001N9-00281+99999096841ADDGF108991999999999999999999MW1701
0029028060999991915042906004+69100+027217FM-12+014999999V0203601N011819999999N0000001N9-00281+99999098281ADDGF100991999999999999999999
0029028060999991915042913004+69100+027217FM-12+014999999V0203601N015919999999N0000001N9-00281+99999098861ADDGF104991999999999999999999
0029028060999991915042920004+69100+027217FM-12+014999999V0203601N004119999999N0000001N9-00331+99999098881ADDGF106991999999999999999999
0029028060999991915043006004+69100+027217FM-12+014999999V0203601N004119999999N0000001N9-00501+99999098671ADDGF108991999999999999999999
0029028060999991915043013004+69100+027217FM-12+014999999V0200501N004119999999N0000001N9-00221+99999098591ADDGF108991999999999999999999
0029028060999991915043020004+69100+027217FM-12+014999999V0200501N002119999999N0000001N9-00441+99999098601ADDGF106991999999999999999999
0029028060999991915050106004+69100+027217FM-12+014999999V0200501N004119999999N0000001N9-00501+99999098671ADDGF100991999999999999999999
0029028060999991915050113004+69100+027217FM-12+014999999V0200501N011819999999N0000001N9-00331+99999098721ADDGF100991999999999999999999
0029028060999991915050120004+69100+027217FM-12+014999999V0203601N008219999999N0000001N9-00561+99999098721ADDGF106991999999999999999999
0029028060999991915050206004+69100+027217FM-12+014999999V0209991C000019999999N0000001N9-00671+99999098951ADDGF100991999999999999999999
0029028060999991915050213004+69100+027217FM-12+014999999V0203201N004119999999N0000001N9-00061+99999099001ADDGF100991999999999999999999
0029028060999991915050220004+69100+027217FM-12+014999999V0203201N001019999999N0000001N9-00671+99999099041ADDGF100991999999999999999999
0029028060999991915050306004+69100+027217FM-12+014999999V0202701N002119999999N0000001N9-00781+99999099191ADDGF100991999999999999999999
0029028060999991915050313004+69100+027217FM-12+014999999V0203601N009819999999N0000001N9-00111+99999099341ADDGF100991999999999999999999
0029028060999991915050320004+69100+027217FM-12+014999999V0203601N002119999999N0000001N9-00561+99999099631ADDGF100991999999999999999999
0029028060999991915050406004+69100+027217FM-12+014999999V0203201N008219999999N0000001N9-00781+99999099761ADDGF100991999999999999999999
0029028060999991915050413004+69100+027217FM-12+014999999V0202901N009819999999N0000001N9-00111+99999099511ADDGF100991999999999999999999
0029028060999991915050420004+69100+027217FM-12+014999999V0202301N004119999999N0000001N9-00171+99999099521ADDGF108991999999999999999999
0035028060999991915050506004+69100+027217FM-12+014999999V0200201N004119999999N0000001N9+00001+99999098541ADDGF108991999999999999999999MW1701
0029028060999991915050513004+69100+027217FM-12+014999999V0202301N001019999999N0000001N9+00331+99999098801ADDGF100991999999999999999999
0029028060999991915050520004+69100+027217FM-12+014999999V0202701N004119999999N0000001N9+00331+99999098701ADDGF106991999999999999999999
0029028060999991915050606004+69100+027217FM-12+014999999V0202501N009819999999N0000001N9+00331+99999098641ADDGF106991999999999999999999
0029028060999991915050613004+69100+027217FM-12+014999999V0202301N004119999999N0000001N9+00501+99999098941ADDGF108991999999999999999999
0029028060999991915050620004+69100+027217FM-12+014999999V0202701N011819999999N0000001N9+00501+99999098681ADDGF106991999999999999999999
0029028060999991915050706004+69100+027217FM-12+014999999V0202701N008219999999N0000001N9+00441+99999099191ADDGF100991999999999999999999
0029028060999991915050713004+69100+027217FM-12+014999999V0202701N004119999999N0000001N9+00611+99999099351ADDGF100991999999999999999999
0029028060999991915050720004+69100+027217FM-12+014999999V0202701N002119999999N0000001N9+00331+99999099471ADDGF100991999999999999999999
0035028060999991915050806004+69100+027217FM-12+014999999V0200901N004119999999N0000001N9+00331+99999099101ADDGF108991999999999999999999MW1721
0035028060999991915050813004+69100+027217FM-12+014999999V0200201N006219999999N0000001N9+00221+99999098831ADDGF108991999999999999999999MW1721
0029028060999991915050820004+69100+027217FM-12+014999999V0203401N004119999999N0000001N9+00001+99999099221ADDGF104991999999999999999999
0046028060999991915050906004+69100+027217FM-12+014999999V0203601N004119999999N0000001N9-00111+99999099151ADDAJ100009199999999GF106991999999999999999999
0029028060999991915050913004+69100+027217FM-12+014999999V0203601N020119999999N0000001N9-00221+99999099541ADDGF106991999999999999999999
0029028060999991915050920004+69100+027217FM-12+014999999V0203601N004119999999N0000001N9-00391+99999100141ADDGF104991999999999999999999
0046028060999991915051006004+69100+027217FM-12+014999999V0203401N004119999999N0000001N9-00441+99999100141ADDAJ100009199999999GF100991999999999999999999
0029028060999991915051013004+69100+027217FM-12+014999999V0202301N006219999999N0000001N9+00171+99999099901ADDGF104991999999999999999999
0035028060999991915051020004+69100+027217FM-12+014999999V0201401N002119999999N0000001N9+00001+99999099561ADDGF108991999999999999999999MW1721
0052028060999991915051106004+69100+027217FM-12+014999999V0202001N008219999999N0000001N9+00001+99999099041ADDAJ100009199999999GF108991999999999999999999MW1701
0029028060999991915051113004+69100+027217FM-12+014999999V0201601N015919999999N0000001N9+00331+99999098991ADDGF108991999999999999999999
0029028060999991915051120004+69100+027217FM-12+014999999V0201401N015919999999N0000001N9+00331+99999098861ADDGF108991999999999999999999
0035028060999991915051206004+69100+027217FM-12+014999999V0200901N004119999999N0000001N9-00111+99999098911ADDGF108991999999999999999999MW1721
0035028060999991915051213004+69100+027217FM-12+014999999V0200901N011819999999N0000001N9+00221+99999098821ADDGF108991999999999999999999MW1721
0035028060999991915051220004+69100+027217FM-12+014999999V0200901N009819999999N0000001N9+00061+99999098481ADDGF108991999999999999999999MW1721
0046028060999991915051306004+69100+027217FM-12+014999999V0202301N008219999999N0000001N9+00061+99999098641ADDAJ100009199999999GF108991999999999999999999
0029028060999991915051313004+69100+027217FM-12+014999999V0202701N006219999999N0000001N9+00611+99999098761ADDGF100991999999999999999999
0029028060999991915051320004+69100+027217FM-12+014999999V0202701N002119999999N0000001N9+00331+99999098881ADDGF100991999999999999999999
0046028060999991915051406004+69100+027217FM-12+014999999V0209991C000019999999N0000001N9+00171+99999098761ADDAJ100009199999999GF100991999999999999999999
0029028060999991915051413004+69100+027217FM-12+014999999V0203201N004119999999N0000001N9+00611+99999098631ADDGF100991999999999999999999
0029028060999991915051420004+69100+027217FM-12+014999999V0202701N006219999999N0000001N9+00221+99999098781ADDGF100991999999999999999999
0046028060999991915051506004+69100+027217FM-12+014999999V0202301N004119999999N0000001N9+00061+99999099311ADDAJ100009199999999GF100991999999999999999999
0029028060999991915051513004+69100+027217FM-12+014999999V0203601N004119999999N0000001N9+00781+99999099431ADDGF100991999999999999999999
0029028060999991915051520004+69100+027217FM-12+014999999V0200501N006219999999N0000001N9+00281+99999099421ADDGF106991999999999999999999
0052028060999991915051606004+69100+027217FM-12+014999999V0200701N011819999999N0000001N9+00111+99999098801ADDAJ100009199999999GF108991999999999999999999MW1701
0029028060999991915051613004+69100+027217FM-12+014999999V0200901N004119999999N0000001N9+00441+99999098471ADDGF108991999999999999999999
0029028060999991915051620004+69100+027217FM-12+014999999V0200901N002119999999N0000001N9+00281+99999098501ADDGF106991999999999999999999
0046028060999991915051706004+69100+027217FM-12+014999999V0200501N002119999999N0000001N9+00281+99999098061ADDAJ100009199999999GF100991999999999999999999
0029028060999991915051713004+69100+027217FM-12+014999999V0201801N006219999999N0000001N9+00721+99999097881ADDGF100991999999999999999999
0029028060999991915051720004+69100+027217FM-12+014999999V0209991C000019999999N0000001N9+00331+99999097751ADDGF104991999999999999999999
0046028060999991915051806004+69100+027217FM-12+014999999V0203601N009819999999N0000001N9+00221+99999097751ADDAJ100009199999999GF108991999999999999999999
0029028060999991915051813004+69100+027217FM-12+014999999V0203601N015919999999N0000001N9+00221+99999098391ADDGF108991999999999999999999
0035028060999991915051820004+69100+027217FM-12+014999999V0203601N009819999999N0000001N9-00171+99999098871ADDGF108991999999999999999999MW1701
0046028060999991915051906004+69100+027217FM-12+014999999V0203601N008219999999N0000001N9-00221+99999099761ADDAJ100009199999999GF108991999999999999999999
0029028060999991915051913004+69100+027217FM-12+014999999V0202701N008219999999N0000001N9-00061+99999100161ADDGF104991999999999999999999
0029028060999991915051920004+69100+027217FM-12+014999999V0202701N015919999999N0000001N9+00111+99999099951ADDGF108991999999999999999999
0046028060999991915052006004+69100+027217FM-12+014999999V0202701N011819999999N0000001N9+00331+99999099221ADDAJ100009199999999GF104991999999999999999999
0035028060999991915052013004+69100+027217FM-12+014999999V0202701N020119999999N0000001N9-00061+99999100061ADDGF108991999999999999999999MW1701
0029028060999991915052020004+69100+027217FM-12+014999999V0203201N006219999999N0000001N9-00171+99999100461ADDGF100991999999999999999999
0046028060999991915052106004+69100+027217FM-12+014999999V0203201N006219999999N0000001N9-00171+99999100701ADDAJ100009199999999GF106991999999999999999999
0029028060999991915052113004+69100+027217FM-12+014999999V0203201N009819999999N0000001N9+00281+99999100921ADDGF104991999999999999999999
0029028060999991915052120004+69100+027217FM-12+014999999V0203401N008219999999N0000001N9-00061+99999100961ADDGF106991999999999999999999
0046028060999991915052206004+69100+027217FM-12+014999999V0202701N009819999999N0000001N9+00001+99999101031ADDAJ100009199999999GF108991999999999999999999
0029028060999991915052213004+69100+027217FM-12+014999999V0202901N008219999999N0000001N9+00221+99999100981ADDGF108991999999999999999999
0029028060999991915052220004+69100+027217FM-12+014999999V0203601N001019999999N0000001N9+00111+99999101001ADDGF106991999999999999999999
0046028060999991915052306004+69100+027217FM-12+014999999V0202501N006219999999N0000001N9+00221+99999100601ADDAJ100009199999999GF100991999999999999999999
0029028060999991915052313004+69100+027217FM-12+014999999V0202501N004119999999N0000001N9+00441+99999100521ADDGF100991999999999999999999
0029028060999991915052320004+69100+027217FM-12+014999999V0209991C000019999999N0000001N9+00221+99999100281ADDGF104991999999999999999999
0052028060999991915052406004+69100+027217FM-12+014999999V0202001N004119999999N0000001N9+00221+99999099751ADDAJ100009199999999GF108991999999999999999999MW1601
0035028060999991915052413004+69100+027217FM-12+014999999V0201801N002119999999N0000001N9+00501+99999099461ADDGF108991999999999999999999MW1601
0035028060999991915052420004+69100+027217FM-12+014999999V0201801N001019999999N0000001N9+00501+99999099301ADDGF108991999999999999999999MW1601
0046028060999991915052506004+69100+027217FM-12+014999999V0202501N001019999999N0000001N9+00391+99999099261ADDAJ100009199999999GF108991999999999999999999
0029028060999991915052513004+69100+027217FM-12+014999999V0202001N004119999999N0000001N9+00781+99999098991ADDGF108991999999999999999999
0035028060999991915052520004+69100+027217FM-12+014999999V0202001N004119999999N0000001N9+00441+99999098301ADDGF108991999999999999999999MW1641
0052028060999991915052606004+69100+027217FM-12+014999999V0203601N009819999999N0000001N9+00281+99999098361ADDAJ100009199999999GF108991999999999999999999MW1701
0029028060999991915052613004+69100+027217FM-12+014999999V0203601N011819999999N0000001N9+00501+99999098841ADDGF104991999999999999999999
0029028060999991915052620004+69100+027217FM-12+014999999V0203601N006219999999N0000001N9+00061+99999099191ADDGF108991999999999999999999
0046028060999991915052706004+69100+027217FM-12+014999999V0203601N011819999999N0000001N9-00111+99999099361ADDAJ100009199999999GF108991999999999999999999
0029028060999991915052713004+69100+027217FM-12+014999999V0202701N009819999999N0000001N9+00171+99999098961ADDGF108991999999999999999999
0029028060999991915052720004+69100+027217FM-12+014999999V0200501N004119999999N0000001N9-00171+99999099031ADDGF108991999999999999999999
0052028060999991915052806004+69100+027217FM-12+014999999V0200501N009819999999N0000001N9-00221+99999098801ADDAJ100009199999999GF108991999999999999999999MW1701
0029028060999991915052813004+69100+027217FM-12+014999999V0203401N008219999999N0000001N9+00111+99999098941ADDGF104991999999999999999999
0029028060999991915052820004+69100+027217FM-12+014999999V0203401N002119999999N0000001N9-00111+99999098751ADDGF104991999999999999999999
0046028060999991915052906004+69100+027217FM-12+014999999V0203601N004119999999N0000001N9+00001+99999098601ADDAJ100009199999999GF104991999999999999999999
0029028060999991915052913004+69100+027217FM-12+014999999V0203201N011819999999N0000001N9+00331+99999098581ADDGF100991999999999999999999
0029028060999991915052920004+69100+027217FM-12+014999999V0203201N009819999999N0000001N9+00061+99999098511ADDGF100991999999999999999999
0046028060999991915053006004+69100+027217FM-12+014999999V0202701N008219999999N0000001N9+00171+99999098341ADDAJ100009199999999GF108991999999999999999999
0029028060999991915053013004+69100+027217FM-12+014999999V0202701N006219999999N0000001N9+00331+99999098391ADDGF106991999999999999999999
0029028060999991915053020004+69100+027217FM-12+014999999V0202701N002119999999N0000001N9+00111+99999098561ADDGF100991999999999999999999
0046028060999991915053106004+69100+027217FM-12+014999999V0203401N011819999999N0000001N9+00171+99999098861ADDAJ100009199999999GF100991999999999999999999
0029028060999991915053113004+69100+027217FM-12+014999999V0202901N011819999999N0000001N9+00501+99999099261ADDGF104991999999999999999999
0029028060999991915053120004+69100+027217FM-12+014999999V0202701N001019999999N0000001N9+00331+99999099641ADDGF100991999999999999999999
0046028060999991915060106004+69100+027217FM-12+014999999V0202501N009819999999N0000001N9+00501+99999099591ADDAJ100009199999999GF100991999999999999999999
0029028060999991915060113004+69100+027217FM-12+014999999V0202501N011819999999N0000001N9+01171+99999099481ADDGF100991999999999999999999
0029028060999991915060120004+69100+027217FM-12+014999999V0200901N002119999999N0000001N9+01061+99999099071ADDGF100991999999999999999999
0046028060999991915060206004+69100+027217FM-12+014999999V0200901N009819999999N0000001N9+00831+99999098521ADDAJ100009199999999GF104991999999999999999999
0035028060999991915060213004+69100+027217FM-12+014999999V0200201N015919999999N0000001N9+00111+99999097961ADDGF108991999999999999999999MW1741
0035028060999991915060220004+69100+027217FM-12+014999999V0200201N015919999999N0000001N9+00061+99999097541ADDGF108991999999999999999999MW1741
0029028060999991915060306004+69100+027217FM-12+014999999V0200201N015919999999N0000001N9+00001+99999097191ADDGF108991999999999999999999
0029028060999991915060313004+69100+027217FM-12+014999999V0203601N011819999999N0000001N9+00221+99999097861ADDGF108991999999999999999999
0029028060999991915060320004+69100+027217FM-12+014999999V0203601N020119999999N0000001N9+00221+99999098521ADDGF108991999999999999999999
0046028060999991915060406004+69100+027217FM-12+014999999V0203601N020119999999N0000001N9+00281+99999099271ADDAJ100009199999999GF100991999999999999999999
0029028060999991915060413004+69100+027217FM-12+014999999V0203601N018019999999N0000001N9+00501+99999099901ADDGF104991999999999999999999
0029028060999991915060420004+69100+027217FM-12+014999999V0203601N015919999999N0000001N9+00331+99999099951ADDGF104991999999999999999999
0046028060999991915060506004+69100+027217FM-12+014999999V0203601N004119999999N0000001N9+00391+99999100031ADDAJ100009199999999GF108991999999999999999999
0029028060999991915060513004+69100+027217FM-12+014999999V0202301N004119999999N0000001N9+00831+99999099881ADDGF100991999999999999999999
0029028060999991915060520004+69100+027217FM-12+014999999V0209991C000019999999N0000001N9+00721+99999099821ADDGF100991999999999999999999
0046028060999991915060606004+69100+027217FM-12+014999999V0200901N004119999999N0000001N9+00891+99999099601ADDAJ100009199999999GF100991999999999999999999
0029028060999991915060613004+69100+027217FM-12+014999999V0200901N002119999999N0000001N9+01281+99999099511ADDGF100991999999999999999999
0029028060999991915060620004+69100+027217FM-12+014999999V0200901N006219999999N0000001N9+00671+99999099421ADDGF100991999999999999999999
0046028060999991915060706004+69100+027217FM-12+014999999V0200201N011819999999N0000001N9+00221+99999099561ADDAJ100009199999999GF108991999999999999999999
0029028060999991915060713004+69100+027217FM-12+014999999V0203601N011819999999N0000001N9+00831+99999099591ADDGF100991999999999999999999
0029028060999991915060720004+69100+027217FM-12+014999999V0203601N011819999999N0000001N9+00561+99999099741ADDGF106991999999999999999999
0046028060999991915060806004+69100+027217FM-12+014999999V0203601N006219999999N0000001N9+00391+99999100071ADDAJ100009199999999GF108991999999999999999999
0029028060999991915060813004+69100+027217FM-12+014999999V0200501N004119999999N0000001N9+01001+99999100181ADDGF104991999999999999999999
0029028060999991915060820004+69100+027217FM-12+014999999V0200501N004119999999N0000001N9+00781+99999100311ADDGF100991999999999999999999
0046028060999991915060906004+69100+027217FM-12+014999999V0200901N002119999999N0000001N9+00781+99999100191ADDAJ100009199999999GF100991999999999999999999
0029028060999991915060913004+69100+027217FM-12+014999999V0202301N004119999999N0000001N9+01171+99999100111ADDGF100991999999999999999999
0029028060999991915060920004+69100+027217FM-12+014999999V0200901N004119999999N0000001N9+00891+99999099941ADDGF100991999999999999999999
0046028060999991915061006004+69100+027217FM-12+014999999V0201801N002119999999N0000001N9+00941+99999099641ADDAJ100009199999999GF108991999999999999999999
0035028060999991915061013004+69100+027217FM-12+014999999V0201801N004119999999N0000001N9+00831+99999099361ADDGF108991999999999999999999MW1621
0029028060999991915061020004+69100+027217FM-12+014999999V0202001N004119999999N0000001N9+00891+99999098961ADDGF108991999999999999999999
0046028060999991915061106004+69100+027217FM-12+014999999V0209991C000019999999N0000001N9+00831+99999098711ADDAJ100009199999999GF108991999999999999999999
0029028060999991915061113004+69100+027217FM-12+014999999V0200501N011819999999N0000001N9+01171+99999098791ADDGF100991999999999999999999
0029028060999991915061120004+69100+027217FM-12+014999999V0200501N009819999999N0000001N9+00671+99999099001ADDGF108991999999999999999999
0046028060999991915061206004+69100+027217FM-12+014999999V0201401N004119999999N0000001N9+00561+99999098391ADDAJ100009199999999GF108991999999999999999999
0029028060999991915061213004+69100+027217FM-12+014999999V0200901N008219999999N0000001N9+00941+99999098141ADDGF106991999999999999999999
0029028060999991915061220004+69100+027217FM-12+014999999V0200901N004119999999N0000001N9+00891+99999097841ADDGF106991999999999999999999
0046028060999991915061306004+69100+027217FM-12+014999999V0203601N011819999999N0000001N9+00721+99999097921ADDAJ100009199999999GF104991999999999999999999
0029028060999991915061313004+69100+027217FM-12+014999999V0203601N015919999999N0000001N9+00831+99999098201ADDGF106991999999999999999999
0035028060999991915061320004+69100+027217FM-12+014999999V0203601N015919999999N0000001N9+00331+99999098621ADDGF108991999999999999999999MW1641
0046028060999991915061406004+69100+027217FM-12+014999999V0203601N015919999999N0000001N9+00501+99999099361ADDAJ100009199999999GF108991999999999999999999
0029028060999991915061413004+69100+027217FM-12+014999999V0203601N015919999999N0000001N9+00671+99999099791ADDGF108991999999999999999999
0029028060999991915061420004+69100+027217FM-12+014999999V0203601N011819999999N0000001N9+00441+99999099951ADDGF108991999999999999999999
0046028060999991915061506004+69100+027217FM-12+014999999V0203601N011819999999N0000001N9+00331+99999099991ADDAJ100009199999999GF104991999999999999999999
0029028060999991915061513004+69100+027217FM-12+014999999V0203601N009819999999N0000001N9+00891+99999099831ADDGF100991999999999999999999
0029028060999991915061520004+69100+027217FM-12+014999999V0200701N004119999999N0000001N9+00671+99999099621ADDGF106991999999999999999999
0046028060999991915061606004+69100+027217FM-12+014999999V0201801N006219999999N0000001N9+00891+99999098961ADDAJ100009199999999GF108991999999999999999999
0035028060999991915061613004+69100+027217FM-12+014999999V0202301N006219999999N0000001N9+00781+99999098471ADDGF108991999999999999999999MW1621
0029028060999991915061620004+69100+027217FM-12+014999999V0203601N002119999999N0000001N9+00671+99999098121ADDGF108991999999999999999999
0046028060999991915061706004+69100+027217FM-12+014999999V0202501N006219999999N0000001N9+00611+99999098031ADDAJ100009199999999GF100991999999999999999999
0029028060999991915061713004+69100+027217FM-12+014999999V0202701N008219999999N0000001N9+00941+99999097941ADDGF104991999999999999999999
0029028060999991915061720004+69100+027217FM-12+014999999V0203601N006219999999N0000001N9+00611+99999097881ADDGF104991999999999999999999
0046028060999991915061806004+69100+027217FM-12+014999999V0203601N006219999999N0000001N9+00501+99999097861ADDAJ100009199999999GF104991999999999999999999
0000028060999991915061813004+69100+027217FM-12+014999999V0200901N015919999999N0000001N9+00891+99999097751
0029028060999991915061820004+69100+027217FM-12+014999999V0203601N011819999999N0000001N9+00391+99999097721ADDGF108991999999999999999999
0046028060999991915061906004+69100+027217FM-12+014999999V0203201N015919999999N0000001N9+00391+99999097661ADDAJ100009199999999GF104991999999999999999999
0029028060999991915061913004+69100+027217FM-12+014999999V0202701N009819999999N0000001N9+00781+99999097801ADDGF104991999999999999999999
0029028060999991915061920004+69100+027217FM-12+014999999V0202701N006219999999N0000001N9+00441+99999097831ADDGF104991999999999999999999
0052028060999991915062006004+69100+027217FM-12+014999999V0202501N009819999999N0000001N9+00281+99999098041ADDAJ100009199999999GF108991999999999999999999MW1701
0029028060999991915062013004+69100+027217FM-12+014999999V0202501N011819999999N0000001N9+00891+99999098081ADDGF104991999999999999999999
0029028060999991915062020004+69100+027217FM-12+014999999V0202701N006219999999N0000001N9+00671+99999098311ADDGF100991999999999999999999
0046028060999991915062106004+69100+027217FM-12+014999999V0202301N004119999999N0000001N9+00831+99999098601ADDAJ100009199999999GF104991999999999999999999
0029028060999991915062113004+69100+027217FM-12+014999999V0202001N008219999999N0000001N9+01171+99999098721ADDGF104991999999999999999999
0029028060999991915062120004+69100+027217FM-12+014999999V0201801N002119999999N0000001N9+00781+99999099071ADDGF100991999999999999999999
0046028060999991915062206004+69100+027217FM-12+014999999V0201401N006219999999N0000001N9+01221+99999099061ADDAJ100009199999999GF104991999999999999999999
0029028060999991915062213004+69100+027217FM-12+014999999V0201401N008219999999N0000001N9+01111+99999098961ADDGF104991999999999999999999
0035028060999991915062220004+69100+027217FM-12+014999999V0201801N001019999999N0000001N9+00781+99999098871ADDGF108991999999999999999999MW1621
0046028060999991915062306004+69100+027217FM-12+014999999V0202701N006219999999N0000001N9+00941+99999099081ADDAJ100009199999999GF104991999999999999999999
0035028060999991915062313004+69100+027217FM-12+014999999V0200901N006219999999N0000001N9+00831+99999099311ADDGF108991999999999999999999MW1641
0035028060999991915062320004+69100+027217FM-12+014999999V0203601N002119999999N0000001N9+00501+99999099681ADDGF108991999999999999999999MW1641
0046028060999991915062406004+69100+027217FM-12+014999999V0202701N004119999999N0000001N9+00781+99999099921ADDAJ100009199999999GF104991999999999999999999
0029028060999991915062413004+69100+027217FM-12+014999999V0203201N011819999999N0000001N9+01001+99999099961ADDGF106991999999999999999999
0029028060999991915062420004+69100+027217FM-12+014999999V0203201N006219999999N0000001N9+00671+99999100281ADDGF104991999999999999999999
0046028060999991915062506004+69100+027217FM-12+014999999V0202701N011819999999N0000001N9+00781+99999100481ADDAJ100009199999999GF104991999999999999999999
0029028060999991915062513004+69100+027217FM-12+014999999V0203601N015919999999N0000001N9+00831+99999100621ADDGF106991999999999999999999
0029028060999991915062520004+69100+027217FM-12+014999999V0200501N015919999999N0000001N9+00501+99999100761ADDGF106991999999999999999999
0046028060999991915062606004+69100+027217FM-12+014999999V0200501N015919999999N0000001N9+00391+99999100641ADDAJ100009199999999GF108991999999999999999999
0029028060999991915062613004+69100+027217FM-12+014999999V0200201N011819999999N0000001N9+00671+99999100471ADDGF106991999999999999999999
0029028060999991915062620004+69100+027217FM-12+014999999V0200501N009819999999N0000001N9+00501+99999100441ADDGF106991999999999999999999
0046028060999991915062706004+69100+027217FM-12+014999999V0200501N011819999999N0000001N9+00561+99999100311ADDAJ100009199999999GF104991999999999999999999
0029028060999991915062713004+69100+027217FM-12+014999999V0203601N020119999999N0000001N9+00831+99999100101ADDGF104991999999999999999999
0029028060999991915062720004+69100+027217FM-12+014999999V0203601N011819999999N0000001N9+00501+99999099861ADDGF108991999999999999999999
0046028060999991915062806004+69100+027217FM-12+014999999V0200201N015919999999N0000001N9+00561+99999099521ADDAJ100009199999999GF108991999999999999999999
0029028060999991915062813004+69100+027217FM-12+014999999V0200501N015919999999N0000001N9+00781+99999099481ADDGF108991999999999999999999
0029028060999991915062820004+69100+027217FM-12+014999999V0203601N008219999999N0000001N9+00671+99999099341ADDGF106991999999999999999999
0046028060999991915062906004+69100+027217FM-12+014999999V0203601N004119999999N0000001N9+00561+99999099301ADDAJ100009199999999GF108991999999999999999999
0029028060999991915062913004+69100+027217FM-12+014999999V0200901N004119999999N0000001N9+01061+99999099191ADDGF104991999999999999999999
0029028060999991915062920004+69100+027217FM-12+014999999V0209991C000019999999N0000001N9+01001+99999099181ADDGF100991999999999999999999
0046028060999991915063006004+69100+027217FM-12+014999999V0200501N002119999999N0000001N9+01001+99999099141ADDAJ100009199999999GF104991999999999999999999
0029028060999991915063013004+69100+027217FM-12+014999999V0202001N009819999999N0000001N9+01891+99999098921ADDGF104991999999999999999999
0029028060999991915063020004+69100+027217FM-12+014999999V0202301N002119999999N0000001N9+01611+99999099021ADDGF106991999999999999999999
0052028060999991915070106004+69100+027217FM-12+014999999V0201801N004119999999N0000001N9+01221+99999099381ADDAJ100009199999999GF108991999999999999999999MW1641
0035028060999991915070113004+69100+027217FM-12+014999999V0201101N006219999999N0000001N9+01221+99999099631ADDGF108991999999999999999999MW1601
0029028060999991915070120004+69100+027217FM-12+014999999V0200901N001019999999N0000001N9+01281+99999099841ADDGF108991999999999999999999
0052028060999991915070206004+69100+027217FM-12+014999999V0200201N011819999999N0000001N9+00671+99999100201ADDAJ100009199999999GF108991999999999999999999MW1601
0035028060999991915070213004+69100+027217FM-12+014999999V0203601N011819999999N0000001N9+00561+99999100361ADDGF108991999999999999999999MW1601
0029028060999991915070220004+69100+027217FM-12+014999999V0200501N015919999999N0000001N9+00561+99999100541ADDGF108991999999999999999999
0046028060999991915070306004+69100+027217FM-12+014999999V0200501N008219999999N0000001N9+00611+99999100511ADDAJ100009199999999GF108991999999999999999999
0029028060999991915070313004+69100+027217FM-12+014999999V0200901N006219999999N0000001N9+01001+99999100431ADDGF108991999999999999999999
0029028060999991915070320004+69100+027217FM-12+014999999V0200501N006219999999N0000001N9+00781+99999100551ADDGF108991999999999999999999
0052028060999991915070406004+69100+027217FM-12+014999999V0200901N006219999999N0000001N9+00611+99999100481ADDAJ100009199999999GF108991999999999999999999MW1601
0035028060999991915070413004+69100+027217FM-12+014999999V0200901N004119999999N0000001N9+00941+99999100501ADDGF108991999999999999999999MW1601
0035028060999991915070420004+69100+027217FM-12+014999999V0200501N002119999999N0000001N9+01001+99999100301ADDGF108991999999999999999999MW1601
0046028060999991915070506004+69100+027217FM-12+014999999V0200901N004119999999N0000001N9+00781+99999100521ADDAJ100009199999999GF106991999999999999999999
0029028060999991915070513004+69100+027217FM-12+014999999V0200901N002119999999N0000001N9+01441+99999100361ADDGF100991999999999999999999
0029028060999991915070520004+69100+027217FM-12+014999999V0200901N001019999999N0000001N9+01391+99999100321ADDGF106991999999999999999999
0046028060999991915070606004+69100+027217FM-12+014999999V0200901N004119999999N0000001N9+01391+99999099991ADDAJ100009199999999GF106991999999999999999999
0035028060999991915070613004+69100+027217FM-12+014999999V0201801N004119999999N0000001N9+01441+99999099991ADDGF108991999999999999999999MW1601
0029028060999991915070620004+69100+027217FM-12+014999999V0200901N002119999999N0000001N9+01331+99999099831ADDGF108991999999999999999999
0046028060999991915070706004+69100+027217FM-12+014999999V0200901N002119999999N0000001N9+01611+99999099831ADDAJ100009199999999GF100991999999999999999999
0029028060999991915070713004+69100+027217FM-12+014999999V0202701N006219999999N0000001N9+02281+99999099601ADDGF100991999999999999999999
0029028060999991915070720004+69100+027217FM-12+014999999V0201801N004119999999N0000001N9+02001+99999099721ADDGF104991999999999999999999
0046028060999991915070806004+69100+027217FM-12+014999999V0202301N004119999999N0000001N9+01781+99999099801ADDAJ100009199999999GF100991999999999999999999
0035028060999991915070813004+69100+027217FM-12+014999999V0201801N002119999999N0000001N9+02171+99999099601ADDGF106991999999999999999999MW1601
0029028060999991915070820004+69100+027217FM-12+014999999V0201101N004119999999N0000001N9+01781+99999099511ADDGF100991999999999999999999
0046028060999991915070906004+69100+027217FM-12+014999999V0200901N002119999999N0000001N9+02171+99999099261ADDAJ100009199999999GF100991999999999999999999
0029028060999991915070913004+69100+027217FM-12+014999999V0200901N004119999999N0000001N9+02281+99999099181ADDGF108991999999999999999999
0029028060999991915070920004+69100+027217FM-12+014999999V0200901N001019999999N0000001N9+02001+99999098961ADDGF100991999999999999999999
0046028060999991915071006004+69100+027217FM-12+014999999V0200501N006219999999N0000001N9+01781+99999098861ADDAJ100009199999999GF106991999999999999999999
0029028060999991915071013004+69100+027217FM-12+014999999V0201401N011819999999N0000001N9+02061+99999098601ADDGF106991999999999999999999
0029028060999991915071020004+69100+027217FM-12+014999999V0201801N006219999999N0000001N9+01721+99999098441ADDGF108991999999999999999999
0046028060999991915071106004+69100+027217FM-12+014999999V0200901N006219999999N0000001N9+01671+99999098551ADDAJ100009199999999GF104991999999999999999999
0029028060999991915071113004+69100+027217FM-12+014999999V0200901N006219999999N0000001N9+01721+99999098721ADDGF106991999999999999999999
0029028060999991915071120004+69100+027217FM-12+014999999V0200501N006219999999N0000001N9+01221+99999098721ADDGF104991999999999999999999
0046028060999991915071206004+69100+027217FM-12+014999999V0200501N004119999999N0000001N9+01221+99999098681ADDAJ100009199999999GF108991999999999999999999
0035028060999991915071213004+69100+027217FM-12+014999999V0200501N004119999999N0000001N9+01831+99999098541ADDGF106991999999999999999999MW1621
0029028060999991915071220004+69100+027217FM-12+014999999V0200901N004119999999N0000001N9+01391+99999098471ADDGF108991999999999999999999
0046028060999991915071306004+69100+027217FM-12+014999999V0200701N004119999999N0000001N9+01171+99999098201ADDAJ100009199999999GF108991999999999999999999
0029028060999991915071313004+69100+027217FM-12+014999999V0200501N006219999999N0000001N9+01331+99999098181ADDGF108991999999999999999999
0029028060999991915071320004+69100+027217FM-12+014999999V0200501N008219999999N0000001N9+01171+99999097821ADDGF108991999999999999999999
0046028060999991915071406004+69100+027217FM-12+014999999V0209991C000019999999N0000001N9+01171+99999098081ADDAJ100009199999999GF108991999999999999999999
0029028060999991915071413004+69100+027217FM-12+014999999V0202301N004119999999N0000001N9+01941+99999098271ADDGF104991999999999999999999
0029028060999991915071420004+69100+027217FM-12+014999999V0209991C000019999999N0000001N9+01391+99999098271ADDGF104991999999999999999999
0046028060999991915071506004+69100+027217FM-12+014999999V0202301N002119999999N0000001N9+01561+99999098541ADDAJ100009199999999GF104991999999999999999999
0035028060999991915071513004+69100+027217FM-12+014999999V0202301N008219999999N0000001N9+01831+99999098511ADDGF108991999999999999999999MW1601
0029028060999991915071520004+69100+027217FM-12+014999999V0209991C000019999999N0000001N9+01561+99999098711ADDGF100991999999999999999999
0046028060999991915071606004+69100+027217FM-12+014999999V0200901N001019999999N0000001N9+01671+99999098941ADDAJ100009199999999GF100991999999999999999999
0029028060999991915071613004+69100+027217FM-12+014999999V0202301N004119999999N0000001N9+02221+99999099041ADDGF104991999999999999999999
0035028060999991915071620004+69100+027217FM-12+014999999V0209991C000019999999N0000001N9+01891+99999099161ADDGF106991999999999999999999MW1601
0046028060999991915071706004+69100+027217FM-12+014999999V0202701N004119999999N0000001N9+01781+99999099541ADDAJ100009199999999GF100991999999999999999999
0029028060999991915071713004+69100+027217FM-12+014999999V0202301N004119999999N0000001N9+02331+99999099521ADDGF100991999999999999999999
0029028060999991915071720004+69100+027217FM-12+014999999V0209991C000019999999N0000001N9+02001+99999099471ADDGF100991999999999999999999
0046028060999991915071806004+69100+027217FM-12+014999999V0209991C000019999999N0000001N9+02111+99999099591ADDAJ100009199999999GF100991999999999999999999
0029028060999991915071813004+69100+027217FM-12+014999999V0201401N008219999999N0000001N9+02281+99999099581ADDGF104991999999999999999999
0029028060999991915071820004+69100+027217FM-12+014999999V0209991C000019999999N0000001N9+01831+99999099471ADDGF104991999999999999999999
0046028060999991915071906004+69100+027217FM-12+014999999V0200901N002119999999N0000001N9+02061+99999099681ADDAJ100009199999999GF100991999999999999999999
0029028060999991915071913004+69100+027217FM-12+014999999V0201801N006219999999N0000001N9+02501+99999099581ADDGF100991999999999999999999
0029028060999991915071920004+69100+027217FM-12+014999999V0209991C000019999999N0000001N9+02111+99999099441ADDGF104991999999999999999999
0046028060999991915072006004+69100+027217FM-12+014999999V0202301N004119999999N0000001N9+02001+99999099381ADDAJ100009199999999GF104991999999999999999999
0029028060999991915072013004+69100+027217FM-12+014999999V0200501N002119999999N0000001N9+02001+99999099321ADDGF104991999999999999999999
0029028060999991915072020004+69100+027217FM-12+014999999V0202001N002119999999N0000001N9+01781+99999099301ADDGF108991999999999999999999
0046028060999991915072106004+69100+027217FM-12+014999999V0201801N001019999999N0000001N9+01831+99999099241ADDAJ100009199999999GF108991999999999999999999
0029028060999991915072113004+69100+027217FM-12+014999999V0200501N006219999999N0000001N9+01831+99999099141ADDGF108991999999999999999999
0035028060999991915072120004+69100+027217FM-12+014999999V0200501N004119999999N0000001N9+01331+99999099191ADDGF108991999999999999999999MW1641
0046028060999991915072206004+69100+027217FM-12+014999999V0209991C000019999999N0000001N9+01331+99999099361ADDAJ100009199999999GF108991999999999999999999
0029028060999991915072213004+69100+027217FM-12+014999999V0200901N004119999999N0000001N9+02001+99999099361ADDGF100991999999999999999999
0029028060999991915072220004+69100+027217FM-12+014999999V0209991C000019999999N0000001N9+01941+99999099111ADDGF104991999999999999999999
0046028060999991915072306004+69100+027217FM-12+014999999V0201601N009819999999N0000001N9+02061+99999098681ADDAJ100009199999999GF104991999999999999999999
0029028060999991915072313004+69100+027217FM-12+014999999V0202301N011819999999N0000001N9+01891+99999098791ADDGF104991999999999999999999
0029028060999991915072320004+69100+027217FM-12+014999999V0202301N011819999999N0000001N9+01781+99999099111ADDGF106991999999999999999999
0046028060999991915072406004+69100+027217FM-12+014999999V0202301N008219999999N0000001N9+01441+99999099431ADDAJ100009199999999GF108991999999999999999999
0029028060999991915072413004+69100+027217FM-12+014999999V0202301N015919999999N0000001N9+01781+99999099541ADDGF108991999999999999999999
0029028060999991915072420004+69100+027217FM-12+014999999V0201801N002119999999N0000001N9+01891+99999099481ADDGF108991999999999999999999
0046028060999991915072506004+69100+027217FM-12+014999999V0202301N006219999999N0000001N9+02001+99999099601ADDAJ100009199999999GF100991999999999999999999
0029028060999991915072513004+69100+027217FM-12+014999999V0202001N008219999999N0000001N9+02501+99999099641ADDGF100991999999999999999999
0029028060999991915072520004+69100+027217FM-12+014999999V0209991C000019999999N0000001N9+02171+99999099511ADDGF100991999999999999999999
0046028060999991915072606004+69100+027217FM-12+014999999V0201801N004119999999N0000001N9+02111+99999099541ADDAJ100009199999999GF100991999999999999999999
0029028060999991915072613004+69100+027217FM-12+014999999V0201801N006219999999N0000001N9+02391+99999099511ADDGF100991999999999999999999
0029028060999991915072620004+69100+027217FM-12+014999999V0209991C000019999999N0000001N9+02281+99999099501ADDGF100991999999999999999999
0046028060999991915072706004+69100+027217FM-12+014999999V0201801N002119999999N0000001N9+02281+99999099751ADDAJ100009199999999GF100991999999999999999999
0029028060999991915072713004+69100+027217FM-12+014999999V0202301N008219999999N0000001N9+02441+99999099721ADDGF100991999999999999999999
0029028060999991915072720004+69100+027217FM-12+014999999V0209991C000019999999N0000001N9+02221+99999099781ADDGF100991999999999999999999
0046028060999991915072806004+69100+027217FM-12+014999999V0201401N008219999999N0000001N9+02441+99999099871ADDAJ100009199999999GF100991999999999999999999
0029028060999991915072813004+69100+027217FM-12+014999999V0201401N008219999999N0000001N9+02781+99999099761ADDGF100991999999999999999999
0029028060999991915072820004+69100+027217FM-12+014999999V0200901N009819999999N0000001N9+02111+99999099841ADDGF100991999999999999999999
0046028060999991915072906004+69100+027217FM-12+014999999V0200901N009819999999N0000001N9+02111+99999099741ADDAJ100009199999999GF100991999999999999999999
0029028060999991915072913004+69100+027217FM-12+014999999V0200901N011819999999N0000001N9+02331+99999099741ADDGF100991999999999999999999
0029028060999991915072920004+69100+027217FM-12+014999999V0200201N011819999999N0000001N9+01221+99999100041ADDGF108991999999999999999999
0046028060999991915073006004+69100+027217FM-12+014999999V0200901N011819999999N0000001N9+01281+99999099941ADDAJ100009199999999GF108991999999999999999999
0029028060999991915073013004+69100+027217FM-12+014999999V0200901N011819999999N0000001N9+01721+99999099761ADDGF100991999999999999999999
0029028060999991915073020004+69100+027217FM-12+014999999V0200501N015919999999N0000001N9+01281+99999099751ADDGF108991999999999999999999
0046028060999991915073106004+69100+027217FM-12+014999999V0200901N011819999999N0000001N9+01171+99999099681ADDAJ100009199999999GF108991999999999999999999
0029028060999991915073113004+69100+027217FM-12+014999999V0200901N009819999999N0000001N9+01441+99999099821ADDGF104991999999999999999999
0029028060999991915073120004+69100+027217FM-12+014999999V0203601N011819999999N0000001N9+00891+99999099721ADDGF106991999999999999999999
0046028060999991915080106004+69100+027217FM-12+014999999V0200501N009819999999N0000001N9+00941+99999099721ADDAJ100009199999999GF108991999999999999999999
0029028060999991915080113004+69100+027217FM-12+014999999V0200501N009819999999N0000001N9+01281+99999099641ADDGF106991999999999999999999
0029028060999991915080120004+69100+027217FM-12+014999999V0200501N009819999999N0000001N9+01001+99999099621ADDGF108991999999999999999999
0046028060999991915080206004+69100+027217FM-12+014999999V0200501N008219999999N0000001N9+00721+99999099871ADDAJ100009199999999GF108991999999999999999999
0029028060999991915080213004+69100+027217FM-12+014999999V0200501N004119999999N0000001N9+01061+99999100041ADDGF108991999999999999999999
0029028060999991915080220004+69100+027217FM-12+014999999V0209991C000019999999N0000001N9+01171+99999099991ADDGF108991999999999999999999
0046028060999991915080306004+69100+027217FM-12+014999999V0200901N004119999999N0000001N9+01281+99999099981ADDAJ100009199999999GF106991999999999999999999
0029028060999991915080313004+69100+027217FM-12+014999999V0200901N006219999999N0000001N9+01611+99999099881ADDGF106991999999999999999999
0029028060999991915080320004+69100+027217FM-12+014999999V0209991C000019999999N0000001N9+01501+99999099721ADDGF104991999999999999999999
0046028060999991915080406004+69100+027217FM-12+014999999V0209991C000019999999N0000001N9+01441+99999099591ADDAJ100009199999999GF104991999999999999999999
0029028060999991915080413004+69100+027217FM-12+014999999V0209991C000019999999N0000001N9+01611+99999099431ADDGF106991999999999999999999
0035028060999991915080420004+69100+027217FM-12+014999999V0203601N004119999999N0000001N9+01391+99999099241ADDGF108991999999999999999999MW1601
0046028060999991915080506004+69100+027217FM-12+014999999V0203601N009819999999N0000001N9+00891+99999099761ADDAJ100009199999999GF108991999999999999999999
0029028060999991915080513004+69100+027217FM-12+014999999V0200501N011819999999N0000001N9+01061+99999099921ADDGF108991999999999999999999
0029028060999991915080520004+69100+027217FM-12+014999999V0200501N011819999999N0000001N9+00721+99999100101ADDGF108991999999999999999999
0046028060999991915080606004+69100+027217FM-12+014999999V0203601N006219999999N0000001N9+00501+99999100181ADDAJ100009199999999GF100991999999999999999999
0029028060999991915080613004+69100+027217FM-12+014999999V0200501N006219999999N0000001N9+01001+99999100021ADDGF100991999999999999999999
0035028060999991915080620004+69100+027217FM-12+014999999V0200501N002119999999N0000001N9+00721+99999099961ADDGF106991999999999999999999MW1601
0046028060999991915080706004+69100+027217FM-12+014999999V0201401N004119999999N0000001N9+00831+99999099841ADDAJ100009199999999GF104991999999999999999999
0029028060999991915080713004+69100+027217FM-12+014999999V0202301N004119999999N0000001N9+01331+99999099621ADDGF100991999999999999999999
0029028060999991915080720004+69100+027217FM-12+014999999V0202001N004119999999N0000001N9+01001+99999099501ADDGF100991999999999999999999
0046028060999991915080806004+69100+027217FM-12+014999999V0202701N008219999999N0000001N9+01001+99999099201ADDAJ100009199999999GF108991999999999999999999
0035028060999991915080813004+69100+027217FM-12+014999999V0203601N008219999999N0000001N9+01061+99999099481ADDGF108991999999999999999999MW1601
0035028060999991915080820004+69100+027217FM-12+014999999V0209991C000019999999N0000001N9+00941+99999099351ADDGF108991999999999999999999MW1601
0046028060999991915080906004+69100+027217FM-12+014999999V0202001N004119999999N0000001N9+01171+99999099301ADDAJ100009199999999GF108991999999999999999999
0029028060999991915080913004+69100+027217FM-12+014999999V0200501N004119999999N0000001N9+01331+99999099741ADDGF104991999999999999999999
0029028060999991915080920004+69100+027217FM-12+014999999V0200501N004119999999N0000001N9+01061+99999099951ADDGF106991999999999999999999
0046028060999991915081006004+69100+027217FM-12+014999999V0200501N004119999999N0000001N9+01001+99999100151ADDAJ100009199999999GF106991999999999999999999
0029028060999991915081013004+69100+027217FM-12+014999999V0200501N006219999999N0000001N9+01281+99999100281ADDGF100991999999999999999999
0029028060999991915081020004+69100+027217FM-12+014999999V0200501N004119999999N0000001N9+00941+99999100421ADDGF106991999999999999999999
0046028060999991915081106004+69100+027217FM-12+014999999V0203601N004119999999N0000001N9+00891+99999100551ADDAJ100009199999999GF104991999999999999999999
0029028060999991915081113004+69100+027217FM-12+014999999V0200901N004119999999N0000001N9+01331+99999100601ADDGF104991999999999999999999
0029028060999991915081120004+69100+027217FM-12+014999999V0200901N001019999999N0000001N9+01001+99999100751ADDGF100991999999999999999999
0046028060999991915081206004+69100+027217FM-12+014999999V0209991C000019999999N0000001N9+00781+99999100841ADDAJ100009199999999GF100991999999999999999999
0029028060999991915081213004+69100+027217FM-12+014999999V0202301N004119999999N0000001N9+01611+99999100861ADDGF100991999999999999999999
0029028060999991915081220004+69100+027217FM-12+014999999V0209991C000019999999N0000001N9+01221+99999100791ADDGF100991999999999999999999
0046028060999991915081306004+69100+027217FM-12+014999999V0202501N004119999999N0000001N9+01221+99999100801ADDAJ100009199999999GF100991999999999999999999
0029028060999991915081313004+69100+027217FM-12+014999999V0200901N004119999999N0000001N9+02001+99999100631ADDGF100991999999999999999999
0029028060999991915081320004+69100+027217FM-12+014999999V0209991C000019999999N0000001N9+01281+99999100701ADDGF100991999999999999999999
0046028060999991915081406004+69100+027217FM-12+014999999V0200901N006219999999N0000001N9+01221+99999100791ADDAJ100009199999999GF100991999999999999999999
0029028060999991915081413004+69100+027217FM-12+014999999V0200901N004119999999N0000001N9+01831+99999100621ADDGF100991999999999999999999
0029028060999991915081420004+69100+027217FM-12+014999999V0209991C000019999999N0000001N9+01221+99999100591ADDGF100991999999999999999999
0046028060999991915081506004+69100+027217FM-12+014999999V0200901N004119999999N0000001N9+01221+99999100521ADDAJ100009199999999GF100991999999999999999999
0029028060999991915081513004+69100+027217FM-12+014999999V0200901N006219999999N0000001N9+01671+99999100421ADDGF100991999999999999999999
0029028060999991915081520004+69100+027217FM-12+014999999V0209991C000019999999N0000001N9+01001+99999100231ADDGF100991999999999999999999
0046028060999991915081606004+69100+027217FM-12+014999999V0200901N004119999999N0000001N9+00831+99999100151ADDAJ100009199999999GF104991999999999999999999
0029028060999991915081613004+69100+027217FM-12+014999999V0200901N006219999999N0000001N9+01281+99999099861ADDGF100991999999999999999999
0029028060999991915081620004+69100+027217FM-12+014999999V0209991C000019999999N0000001N9+00611+99999099681ADDGF100991999999999999999999
0046028060999991915081706004+69100+027217FM-12+014999999V0200901N004119999999N0000001N9+00501+99999099501ADDAJ100009199999999GF104991999999999999999999
0029028060999991915081713004+69100+027217FM-12+014999999V0200901N006219999999N0000001N9+01281+99999099421ADDGF100991999999999999999999
0029028060999991915081720004+69100+027217FM-12+014999999V0200501N004119999999N0000001N9+00781+99999099351ADDGF104991999999999999999999
0046028060999991915081806004+69100+027217FM-12+014999999V0200501N006219999999N0000001N9+00831+99999099431ADDAJ100009199999999GF108991999999999999999999
0029028060999991915081813004+69100+027217FM-12+014999999V0200901N008219999999N0000001N9+00941+99999099511ADDGF108991999999999999999999
0029028060999991915081820004+69100+027217FM-12+014999999V0200501N009819999999N0000001N9+00831+99999099471ADDGF108991999999999999999999
0046028060999991915081906004+69100+027217FM-12+014999999V0200501N006219999999N0000001N9+00831+99999099461ADDAJ100009199999999GF108991999999999999999999
0029028060999991915081913004+69100+027217FM-12+014999999V0200501N006219999999N0000001N9+01001+99999099441ADDGF108991999999999999999999
0035028060999991915081920004+69100+027217FM-12+014999999V0200501N002119999999N0000001N9+00941+99999099341ADDGF108991999999999999999999MW1601
0052028060999991915082006004+69100+027217FM-12+014999999V0200501N002119999999N0000001N9+00941+99999099241ADDAJ100009199999999GF108991999999999999999999MW1601
0035028060999991915082013004+69100+027217FM-12+014999999V0202301N004119999999N0000001N9+01111+99999099101ADDGF108991999999999999999999MW1601
0029028060999991915082020004+69100+027217FM-12+014999999V0202301N002119999999N0000001N9+01001+99999099181ADDGF108991999999999999999999
0046028060999991915082106004+69100+027217FM-12+014999999V0202301N004119999999N0000001N9+00941+99999099351ADDAJ100009199999999GF108991999999999999999999
0029028060999991915082113004+69100+027217FM-12+014999999V0202701N006219999999N0000001N9+01171+99999099481ADDGF108991999999999999999999
0029028060999991915082120004+69100+027217FM-12+014999999V0202301N002119999999N0000001N9+01061+99999099621ADDGF108991999999999999999999
0046028060999991915082206004+69100+027217FM-12+014999999V0202501N004119999999N0000001N9+00831+99999099661ADDAJ100009199999999GF108991999999999999999999
0029028060999991915082213004+69100+027217FM-12+014999999V0202501N009819999999N0000001N9+01501+99999099551ADDGF100991999999999999999999
0029028060999991915082220004+69100+027217FM-12+014999999V0202301N004119999999N0000001N9+01111+99999099241ADDGF108991999999999999999999
0046028060999991915082306004+69100+027217FM-12+014999999V0202501N009819999999N0000001N9+00831+99999099121ADDAJ100009199999999GF108991999999999999999999
0029028060999991915082313004+69100+027217FM-12+014999999V0201801N006219999999N0000001N9+01221+99999098951ADDGF108991999999999999999999
0029028060999991915082320004+69100+027217FM-12+014999999V0202001N004119999999N0000001N9+01171+99999098781ADDGF108991999999999999999999
0052028060999991915082406004+69100+027217FM-12+014999999V0201801N004119999999N0000001N9+01111+99999098591ADDAJ100009199999999GF108991999999999999999999MW1601
0029028060999991915082413004+69100+027217FM-12+014999999V0201801N006219999999N0000001N9+01391+99999098271ADDGF104991999999999999999999
0035028060999991915082420004+69100+027217FM-12+014999999V0201401N006219999999N0000001N9+01111+99999098021ADDGF108991999999999999999999MW1601
0046028060999991915082506004+69100+027217FM-12+014999999V0202701N009819999999N0000001N9+00831+99999098311ADDAJ100009199999999GF100991999999999999999999
0029028060999991915082513004+69100+027217FM-12+014999999V0202301N009819999999N0000001N9+01331+99999098341ADDGF100991999999999999999999
0035028060999991915082520004+69100+027217FM-12+014999999V0202301N020119999999N0000001N9+01171+99999097791ADDGF108991999999999999999999MW1601
0046028060999991915082606004+69100+027217FM-12+014999999V0202701N006219999999N0000001N9+00611+99999097781ADDAJ100009199999999GF100991999999999999999999
0029028060999991915082613004+69100+027217FM-12+014999999V0202501N009819999999N0000001N9+01391+99999097631ADDGF100991999999999999999999
0029028060999991915082620004+69100+027217FM-12+014999999V0202701N001019999999N0000001N9+00781+99999097431ADDGF104991999999999999999999
0046028060999991915082706004+69100+027217FM-12+014999999V0202301N004119999999N0000001N9+00781+99999097151ADDAJ100009199999999GF100991999999999999999999
0029028060999991915082713004+69100+027217FM-12+014999999V0202701N004119999999N0000001N9+01281+99999097081ADDGF100991999999999999999999
0029028060999991915082720004+69100+027217FM-12+014999999V0203201N001019999999N0000001N9+00721+99999097001ADDGF100991999999999999999999
0046028060999991915082806004+69100+027217FM-12+014999999V0202701N011819999999N0000001N9+00441+99999096881ADDAJ100009199999999GF100991999999999999999999
