0029028970999991916010113004+64217+027767FM-12+014699999V0202301N001019999999N0000001N9-00781+99999099581ADDGF108991999999999999999999
0035028970999991916010120004+64217+027767FM-12+014699999V0202001N001019999999N0000001N9-00281+99999099301ADDGF108991999999999999999999MW1721
0035028970999991916010206004+64217+027767FM-12+014699999V0200901N003119999999N0000001N9-00171+99999098861ADDGF108991999999999999999999MW1721
0035028970999991916010213004+64217+027767FM-12+014699999V0201401N005119999999N0000001N9-00331+99999098661ADDGF108991999999999999999999MW1721
0035028970999991916010220004+64217+027767FM-12+014699999V0201401N005119999999N0000001N9-00781+99999098621ADDGF108991999999999999999999MW1721
0029028970999991916010306004+64217+027767FM-12+014699999V0200901N003119999999N0000001N9-00501+99999097981ADDGF108991999999999999999999
0035028970999991916010313004+64217+027767FM-12+014699999V0201401N003119999999N0000001N9-00391+99999097541ADDGF108991999999999999999999MW1721
0035028970999991916010320004+64217+027767FM-12+014699999V0201101N003119999999N0000001N9-00281+99999097351ADDGF108991999999999999999999MW1701
0035028970999991916010406004+64217+027767FM-12+014699999V0201401N001019999999N0000001N9-00061+99999097511ADDGF108991999999999999999999MW1721
0035028970999991916010413004+64217+027767FM-12+014699999V0202501N003119999999N0000001N9-00221+99999098031ADDGF108991999999999999999999MW1741
0035028970999991916010420004+64217+027767FM-12+014699999V0202301N001019999999N0000001N9-00331+99999098441ADDGF108991999999999999999999MW1721
0035028970999991916010506004+64217+027767FM-12+014699999V0201801N001019999999N0000001N9-00331+99999098321ADDGF108991999999999999999999MW1721
0035028970999991916010513004+64217+027767FM-12+014699999V0201401N001019999999N0000001N9-00221+99999098061ADDGF108991999999999999999999MW1721
0035028970999991916010520004+64217+027767FM-12+014699999V0200901N005119999999N0000001N9-00171+99999097981ADDGF108991999999999999999999MW1721
0035028970999991916010606004+64217+027767FM-12+014699999V0200901N001019999999N0000001N9-00221+99999097951ADDGF108991999999999999999999MW1721
0029028970999991916010613004+64217+027767FM-12+014699999V0200901N003119999999N0000001N9-00281+99999098101ADDGF108991999999999999999999
0029028970999991916010620004+64217+027767FM-12+014699999V0200901N001019999999N0000001N9-00331+99999098021ADDGF108991999999999999999999
0035028970999991916010706004+64217+027767FM-12+014699999V0201401N001019999999N0000001N9-00221+99999097701ADDGF108991999999999999999999MW1721
0035028970999991916010713004+64217+027767FM-12+014699999V0201401N001019999999N0000001N9-00221+99999097641ADDGF108991999999999999999999MW1721
0035028970999991916010720004+64217+027767FM-12+014699999V0200901N001019999999N0000001N9-00221+99999097631ADDGF108991999999999999999999MW1721
0035028970999991916010806004+64217+027767FM-12+014699999V0200901N001019999999N0000001N9-00391+99999097761ADDGF108991999999999999999999MW1721
0029028970999991916010813004+64217+027767FM-12+014699999V0200701N001019999999N0000001N9-00391+99999098021ADDGF108991999999999999999999
0029028970999991916010820004+64217+027767FM-12+014699999V0200501N001019999999N0000001N9-00671+99999098311ADDGF107991999999999999999999
0029028970999991916010906004+64217+027767FM-12+014699999V0200501N001019999999N0000001N9-00611+99999098751ADDGF108991999999999999999999
0029028970999991916010913004+64217+027767FM-12+014699999V0200701N001019999999N0000001N9-00611+99999098921ADDGF108991999999999999999999
0029028970999991916010920004+64217+027767FM-12+014699999V0200501N001019999999N0000001N9-00721+99999098871ADDGF108991999999999999999999
0029028970999991916011006004+64217+027767FM-12+014699999V0200701N001019999999N0000001N9-00721+99999098061ADDGF108991999999999999999999
0029028970999991916011013004+64217+027767FM-12+014699999V0201401N004119999999N0000001N9-00671+99999097271ADDGF108991999999999999999999
0035028970999991916011020004+64217+027767FM-12+014699999V0200901N003119999999N0000001N9-00721+99999096661ADDGF108991999999999999999999MW1721
0035028970999991916011106004+64217+027767FM-12+014699999V0201101N005119999999N0000001N9-00891+99999096381ADDGF107991999999999999999999MW1701
0035028970999991916011113004+64217+027767FM-12+014699999V0200501N005119999999N0000001N9-00891+99999096641ADDGF108991999999999999999999MW1701
0035028970999991916011120004+64217+027767FM-12+014699999V0200701N007219999999N0000001N9-00941+99999097361ADDGF108991999999999999999999MW1701
0029028970999991916011206004+64217+027767FM-12+014699999V0200701N001019999999N0000001N9-01331+99999098221ADDGF107991999999999999999999
0029028970999991916011213004+64217+027767FM-12+014699999V0203401N003119999999N0000001N9-01561+99999098591ADDGF103991999999999999999999
0029028970999991916011220004+64217+027767FM-12+014699999V0202901N001019999999N0000001N9-02331+99999098761ADDGF100991999999999999999999
0029028970999991916011306004+64217+027767FM-12+014699999V0203201N001019999999N0000001N9-01891+99999098741ADDGF108991999999999999999999
0029028970999991916011313004+64217+027767FM-12+014699999V0202701N003119999999N0000001N9-02171+99999098901ADDGF100991999999999999999999
0029028970999991916011320004+64217+027767FM-12+014699999V0201401N001019999999N0000001N9-02891+99999099111ADDGF100991999999999999999999
0029028970999991916011406004+64217+027767FM-12+014699999V0202301N001019999999N0000001N9-02331+99999099271ADDGF108991999999999999999999
0035028970999991916011413004+64217+027767FM-12+014699999V0202301N001019999999N0000001N9-01891+99999099351ADDGF108991999999999999999999MW1701
0029028970999991916011420004+64217+027767FM-12+014699999V0202501N003119999999N0000001N9-01721+99999099221ADDGF108991999999999999999999
0029028970999991916011506004+64217+027767FM-12+014699999V0201401N003119999999N0000001N9-02001+99999098951ADDGF104991999999999999999999
0029028970999991916011513004+64217+027767FM-12+014699999V0201401N008719999999N0000001N9-01831+99999098461ADDGF106991999999999999999999
0029028970999991916011520004+64217+027767FM-12+014699999V0200901N008719999999N0000001N9-02001+99999097551ADDGF108991999999999999999999
0029028970999991916011606004+64217+027767FM-12+014699999V0200701N005119999999N0000001N9-01781+99999096951ADDGF108991999999999999999999
0029028970999991916011613004+64217+027767FM-12+014699999V0200501N007219999999N0000001N9-01891+99999097181ADDGF108991999999999999999999
0029028970999991916011620004+64217+027767FM-12+014699999V0200201N005119999999N0000001N9-01941+99999097541ADDGF108991999999999999999999
0029028970999991916011706004+64217+027767FM-12+014699999V0202901N003119999999N0000001N9-02331+99999098111ADDGF104991999999999999999999
0029028970999991916011713004+64217+027767FM-12+014699999V0203201N003119999999N0000001N9-02561+99999098631ADDGF101991999999999999999999
0029028970999991916011720004+64217+027767FM-12+014699999V0202701N003119999999N0000001N9-02671+99999098991ADDGF100991999999999999999999
0029028970999991916011806004+64217+027767FM-12+014699999V0202901N001019999999N0000001N9-02281+99999099161ADDGF107991999999999999999999
0029028970999991916011813004+64217+027767FM-12+014699999V0200201N001019999999N0000001N9-01671+99999099061ADDGF106991999999999999999999
0029028970999991916011820004+64217+027767FM-12+014699999V0202701N001019999999N0000001N9-01561+99999099161ADDGF108991999999999999999999
0029028970999991916011906004+64217+027767FM-12+014699999V0202301N001019999999N0000001N9-01391+99999098881ADDGF107991999999999999999999
0035028970999991916011913004+64217+027767FM-12+014699999V0202001N003119999999N0000001N9-00941+99999098381ADDGF108991999999999999999999MW1701
0029028970999991916011920004+64217+027767FM-12+014699999V0202501N001019999999N0000001N9-00391+99999098111ADDGF108991999999999999999999
0029028970999991916012006004+64217+027767FM-12+014699999V0202301N001019999999N0000001N9-00221+99999097681ADDGF108991999999999999999999
0035028970999991916012013004+64217+027767FM-12+014699999V0201601N007219999999N0000001N9-00061+99999096841ADDGF108991999999999999999999MW1721
0029028970999991916012020004+64217+027767FM-12+014699999V0202501N007219999999N0000001N9+00111+99999096601ADDGF108991999999999999999999
0029028970999991916012106004+64217+027767FM-12+014699999V0202301N001019999999N0000001N9+00061+99999097001ADDGF108991999999999999999999
0029028970999991916012113004+64217+027767FM-12+014699999V0202301N003119999999N0000001N9-00061+99999097391ADDGF105991999999999999999999
0029028970999991916012120004+64217+027767FM-12+014699999V0202301N005119999999N0000001N9-00331+99999097781ADDGF106991999999999999999999
0035028970999991916012206004+64217+027767FM-12+014699999V0201401N007219999999N0000001N9-00221+99999096791ADDGF108991999999999999999999MW1721
0029028970999991916012213004+64217+027767FM-12+014699999V0202501N005119999999N0000001N9-00061+99999096761ADDGF106991999999999999999999
0029028970999991916012220004+64217+027767FM-12+014699999V0202701N005119999999N0000001N9-00111+99999096671ADDGF107991999999999999999999
0029028970999991916012306004+64217+027767FM-12+014699999V0202701N003119999999N0000001N9-00671+99999096751ADDGF101991999999999999999999
0029028970999991916012313004+64217+027767FM-12+014699999V0202501N007219999999N0000001N9-00221+99999097061ADDGF106991999999999999999999
0029028970999991916012320004+64217+027767FM-12+014699999V0202701N007219999999N0000001N9-00221+99999097311ADDGF108991999999999999999999
0029028970999991916012413004+64217+027767FM-12+014699999V0202701N001019999999N0000001N9-01001+99999098351ADDGF108991999999999999999999
0029028970999991916012420004+64217+027767FM-12+014699999V0200901N003119999999N0000001N9-00891+99999097951ADDGF108991999999999999999999
0029028970999991916012506004+64217+027767FM-12+014699999V0201101N001019999999N0000001N9-00781+99999098031ADDGF108991999999999999999999
0029028970999991916012513004+64217+027767FM-12+014699999V0201401N005119999999N0000001N9-00671+99999098041ADDGF108991999999999999999999
0035028970999991916012520004+64217+027767FM-12+014699999V0201601N005119999999N0000001N9-00561+99999097261ADDGF108991999999999999999999MW1721
0035028970999991916012606004+64217+027767FM-12+014699999V0201601N007219999999N0000001N9-00171+99999096271ADDGF108991999999999999999999MW1701
0029028970999991916012613004+64217+027767FM-12+014699999V0202501N005119999999N0000001N9+00061+99999096191ADDGF108991999999999999999999
0029028970999991916012620004+64217+027767FM-12+014699999V0202701N001019999999N0000001N9-00441+99999096361ADDGF100991999999999999999999
0029028970999991916012706004+64217+027767FM-12+014699999V0202901N003119999999N0000001N9-00391+99999096501ADDGF108991999999999999999999
0035028970999991916012713004+64217+027767FM-12+014699999V0203201N007219999999N0000001N9-00281+99999097241ADDGF108991999999999999999999MW1721
0029028970999991916012720004+64217+027767FM-12+014699999V0202901N007219999999N0000001N9-00171+99999097741ADDGF108991999999999999999999
0029028970999991916012806004+64217+027767FM-12+014699999V0203201N005119999999N0000001N9-00831+99999099101ADDGF100991999999999999999999
0029028970999991916012813004+64217+027767FM-12+014699999V0202701N003119999999N0000001N9-00671+99999099481ADDGF106991999999999999999999
0029028970999991916012820004+64217+027767FM-12+014699999V0202701N003119999999N0000001N9-00331+99999099521ADDGF100991999999999999999999
0029028970999991916012906004+64217+027767FM-12+014699999V0202701N003119999999N0000001N9-00281+99999099621ADDGF102991999999999999999999
0029028970999991916012913004+64217+027767FM-12+014699999V0202701N003119999999N0000001N9-00391+99999099821ADDGF105991999999999999999999
0029028970999991916012920004+64217+027767FM-12+014699999V0202501N001019999999N0000001N9-00891+99999099991ADDGF100991999999999999999999
0029028970999991916013006004+64217+027767FM-12+014699999V0202701N001019999999N0000001N9-01061+99999099951ADDGF101991999999999999999999
0029028970999991916013013004+64217+027767FM-12+014699999V0202501N003119999999N0000001N9-00671+99999099901ADDGF104991999999999999999999
0029028970999991916013020004+64217+027767FM-12+014699999V0202501N003119999999N0000001N9-00331+99999099911ADDGF108991999999999999999999
0035028970999991916013106004+64217+027767FM-12+014699999V0202501N001019999999N0000001N9-00391+99999100721ADDGF108991999999999999999999MW1701
0029028970999991916013113004+64217+027767FM-12+014699999V0202301N003119999999N0000001N9-00391+99999100641ADDGF107991999999999999999999
0029028970999991916013120004+64217+027767FM-12+014699999V0202501N003119999999N0000001N9-00111+99999100201ADDGF100991999999999999999999
0029028970999991916020106004+64217+027767FM-12+014699999V0202701N003119999999N0000001N9-00111+99999100071ADDGF103991999999999999999999
0029028970999991916020113004+64217+027767FM-12+014699999V0202701N003119999999N0000001N9+00061+99999100441ADDGF106991999999999999999999
0029028970999991916020120004+64217+027767FM-12+014699999V0202301N007219999999N0000001N9-00171+99999100141ADDGF100991999999999999999999
0029028970999991916020206004+64217+027767FM-12+014699999V0202501N003119999999N0000001N9-00611+99999099481ADDGF107991999999999999999999
0029028970999991916020213004+64217+027767FM-12+014699999V0202301N007219999999N0000001N9-00281+99999099201ADDGF108991999999999999999999
0029028970999991916020220004+64217+027767FM-12+014699999V0202301N005119999999N0000001N9-00171+99999098801ADDGF108991999999999999999999
0029028970999991916020306004+64217+027767FM-12+014699999V0202501N005119999999N0000001N9-00281+99999098361ADDGF108991999999999999999999
0029028970999991916020313004+64217+027767FM-12+014699999V0202301N007219999999N0000001N9-00171+99999098431ADDGF108991999999999999999999
0029028970999991916020320004+64217+027767FM-12+014699999V0202501N005119999999N0000001N9-00171+99999098521ADDGF108991999999999999999999
0029028970999991916020406004+64217+027767FM-12+014699999V0202701N005119999999N0000001N9-00221+99999098701ADDGF108991999999999999999999
0029028970999991916020413004+64217+027767FM-12+014699999V0202501N005119999999N0000001N9-00171+99999098951ADDGF108991999999999999999999
0035028970999991916020420004+64217+027767FM-12+014699999V0202301N003119999999N0000001N9-00061+99999098951ADDGF108991999999999999999999MW1721
0029028970999991916020506004+64217+027767FM-12+014699999V0202301N001019999999N0000001N9-00061+99999099421ADDGF108991999999999999999999
0029028970999991916020513004+64217+027767FM-12+014699999V0202001N003119999999N0000001N9+00001+99999099631ADDGF108991999999999999999999
0029028970999991916020520004+64217+027767FM-12+014699999V0202001N003119999999N0000001N9-00221+99999099591ADDGF102991999999999999999999
0029028970999991916020606004+64217+027767FM-12+014699999V0202001N003119999999N0000001N9-00501+99999099181ADDGF106991999999999999999999
0029028970999991916020613004+64217+027767FM-12+014699999V0202001N007219999999N0000001N9-00561+99999098751ADDGF108991999999999999999999
0029028970999991916020620004+64217+027767FM-12+014699999V0201801N007219999999N0000001N9-00281+99999098271ADDGF108991999999999999999999
0035028970999991916020706004+64217+027767FM-12+014699999V0201601N007219999999N0000001N9-00061+99999097261ADDGF108991999999999999999999MW1721
0029028970999991916020713004+64217+027767FM-12+014699999V0202001N007219999999N0000001N9+00171+99999096921ADDGF107991999999999999999999
0029028970999991916020720004+64217+027767FM-12+014699999V0202301N007219999999N0000001N9+00061+99999097021ADDGF108991999999999999999999
0029028970999991916020806004+64217+027767FM-12+014699999V0202501N005119999999N0000001N9+00061+99999097261ADDGF108991999999999999999999
0029028970999991916020813004+64217+027767FM-12+014699999V0202301N005119999999N0000001N9+00111+99999097461ADDGF108991999999999999999999
0035028970999991916020820004+64217+027767FM-12+014699999V0202001N003119999999N0000001N9-00061+99999097521ADDGF108991999999999999999999MW1721
0035028970999991916020906004+64217+027767FM-12+014699999V0202301N003119999999N0000001N9+00001+99999097721ADDGF108991999999999999999999MW1721
0029028970999991916020913004+64217+027767FM-12+014699999V0202001N005119999999N0000001N9+00061+99999098021ADDGF108991999999999999999999
0029028970999991916020920004+64217+027767FM-12+014699999V0202001N003119999999N0000001N9-00111+99999098231ADDGF107991999999999999999999
0029028970999991916021006004+64217+027767FM-12+014699999V0202501N003119999999N0000001N9-00391+99999098541ADDGF108991999999999999999999
0035028970999991916021013004+64217+027767FM-12+014699999V0202701N003119999999N0000001N9-00671+99999098831ADDGF108991999999999999999999MW1721
0029028970999991916021020004+64217+027767FM-12+014699999V0202901N001019999999N0000001N9-01221+99999099441ADDGF103991999999999999999999
0029028970999991916021106004+64217+027767FM-12+014699999V0202701N001019999999N0000001N9-01171+99999099641ADDGF108991999999999999999999
0035028970999991916021113004+64217+027767FM-12+014699999V0200501N003119999999N0000001N9-00831+99999099551ADDGF108991999999999999999999MW1721
0029028970999991916021120004+64217+027767FM-12+014699999V0200501N003119999999N0000001N9-00831+99999099391ADDGF108991999999999999999999
0029028970999991916021206004+64217+027767FM-12+014699999V0200501N001019999999N0000001N9-00891+99999099471ADDGF108991999999999999999999
0035028970999991916021213004+64217+027767FM-12+014699999V0202701N001019999999N0000001N9-00891+99999099711ADDGF108991999999999999999999MW1701
0029028970999991916021220004+64217+027767FM-12+014699999V0202701N001019999999N0000001N9-00941+99999099861ADDGF108991999999999999999999
0029028970999991916021306004+64217+027767FM-12+014699999V0202001N001019999999N0000001N9-01111+99999099941ADDGF108991999999999999999999
0035028970999991916021313004+64217+027767FM-12+014699999V0201601N001019999999N0000001N9-00831+99999099901ADDGF108991999999999999999999MW1741
0029028970999991916021320004+64217+027767FM-12+014699999V0202301N003119999999N0000001N9-00721+99999099761ADDGF108991999999999999999999
0029028970999991916021406004+64217+027767FM-12+014699999V0201601N003119999999N0000001N9-00501+99999099521ADDGF108991999999999999999999
0029028970999991916021413004+64217+027767FM-12+014699999V0201601N008719999999N0000001N9-00391+99999099341ADDGF107991999999999999999999
0029028970999991916021420004+64217+027767FM-12+014699999V0201401N005119999999N0000001N9-00561+99999099301ADDGF108991999999999999999999
0029028970999991916021506004+64217+027767FM-12+014699999V0201401N003119999999N0000001N9-01001+99999099081ADDGF107991999999999999999999
0035028970999991916021513004+64217+027767FM-12+014699999V0201101N005119999999N0000001N9-00941+99999098781ADDGF107991999999999999999999MW1701
0035028970999991916021520004+64217+027767FM-12+014699999V0200901N003119999999N0000001N9-00941+99999098621ADDGF108991999999999999999999MW1701
0029028970999991916021606004+64217+027767FM-12+014699999V0200901N003119999999N0000001N9-00941+99999098281ADDGF108991999999999999999999
0029028970999991916021613004+64217+027767FM-12+014699999V0200501N007219999999N0000001N9-00891+99999098081ADDGF107991999999999999999999
0035028970999991916021620004+64217+027767FM-12+014699999V0200901N005119999999N0000001N9-01061+99999097801ADDGF108991999999999999999999MW1701
0029028970999991916021706004+64217+027767FM-12+014699999V0200701N005119999999N0000001N9-00831+99999097401ADDGF108991999999999999999999
0029028970999991916021713004+64217+027767FM-12+014699999V0200901N005119999999N0000001N9-00671+99999097261ADDGF107991999999999999999999
0035028970999991916021720004+64217+027767FM-12+014699999V0200501N005119999999N0000001N9-01001+99999096981ADDGF108991999999999999999999MW1721
0029028970999991916021806004+64217+027767FM-12+014699999V0200501N003119999999N0000001N9-00831+99999096701ADDGF108991999999999999999999
0035028970999991916021813004+64217+027767FM-12+014699999V0200901N003119999999N0000001N9-00281+99999096871ADDGF108991999999999999999999MW1721
0035028970999991916021820004+64217+027767FM-12+014699999V0200901N003119999999N0000001N9-00561+99999097101ADDGF108991999999999999999999MW1721
0029028970999991916021906004+64217+027767FM-12+014699999V0202701N003119999999N0000001N9-01331+99999097711ADDGF108991999999999999999999
0035028970999991916021913004+64217+027767FM-12+014699999V0202501N003119999999N0000001N9-01061+99999098361ADDGF108991999999999999999999MW1721
0029028970999991916021920004+64217+027767FM-12+014699999V0202701N003119999999N0000001N9-01501+99999099151ADDGF106991999999999999999999
0029028970999991916022006004+64217+027767FM-12+014699999V0200901N003119999999N0000001N9-02171+99999099521ADDGF106991999999999999999999
0029028970999991916022013004+64217+027767FM-12+014699999V0202701N001019999999N0000001N9-01671+99999099511ADDGF104991999999999999999999
0029028970999991916022020004+64217+027767FM-12+014699999V0202701N001019999999N0000001N9-02281+99999099701ADDGF103991999999999999999999
0029028970999991916022106004+64217+027767FM-12+014699999V0200901N003119999999N0000001N9-02391+99999999999ADDGF108991999999999999999999
0029028970999991916022113004+64217+027767FM-12+014699999V0200701N003119999999N0000001N9-01441+99999100111ADDGF100991999999999999999999
0029028970999991916022120004+64217+027767FM-12+014699999V0200501N003119999999N0000001N9-01781+99999100041ADDGF100991999999999999999999
0029028970999991916022206004+64217+027767FM-12+014699999V0200901N003119999999N0000001N9-02331+99999100201ADDGF104991999999999999999999
0029028970999991916022213004+64217+027767FM-12+014699999V0200901N003119999999N0000001N9-01501+99999100701ADDGF104991999999999999999999
0029028970999991916022220004+64217+027767FM-12+014699999V0200901N003119999999N0000001N9-01671+99999100991ADDGF108991999999999999999999
0035028970999991916022306004+64217+027767FM-12+014699999V0202301N003119999999N0000001N9-00831+99999101161ADDGF108991999999999999999999MW1721
0029028970999991916022313004+64217+027767FM-12+014699999V0202301N007219999999N0000001N9-00331+99999100741ADDGF107991999999999999999999
0029028970999991916022320004+64217+027767FM-12+014699999V0202301N003119999999N0000001N9-00611+99999100391ADDGF108991999999999999999999
0035028970999991916022406004+64217+027767FM-12+014699999V0202301N003119999999N0000001N9-00611+99999100321ADDGF108991999999999999999999MW1721
0035028970999991916022413004+64217+027767FM-12+014699999V0202301N005119999999N0000001N9-00441+99999100501ADDGF108991999999999999999999MW1721
0029028970999991916022420004+64217+027767FM-12+014699999V0202701N001019999999N0000001N9-00501+99999100681ADDGF108991999999999999999999
0029028970999991916022506004+64217+027767FM-12+014699999V0201801N003119999999N0000001N9-00611+99999101031ADDGF108991999999999999999999
0029028970999991916022513004+64217+027767FM-12+014699999V0201801N003119999999N0000001N9-00441+99999101151ADDGF108991999999999999999999
0029028970999991916022520004+64217+027767FM-12+014699999V0201801N003119999999N0000001N9-00611+99999101101ADDGF108991999999999999999999
0035028970999991916022606004+64217+027767FM-12+014699999V0202301N003119999999N0000001N9-00891+99999100901ADDGF108991999999999999999999MW1701
0035028970999991916022613004+64217+027767FM-12+014699999V0202701N003119999999N0000001N9-00781+99999100741ADDGF108991999999999999999999MW1701
0029028970999991916022620004+64217+027767FM-12+014699999V0202701N003119999999N0000001N9-00891+99999101141ADDGF108991999999999999999999
0029028970999991916022706004+64217+027767FM-12+014699999V0200901N005119999999N0000001N9-00891+99999101471ADDGF108991999999999999999999
0029028970999991916022713004+64217+027767FM-12+014699999V0201401N005119999999N0000001N9-00721+99999101351ADDGF108991999999999999999999
0029028970999991916022720004+64217+027767FM-12+014699999V0201401N005119999999N0000001N9-00781+99999101201ADDGF108991999999999999999999
0029028970999991916022806004+64217+027767FM-12+014699999V0201801N003119999999N0000001N9-00721+99999100951ADDGF108991999999999999999999
0035028970999991916022813004+64217+027767FM-12+014699999V0202001N001019999999N0000001N9-00611+99999100801ADDGF108991999999999999999999MW1701
0035028970999991916022820004+64217+027767FM-12+014699999V0202301N003119999999N0000001N9-00611+99999100501ADDGF108991999999999999999999MW1701
0035028970999991916022906004+64217+027767FM-12+014699999V0202001N003119999999N0000001N9-00671+99999999999ADDGF108991999999999999999999MW1701
0035028970999991916022913004+64217+027767FM-12+014699999V0201801N003119999999N0000001N9-00721+99999099661ADDGF108991999999999999999999MW1701
0029028970999991916022920004+64217+027767FM-12+014699999V0201401N005119999999N0000001N9-00671+99999099341ADDGF106991999999999999999999
0035028970999991916030106004+64217+027767FM-12+014699999V0202501N007219999999N0000001N9-00171+99999098921ADDGF108991999999999999999999MW1721
0035028970999991916030113004+64217+027767FM-12+014699999V0202301N008719999999N0000001N9-00111+99999098911ADDGF108991999999999999999999MW1721
0035028970999991916030120004+64217+027767FM-12+014699999V0202301N007219999999N0000001N9-00331+99999098641ADDGF107991999999999999999999MW1721
0029028970999991916030206004+64217+027767FM-12+014699999V0201801N005119999999N0000001N9-00671+99999098511ADDGF108991999999999999999999
0029028970999991916030213004+64217+027767FM-12+014699999V0201801N007219999999N0000001N9-00561+99999098951ADDGF108991999999999999999999
0029028970999991916030220004+64217+027767FM-12+014699999V0201401N005119999999N0000001N9-00941+99999099111ADDGF100991999999999999999999
0035028970999991916030306004+64217+027767FM-12+014699999V0201101N003119999999N0000001N9-00831+99999099181ADDGF108991999999999999999999MW1701
0029028970999991916030313004+64217+027767FM-12+014699999V0201101N005119999999N0000001N9-00441+99999099191ADDGF107991999999999999999999
0029028970999991916030320004+64217+027767FM-12+014699999V0200901N003119999999N0000001N9-00831+99999099221ADDGF102991999999999999999999
0035028970999991916030406004+64217+027767FM-12+014699999V0201601N005119999999N0000001N9-00721+99999099351ADDGF108991999999999999999999MW1701
0035028970999991916030413004+64217+027767FM-12+014699999V0201401N007219999999N0000001N9-00611+99999099561ADDGF108991999999999999999999MW1701
0029028970999991916030420004+64217+027767FM-12+014699999V0201401N003119999999N0000001N9-00441+99999099671ADDGF108991999999999999999999
0029028970999991916030506004+64217+027767FM-12+014699999V0201101N005119999999N0000001N9-00781+99999100061ADDGF100991999999999999999999
0029028970999991916030513004+64217+027767FM-12+014699999V0200901N007219999999N0000001N9-00331+99999100401ADDGF108991999999999999999999
0029028970999991916030520004+64217+027767FM-12+014699999V0200701N003119999999N0000001N9-00891+99999100501ADDGF102991999999999999999999
0029028970999991916030606004+64217+027767FM-12+014699999V0200901N003119999999N0000001N9-01721+99999100841ADDGF100991999999999999999999
0029028970999991916030613004+64217+027767FM-12+014699999V0200701N005119999999N0000001N9-00561+99999101071ADDGF100991999999999999999999
0029028970999991916030620004+64217+027767FM-12+014699999V0200501N003119999999N0000001N9-01441+99999101241ADDGF100991999999999999999999
0029028970999991916030706004+64217+027767FM-12+014699999V0200701N001019999999N0000001N9-01831+99999101601ADDGF100991999999999999999999
0029028970999991916030713004+64217+027767FM-12+014699999V0200901N007219999999N0000001N9-00671+99999101541ADDGF100991999999999999999999
0029028970999991916030720004+64217+027767FM-12+014699999V0200501N001019999999N0000001N9-01171+99999101521ADDGF100991999999999999999999
0029028970999991916030806004+64217+027767FM-12+014699999V0200701N003119999999N0000001N9-01391+99999101661ADDGF107991999999999999999999
0029028970999991916030813004+64217+027767FM-12+014699999V0200701N007219999999N0000001N9-00611+99999101471ADDGF104991999999999999999999
0029028970999991916030820004+64217+027767FM-12+014699999V0200501N001019999999N0000001N9-01441+99999101321ADDGF101991999999999999999999
0029028970999991916030906004+64217+027767FM-12+014699999V0201101N003119999999N0000001N9-01831+99999101071ADDGF103991999999999999999999
0029028970999991916030913004+64217+027767FM-12+014699999V0200901N005119999999N0000001N9-00781+99999100901ADDGF102991999999999999999999
0035028970999991916030920004+64217+027767FM-12+014699999V0201101N003119999999N0000001N9-00891+99999100741ADDGF108991999999999999999999MW1721
0029028970999991916031006004+64217+027767FM-12+014699999V0200901N005119999999N0000001N9-01171+99999100781ADDGF106991999999999999999999
0029028970999991916031013004+64217+027767FM-12+014699999V0200701N005119999999N0000001N9-00721+99999100861ADDGF107991999999999999999999
0029028970999991916031020004+64217+027767FM-12+014699999V0200901N005119999999N0000001N9-00941+99999100991ADDGF107991999999999999999999
0029028970999991916031106004+64217+027767FM-12+014699999V0200501N003119999999N0000001N9-01001+99999101121ADDGF108991999999999999999999
0029028970999991916031113004+64217+027767FM-12+014699999V0200701N007219999999N0000001N9-00671+99999101121ADDGF106991999999999999999999
0035028970999991916031120004+64217+027767FM-12+014699999V0201401N005119999999N0000001N9-00721+99999101101ADDGF108991999999999999999999MW1721
0035028970999991916031206004+64217+027767FM-12+014699999V0200901N003119999999N0000001N9-00891+99999100861ADDGF108991999999999999999999MW1721
0035028970999991916031213004+64217+027767FM-12+014699999V0200901N007219999999N0000001N9-00331+99999100671ADDGF108991999999999999999999MW1721
0035028970999991916031220004+64217+027767FM-12+014699999V0200901N007219999999N0000001N9-00561+99999100521ADDGF108991999999999999999999MW1721
0029028970999991916031306004+64217+027767FM-12+014699999V0201401N003119999999N0000001N9-00611+99999100541ADDGF108991999999999999999999
0029028970999991916031313004+64217+027767FM-12+014699999V0200701N003119999999N0000001N9-00391+99999100541ADDGF108991999999999999999999
0029028970999991916031320004+64217+027767FM-12+014699999V0201101N003119999999N0000001N9-00501+99999100521ADDGF108991999999999999999999
0029028970999991916031406004+64217+027767FM-12+014699999V0200901N003119999999N0000001N9-00561+99999100501ADDGF108991999999999999999999
0029028970999991916031413004+64217+027767FM-12+014699999V0200901N001019999999N0000001N9-00171+99999100471ADDGF108991999999999999999999
0029028970999991916031420004+64217+027767FM-12+014699999V0200901N001019999999N0000001N9-00331+99999100461ADDGF108991999999999999999999
0029028970999991916031506004+64217+027767FM-12+014699999V0203401N005119999999N0000001N9-00501+99999100461ADDGF107991999999999999999999
0029028970999991916031513004+64217+027767FM-12+014699999V0202701N003119999999N0000001N9-00171+99999100781ADDGF102991999999999999999999
0029028970999991916031520004+64217+027767FM-12+014699999V0202901N001019999999N0000001N9-01111+99999100961ADDGF100991999999999999999999
0029028970999991916031606004+64217+027767FM-12+014699999V0201401N003119999999N0000001N9-01831+99999101261ADDGF100991999999999999999999
0029028970999991916031613004+64217+027767FM-12+014699999V0201101N003119999999N0000001N9-00111+99999101161ADDGF102991999999999999999999
0029028970999991916031620004+64217+027767FM-12+014699999V0201401N001019999999N0000001N9-01171+99999101321ADDGF100991999999999999999999
0029028970999991916031706004+64217+027767FM-12+014699999V0201401N003119999999N0000001N9-01891+99999101221ADDGF100991999999999999999999
0029028970999991916031713004+64217+027767FM-12+014699999V0202301N003119999999N0000001N9+00001+99999101021ADDGF100991999999999999999999
0029028970999991916031720004+64217+027767FM-12+014699999V0202001N001019999999N0000001N9-01061+99999100671ADDGF100991999999999999999999
0029028970999991916031806004+64217+027767FM-12+014699999V0202001N003119999999N0000001N9-00831+99999100641ADDGF108991999999999999999999
0035028970999991916031813004+64217+027767FM-12+014699999V0202001N003119999999N0000001N9-00391+99999100751ADDGF108991999999999999999999MW1701
0029028970999991916031820004+64217+027767FM-12+014699999V0202001N001019999999N0000001N9-00391+99999100761ADDGF108991999999999999999999
0035028970999991916031906004+64217+027767FM-12+014699999V0201801N003119999999N0000001N9-00501+99999100391ADDGF108991999999999999999999MW1721
0035028970999991916031913004+64217+027767FM-12+014699999V0202701N001019999999N0000001N9-00171+99999099911ADDGF108991999999999999999999MW1721
0035028970999991916031920004+64217+027767FM-12+014699999V0202501N001019999999N0000001N9-00501+99999099861ADDGF108991999999999999999999MW1721
0029028970999991916032006004+64217+027767FM-12+014699999V0203201N001019999999N0000001N9-00561+99999099941ADDGF108991999999999999999999
0035028970999991916032013004+64217+027767FM-12+014699999V0200501N005119999999N0000001N9-00721+99999100271ADDGF106991999999999999999999MW1701
0029028970999991916032020004+64217+027767FM-12+014699999V0200501N003119999999N0000001N9-01441+99999100641ADDGF102991999999999999999999
0029028970999991916032106004+64217+027767FM-12+014699999V0200701N005119999999N0000001N9-02221+99999100871ADDGF102991999999999999999999
0029028970999991916032113004+64217+027767FM-12+014699999V0200701N007219999999N0000001N9-01221+99999100871ADDGF100991999999999999999999
0029028970999991916032120004+64217+027767FM-12+014699999V0200901N001019999999N0000001N9-02171+99999100741ADDGF100991999999999999999999
0029028970999991916032206004+64217+027767FM-12+014699999V0201401N003119999999N0000001N9-02781+99999100361ADDGF100991999999999999999999
0029028970999991916032213004+64217+027767FM-12+014699999V0201101N003119999999N0000001N9-01111+99999099881ADDGF100991999999999999999999
0029028970999991916032220004+64217+027767FM-12+014699999V0200901N001019999999N0000001N9-01671+99999099321ADDGF100991999999999999999999
0029028970999991916032306004+64217+027767FM-12+014699999V0200501N003119999999N0000001N9-01721+99999098641ADDGF100991999999999999999999
0029028970999991916032313004+64217+027767FM-12+014699999V0200201N007219999999N0000001N9-00831+99999098351ADDGF103991999999999999999999
0029028970999991916032320004+64217+027767FM-12+014699999V0200501N001019999999N0000001N9-01501+99999098471ADDGF100991999999999999999999
0029028970999991916032406004+64217+027767FM-12+014699999V0201101N003119999999N0000001N9-02171+99999098951ADDGF100991999999999999999999
0029028970999991916032413004+64217+027767FM-12+014699999V0200901N003119999999N0000001N9-00891+99999099281ADDGF102991999999999999999999
0029028970999991916032420004+64217+027767FM-12+014699999V0200901N001019999999N0000001N9-01331+99999099461ADDGF100991999999999999999999
0029028970999991916032506004+64217+027767FM-12+014699999V0200901N003119999999N0000001N9-01441+99999099441ADDGF108991999999999999999999
0035028970999991916032513004+64217+027767FM-12+014699999V0200701N007219999999N0000001N9-01061+99999098861ADDGF108991999999999999999999MW1721
0035028970999991916032520004+64217+027767FM-12+014699999V0200901N008719999999N0000001N9-00941+99999097881ADDGF108991999999999999999999MW1721
0035028970999991916032606004+64217+027767FM-12+014699999V0202001N007219999999N0000001N9-00721+99999097301ADDGF108991999999999999999999MW1721
0029028970999991916032613004+64217+027767FM-12+014699999V0202301N008719999999N0000001N9-00891+99999098441ADDGF107991999999999999999999
0035028970999991916032620004+64217+027767FM-12+014699999V0202701N005119999999N0000001N9-00671+99999098941ADDGF108991999999999999999999MW1721
0029028970999991916032706004+64217+027767FM-12+014699999V0202001N008719999999N0000001N9-00061+99999098941ADDGF108991999999999999999999
0029028970999991916032713004+64217+027767FM-12+014699999V0201401N011819999999N0000001N9+00331+99999098701ADDGF107991999999999999999999
0035028970999991916032720004+64217+027767FM-12+014699999V0201101N007219999999N0000001N9-00171+99999098241ADDGF108991999999999999999999MW1721
0029028970999991916032806004+64217+027767FM-12+014699999V0202301N005119999999N0000001N9-00061+99999097821ADDGF104991999999999999999999
0035028970999991916032813004+64217+027767FM-12+014699999V0202301N008719999999N0000001N9+00221+99999098191ADDGF108991999999999999999999MW1721
0035028970999991916032820004+64217+027767FM-12+014699999V0202001N005119999999N0000001N9+00221+99999098901ADDGF108991999999999999999999MW1721
0035028970999991916032906004+64217+027767FM-12+014699999V0201101N003119999999N0000001N9+00111+99999099511ADDGF108991999999999999999999MW1721
0029028970999991916032913004+64217+027767FM-12+014699999V0201401N007219999999N0000001N9+00391+99999099421ADDGF108991999999999999999999
0029028970999991916032920004+64217+027767FM-12+014699999V0201601N008719999999N0000001N9+00281+99999099201ADDGF102991999999999999999999
0029028970999991916033006004+64217+027767FM-12+014699999V0201601N003119999999N0000001N9+00171+99999099151ADDGF108991999999999999999999
0029028970999991916033013004+64217+027767FM-12+014699999V0201801N007219999999N0000001N9+00441+99999099021ADDGF107991999999999999999999
0035028970999991916033020004+64217+027767FM-12+014699999V0202501N008719999999N0000001N9+00061+99999099081ADDGF108991999999999999999999MW1721
0029028970999991916033106004+64217+027767FM-12+014699999V0201401N007219999999N0000001N9-00171+99999099301ADDGF108991999999999999999999
0035028970999991916033113004+64217+027767FM-12+014699999V0202001N005119999999N0000001N9+00171+99999098841ADDGF108991999999999999999999MW1721
0035028970999991916033120004+64217+027767FM-12+014699999V0202501N003119999999N0000001N9+00061+99999098461ADDGF108991999999999999999999MW1741
0035028970999991916040106004+64217+027767FM-12+014699999V0202301N001019999999N0000001N9+00001+99999098141ADDGF108991999999999999999999MW1721
0029028970999991916040113004+64217+027767FM-12+014699999V0203201N008719999999N0000001N9-00221+99999098871ADDGF108991999999999999999999
0029028970999991916040120004+64217+027767FM-12+014699999V0202901N001019999999N0000001N9-00501+99999099751ADDGF108991999999999999999999
0029028970999991916040206004+64217+027767FM-12+014699999V0203401N001019999999N0000001N9-01171+99999100421ADDGF106991999999999999999999
0029028970999991916040213004+64217+027767FM-12+014699999V0202001N005119999999N0000001N9-00331+99999099781ADDGF108991999999999999999999
0035028970999991916040220004+64217+027767FM-12+014699999V0202001N003119999999N0000001N9-00441+99999099181ADDGF108991999999999999999999MW1721
0029028970999991916040306004+64217+027767FM-12+014699999V0203201N003119999999N0000001N9-00391+99999099391ADDGF108991999999999999999999
0029028970999991916040313004+64217+027767FM-12+014699999V0202901N003119999999N0000001N9-00111+99999099671ADDGF106991999999999999999999
0029028970999991916040320004+64217+027767FM-12+014699999V0202701N001019999999N0000001N9-00281+99999099561ADDGF108991999999999999999999
0029028970999991916040406004+64217+027767FM-12+014699999V0201801N001019999999N0000001N9+00171+99999098741ADDGF104991999999999999999999
0029028970999991916040413004+64217+027767FM-12+014699999V0202301N003119999999N0000001N9+00891+99999098321ADDGF103991999999999999999999
0029028970999991916040420004+64217+027767FM-12+014699999V0202301N001019999999N0000001N9+00221+99999098271ADDGF106991999999999999999999
0035028970999991916040506004+64217+027767FM-12+014699999V0202501N001019999999N0000001N9+00111+99999098501ADDGF108991999999999999999999MW1721
0035028970999991916040513004+64217+027767FM-12+014699999V0200501N005119999999N0000001N9-00331+99999098881ADDGF108991999999999999999999MW1741
0035028970999991916040520004+64217+027767FM-12+014699999V0200901N003119999999N0000001N9-00721+99999099161ADDGF108991999999999999999999MW1721
0035028970999991916040606004+64217+027767FM-12+014699999V0203201N007219999999N0000001N9-00891+99999099641ADDGF107991999999999999999999MW1701
0029028970999991916040613004+64217+027767FM-12+014699999V0203401N007219999999N0000001N9-00611+99999100241ADDGF107991999999999999999999
0029028970999991916040620004+64217+027767FM-12+014699999V0203201N001019999999N0000001N9-01281+99999100831ADDGF100991999999999999999999
0029028970999991916040706004+64217+027767FM-12+014699999V0202701N001019999999N0000001N9-01331+99999101581ADDGF100991999999999999999999
0029028970999991916040713004+64217+027767FM-12+014699999V0202701N003119999999N0000001N9+00221+99999101681ADDGF100991999999999999999999
0029028970999991916040720004+64217+027767FM-12+014699999V0209991C000019999999N0000001N9-00281+99999101671ADDGF100991999999999999999999
0029028970999991916040806004+64217+027767FM-12+014699999V0202301N007219999999N0000001N9-00391+99999101481ADDGF100991999999999999999999
0029028970999991916040813004+64217+027767FM-12+014699999V0201801N008719999999N0000001N9+00221+99999101081ADDGF103991999999999999999999
0029028970999991916040820004+64217+027767FM-12+014699999V0202501N007219999999N0000001N9-00221+99999100471ADDGF106991999999999999999999
0029028970999991916040906004+64217+027767FM-12+014699999V0202001N008719999999N0000001N9-00391+99999099601ADDGF107991999999999999999999
0029028970999991916040913004+64217+027767FM-12+014699999V0201801N011819999999N0000001N9+00111+99999099111ADDGF108991999999999999999999
0029028970999991916040920004+64217+027767FM-12+014699999V0201601N008719999999N0000001N9+00111+99999098711ADDGF108991999999999999999999
0035028970999991916041006004+64217+027767FM-12+014699999V0201601N003119999999N0000001N9+00001+99999098381ADDGF108991999999999999999999MW1721
0035028970999991916041013004+64217+027767FM-12+014699999V0201801N005119999999N0000001N9+00221+99999098461ADDGF108991999999999999999999MW1721
0035028970999991916041020004+64217+027767FM-12+014699999V0201401N003119999999N0000001N9+00001+99999098751ADDGF108991999999999999999999MW1721
0029028970999991916041106004+64217+027767FM-12+014699999V0200901N005119999999N0000001N9-00281+99999098661ADDGF104991999999999999999999
0029028970999991916041113004+64217+027767FM-12+014699999V0200701N007219999999N0000001N9+00501+99999098721ADDGF105991999999999999999999
0029028970999991916041120004+64217+027767FM-12+014699999V0200701N003119999999N0000001N9-00111+99999098841ADDGF105991999999999999999999
0029028970999991916041206004+64217+027767FM-12+014699999V0200901N003119999999N0000001N9-00061+99999098951ADDGF107991999999999999999999
0029028970999991916041213004+64217+027767FM-12+014699999V0201401N005119999999N0000001N9+00671+99999098831ADDGF103991999999999999999999
0035028970999991916041220004+64217+027767FM-12+014699999V0201401N005119999999N0000001N9+00171+99999098741ADDGF108991999999999999999999MW1621
0029028970999991916041306004+64217+027767FM-12+014699999V0201401N007219999999N0000001N9+00111+99999098871ADDGF108991999999999999999999
0029028970999991916041313004+64217+027767FM-12+014699999V0200701N007219999999N0000001N9+00611+99999098821ADDGF107991999999999999999999
0029028970999991916041320004+64217+027767FM-12+014699999V0201101N003119999999N0000001N9+00391+99999098791ADDGF108991999999999999999999
0029028970999991916041406004+64217+027767FM-12+014699999V0200701N005119999999N0000001N9+00061+99999098671ADDGF107991999999999999999999
0029028970999991916041413004+64217+027767FM-12+014699999V0200501N005119999999N0000001N9+00391+99999098481ADDGF108991999999999999999999
0029028970999991916041420004+64217+027767FM-12+014699999V0200901N007219999999N0000001N9+00221+99999098631ADDGF108991999999999999999999
0029028970999991916041506004+64217+027767FM-12+014699999V0200501N005119999999N0000001N9-00111+99999099111ADDGF108991999999999999999999
0029028970999991916041513004+64217+027767FM-12+014699999V0200501N005119999999N0000001N9+00221+99999099391ADDGF107991999999999999999999
0029028970999991916041520004+64217+027767FM-12+014699999V0200701N003119999999N0000001N9-00171+99999099681ADDGF102991999999999999999999
0029028970999991916041606004+64217+027767FM-12+014699999V0200501N003119999999N0000001N9-00221+99999100031ADDGF108991999999999999999999
0029028970999991916041613004+64217+027767FM-12+014699999V0203201N003119999999N0000001N9+00331+99999100081ADDGF106991999999999999999999
0029028970999991916041620004+64217+027767FM-12+014699999V0200501N001019999999N0000001N9+00111+99999100111ADDGF108991999999999999999999
0029028970999991916041706004+64217+027767FM-12+014699999V0200701N003119999999N0000001N9-00441+99999100041ADDGF108991999999999999999999
0029028970999991916041713004+64217+027767FM-12+014699999V0200901N005119999999N0000001N9-00171+99999099911ADDGF108991999999999999999999
0029028970999991916041720004+64217+027767FM-12+014699999V0200901N007219999999N0000001N9-00501+99999099791ADDGF108991999999999999999999
0035028970999991916041806004+64217+027767FM-12+014699999V0200701N007219999999N0000001N9-00941+99999099561ADDGF108991999999999999999999MW1721
0035028970999991916041813004+64217+027767FM-12+014699999V0200501N007219999999N0000001N9-00501+99999099431ADDGF108991999999999999999999MW1721
0029028970999991916041820004+64217+027767FM-12+014699999V0200701N007219999999N0000001N9-00781+99999099401ADDGF107991999999999999999999
0029028970999991916041906004+64217+027767FM-12+014699999V0200701N003119999999N0000001N9-00891+99999099361ADDGF108991999999999999999999
0029028970999991916041913004+64217+027767FM-12+014699999V0201401N003119999999N0000001N9-00281+99999099401ADDGF108991999999999999999999
0029028970999991916041920004+64217+027767FM-12+014699999V0201101N001019999999N0000001N9-00441+99999099441ADDGF102991999999999999999999
0029028970999991916042006004+64217+027767FM-12+014699999V0200701N003119999999N0000001N9-00561+99999099641ADDGF108991999999999999999999
0029028970999991916042013004+64217+027767FM-12+014699999V0200701N005119999999N0000001N9+00561+99999099701ADDGF102991999999999999999999
0029028970999991916042020004+64217+027767FM-12+014699999V0200701N001019999999N0000001N9+00221+99999099801ADDGF104991999999999999999999
0029028970999991916042106004+64217+027767FM-12+014699999V0200501N003119999999N0000001N9+00171+99999099801ADDGF108991999999999999999999
0029028970999991916042113004+64217+027767FM-12+014699999V0201101N005119999999N0000001N9+00941+99999099701ADDGF106991999999999999999999
0029028970999991916042120004+64217+027767FM-12+014699999V0200901N007219999999N0000001N9+00671+99999099351ADDGF108991999999999999999999
0035028970999991916042206004+64217+027767FM-12+014699999V0200901N003119999999N0000001N9+00171+99999098741ADDGF108991999999999999999999MW1621
0029028970999991916042213004+64217+027767FM-12+014699999V0202001N005119999999N0000001N9+00441+99999099181ADDGF107991999999999999999999
0029028970999991916042220004+64217+027767FM-12+014699999V0201801N003119999999N0000001N9+00001+99999099631ADDGF102991999999999999999999
0029028970999991916042306004+64217+027767FM-12+014699999V0200501N003119999999N0000001N9+00281+99999100121ADDGF107991999999999999999999
0029028970999991916042313004+64217+027767FM-12+014699999V0202001N005119999999N0000001N9+01171+99999100341ADDGF100991999999999999999999
0029028970999991916042320004+64217+027767FM-12+014699999V0201601N005119999999N0000001N9+00561+99999100481ADDGF100991999999999999999999
0029028970999991916042406004+64217+027767FM-12+014699999V0201601N005119999999N0000001N9+00331+99999100761ADDGF108991999999999999999999
0029028970999991916042413004+64217+027767FM-12+014699999V0201601N007219999999N0000001N9+00561+99999100981ADDGF108991999999999999999999
0029028970999991916042420004+64217+027767FM-12+014699999V0201601N003119999999N0000001N9+00281+99999101201ADDGF108991999999999999999999
0035028970999991916042506004+64217+027767FM-12+014699999V0201601N005119999999N0000001N9+00331+99999101241ADDGF108991999999999999999999MW1601
0029028970999991916042513004+64217+027767FM-12+014699999V0201801N008719999999N0000001N9+01441+99999101081ADDGF102991999999999999999999
0029028970999991916042520004+64217+027767FM-12+014699999V0201801N004119999999N0000001N9+01111+99999100951ADDGF106991999999999999999999
0029028970999991916042606004+64217+027767FM-12+014699999V0202301N007219999999N0000001N9+00891+99999100711ADDGF102991999999999999999999
0035028970999991916042613004+64217+027767FM-12+014699999V0202301N005119999999N0000001N9+00721+99999100841ADDGF108991999999999999999999MW1621
0029028970999991916042620004+64217+027767FM-12+014699999V0202501N003119999999N0000001N9+00501+99999100951ADDGF103991999999999999999999
0029028970999991916042706004+64217+027767FM-12+014699999V0202701N005119999999N0000001N9+00331+99999101201ADDGF102991999999999999999999
0029028970999991916042713004+64217+027767FM-12+014699999V0202701N007219999999N0000001N9+00721+99999101431ADDGF102991999999999999999999
0029028970999991916042720004+64217+027767FM-12+014699999V0202901N001019999999N0000001N9-00111+99999101561ADDGF103991999999999999999999
0046028970999991916042806004+64217+027767FM-12+014699999V0202901N003119999999N0000001N9+00061+99999101521ADDAJ100009199999999GF108991999999999999999999
0035028970999991916042813004+64217+027767FM-12+014699999V0201401N003119999999N0000001N9+00441+99999101181ADDGF108991999999999999999999MW1621
0035028970999991916042820004+64217+027767FM-12+014699999V0201401N001019999999N0000001N9+00391+99999100711ADDGF108991999999999999999999MW1621
0046028970999991916042906004+64217+027767FM-12+014699999V0202701N001019999999N0000001N9+00391+99999100271ADDAJ100009199999999GF108991999999999999999999
0029028970999991916042913004+64217+027767FM-12+014699999V0202701N003119999999N0000001N9+00671+99999100281ADDGF108991999999999999999999
0029028970999991916042920004+64217+027767FM-12+014699999V0202901N001019999999N0000001N9+00171+99999100031ADDGF100991999999999999999999
0046028970999991916043006004+64217+027767FM-12+014699999V0202701N003119999999N0000001N9+00391+99999099951ADDAJ100009199999999GF100991999999999999999999
0029028970999991916043013004+64217+027767FM-12+014699999V0203201N005119999999N0000001N9+01001+99999099941ADDGF100991999999999999999999
0029028970999991916043020004+64217+027767FM-12+014699999V0202701N003119999999N0000001N9+00171+99999099751ADDGF102991999999999999999999
0046028970999991916050106004+64217+027767FM-12+014699999V0202701N003119999999N0000001N9+00441+99999099591ADDAJ100009199999999GF100991999999999999999999
0029028970999991916050113004+64217+027767FM-12+014699999V0202701N003119999999N0000001N9+01001+99999099501ADDGF106991999999999999999999
0029028970999991916050120004+64217+027767FM-12+014699999V0200901N005119999999N0000001N9+00611+99999099141ADDGF108991999999999999999999
0052028970999991916050206004+64217+027767FM-12+014699999V0200501N005119999999N0000001N9+00441+99999097981ADDAJ100009199999999GF108991999999999999999999MW1621
0029028970999991916050213004+64217+027767FM-12+014699999V0202501N007219999999N0000001N9+00941+99999097561ADDGF106991999999999999999999
0035028970999991916050220004+64217+027767FM-12+014699999V0202001N003119999999N0000001N9+00061+99999097681ADDGF108991999999999999999999MW1721
0035028970999991916050306004+64217+027767FM-12+014699999V0202701N008719999999N0000001N9-00281+99999098391ADDGF108991999999999999999999MW1721
0029028970999991916050313004+64217+027767FM-12+014699999V0202901N011819999999N0000001N9-00061+99999099111ADDGF107991999999999999999999
0029028970999991916050320004+64217+027767FM-12+014699999V0202701N008719999999N0000001N9-00171+99999099671ADDGF106991999999999999999999
0029028970999991916050406004+64217+027767FM-12+014699999V0202701N003119999999N0000001N9-00111+99999100111ADDGF100991999999999999999999
0029028970999991916050413004+64217+027767FM-12+014699999V0203201N003119999999N0000001N9+00501+99999099901ADDGF107991999999999999999999
0029028970999991916050420004+64217+027767FM-12+014699999V0200901N003119999999N0000001N9+00111+99999099521ADDGF108991999999999999999999
0046028970999991916050506004+64217+027767FM-12+014699999V0200901N003119999999N0000001N9+00001+99999099481ADDAJ100009199999999GF108991999999999999999999
0035028970999991916050513004+64217+027767FM-12+014699999V0201401N001019999999N0000001N9+00441+99999099681ADDGF107991999999999999999999MW1721
0029028970999991916050520004+64217+027767FM-12+014699999V0201401N001019999999N0000001N9+00171+99999099761ADDGF108991999999999999999999
0046028970999991916050606004+64217+027767FM-12+014699999V0200701N005119999999N0000001N9+00331+99999099961ADDAJ100009199999999GF108991999999999999999999
0029028970999991916050613004+64217+027767FM-12+014699999V0200901N005119999999N0000001N9+00941+99999099961ADDGF107991999999999999999999
0029028970999991916050620004+64217+027767FM-12+014699999V0200901N001019999999N0000001N9+00671+99999099951ADDGF108991999999999999999999
0046028970999991916050706004+64217+027767FM-12+014699999V0200701N005119999999N0000001N9+00561+99999099941ADDAJ100009199999999GF108991999999999999999999
0029028970999991916050713004+64217+027767FM-12+014699999V0200701N007219999999N0000001N9+01281+99999099991ADDGF106991999999999999999999
0029028970999991916050720004+64217+027767FM-12+014699999V0200901N003119999999N0000001N9+01171+99999100101ADDGF106991999999999999999999
0046028970999991916050806004+64217+027767FM-12+014699999V0201601N007219999999N0000001N9+01061+99999100421ADDAJ100009199999999GF106991999999999999999999
0029028970999991916050813004+64217+027767FM-12+014699999V0201401N005119999999N0000001N9+01891+99999100421ADDGF105991999999999999999999
0029028970999991916050820004+64217+027767FM-12+014699999V0202301N003119999999N0000001N9+01111+99999100341ADDGF103991999999999999999999
0046028970999991916050906004+64217+027767FM-12+014699999V0202301N003119999999N0000001N9+01501+99999100151ADDAJ100009199999999GF106991999999999999999999
0029028970999991916050913004+64217+027767FM-12+014699999V0202701N003119999999N0000001N9+02221+99999099801ADDGF103991999999999999999999
0029028970999991916050920004+64217+027767FM-12+014699999V0200701N007219999999N0000001N9+00941+99999099711ADDGF106991999999999999999999
0046028970999991916051006004+64217+027767FM-12+014699999V0200501N005119999999N0000001N9+00111+99999099681ADDAJ100009199999999GF108991999999999999999999
0029028970999991916051013004+64217+027767FM-12+014699999V0200201N007219999999N0000001N9+00221+99999099751ADDGF108991999999999999999999
0029028970999991916051020004+64217+027767FM-12+014699999V0200501N005119999999N0000001N9+00001+99999099701ADDGF106991999999999999999999
0046028970999991916051106004+64217+027767FM-12+014699999V0200501N007219999999N0000001N9-00441+99999099781ADDAJ100009199999999GF106991999999999999999999
0029028970999991916051113004+64217+027767FM-12+014699999V0200201N008719999999N0000001N9-00221+99999099951ADDGF103991999999999999999999
0029028970999991916051120004+64217+027767FM-12+014699999V0200201N008719999999N0000001N9-00441+99999100161ADDGF108991999999999999999999
0029028970999991916051213004+64217+027767FM-12+014699999V0200701N008719999999N0000001N9-00171+99999099911ADDGF105991999999999999999999
0029028970999991916051220004+64217+027767FM-12+014699999V0200501N007219999999N0000001N9-00331+99999099831ADDGF108991999999999999999999
0046028970999991916051306004+64217+027767FM-12+014699999V0200501N005119999999N0000001N9-00391+99999099321ADDAJ100009199999999GF108991999999999999999999
0029028970999991916051313004+64217+027767FM-12+014699999V0200501N005119999999N0000001N9+00061+99999099031ADDGF108991999999999999999999
0029028970999991916051320004+64217+027767FM-12+014699999V0200501N003119999999N0000001N9+00001+99999098801ADDGF108991999999999999999999
0046028970999991916051406004+64217+027767FM-12+014699999V0200501N003119999999N0000001N9-00061+99999098671ADDAJ100009199999999GF107991999999999999999999
0035028970999991916051413004+64217+027767FM-12+014699999V0202501N003119999999N0000001N9+00171+99999098721ADDGF108991999999999999999999MW1721
0029028970999991916051420004+64217+027767FM-12+014699999V0202501N001019999999N0000001N9+00061+99999098801ADDGF108991999999999999999999
0046028970999991916051506004+64217+027767FM-12+014699999V0202501N003119999999N0000001N9+00171+99999098981ADDAJ100009199999999GF108991999999999999999999
0029028970999991916051513004+64217+027767FM-12+014699999V0201601N005119999999N0000001N9+00441+99999099081ADDGF108991999999999999999999
0035028970999991916051520004+64217+027767FM-12+014699999V0201401N003119999999N0000001N9+00501+99999099071ADDGF108991999999999999999999MW1601
0052028970999991916051606004+64217+027767FM-12+014699999V0201401N003119999999N0000001N9+00671+99999098711ADDAJ100009199999999GF108991999999999999999999MW1621
0029028970999991916051613004+64217+027767FM-12+014699999V0200901N005119999999N0000001N9+00781+99999098421ADDGF108991999999999999999999
0029028970999991916051620004+64217+027767FM-12+014699999V0200701N005119999999N0000001N9+00781+99999097981ADDGF108991999999999999999999
0052028970999991916051706004+64217+027767FM-12+014699999V0201401N005119999999N0000001N9+00721+99999097501ADDAJ100009199999999GF107991999999999999999999MW1621
0029028970999991916051713004+64217+027767FM-12+014699999V0202001N005119999999N0000001N9+00611+99999097581ADDGF108991999999999999999999
0035028970999991916051720004+64217+027767FM-12+014699999V0202501N008719999999N0000001N9+00391+99999097821ADDGF108991999999999999999999MW1621
0052028970999991916051806004+64217+027767FM-12+014699999V0201401N007219999999N0000001N9+00281+99999097591ADDAJ100009199999999GF108991999999999999999999MW1621
0035028970999991916051813004+64217+027767FM-12+014699999V0201801N005119999999N0000001N9+00501+99999097641ADDGF107991999999999999999999MW1601
0029028970999991916051820004+64217+027767FM-12+014699999V0200501N003119999999N0000001N9+00331+99999098031ADDGF106991999999999999999999
0052028970999991916051906004+64217+027767FM-12+014699999V0203201N005119999999N0000001N9+00171+99999098541ADDAJ100009199999999GF107991999999999999999999MW1721
0035028970999991916051913004+64217+027767FM-12+014699999V0203601N007219999999N0000001N9+00111+99999099261ADDGF108991999999999999999999MW1721
0029028970999991916051920004+64217+027767FM-12+014699999V0203601N007219999999N0000001N9-00111+99999099781ADDGF108991999999999999999999
0046028970999991916052006004+64217+027767FM-12+014699999V0200201N005119999999N0000001N9-00221+99999100021ADDAJ100009199999999GF108991999999999999999999
0029028970999991916052013004+64217+027767FM-12+014699999V0203401N003119999999N0000001N9+00221+99999099981ADDGF105991999999999999999999
0029028970999991916052020004+64217+027767FM-12+014699999V0202901N003119999999N0000001N9+00061+99999099831ADDGF106991999999999999999999
0046028970999991916052106004+64217+027767FM-12+014699999V0202701N003119999999N0000001N9+00061+99999099551ADDAJ100009199999999GF108991999999999999999999
0029028970999991916052113004+64217+027767FM-12+014699999V0203601N005119999999N0000001N9+00111+99999099421ADDGF108991999999999999999999
0029028970999991916052120004+64217+027767FM-12+014699999V0200201N001019999999N0000001N9-00171+99999099431ADDGF102991999999999999999999
0046028970999991916052206004+64217+027767FM-12+014699999V0203601N003119999999N0000001N9+00111+99999099561ADDAJ100009199999999GF103991999999999999999999
0029028970999991916052213004+64217+027767FM-12+014699999V0202901N005119999999N0000001N9+00171+99999099761ADDGF107991999999999999999999
0029028970999991916052220004+64217+027767FM-12+014699999V0203601N003119999999N0000001N9+00111+99999099821ADDGF108991999999999999999999
0046028970999991916052306004+64217+027767FM-12+014699999V0203601N003119999999N0000001N9+00111+99999099991ADDAJ100009199999999GF108991999999999999999999
0029028970999991916052313004+64217+027767FM-12+014699999V0202701N001019999999N0000001N9+00501+99999100101ADDGF108991999999999999999999
0029028970999991916052320004+64217+027767FM-12+014699999V0203401N001019999999N0000001N9+00221+99999100231ADDGF108991999999999999999999
0046028970999991916052406004+64217+027767FM-12+014699999V0200501N003119999999N0000001N9+00221+99999100361ADDAJ100009199999999GF108991999999999999999999
0029028970999991916052413004+64217+027767FM-12+014699999V0200501N001019999999N0000001N9+00441+99999100321ADDGF108991999999999999999999
0029028970999991916052420004+64217+027767FM-12+014699999V0203401N001019999999N0000001N9+00061+99999100111ADDGF102991999999999999999999
0046028970999991916052506004+64217+027767FM-12+014699999V0201401N001019999999N0000001N9+00441+99999100511ADDAJ100009199999999GF103991999999999999999999
0029028970999991916052513004+64217+027767FM-12+014699999V0202701N003119999999N0000001N9+00831+99999100641ADDGF106991999999999999999999
0029028970999991916052520004+64217+027767FM-12+014699999V0202701N001019999999N0000001N9+00171+99999100741ADDGF101991999999999999999999
0046028970999991916052606004+64217+027767FM-12+014699999V0202901N003119999999N0000001N9+00941+99999100981ADDAJ100009199999999GF103991999999999999999999
0029028970999991916052613004+64217+027767FM-12+014699999V0200501N005119999999N0000001N9+01111+99999100921ADDGF106991999999999999999999
0029028970999991916052620004+64217+027767FM-12+014699999V0200501N001019999999N0000001N9+00561+99999100831ADDGF106991999999999999999999
0046028970999991916052706004+64217+027767FM-12+014699999V0200501N005119999999N0000001N9+00501+99999100981ADDAJ100009199999999GF100991999999999999999999
0029028970999991916052713004+64217+027767FM-12+014699999V0200901N007219999999N0000001N9+00831+99999100871ADDGF101991999999999999999999
0029028970999991916052720004+64217+027767FM-12+014699999V0200901N001019999999N0000001N9+00391+99999100761ADDGF103991999999999999999999
0046028970999991916052806004+64217+027767FM-12+014699999V0202301N003119999999N0000001N9+00831+99999100821ADDAJ100009199999999GF106991999999999999999999
0029028970999991916052813004+64217+027767FM-12+014699999V0203201N007219999999N0000001N9+01221+99999100751ADDGF106991999999999999999999
0029028970999991916052820004+64217+027767FM-12+014699999V0200501N001019999999N0000001N9+00781+99999100541ADDGF101991999999999999999999
0046028970999991916052906004+64217+027767FM-12+014699999V0202501N003119999999N0000001N9+00891+99999100471ADDAJ100009199999999GF104991999999999999999999
0029028970999991916052913004+64217+027767FM-12+014699999V0202701N007219999999N0000001N9+01561+99999099951ADDGF100991999999999999999999
0029028970999991916052920004+64217+027767FM-12+014699999V0202701N003119999999N0000001N9+01061+99999099821ADDGF100991999999999999999999
0046028970999991916053006004+64217+027767FM-12+014699999V0200501N003119999999N0000001N9+00671+99999999999ADDAJ100009199999999GF100991999999999999999999
0029028970999991916053013004+64217+027767FM-12+014699999V0203601N001019999999N0000001N9+01061+99999099961ADDGF105991999999999999999999
0029028970999991916053020004+64217+027767FM-12+014699999V0200501N005119999999N0000001N9+00111+99999100301ADDGF105991999999999999999999
0046028970999991916053106004+64217+027767FM-12+014699999V0200501N003119999999N0000001N9+00111+99999100911ADDAJ100009199999999GF101991999999999999999999
0029028970999991916053113004+64217+027767FM-12+014699999V0200501N005119999999N0000001N9+00441+99999100961ADDGF101991999999999999999999
0029028970999991916053120004+64217+027767FM-12+014699999V0200701N003119999999N0000001N9+00281+99999101031ADDGF100991999999999999999999
0046028970999991916060106004+64217+027767FM-12+014699999V0202001N003119999999N0000001N9+00561+99999100981ADDAJ100009199999999GF102991999999999999999999
0029028970999991916060113004+64217+027767FM-12+014699999V0202501N005119999999N0000001N9+01221+99999100581ADDGF100991999999999999999999
0029028970999991916060120004+64217+027767FM-12+014699999V0202001N003119999999N0000001N9+00891+99999100221ADDGF102991999999999999999999
0046028970999991916060206004+64217+027767FM-12+014699999V0202001N005119999999N0000001N9+00941+99999099881ADDAJ100009199999999GF106991999999999999999999
0029028970999991916060213004+64217+027767FM-12+014699999V0202001N007219999999N0000001N9+01391+99999099461ADDGF106991999999999999999999
0029028970999991916060220004+64217+027767FM-12+014699999V0201601N005119999999N0000001N9+01221+99999099041ADDGF106991999999999999999999
0046028970999991916060306004+64217+027767FM-12+014699999V0201401N003119999999N0000001N9+01171+99999098551ADDAJ100009199999999GF108991999999999999999999
0029028970999991916060313004+64217+027767FM-12+014699999V0201401N007219999999N0000001N9+01331+99999098301ADDGF108991999999999999999999
0029028970999991916060320004+64217+027767FM-12+014699999V0201401N003119999999N0000001N9+00831+99999097921ADDGF108991999999999999999999
0046028970999991916060406004+64217+027767FM-12+014699999V0202301N003119999999N0000001N9+00891+99999097861ADDAJ100009199999999GF107991999999999999999999
0029028970999991916060413004+64217+027767FM-12+014699999V0202501N007219999999N0000001N9+00831+99999098281ADDGF108991999999999999999999
0029028970999991916060420004+64217+027767FM-12+014699999V0202701N003119999999N0000001N9+00831+99999098511ADDGF106991999999999999999999
0046028970999991916060506004+64217+027767FM-12+014699999V0202301N003119999999N0000001N9+01001+99999099031ADDAJ100009199999999GF103991999999999999999999
0029028970999991916060513004+64217+027767FM-12+014699999V0202501N005119999999N0000001N9+01671+99999099141ADDGF103991999999999999999999
0029028970999991916060520004+64217+027767FM-12+014699999V0202301N003119999999N0000001N9+01331+99999099231ADDGF105991999999999999999999
0046028970999991916060606004+64217+027767FM-12+014699999V0202301N003119999999N0000001N9+01171+99999099501ADDAJ100009199999999GF107991999999999999999999
0029028970999991916060613004+64217+027767FM-12+014699999V0200901N005119999999N0000001N9+01941+99999099201ADDGF108991999999999999999999
0029028970999991916060620004+64217+027767FM-12+014699999V0201401N003119999999N0000001N9+01891+99999098871ADDGF102991999999999999999999
0046028970999991916060706004+64217+027767FM-12+014699999V0202001N007219999999N0000001N9+01781+99999098951ADDAJ100009199999999GF101991999999999999999999
0029028970999991916060713004+64217+027767FM-12+014699999V0202501N008719999999N0000001N9+02171+99999098921ADDGF106991999999999999999999
0035028970999991916060720004+64217+027767FM-12+014699999V0203201N001019999999N0000001N9+01331+99999098661ADDGF108991999999999999999999MW1621
0052028970999991916060806004+64217+027767FM-12+014699999V0202501N007219999999N0000001N9+00831+99999098471ADDAJ100009199999999GF108991999999999999999999MW1621
0029028970999991916060813004+64217+027767FM-12+014699999V0202301N008719999999N0000001N9+01781+99999098941ADDGF106991999999999999999999
0035028970999991916060820004+64217+027767FM-12+014699999V0202501N005119999999N0000001N9+01171+99999099191ADDGF107991999999999999999999MW1621
0046028970999991916060906004+64217+027767FM-12+014699999V0202301N003119999999N0000001N9+01331+99999099311ADDAJ100009199999999GF106991999999999999999999
0029028970999991916060913004+64217+027767FM-12+014699999V0201401N005119999999N0000001N9+01171+99999099351ADDGF108991999999999999999999
0029028970999991916060920004+64217+027767FM-12+014699999V0202501N001019999999N0000001N9+01171+99999099791ADDGF105991999999999999999999
0046028970999991916061006004+64217+027767FM-12+014699999V0202501N003119999999N0000001N9+01331+99999100221ADDAJ100009199999999GF103991999999999999999999
0029028970999991916061013004+64217+027767FM-12+014699999V0200501N003119999999N0000001N9+01781+99999100261ADDGF108991999999999999999999
0035028970999991916061020004+64217+027767FM-12+014699999V0200701N005119999999N0000001N9+01111+99999100261ADDGF108991999999999999999999MW1621
0046028970999991916061106004+64217+027767FM-12+014699999V0200701N007219999999N0000001N9+01061+99999100261ADDAJ100009199999999GF106991999999999999999999
0029028970999991916061113004+64217+027767FM-12+014699999V0200501N008719999999N0000001N9+01331+99999100301ADDGF106991999999999999999999
0029028970999991916061120004+64217+027767FM-12+014699999V0200701N008719999999N0000001N9+01001+99999100161ADDGF108991999999999999999999
0046028970999991916061206004+64217+027767FM-12+014699999V0200701N005119999999N0000001N9+01281+99999099831ADDAJ100009199999999GF106991999999999999999999
0029028970999991916061213004+64217+027767FM-12+014699999V0201601N003119999999N0000001N9+02441+99999099401ADDGF104991999999999999999999
0035028970999991916061220004+64217+027767FM-12+014699999V0202701N003119999999N0000001N9+01391+99999099181ADDGF108991999999999999999999MW1621
0046028970999991916061306004+64217+027767FM-12+014699999V0203201N003119999999N0000001N9+00941+99999098661ADDAJ100009199999999GF108991999999999999999999
0035028970999991916061313004+64217+027767FM-12+014699999V0202301N005119999999N0000001N9+01001+99999098681ADDGF108991999999999999999999MW1621
0029028970999991916061320004+64217+027767FM-12+014699999V0200501N005119999999N0000001N9+00611+99999099061ADDGF108991999999999999999999
0052028970999991916061406004+64217+027767FM-12+014699999V0200701N003119999999N0000001N9+00721+99999098801ADDAJ100009199999999GF108991999999999999999999MW1621
0029028970999991916061413004+64217+027767FM-12+014699999V0201401N003119999999N0000001N9+00831+99999098541ADDGF108991999999999999999999
0035028970999991916061420004+64217+027767FM-12+014699999V0201401N003119999999N0000001N9+00781+99999098561ADDGF108991999999999999999999MW1621
0052028970999991916061506004+64217+027767FM-12+014699999V0200701N005119999999N0000001N9+00831+99999098751ADDAJ100009199999999GF106991999999999999999999MW1621
0029028970999991916061513004+64217+027767FM-12+014699999V0200701N005119999999N0000001N9+00941+99999099071ADDGF107991999999999999999999
0029028970999991916061520004+64217+027767FM-12+014699999V0200501N005119999999N0000001N9+00671+99999099281ADDGF107991999999999999999999
0046028970999991916061606004+64217+027767FM-12+014699999V0200501N005119999999N0000001N9+00441+99999099341ADDAJ100009199999999GF108991999999999999999999
0035028970999991916061613004+64217+027767FM-12+014699999V0200501N005119999999N0000001N9+00221+99999099361ADDGF108991999999999999999999MW1641
0029028970999991916061620004+64217+027767FM-12+014699999V0200501N003119999999N0000001N9+00501+99999098911ADDGF108991999999999999999999
0052028970999991916061706004+64217+027767FM-12+014699999V0200201N005119999999N0000001N9+00171+99999098271ADDAJ100009199999999GF108991999999999999999999MW1901
0035028970999991916061713004+64217+027767FM-12+014699999V0200701N007219999999N0000001N9+00281+99999098231ADDGF108991999999999999999999MW1621
0029028970999991916061720004+64217+027767FM-12+014699999V0200501N005119999999N0000001N9+00281+99999098221ADDGF108991999999999999999999
0046028970999991916061806004+64217+027767FM-12+014699999V0203601N005119999999N0000001N9+00221+99999098081ADDAJ100009199999999GF108991999999999999999999
0029028970999991916061813004+64217+027767FM-12+014699999V0202901N003119999999N0000001N9+00781+99999098151ADDGF108991999999999999999999
0029028970999991916061820004+64217+027767FM-12+014699999V0203201N003119999999N0000001N9+00561+99999098351ADDGF107991999999999999999999
0046028970999991916061906004+64217+027767FM-12+014699999V0203201N004119999999N0000001N9+00671+99999098801ADDAJ100009199999999GF106991999999999999999999
0029028970999991916061913004+64217+027767FM-12+014699999V0203201N005119999999N0000001N9+00941+99999099001ADDGF107991999999999999999999
0029028970999991916061920004+64217+027767FM-12+014699999V0203201N001019999999N0000001N9+00831+99999099181ADDGF107991999999999999999999
0046028970999991916062006004+64217+027767FM-12+014699999V0203201N003119999999N0000001N9+00941+99999099421ADDAJ100009199999999GF107991999999999999999999
0029028970999991916062013004+64217+027767FM-12+014699999V0200701N003119999999N0000001N9+01221+99999099461ADDGF106991999999999999999999
0029028970999991916062020004+64217+027767FM-12+014699999V0200901N003119999999N0000001N9+01061+99999099361ADDGF106991999999999999999999
0046028970999991916062106004+64217+027767FM-12+014699999V0200701N004119999999N0000001N9+01001+99999099191ADDAJ100009199999999GF107991999999999999999999
0029028970999991916062113004+64217+027767FM-12+014699999V0200701N003119999999N0000001N9+01561+99999099041ADDGF103991999999999999999999
0035028970999991916062120004+64217+027767FM-12+014699999V0201401N003119999999N0000001N9+01281+99999099141ADDGF107991999999999999999999MW1621
0046028970999991916062206004+64217+027767FM-12+014699999V0200701N003119999999N0000001N9+00891+99999099511ADDAJ100009199999999GF108991999999999999999999
0035028970999991916062213004+64217+027767FM-12+014699999V0200501N005119999999N0000001N9+01281+99999099631ADDGF108991999999999999999999MW1621
0035028970999991916062220004+64217+027767FM-12+014699999V0200901N003119999999N0000001N9+01171+99999099721ADDGF108991999999999999999999MW1621
0052028970999991916062306004+64217+027767FM-12+014699999V0200501N003119999999N0000001N9+01001+99999099911ADDAJ100009199999999GF108991999999999999999999MW1621
0035028970999991916062313004+64217+027767FM-12+014699999V0201401N003119999999N0000001N9+01441+99999099991ADDGF108991999999999999999999MW1621
0029028970999991916062320004+64217+027767FM-12+014699999V0200501N003119999999N0000001N9+01391+99999100081ADDGF107991999999999999999999
0046028970999991916062406004+64217+027767FM-12+014699999V0200701N005119999999N0000001N9+01501+99999100181ADDAJ100009199999999GF103991999999999999999999
0029028970999991916062413004+64217+027767FM-12+014699999V0200501N007219999999N0000001N9+02061+99999100121ADDGF103991999999999999999999
0029028970999991916062420004+64217+027767FM-12+014699999V0200501N001019999999N0000001N9+01561+99999100231ADDGF101991999999999999999999
0046028970999991916062506004+64217+027767FM-12+014699999V0200201N003119999999N0000001N9+01561+99999100201ADDAJ100009199999999GF102991999999999999999999
0029028970999991916062513004+64217+027767FM-12+014699999V0200701N003119999999N0000001N9+02001+99999099921ADDGF100991999999999999999999
0029028970999991916062520004+64217+027767FM-12+014699999V0200901N003119999999N0000001N9+01331+99999099871ADDGF101991999999999999999999
0046028970999991916062606004+64217+027767FM-12+014699999V0200501N003119999999N0000001N9+01171+99999099761ADDAJ100009199999999GF106991999999999999999999
0029028970999991916062613004+64217+027767FM-12+014699999V0200501N003119999999N0000001N9+01561+99999099681ADDGF106991999999999999999999
0029028970999991916062620004+64217+027767FM-12+014699999V0200701N003119999999N0000001N9+01221+99999099591ADDGF102991999999999999999999
0046028970999991916062706004+64217+027767FM-12+014699999V0209991C000019999999N0000001N9+01561+99999099441ADDAJ100009199999999GF100991999999999999999999
0029028970999991916062713004+64217+027767FM-12+014699999V0203201N003119999999N0000001N9+02171+99999099161ADDGF103991999999999999999999
0035028970999991916062720004+64217+027767FM-12+014699999V0203201N005119999999N0000001N9+01611+99999099071ADDGF106991999999999999999999MW1621
0046028970999991916062806004+64217+027767FM-12+014699999V0202701N003119999999N0000001N9+01391+99999099001ADDAJ100009199999999GF107991999999999999999999
0029028970999991916062813004+64217+027767FM-12+014699999V0200701N003119999999N0000001N9+01671+99999099141ADDGF107991999999999999999999
0029028970999991916062820004+64217+027767FM-12+014699999V0200501N003119999999N0000001N9+01671+99999099191ADDGF105991999999999999999999
0046028970999991916062906004+64217+027767FM-12+014699999V0200701N003119999999N0000001N9+01611+99999099341ADDAJ100009199999999GF106991999999999999999999
0029028970999991916062913004+64217+027767FM-12+014699999V0200501N003119999999N0000001N9+02221+99999099321ADDGF104991999999999999999999
0029028970999991916062920004+64217+027767FM-12+014699999V0200901N003119999999N0000001N9+01721+99999099401ADDGF102991999999999999999999
0046028970999991916063006004+64217+027767FM-12+014699999V0200701N003119999999N0000001N9+01721+99999099471ADDAJ100009199999999GF102991999999999999999999
0029028970999991916063013004+64217+027767FM-12+014699999V0200501N007219999999N0000001N9+01831+99999099421ADDGF106991999999999999999999
0029028970999991916063020004+64217+027767FM-12+014699999V0200501N003119999999N0000001N9+01501+99999099461ADDGF105991999999999999999999
0046028970999991916070106004+64217+027767FM-12+014699999V0200701N003119999999N0000001N9+01561+99999099501ADDAJ100009199999999GF101991999999999999999999
0029028970999991916070113004+64217+027767FM-12+014699999V0201401N003119999999N0000001N9+02171+99999099271ADDGF102991999999999999999999
0029028970999991916070120004+64217+027767FM-12+014699999V0201101N001019999999N0000001N9+01611+99999099381ADDGF103991999999999999999999
0046028970999991916070206004+64217+027767FM-12+014699999V0200701N003119999999N0000001N9+01941+99999099391ADDAJ100009199999999GF101991999999999999999999
0029028970999991916070213004+64217+027767FM-12+014699999V0201401N003119999999N0000001N9+02001+99999099311ADDGF106991999999999999999999
0029028970999991916070220004+64217+027767FM-12+014699999V0200501N003119999999N0000001N9+01441+99999099391ADDGF106991999999999999999999
0046028970999991916070306004+64217+027767FM-12+014699999V0200501N003119999999N0000001N9+01831+99999099271ADDAJ100009199999999GF105991999999999999999999
0029028970999991916070313004+64217+027767FM-12+014699999V0200701N007219999999N0000001N9+02671+99999099081ADDGF105991999999999999999999
0029028970999991916070320004+64217+027767FM-12+014699999V0202701N003119999999N0000001N9+01441+99999099191ADDGF106991999999999999999999
0046028970999991916070406004+64217+027767FM-12+014699999V0202701N003119999999N0000001N9+02061+99999099361ADDAJ100009199999999GF102991999999999999999999
0029028970999991916070413004+64217+027767FM-12+014699999V0200501N005119999999N0000001N9+02111+99999099421ADDGF106991999999999999999999
0029028970999991916070420004+64217+027767FM-12+014699999V0202701N003119999999N0000001N9+01561+99999099521ADDGF104991999999999999999999
0046028970999991916070506004+64217+027767FM-12+014699999V0202501N003119999999N0000001N9+02171+99999099641ADDAJ100009199999999GF101991999999999999999999
0035028970999991916070513004+64217+027767FM-12+014699999V0202501N003119999999N0000001N9+01941+99999099601ADDGF107991999999999999999999MW1621
0029028970999991916070520004+64217+027767FM-12+014699999V0202501N003119999999N0000001N9+01671+99999099591ADDGF103991999999999999999999
0046028970999991916070606004+64217+027767FM-12+014699999V0200901N003119999999N0000001N9+02061+99999099561ADDAJ100009199999999GF100991999999999999999999
0029028970999991916070613004+64217+027767FM-12+014699999V0200701N003119999999N0000001N9+02501+99999099421ADDGF103991999999999999999999
0029028970999991916070620004+64217+027767FM-12+014699999V0200901N003119999999N0000001N9+02171+99999099351ADDGF106991999999999999999999
0046028970999991916070706004+64217+027767FM-12+014699999V0200701N003119999999N0000001N9+02171+99999099421ADDAJ100009199999999GF100991999999999999999999
0029028970999991916070713004+64217+027767FM-12+014699999V0200701N005119999999N0000001N9+02671+99999099271ADDGF106991999999999999999999
0029028970999991916070720004+64217+027767FM-12+014699999V0200701N001019999999N0000001N9+02061+99999099181ADDGF102991999999999999999999
0046028970999991916070806004+64217+027767FM-12+014699999V0200701N003119999999N0000001N9+02221+99999099281ADDAJ100009199999999GF101991999999999999999999
0029028970999991916070813004+64217+027767FM-12+014699999V0200901N003119999999N0000001N9+02781+99999099161ADDGF103991999999999999999999
0029028970999991916070820004+64217+027767FM-12+014699999V0201401N003119999999N0000001N9+02171+99999099121ADDGF106991999999999999999999
0046028970999991916070906004+64217+027767FM-12+014699999V0203201N003119999999N0000001N9+02221+99999099241ADDAJ100009199999999GF106991999999999999999999
0029028970999991916070913004+64217+027767FM-12+014699999V0200501N003119999999N0000001N9+02561+99999099221ADDGF106991999999999999999999
0029028970999991916070920004+64217+027767FM-12+014699999V0200501N003119999999N0000001N9+01941+99999099381ADDGF107991999999999999999999
0046028970999991916071006004+64217+027767FM-12+014699999V0202701N003119999999N0000001N9+01941+99999099381ADDAJ100009199999999GF106991999999999999999999
0029028970999991916071013004+64217+027767FM-12+014699999V0203201N003119999999N0000001N9+02671+99999099351ADDGF102991999999999999999999
0029028970999991916071020004+64217+027767FM-12+014699999V0200501N003119999999N0000001N9+01781+99999099401ADDGF105991999999999999999999
0046028970999991916071106004+64217+027767FM-12+014699999V0200901N005119999999N0000001N9+01671+99999099501ADDAJ100009199999999GF104991999999999999999999
0029028970999991916071113004+64217+027767FM-12+014699999V0200201N007219999999N0000001N9+01941+99999099421ADDGF103991999999999999999999
0029028970999991916071120004+64217+027767FM-12+014699999V0200701N003119999999N0000001N9+01501+99999099441ADDGF102991999999999999999999
0046028970999991916071206004+64217+027767FM-12+014699999V0200501N003119999999N0000001N9+01441+99999099321ADDAJ100009199999999GF104991999999999999999999
0035028970999991916071213004+64217+027767FM-12+014699999V0200701N005119999999N0000001N9+01561+99999098981ADDGF107991999999999999999999MW1621
0029028970999991916071220004+64217+027767FM-12+014699999V0200201N005119999999N0000001N9+01221+99999098871ADDGF105991999999999999999999
0046028970999991916071306004+64217+027767FM-12+014699999V0200501N005119999999N0000001N9+01001+99999098661ADDAJ100009199999999GF107991999999999999999999
0029028970999991916071313004+64217+027767FM-12+014699999V0200701N007219999999N0000001N9+01391+99999098641ADDGF104991999999999999999999
0029028970999991916071320004+64217+027767FM-12+014699999V0201401N003119999999N0000001N9+01391+99999098831ADDGF106991999999999999999999
0046028970999991916071406004+64217+027767FM-12+014699999V0200701N003119999999N0000001N9+01561+99999099041ADDAJ100009199999999GF106991999999999999999999
0029028970999991916071413004+64217+027767FM-12+014699999V0201601N003119999999N0000001N9+01891+99999099111ADDGF107991999999999999999999
0029028970999991916071420004+64217+027767FM-12+014699999V0200701N003119999999N0000001N9+01561+99999099161ADDGF106991999999999999999999
0046028970999991916071506004+64217+027767FM-12+014699999V0200501N003119999999N0000001N9+02001+99999099281ADDAJ100009199999999GF100991999999999999999999
0029028970999991916071513004+64217+027767FM-12+014699999V0202301N005119999999N0000001N9+02061+99999099401ADDGF107991999999999999999999
0029028970999991916071520004+64217+027767FM-12+014699999V0202501N003119999999N0000001N9+01611+99999099551ADDGF103991999999999999999999
0046028970999991916071606004+64217+027767FM-12+014699999V0202501N003119999999N0000001N9+01831+99999099761ADDAJ100009199999999GF102991999999999999999999
0029028970999991916071613004+64217+027767FM-12+014699999V0200701N003119999999N0000001N9+02331+99999099761ADDGF103991999999999999999999
0029028970999991916071620004+64217+027767FM-12+014699999V0200901N001019999999N0000001N9+01671+99999099831ADDGF102991999999999999999999
0046028970999991916071706004+64217+027767FM-12+014699999V0200901N003119999999N0000001N9+02111+99999099871ADDAJ100009199999999GF106991999999999999999999
0029028970999991916071713004+64217+027767FM-12+014699999V0201101N003119999999N0000001N9+02441+99999099711ADDGF104991999999999999999999
0029028970999991916071720004+64217+027767FM-12+014699999V0202301N003119999999N0000001N9+01941+99999099681ADDGF107991999999999999999999
0046028970999991916071806004+64217+027767FM-12+014699999V0202501N003119999999N0000001N9+01831+99999099671ADDAJ100009199999999GF107991999999999999999999
0029028970999991916071813004+64217+027767FM-12+014699999V0203201N003119999999N0000001N9+02221+99999099561ADDGF105991999999999999999999
0029028970999991916071820004+64217+027767FM-12+014699999V0202901N001019999999N0000001N9+01561+99999099501ADDGF104991999999999999999999
0046028970999991916071906004+64217+027767FM-12+014699999V0203201N003119999999N0000001N9+02171+99999099461ADDAJ100009199999999GF105991999999999999999999
0029028970999991916071913004+64217+027767FM-12+014699999V0202501N007219999999N0000001N9+02441+99999099421ADDGF106991999999999999999999
0029028970999991916071920004+64217+027767FM-12+014699999V0202701N001019999999N0000001N9+01831+99999099541ADDGF106991999999999999999999
0046028970999991916072006004+64217+027767FM-12+014699999V0202701N003119999999N0000001N9+02001+99999099741ADDAJ100009199999999GF101991999999999999999999
0029028970999991916072013004+64217+027767FM-12+014699999V0202901N003119999999N0000001N9+02391+99999099681ADDGF103991999999999999999999
0029028970999991916072020004+64217+027767FM-12+014699999V0202901N005119999999N0000001N9+02001+99999099641ADDGF106991999999999999999999
0046028970999991916072106004+64217+027767FM-12+014699999V0203201N003119999999N0000001N9+01891+99999099671ADDAJ100009199999999GF102991999999999999999999
0029028970999991916072113004+64217+027767FM-12+014699999V0202701N005119999999N0000001N9+02391+99999099501ADDGF103991999999999999999999
0029028970999991916072120004+64217+027767FM-12+014699999V0202901N003119999999N0000001N9+01501+99999099511ADDGF107991999999999999999999
0046028970999991916072206004+64217+027767FM-12+014699999V0200501N003119999999N0000001N9+01391+99999099621ADDAJ100009199999999GF108991999999999999999999
0029028970999991916072213004+64217+027767FM-12+014699999V0200501N007219999999N0000001N9+01781+99999099911ADDGF106991999999999999999999
0029028970999991916072220004+64217+027767FM-12+014699999V0200201N001019999999N0000001N9+01391+99999100161ADDGF102991999999999999999999
0046028970999991916072306004+64217+027767FM-12+014699999V0200501N003119999999N0000001N9+01441+99999100471ADDAJ100009199999999GF106991999999999999999999
0029028970999991916072313004+64217+027767FM-12+014699999V0200501N003119999999N0000001N9+02171+99999100441ADDGF104991999999999999999999
0029028970999991916072320004+64217+027767FM-12+014699999V0200501N001019999999N0000001N9+01561+99999100421ADDGF100991999999999999999999
0046028970999991916072406004+64217+027767FM-12+014699999V0200501N003119999999N0000001N9+01891+99999100501ADDAJ100009199999999GF100991999999999999999999
0029028970999991916072413004+64217+027767FM-12+014699999V0202501N003119999999N0000001N9+02391+99999100351ADDGF102991999999999999999999
0029028970999991916072420004+64217+027767FM-12+014699999V0202701N001019999999N0000001N9+01671+99999100201ADDGF102991999999999999999999
0046028970999991916072506004+64217+027767FM-12+014699999V0202701N001019999999N0000001N9+02061+99999100161ADDAJ100009199999999GF101991999999999999999999
0029028970999991916072513004+64217+027767FM-12+014699999V0202701N005119999999N0000001N9+02671+99999100031ADDGF102991999999999999999999
0029028970999991916072520004+64217+027767FM-12+014699999V0203201N003119999999N0000001N9+01941+99999099991ADDGF103991999999999999999999
0046028970999991916072606004+64217+027767FM-12+014699999V0200501N003119999999N0000001N9+01891+99999100111ADDAJ100009199999999GF103991999999999999999999
0029028970999991916072613004+64217+027767FM-12+014699999V0200501N005119999999N0000001N9+02281+99999100191ADDGF106991999999999999999999
0029028970999991916072620004+64217+027767FM-12+014699999V0200501N003119999999N0000001N9+01561+99999100321ADDGF106991999999999999999999
0046028970999991916072706004+64217+027767FM-12+014699999V0201801N005119999999N0000001N9+01671+99999100421ADDAJ100009199999999GF106991999999999999999999
0029028970999991916072713004+64217+027767FM-12+014699999V0202901N005119999999N0000001N9+02061+99999100321ADDGF105991999999999999999999
0029028970999991916072720004+64217+027767FM-12+014699999V0200701N003119999999N0000001N9+01671+99999100221ADDGF105991999999999999999999
0046028970999991916072806004+64217+027767FM-12+014699999V0200701N001019999999N0000001N9+01721+99999100101ADDAJ100009199999999GF106991999999999999999999
0029028970999991916072813004+64217+027767FM-12+014699999V0200901N003119999999N0000001N9+01831+99999099951ADDGF107991999999999999999999
0029028970999991916072820004+64217+027767FM-12+014699999V0201401N001019999999N0000001N9+01611+99999099681ADDGF107991999999999999999999
0046028970999991916072906004+64217+027767FM-12+014699999V0201401N003119999999N0000001N9+01441+99999099431ADDAJ100009199999999GF106991999999999999999999
0029028970999991916072913004+64217+027767FM-12+014699999V0201401N003119999999N0000001N9+02111+99999099121ADDGF104991999999999999999999
0029028970999991916072920004+64217+027767FM-12+014699999V0202001N003119999999N0000001N9+01671+99999098641ADDGF108991999999999999999999
0046028970999991916073006004+64217+027767FM-12+014699999V0202501N007219999999N0000001N9+01501+99999097871ADDAJ100009199999999GF108991999999999999999999
0029028970999991916073013004+64217+027767FM-12+014699999V0202501N005119999999N0000001N9+01611+99999097201ADDGF107991999999999999999999
0035028970999991916073020004+64217+027767FM-12+014699999V0202701N005119999999N0000001N9+01061+99999096981ADDGF108991999999999999999999MW1621
0046028970999991916073106004+64217+027767FM-12+014699999V0202301N005119999999N0000001N9+01111+99999096741ADDAJ100009199999999GF107991999999999999999999
0035028970999991916073113004+64217+027767FM-12+014699999V0202701N005119999999N0000001N9+01281+99999096911ADDGF107991999999999999999999MW1621
0029028970999991916073120004+64217+027767FM-12+014699999V0203201N007219999999N0000001N9+01001+99999097511ADDGF108991999999999999999999
0046028970999991916080106004+64217+027767FM-12+014699999V0203401N005119999999N0000001N9+00781+99999098101ADDAJ100009199999999GF108991999999999999999999
0035028970999991916080113004+64217+027767FM-12+014699999V0203601N003119999999N0000001N9+00721+99999098711ADDGF108991999999999999999999MW1621
0029028970999991916080120004+64217+027767FM-12+014699999V0203601N003119999999N0000001N9+00721+99999099041ADDGF108991999999999999999999
0046028970999991916080206004+64217+027767FM-12+014699999V0203601N003119999999N0000001N9+00781+99999099191ADDAJ100009199999999GF108991999999999999999999
0029028970999991916080213004+64217+027767FM-12+014699999V0200901N003119999999N0000001N9+01391+99999099271ADDGF107991999999999999999999
0029028970999991916080220004+64217+027767FM-12+014699999V0200901N001019999999N0000001N9+00721+99999099031ADDGF103991999999999999999999
0046028970999991916080306004+64217+027767FM-12+014699999V0200901N001019999999N0000001N9+01111+99999098681ADDAJ100009199999999GF108991999999999999999999
0029028970999991916080313004+64217+027767FM-12+014699999V0202701N003119999999N0000001N9+01501+99999098381ADDGF107991999999999999999999
0029028970999991916080320004+64217+027767FM-12+014699999V0202501N003119999999N0000001N9+01221+99999097991ADDGF108991999999999999999999
0046028970999991916080406004+64217+027767FM-12+014699999V0202901N001019999999N0000001N9+01111+99999098221ADDAJ100009199999999GF107991999999999999999999
0029028970999991916080413004+64217+027767FM-12+014699999V0203601N003119999999N0000001N9+01501+99999098561ADDGF107991999999999999999999
0029028970999991916080420004+64217+027767FM-12+014699999V0202901N001019999999N0000001N9+01171+99999098791ADDGF107991999999999999999999
0046028970999991916080506004+64217+027767FM-12+014699999V0202901N003119999999N0000001N9+01111+99999098941ADDAJ100009199999999GF106991999999999999999999
0029028970999991916080513004+64217+027767FM-12+014699999V0203601N007219999999N0000001N9+01391+99999098941ADDGF106991999999999999999999
0029028970999991916080520004+64217+027767FM-12+014699999V0202901N001019999999N0000001N9+00941+99999098991ADDGF107991999999999999999999
0046028970999991916080606004+64217+027767FM-12+014699999V0203601N001019999999N0000001N9+01001+99999099021ADDAJ100009199999999GF108991999999999999999999
0029028970999991916080613004+64217+027767FM-12+014699999V0203601N003119999999N0000001N9+01391+99999098881ADDGF107991999999999999999999
0029028970999991916080620004+64217+027767FM-12+014699999V0203601N001019999999N0000001N9+01061+99999098871ADDGF108991999999999999999999
0046028970999991916080706004+64217+027767FM-12+014699999V0202901N003119999999N0000001N9+00941+99999099231ADDAJ100009199999999GF108991999999999999999999
0029028970999991916080713004+64217+027767FM-12+014699999V0203601N005119999999N0000001N9+01221+99999099541ADDGF108991999999999999999999
0029028970999991916080720004+64217+027767FM-12+014699999V0203601N003119999999N0000001N9+00941+99999099641ADDGF106991999999999999999999
0046028970999991916080806004+64217+027767FM-12+014699999V0200701N005119999999N0000001N9+01111+99999099701ADDAJ100009199999999GF104991999999999999999999
0029028970999991916080813004+64217+027767FM-12+014699999V0201101N007219999999N0000001N9+01561+99999099281ADDGF106991999999999999999999
0029028970999991916080820004+64217+027767FM-12+014699999V0201101N005119999999N0000001N9+00941+99999098841ADDGF107991999999999999999999
0046028970999991916080906004+64217+027767FM-12+014699999V0200901N007219999999N0000001N9+01001+99999098581ADDAJ100009199999999GF104991999999999999999999
0029028970999991916080913004+64217+027767FM-12+014699999V0200901N007219999999N0000001N9+01331+99999098461ADDGF103991999999999999999999
0029028970999991916080920004+64217+027767FM-12+014699999V0200701N005119999999N0000001N9+00891+99999098461ADDGF105991999999999999999999
0046028970999991916081006004+64217+027767FM-12+014699999V0203601N007219999999N0000001N9+00781+99999098801ADDAJ100009199999999GF107991999999999999999999
0035028970999991916081013004+64217+027767FM-12+014699999V0203601N003119999999N0000001N9+00891+99999098941ADDGF107991999999999999999999MW1621
0029028970999991916081020004+64217+027767FM-12+014699999V0200701N003119999999N0000001N9+00781+99999099121ADDGF105991999999999999999999
0046028970999991916081106004+64217+027767FM-12+014699999V0201101N001019999999N0000001N9+00941+99999099141ADDAJ100009199999999GF101991999999999999999999
0029028970999991916081113004+64217+027767FM-12+014699999V0200901N001019999999N0000001N9+01561+99999099041ADDGF102991999999999999999999
0029028970999991916081120004+64217+027767FM-12+014699999V0200901N001019999999N0000001N9+01001+99999099231ADDGF107991999999999999999999
0046028970999991916081206004+64217+027767FM-12+014699999V0203601N003119999999N0000001N9+00831+99999099401ADDAJ100009199999999GF106991999999999999999999
0029028970999991916081213004+64217+027767FM-12+014699999V0200901N005119999999N0000001N9+01171+99999099481ADDGF106991999999999999999999
0029028970999991916081220004+64217+027767FM-12+014699999V0203601N003119999999N0000001N9+00831+99999099541ADDGF108991999999999999999999
0046028970999991916081306004+64217+027767FM-12+014699999V0203601N001019999999N0000001N9+01281+99999099551ADDAJ100009199999999GF105991999999999999999999
0029028970999991916081313004+64217+027767FM-12+014699999V0200901N003119999999N0000001N9+01671+99999099471ADDGF106991999999999999999999
0029028970999991916081320004+64217+027767FM-12+014699999V0201801N001019999999N0000001N9+01001+99999099421ADDGF108991999999999999999999
0046028970999991916081406004+64217+027767FM-12+014699999V0201801N001019999999N0000001N9+01001+99999099561ADDAJ100009199999999GF106991999999999999999999
0035028970999991916081413004+64217+027767FM-12+014699999V0202701N005119999999N0000001N9+01171+99999099581ADDGF107991999999999999999999MW1621
0029028970999991916081420004+64217+027767FM-12+014699999V0201401N001019999999N0000001N9+00671+99999099551ADDGF101991999999999999999999
0046028970999991916081506004+64217+027767FM-12+014699999V0201601N001019999999N0000001N9+00831+99999099511ADDAJ100009199999999GF106991999999999999999999
0029028970999991916081513004+64217+027767FM-12+014699999V0200901N005119999999N0000001N9+01441+99999099431ADDGF108991999999999999999999
0029028970999991916081520004+64217+027767FM-12+014699999V0201601N001019999999N0000001N9+01171+99999099261ADDGF108991999999999999999999
0046028970999991916081606004+64217+027767FM-12+014699999V0200901N003119999999N0000001N9+01061+99999099341ADDAJ100009199999999GF108991999999999999999999
0029028970999991916081613004+64217+027767FM-12+014699999V0200901N005119999999N0000001N9+01501+99999099401ADDGF107991999999999999999999
0029028970999991916081620004+64217+027767FM-12+014699999V0200901N001019999999N0000001N9+01171+99999099461ADDGF108991999999999999999999
0046028970999991916081706004+64217+027767FM-12+014699999V0200901N001019999999N0000001N9+01061+99999099621ADDAJ100009199999999GF106991999999999999999999
0029028970999991916081713004+64217+027767FM-12+014699999V0203401N003119999999N0000001N9+01281+99999099721ADDGF106991999999999999999999
0029028970999991916081720004+64217+027767FM-12+014699999V0203401N003119999999N0000001N9+00611+99999099671ADDGF100991999999999999999999
0046028970999991916081806004+64217+027767FM-12+014699999V0203401N003119999999N0000001N9+00941+99999099591ADDAJ100009199999999GF101991999999999999999999
0029028970999991916081813004+64217+027767FM-12+014699999V0203401N005119999999N0000001N9+01501+99999099511ADDGF102991999999999999999999
0029028970999991916081820004+64217+027767FM-12+014699999V0203401N001019999999N0000001N9+00721+99999099351ADDGF104991999999999999999999
0046028970999991916081906004+64217+027767FM-12+014699999V0203401N001019999999N0000001N9+01001+99999099221ADDAJ100009199999999GF104991999999999999999999
0029028970999991916081913004+64217+027767FM-12+014699999V0200901N001019999999N0000001N9+01391+99999098981ADDGF107991999999999999999999
0035028970999991916081920004+64217+027767FM-12+014699999V0200901N001019999999N0000001N9+01331+99999098701ADDGF108991999999999999999999MW1621
0052028970999991916082006004+64217+027767FM-12+014699999V0200701N001019999999N0000001N9+00781+99999098701ADDAJ100009199999999GF108991999999999999999999MW1621
0035028970999991916082013004+64217+027767FM-12+014699999V0203601N003119999999N0000001N9+00781+99999098841ADDGF108991999999999999999999MW1621
0035028970999991916082020004+64217+027767FM-12+014699999V0203601N001019999999N0000001N9+00671+99999098821ADDGF108991999999999999999999MW1621
0052028970999991916082106004+64217+027767FM-12+014699999V0203401N001019999999N0000001N9+00671+99999098521ADDAJ100009199999999GF108991999999999999999999MW1621
0029028970999991916082113004+64217+027767FM-12+014699999V0203401N003119999999N0000001N9+01281+99999098261ADDGF108991999999999999999999
0029028970999991916082120004+64217+027767FM-12+014699999V0200901N001019999999N0000001N9+01061+99999098461ADDGF108991999999999999999999
0052028970999991916082206004+64217+027767FM-12+014699999V0200201N001019999999N0000001N9+01061+99999098481ADDAJ100009199999999GF108991999999999999999999MW1621
0029028970999991916082213004+64217+027767FM-12+014699999V0203401N003119999999N0000001N9+01611+99999098821ADDGF108991999999999999999999
0035028970999991916082220004+64217+027767FM-12+014699999V0200701N001019999999N0000001N9+01391+99999098871ADDGF108991999999999999999999MW1621
0046028970999991916082306004+64217+027767FM-12+014699999V0200701N003119999999N0000001N9+01331+99999098821ADDAJ100009199999999GF108991999999999999999999
0029028970999991916082313004+64217+027767FM-12+014699999V0200701N007219999999N0000001N9+01611+99999098741ADDGF108991999999999999999999
0029028970999991916082320004+64217+027767FM-12+014699999V0200901N005119999999N0000001N9+01561+99999098631ADDGF108991999999999999999999
0052028970999991916082406004+64217+027767FM-12+014699999V0201801N003119999999N0000001N9+01221+99999098511ADDAJ100009199999999GF108991999999999999999999MW1621
0035028970999991916082413004+64217+027767FM-12+014699999V0201601N003119999999N0000001N9+01441+99999098551ADDGF108991999999999999999999MW1621
0029028970999991916082420004+64217+027767FM-12+014699999V0201801N003119999999N0000001N9+01061+99999098641ADDGF106991999999999999999999
0046028970999991916082506004+64217+027767FM-12+014699999V0201801N001019999999N0000001N9+01221+99999098871ADDAJ100009199999999GF108991999999999999999999
0029028970999991916082513004+64217+027767FM-12+014699999V0201101N003119999999N0000001N9+01561+99999098901ADDGF107991999999999999999999
0029028970999991916082520004+64217+027767FM-12+014699999V0202301N001019999999N0000001N9+00941+99999098741ADDGF104991999999999999999999
0046028970999991916082606004+64217+027767FM-12+014699999V0200701N003119999999N0000001N9+00941+99999098781ADDAJ100009199999999GF108991999999999999999999
0029028970999991916082613004+64217+027767FM-12+014699999V0200901N001019999999N0000001N9+01561+99999098821ADDGF107991999999999999999999
0029028970999991916082620004+64217+027767FM-12+014699999V0200901N001019999999N0000001N9+01111+99999098801ADDGF103991999999999999999999
0046028970999991916082706004+64217+027767FM-12+014699999V0200501N003119999999N0000001N9+01061+99999098711ADDAJ100009199999999GF107991999999999999999999
0029028970999991916082713004+64217+027767FM-12+014699999V0200501N003119999999N0000001N9+01611+99999098601ADDGF107991999999999999999999
0029028970999991916082720004+64217+027767FM-12+014699999V0200501N003119999999N0000001N9+01111+99999098561ADDGF101991999999999999999999
0046028970999991916082806004+64217+027767FM-12+014699999V0200501N005119999999N0000001N9+01111+99999098471ADDAJ100009199999999GF107991999999999999999999
0029028970999991916082813004+64217+027767FM-12+014699999V0200501N007219999999N0000001N9+01561+99999098361ADDGF106991999999999999999999
