0029028360999991917010106004+67367+026650FM-12+018199999V0203601N002119999999N0000001N9-01611+99999098601ADDGF101991999999999999999999
0029028360999991917010113004+67367+026650FM-12+018199999V0209991C000019999999N0000001N9-02561+99999098661ADDGF108991999999999999999999
0029028360999991917010120004+67367+026650FM-12+018199999V0209991C000019999999N0000001N9-02171+99999098661ADDGF106991999999999999999999
0029028360999991917010206004+67367+026650FM-12+018199999V0203601N001019999999N0000001N9-02561+99999098471ADDGF108991999999999999999999
0035028360999991917010213004+67367+026650FM-12+018199999V0209991C000019999999N0000001N9-02501+99999098501ADDGF108991999999999999999999MW1741
0035028360999991917010220004+67367+026650FM-12+018199999V0209991C000019999999N0000001N9-02831+99999098631ADDGF108991999999999999999999MW1741
0035028360999991917010306004+67367+026650FM-12+018199999V0209991C000019999999N0000001N9-02891+99999098741ADDGF108991999999999999999999MW1701
0029028360999991917010313004+67367+026650FM-12+018199999V0209991C000019999999N0000001N9-03561+99999098681ADDGF102991999999999999999999
0029028360999991917010320004+67367+026650FM-12+018199999V0209991C000019999999N0000001N9-03001+99999098581ADDGF108991999999999999999999
0029028360999991917010406004+67367+026650FM-12+018199999V0200201N001019999999N0000001N9-02501+99999098421ADDGF108991999999999999999999
0029028360999991917010413004+67367+026650FM-12+018199999V0209991C000019999999N0000001N9-02891+99999098441ADDGF108991999999999999999999
0029028360999991917010420004+67367+026650FM-12+018199999V0209991C000019999999N0000001N9-02561+99999098311ADDGF108991999999999999999999
0035028360999991917010506004+67367+026650FM-12+018199999V0209991C000019999999N0000001N9-02441+99999098391ADDGF108991999999999999999999MW1701
0029028360999991917010513004+67367+026650FM-12+018199999V0209991C000019999999N0000001N9-02891+99999098441ADDGF108991999999999999999999
0029028360999991917010520004+67367+026650FM-12+018199999V0203601N001019999999N0000001N9-03001+99999098441ADDGF108991999999999999999999
0029028360999991917010606004+67367+026650FM-12+018199999V0203401N001019999999N0000001N9-03281+99999098151ADDGF108991999999999999999999
0029028360999991917010613004+67367+026650FM-12+018199999V0209991C000019999999N0000001N9-03501+99999097881ADDGF108991999999999999999999
0029028360999991917010620004+67367+026650FM-12+018199999V0209991C000019999999N0000001N9-03391+99999097621ADDGF108991999999999999999999
0029028360999991917010706004+67367+026650FM-12+018199999V0209991C000019999999N0000001N9-02611+99999097461ADDGF100991999999999999999999
0029028360999991917010713004+67367+026650FM-12+018199999V0209991C000019999999N0000001N9-03061+99999097901ADDGF108991999999999999999999
0029028360999991917010720004+67367+026650FM-12+018199999V0209991C000019999999N0000001N9-03171+99999098221ADDGF108991999999999999999999
0029028360999991917010806004+67367+026650FM-12+018199999V0209991C000019999999N0000001N9-02501+99999098501ADDGF108991999999999999999999
0029028360999991917010813004+67367+026650FM-12+018199999V0203601N001019999999N0000001N9-02441+99999098671ADDGF108991999999999999999999
0029028360999991917010820004+67367+026650FM-12+018199999V0209991C000019999999N0000001N9-03221+99999099001ADDGF108991999999999999999999
0029028360999991917010906004+67367+026650FM-12+018199999V0209991C000019999999N0000001N9-03781+99999099161ADDGF100991999999999999999999
0029028360999991917010913004+67367+026650FM-12+018199999V0209991C000019999999N0000001N9-03611+99999099221ADDGF108991999999999999999999
0029028360999991917010920004+67367+026650FM-12+018199999V0209991C000019999999N0000001N9-03831+99999099161ADDGF100991999999999999999999
0029028360999991917011006004+67367+026650FM-12+018199999V0201601N001019999999N0000001N9-03171+99999099111ADDGF100991999999999999999999
0029028360999991917011013004+67367+026650FM-12+018199999V0201801N001019999999N0000001N9-02171+99999099061ADDGF108991999999999999999999
0029028360999991917011020004+67367+026650FM-12+018199999V0202001N002119999999N0000001N9-01721+99999098981ADDGF108991999999999999999999
0029028360999991917011106004+67367+026650FM-12+018199999V0202001N001019999999N0000001N9-01391+99999098441ADDGF108991999999999999999999
0035028360999991917011113004+67367+026650FM-12+018199999V0201601N001019999999N0000001N9-01171+99999097761ADDGF108991999999999999999999MW1721
0035028360999991917011120004+67367+026650FM-12+018199999V0202301N005119999999N0000001N9-01171+99999097351ADDGF108991999999999999999999MW1721
0029028360999991917011206004+67367+026650FM-12+018199999V0209991C000019999999N0000001N9-01831+99999097271ADDGF102991999999999999999999
0029028360999991917011213004+67367+026650FM-12+018199999V0209991C000019999999N0000001N9-02111+99999097591ADDGF108991999999999999999999
0029028360999991917011220004+67367+026650FM-12+018199999V0209991C000019999999N0000001N9-02331+99999097991ADDGF100991999999999999999999
0029028360999991917011306004+67367+026650FM-12+018199999V0209991C000019999999N0000001N9-03001+99999098081ADDGF100991999999999999999999
0029028360999991917011313004+67367+026650FM-12+018199999V0202701N003119999999N0000001N9-01331+99999098401ADDGF108991999999999999999999
0029028360999991917011320004+67367+026650FM-12+018199999V0202901N001019999999N0000001N9-02891+99999098721ADDGF100991999999999999999999
0029028360999991917011406004+67367+026650FM-12+018199999V0203401N001019999999N0000001N9-01721+99999099031ADDGF100991999999999999999999
0029028360999991917011413004+67367+026650FM-12+018199999V0209991C000019999999N0000001N9-02721+99999099221ADDGF108991999999999999999999
0029028360999991917011420004+67367+026650FM-12+018199999V0209991C000019999999N0000001N9-03391+99999098861ADDGF100991999999999999999999
0029028360999991917011506004+67367+026650FM-12+018199999V0209991C000019999999N0000001N9-02611+99999098421ADDGF101991999999999999999999
0035028360999991917011513004+67367+026650FM-12+018199999V0201601N003119999999N0000001N9-01561+99999097991ADDGF108991999999999999999999MW1721
0035028360999991917011520004+67367+026650FM-12+018199999V0202001N003119999999N0000001N9-01501+99999097841ADDGF108991999999999999999999MW1721
0035028360999991917011606004+67367+026650FM-12+018199999V0201801N005119999999N0000001N9-00891+99999097601ADDGF108991999999999999999999MW1701
0029028360999991917011613004+67367+026650FM-12+018199999V0201801N003119999999N0000001N9-00561+99999097581ADDGF108991999999999999999999
0029028360999991917011620004+67367+026650FM-12+018199999V0201801N003119999999N0000001N9-00391+99999097271ADDGF101991999999999999999999
0029028360999991917011706004+67367+026650FM-12+018199999V0202701N003119999999N0000001N9-00441+99999097461ADDGF101991999999999999999999
0029028360999991917011713004+67367+026650FM-12+018199999V0202901N001019999999N0000001N9-01111+99999098041ADDGF100991999999999999999999
0029028360999991917011720004+67367+026650FM-12+018199999V0203601N003119999999N0000001N9-01221+99999099031ADDGF100991999999999999999999
0029028360999991917011806004+67367+026650FM-12+018199999V0202701N005119999999N0000001N9-01391+99999099601ADDGF108991999999999999999999
0029028360999991917011813004+67367+026650FM-12+018199999V0202701N005119999999N0000001N9-01171+99999099711ADDGF108991999999999999999999
0029028360999991917011820004+67367+026650FM-12+018199999V0202501N002119999999N0000001N9-00781+99999099831ADDGF108991999999999999999999
0029028360999991917011906004+67367+026650FM-12+018199999V0202701N003119999999N0000001N9-00281+99999100181ADDGF108991999999999999999999
0029028360999991917011913004+67367+026650FM-12+018199999V0202701N004119999999N0000001N9-00331+99999100341ADDGF108991999999999999999999
0029028360999991917011920004+67367+026650FM-12+018199999V0202701N005119999999N0000001N9-00391+99999100551ADDGF100991999999999999999999
0029028360999991917012006004+67367+026650FM-12+018199999V0202701N007219999999N0000001N9-00391+99999100341ADDGF108991999999999999999999
0029028360999991917012013004+67367+026650FM-12+018199999V0202901N007219999999N0000001N9-00061+99999100551ADDGF108991999999999999999999
0029028360999991917012020004+67367+026650FM-12+018199999V0209991C000019999999N0000001N9-00501+99999100601ADDGF108991999999999999999999
0029028360999991917012106004+67367+026650FM-12+018199999V0201801N001019999999N0000001N9-00331+99999099911ADDGF108991999999999999999999
0029028360999991917012113004+67367+026650FM-12+018199999V0202501N006219999999N0000001N9-00061+99999099401ADDGF108991999999999999999999
0029028360999991917012120004+67367+026650FM-12+018199999V0202501N001019999999N0000001N9-00281+99999099021ADDGF100991999999999999999999
0029028360999991917012206004+67367+026650FM-12+018199999V0203201N001019999999N0000001N9-00441+99999099231ADDGF101991999999999999999999
0035028360999991917012213004+67367+026650FM-12+018199999V0203401N004119999999N0000001N9-00281+99999099781ADDGF108991999999999999999999MW1701
0029028360999991917012220004+67367+026650FM-12+018199999V0203401N001019999999N0000001N9-00611+99999100401ADDGF108991999999999999999999
0029028360999991917012306004+67367+026650FM-12+018199999V0209991C000019999999N0000001N9-00721+99999100361ADDGF108991999999999999999999
0035028360999991917012313004+67367+026650FM-12+018199999V0203201N003119999999N0000001N9-00281+99999100071ADDGF108991999999999999999999MW1701
0029028360999991917012320004+67367+026650FM-12+018199999V0203201N001019999999N0000001N9+00061+99999100231ADDGF108991999999999999999999
0029028360999991917012406004+67367+026650FM-12+018199999V0202501N002119999999N0000001N9-00331+99999099561ADDGF108991999999999999999999
0035028360999991917012413004+67367+026650FM-12+018199999V0202901N003119999999N0000001N9-00331+99999098901ADDGF108991999999999999999999MW1721
0029028360999991917012420004+67367+026650FM-12+018199999V0203601N005119999999N0000001N9-00221+99999098951ADDGF108991999999999999999999
0029028360999991917012506004+67367+026650FM-12+018199999V0203601N006219999999N0000001N9-00391+99999099701ADDGF100991999999999999999999
0029028360999991917012513004+67367+026650FM-12+018199999V0203601N001019999999N0000001N9-01061+99999099911ADDGF101991999999999999999999
0029028360999991917012520004+67367+026650FM-12+018199999V0201801N001019999999N0000001N9-01891+99999099721ADDGF108991999999999999999999
0029028360999991917012606004+67367+026650FM-12+018199999V0203201N003119999999N0000001N9-00221+99999099431ADDGF108991999999999999999999
0029028360999991917012613004+67367+026650FM-12+018199999V0203401N003119999999N0000001N9-00171+99999099441ADDGF108991999999999999999999
0029028360999991917012620004+67367+026650FM-12+018199999V0203201N004119999999N0000001N9-00171+99999099591ADDGF108991999999999999999999
0029028360999991917012706004+67367+026650FM-12+018199999V0203401N005119999999N0000001N9-00171+99999099431ADDGF108991999999999999999999
0035028360999991917012713004+67367+026650FM-12+018199999V0203201N003119999999N0000001N9-00111+99999099351ADDGF108991999999999999999999MW1701
0029028360999991917012720004+67367+026650FM-12+018199999V0203201N001019999999N0000001N9-00331+99999099301ADDGF108991999999999999999999
0035028360999991917012806004+67367+026650FM-12+018199999V0200201N001019999999N0000001N9-00561+99999099141ADDGF108991999999999999999999MW1701
0035028360999991917012813004+67367+026650FM-12+018199999V0200201N001019999999N0000001N9-00891+99999099241ADDGF108991999999999999999999MW1701
0035028360999991917012820004+67367+026650FM-12+018199999V0200201N005119999999N0000001N9-01171+99999099401ADDGF108991999999999999999999MW1701
0029028360999991917012906004+67367+026650FM-12+018199999V0203601N003119999999N0000001N9-01561+99999099591ADDGF101991999999999999999999
0029028360999991917012913004+67367+026650FM-12+018199999V0203401N001019999999N0000001N9-01831+99999099591ADDGF108991999999999999999999
0029028360999991917012920004+67367+026650FM-12+018199999V0203401N001019999999N0000001N9-03221+99999099271ADDGF107991999999999999999999
0035028360999991917013006004+67367+026650FM-12+018199999V0201401N004119999999N0000001N9-01611+99999098361ADDGF108991999999999999999999MW1721
0029028360999991917013013004+67367+026650FM-12+018199999V0201401N001019999999N0000001N9-01501+99999098421ADDGF108991999999999999999999
0035028360999991917013020004+67367+026650FM-12+018199999V0200201N001019999999N0000001N9-01831+99999098741ADDGF108991999999999999999999MW1701
0029028360999991917013106004+67367+026650FM-12+018199999V0209991C000019999999N0000001N9-02561+99999098631ADDGF108991999999999999999999
0035028360999991917013113004+67367+026650FM-12+018199999V0201601N006219999999N0000001N9-01941+99999097631ADDGF108991999999999999999999MW1721
0035028360999991917013120004+67367+026650FM-12+018199999V0200501N007219999999N0000001N9-01611+99999097801ADDGF108991999999999999999999MW1721
0029028360999991917020106004+67367+026650FM-12+018199999V0203201N001019999999N0000001N9-02281+99999098641ADDGF108991999999999999999999
0029028360999991917020113004+67367+026650FM-12+018199999V0203401N002119999999N0000001N9-02221+99999098761ADDGF108991999999999999999999
0029028360999991917020120004+67367+026650FM-12+018199999V0209991C000019999999N0000001N9-03671+99999099081ADDGF100991999999999999999999
0029028360999991917020206004+67367+026650FM-12+018199999V0209991C000019999999N0000001N9-03441+99999099381ADDGF108991999999999999999999
0029028360999991917020213004+67367+026650FM-12+018199999V0209991C000019999999N0000001N9-03281+99999099511ADDGF107991999999999999999999
0029028360999991917020220004+67367+026650FM-12+018199999V0209991C000019999999N0000001N9-04331+99999099581ADDGF100991999999999999999999
0029028360999991917020306004+67367+026650FM-12+018199999V0209991C000019999999N0000001N9-04561+99999099551ADDGF100991999999999999999999
0035028360999991917020313004+67367+026650FM-12+018199999V0201601N004119999999N0000001N9-02781+99999099421ADDGF108991999999999999999999MW1701
0035028360999991917020320004+67367+026650FM-12+018199999V0202301N005119999999N0000001N9-01721+99999099021ADDGF108991999999999999999999MW1701
0029028360999991917020406004+67367+026650FM-12+018199999V0201801N003119999999N0000001N9-01891+99999098911ADDGF108991999999999999999999
0035028360999991917020413004+67367+026650FM-12+018199999V0202001N002119999999N0000001N9-01561+99999098781ADDGF108991999999999999999999MW1701
0035028360999991917020420004+67367+026650FM-12+018199999V0202301N007219999999N0000001N9-00891+99999098461ADDGF108991999999999999999999MW1701
0035028360999991917020506004+67367+026650FM-12+018199999V0202301N008719999999N0000001N9-01221+99999098441ADDGF108991999999999999999999MW1721
0035028360999991917020513004+67367+026650FM-12+018199999V0202001N007219999999N0000001N9-01501+99999098541ADDGF108991999999999999999999MW1741
0035028360999991917020520004+67367+026650FM-12+018199999V0202001N003119999999N0000001N9-01501+99999098361ADDGF108991999999999999999999MW1701
0035028360999991917020606004+67367+026650FM-12+018199999V0202001N001019999999N0000001N9-01501+99999098631ADDGF108991999999999999999999MW1701
0035028360999991917020613004+67367+026650FM-12+018199999V0209991C000019999999N0000001N9-01501+99999099061ADDGF108991999999999999999999MW1701
0029028360999991917020620004+67367+026650FM-12+018199999V0209991C000019999999N0000001N9-03061+99999099591ADDGF100991999999999999999999
0029028360999991917020706004+67367+026650FM-12+018199999V0209991C000019999999N0000001N9-03781+99999099961ADDGF102991999999999999999999
0029028360999991917020713004+67367+026650FM-12+018199999V0209991C000019999999N0000001N9-02611+99999099671ADDGF108991999999999999999999
0029028360999991917020720004+67367+026650FM-12+018199999V0202001N003119999999N0000001N9-02331+99999099421ADDGF108991999999999999999999
0029028360999991917020806004+67367+026650FM-12+018199999V0202001N002119999999N0000001N9-02001+99999098761ADDGF100991999999999999999999
0035028360999991917020813004+67367+026650FM-12+018199999V0201601N005119999999N0000001N9-01171+99999097911ADDGF108991999999999999999999MW1721
0035028360999991917020820004+67367+026650FM-12+018199999V0202001N002119999999N0000001N9-00501+99999096561ADDGF108991999999999999999999MW1721
0029028360999991917020906004+67367+026650FM-12+018199999V0202701N005119999999N0000001N9-00221+99999095961ADDGF106991999999999999999999
0029028360999991917020913004+67367+026650FM-12+018199999V0203201N005119999999N0000001N9-00391+99999096021ADDGF100991999999999999999999
0029028360999991917020920004+67367+026650FM-12+018199999V0209991C000019999999N0000001N9-00831+99999095991ADDGF108991999999999999999999
0035028360999991917021006004+67367+026650FM-12+018199999V0203601N004119999999N0000001N9-01001+99999095991ADDGF108991999999999999999999MW1701
0035028360999991917021013004+67367+026650FM-12+018199999V0203601N007219999999N0000001N9-00781+99999096581ADDGF108991999999999999999999MW1701
0035028360999991917021020004+67367+026650FM-12+018199999V0200201N005119999999N0000001N9-00781+99999097111ADDGF108991999999999999999999MW1701
0029028360999991917021106004+67367+026650FM-12+018199999V0203401N003119999999N0000001N9-00941+99999097701ADDGF108991999999999999999999
0029028360999991917021113004+67367+026650FM-12+018199999V0203601N005119999999N0000001N9-00891+99999097991ADDGF100991999999999999999999
0029028360999991917021120004+67367+026650FM-12+018199999V0203201N001019999999N0000001N9-02221+99999097981ADDGF100991999999999999999999
0029028360999991917021206004+67367+026650FM-12+018199999V0202301N005119999999N0000001N9-01221+99999096801ADDGF108991999999999999999999
0035028360999991917021213004+67367+026650FM-12+018199999V0203201N015919999999N0000001N9-00941+99999096481ADDGF108991999999999999999999MW1721
0029028360999991917021220004+67367+026650FM-12+018199999V0203401N015919999999N0000001N9-01441+99999097351ADDGF100991999999999999999999
0029028360999991917021306004+67367+026650FM-12+018199999V0202901N004119999999N0000001N9-02061+99999097701ADDGF108991999999999999999999
0035028360999991917021313004+67367+026650FM-12+018199999V0201601N007219999999N0000001N9-01671+99999096261ADDGF108991999999999999999999MW1721
0054028360999991917021320004+67367+026650FM-12+018199999V0201401N001019999999N0000001N9-01441+99999999999ADDGF108991999999999999999999MW1721EQDQ01 104393APOSLP
0029028360999991917021406004+67367+026650FM-12+018199999V0200201N006219999999N0000001N9-01671+99999095221ADDGF108991999999999999999999
0029028360999991917021413004+67367+026650FM-12+018199999V0203601N007219999999N0000001N9-01221+99999097111ADDGF100991999999999999999999
0029028360999991917021420004+67367+026650FM-12+018199999V0209991C000019999999N0000001N9-02281+99999098021ADDGF100991999999999999999999
0029028360999991917021506004+67367+026650FM-12+018199999V0209991C000019999999N0000001N9-03221+99999097831ADDGF108991999999999999999999
0035028360999991917021513004+67367+026650FM-12+018199999V0200901N001019999999N0000001N9-01721+99999097541ADDGF108991999999999999999999MW1721
0035028360999991917021520004+67367+026650FM-12+018199999V0209991C000019999999N0000001N9-01721+99999097201ADDGF108991999999999999999999MW1721
0029028360999991917021606004+67367+026650FM-12+018199999V0203401N003119999999N0000001N9-03171+99999097791ADDGF100991999999999999999999
0029028360999991917021613004+67367+026650FM-12+018199999V0202901N001019999999N0000001N9-01831+99999098221ADDGF100991999999999999999999
0029028360999991917021620004+67367+026650FM-12+018199999V0209991C000019999999N0000001N9-03061+99999098521ADDGF100991999999999999999999
0029028360999991917021706004+67367+026650FM-12+018199999V0203201N001019999999N0000001N9-02721+99999098591ADDGF100991999999999999999999
0029028360999991917021713004+67367+026650FM-12+018199999V0203601N004119999999N0000001N9-01941+99999099191ADDGF105991999999999999999999
0029028360999991917021720004+67367+026650FM-12+018199999V0203601N001019999999N0000001N9-03501+99999099901ADDGF100991999999999999999999
0029028360999991917021806004+67367+026650FM-12+018199999V0209991C000019999999N0000001N9-04721+99999100121ADDGF100991999999999999999999
0029028360999991917021813004+67367+026650FM-12+018199999V0209991C000019999999N0000001N9-02831+99999100181ADDGF100991999999999999999999
0029028360999991917021820004+67367+026650FM-12+018199999V0209991C000019999999N0000001N9-04781+99999100161ADDGF100991999999999999999999
0029028360999991917021906004+67367+026650FM-12+018199999V0203401N002119999999N0000001N9-03721+99999100181ADDGF108991999999999999999999
0029028360999991917021913004+67367+026650FM-12+018199999V0209991C000019999999N0000001N9-02561+99999100341ADDGF101991999999999999999999
0035028360999991917021920004+67367+026650FM-12+018199999V0209991C000019999999N0000001N9-04061+99999100201ADDGF100991999999999999999999MW1721
0029028360999991917022006004+67367+026650FM-12+018199999V0201801N003119999999N0000001N9-03831+99999099561ADDGF108991999999999999999999
0029028360999991917022013004+67367+026650FM-12+018199999V0202001N003119999999N0000001N9-02331+99999098951ADDGF108991999999999999999999
0035028360999991917022020004+67367+026650FM-12+018199999V0202301N005119999999N0000001N9-01781+99999097751ADDGF108991999999999999999999MW1721
0029028360999991917022106004+67367+026650FM-12+018199999V0203201N007219999999N0000001N9-01501+99999097541ADDGF100991999999999999999999
0029028360999991917022113004+67367+026650FM-12+018199999V0203201N007219999999N0000001N9-01281+99999098001ADDGF107991999999999999999999
0029028360999991917022120004+67367+026650FM-12+018199999V0203201N004119999999N0000001N9-01501+99999098361ADDGF108991999999999999999999
0029028360999991917022206004+67367+026650FM-12+018199999V0203401N004119999999N0000001N9-02391+99999099221ADDGF100991999999999999999999
0029028360999991917022213004+67367+026650FM-12+018199999V0203201N001019999999N0000001N9-01721+99999099481ADDGF100991999999999999999999
0029028360999991917022220004+67367+026650FM-12+018199999V0209991C000019999999N0000001N9-03391+99999099601ADDGF100991999999999999999999
0029028360999991917022306004+67367+026650FM-12+018199999V0202001N002119999999N0000001N9-03391+99999099511ADDGF108991999999999999999999
0029028360999991917022313004+67367+026650FM-12+018199999V0202001N003119999999N0000001N9-01611+99999098901ADDGF108991999999999999999999
0035028360999991917022320004+67367+026650FM-12+018199999V0202301N005119999999N0000001N9-01111+99999097901ADDGF108991999999999999999999MW1721
0029028360999991917022406004+67367+026650FM-12+018199999V0202501N003119999999N0000001N9-00721+99999097191ADDGF108991999999999999999999
0029028360999991917022413004+67367+026650FM-12+018199999V0202501N002119999999N0000001N9-00391+99999097081ADDGF108991999999999999999999
0035028360999991917022420004+67367+026650FM-12+018199999V0209991C000019999999N0000001N9-00671+99999096431ADDGF108991999999999999999999MW1721
0035028360999991917022506004+67367+026650FM-12+018199999V0203601N005119999999N0000001N9-00561+99999097431ADDGF108991999999999999999999MW1721
0035028360999991917022513004+67367+026650FM-12+018199999V0200501N003119999999N0000001N9-00561+99999098231ADDGF108991999999999999999999MW1721
0029028360999991917022520004+67367+026650FM-12+018199999V0209991C000019999999N0000001N9-01171+99999098661ADDGF108991999999999999999999
0029028360999991917022606004+67367+026650FM-12+018199999V0201401N003119999999N0000001N9-01281+99999098351ADDGF108991999999999999999999
0029028360999991917022613004+67367+026650FM-12+018199999V0201801N005119999999N0000001N9-00721+99999097521ADDGF108991999999999999999999
0035028360999991917022620004+67367+026650FM-12+018199999V0202001N005119999999N0000001N9-00671+99999098101ADDGF108991999999999999999999MW1721
0035028360999991917022706004+67367+026650FM-12+018199999V0201801N003119999999N0000001N9-00831+99999098551ADDGF108991999999999999999999MW1721
0029028360999991917022713004+67367+026650FM-12+018199999V0202301N002119999999N0000001N9-00671+99999098991ADDGF108991999999999999999999
0029028360999991917022720004+67367+026650FM-12+018199999V0202501N001019999999N0000001N9-00721+99999099391ADDGF108991999999999999999999
0029028360999991917022806004+67367+026650FM-12+018199999V0202001N003119999999N0000001N9-00891+99999099481ADDGF108991999999999999999999
0029028360999991917022813004+67367+026650FM-12+018199999V0202001N003119999999N0000001N9-00831+99999099201ADDGF108991999999999999999999
0029028360999991917022820004+67367+026650FM-12+018199999V0202001N003119999999N0000001N9-00891+99999099241ADDGF108991999999999999999999
0035028360999991917030106004+67367+026650FM-12+018199999V0201601N003119999999N0000001N9-00941+99999099321ADDGF108991999999999999999999MW1721
0035028360999991917030113004+67367+026650FM-12+018199999V0201601N003119999999N0000001N9-00891+99999099751ADDGF108991999999999999999999MW1721
0029028360999991917030120004+67367+026650FM-12+018199999V0201801N003119999999N0000001N9-01501+99999100381ADDGF108991999999999999999999
0029028360999991917030206004+67367+026650FM-12+018199999V0202001N002119999999N0000001N9-01001+99999100751ADDGF108991999999999999999999
0035028360999991917030213004+67367+026650FM-12+018199999V0202001N005119999999N0000001N9-00941+99999101081ADDGF108991999999999999999999MW1721
0029028360999991917030220004+67367+026650FM-12+018199999V0202301N002119999999N0000001N9-01111+99999101241ADDGF108991999999999999999999
0035028360999991917030306004+67367+026650FM-12+018199999V0202501N001019999999N0000001N9-01281+99999101321ADDGF108991999999999999999999MW1701
0035028360999991917030313004+67367+026650FM-12+018199999V0202501N001019999999N0000001N9-01221+99999101221ADDGF108991999999999999999999MW1701
0035028360999991917030320004+67367+026650FM-12+018199999V0202301N001019999999N0000001N9-01391+99999101271ADDGF108991999999999999999999MW1701
0035028360999991917030406004+67367+026650FM-12+018199999V0209991C000019999999N0000001N9-01671+99999101271ADDGF108991999999999999999999MW1701
0029028360999991917030413004+67367+026650FM-12+018199999V0202501N002119999999N0000001N9-01281+99999101401ADDGF100991999999999999999999
0029028360999991917030420004+67367+026650FM-12+018199999V0209991C000019999999N0000001N9-02391+99999101401ADDGF100991999999999999999999
0029028360999991917030506004+67367+026650FM-12+018199999V0209991C000019999999N0000001N9-02671+99999101481ADDGF100991999999999999999999
0029028360999991917030513004+67367+026650FM-12+018199999V0209991C000019999999N0000001N9-01171+99999101541ADDGF100991999999999999999999
0029028360999991917030520004+67367+026650FM-12+018199999V0209991C000019999999N0000001N9-02281+99999101541ADDGF100991999999999999999999
0029028360999991917030606004+67367+026650FM-12+018199999V0209991C000019999999N0000001N9-01171+99999101541ADDGF108991999999999999999999
0035028360999991917030613004+67367+026650FM-12+018199999V0202701N002119999999N0000001N9-00891+99999101461ADDGF108991999999999999999999MW1701
0035028360999991917030620004+67367+026650FM-12+018199999V0209991C000019999999N0000001N9-01171+99999101241ADDGF108991999999999999999999MW1701
0029028360999991917030706004+67367+026650FM-12+018199999V0203601N003119999999N0000001N9-00781+99999101191ADDGF108991999999999999999999
0029028360999991917030713004+67367+026650FM-12+018199999V0200501N004119999999N0000001N9-00281+99999101311ADDGF107991999999999999999999
0029028360999991917030720004+67367+026650FM-12+018199999V0209991C000019999999N0000001N9-00831+99999101461ADDGF108991999999999999999999
0029028360999991917030806004+67367+026650FM-12+018199999V0209991C000019999999N0000001N9-03061+99999101481ADDGF100991999999999999999999
0029028360999991917030813004+67367+026650FM-12+018199999V0209991C000019999999N0000001N9-00891+99999101321ADDGF100991999999999999999999
0029028360999991917030820004+67367+026650FM-12+018199999V0209991C000019999999N0000001N9-02721+99999101151ADDGF100991999999999999999999
0029028360999991917030906004+67367+026650FM-12+018199999V0209991C000019999999N0000001N9-03611+99999100961ADDGF100991999999999999999999
0029028360999991917030913004+67367+026650FM-12+018199999V0209991C000019999999N0000001N9-00941+99999100661ADDGF100991999999999999999999
0029028360999991917030920004+67367+026650FM-12+018199999V0209991C000019999999N0000001N9-02721+99999100301ADDGF104991999999999999999999
0029028360999991917031006004+67367+026650FM-12+018199999V0209991C000019999999N0000001N9-03611+99999100031ADDGF100991999999999999999999
0029028360999991917031013004+67367+026650FM-12+018199999V0209991C000019999999N0000001N9-01441+99999099841ADDGF101991999999999999999999
0029028360999991917031020004+67367+026650FM-12+018199999V0209991C000019999999N0000001N9-02721+99999099511ADDGF106991999999999999999999
0029028360999991917031106004+67367+026650FM-12+018199999V0209991C000019999999N0000001N9-02561+99999099431ADDGF108991999999999999999999
0029028360999991917031113004+67367+026650FM-12+018199999V0203201N001019999999N0000001N9-01391+99999099141ADDGF108991999999999999999999
0035028360999991917031120004+67367+026650FM-12+018199999V0209991C000019999999N0000001N9-01501+99999099221ADDGF101991999999999999999999MW1701
0029028360999991917031206004+67367+026650FM-12+018199999V0200201N003119999999N0000001N9-01391+99999099671ADDGF108991999999999999999999
0029028360999991917031213004+67367+026650FM-12+018199999V0200501N005119999999N0000001N9-01061+99999099941ADDGF101991999999999999999999
0029028360999991917031220004+67367+026650FM-12+018199999V0209991C000019999999N0000001N9-02721+99999100141ADDGF100991999999999999999999
0029028360999991917031306004+67367+026650FM-12+018199999V0202301N002119999999N0000001N9-02781+99999099681ADDGF101991999999999999999999
0029028360999991917031313004+67367+026650FM-12+018199999V0202501N005119999999N0000001N9-00941+99999098981ADDGF102991999999999999999999
0029028360999991917031320004+67367+026650FM-12+018199999V0202301N001019999999N0000001N9-01171+99999098471ADDGF108991999999999999999999
0029028360999991917031406004+67367+026650FM-12+018199999V0201801N003119999999N0000001N9-01611+99999097821ADDGF108991999999999999999999
0035028360999991917031413004+67367+026650FM-12+018199999V0201101N001019999999N0000001N9-01391+99999097781ADDGF108991999999999999999999MW1701
0029028360999991917031420004+67367+026650FM-12+018199999V0200501N006219999999N0000001N9-01441+99999097941ADDGF102991999999999999999999
0029028360999991917031506004+67367+026650FM-12+018199999V0209991C000019999999N0000001N9-02831+99999098321ADDGF108991999999999999999999
0029028360999991917031513004+67367+026650FM-12+018199999V0203201N003119999999N0000001N9-01281+99999098581ADDGF101991999999999999999999
0029028360999991917031520004+67367+026650FM-12+018199999V0203601N003119999999N0000001N9-02331+99999099081ADDGF100991999999999999999999
0029028360999991917031606004+67367+026650FM-12+018199999V0209991C000019999999N0000001N9-03781+99999099551ADDGF100991999999999999999999
0029028360999991917031613004+67367+026650FM-12+018199999V0202901N003119999999N0000001N9-01171+99999099421ADDGF100991999999999999999999
0029028360999991917031620004+67367+026650FM-12+018199999V0209991C000019999999N0000001N9-03001+99999099221ADDGF100991999999999999999999
0029028360999991917031706004+67367+026650FM-12+018199999V0209991C000019999999N0000001N9-03941+99999099241ADDGF100991999999999999999999
0029028360999991917031713004+67367+026650FM-12+018199999V0202901N003119999999N0000001N9-01171+99999099191ADDGF106991999999999999999999
0029028360999991917031720004+67367+026650FM-12+018199999V0203401N001019999999N0000001N9-02781+99999099231ADDGF100991999999999999999999
0029028360999991917031806004+67367+026650FM-12+018199999V0209991C000019999999N0000001N9-03831+99999099031ADDGF100991999999999999999999
0029028360999991917031813004+67367+026650FM-12+018199999V0203401N003119999999N0000001N9-01221+99999098821ADDGF101991999999999999999999
0029028360999991917031820004+67367+026650FM-12+018199999V0203401N001019999999N0000001N9-03111+99999098471ADDGF100991999999999999999999
0029028360999991917031906004+67367+026650FM-12+018199999V0203401N002119999999N0000001N9-03781+99999098281ADDGF108991999999999999999999
0029028360999991917031913004+67367+026650FM-12+018199999V0209991C000019999999N0000001N9-01611+99999098341ADDGF108991999999999999999999
0029028360999991917031920004+67367+026650FM-12+018199999V0209991C000019999999N0000001N9-02941+99999098261ADDGF100991999999999999999999
0029028360999991917032006004+67367+026650FM-12+018199999V0209991C000019999999N0000001N9-03941+99999098341ADDGF100991999999999999999999
0029028360999991917032013004+67367+026650FM-12+018199999V0202901N001019999999N0000001N9-01221+99999098231ADDGF100991999999999999999999
0029028360999991917032020004+67367+026650FM-12+018199999V0209991C000019999999N0000001N9-02941+99999097951ADDGF100991999999999999999999
0029028360999991917032106004+67367+026650FM-12+018199999V0201401N002119999999N0000001N9-02171+99999098121ADDGF108991999999999999999999
0029028360999991917032113004+67367+026650FM-12+018199999V0202501N006219999999N0000001N9-01391+99999098181ADDGF108991999999999999999999
0029028360999991917032120004+67367+026650FM-12+018199999V0202301N007219999999N0000001N9-01441+99999098421ADDGF108991999999999999999999
0035028360999991917032206004+67367+026650FM-12+018199999V0201601N001019999999N0000001N9-01781+99999098901ADDGF108991999999999999999999MW1701
0029028360999991917032213004+67367+026650FM-12+018199999V0202701N003119999999N0000001N9-01111+99999099111ADDGF100991999999999999999999
0029028360999991917032220004+67367+026650FM-12+018199999V0202701N001019999999N0000001N9-02111+99999099271ADDGF100991999999999999999999
0029028360999991917032306004+67367+026650FM-12+018199999V0202001N007219999999N0000001N9-01611+99999098301ADDGF106991999999999999999999
0035028360999991917032313004+67367+026650FM-12+018199999V0201801N007219999999N0000001N9-00891+99999097721ADDGF108991999999999999999999MW1701
0035028360999991917032320004+67367+026650FM-12+018199999V0201801N001019999999N0000001N9-00781+99999097521ADDGF108991999999999999999999MW1741
0029028360999991917032406004+67367+026650FM-12+018199999V0203201N003119999999N0000001N9-00941+99999098231ADDGF100991999999999999999999
0029028360999991917032413004+67367+026650FM-12+018199999V0203201N002119999999N0000001N9-00061+99999098501ADDGF100991999999999999999999
0029028360999991917032420004+67367+026650FM-12+018199999V0201801N003119999999N0000001N9-00281+99999098021ADDGF108991999999999999999999
0035028360999991917032506004+67367+026650FM-12+018199999V0201801N003119999999N0000001N9-00221+99999096781ADDGF108991999999999999999999MW1721
0029028360999991917032513004+67367+026650FM-12+018199999V0202001N005119999999N0000001N9+00221+99999096201ADDGF108991999999999999999999
0035028360999991917032520004+67367+026650FM-12+018199999V0202001N003119999999N0000001N9+00061+99999095781ADDGF108991999999999999999999MW1721
0029028360999991917032606004+67367+026650FM-12+018199999V0202501N004119999999N0000001N9-00171+99999095701ADDGF108991999999999999999999
0029028360999991917032613004+67367+026650FM-12+018199999V0203201N007219999999N0000001N9-00331+99999096271ADDGF108991999999999999999999
0029028360999991917032620004+67367+026650FM-12+018199999V0203201N003119999999N0000001N9-01001+99999096821ADDGF102991999999999999999999
0029028360999991917032706004+67367+026650FM-12+018199999V0203401N003119999999N0000001N9-01611+99999097511ADDGF100991999999999999999999
0029028360999991917032713004+67367+026650FM-12+018199999V0203601N005119999999N0000001N9-01221+99999098061ADDGF100991999999999999999999
0029028360999991917032720004+67367+026650FM-12+018199999V0201601N001019999999N0000001N9-02061+99999098181ADDGF100991999999999999999999
0035028360999991917032806004+67367+026650FM-12+018199999V0202001N006219999999N0000001N9-01171+99999096871ADDGF108991999999999999999999MW1721
0029028360999991917032813004+67367+026650FM-12+018199999V0202301N007219999999N0000001N9-00391+99999096601ADDGF108991999999999999999999
0029028360999991917032820004+67367+026650FM-12+018199999V0203201N001019999999N0000001N9-00671+99999097281ADDGF100991999999999999999999
0035028360999991917032906004+67367+026650FM-12+018199999V0209991C000019999999N0000001N9-01061+99999097551ADDGF108991999999999999999999MW1721
0029028360999991917032913004+67367+026650FM-12+018199999V0201801N003119999999N0000001N9-00111+99999097541ADDGF104991999999999999999999
0035028360999991917032920004+67367+026650FM-12+018199999V0201801N003119999999N0000001N9-00441+99999097591ADDGF108991999999999999999999MW1701
0029028360999991917033006004+67367+026650FM-12+018199999V0202001N005119999999N0000001N9-00281+99999097431ADDGF108991999999999999999999
0029028360999991917033013004+67367+026650FM-12+018199999V0202001N007219999999N0000001N9-00221+99999097621ADDGF108991999999999999999999
0029028360999991917033020004+67367+026650FM-12+018199999V0201801N006219999999N0000001N9-00221+99999097621ADDGF108991999999999999999999
0029028360999991917033106004+67367+026650FM-12+018199999V0209991C000019999999N0000001N9-00831+99999097271ADDGF108991999999999999999999
0029028360999991917033113004+67367+026650FM-12+018199999V0201401N004119999999N0000001N9-00281+99999096821ADDGF108991999999999999999999
0035028360999991917033120004+67367+026650FM-12+018199999V0201401N003119999999N0000001N9-00331+99999096791ADDGF108991999999999999999999MW1721
0035028360999991917040106004+67367+026650FM-12+018199999V0201801N005119999999N0000001N9-00331+99999096981ADDGF108991999999999999999999MW1721
0029028360999991917040113004+67367+026650FM-12+018199999V0202301N005119999999N0000001N9-00111+99999097121ADDGF108991999999999999999999
0029028360999991917040120004+67367+026650FM-12+018199999V0202901N001019999999N0000001N9-00331+99999097301ADDGF108991999999999999999999
0035028360999991917040206004+67367+026650FM-12+018199999V0209991C000019999999N0000001N9-01501+99999097621ADDGF108991999999999999999999MW1721
0029028360999991917040213004+67367+026650FM-12+018199999V0203601N007219999999N0000001N9-00441+99999098121ADDGF108991999999999999999999
0029028360999991917040220004+67367+026650FM-12+018199999V0203601N005119999999N0000001N9-00941+99999098621ADDGF108991999999999999999999
0029028360999991917040306004+67367+026650FM-12+018199999V0203401N001019999999N0000001N9-01441+99999099031ADDGF108991999999999999999999
0029028360999991917040313004+67367+026650FM-12+018199999V0203601N001019999999N0000001N9-00891+99999099301ADDGF102991999999999999999999
0029028360999991917040320004+67367+026650FM-12+018199999V0209991C000019999999N0000001N9-02441+99999099281ADDGF100991999999999999999999
0029028360999991917040406004+67367+026650FM-12+018199999V0209991C000019999999N0000001N9-03111+99999099351ADDGF107991999999999999999999
0029028360999991917040413004+67367+026650FM-12+018199999V0201401N002119999999N0000001N9-00561+99999099221ADDGF102991999999999999999999
0029028360999991917040420004+67367+026650FM-12+018199999V0201801N001019999999N0000001N9-01171+99999099111ADDGF102991999999999999999999
0035028360999991917040506004+67367+026650FM-12+018199999V0201601N001019999999N0000001N9-01061+99999098921ADDGF108991999999999999999999MW1701
0029028360999991917040513004+67367+026650FM-12+018199999V0201601N001019999999N0000001N9-00391+99999098761ADDGF108991999999999999999999
0029028360999991917040520004+67367+026650FM-12+018199999V0209991C000019999999N0000001N9-01561+99999098581ADDGF100991999999999999999999
0035028360999991917040606004+67367+026650FM-12+018199999V0201601N003119999999N0000001N9-01171+99999098661ADDGF108991999999999999999999MW1721
0029028360999991917040613004+67367+026650FM-12+018199999V0201801N008219999999N0000001N9-00441+99999098721ADDGF108991999999999999999999
0035028360999991917040620004+67367+026650FM-12+018199999V0201801N007219999999N0000001N9-00611+99999098591ADDGF108991999999999999999999MW1721
0035028360999991917040706004+67367+026650FM-12+018199999V0202001N006219999999N0000001N9-00501+99999098381ADDGF108991999999999999999999MW1721
0029028360999991917040713004+67367+026650FM-12+018199999V0201801N007219999999N0000001N9-00061+99999098071ADDGF108991999999999999999999
0035028360999991917040720004+67367+026650FM-12+018199999V0209991C000019999999N0000001N9-00281+99999097711ADDGF108991999999999999999999MW1721
0029028360999991917040806004+67367+026650FM-12+018199999V0203201N003119999999N0000001N9-00561+99999098311ADDGF100991999999999999999999
0029028360999991917040813004+67367+026650FM-12+018199999V0203401N005119999999N0000001N9-00331+99999099081ADDGF100991999999999999999999
0029028360999991917040820004+67367+026650FM-12+018199999V0209991C000019999999N0000001N9-01781+99999099381ADDGF100991999999999999999999
0029028360999991917040906004+67367+026650FM-12+018199999V0201601N001019999999N0000001N9-01561+99999099321ADDGF104991999999999999999999
0029028360999991917040913004+67367+026650FM-12+018199999V0201401N005119999999N0000001N9-00221+99999099081ADDGF108991999999999999999999
0029028360999991917040920004+67367+026650FM-12+018199999V0201101N001019999999N0000001N9-01171+99999098841ADDGF101991999999999999999999
0029028360999991917041006004+67367+026650FM-12+018199999V0209991C000019999999N0000001N9-01501+99999098951ADDGF108991999999999999999999
0029028360999991917041013004+67367+026650FM-12+018199999V0203401N003119999999N0000001N9-00281+99999099031ADDGF108991999999999999999999
0035028360999991917041020004+67367+026650FM-12+018199999V0200501N002119999999N0000001N9-00331+99999099021ADDGF108991999999999999999999MW1701
0035028360999991917041106004+67367+026650FM-12+018199999V0200901N004119999999N0000001N9-00501+99999098921ADDGF108991999999999999999999MW1721
0035028360999991917041113004+67367+026650FM-12+018199999V0201101N001019999999N0000001N9-00221+99999098551ADDGF108991999999999999999999MW1721
0035028360999991917041120004+67367+026650FM-12+018199999V0200201N004119999999N0000001N9-00501+99999098021ADDGF108991999999999999999999MW1721
0035028360999991917041206004+67367+026650FM-12+018199999V0200901N007219999999N0000001N9-00281+99999097271ADDGF108991999999999999999999MW1701
0035028360999991917041213004+67367+026650FM-12+018199999V0201801N001019999999N0000001N9-00061+99999097351ADDGF108991999999999999999999MW1701
0035028360999991917041220004+67367+026650FM-12+018199999V0201401N001019999999N0000001N9-00281+99999097201ADDGF108991999999999999999999MW1701
0035028360999991917041306004+67367+026650FM-12+018199999V0201601N001019999999N0000001N9-00561+99999096961ADDGF108991999999999999999999MW1721
0035028360999991917041313004+67367+026650FM-12+018199999V0201601N002119999999N0000001N9+00001+99999096941ADDGF108991999999999999999999MW1721
0035028360999991917041320004+67367+026650FM-12+018199999V0202001N005119999999N0000001N9-00111+99999097341ADDGF108991999999999999999999MW1721
0029028360999991917041406004+67367+026650FM-12+018199999V0202001N006219999999N0000001N9-00061+99999097301ADDGF108991999999999999999999
0029028360999991917041413004+67367+026650FM-12+018199999V0201801N001019999999N0000001N9+00171+99999097311ADDGF108991999999999999999999
0029028360999991917041420004+67367+026650FM-12+018199999V0209991C000019999999N0000001N9-00611+99999097721ADDGF108991999999999999999999
0035028360999991917041506004+67367+026650FM-12+018199999V0201801N003119999999N0000001N9-00281+99999098201ADDGF108991999999999999999999MW1701
0029028360999991917041513004+67367+026650FM-12+018199999V0202001N005119999999N0000001N9+00171+99999098511ADDGF108991999999999999999999
0035028360999991917041520004+67367+026650FM-12+018199999V0201601N005119999999N0000001N9+00061+99999098441ADDGF108991999999999999999999MW1701
0029028360999991917041606004+67367+026650FM-12+018199999V0201801N005119999999N0000001N9+00281+99999098441ADDGF108991999999999999999999
0035028360999991917041613004+67367+026650FM-12+018199999V0201801N005119999999N0000001N9+00441+99999098461ADDGF108991999999999999999999MW1621
0029028360999991917041620004+67367+026650FM-12+018199999V0201601N004119999999N0000001N9+00281+99999098361ADDGF108991999999999999999999
0029028360999991917041706004+67367+026650FM-12+018199999V0209991C000019999999N0000001N9+00001+99999098231ADDGF108991999999999999999999
0029028360999991917041713004+67367+026650FM-12+018199999V0200901N003119999999N0000001N9+00561+99999097551ADDGF108991999999999999999999
0035028360999991917041720004+67367+026650FM-12+018199999V0209991C000019999999N0000001N9+00281+99999097471ADDGF108991999999999999999999MW1621
0035028360999991917041806004+67367+026650FM-12+018199999V0209991C000019999999N0000001N9+00281+99999097221ADDGF108991999999999999999999MW1621
0035028360999991917041813004+67367+026650FM-12+018199999V0201101N001019999999N0000001N9+00281+99999096991ADDGF108991999999999999999999MW1621
0035028360999991917041820004+67367+026650FM-12+018199999V0203401N002119999999N0000001N9+00061+99999097561ADDGF108991999999999999999999MW1621
0035028360999991917041906004+67367+026650FM-12+018199999V0203601N005119999999N0000001N9-00111+99999097791ADDGF108991999999999999999999MW1721
0029028360999991917041913004+67367+026650FM-12+018199999V0203601N007219999999N0000001N9+00001+99999098081ADDGF108991999999999999999999
0035028360999991917041920004+67367+026650FM-12+018199999V0203601N005119999999N0000001N9-00171+99999098101ADDGF108991999999999999999999MW1721
0035028360999991917042006004+67367+026650FM-12+018199999V0203601N005119999999N0000001N9-00391+99999098501ADDGF108991999999999999999999MW1721
0035028360999991917042013004+67367+026650FM-12+018199999V0200201N003119999999N0000001N9-00171+99999099061ADDGF108991999999999999999999MW1721
0029028360999991917042020004+67367+026650FM-12+018199999V0209991C000019999999N0000001N9-00331+99999099701ADDGF108991999999999999999999
0035028360999991917042106004+67367+026650FM-12+018199999V0201601N005119999999N0000001N9-00331+99999099911ADDGF108991999999999999999999MW1701
0029028360999991917042113004+67367+026650FM-12+018199999V0202301N007219999999N0000001N9+00561+99999099761ADDGF108991999999999999999999
0029028360999991917042120004+67367+026650FM-12+018199999V0202001N002119999999N0000001N9+00281+99999099801ADDGF108991999999999999999999
0035028360999991917042206004+67367+026650FM-12+018199999V0209991C000019999999N0000001N9+00061+99999099581ADDGF108991999999999999999999MW1721
0035028360999991917042213004+67367+026650FM-12+018199999V0203401N005119999999N0000001N9+00111+99999099321ADDGF108991999999999999999999MW1721
0029028360999991917042220004+67367+026650FM-12+018199999V02099999003119999999N0000001N9-00281+99999099591ADDGF100991999999999999999999
0029028360999991917042306004+67367+026650FM-12+018199999V0202901N007219999999N0000001N9-00331+99999099541ADDGF101991999999999999999999
0029028360999991917042313004+67367+026650FM-12+018199999V0202001N008719999999N0000001N9+00221+99999098961ADDGF108991999999999999999999
0029028360999991917042320004+67367+026650FM-12+018199999V0202301N007219999999N0000001N9+00171+99999098231ADDGF108991999999999999999999
0029028360999991917042406004+67367+026650FM-12+018199999V0202701N007219999999N0000001N9+00331+99999097581ADDGF108991999999999999999999
0029028360999991917042413004+67367+026650FM-12+018199999V0202701N011819999999N0000001N9+00501+99999097301ADDGF101991999999999999999999
0029028360999991917042420004+67367+026650FM-12+018199999V0202501N003119999999N0000001N9+00001+99999097381ADDGF108991999999999999999999
0035028360999991917042506004+67367+026650FM-12+018199999V0202901N005119999999N0000001N9-00441+99999097621ADDGF108991999999999999999999MW1701
0035028360999991917042513004+67367+026650FM-12+018199999V0200201N005119999999N0000001N9-00111+99999098181ADDGF108991999999999999999999MW1701
0029028360999991917042520004+67367+026650FM-12+018199999V0203601N005119999999N0000001N9-00671+99999098711ADDGF108991999999999999999999
0035028360999991917042606004+67367+026650FM-12+018199999V0203601N002119999999N0000001N9-00831+99999098791ADDGF108991999999999999999999MW1701
0029028360999991917042613004+67367+026650FM-12+018199999V0200501N001019999999N0000001N9-00501+99999098621ADDGF108991999999999999999999
0029028360999991917042620004+67367+026650FM-12+018199999V0209991C000019999999N0000001N9-01111+99999098471ADDGF108991999999999999999999
0029028360999991917042706004+67367+026650FM-12+018199999V0203201N003119999999N0000001N9-01111+99999098381ADDGF100991999999999999999999
0029028360999991917042713004+67367+026650FM-12+018199999V0203601N004119999999N0000001N9-00391+99999098341ADDGF103991999999999999999999
0029028360999991917042720004+67367+026650FM-12+018199999V0209991C000019999999N0000001N9-01221+99999098431ADDGF104991999999999999999999
0029028360999991917042806004+67367+026650FM-12+018199999V0203601N003119999999N0000001N9-01111+99999098551ADDGF108991999999999999999999
0029028360999991917042813004+67367+026650FM-12+018199999V0203401N003119999999N0000001N9-00611+99999098601ADDGF108991999999999999999999
0029028360999991917042820004+67367+026650FM-12+018199999V0200201N002119999999N0000001N9-01171+99999098661ADDGF100991999999999999999999
0029028360999991917042906004+67367+026650FM-12+018199999V0203401N003119999999N0000001N9-01391+99999098471ADDGF107991999999999999999999
0029028360999991917042913004+67367+026650FM-12+018199999V0203401N005119999999N0000001N9-00441+99999098041ADDGF108991999999999999999999
0029028360999991917042920004+67367+026650FM-12+018199999V0203401N003119999999N0000001N9-01061+99999097921ADDGF108991999999999999999999
0035028360999991917043006004+67367+026650FM-12+018199999V0202901N005119999999N0000001N9-01001+99999097431ADDGF108991999999999999999999MW1721
0035028360999991917043013004+67367+026650FM-12+018199999V0202901N007219999999N0000001N9-00331+99999097351ADDGF108991999999999999999999MW1721
0035028360999991917043020004+67367+026650FM-12+018199999V0202901N007219999999N0000001N9-00561+99999097511ADDGF108991999999999999999999MW1721
0035028360999991917050106004+67367+026650FM-12+018199999V0202901N007219999999N0000001N9-00561+99999097421ADDGF108991999999999999999999MW1721
0029028360999991917050113004+67367+026650FM-12+018199999V0203601N003119999999N0000001N9-00171+99999097561ADDGF108991999999999999999999
0035028360999991917050120004+67367+026650FM-12+018199999V0203201N004119999999N0000001N9-00331+99999097381ADDGF108991999999999999999999MW1721
0035028360999991917050206004+67367+026650FM-12+018199999V0203601N007219999999N0000001N9-00441+99999097381ADDGF108991999999999999999999MW1721
0035028360999991917050213004+67367+026650FM-12+018199999V0203601N013919999999N0000001N9-00061+99999097481ADDGF108991999999999999999999MW1721
0029028360999991917050220004+67367+026650FM-12+018199999V0203601N008719999999N0000001N9-00221+99999098361ADDGF108991999999999999999999
0029028360999991917050306004+67367+026650FM-12+018199999V0203601N005119999999N0000001N9-00281+99999099221ADDGF108991999999999999999999
0029028360999991917050313004+67367+026650FM-12+018199999V0200201N006219999999N0000001N9+00111+99999099471ADDGF106991999999999999999999
0029028360999991917050320004+67367+026650FM-12+018199999V0200201N001019999999N0000001N9-00501+99999099701ADDGF100991999999999999999999
0029028360999991917050406004+67367+026650FM-12+018199999V0209991C000019999999N0000001N9-00561+99999099781ADDGF100991999999999999999999
0029028360999991917050413004+67367+026650FM-12+018199999V0202001N005119999999N0000001N9+00281+99999099241ADDGF108991999999999999999999
0035028360999991917050420004+67367+026650FM-12+018199999V0201601N005119999999N0000001N9-00221+99999098511ADDGF108991999999999999999999MW1721
0029028360999991917050506004+67367+026650FM-12+018199999V0202301N007219999999N0000001N9+00281+99999097701ADDGF108991999999999999999999
0029028360999991917050513004+67367+026650FM-12+018199999V0202301N008719999999N0000001N9+00501+99999097561ADDGF108991999999999999999999
0029028360999991917050520004+67367+026650FM-12+018199999V0202001N003119999999N0000001N9+00171+99999097281ADDGF108991999999999999999999
0029028360999991917050606004+67367+026650FM-12+018199999V0202701N003119999999N0000001N9-00061+99999097111ADDGF102991999999999999999999
0029028360999991917050613004+67367+026650FM-12+018199999V0203201N005119999999N0000001N9+00331+99999097661ADDGF102991999999999999999999
0029028360999991917050620004+67367+026650FM-12+018199999V0203401N001019999999N0000001N9-00111+99999098071ADDGF100991999999999999999999
0029028360999991917050706004+67367+026650FM-12+018199999V0203601N005119999999N0000001N9-00281+99999098031ADDGF104991999999999999999999
0029028360999991917050713004+67367+026650FM-12+018199999V0203601N009819999999N0000001N9+00111+99999097921ADDGF108991999999999999999999
0035028360999991917050720004+67367+026650FM-12+018199999V0203601N013919999999N0000001N9-00221+99999097791ADDGF108991999999999999999999MW1721
0035028360999991917050806004+67367+026650FM-12+018199999V0203601N011819999999N0000001N9-00501+99999097861ADDGF108991999999999999999999MW1721
0035028360999991917050813004+67367+026650FM-12+018199999V0203601N011819999999N0000001N9-00391+99999098151ADDGF108991999999999999999999MW1721
0029028360999991917050820004+67367+026650FM-12+018199999V0203601N008719999999N0000001N9-00501+99999098521ADDGF108991999999999999999999
0029028360999991917050906004+67367+026650FM-12+018199999V0203601N008719999999N0000001N9-00561+99999099191ADDGF108991999999999999999999
0029028360999991917050913004+67367+026650FM-12+018199999V0203401N007219999999N0000001N9-00221+99999099441ADDGF105991999999999999999999
0029028360999991917050920004+67367+026650FM-12+018199999V0203201N003119999999N0000001N9-00561+99999099621ADDGF101991999999999999999999
0029028360999991917051006004+67367+026650FM-12+018199999V0202701N003119999999N0000001N9-00281+99999099801ADDGF100991999999999999999999
0029028360999991917051013004+67367+026650FM-12+018199999V0202701N007219999999N0000001N9+00391+99999099881ADDGF100991999999999999999999
0029028360999991917051020004+67367+026650FM-12+018199999V0202501N001019999999N0000001N9-00061+99999099881ADDGF102991999999999999999999
0035028360999991917051106004+67367+026650FM-12+018199999V0203401N003119999999N0000001N9-00281+99999099941ADDGF108991999999999999999999MW1721
0029028360999991917051113004+67367+026650FM-12+018199999V0203201N006219999999N0000001N9+00061+99999100071ADDGF106991999999999999999999
0029028360999991917051120004+67367+026650FM-12+018199999V0203201N003119999999N0000001N9-00221+99999100321ADDGF100991999999999999999999
0029028360999991917051206004+67367+026650FM-12+018199999V0202901N001019999999N0000001N9-00281+99999100791ADDGF100991999999999999999999
0029028360999991917051213004+67367+026650FM-12+018199999V0202701N008719999999N0000001N9+00171+99999100791ADDGF108991999999999999999999
0029028360999991917051220004+67367+026650FM-12+018199999V0202301N003119999999N0000001N9+00221+99999100521ADDGF108991999999999999999999
0029028360999991917051306004+67367+026650FM-12+018199999V0202701N004119999999N0000001N9+00171+99999100391ADDGF100991999999999999999999
0029028360999991917051313004+67367+026650FM-12+018199999V0202701N007219999999N0000001N9+00671+99999100341ADDGF102991999999999999999999
0029028360999991917051320004+67367+026650FM-12+018199999V0209991C000019999999N0000001N9+00111+99999100161ADDGF108991999999999999999999
0029028360999991917051406004+67367+026650FM-12+018199999V0201401N003119999999N0000001N9+00171+99999099621ADDGF108991999999999999999999
0029028360999991917051413004+67367+026650FM-12+018199999V0201401N004119999999N0000001N9+00501+99999099381ADDGF108991999999999999999999
0029028360999991917051420004+67367+026650FM-12+018199999V0200701N001019999999N0000001N9+00281+99999099111ADDGF108991999999999999999999
0029028360999991917051506004+67367+026650FM-12+018199999V0200501N003119999999N0000001N9+00331+99999098841ADDGF102991999999999999999999
0029028360999991917051513004+67367+026650FM-12+018199999V0200501N003119999999N0000001N9+00611+99999098791ADDGF108991999999999999999999
0035028360999991917051520004+67367+026650FM-12+018199999V0201601N001019999999N0000001N9+00391+99999098761ADDGF108991999999999999999999MW1601
0029028360999991917051606004+67367+026650FM-12+018199999V0201601N001019999999N0000001N9+00001+99999098551ADDGF108991999999999999999999
0029028360999991917051613004+67367+026650FM-12+018199999V0203401N003119999999N0000001N9+00501+99999098301ADDGF103991999999999999999999
0035028360999991917051620004+67367+026650FM-12+018199999V0202901N006219999999N0000001N9-00061+99999098021ADDGF108991999999999999999999MW1721
0029028360999991917051706004+67367+026650FM-12+018199999V0203201N005119999999N0000001N9-00111+99999098481ADDGF108991999999999999999999
0029028360999991917051713004+67367+026650FM-12+018199999V0203601N008219999999N0000001N9+00111+99999099061ADDGF108991999999999999999999
0029028360999991917051720004+67367+026650FM-12+018199999V0203201N007219999999N0000001N9-00331+99999099431ADDGF103991999999999999999999
0029028360999991917051806004+67367+026650FM-12+018199999V0203201N001019999999N0000001N9-00331+99999099541ADDGF100991999999999999999999
0029028360999991917051813004+67367+026650FM-12+018199999V0202701N004119999999N0000001N9+00221+99999099241ADDGF108991999999999999999999
0035028360999991917051820004+67367+026650FM-12+018199999V0203601N001019999999N0000001N9-00111+99999099031ADDGF108991999999999999999999MW1701
0029028360999991917051906004+67367+026650FM-12+018199999V0203601N005119999999N0000001N9-00331+99999099111ADDGF100991999999999999999999
0029028360999991917051913004+67367+026650FM-12+018199999V0203401N008719999999N0000001N9-00171+99999099241ADDGF108991999999999999999999
0029028360999991917051920004+67367+026650FM-12+018199999V0203601N005119999999N0000001N9-00561+99999099501ADDGF107991999999999999999999
0029028360999991917052006004+67367+026650FM-12+018199999V0203601N007219999999N0000001N9-00671+99999100191ADDGF108991999999999999999999
0029028360999991917052013004+67367+026650FM-12+018199999V0203601N007219999999N0000001N9-00281+99999100601ADDGF108991999999999999999999
0029028360999991917052020004+67367+026650FM-12+018199999V0200201N003119999999N0000001N9-00611+99999100641ADDGF108991999999999999999999
0029028360999991917052106004+67367+026650FM-12+018199999V0202301N004119999999N0000001N9-00281+99999100021ADDGF108991999999999999999999
0029028360999991917052113004+67367+026650FM-12+018199999V0202001N004119999999N0000001N9+00331+99999099391ADDGF108991999999999999999999
0029028360999991917052120004+67367+026650FM-12+018199999V0202701N005119999999N0000001N9+00441+99999098941ADDGF108991999999999999999999
0029028360999991917052206004+67367+026650FM-12+018199999V0200501N004119999999N0000001N9-00061+99999099511ADDGF108991999999999999999999
0029028360999991917052213004+67367+026650FM-12+018199999V0200501N003119999999N0000001N9+00331+99999099561ADDGF108991999999999999999999
0029028360999991917052220004+67367+026650FM-12+018199999V0201401N003119999999N0000001N9+00171+99999099461ADDGF108991999999999999999999
0035028360999991917052306004+67367+026650FM-12+018199999V0201401N003119999999N0000001N9+00111+99999099071ADDGF108991999999999999999999MW1721
0029028360999991917052313004+67367+026650FM-12+018199999V0201601N002119999999N0000001N9+00391+99999098871ADDGF108991999999999999999999
0029028360999991917052320004+67367+026650FM-12+018199999V0203401N003119999999N0000001N9+00281+99999098951ADDGF108991999999999999999999
0035028360999991917052406004+67367+026650FM-12+018199999V0200501N003119999999N0000001N9+00111+99999099151ADDGF108991999999999999999999MW1721
0035028360999991917052413004+67367+026650FM-12+018199999V0209991C000019999999N0000001N9+00331+99999099431ADDGF108991999999999999999999MW1601
0029028360999991917052420004+67367+026650FM-12+018199999V0201101N004119999999N0000001N9+00221+99999099721ADDGF108991999999999999999999
0029028360999991917052506004+67367+026650FM-12+018199999V0201401N003119999999N0000001N9+00171+99999100121ADDGF108991999999999999999999
0029028360999991917052513004+67367+026650FM-12+018199999V0202001N003119999999N0000001N9+00611+99999100261ADDGF108991999999999999999999
0029028360999991917052520004+67367+026650FM-12+018199999V0202501N003119999999N0000001N9+00441+99999100281ADDGF108991999999999999999999
0029028360999991917052606004+67367+026650FM-12+018199999V0202001N001019999999N0000001N9+00501+99999100261ADDGF108991999999999999999999
0029028360999991917052613004+67367+026650FM-12+018199999V0202301N005119999999N0000001N9+01061+99999100101ADDGF108991999999999999999999
0029028360999991917052620004+67367+026650FM-12+018199999V0202001N005119999999N0000001N9+00831+99999099751ADDGF108991999999999999999999
0029028360999991917052706004+67367+026650FM-12+018199999V0202301N005119999999N0000001N9+00781+99999099061ADDGF108991999999999999999999
0029028360999991917052713004+67367+026650FM-12+018199999V0202901N006219999999N0000001N9+01111+99999099151ADDGF108991999999999999999999
0029028360999991917052720004+67367+026650FM-12+018199999V0202701N002119999999N0000001N9+00781+99999099381ADDGF108991999999999999999999
0029028360999991917052806004+67367+026650FM-12+018199999V0203401N005119999999N0000001N9+00831+99999099321ADDGF103991999999999999999999
0029028360999991917052813004+67367+026650FM-12+018199999V0203201N007219999999N0000001N9+01001+99999099261ADDGF108991999999999999999999
0029028360999991917052820004+67367+026650FM-12+018199999V0203201N001019999999N0000001N9+00611+99999099111ADDGF108991999999999999999999
0029028360999991917052906004+67367+026650FM-12+018199999V0200501N001019999999N0000001N9+00501+99999099001ADDGF108991999999999999999999
0029028360999991917052913004+67367+026650FM-12+018199999V0203201N002119999999N0000001N9+00831+99999098841ADDGF108991999999999999999999
0029028360999991917052920004+67367+026650FM-12+018199999V0202701N003119999999N0000001N9+00721+99999098201ADDGF108991999999999999999999
0029028360999991917053006004+67367+026650FM-12+018199999V0202901N001019999999N0000001N9+00941+99999098031ADDGF108991999999999999999999
0029028360999991917053013004+67367+026650FM-12+018199999V0202501N003119999999N0000001N9+01281+99999097901ADDGF108991999999999999999999
0029028360999991917053020004+67367+026650FM-12+018199999V0209991C000019999999N0000001N9+00781+99999097781ADDGF108991999999999999999999
0046028360999991917053106004+67367+026650FM-12+018199999V0209991C000019999999N0000001N9+00781+99999097671ADDAJ100009199999999GF108991999999999999999999
0029028360999991917053113004+67367+026650FM-12+018199999V0200501N005119999999N0000001N9+01441+99999097581ADDGF108991999999999999999999
0035028360999991917053120004+67367+026650FM-12+018199999V0203601N005119999999N0000001N9+00501+99999097641ADDGF108991999999999999999999MW1621
0046028360999991917060106004+67367+026650FM-12+018199999V0203201N008719999999N0000001N9+00171+99999098701ADDAJ100009199999999GF108991999999999999999999
0029028360999991917060113004+67367+026650FM-12+018199999V0203401N007219999999N0000001N9+00561+99999099701ADDGF104991999999999999999999
0029028360999991917060120004+67367+026650FM-12+018199999V0203601N003119999999N0000001N9+00441+99999100181ADDGF108991999999999999999999
0046028360999991917060206004+67367+026650FM-12+018199999V0201401N005119999999N0000001N9+00281+99999100341ADDAJ100009199999999GF108991999999999999999999
0029028360999991917060213004+67367+026650FM-12+018199999V0202001N005119999999N0000001N9+01391+99999100191ADDGF103991999999999999999999
0029028360999991917060220004+67367+026650FM-12+018199999V0209991C000019999999N0000001N9+01331+99999100041ADDGF101991999999999999999999
0046028360999991917060306004+67367+026650FM-12+018199999V0201801N001019999999N0000001N9+01391+99999099961ADDAJ100009199999999GF106991999999999999999999
0029028360999991917060313004+67367+026650FM-12+018199999V0201801N004119999999N0000001N9+02061+99999099701ADDGF102991999999999999999999
0029028360999991917060320004+67367+026650FM-12+018199999V0202301N001019999999N0000001N9+01561+99999099471ADDGF100991999999999999999999
0046028360999991917060406004+67367+026650FM-12+018199999V0201601N001019999999N0000001N9+01611+99999099221ADDAJ100009199999999GF100991999999999999999999
0029028360999991917060413004+67367+026650FM-12+018199999V0201601N005119999999N0000001N9+02391+99999098921ADDGF106991999999999999999999
0029028360999991917060420004+67367+026650FM-12+018199999V0209991C000019999999N0000001N9+01611+99999098841ADDGF108991999999999999999999
0046028360999991917060506004+67367+026650FM-12+018199999V0201401N004119999999N0000001N9+01441+99999098561ADDAJ100009199999999GF108991999999999999999999
0029028360999991917060513004+67367+026650FM-12+018199999V0201601N007219999999N0000001N9+01281+99999098631ADDGF108991999999999999999999
0035028360999991917060520004+67367+026650FM-12+018199999V0202001N001019999999N0000001N9+01001+99999098701ADDGF108991999999999999999999MW1601
0052028360999991917060606004+67367+026650FM-12+018199999V0203601N007219999999N0000001N9+00281+99999099111ADDAJ100009199999999GF108991999999999999999999MW1621
0029028360999991917060613004+67367+026650FM-12+018199999V0203601N007219999999N0000001N9+00441+99999099601ADDGF108991999999999999999999
0029028360999991917060620004+67367+026650FM-12+018199999V0203601N007219999999N0000001N9+00281+99999100081ADDGF108991999999999999999999
0046028360999991917060706004+67367+026650FM-12+018199999V0203601N007219999999N0000001N9+00111+99999100631ADDAJ100009199999999GF103991999999999999999999
0029028360999991917060713004+67367+026650FM-12+018199999V0200201N005119999999N0000001N9+00781+99999100781ADDGF100991999999999999999999
0029028360999991917060720004+67367+026650FM-12+018199999V0200501N001019999999N0000001N9+00501+99999100871ADDGF100991999999999999999999
0046028360999991917060806004+67367+026650FM-12+018199999V0209991C000019999999N0000001N9+00501+99999100871ADDAJ100009199999999GF100991999999999999999999
0029028360999991917060813004+67367+026650FM-12+018199999V0209991C000019999999N0000001N9+01441+99999100631ADDGF107991999999999999999999
0029028360999991917060820004+67367+026650FM-12+018199999V0209991C000019999999N0000001N9+01171+99999100591ADDGF100991999999999999999999
0046028360999991917060906004+67367+026650FM-12+018199999V0201401N001019999999N0000001N9+01171+99999100601ADDAJ100009199999999GF106991999999999999999999
0029028360999991917060913004+67367+026650FM-12+018199999V0202501N007219999999N0000001N9+02111+99999100241ADDGF103991999999999999999999
0029028360999991917060920004+67367+026650FM-12+018199999V0202001N001019999999N0000001N9+01721+99999100061ADDGF101991999999999999999999
0046028360999991917061006004+67367+026650FM-12+018199999V0201801N001019999999N0000001N9+01561+99999099911ADDAJ100009199999999GF102991999999999999999999
0029028360999991917061013004+67367+026650FM-12+018199999V0201801N008719999999N0000001N9+02441+99999099591ADDGF100991999999999999999999
0029028360999991917061020004+67367+026650FM-12+018199999V0202001N004119999999N0000001N9+01671+99999099271ADDGF106991999999999999999999
0046028360999991917061106004+67367+026650FM-12+018199999V0203201N007219999999N0000001N9+00781+99999099441ADDAJ100009199999999GF108991999999999999999999
0029028360999991917061113004+67367+026650FM-12+018199999V0203601N007219999999N0000001N9+01171+99999100071ADDGF108991999999999999999999
0029028360999991917061120004+67367+026650FM-12+018199999V0203201N001019999999N0000001N9+01001+99999100181ADDGF108991999999999999999999
0046028360999991917061206004+67367+026650FM-12+018199999V0203401N007219999999N0000001N9+01221+99999100281ADDAJ100009199999999GF106991999999999999999999
0029028360999991917061213004+67367+026650FM-12+018199999V0203401N003119999999N0000001N9+01561+99999100221ADDGF108991999999999999999999
0029028360999991917061220004+67367+026650FM-12+018199999V0209991C000019999999N0000001N9+01441+99999100181ADDGF102991999999999999999999
0046028360999991917061306004+67367+026650FM-12+018199999V0201601N003119999999N0000001N9+01611+99999099911ADDAJ100009199999999GF102991999999999999999999
0029028360999991917061313004+67367+026650FM-12+018199999V0203401N007219999999N0000001N9+02221+99999099831ADDGF106991999999999999999999
0029028360999991917061320004+67367+026650FM-12+018199999V0209991C000019999999N0000001N9+01561+99999099821ADDGF106991999999999999999999
0046028360999991917061406004+67367+026650FM-12+018199999V0203401N006219999999N0000001N9+01611+99999099871ADDAJ100009199999999GF104991999999999999999999
0029028360999991917061413004+67367+026650FM-12+018199999V0203401N007219999999N0000001N9+02221+99999099781ADDGF105991999999999999999999
0029028360999991917061420004+67367+026650FM-12+018199999V0209991C000019999999N0000001N9+01501+99999099591ADDGF107991999999999999999999
0046028360999991917061506004+67367+026650FM-12+018199999V0201801N005119999999N0000001N9+01831+99999099141ADDAJ100009199999999GF106991999999999999999999
0029028360999991917061513004+67367+026650FM-12+018199999V0202701N006219999999N0000001N9+01721+99999098921ADDGF108991999999999999999999
0029028360999991917061520004+67367+026650FM-12+018199999V0202501N002119999999N0000001N9+01281+99999099021ADDGF108991999999999999999999
0046028360999991917061606004+67367+026650FM-12+018199999V0202701N008719999999N0000001N9+01281+99999099061ADDAJ100009199999999GF105991999999999999999999
0029028360999991917061613004+67367+026650FM-12+018199999V0202901N011819999999N0000001N9+01671+99999099141ADDGF108991999999999999999999
0029028360999991917061620004+67367+026650FM-12+018199999V0202901N001019999999N0000001N9+01281+99999099161ADDGF108991999999999999999999
0052028360999991917061706004+67367+026650FM-12+018199999V0209991C000019999999N0000001N9+01221+99999098681ADDAJ100009199999999GF108991999999999999999999MW1621
0029028360999991917061713004+67367+026650FM-12+018199999V0209991C000019999999N0000001N9+01391+99999098461ADDGF106991999999999999999999
0029028360999991917061720004+67367+026650FM-12+018199999V0202701N001019999999N0000001N9+01331+99999098441ADDGF108991999999999999999999
0046028360999991917061806004+67367+026650FM-12+018199999V0202701N001019999999N0000001N9+01221+99999098601ADDAJ100009199999999GF108991999999999999999999
0035028360999991917061813004+67367+026650FM-12+018199999V0202301N001019999999N0000001N9+01611+99999098521ADDGF108991999999999999999999MW1601
0029028360999991917061820004+67367+026650FM-12+018199999V0209991C000019999999N0000001N9+01171+99999098641ADDGF106991999999999999999999
0046028360999991917061906004+67367+026650FM-12+018199999V0201101N001019999999N0000001N9+01441+99999098761ADDAJ100009199999999GF106991999999999999999999
0029028360999991917061913004+67367+026650FM-12+018199999V0202001N007219999999N0000001N9+02001+99999098601ADDGF108991999999999999999999
0029028360999991917061920004+67367+026650FM-12+018199999V0201601N002119999999N0000001N9+01221+99999098551ADDGF108991999999999999999999
0052028360999991917062006004+67367+026650FM-12+018199999V0209991C000019999999N0000001N9+01281+99999098221ADDAJ100009199999999GF108991999999999999999999MW1621
0029028360999991917062013004+67367+026650FM-12+018199999V0201401N001019999999N0000001N9+02001+99999098281ADDGF105991999999999999999999
0035028360999991917062020004+67367+026650FM-12+018199999V0201401N003119999999N0000001N9+01331+99999098391ADDGF108991999999999999999999MW1621
0046028360999991917062106004+67367+026650FM-12+018199999V0202701N001019999999N0000001N9+01501+99999098471ADDAJ100009199999999GF106991999999999999999999
0029028360999991917062113004+67367+026650FM-12+018199999V0203601N001019999999N0000001N9+01941+99999098501ADDGF106991999999999999999999
0029028360999991917062120004+67367+026650FM-12+018199999V0209991C000019999999N0000001N9+01501+99999098581ADDGF105991999999999999999999
0052028360999991917062206004+67367+026650FM-12+018199999V0201101N003119999999N0000001N9+01171+99999098401ADDAJ100009199999999GF108991999999999999999999MW1621
0029028360999991917062213004+67367+026650FM-12+018199999V0202701N003119999999N0000001N9+01561+99999098591ADDGF108991999999999999999999
0029028360999991917062220004+67367+026650FM-12+018199999V0209991C000019999999N0000001N9+01611+99999098761ADDGF106991999999999999999999
0046028360999991917062306004+67367+026650FM-12+018199999V0200901N003119999999N0000001N9+01441+99999098601ADDAJ100009199999999GF108991999999999999999999
0029028360999991917062313004+67367+026650FM-12+018199999V0201401N003119999999N0000001N9+02221+99999098341ADDGF108991999999999999999999
0029028360999991917062320004+67367+026650FM-12+018199999V0202001N007219999999N0000001N9+01781+99999098281ADDGF108991999999999999999999
0046028360999991917062406004+67367+026650FM-12+018199999V0202301N008719999999N0000001N9+01561+99999098551ADDAJ100009199999999GF101991999999999999999999
0029028360999991917062413004+67367+026650FM-12+018199999V0201801N008719999999N0000001N9+01501+99999098641ADDGF108991999999999999999999
0029028360999991917062420004+67367+026650FM-12+018199999V0202001N008219999999N0000001N9+01281+99999098981ADDGF108991999999999999999999
0046028360999991917062506004+67367+026650FM-12+018199999V0202001N006219999999N0000001N9+01501+99999099701ADDAJ100009199999999GF100991999999999999999999
0029028360999991917062513004+67367+026650FM-12+018199999V0202001N009819999999N0000001N9+02001+99999099821ADDGF108991999999999999999999
0029028360999991917062520004+67367+026650FM-12+018199999V0202001N006219999999N0000001N9+01721+99999099761ADDGF108991999999999999999999
0046028360999991917062606004+67367+026650FM-12+018199999V0201801N001019999999N0000001N9+01671+99999099581ADDAJ100009199999999GF108991999999999999999999
0029028360999991917062613004+67367+026650FM-12+018199999V0201801N001019999999N0000001N9+02001+99999099221ADDGF108991999999999999999999
0029028360999991917062620004+67367+026650FM-12+018199999V0201401N001019999999N0000001N9+01441+99999099111ADDGF108991999999999999999999
0046028360999991917062706004+67367+026650FM-12+018199999V0202701N003119999999N0000001N9+01611+99999099351ADDAJ100009199999999GF100991999999999999999999
0029028360999991917062713004+67367+026650FM-12+018199999V0201401N001019999999N0000001N9+02001+99999099591ADDGF101991999999999999999999
0029028360999991917062720004+67367+026650FM-12+018199999V0201401N003119999999N0000001N9+01891+99999099441ADDGF106991999999999999999999
0046028360999991917062806004+67367+026650FM-12+018199999V0201801N015919999999N0000001N9+01501+99999099221ADDAJ100009199999999GF102991999999999999999999
0029028360999991917062813004+67367+026650FM-12+018199999V0202301N018019999999N0000001N9+01671+99999099641ADDGF106991999999999999999999
0029028360999991917062820004+67367+026650FM-12+018199999V0202301N005119999999N0000001N9+01501+99999099881ADDGF102991999999999999999999
0046028360999991917062906004+67367+026650FM-12+018199999V0202001N007219999999N0000001N9+01721+99999099711ADDAJ100009199999999GF106991999999999999999999
0029028360999991917062913004+67367+026650FM-12+018199999V0202301N013919999999N0000001N9+02111+99999099541ADDGF108991999999999999999999
0035028360999991917062920004+67367+026650FM-12+018199999V0202301N007219999999N0000001N9+01441+99999099511ADDGF108991999999999999999999MW1601
0052028360999991917063006004+67367+026650FM-12+018199999V0202301N001019999999N0000001N9+01171+99999099461ADDAJ100009199999999GF108991999999999999999999MW1601
0035028360999991917063013004+67367+026650FM-12+018199999V0203601N006219999999N0000001N9+01001+99999099421ADDGF108991999999999999999999MW1621
0035028360999991917063020004+67367+026650FM-12+018199999V0203601N008219999999N0000001N9+00781+99999099271ADDGF108991999999999999999999MW1621
0046028360999991917070106004+67367+026650FM-12+018199999V0203401N008719999999N0000001N9+00721+99999099591ADDAJ100009199999999GF102991999999999999999999
0029028360999991917070113004+67367+026650FM-12+018199999V0202901N003119999999N0000001N9+01171+99999099841ADDGF108991999999999999999999
0029028360999991917070120004+67367+026650FM-12+018199999V0202901N001019999999N0000001N9+01001+99999099781ADDGF101991999999999999999999
0046028360999991917070206004+67367+026650FM-12+018199999V0202701N005119999999N0000001N9+01111+99999099671ADDAJ100009199999999GF108991999999999999999999
0029028360999991917070213004+67367+026650FM-12+018199999V0202901N003119999999N0000001N9+01441+99999099641ADDGF108991999999999999999999
0029028360999991917070220004+67367+026650FM-12+018199999V0202501N001019999999N0000001N9+01111+99999099791ADDGF108991999999999999999999
0046028360999991917070306004+67367+026650FM-12+018199999V0209991C000019999999N0000001N9+01221+99999099821ADDAJ100009199999999GF108991999999999999999999
0029028360999991917070313004+67367+026650FM-12+018199999V0200501N001019999999N0000001N9+01441+99999099481ADDGF108991999999999999999999
0029028360999991917070320004+67367+026650FM-12+018199999V0209991C000019999999N0000001N9+01001+99999099161ADDGF108991999999999999999999
0046028360999991917070406004+67367+026650FM-12+018199999V0203201N003119999999N0000001N9+01061+99999099081ADDAJ100009199999999GF106991999999999999999999
0029028360999991917070413004+67367+026650FM-12+018199999V0203201N006219999999N0000001N9+01281+99999098871ADDGF108991999999999999999999
0029028360999991917070420004+67367+026650FM-12+018199999V0203201N001019999999N0000001N9+00831+99999098791ADDGF106991999999999999999999
0052028360999991917070506004+67367+026650FM-12+018199999V0203601N005119999999N0000001N9+00721+99999098631ADDAJ100009199999999GF108991999999999999999999MW1601
0035028360999991917070513004+67367+026650FM-12+018199999V0203601N007219999999N0000001N9+00611+99999098631ADDGF108991999999999999999999MW1601
0035028360999991917070520004+67367+026650FM-12+018199999V0203601N005119999999N0000001N9+00331+99999098701ADDGF108991999999999999999999MW1601
0052028360999991917070606004+67367+026650FM-12+018199999V0203601N005119999999N0000001N9+00281+99999098561ADDAJ100009199999999GF108991999999999999999999MW1601
0035028360999991917070613004+67367+026650FM-12+018199999V0203601N004119999999N0000001N9+00561+99999098551ADDGF108991999999999999999999MW1601
0035028360999991917070620004+67367+026650FM-12+018199999V0203601N002119999999N0000001N9+00671+99999098551ADDGF108991999999999999999999MW1601
0046028360999991917070706004+67367+026650FM-12+018199999V0203201N005119999999N0000001N9+00501+99999098721ADDAJ100009199999999GF108991999999999999999999
0029028360999991917070713004+67367+026650FM-12+018199999V0202701N002119999999N0000001N9+01061+99999098821ADDGF107991999999999999999999
0029028360999991917070720004+67367+026650FM-12+018199999V0203601N002119999999N0000001N9+00781+99999098951ADDGF108991999999999999999999
0046028360999991917070806004+67367+026650FM-12+018199999V0209991C000019999999N0000001N9+00941+99999099001ADDAJ100009199999999GF108991999999999999999999
0029028360999991917070813004+67367+026650FM-12+018199999V0202701N002119999999N0000001N9+01221+99999098951ADDGF108991999999999999999999
0029028360999991917070820004+67367+026650FM-12+018199999V0209991C000019999999N0000001N9+01111+99999098881ADDGF108991999999999999999999
0046028360999991917070906004+67367+026650FM-12+018199999V0209991C000019999999N0000001N9+01061+99999098981ADDAJ100009199999999GF108991999999999999999999
0029028360999991917070913004+67367+026650FM-12+018199999V0203201N005119999999N0000001N9+01391+99999099031ADDGF108991999999999999999999
0029028360999991917070920004+67367+026650FM-12+018199999V0203201N001019999999N0000001N9+01111+99999099081ADDGF106991999999999999999999
0046028360999991917071006004+67367+026650FM-12+018199999V0209991C000019999999N0000001N9+01001+99999099161ADDAJ100009199999999GF108991999999999999999999
0029028360999991917071013004+67367+026650FM-12+018199999V0203201N007219999999N0000001N9+01441+99999099111ADDGF104991999999999999999999
0029028360999991917071020004+67367+026650FM-12+018199999V0203201N001019999999N0000001N9+01061+99999099261ADDGF105991999999999999999999
0046028360999991917071106004+67367+026650FM-12+018199999V0209991C000019999999N0000001N9+01111+99999099541ADDAJ100009199999999GF100991999999999999999999
0029028360999991917071113004+67367+026650FM-12+018199999V0201401N002119999999N0000001N9+01561+99999099391ADDGF108991999999999999999999
0029028360999991917071120004+67367+026650FM-12+018199999V0202301N005119999999N0000001N9+01171+99999099401ADDGF108991999999999999999999
0046028360999991917071206004+67367+026650FM-12+018199999V0201801N001019999999N0000001N9+01331+99999099351ADDAJ100009199999999GF100991999999999999999999
0029028360999991917071213004+67367+026650FM-12+018199999V0202701N004119999999N0000001N9+01941+99999099061ADDGF106991999999999999999999
0029028360999991917071220004+67367+026650FM-12+018199999V0202701N005119999999N0000001N9+01441+99999099141ADDGF108991999999999999999999
0046028360999991917071306004+67367+026650FM-12+018199999V0202701N007219999999N0000001N9+01171+99999099271ADDAJ100009199999999GF102991999999999999999999
0029028360999991917071313004+67367+026650FM-12+018199999V0202701N007219999999N0000001N9+01441+99999099301ADDGF108991999999999999999999
0029028360999991917071320004+67367+026650FM-12+018199999V0202701N007219999999N0000001N9+01331+99999099441ADDGF102991999999999999999999
0046028360999991917071406004+67367+026650FM-12+018199999V0202701N005119999999N0000001N9+01281+99999099701ADDAJ100009199999999GF108991999999999999999999
0029028360999991917071413004+67367+026650FM-12+018199999V0202701N005119999999N0000001N9+01671+99999099921ADDGF102991999999999999999999
0029028360999991917071420004+67367+026650FM-12+018199999V0209991C000019999999N0000001N9+01561+99999100021ADDGF101991999999999999999999
0046028360999991917071506004+67367+026650FM-12+018199999V0203601N003119999999N0000001N9+01441+99999100311ADDAJ100009199999999GF101991999999999999999999
0029028360999991917071513004+67367+026650FM-12+018199999V0209991C000019999999N0000001N9+02061+99999100221ADDGF105991999999999999999999
0029028360999991917071520004+67367+026650FM-12+018199999V0201801N001019999999N0000001N9+02061+99999100041ADDGF100991999999999999999999
0046028360999991917071606004+67367+026650FM-12+018199999V0201801N003119999999N0000001N9+02061+99999999999ADDAJ100009199999999GF108991999999999999999999
0029028360999991917071613004+67367+026650FM-12+018199999V0201101N004119999999N0000001N9+02671+99999099701ADDGF100991999999999999999999
0029028360999991917071620004+67367+026650FM-12+018199999V0201401N001019999999N0000001N9+02111+99999099481ADDGF102991999999999999999999
0046028360999991917071706004+67367+026650FM-12+018199999V0201401N005119999999N0000001N9+01721+99999099321ADDAJ100009199999999GF108991999999999999999999
0029028360999991917071713004+67367+026650FM-12+018199999V0201401N008219999999N0000001N9+02611+99999099061ADDGF100991999999999999999999
0029028360999991917071720004+67367+026650FM-12+018199999V0201101N003119999999N0000001N9+02281+99999098961ADDGF108991999999999999999999
0046028360999991917071806004+67367+026650FM-12+018199999V0201401N005119999999N0000001N9+02061+99999098871ADDAJ100009199999999GF103991999999999999999999
0029028360999991917071813004+67367+026650FM-12+018199999V0201401N007219999999N0000001N9+02721+99999098741ADDGF103991999999999999999999
0035028360999991917071820004+67367+026650FM-12+018199999V0200901N001019999999N0000001N9+01671+99999098831ADDGF108991999999999999999999MW1601
0046028360999991917071906004+67367+026650FM-12+018199999V0209991C000019999999N0000001N9+01781+99999098761ADDAJ100009199999999GF108991999999999999999999
0029028360999991917071913004+67367+026650FM-12+018199999V0202901N004119999999N0000001N9+01781+99999098961ADDGF108991999999999999999999
0035028360999991917071920004+67367+026650FM-12+018199999V0209991C000019999999N0000001N9+01441+99999098751ADDGF108991999999999999999999MW1621
0046028360999991917072006004+67367+026650FM-12+018199999V0203201N007219999999N0000001N9+01171+99999098881ADDAJ100009199999999GF108991999999999999999999
0029028360999991917072013004+67367+026650FM-12+018199999V0203201N007219999999N0000001N9+01501+99999099061ADDGF108991999999999999999999
0029028360999991917072020004+67367+026650FM-12+018199999V0203601N003119999999N0000001N9+01281+99999098951ADDGF100991999999999999999999
0046028360999991917072106004+67367+026650FM-12+018199999V0203601N005119999999N0000001N9+01061+99999099061ADDAJ100009199999999GF101991999999999999999999
0029028360999991917072113004+67367+026650FM-12+018199999V0203601N005119999999N0000001N9+01221+99999099241ADDGF108991999999999999999999
0029028360999991917072120004+67367+026650FM-12+018199999V0203601N003119999999N0000001N9+00941+99999099381ADDGF101991999999999999999999
0046028360999991917072206004+67367+026650FM-12+018199999V0209991C000019999999N0000001N9+00891+99999099461ADDAJ100009199999999GF108991999999999999999999
0029028360999991917072213004+67367+026650FM-12+018199999V0203601N005119999999N0000001N9+01061+99999099401ADDGF108991999999999999999999
0029028360999991917072220004+67367+026650FM-12+018199999V0200201N003119999999N0000001N9+00831+99999099321ADDGF108991999999999999999999
0046028360999991917072306004+67367+026650FM-12+018199999V0200201N005119999999N0000001N9+00671+99999099351ADDAJ100009199999999GF108991999999999999999999
0029028360999991917072313004+67367+026650FM-12+018199999V0203601N008719999999N0000001N9+01171+99999099191ADDGF108991999999999999999999
0029028360999991917072320004+67367+026650FM-12+018199999V0203201N007219999999N0000001N9+00781+99999099121ADDGF108991999999999999999999
0052028360999991917072406004+67367+026650FM-12+018199999V0203201N005119999999N0000001N9+00561+99999098991ADDAJ100009199999999GF108991999999999999999999MW1601
0035028360999991917072413004+67367+026650FM-12+018199999V0203201N008719999999N0000001N9+00781+99999098981ADDGF108991999999999999999999MW1601
0035028360999991917072420004+67367+026650FM-12+018199999V0203201N005119999999N0000001N9+00671+99999098991ADDGF108991999999999999999999MW1601
0046028360999991917072506004+67367+026650FM-12+018199999V0203201N005119999999N0000001N9+00561+99999099061ADDAJ100009199999999GF108991999999999999999999
0029028360999991917072513004+67367+026650FM-12+018199999V0203201N005119999999N0000001N9+00831+99999099191ADDGF108991999999999999999999
0029028360999991917072520004+67367+026650FM-12+018199999V0203201N005119999999N0000001N9+00671+99999099271ADDGF108991999999999999999999
0046028360999991917072606004+67367+026650FM-12+018199999V0203201N003119999999N0000001N9+00721+99999099271ADDAJ100009199999999GF108991999999999999999999
0029028360999991917072613004+67367+026650FM-12+018199999V0203401N001019999999N0000001N9+01331+99999099161ADDGF102991999999999999999999
0029028360999991917072620004+67367+026650FM-12+018199999V0200501N001019999999N0000001N9+01111+99999099101ADDGF100991999999999999999999
0046028360999991917072706004+67367+026650FM-12+018199999V0201601N003119999999N0000001N9+01331+99999099081ADDAJ100009199999999GF100991999999999999999999
0029028360999991917072713004+67367+026650FM-12+018199999V0202501N005119999999N0000001N9+02331+99999098951ADDGF102991999999999999999999
0029028360999991917072720004+67367+026650FM-12+018199999V0202301N001019999999N0000001N9+01671+99999098871ADDGF100991999999999999999999
0046028360999991917072806004+67367+026650FM-12+018199999V0201401N001019999999N0000001N9+01671+99999098791ADDAJ100009199999999GF100991999999999999999999
0029028360999991917072813004+67367+026650FM-12+018199999V0201801N003119999999N0000001N9+02391+99999098681ADDGF102991999999999999999999
0029028360999991917072820004+67367+026650FM-12+018199999V0202301N001019999999N0000001N9+01501+99999098631ADDGF100991999999999999999999
0046028360999991917072906004+67367+026650FM-12+018199999V0209991C000019999999N0000001N9+01671+99999098831ADDAJ100009199999999GF100991999999999999999999
0029028360999991917072913004+67367+026650FM-12+018199999V0202701N003119999999N0000001N9+02281+99999098841ADDGF108991999999999999999999
0029028360999991917072920004+67367+026650FM-12+018199999V0209991C000019999999N0000001N9+01611+99999098881ADDGF106991999999999999999999
0046028360999991917073006004+67367+026650FM-12+018199999V0203201N003119999999N0000001N9+01611+99999099221ADDAJ100009199999999GF108991999999999999999999
0029028360999991917073013004+67367+026650FM-12+018199999V0203201N001019999999N0000001N9+02221+99999099301ADDGF108991999999999999999999
0029028360999991917073020004+67367+026650FM-12+018199999V0209991C000019999999N0000001N9+01331+99999099511ADDGF104991999999999999999999
0046028360999991917073106004+67367+026650FM-12+018199999V0209991C000019999999N0000001N9+01441+99999099671ADDAJ100009199999999GF108991999999999999999999
0029028360999991917073113004+67367+026650FM-12+018199999V0201801N001019999999N0000001N9+02061+99999099751ADDGF108991999999999999999999
0035028360999991917073120004+67367+026650FM-12+018199999V0203201N003119999999N0000001N9+01561+99999099821ADDGF108991999999999999999999MW1641
0046028360999991917080106004+67367+026650FM-12+018199999V0200701N001019999999N0000001N9+01441+99999099921ADDAJ100009199999999GF108991999999999999999999
0029028360999991917080113004+67367+026650FM-12+018199999V0203401N001019999999N0000001N9+02001+99999099961ADDGF108991999999999999999999
0029028360999991917080120004+67367+026650FM-12+018199999V0209991C000019999999N0000001N9+01391+99999999999ADDGF103991999999999999999999
0046028360999991917080206004+67367+026650FM-12+018199999V0209991C000019999999N0000001N9+01611+99999100101ADDAJ100009199999999GF108991999999999999999999
0029028360999991917080213004+67367+026650FM-12+018199999V0202701N003119999999N0000001N9+02441+99999099991ADDGF100991999999999999999999
0029028360999991917080220004+67367+026650FM-12+018199999V0202701N001019999999N0000001N9+01721+99999099801ADDGF100991999999999999999999
0046028360999991917080306004+67367+026650FM-12+018199999V0201801N001019999999N0000001N9+01831+99999099541ADDAJ100009199999999GF102991999999999999999999
0029028360999991917080313004+67367+026650FM-12+018199999V0202701N005119999999N0000001N9+02501+99999099301ADDGF108991999999999999999999
0029028360999991917080320004+67367+026650FM-12+018199999V0203401N004119999999N0000001N9+01441+99999099511ADDGF108991999999999999999999
0046028360999991917080406004+67367+026650FM-12+018199999V0203601N004119999999N0000001N9+01001+99999100041ADDAJ100009199999999GF107991999999999999999999
0029028360999991917080413004+67367+026650FM-12+018199999V0203601N005119999999N0000001N9+01221+99999100311ADDGF106991999999999999999999
0029028360999991917080420004+67367+026650FM-12+018199999V0200201N001019999999N0000001N9+00611+99999100591ADDGF100991999999999999999999
0046028360999991917080506004+67367+026650FM-12+018199999V0201601N003119999999N0000001N9+00891+99999100601ADDAJ100009199999999GF105991999999999999999999
0029028360999991917080513004+67367+026650FM-12+018199999V0202001N003119999999N0000001N9+01831+99999100231ADDGF106991999999999999999999
0029028360999991917080520004+67367+026650FM-12+018199999V0202301N001019999999N0000001N9+01221+99999100101ADDGF108991999999999999999999
0046028360999991917080606004+67367+026650FM-12+018199999V0202301N003119999999N0000001N9+01441+99999999999ADDAJ100009199999999GF100991999999999999999999
0029028360999991917080613004+67367+026650FM-12+018199999V0202301N007219999999N0000001N9+02391+99999099801ADDGF108991999999999999999999
0029028360999991917080620004+67367+026650FM-12+018199999V0202001N003119999999N0000001N9+01831+99999099781ADDGF101991999999999999999999
0046028360999991917080706004+67367+026650FM-12+018199999V0209991C000019999999N0000001N9+01671+99999099951ADDAJ100009199999999GF100991999999999999999999
0029028360999991917080713004+67367+026650FM-12+018199999V0202901N001019999999N0000001N9+02561+99999099961ADDGF100991999999999999999999
0029028360999991917080720004+67367+026650FM-12+018199999V0209991C000019999999N0000001N9+01611+99999099991ADDGF100991999999999999999999
0046028360999991917080806004+67367+026650FM-12+018199999V0209991C000019999999N0000001N9+01501+99999099991ADDAJ100009199999999GF108991999999999999999999
0029028360999991917080813004+67367+026650FM-12+018199999V0209991C000019999999N0000001N9+02501+99999099801ADDGF100991999999999999999999
0029028360999991917080820004+67367+026650FM-12+018199999V0201601N001019999999N0000001N9+01611+99999099541ADDGF100991999999999999999999
0046028360999991917080906004+67367+026650FM-12+018199999V0209991C000019999999N0000001N9+01941+99999099221ADDAJ100009199999999GF100991999999999999999999
0029028360999991917080913004+67367+026650FM-12+018199999V0202301N005119999999N0000001N9+02671+99999098921ADDGF106991999999999999999999
0029028360999991917080920004+67367+026650FM-12+018199999V0209991C000019999999N0000001N9+01671+99999098761ADDGF108991999999999999999999
0046028360999991917081006004+67367+026650FM-12+018199999V0200501N005119999999N0000001N9+00891+99999099121ADDAJ100009199999999GF108991999999999999999999
0029028360999991917081013004+67367+026650FM-12+018199999V0200501N005119999999N0000001N9+01331+99999099161ADDGF108991999999999999999999
0029028360999991917081020004+67367+026650FM-12+018199999V0201401N001019999999N0000001N9+01171+99999099111ADDGF108991999999999999999999
0046028360999991917081106004+67367+026650FM-12+018199999V0200701N001019999999N0000001N9+01061+99999099071ADDAJ100009199999999GF108991999999999999999999
0029028360999991917081113004+67367+026650FM-12+018199999V0201401N001019999999N0000001N9+01331+99999099101ADDGF108991999999999999999999
0029028360999991917081120004+67367+026650FM-12+018199999V0201401N003119999999N0000001N9+01001+99999099221ADDGF103991999999999999999999
0046028360999991917081206004+67367+026650FM-12+018199999V0201101N004119999999N0000001N9+00831+99999099221ADDAJ100009199999999GF108991999999999999999999
0029028360999991917081213004+67367+026650FM-12+018199999V0201101N005119999999N0000001N9+01721+99999099111ADDGF107991999999999999999999
0029028360999991917081220004+67367+026650FM-12+018199999V0201401N003119999999N0000001N9+01561+99999099031ADDGF108991999999999999999999
0046028360999991917081306004+67367+026650FM-12+018199999V0201401N003119999999N0000001N9+01611+99999099041ADDAJ100009199999999GF106991999999999999999999
0029028360999991917081313004+67367+026650FM-12+018199999V0201601N005119999999N0000001N9+02221+99999098991ADDGF107991999999999999999999
0029028360999991917081320004+67367+026650FM-12+018199999V0201601N001019999999N0000001N9+01441+99999098901ADDGF108991999999999999999999
0046028360999991917081406004+67367+026650FM-12+018199999V0201801N001019999999N0000001N9+01561+99999098901ADDAJ100009199999999GF108991999999999999999999
0029028360999991917081413004+67367+026650FM-12+018199999V0202001N005119999999N0000001N9+01941+99999098871ADDGF108991999999999999999999
0029028360999991917081420004+67367+026650FM-12+018199999V0202301N004119999999N0000001N9+01671+99999098901ADDGF107991999999999999999999
0046028360999991917081506004+67367+026650FM-12+018199999V0209991C000019999999N0000001N9+01441+99999099081ADDAJ100009199999999GF108991999999999999999999
0029028360999991917081513004+67367+026650FM-12+018199999V0200501N001019999999N0000001N9+01781+99999099161ADDGF108991999999999999999999
0029028360999991917081520004+67367+026650FM-12+018199999V0209991C000019999999N0000001N9+01441+99999099161ADDGF106991999999999999999999
0046028360999991917081606004+67367+026650FM-12+018199999V0201101N003119999999N0000001N9+01391+99999099241ADDAJ100009199999999GF108991999999999999999999
0029028360999991917081613004+67367+026650FM-12+018199999V0201101N006219999999N0000001N9+01941+99999099221ADDGF103991999999999999999999
0029028360999991917081620004+67367+026650FM-12+018199999V0201101N005119999999N0000001N9+01501+99999099191ADDGF108991999999999999999999
0046028360999991917081706004+67367+026650FM-12+018199999V0201101N003119999999N0000001N9+01331+99999098911ADDAJ100009199999999GF108991999999999999999999
0029028360999991917081713004+67367+026650FM-12+018199999V0209991C000019999999N0000001N9+01781+99999098921ADDGF108991999999999999999999
0029028360999991917081720004+67367+026650FM-12+018199999V0201601N005119999999N0000001N9+01561+99999098951ADDGF108991999999999999999999
0046028360999991917081806004+67367+026650FM-12+018199999V0201801N005119999999N0000001N9+01501+99999098881ADDAJ100009199999999GF108991999999999999999999
0029028360999991917081813004+67367+026650FM-12+018199999V0202001N005119999999N0000001N9+01831+99999098981ADDGF108991999999999999999999
0029028360999991917081820004+67367+026650FM-12+018199999V0202001N001019999999N0000001N9+01221+99999099081ADDGF106991999999999999999999
0046028360999991917081906004+67367+026650FM-12+018199999V0202501N001019999999N0000001N9+01331+99999099161ADDAJ100009199999999GF108991999999999999999999
0029028360999991917081913004+67367+026650FM-12+018199999V0202301N003119999999N0000001N9+01671+99999099111ADDGF108991999999999999999999
0029028360999991917081920004+67367+026650FM-12+018199999V0201801N001019999999N0000001N9+01501+99999099031ADDGF102991999999999999999999
0046028360999991917082006004+67367+026650FM-12+018199999V0201601N003119999999N0000001N9+01391+99999098951ADDAJ100009199999999GF108991999999999999999999
0029028360999991917082013004+67367+026650FM-12+018199999V0202001N007219999999N0000001N9+01831+99999098941ADDGF104991999999999999999999
0029028360999991917082020004+67367+026650FM-12+018199999V0201601N001019999999N0000001N9+01331+99999098951ADDGF108991999999999999999999
0046028360999991917082106004+67367+026650FM-12+018199999V0202001N007219999999N0000001N9+01281+99999098841ADDAJ100009199999999GF108991999999999999999999
0029028360999991917082113004+67367+026650FM-12+018199999V0202301N001019999999N0000001N9+01501+99999098901ADDGF106991999999999999999999
0029028360999991917082120004+67367+026650FM-12+018199999V0202301N003119999999N0000001N9+01171+99999098951ADDGF107991999999999999999999
0046028360999991917082206004+67367+026650FM-12+018199999V0209991C000019999999N0000001N9+01061+99999099271ADDAJ100009199999999GF102991999999999999999999
0029028360999991917082213004+67367+026650FM-12+018199999V0202001N001019999999N0000001N9+01891+99999099381ADDGF103991999999999999999999
0029028360999991917082220004+67367+026650FM-12+018199999V0209991C000019999999N0000001N9+00781+99999099461ADDGF104991999999999999999999
0046028360999991917082306004+67367+026650FM-12+018199999V0201801N003119999999N0000001N9+00781+99999099541ADDAJ100009199999999GF108991999999999999999999
0029028360999991917082313004+67367+026650FM-12+018199999V0202301N007219999999N0000001N9+01781+99999099351ADDGF106991999999999999999999
0029028360999991917082320004+67367+026650FM-12+018199999V0209991C000019999999N0000001N9+01171+99999099321ADDGF102991999999999999999999
0046028360999991917082406004+67367+026650FM-12+018199999V0202301N001019999999N0000001N9+00941+99999099381ADDAJ100009199999999GF108991999999999999999999
0029028360999991917082413004+67367+026650FM-12+018199999V0202301N007219999999N0000001N9+01891+99999099121ADDGF108991999999999999999999
0029028360999991917082420004+67367+026650FM-12+018199999V0201801N003119999999N0000001N9+01281+99999098901ADDGF108991999999999999999999
0046028360999991917082506004+67367+026650FM-12+018199999V0201801N004119999999N0000001N9+01331+99999098711ADDAJ100009199999999GF108991999999999999999999
0029028360999991917082513004+67367+026650FM-12+018199999V0201401N003119999999N0000001N9+01781+99999098821ADDGF108991999999999999999999
0035028360999991917082520004+67367+026650FM-12+018199999V0201101N001019999999N0000001N9+01331+99999098821ADDGF108991999999999999999999MW1621
0046028360999991917082606004+67367+026650FM-12+018199999V0201601N005119999999N0000001N9+01281+99999098831ADDAJ100009199999999GF108991999999999999999999
0029028360999991917082613004+67367+026650FM-12+018199999V0200901N006219999999N0000001N9+01671+99999098661ADDGF108991999999999999999999
0029028360999991917082620004+67367+026650FM-12+018199999V0201401N001019999999N0000001N9+01221+99999098581ADDGF108991999999999999999999
0046028360999991917082706004+67367+026650FM-12+018199999V0201401N001019999999N0000001N9+01331+99999098521ADDAJ100009199999999GF108991999999999999999999
0029028360999991917082713004+67367+026650FM-12+018199999V0203401N003119999999N0000001N9+01721+99999098521ADDGF107991999999999999999999
0029028360999991917082720004+67367+026650FM-12+018199999V0203601N001019999999N0000001N9+01281+99999098601ADDGF108991999999999999999999
0046028360999991917082806004+67367+026650FM-12+018199999V0200501N005119999999N0000001N9+00781+99999099041ADDAJ100009199999999GF108991999999999999999999
0029028360999991917082813004+67367+026650FM-12+018199999V0200501N003119999999N0000001N9+01111+99999099191ADDGF108991999999999999999999
0029028360999991917082820004+67367+026650FM-12+018199999V0200901N003119999999N0000001N9+01111+99999099221ADDGF108991999999999999999999
0046028360999991917082906004+67367+026650FM-12+018199999V0201401N003119999999N0000001N9+01001+99999099161ADDAJ100009199999999GF108991999999999999999999
0029028360999991917082913004+67367+026650FM-12+018199999V0201401N006219999999N0000001N9+01611+99999099021ADDGF108991999999999999999999
