0029028360999991918010106004+67367+026650FM-12+018199999V0202301N008719999999N0000001N9-00561+99999095431ADDGF108991999999999999999999
0029028360999991918010113004+67367+026650FM-12+018199999V0203401N005119999999N0000001N9-00941+99999095541ADDGF108991999999999999999999
0035028360999991918010120004+67367+026650FM-12+018199999V0203401N008719999999N0000001N9-00671+99999096231ADDGF108991999999999999999999MW1701
0029028360999991918010206004+67367+026650FM-12+018199999V0203401N003119999999N0000001N9-01331+99999097231ADDGF108991999999999999999999
0029028360999991918010213004+67367+026650FM-12+018199999V0209991C000019999999N0000001N9-01781+99999097861ADDGF108991999999999999999999
0035028360999991918010220004+67367+026650FM-12+018199999V0209991C000019999999N0000001N9-03061+99999098421ADDGF100991999999999999999999MW1001
0029028360999991918010306004+67367+026650FM-12+018199999V0209991C000019999999N0000001N9-03671+99999098921ADDGF100991999999999999999999
0029028360999991918010313004+67367+026650FM-12+018199999V0209991C000019999999N0000001N9-03891+99999099141ADDGF100991999999999999999999
0035028360999991918010320004+67367+026650FM-12+018199999V0209991C000019999999N0000001N9-03831+99999099031ADDGF100991999999999999999999MW1001
0029028360999991918010406004+67367+026650FM-12+018199999V0209991C000019999999N0000001N9-04001+99999098361ADDGF102991999999999999999999
0029028360999991918010413004+67367+026650FM-12+018199999V0209991C000019999999N0000001N9-03391+99999097911ADDGF108991999999999999999999
0029028360999991918010420004+67367+026650FM-12+018199999V0209991C000019999999N0000001N9-03391+99999097831ADDGF108991999999999999999999
0029028360999991918010506004+67367+026650FM-12+018199999V0209991C000019999999N0000001N9-03501+99999097951ADDGF108991999999999999999999
0035028360999991918010513004+67367+026650FM-12+018199999V0201601N002119999999N0000001N9-03221+99999097591ADDGF108991999999999999999999MW1701
0029028360999991918010520004+67367+026650FM-12+018199999V0201601N001019999999N0000001N9-02891+99999097401ADDGF108991999999999999999999
0029028360999991918010606004+67367+026650FM-12+018199999V0209991C000019999999N0000001N9-04501+99999097381ADDGF100991999999999999999999
0029028360999991918010613004+67367+026650FM-12+018199999V0209991C000019999999N0000001N9-04441+99999097311ADDGF101991999999999999999999
0035028360999991918010620004+67367+026650FM-12+018199999V0209991C000019999999N0000001N9-03441+99999097401ADDGF108991999999999999999999MW1701
0029028360999991918010706004+67367+026650FM-12+018199999V0209991C000019999999N0000001N9-04281+99999097561ADDGF108991999999999999999999
0000028360999991918010713004+67367+026650FM-12+018199999V0201801N003119999999N0000001N9-03281+99999097641
0029028360999991918010720004+67367+026650FM-12+018199999V0209991C000019999999N0000001N9-03941+99999097701ADDGF100991999999999999999999
0029028360999991918010806004+67367+026650FM-12+018199999V0201401N001019999999N0000001N9-03331+99999097671ADDGF108991999999999999999999
0029028360999991918010813004+67367+026650FM-12+018199999V0201601N001019999999N0000001N9-03611+99999097741ADDGF108991999999999999999999
0029028360999991918010820004+67367+026650FM-12+018199999V0209991C000019999999N0000001N9-04221+99999097681ADDGF100991999999999999999999
0029028360999991918010906004+67367+026650FM-12+018199999V0201601N003119999999N0000001N9-03721+99999097391ADDGF108991999999999999999999
0029028360999991918010913004+67367+026650FM-12+018199999V0201601N001019999999N0000001N9-03281+99999097391ADDGF108991999999999999999999
0029028360999991918010920004+67367+026650FM-12+018199999V0201601N001019999999N0000001N9-02391+99999097241ADDGF108991999999999999999999
0029028360999991918011006004+67367+026650FM-12+018199999V0209991C000019999999N0000001N9-02221+99999097181ADDGF108991999999999999999999
0035028360999991918011013004+67367+026650FM-12+018199999V0209991C000019999999N0000001N9-02391+99999097201ADDGF108991999999999999999999MW1701
0035028360999991918011020004+67367+026650FM-12+018199999V0209991C000019999999N0000001N9-01941+99999097351ADDGF108991999999999999999999MW1701
0035028360999991918011106004+67367+026650FM-12+018199999V0209991C000019999999N0000001N9-01671+99999097481ADDGF108991999999999999999999MW1701
0029028360999991918011113004+67367+026650FM-12+018199999V0201601N001019999999N0000001N9-01501+99999097541ADDGF108991999999999999999999
0035028360999991918011120004+67367+026650FM-12+018199999V0201601N002119999999N0000001N9-01891+99999097621ADDGF108991999999999999999999MW1701
0029028360999991918011206004+67367+026650FM-12+018199999V0201601N003119999999N0000001N9-01781+99999097911ADDGF108991999999999999999999
0029028360999991918011213004+67367+026650FM-12+018199999V0201401N001019999999N0000001N9-02891+99999098261ADDGF100991999999999999999999
0035028360999991918011220004+67367+026650FM-12+018199999V0209991C000019999999N0000001N9-03891+99999098201ADDGF100991999999999999999999MW1001
0029028360999991918011306004+67367+026650FM-12+018199999V0209991C000019999999N0000001N9-03941+99999098121ADDGF102991999999999999999999
0029028360999991918011313004+67367+026650FM-12+018199999V0202901N003119999999N0000001N9-02721+99999097941ADDGF108991999999999999999999
0029028360999991918011320004+67367+026650FM-12+018199999V0202901N001019999999N0000001N9-02721+99999097801ADDGF108991999999999999999999
0029028360999991918011406004+67367+026650FM-12+018199999V0209991C000019999999N0000001N9-03721+99999097941ADDGF100991999999999999999999
0029028360999991918011413004+67367+026650FM-12+018199999V0202501N001019999999N0000001N9-04001+99999097941ADDGF101991999999999999999999
0035028360999991918011420004+67367+026650FM-12+018199999V0201601N003119999999N0000001N9-02441+99999097481ADDGF108991999999999999999999MW1701
0029028360999991918011506004+67367+026650FM-12+018199999V0202901N001019999999N0000001N9-02331+99999097111ADDGF100991999999999999999999
0029028360999991918011513004+67367+026650FM-12+018199999V0209991C000019999999N0000001N9-03221+99999097421ADDGF108991999999999999999999
0035028360999991918011520004+67367+026650FM-12+018199999V0209991C000019999999N0000001N9-02561+99999097401ADDGF108991999999999999999999MW1701
0029028360999991918011606004+67367+026650FM-12+018199999V0202901N004119999999N0000001N9-02831+99999097141ADDGF108991999999999999999999
0029028360999991918011613004+67367+026650FM-12+018199999V0203401N003119999999N0000001N9-02441+99999096951ADDGF108991999999999999999999
0029028360999991918011620004+67367+026650FM-12+018199999V0203401N001019999999N0000001N9-02561+99999097031ADDGF108991999999999999999999
0029028360999991918011706004+67367+026650FM-12+018199999V0209991C000019999999N0000001N9-03831+99999097351ADDGF102991999999999999999999
0029028360999991918011713004+67367+026650FM-12+018199999V0200501N001019999999N0000001N9-03501+99999097581ADDGF100991999999999999999999
0029028360999991918011720004+67367+026650FM-12+018199999V0209991C000019999999N0000001N9-04171+99999097751ADDGF101991999999999999999999
0029028360999991918011806004+67367+026650FM-12+018199999V0201401N003119999999N0000001N9-02891+99999097721ADDGF108991999999999999999999
0029028360999991918011813004+67367+026650FM-12+018199999V0202001N006219999999N0000001N9-01891+99999097391ADDGF108991999999999999999999
0029028360999991918011820004+67367+026650FM-12+018199999V0201601N003119999999N0000001N9-01611+99999097241ADDGF108991999999999999999999
0035028360999991918011906004+67367+026650FM-12+018199999V0201601N005119999999N0000001N9-01391+99999096661ADDGF108991999999999999999999MW1701
0035028360999991918011913004+67367+026650FM-12+018199999V0201801N004119999999N0000001N9-01001+99999096541ADDGF108991999999999999999999MW1721
0035028360999991918011920004+67367+026650FM-12+018199999V0209991C000019999999N0000001N9-01221+99999096871ADDGF108991999999999999999999MW1721
0029028360999991918012006004+67367+026650FM-12+018199999V0209991C000019999999N0000001N9-01831+99999098071ADDGF100991999999999999999999
0029028360999991918012013004+67367+026650FM-12+018199999V0209991C000019999999N0000001N9-03281+99999098711ADDGF102991999999999999999999
0029028360999991918012020004+67367+026650FM-12+018199999V0201601N001019999999N0000001N9-02391+99999098591ADDGF108991999999999999999999
0035028360999991918012106004+67367+026650FM-12+018199999V0201601N006219999999N0000001N9-00941+99999097591ADDGF108991999999999999999999MW1721
0035028360999991918012113004+67367+026650FM-12+018199999V0201801N006219999999N0000001N9-00781+99999097401ADDGF108991999999999999999999MW1721
0035028360999991918012120004+67367+026650FM-12+018199999V0201801N003119999999N0000001N9-00721+99999096941ADDGF108991999999999999999999MW1721
0029028360999991918012206004+67367+026650FM-12+018199999V0209991C000019999999N0000001N9-01111+99999097351ADDGF100991999999999999999999
0029028360999991918012213004+67367+026650FM-12+018199999V0202501N001019999999N0000001N9-01671+99999098031ADDGF100991999999999999999999
0029028360999991918012220004+67367+026650FM-12+018199999V0209991C000019999999N0000001N9-02331+99999098481ADDGF100991999999999999999999
0029028360999991918012306004+67367+026650FM-12+018199999V0209991C000019999999N0000001N9-02941+99999098721ADDGF100991999999999999999999
0029028360999991918012313004+67367+026650FM-12+018199999V0202301N003119999999N0000001N9-02171+99999098821ADDGF100991999999999999999999
0029028360999991918012320004+67367+026650FM-12+018199999V0202701N008719999999N0000001N9-01171+99999098561ADDGF108991999999999999999999
0029028360999991918012406004+67367+026650FM-12+018199999V0202501N005119999999N0000001N9-01391+99999099781ADDGF100991999999999999999999
0029028360999991918012413004+67367+026650FM-12+018199999V0202501N005119999999N0000001N9-01281+99999100041ADDGF100991999999999999999999
0029028360999991918012420004+67367+026650FM-12+018199999V0209991C000019999999N0000001N9-02111+99999100041ADDGF102991999999999999999999
0029028360999991918012506004+67367+026650FM-12+018199999V0201801N003119999999N0000001N9-00941+99999099191ADDGF108991999999999999999999
0035028360999991918012513004+67367+026650FM-12+018199999V0201801N004119999999N0000001N9-00891+99999098181ADDGF108991999999999999999999MW1701
0029028360999991918012520004+67367+026650FM-12+018199999V0202001N001019999999N0000001N9-00611+99999097721ADDGF108991999999999999999999
0029028360999991918012606004+67367+026650FM-12+018199999V0209991C000019999999N0000001N9-00561+99999097481ADDGF108991999999999999999999
0029028360999991918012613004+67367+026650FM-12+018199999V0202301N006219999999N0000001N9-00061+99999097221ADDGF108991999999999999999999
0029028360999991918012620004+67367+026650FM-12+018199999V0202501N013919999999N0000001N9+00281+99999096681ADDGF108991999999999999999999
0029028360999991918012706004+67367+026650FM-12+018199999V0202701N007219999999N0000001N9+00221+99999097301ADDGF100991999999999999999999
0029028360999991918012713004+67367+026650FM-12+018199999V0202901N001019999999N0000001N9-00111+99999097831ADDGF108991999999999999999999
0029028360999991918012720004+67367+026650FM-12+018199999V0202901N001019999999N0000001N9-00781+99999097701ADDGF108991999999999999999999
0029028360999991918012806004+67367+026650FM-12+018199999V0209991C000019999999N0000001N9-00671+99999097941ADDGF108991999999999999999999
0029028360999991918012813004+67367+026650FM-12+018199999V0202001N001019999999N0000001N9-00171+99999098071ADDGF108991999999999999999999
0035028360999991918012820004+67367+026650FM-12+018199999V0209991C000019999999N0000001N9-01001+99999098071ADDGF100991999999999999999999MW1001
0035028360999991918012906004+67367+026650FM-12+018199999V0202501N002119999999N0000001N9-00721+99999098201ADDGF108991999999999999999999MW1701
0029028360999991918012913004+67367+026650FM-12+018199999V0200501N007219999999N0000001N9-00561+99999099031ADDGF108991999999999999999999
0035028360999991918012920004+67367+026650FM-12+018199999V0209991C000019999999N0000001N9-01561+99999099961ADDGF100991999999999999999999MW1001
0029028360999991918013006004+67367+026650FM-12+018199999V0209991C000019999999N0000001N9-03281+99999100421ADDGF100991999999999999999999
0029028360999991918013013004+67367+026650FM-12+018199999V0209991C000019999999N0000001N9-02891+99999100261ADDGF102991999999999999999999
0035028360999991918013020004+67367+026650FM-12+018199999V0201101N003119999999N0000001N9-01891+99999099941ADDGF108991999999999999999999MW1701
0035028360999991918013106004+67367+026650FM-12+018199999V0201101N002119999999N0000001N9-01331+99999099161ADDGF108991999999999999999999MW1701
0029028360999991918013113004+67367+026650FM-12+018199999V0201101N001019999999N0000001N9-01611+99999099401ADDGF106991999999999999999999
0029028360999991918013120004+67367+026650FM-12+018199999V0201601N001019999999N0000001N9-01611+99999099591ADDGF108991999999999999999999
0029028360999991918020106004+67367+026650FM-12+018199999V0202501N006219999999N0000001N9-00061+99999097941ADDGF108991999999999999999999
0029028360999991918020113004+67367+026650FM-12+018199999V0203401N011819999999N0000001N9-00111+99999098521ADDGF108991999999999999999999
0029028360999991918020120004+67367+026650FM-12+018199999V0203401N001019999999N0000001N9-01171+99999100301ADDGF108991999999999999999999
0029028360999991918020206004+67367+026650FM-12+018199999V0209991C000019999999N0000001N9-01781+99999100711ADDGF108991999999999999999999
0035028360999991918020213004+67367+026650FM-12+018199999V0201801N003119999999N0000001N9-01061+99999100471ADDGF108991999999999999999999MW1721
0035028360999991918020220004+67367+026650FM-12+018199999V0201401N003119999999N0000001N9-01061+99999099921ADDGF108991999999999999999999MW1721
0035028360999991918020306004+67367+026650FM-12+018199999V0201401N001019999999N0000001N9-00831+99999099151ADDGF108991999999999999999999MW1721
0029028360999991918020313004+67367+026650FM-12+018199999V0201601N002119999999N0000001N9-00721+99999099001ADDGF108991999999999999999999
0035028360999991918020320004+67367+026650FM-12+018199999V0201801N002119999999N0000001N9-00561+99999098701ADDGF108991999999999999999999MW1001
0029028360999991918020406004+67367+026650FM-12+018199999V0202301N005119999999N0000001N9-00061+99999099191ADDGF108991999999999999999999
0029028360999991918020413004+67367+026650FM-12+018199999V0201801N001019999999N0000001N9-00391+99999099301ADDGF108991999999999999999999
0029028360999991918020420004+67367+026650FM-12+018199999V0201401N004119999999N0000001N9-00561+99999098921ADDGF101991999999999999999999
0029028360999991918020506004+67367+026650FM-12+018199999V0202301N005119999999N0000001N9-00061+99999098181ADDGF108991999999999999999999
0029028360999991918020513004+67367+026650FM-12+018199999V0202301N003119999999N0000001N9-00171+99999098231ADDGF107991999999999999999999
0035028360999991918020520004+67367+026650FM-12+018199999V0202301N005119999999N0000001N9-00061+99999098181ADDGF100991999999999999999999MW1001
0029028360999991918020606004+67367+026650FM-12+018199999V0202001N005119999999N0000001N9-00221+99999097581ADDGF108991999999999999999999
0029028360999991918020613004+67367+026650FM-12+018199999V0202301N006219999999N0000001N9-00061+99999097081ADDGF107991999999999999999999
0035028360999991918020620004+67367+026650FM-12+018199999V0202501N008719999999N0000001N9-00061+99999096871ADDGF100991999999999999999999MW1001
0029028360999991918020706004+67367+026650FM-12+018199999V0203601N001019999999N0000001N9-00781+99999097591ADDGF108991999999999999999999
0029028360999991918020713004+67367+026650FM-12+018199999V0200501N005119999999N0000001N9-00831+99999097831ADDGF108991999999999999999999
0029028360999991918020720004+67367+026650FM-12+018199999V0200501N004119999999N0000001N9-01331+99999098241ADDGF108991999999999999999999
0029028360999991918020806004+67367+026650FM-12+018199999V0209991C000019999999N0000001N9-02781+99999098821ADDGF100991999999999999999999
0029028360999991918020813004+67367+026650FM-12+018199999V0200201N001019999999N0000001N9-01781+99999098741ADDGF100991999999999999999999
0035028360999991918020820004+67367+026650FM-12+018199999V0209991C000019999999N0000001N9-02561+99999098521ADDGF108991999999999999999999MW1701
0029028360999991918020906004+67367+026650FM-12+018199999V0203601N003119999999N0000001N9-02061+99999098161ADDGF108991999999999999999999
0029028360999991918020913004+67367+026650FM-12+018199999V0203401N004119999999N0000001N9-02331+99999098191ADDGF100991999999999999999999
0035028360999991918020920004+67367+026650FM-12+018199999V0209991C000019999999N0000001N9-03501+99999098361ADDGF100991999999999999999999MW1001
0029028360999991918021006004+67367+026650FM-12+018199999V0203401N001019999999N0000001N9-04001+99999098661ADDGF100991999999999999999999
0029028360999991918021013004+67367+026650FM-12+018199999V0203401N001019999999N0000001N9-02831+99999098821ADDGF108991999999999999999999
0035028360999991918021020004+67367+026650FM-12+018199999V0209991C000019999999N0000001N9-02221+99999098801ADDGF108991999999999999999999MW1701
0029028360999991918021106004+67367+026650FM-12+018199999V0201401N003119999999N0000001N9-01781+99999098681ADDGF108991999999999999999999
0029028360999991918021113004+67367+026650FM-12+018199999V0201401N005119999999N0000001N9-01671+99999098551ADDGF108991999999999999999999
0035028360999991918021120004+67367+026650FM-12+018199999V0201401N003119999999N0000001N9-01561+99999098311ADDGF108991999999999999999999MW1701
0029028360999991918021206004+67367+026650FM-12+018199999V0201801N003119999999N0000001N9-01561+99999098041ADDGF108991999999999999999999
0035028360999991918021213004+67367+026650FM-12+018199999V0202501N003119999999N0000001N9-01281+99999097951ADDGF108991999999999999999999MW1701
0035028360999991918021220004+67367+026650FM-12+018199999V0209991C000019999999N0000001N9-01391+99999097991ADDGF102991999999999999999999MW1001
0035028360999991918021306004+67367+026650FM-12+018199999V0203201N008719999999N0000001N9-00611+99999098241ADDGF108991999999999999999999MW1721
0029028360999991918021313004+67367+026650FM-12+018199999V0203601N005119999999N0000001N9-00891+99999098911ADDGF108991999999999999999999
0029028360999991918021320004+67367+026650FM-12+018199999V0203601N005119999999N0000001N9-00781+99999099401ADDGF108991999999999999999999
0029028360999991918021406004+67367+026650FM-12+018199999V0202901N003119999999N0000001N9-01171+99999099841ADDGF106991999999999999999999
0029028360999991918021413004+67367+026650FM-12+018199999V0203601N001019999999N0000001N9-00721+99999100601ADDGF108991999999999999999999
0035028360999991918021420004+67367+026650FM-12+018199999V0209991C000019999999N0000001N9-02561+99999100821ADDGF102991999999999999999999MW1001
0029028360999991918021506004+67367+026650FM-12+018199999V0202301N006219999999N0000001N9-01061+99999100081ADDGF108991999999999999999999
0029028360999991918021513004+67367+026650FM-12+018199999V0202001N006219999999N0000001N9-00831+99999099671ADDGF108991999999999999999999
0029028360999991918021520004+67367+026650FM-12+018199999V0202301N001019999999N0000001N9-00941+99999099511ADDGF108991999999999999999999
0029028360999991918021606004+67367+026650FM-12+018199999V0201801N001019999999N0000001N9-01001+99999099441ADDGF108991999999999999999999
0029028360999991918021613004+67367+026650FM-12+018199999V0201801N003119999999N0000001N9-00671+99999099591ADDGF108991999999999999999999
0029028360999991918021620004+67367+026650FM-12+018199999V0201801N001019999999N0000001N9-00781+99999099781ADDGF100991999999999999999999
0029028360999991918021706004+67367+026650FM-12+018199999V0202301N005119999999N0000001N9-00561+99999100101ADDGF108991999999999999999999
0029028360999991918021713004+67367+026650FM-12+018199999V0202501N003119999999N0000001N9-00501+99999100441ADDGF108991999999999999999999
0029028360999991918021720004+67367+026650FM-12+018199999V0202301N001019999999N0000001N9-00721+99999100981ADDGF108991999999999999999999
0029028360999991918021806004+67367+026650FM-12+018199999V0202001N003119999999N0000001N9-00781+99999101201ADDGF108991999999999999999999
0035028360999991918021813004+67367+026650FM-12+018199999V0202301N005119999999N0000001N9-00941+99999101271ADDGF108991999999999999999999MW1701
0035028360999991918021820004+67367+026650FM-12+018199999V0202301N003119999999N0000001N9-00941+99999101191ADDGF108991999999999999999999MW1701
0029028360999991918021906004+67367+026650FM-12+018199999V0202301N005119999999N0000001N9-00721+99999101031ADDGF108991999999999999999999
0029028360999991918021913004+67367+026650FM-12+018199999V0202301N007219999999N0000001N9-00611+99999100821ADDGF108991999999999999999999
0029028360999991918021920004+67367+026650FM-12+018199999V0202301N001019999999N0000001N9-00831+99999100761ADDGF108991999999999999999999
0029028360999991918022006004+67367+026650FM-12+018199999V0201801N001019999999N0000001N9-01061+99999100711ADDGF108991999999999999999999
0035028360999991918022013004+67367+026650FM-12+018199999V0202301N004119999999N0000001N9-01391+99999100661ADDGF108991999999999999999999MW1721
0029028360999991918022020004+67367+026650FM-12+018199999V0201801N001019999999N0000001N9-01441+99999100441ADDGF108991999999999999999999
0029028360999991918022106004+67367+026650FM-12+018199999V0201801N001019999999N0000001N9-01441+99999100121ADDGF108991999999999999999999
0035028360999991918022113004+67367+026650FM-12+018199999V0201801N003119999999N0000001N9-01331+99999100041ADDGF108991999999999999999999MW1701
0029028360999991918022120004+67367+026650FM-12+018199999V0201801N001019999999N0000001N9-01391+99999099841ADDGF108991999999999999999999
0029028360999991918022206004+67367+026650FM-12+018199999V0202001N002119999999N0000001N9-01611+99999099401ADDGF108991999999999999999999
0029028360999991918022213004+67367+026650FM-12+018199999V0201801N003119999999N0000001N9-01611+99999099021ADDGF108991999999999999999999
0029028360999991918022220004+67367+026650FM-12+018199999V0209991C000019999999N0000001N9-02721+99999098551ADDGF100991999999999999999999
0029028360999991918022306004+67367+026650FM-12+018199999V0209991C000019999999N0000001N9-02391+99999098031ADDGF101991999999999999999999
0035028360999991918022313004+67367+026650FM-12+018199999V0201601N003119999999N0000001N9-01611+99999097881ADDGF108991999999999999999999MW1701
0035028360999991918022320004+67367+026650FM-12+018199999V0201601N001019999999N0000001N9-01331+99999097641ADDGF108991999999999999999999MW1701
0035028360999991918022406004+67367+026650FM-12+018199999V0201801N001019999999N0000001N9-01111+99999097311ADDGF108991999999999999999999MW1721
0029028360999991918022413004+67367+026650FM-12+018199999V0202501N001019999999N0000001N9-00941+99999097461ADDGF100991999999999999999999
0029028360999991918022420004+67367+026650FM-12+018199999V0202301N001019999999N0000001N9-00891+99999097631ADDGF108991999999999999999999
0029028360999991918022506004+67367+026650FM-12+018199999V0209991C000019999999N0000001N9-02281+99999097801ADDGF100991999999999999999999
0029028360999991918022513004+67367+026650FM-12+018199999V0202701N001019999999N0000001N9-00671+99999097681ADDGF100991999999999999999999
0029028360999991918022520004+67367+026650FM-12+018199999V0201801N001019999999N0000001N9-01391+99999097541ADDGF102991999999999999999999
0035028360999991918022606004+67367+026650FM-12+018199999V0209991C000019999999N0000001N9-01281+99999097231ADDGF108991999999999999999999MW1721
0029028360999991918022613004+67367+026650FM-12+018199999V0209991C000019999999N0000001N9-01001+99999097001ADDGF108991999999999999999999
0029028360999991918022620004+67367+026650FM-12+018199999V0209991C000019999999N0000001N9-01061+99999096521ADDGF108991999999999999999999
0029028360999991918022706004+67367+026650FM-12+018199999V0200901N001019999999N0000001N9-00941+99999095941ADDGF108991999999999999999999
0035028360999991918022713004+67367+026650FM-12+018199999V0200501N005119999999N0000001N9-00831+99999096161ADDGF108991999999999999999999MW1721
0035028360999991918022720004+67367+026650FM-12+018199999V0200501N005119999999N0000001N9-00831+99999095991ADDGF108991999999999999999999MW1721
0035028360999991918022806004+67367+026650FM-12+018199999V0200501N008219999999N0000001N9-00831+99999096471ADDGF108991999999999999999999MW1721
0035028360999991918022813004+67367+026650FM-12+018199999V0200201N009819999999N0000001N9-00501+99999096551ADDGF108991999999999999999999MW1721
0029028360999991918022820004+67367+026650FM-12+018199999V02099999999999999999N0000001N9-00721+99999097431ADDGF100991999999999999999999
0029028360999991918030106004+67367+026650FM-12+018199999V0203601N006219999999N0000001N9-00831+99999098151ADDGF102991999999999999999999
0029028360999991918030113004+67367+026650FM-12+018199999V0203601N006219999999N0000001N9-00721+99999098741ADDGF100991999999999999999999
0029028360999991918030120004+67367+026650FM-12+018199999V0209991C000019999999N0000001N9-02171+99999099381ADDGF100991999999999999999999
0029028360999991918030206004+67367+026650FM-12+018199999V0209991C000019999999N0000001N9-01831+99999099281ADDGF101991999999999999999999
0029028360999991918030213004+67367+026650FM-12+018199999V0202301N008219999999N0000001N9-00891+99999098921ADDGF108991999999999999999999
0029028360999991918030220004+67367+026650FM-12+018199999V0202301N006219999999N0000001N9-00561+99999098831ADDGF108991999999999999999999
0029028360999991918030306004+67367+026650FM-12+018199999V0202301N006219999999N0000001N9+00001+99999099191ADDGF102991999999999999999999
0029028360999991918030313004+67367+026650FM-12+018199999V0203201N006219999999N0000001N9+00721+99999100021ADDGF102991999999999999999999
0000028360999991918030320004+67367+026650FM-12+018199999V0209991C000019999999N0000001N9-00331+99999100231
0029028360999991918030406004+67367+026650FM-12+018199999V0202301N002119999999N0000001N9-00331+99999100681ADDGF100991999999999999999999
0029028360999991918030413004+67367+026650FM-12+018199999V0209991C000019999999N0000001N9+00281+99999100641ADDGF100991999999999999999999
0029028360999991918030420004+67367+026650FM-12+018199999V0202001N003119999999N0000001N9-00171+99999100751ADDGF100991999999999999999999
0029028360999991918030506004+67367+026650FM-12+018199999V0202001N006219999999N0000001N9-01171+99999100461ADDGF100991999999999999999999
0029028360999991918030513004+67367+026650FM-12+018199999V0202301N007219999999N0000001N9+00111+99999099861ADDGF100991999999999999999999
0029028360999991918030520004+67367+026650FM-12+018199999V0201801N008219999999N0000001N9+00221+99999099001ADDGF100991999999999999999999
0029028360999991918030606004+67367+026650FM-12+018199999V0202701N008219999999N0000001N9-00281+99999099071ADDGF103991999999999999999999
0029028360999991918030613004+67367+026650FM-12+018199999V0203601N019019999999N0000001N9-00061+99999099911ADDGF102991999999999999999999
0029028360999991918030620004+67367+026650FM-12+018199999V0203601N008219999999N0000001N9-00561+99999100791ADDGF100991999999999999999999
0029028360999991918030706004+67367+026650FM-12+018199999V0202701N008219999999N0000001N9-00441+99999100441ADDGF108991999999999999999999
0029028360999991918030713004+67367+026650FM-12+018199999V0203201N007219999999N0000001N9+00111+99999099821ADDGF108991999999999999999999
0029028360999991918030720004+67367+026650FM-12+018199999V0202701N006219999999N0000001N9+00171+99999099941ADDGF100991999999999999999999
0029028360999991918030806004+67367+026650FM-12+018199999V0203201N008219999999N0000001N9+00111+99999099921ADDGF101991999999999999999999
0029028360999991918030813004+67367+026650FM-12+018199999V0203401N009819999999N0000001N9+00501+99999100161ADDGF108991999999999999999999
0029028360999991918030820004+67367+026650FM-12+018199999V0203201N004119999999N0000001N9+00171+99999100111ADDGF101991999999999999999999
0029028360999991918030906004+67367+026650FM-12+018199999V0209991C000019999999N0000001N9-00561+99999100041ADDGF100991999999999999999999
0029028360999991918030913004+67367+026650FM-12+018199999V0203201N001019999999N0000001N9+00221+99999099921ADDGF108991999999999999999999
0029028360999991918030920004+67367+026650FM-12+018199999V0209991C000019999999N0000001N9+00001+99999999999ADDGF108991999999999999999999
0029028360999991918031006004+67367+026650FM-12+018199999V0209991C000019999999N0000001N9-00281+99999099871ADDGF108991999999999999999999
0029028360999991918031013004+67367+026650FM-12+018199999V0201801N001019999999N0000001N9+00111+99999099801ADDGF108991999999999999999999
0029028360999991918031020004+67367+026650FM-12+018199999V0209991C000019999999N0000001N9-00441+99999100031ADDGF100991999999999999999999
0029028360999991918031106004+67367+026650FM-12+018199999V0201401N003119999999N0000001N9-00501+99999099641ADDGF107991999999999999999999
0029028360999991918031113004+67367+026650FM-12+018199999V0201601N004119999999N0000001N9-00331+99999099431ADDGF102991999999999999999999
0029028360999991918031120004+67367+026650FM-12+018199999V0201601N002119999999N0000001N9-00671+99999099511ADDGF108991999999999999999999
0029028360999991918031206004+67367+026650FM-12+018199999V0209991C000019999999N0000001N9-00831+99999099751ADDGF108991999999999999999999
0000028360999991918031213004+67367+026650FM-12+018199999V02099999999999999999N0000001N9+99999+99999099991
0029028360999991918031220004+67367+026650FM-12+018199999V0209991C000019999999N0000001N9-00611+99999100021ADDGF108991999999999999999999
0029028360999991918031306004+67367+026650FM-12+018199999V0202301N006219999999N0000001N9-00781+99999099701ADDGF108991999999999999999999
0029028360999991918031313004+67367+026650FM-12+018199999V0202001N001019999999N0000001N9-00391+99999099441ADDGF108991999999999999999999
0029028360999991918031320004+67367+026650FM-12+018199999V0202301N003119999999N0000001N9-00391+99999099301ADDGF108991999999999999999999
0029028360999991918031406004+67367+026650FM-12+018199999V0202301N004119999999N0000001N9-00171+99999098821ADDGF108991999999999999999999
0029028360999991918031413004+67367+026650FM-12+018199999V0202701N006219999999N0000001N9+00671+99999098941ADDGF106991999999999999999999
0029028360999991918031420004+67367+026650FM-12+018199999V0202701N002119999999N0000001N9+00441+99999099481ADDGF100991999999999999999999
0029028360999991918031506004+67367+026650FM-12+018199999V0209991C000019999999N0000001N9+00221+99999099541ADDGF107991999999999999999999
0029028360999991918031513004+67367+026650FM-12+018199999V0202501N007219999999N0000001N9+00331+99999099561ADDGF104991999999999999999999
0000028360999991918031520004+67367+026650FM-12+018199999V02099999999999999999N0000001N9+99999+99999099301
0029028360999991918031606004+67367+026650FM-12+018199999V0203601N019019999999N0000001N9-00441+99999099261ADDGF100991999999999999999999
0029028360999991918031613004+67367+026650FM-12+018199999V0203601N015919999999N0000001N9-00061+99999099861ADDGF106991999999999999999999
0029028360999991918031620004+67367+026650FM-12+018199999V0203601N004119999999N0000001N9-00221+99999100271ADDGF108991999999999999999999
0029028360999991918031706004+67367+026650FM-12+018199999V0203401N001019999999N0000001N9-00331+99999100391ADDGF108991999999999999999999
0029028360999991918031713004+67367+026650FM-12+018199999V0203201N004119999999N0000001N9+00061+99999100111ADDGF108991999999999999999999
0029028360999991918031720004+67367+026650FM-12+018199999V0209991C000019999999N0000001N9-00721+99999099981ADDGF100991999999999999999999
0029028360999991918031806004+67367+026650FM-12+018199999V0209991C000019999999N0000001N9-01501+99999099431ADDGF103991999999999999999999
0029028360999991918031813004+67367+026650FM-12+018199999V0209991C000019999999N0000001N9+00001+99999099121ADDGF100991999999999999999999
0029028360999991918031820004+67367+026650FM-12+018199999V0209991C000019999999N0000001N9-00501+99999098801ADDGF104991999999999999999999
0029028360999991918031906004+67367+026650FM-12+018199999V0209991C000019999999N0000001N9-00721+99999098501ADDGF108991999999999999999999
0029028360999991918031913004+67367+026650FM-12+018199999V0203401N001019999999N0000001N9+00061+99999098501ADDGF108991999999999999999999
0029028360999991918031920004+67367+026650FM-12+018199999V0209991C000019999999N0000001N9-00781+99999098681ADDGF100991999999999999999999
0029028360999991918032006004+67367+026650FM-12+018199999V0209991C000019999999N0000001N9-00721+99999098631ADDGF108991999999999999999999
0000028360999991918032013004+67367+026650FM-12+018199999V02099999999999999999N0000001N9+99999+99999098601
0029028360999991918032020004+67367+026650FM-12+018199999V0209991C000019999999N0000001N9-00281+99999098591ADDGF100991999999999999999999
0029028360999991918032106004+67367+026650FM-12+018199999V0209991C000019999999N0000001N9-00781+99999099081ADDGF107991999999999999999999
0029028360999991918032113004+67367+026650FM-12+018199999V0202301N006219999999N0000001N9-00061+99999098981ADDGF108991999999999999999999
0029028360999991918032120004+67367+026650FM-12+018199999V0202301N001019999999N0000001N9-00221+99999098241ADDGF108991999999999999999999
0029028360999991918032206004+67367+026650FM-12+018199999V0209991C000019999999N0000001N9-00671+99999098471ADDGF108991999999999999999999
0029028360999991918032213004+67367+026650FM-12+018199999V0201801N001019999999N0000001N9+00001+99999098101ADDGF107991999999999999999999
0029028360999991918032220004+67367+026650FM-12+018199999V0201801N004119999999N0000001N9-00281+99999097221ADDGF108991999999999999999999
0029028360999991918032306004+67367+026650FM-12+018199999V0200901N004119999999N0000001N9-00441+99999095541ADDGF108991999999999999999999
0029028360999991918032313004+67367+026650FM-12+018199999V0200501N008219999999N0000001N9-00441+99999096641ADDGF106991999999999999999999
0029028360999991918032320004+67367+026650FM-12+018199999V0200501N006219999999N0000001N9-00611+99999097441ADDGF104991999999999999999999
0029028360999991918032406004+67367+026650FM-12+018199999V0209991C000019999999N0000001N9-02611+99999098341ADDGF100991999999999999999999
0029028360999991918032413004+67367+026650FM-12+018199999V0203401N004119999999N0000001N9-01001+99999098641ADDGF100991999999999999999999
0029028360999991918032420004+67367+026650FM-12+018199999V0209991C000019999999N0000001N9-01781+99999098991ADDGF100991999999999999999999
0029028360999991918032506004+67367+026650FM-12+018199999V0203401N005119999999N0000001N9-01221+99999099001ADDGF103991999999999999999999
0000028360999991918032513004+67367+026650FM-12+018199999V02099999999999999999N0000001N9+99999+99999999999
0000028360999991918032520004+67367+026650FM-12+018199999V02099999999999999999N0000001N9+99999+99999999999
0000028360999991918032606004+67367+026650FM-12+018199999V02099999999999999999N0000001N9+99999+99999999999
0000028360999991918032613004+67367+026650FM-12+018199999V02099999999999999999N0000001N9+99999+99999999999
0000028360999991918032620004+67367+026650FM-12+018199999V02099999999999999999N0000001N9+99999+99999999999
0000028360999991918032706004+67367+026650FM-12+018199999V02099999999999999999N0000001N9+99999+99999999999
0000028360999991918032713004+67367+026650FM-12+018199999V02099999999999999999N0000001N9+99999+99999999999
0000028360999991918032720004+67367+026650FM-12+018199999V02099999999999999999N0000001N9+99999+99999999999
0000028360999991918032806004+67367+026650FM-12+018199999V02099999999999999999N0000001N9+99999+99999999999
0000028360999991918032813004+67367+026650FM-12+018199999V02099999999999999999N0000001N9+99999+99999999999
0000028360999991918032820004+67367+026650FM-12+018199999V02099999999999999999N0000001N9+99999+99999999999
0000028360999991918032906004+67367+026650FM-12+018199999V02099999999999999999N0000001N9+99999+99999999999
0000028360999991918032913004+67367+026650FM-12+018199999V02099999999999999999N0000001N9+99999+99999999999
0000028360999991918032920004+67367+026650FM-12+018199999V02099999999999999999N0000001N9+99999+99999999999
0000028360999991918033006004+67367+026650FM-12+018199999V02099999999999999999N0000001N9+99999+99999999999
0000028360999991918033013004+67367+026650FM-12+018199999V02099999999999999999N0000001N9+99999+99999999999
0000028360999991918033020004+67367+026650FM-12+018199999V02099999999999999999N0000001N9+99999+99999999999
0000028360999991918033106004+67367+026650FM-12+018199999V02099999999999999999N0000001N9+99999+99999999999
0000028360999991918033113004+67367+026650FM-12+018199999V02099999999999999999N0000001N9+99999+99999999999
0000028360999991918033120004+67367+026650FM-12+018199999V02099999999999999999N0000001N9+99999+99999999999
0046028360999991918050106004+67367+026650FM-12+018199999V0203401N004119999999N0000001N9+00331+99999100151ADDAJ100009199999999GF108991999999999999999999
0029028360999991918050113004+67367+026650FM-12+018199999V0203201N006219999999N0000001N9+00611+99999099561ADDGF103991999999999999999999
0029028360999991918050120004+67367+026650FM-12+018199999V0202701N005119999999N0000001N9+00561+99999099201ADDGF100991999999999999999999
0046028360999991918050206004+67367+026650FM-12+018199999V0203601N013919999999N0000001N9+00281+99999099151ADDAJ100009199999999GF108991999999999999999999
0029028360999991918050213004+67367+026650FM-12+018199999V0203201N007219999999N0000001N9+00281+99999099751ADDGF106991999999999999999999
0029028360999991918050220004+67367+026650FM-12+018199999V0203401N013919999999N0000001N9-00391+99999100341ADDGF103991999999999999999999
0046028360999991918050306004+67367+026650FM-12+018199999V0200201N005119999999N0000001N9-00671+99999100901ADDAJ100009199999999GF103991999999999999999999
0029028360999991918050313004+67367+026650FM-12+018199999V0200201N005119999999N0000001N9-00331+99999101001ADDGF102991999999999999999999
0029028360999991918050320004+67367+026650FM-12+018199999V0209991C000019999999N0000001N9-00671+99999101081ADDGF102991999999999999999999
0046028360999991918050406004+67367+026650FM-12+018199999V0202701N001019999999N0000001N9-00501+99999100961ADDAJ100009199999999GF100991999999999999999999
0029028360999991918050413004+67367+026650FM-12+018199999V0202501N005119999999N0000001N9+00171+99999100391ADDGF103991999999999999999999
0029028360999991918050420004+67367+026650FM-12+018199999V0202301N005119999999N0000001N9-00111+99999099721ADDGF108991999999999999999999
0046028360999991918050506004+67367+026650FM-12+018199999V0203401N004119999999N0000001N9+00221+99999099401ADDAJ100009199999999GF108991999999999999999999
0029028360999991918050513004+67367+026650FM-12+018199999V0203401N005119999999N0000001N9+00391+99999099301ADDGF108991999999999999999999
0029028360999991918050520004+67367+026650FM-12+018199999V0209991C000019999999N0000001N9-00061+99999099501ADDGF104991999999999999999999
0046028360999991918050606004+67367+026650FM-12+018199999V0202901N001019999999N0000001N9+00171+99999099511ADDAJ100009199999999GF108991999999999999999999
0029028360999991918050613004+67367+026650FM-12+018199999V0203201N004119999999N0000001N9+00391+99999099281ADDGF108991999999999999999999
0029028360999991918050620004+67367+026650FM-12+018199999V0200201N006219999999N0000001N9-00391+99999099511ADDGF108991999999999999999999
0046028360999991918050706004+67367+026650FM-12+018199999V0203601N008219999999N0000001N9-00501+99999100181ADDAJ100009199999999GF103991999999999999999999
0029028360999991918050713004+67367+026650FM-12+018199999V0203401N001019999999N0000001N9-00221+99999100151ADDGF108991999999999999999999
0029028360999991918050720004+67367+026650FM-12+018199999V0203601N003119999999N0000001N9-00501+99999100151ADDGF102991999999999999999999
0046028360999991918050806004+67367+026650FM-12+018199999V0203601N003119999999N0000001N9-00561+99999100341ADDAJ100009199999999GF108991999999999999999999
0029028360999991918050813004+67367+026650FM-12+018199999V0200501N004119999999N0000001N9-00331+99999100341ADDGF108991999999999999999999
0029028360999991918050820004+67367+026650FM-12+018199999V0203601N003119999999N0000001N9-00441+99999100391ADDGF108991999999999999999999
0046028360999991918050906004+67367+026650FM-12+018199999V0200501N004119999999N0000001N9-00501+99999100761ADDAJ100009199999999GF108991999999999999999999
0029028360999991918050913004+67367+026650FM-12+018199999V0200701N005119999999N0000001N9-00111+99999100801ADDGF105991999999999999999999
0029028360999991918050920004+67367+026650FM-12+018199999V0209991C000019999999N0000001N9-00331+99999100951ADDGF100991999999999999999999
0046028360999991918051006004+67367+026650FM-12+018199999V0209991C000019999999N0000001N9-00171+99999101181ADDAJ100009199999999GF100991999999999999999999
0029028360999991918051013004+67367+026650FM-12+018199999V0201101N004119999999N0000001N9+00331+99999100921ADDGF100991999999999999999999
0029028360999991918051020004+67367+026650FM-12+018199999V0209991C000019999999N0000001N9-00061+99999100661ADDGF102991999999999999999999
0046028360999991918051106004+67367+026650FM-12+018199999V0209991C000019999999N0000001N9+00061+99999100711ADDAJ100009199999999GF100991999999999999999999
0029028360999991918051113004+67367+026650FM-12+018199999V0202701N001019999999N0000001N9+00671+99999100661ADDGF100991999999999999999999
0029028360999991918051120004+67367+026650FM-12+018199999V0209991C000019999999N0000001N9+00171+99999100261ADDGF100991999999999999999999
0046028360999991918051206004+67367+026650FM-12+018199999V0209991C000019999999N0000001N9+00281+99999100121ADDAJ100009199999999GF103991999999999999999999
0029028360999991918051213004+67367+026650FM-12+018199999V0201601N006219999999N0000001N9+00781+99999100101ADDGF103991999999999999999999
0029028360999991918051220004+67367+026650FM-12+018199999V0201801N006219999999N0000001N9+00441+99999100041ADDGF100991999999999999999999
0046028360999991918051306004+67367+026650FM-12+018199999V0201801N004119999999N0000001N9+00391+99999100021ADDAJ100009199999999GF100991999999999999999999
0029028360999991918051313004+67367+026650FM-12+018199999V0202301N006219999999N0000001N9+01001+99999099861ADDGF102991999999999999999999
0029028360999991918051320004+67367+026650FM-12+018199999V0202001N005119999999N0000001N9+00501+99999099511ADDGF108991999999999999999999
0046028360999991918051406004+67367+026650FM-12+018199999V0202001N004119999999N0000001N9+00441+99999099181ADDAJ100009199999999GF108991999999999999999999
0029028360999991918051413004+67367+026650FM-12+018199999V0209991C000019999999N0000001N9+01111+99999099391ADDGF102991999999999999999999
0029028360999991918051420004+67367+026650FM-12+018199999V0203601N001019999999N0000001N9+00441+99999099261ADDGF106991999999999999999999
0046028360999991918051506004+67367+026650FM-12+018199999V0201801N004119999999N0000001N9+00561+99999099231ADDAJ100009199999999GF108991999999999999999999
0029028360999991918051513004+67367+026650FM-12+018199999V0202001N004119999999N0000001N9+00611+99999098831ADDGF108991999999999999999999
0029028360999991918051520004+67367+026650FM-12+018199999V0209991C000019999999N0000001N9+00391+99999098681ADDGF108991999999999999999999
0046028360999991918051606004+67367+026650FM-12+018199999V0200501N004119999999N0000001N9+00001+99999099341ADDAJ100009199999999GF108991999999999999999999
0029028360999991918051613004+67367+026650FM-12+018199999V0200701N003119999999N0000001N9+00171+99999099781ADDGF108991999999999999999999
0029028360999991918051620004+67367+026650FM-12+018199999V0209991C000019999999N0000001N9+00061+99999099791ADDGF100991999999999999999999
0046028360999991918051706004+67367+026650FM-12+018199999V0201401N004119999999N0000001N9+00221+99999099681ADDAJ100009199999999GF108991999999999999999999
0029028360999991918051713004+67367+026650FM-12+018199999V0201601N003119999999N0000001N9+00281+99999099461ADDGF108991999999999999999999
0029028360999991918051720004+67367+026650FM-12+018199999V0201601N001019999999N0000001N9+00221+99999099191ADDGF108991999999999999999999
0046028360999991918051806004+67367+026650FM-12+018199999V0201601N001019999999N0000001N9+00331+99999098961ADDAJ100009199999999GF108991999999999999999999
0029028360999991918051813004+67367+026650FM-12+018199999V0209991C000019999999N0000001N9+00721+99999098921ADDGF108991999999999999999999
0029028360999991918051820004+67367+026650FM-12+018199999V0209991C000019999999N0000001N9+00721+99999098821ADDGF107991999999999999999999
0046028360999991918051906004+67367+026650FM-12+018199999V0200201N003119999999N0000001N9+00441+99999098881ADDAJ100009199999999GF108991999999999999999999
0029028360999991918051913004+67367+026650FM-12+018199999V0200201N004119999999N0000001N9+00781+99999099381ADDGF102991999999999999999999
0029028360999991918051920004+67367+026650FM-12+018199999V0209991C000019999999N0000001N9+00561+99999099581ADDGF103991999999999999999999
0046028360999991918052006004+67367+026650FM-12+018199999V0209991C000019999999N0000001N9+00441+99999099711ADDAJ100009199999999GF102991999999999999999999
0029028360999991918052013004+67367+026650FM-12+018199999V0209991C000019999999N0000001N9+00831+99999099721ADDGF108991999999999999999999
0029028360999991918052020004+67367+026650FM-12+018199999V0209991C000019999999N0000001N9+00561+99999099831ADDGF108991999999999999999999
0046028360999991918052106004+67367+026650FM-12+018199999V0209991C000019999999N0000001N9+00721+99999099951ADDAJ100009199999999GF102991999999999999999999
0029028360999991918052113004+67367+026650FM-12+018199999V0201801N004119999999N0000001N9+01281+99999099791ADDGF108991999999999999999999
0029028360999991918052120004+67367+026650FM-12+018199999V0201601N001019999999N0000001N9+00831+99999099161ADDGF107991999999999999999999
0046028360999991918052206004+67367+026650FM-12+018199999V0201401N002119999999N0000001N9+00561+99999098721ADDAJ100009199999999GF108991999999999999999999
0029028360999991918052213004+67367+026650FM-12+018199999V0203401N006219999999N0000001N9+01001+99999098921ADDGF108991999999999999999999
0029028360999991918052220004+67367+026650FM-12+018199999V0209991C000019999999N0000001N9+00671+99999098981ADDGF106991999999999999999999
0046028360999991918052306004+67367+026650FM-12+018199999V0203201N004119999999N0000001N9+00561+99999099161ADDAJ100009199999999GF108991999999999999999999
0029028360999991918052313004+67367+026650FM-12+018199999V0203201N007219999999N0000001N9+00671+99999099141ADDGF107991999999999999999999
0029028360999991918052320004+67367+026650FM-12+018199999V0202901N001019999999N0000001N9+00561+99999099161ADDGF106991999999999999999999
0046028360999991918052406004+67367+026650FM-12+018199999V0200201N002119999999N0000001N9+00281+99999099221ADDAJ100009199999999GF108991999999999999999999
0029028360999991918052413004+67367+026650FM-12+018199999V0200201N007219999999N0000001N9+00781+99999099671ADDGF107991999999999999999999
0029028360999991918052420004+67367+026650FM-12+018199999V0200201N006219999999N0000001N9+00331+99999099721ADDGF100991999999999999999999
0046028360999991918052506004+67367+026650FM-12+018199999V0200501N004119999999N0000001N9+00171+99999100041ADDAJ100009199999999GF104991999999999999999999
0029028360999991918052513004+67367+026650FM-12+018199999V0200501N003119999999N0000001N9+00561+99999100031ADDGF103991999999999999999999
0029028360999991918052520004+67367+026650FM-12+018199999V0200501N001019999999N0000001N9+00441+99999099951ADDGF100991999999999999999999
0046028360999991918052606004+67367+026650FM-12+018199999V0203601N001019999999N0000001N9+00221+99999100181ADDAJ100009199999999GF108991999999999999999999
0029028360999991918052613004+67367+026650FM-12+018199999V0203201N001019999999N0000001N9+00671+99999100031ADDGF108991999999999999999999
0029028360999991918052620004+67367+026650FM-12+018199999V0200201N007219999999N0000001N9+00561+99999100021ADDGF102991999999999999999999
0046028360999991918052706004+67367+026650FM-12+018199999V0200501N001019999999N0000001N9+00221+99999100181ADDAJ100009199999999GF100991999999999999999999
0029028360999991918052713004+67367+026650FM-12+018199999V0200201N003119999999N0000001N9+01001+99999100021ADDGF100991999999999999999999
0029028360999991918052720004+67367+026650FM-12+018199999V0200501N001019999999N0000001N9+00611+99999099911ADDGF102991999999999999999999
0046028360999991918052806004+67367+026650FM-12+018199999V0200501N001019999999N0000001N9+00561+99999099761ADDAJ100009199999999GF108991999999999999999999
0029028360999991918052813004+67367+026650FM-12+018199999V0203401N001019999999N0000001N9+01221+99999099541ADDGF104991999999999999999999
0029028360999991918052820004+67367+026650FM-12+018199999V0209991C000019999999N0000001N9+01061+99999099321ADDGF102991999999999999999999
0046028360999991918052906004+67367+026650FM-12+018199999V0202001N007219999999N0000001N9+01281+99999099001ADDAJ100009199999999GF102991999999999999999999
0029028360999991918052913004+67367+026650FM-12+018199999V0202701N006219999999N0000001N9+01671+99999098391ADDGF102991999999999999999999
0029028360999991918052920004+67367+026650FM-12+018199999V0202301N001019999999N0000001N9+01281+99999098121ADDGF103991999999999999999999
0046028360999991918053006004+67367+026650FM-12+018199999V0202301N008219999999N0000001N9+01001+99999097501ADDAJ100009199999999GF107991999999999999999999
0029028360999991918053013004+67367+026650FM-12+018199999V0202701N008719999999N0000001N9+01221+99999097271ADDGF108991999999999999999999
0029028360999991918053020004+67367+026650FM-12+018199999V0202901N001019999999N0000001N9+00831+99999097321ADDGF102991999999999999999999
0046028360999991918053106004+67367+026650FM-12+018199999V0202901N006219999999N0000001N9+00721+99999097511ADDAJ100009199999999GF101991999999999999999999
0029028360999991918053113004+67367+026650FM-12+018199999V0203601N003119999999N0000001N9+00891+99999097661ADDGF101991999999999999999999
0029028360999991918053120004+67367+026650FM-12+018199999V0202901N004119999999N0000001N9+00781+99999097641ADDGF102991999999999999999999
0046028360999991918060106004+67367+026650FM-12+018199999V0203601N006219999999N0000001N9+00501+99999098071ADDAJ100009199999999GF108991999999999999999999
0035028360999991918060113004+67367+026650FM-12+018199999V0203401N008219999999N0000001N9+00611+99999098421ADDGF108991999999999999999999MW1601
0029028360999991918060120004+67367+026650FM-12+018199999V0203601N006219999999N0000001N9+00441+99999098701ADDGF107991999999999999999999
0046028360999991918060206004+67367+026650FM-12+018199999V0203401N008219999999N0000001N9+00171+99999099351ADDAJ100009199999999GF108991999999999999999999
0029028360999991918060213004+67367+026650FM-12+018199999V0203601N004119999999N0000001N9+00331+99999099621ADDGF108991999999999999999999
0029028360999991918060220004+67367+026650FM-12+018199999V0200201N003119999999N0000001N9+00111+99999099861ADDGF108991999999999999999999
0046028360999991918060306004+67367+026650FM-12+018199999V0200201N006219999999N0000001N9+00171+99999100301ADDAJ100009199999999GF108991999999999999999999
0029028360999991918060313004+67367+026650FM-12+018199999V0200201N005119999999N0000001N9+00441+99999100421ADDGF108991999999999999999999
0029028360999991918060320004+67367+026650FM-12+018199999V0209991C000019999999N0000001N9+00331+99999100391ADDGF106991999999999999999999
0046028360999991918060406004+67367+026650FM-12+018199999V0209991C000019999999N0000001N9+00561+99999100081ADDAJ100009199999999GF100991999999999999999999
0029028360999991918060413004+67367+026650FM-12+018199999V0203401N003119999999N0000001N9+01561+99999099561ADDGF101991999999999999999999
0029028360999991918060420004+67367+026650FM-12+018199999V0203601N005119999999N0000001N9+01221+99999099561ADDGF103991999999999999999999
0046028360999991918060506004+67367+026650FM-12+018199999V0203401N003119999999N0000001N9+00941+99999099751ADDAJ100009199999999GF107991999999999999999999
0029028360999991918060513004+67367+026650FM-12+018199999V0203401N001019999999N0000001N9+01221+99999099541ADDGF106991999999999999999999
0029028360999991918060520004+67367+026650FM-12+018199999V0203401N001019999999N0000001N9+01111+99999099311ADDGF108991999999999999999999
0046028360999991918060606004+67367+026650FM-12+018199999V0203601N004119999999N0000001N9+00941+99999099421ADDAJ100009199999999GF102991999999999999999999
0029028360999991918060613004+67367+026650FM-12+018199999V0203401N004119999999N0000001N9+01441+99999099181ADDGF102991999999999999999999
0029028360999991918060620004+67367+026650FM-12+018199999V0209991C000019999999N0000001N9+01281+99999099031ADDGF108991999999999999999999
0052028360999991918060706004+67367+026650FM-12+018199999V0209991C000019999999N0000001N9+00941+99999099111ADDAJ100009199999999GF108991999999999999999999MW1621
0029028360999991918060713004+67367+026650FM-12+018199999V0209991C000019999999N0000001N9+01611+99999099191ADDGF107991999999999999999999
0029028360999991918060720004+67367+026650FM-12+018199999V0200501N001019999999N0000001N9+01331+99999099321ADDGF106991999999999999999999
0046028360999991918060806004+67367+026650FM-12+018199999V0209991C000019999999N0000001N9+01281+99999099561ADDAJ100009199999999GF106991999999999999999999
0029028360999991918060813004+67367+026650FM-12+018199999V0200701N005119999999N0000001N9+01721+99999099561ADDGF107991999999999999999999
0029028360999991918060820004+67367+026650FM-12+018199999V0200501N001019999999N0000001N9+01171+99999099541ADDGF108991999999999999999999
0046028360999991918060906004+67367+026650FM-12+018199999V0200501N004119999999N0000001N9+01061+99999099431ADDAJ100009199999999GF101991999999999999999999
0029028360999991918060913004+67367+026650FM-12+018199999V0200501N006219999999N0000001N9+01501+99999099141ADDGF102991999999999999999999
0029028360999991918060920004+67367+026650FM-12+018199999V0200201N007219999999N0000001N9+00891+99999099041ADDGF108991999999999999999999
0046028360999991918061006004+67367+026650FM-12+018199999V0203601N004119999999N0000001N9+00331+99999099191ADDAJ100009199999999GF108991999999999999999999
0029028360999991918061013004+67367+026650FM-12+018199999V0203401N005119999999N0000001N9+00831+99999099191ADDGF107991999999999999999999
0035028360999991918061020004+67367+026650FM-12+018199999V0203601N005119999999N0000001N9+00611+99999099071ADDGF108991999999999999999999MW1601
0046028360999991918061106004+67367+026650FM-12+018199999V0200501N004119999999N0000001N9+00441+99999098921ADDAJ100009199999999GF108991999999999999999999
0029028360999991918061113004+67367+026650FM-12+018199999V0200501N001019999999N0000001N9+00891+99999098901ADDGF108991999999999999999999
0029028360999991918061120004+67367+026650FM-12+018199999V0200901N001019999999N0000001N9+00891+99999098831ADDGF108991999999999999999999
0052028360999991918061206004+67367+026650FM-12+018199999V0209991C000019999999N0000001N9+00671+99999098761ADDAJ100009199999999GF108991999999999999999999MW1601
0035028360999991918061213004+67367+026650FM-12+018199999V0200901N001019999999N0000001N9+00781+99999098741ADDGF108991999999999999999999MW1601
0029028360999991918061220004+67367+026650FM-12+018199999V0201401N001019999999N0000001N9+00941+99999098741ADDGF107991999999999999999999
0046028360999991918061306004+67367+026650FM-12+018199999V0201101N001019999999N0000001N9+01111+99999098421ADDAJ100009199999999GF102991999999999999999999
0029028360999991918061313004+67367+026650FM-12+018199999V0200901N004119999999N0000001N9+01611+99999098121ADDGF104991999999999999999999
0029028360999991918061320004+67367+026650FM-12+018199999V0209991C000019999999N0000001N9+01221+99999097991ADDGF103991999999999999999999
0046028360999991918061406004+67367+026650FM-12+018199999V0201401N001019999999N0000001N9+01331+99999097881ADDAJ100009199999999GF100991999999999999999999
0029028360999991918061413004+67367+026650FM-12+018199999V0201601N001019999999N0000001N9+01721+99999097461ADDGF103991999999999999999999
0029028360999991918061420004+67367+026650FM-12+018199999V0201601N001019999999N0000001N9+01331+99999097061ADDGF101991999999999999999999
0046028360999991918061506004+67367+026650FM-12+018199999V0201101N001019999999N0000001N9+01331+99999096821ADDAJ100009199999999GF102991999999999999999999
0029028360999991918061513004+67367+026650FM-12+018199999V0201101N006219999999N0000001N9+01561+99999096761ADDGF107991999999999999999999
0029028360999991918061520004+67367+026650FM-12+018199999V0200901N005119999999N0000001N9+01281+99999096921ADDGF103991999999999999999999
0046028360999991918061606004+67367+026650FM-12+018199999V0203601N004119999999N0000001N9+01281+99999096871ADDAJ100009199999999GF108991999999999999999999
0029028360999991918061613004+67367+026650FM-12+018199999V0200501N005119999999N0000001N9+01671+99999096801ADDGF106991999999999999999999
0029028360999991918061620004+67367+026650FM-12+018199999V0203601N004119999999N0000001N9+00721+99999097061ADDGF108991999999999999999999
0046028360999991918061706004+67367+026650FM-12+018199999V0203401N006219999999N0000001N9+00441+99999097481ADDAJ100009199999999GF108991999999999999999999
0029028360999991918061713004+67367+026650FM-12+018199999V0200201N003119999999N0000001N9+01061+99999097941ADDGF108991999999999999999999
0029028360999991918061720004+67367+026650FM-12+018199999V0200501N001019999999N0000001N9+01001+99999098181ADDGF108991999999999999999999
0046028360999991918061806004+67367+026650FM-12+018199999V0203601N003119999999N0000001N9+00781+99999098621ADDAJ100009199999999GF108991999999999999999999
0029028360999991918061813004+67367+026650FM-12+018199999V0209991C000019999999N0000001N9+01331+99999098871ADDGF106991999999999999999999
0029028360999991918061820004+67367+026650FM-12+018199999V0209991C000019999999N0000001N9+01331+99999098991ADDGF107991999999999999999999
0046028360999991918061906004+67367+026650FM-12+018199999V0201101N003119999999N0000001N9+01331+99999098921ADDAJ100009199999999GF108991999999999999999999
0029028360999991918061913004+67367+026650FM-12+018199999V0201101N005119999999N0000001N9+01331+99999098521ADDGF108991999999999999999999
0035028360999991918061920004+67367+026650FM-12+018199999V0200501N006219999999N0000001N9+00501+99999098111ADDGF108991999999999999999999MW1621
0052028360999991918062006004+67367+026650FM-12+018199999V0203201N001019999999N0000001N9+00721+99999097871ADDAJ100009199999999GF108991999999999999999999MW1621
0035028360999991918062013004+67367+026650FM-12+018199999V0203401N003119999999N0000001N9+00891+99999098001ADDGF108991999999999999999999MW1621
0029028360999991918062020004+67367+026650FM-12+018199999V0209991C000019999999N0000001N9+01001+99999098351ADDGF107991999999999999999999
0046028360999991918062106004+67367+026650FM-12+018199999V0203601N001019999999N0000001N9+01281+99999098631ADDAJ100009199999999GF100991999999999999999999
0035028360999991918062113004+67367+026650FM-12+018199999V0202701N004119999999N0000001N9+01561+99999098761ADDGF107991999999999999999999MW1601
0029028360999991918062120004+67367+026650FM-12+018199999V0202301N001019999999N0000001N9+01501+99999098761ADDGF101991999999999999999999
0046028360999991918062206004+67367+026650FM-12+018199999V0201801N005119999999N0000001N9+01391+99999098791ADDAJ100009199999999GF106991999999999999999999
0035028360999991918062213004+67367+026650FM-12+018199999V0201801N004119999999N0000001N9+01941+99999098631ADDGF108991999999999999999999MW1621
0029028360999991918062220004+67367+026650FM-12+018199999V0200201N001019999999N0000001N9+01331+99999098641ADDGF108991999999999999999999
0046028360999991918062306004+67367+026650FM-12+018199999V0202301N001019999999N0000001N9+01561+99999098681ADDAJ100009199999999GF101991999999999999999999
0029028360999991918062313004+67367+026650FM-12+018199999V0201101N005119999999N0000001N9+02111+99999098631ADDGF102991999999999999999999
0029028360999991918062320004+67367+026650FM-12+018199999V0209991C000019999999N0000001N9+01561+99999098741ADDGF101991999999999999999999
0052028360999991918062406004+67367+026650FM-12+018199999V0200901N001019999999N0000001N9+01331+99999098421ADDAJ100009199999999GF108991999999999999999999MW1621
0035028360999991918062413004+67367+026650FM-12+018199999V0200901N003119999999N0000001N9+01441+99999098191ADDGF108991999999999999999999MW1621
0029028360999991918062420004+67367+026650FM-12+018199999V0202301N006219999999N0000001N9+01331+99999098681ADDGF100991999999999999999999
0046028360999991918062506004+67367+026650FM-12+018199999V0202001N004119999999N0000001N9+01561+99999099021ADDAJ100009199999999GF102991999999999999999999
0029028360999991918062513004+67367+026650FM-12+018199999V0201601N001019999999N0000001N9+02001+99999098951ADDGF108991999999999999999999
0035028360999991918062520004+67367+026650FM-12+018199999V0200201N003119999999N0000001N9+01221+99999098511ADDGF108991999999999999999999MW1621
0046028360999991918062606004+67367+026650FM-12+018199999V0201801N003119999999N0000001N9+01561+99999097801ADDAJ100009199999999GF108991999999999999999999
0029028360999991918062613004+67367+026650FM-12+018199999V0202501N006219999999N0000001N9+01671+99999098241ADDGF107991999999999999999999
0029028360999991918062620004+67367+026650FM-12+018199999V0202001N001019999999N0000001N9+01611+99999098231ADDGF108991999999999999999999
0046028360999991918062706004+67367+026650FM-12+018199999V0202301N004119999999N0000001N9+01721+99999098301ADDAJ100009199999999GF102991999999999999999999
0029028360999991918062713004+67367+026650FM-12+018199999V0202001N008719999999N0000001N9+01941+99999098441ADDGF103991999999999999999999
0029028360999991918062720004+67367+026650FM-12+018199999V0202501N003119999999N0000001N9+01501+99999098711ADDGF102991999999999999999999
0046028360999991918062806004+67367+026650FM-12+018199999V0209991C000019999999N0000001N9+01501+99999098981ADDAJ100009199999999GF103991999999999999999999
0029028360999991918062813004+67367+026650FM-12+018199999V0209991C000019999999N0000001N9+01891+99999098981ADDGF106991999999999999999999
0029028360999991918062820004+67367+026650FM-12+018199999V0202301N004119999999N0000001N9+01561+99999099151ADDGF107991999999999999999999
0046028360999991918062906004+67367+026650FM-12+018199999V0202701N003119999999N0000001N9+01501+99999099541ADDAJ100009199999999GF101991999999999999999999
0029028360999991918062913004+67367+026650FM-12+018199999V0202301N008719999999N0000001N9+01611+99999099701ADDGF103991999999999999999999
0029028360999991918062920004+67367+026650FM-12+018199999V0202001N006219999999N0000001N9+01331+99999099791ADDGF101991999999999999999999
0046028360999991918063006004+67367+026650FM-12+018199999V0201801N004119999999N0000001N9+01441+99999099681ADDAJ100009199999999GF102991999999999999999999
0029028360999991918063013004+67367+026650FM-12+018199999V0202901N005119999999N0000001N9+01781+99999099481ADDGF107991999999999999999999
0029028360999991918063020004+67367+026650FM-12+018199999V0209991C000019999999N0000001N9+01671+99999099661ADDGF100991999999999999999999
0046028360999991918070106004+67367+026650FM-12+018199999V0201801N003119999999N0000001N9+01671+99999099791ADDAJ100009199999999GF100991999999999999999999
0029028360999991918070113004+67367+026650FM-12+018199999V0202301N004119999999N0000001N9+02111+99999099781ADDGF103991999999999999999999
0029028360999991918070120004+67367+026650FM-12+018199999V0209991C000019999999N0000001N9+01941+99999099911ADDGF100991999999999999999999
0046028360999991918070206004+67367+026650FM-12+018199999V0209991C000019999999N0000001N9+02001+99999100321ADDAJ100009199999999GF103991999999999999999999
0029028360999991918070213004+67367+026650FM-12+018199999V0201801N004119999999N0000001N9+02171+99999100281ADDGF108991999999999999999999
0029028360999991918070220004+67367+026650FM-12+018199999V0202001N001019999999N0000001N9+02061+99999100341ADDGF104991999999999999999999
0046028360999991918070306004+67367+026650FM-12+018199999V0209991C000019999999N0000001N9+01941+99999100621ADDAJ100009199999999GF104991999999999999999999
0029028360999991918070313004+67367+026650FM-12+018199999V0201101N001019999999N0000001N9+02671+99999100541ADDGF106991999999999999999999
0035028360999991918070320004+67367+026650FM-12+018199999V0203601N003119999999N0000001N9+01441+99999100681ADDGF108991999999999999999999MW1601
0046028360999991918070406004+67367+026650FM-12+018199999V0200201N004119999999N0000001N9+01171+99999100441ADDAJ100009199999999GF108991999999999999999999
0029028360999991918070413004+67367+026650FM-12+018199999V0200501N003119999999N0000001N9+01611+99999100181ADDGF108991999999999999999999
0029028360999991918070420004+67367+026650FM-12+018199999V0200901N001019999999N0000001N9+01611+99999099801ADDGF107991999999999999999999
0046028360999991918070506004+67367+026650FM-12+018199999V0201401N001019999999N0000001N9+01781+99999099401ADDAJ100009199999999GF106991999999999999999999
0029028360999991918070513004+67367+026650FM-12+018199999V0200901N005119999999N0000001N9+02611+99999099101ADDGF103991999999999999999999
0029028360999991918070520004+67367+026650FM-12+018199999V0201101N005119999999N0000001N9+02001+99999099031ADDGF107991999999999999999999
0046028360999991918070606004+67367+026650FM-12+018199999V0201101N006219999999N0000001N9+01501+99999099111ADDAJ100009199999999GF106991999999999999999999
0029028360999991918070613004+67367+026650FM-12+018199999V0201101N008219999999N0000001N9+02001+99999099021ADDGF107991999999999999999999
0029028360999991918070620004+67367+026650FM-12+018199999V0201101N003119999999N0000001N9+01611+99999099161ADDGF100991999999999999999999
0046028360999991918070706004+67367+026650FM-12+018199999V0200901N005119999999N0000001N9+01441+99999099511ADDAJ100009199999999GF102991999999999999999999
0029028360999991918070713004+67367+026650FM-12+018199999V0201401N006219999999N0000001N9+02001+99999099541ADDGF101991999999999999999999
0029028360999991918070720004+67367+026650FM-12+018199999V0209991C000019999999N0000001N9+01781+99999099521ADDGF100991999999999999999999
0046028360999991918070806004+67367+026650FM-12+018199999V0200901N001019999999N0000001N9+01721+99999099821ADDAJ100009199999999GF102991999999999999999999
0029028360999991918070813004+67367+026650FM-12+018199999V0200501N005119999999N0000001N9+02281+99999099601ADDGF108991999999999999999999
0029028360999991918070820004+67367+026650FM-12+018199999V0201401N001019999999N0000001N9+01891+99999099561ADDGF108991999999999999999999
0046028360999991918070906004+67367+026650FM-12+018199999V0200901N001019999999N0000001N9+01721+99999099631ADDAJ100009199999999GF107991999999999999999999
0029028360999991918070913004+67367+026650FM-12+018199999V0201101N003119999999N0000001N9+02281+99999099481ADDGF102991999999999999999999
0029028360999991918070920004+67367+026650FM-12+018199999V0201401N001019999999N0000001N9+01891+99999099431ADDGF102991999999999999999999
0046028360999991918071006004+67367+026650FM-12+018199999V0201101N001019999999N0000001N9+01721+99999099641ADDAJ100009199999999GF100991999999999999999999
0029028360999991918071020004+67367+026650FM-12+018199999V0200501N001019999999N0000001N9+01831+99999099241ADDGF100991999999999999999999
0046028360999991918071106004+67367+026650FM-12+018199999V0203601N007219999999N0000001N9+01331+99999099511ADDAJ100009199999999GF100991999999999999999999
0029028360999991918071113004+67367+026650FM-12+018199999V0203601N008219999999N0000001N9+01941+99999099231ADDGF102991999999999999999999
0029028360999991918071120004+67367+026650FM-12+018199999V0203401N005119999999N0000001N9+01501+99999099001ADDGF102991999999999999999999
0046028360999991918071206004+67367+026650FM-12+018199999V0203601N005119999999N0000001N9+00891+99999098961ADDAJ100009199999999GF108991999999999999999999
0029028360999991918071213004+67367+026650FM-12+018199999V0203601N008219999999N0000001N9+01391+99999098861ADDGF108991999999999999999999
0029028360999991918071220004+67367+026650FM-12+018199999V0200201N005119999999N0000001N9+00941+99999098861ADDGF108991999999999999999999
0046028360999991918071306004+67367+026650FM-12+018199999V0203601N005119999999N0000001N9+00891+99999098901ADDAJ100009199999999GF108991999999999999999999
0029028360999991918071313004+67367+026650FM-12+018199999V0200201N006219999999N0000001N9+01221+99999098921ADDGF108991999999999999999999
0029028360999991918071320004+67367+026650FM-12+018199999V0200501N001019999999N0000001N9+01061+99999098981ADDGF108991999999999999999999
0046028360999991918071406004+67367+026650FM-12+018199999V0200501N004119999999N0000001N9+00781+99999099061ADDAJ100009199999999GF107991999999999999999999
0029028360999991918071413004+67367+026650FM-12+018199999V0203601N006219999999N0000001N9+01001+99999099071ADDGF108991999999999999999999
0035028360999991918071420004+67367+026650FM-12+018199999V0203601N003119999999N0000001N9+00831+99999099021ADDGF108991999999999999999999MW1621
0052028360999991918071506004+67367+026650FM-12+018199999V0200201N001019999999N0000001N9+00831+99999099191ADDAJ100009199999999GF108991999999999999999999MW1621
0029028360999991918071513004+67367+026650FM-12+018199999V0200501N004119999999N0000001N9+01221+99999099301ADDGF108991999999999999999999
0029028360999991918071520004+67367+026650FM-12+018199999V0200201N003119999999N0000001N9+01001+99999099381ADDGF108991999999999999999999
0046028360999991918071606004+67367+026650FM-12+018199999V0203401N005119999999N0000001N9+00671+99999099481ADDAJ100009199999999GF108991999999999999999999
0029028360999991918071613004+67367+026650FM-12+018199999V0203601N003119999999N0000001N9+01111+99999099591ADDGF108991999999999999999999
0029028360999991918071620004+67367+026650FM-12+018199999V0200201N003119999999N0000001N9+01111+99999099721ADDGF108991999999999999999999
0046028360999991918071706004+67367+026650FM-12+018199999V0203601N005119999999N0000001N9+00561+99999099941ADDAJ100009199999999GF101991999999999999999999
0029028360999991918071713004+67367+026650FM-12+018199999V0200501N001019999999N0000001N9+01501+99999099881ADDGF100991999999999999999999
0029028360999991918071720004+67367+026650FM-12+018199999V0209991C000019999999N0000001N9+01171+99999099801ADDGF100991999999999999999999
0046028360999991918071806004+67367+026650FM-12+018199999V0201601N001019999999N0000001N9+01281+99999099711ADDAJ100009199999999GF106991999999999999999999
0029028360999991918071813004+67367+026650FM-12+018199999V0202901N007219999999N0000001N9+02221+99999099261ADDGF103991999999999999999999
0029028360999991918071820004+67367+026650FM-12+018199999V0202301N003119999999N0000001N9+01671+99999098921ADDGF102991999999999999999999
0046028360999991918071906004+67367+026650FM-12+018199999V0202901N003119999999N0000001N9+01501+99999098521ADDAJ100009199999999GF103991999999999999999999
0035028360999991918071913004+67367+026650FM-12+018199999V0202901N006219999999N0000001N9+02001+99999097961ADDGF108991999999999999999999MW1621
0035028360999991918071920004+67367+026650FM-12+018199999V0202901N001019999999N0000001N9+01281+99999097751ADDGF108991999999999999999999MW1621
0046028360999991918072006004+67367+026650FM-12+018199999V0203401N001019999999N0000001N9+00781+99999097911ADDAJ100009199999999GF106991999999999999999999
0029028360999991918072013004+67367+026650FM-12+018199999V0203201N004119999999N0000001N9+01391+99999098231ADDGF106991999999999999999999
0029028360999991918072020004+67367+026650FM-12+018199999V0202901N001019999999N0000001N9+01281+99999098561ADDGF102991999999999999999999
0046028360999991918072106004+67367+026650FM-12+018199999V0203201N001019999999N0000001N9+01331+99999098911ADDAJ100009199999999GF100991999999999999999999
0029028360999991918072113004+67367+026650FM-12+018199999V0201101N001019999999N0000001N9+01831+99999099041ADDGF106991999999999999999999
0029028360999991918072120004+67367+026650FM-12+018199999V0209991C000019999999N0000001N9+01671+99999099161ADDGF102991999999999999999999
0046028360999991918072206004+67367+026650FM-12+018199999V0201101N001019999999N0000001N9+01611+99999099311ADDAJ100009199999999GF103991999999999999999999
0029028360999991918072213004+67367+026650FM-12+018199999V0201601N006219999999N0000001N9+02221+99999099121ADDGF107991999999999999999999
0035028360999991918072220004+67367+026650FM-12+018199999V0201401N003119999999N0000001N9+01501+99999099191ADDGF108991999999999999999999MW1621
0046028360999991918072306004+67367+026650FM-12+018199999V0209991C000019999999N0000001N9+01331+99999099321ADDAJ100009199999999GF103991999999999999999999
0029028360999991918072313004+67367+026650FM-12+018199999V0200501N001019999999N0000001N9+02391+99999099241ADDGF104991999999999999999999
0029028360999991918072320004+67367+026650FM-12+018199999V0200501N003119999999N0000001N9+01831+99999099361ADDGF100991999999999999999999
0046028360999991918072406004+67367+026650FM-12+018199999V0200501N004119999999N0000001N9+01331+99999099551ADDAJ100009199999999GF100991999999999999999999
0029028360999991918072413004+67367+026650FM-12+018199999V0200501N006219999999N0000001N9+02171+99999099401ADDGF102991999999999999999999
0029028360999991918072420004+67367+026650FM-12+018199999V0200501N004119999999N0000001N9+01561+99999099431ADDGF108991999999999999999999
0046028360999991918072506004+67367+026650FM-12+018199999V0200501N004119999999N0000001N9+01391+99999099401ADDAJ100009199999999GF100991999999999999999999
0029028360999991918072513004+67367+026650FM-12+018199999V0200501N005119999999N0000001N9+02111+99999099381ADDGF106991999999999999999999
0029028360999991918072520004+67367+026650FM-12+018199999V0200701N001019999999N0000001N9+01721+99999099221ADDGF106991999999999999999999
0046028360999991918072606004+67367+026650FM-12+018199999V0203601N004119999999N0000001N9+01221+99999099361ADDAJ100009199999999GF100991999999999999999999
0029028360999991918072613004+67367+026650FM-12+018199999V0200201N007219999999N0000001N9+01941+99999099141ADDGF104991999999999999999999
0029028360999991918072620004+67367+026650FM-12+018199999V0200201N001019999999N0000001N9+01441+99999099061ADDGF100991999999999999999999
0046028360999991918072706004+67367+026650FM-12+018199999V0200201N005119999999N0000001N9+01061+99999098981ADDAJ100009199999999GF102991999999999999999999
0029028360999991918072713004+67367+026650FM-12+018199999V0200201N006219999999N0000001N9+01781+99999098701ADDGF106991999999999999999999
0035028360999991918072720004+67367+026650FM-12+018199999V0209991C000019999999N0000001N9+01281+99999098601ADDGF108991999999999999999999MW1601
0046028360999991918072806004+67367+026650FM-12+018199999V0203601N004119999999N0000001N9+01061+99999098631ADDAJ100009199999999GF108991999999999999999999
0029028360999991918072813004+67367+026650FM-12+018199999V0203401N006219999999N0000001N9+01281+99999098671ADDGF108991999999999999999999
0029028360999991918072820004+67367+026650FM-12+018199999V0203601N003119999999N0000001N9+01331+99999098751ADDGF108991999999999999999999
0052028360999991918072906004+67367+026650FM-12+018199999V0203601N005119999999N0000001N9+01061+99999099061ADDAJ100009199999999GF108991999999999999999999MW1601
0029028360999991918072913004+67367+026650FM-12+018199999V0203601N004119999999N0000001N9+01561+99999099341ADDGF106991999999999999999999
0029028360999991918072920004+67367+026650FM-12+018199999V0209991C000019999999N0000001N9+01281+99999099541ADDGF106991999999999999999999
0046028360999991918073006004+67367+026650FM-12+018199999V0203601N004119999999N0000001N9+00941+99999099951ADDAJ100009199999999GF104991999999999999999999
0029028360999991918073013004+67367+026650FM-12+018199999V0200501N003119999999N0000001N9+01671+99999099961ADDGF102991999999999999999999
0029028360999991918073020004+67367+026650FM-12+018199999V0200201N003119999999N0000001N9+01221+99999100041ADDGF101991999999999999999999
0046028360999991918073106004+67367+026650FM-12+018199999V0200501N004119999999N0000001N9+00561+99999100231ADDAJ100009199999999GF108991999999999999999999
0029028360999991918073113004+67367+026650FM-12+018199999V0200201N004119999999N0000001N9+01331+99999099951ADDGF100991999999999999999999
0029028360999991918073120004+67367+026650FM-12+018199999V0200501N006219999999N0000001N9+00941+99999099941ADDGF107991999999999999999999
0046028360999991918080106004+67367+026650FM-12+018199999V0203601N004119999999N0000001N9+00891+99999099871ADDAJ100009199999999GF108991999999999999999999
0029028360999991918080113004+67367+026650FM-12+018199999V0200501N005119999999N0000001N9+01561+99999099881ADDGF107991999999999999999999
0029028360999991918080120004+67367+026650FM-12+018199999V0200501N003119999999N0000001N9+01061+99999099881ADDGF101991999999999999999999
0046028360999991918080206004+67367+026650FM-12+018199999V0203601N004119999999N0000001N9+00721+99999099991ADDAJ100009199999999GF106991999999999999999999
0029028360999991918080213004+67367+026650FM-12+018199999V0200501N005119999999N0000001N9+01831+99999099861ADDGF101991999999999999999999
0029028360999991918080220004+67367+026650FM-12+018199999V0200201N001019999999N0000001N9+01171+99999099831ADDGF101991999999999999999999
0046028360999991918080306004+67367+026650FM-12+018199999V0209991C000019999999N0000001N9+01111+99999099961ADDAJ100009199999999GF100991999999999999999999
0029028360999991918080313004+67367+026650FM-12+018199999V0200701N001019999999N0000001N9+01941+99999099791ADDGF100991999999999999999999
0029028360999991918080320004+67367+026650FM-12+018199999V0209991C000019999999N0000001N9+01171+99999099801ADDGF100991999999999999999999
0046028360999991918080406004+67367+026650FM-12+018199999V0201401N001019999999N0000001N9+01391+99999099621ADDAJ100009199999999GF100991999999999999999999
0029028360999991918080413004+67367+026650FM-12+018199999V0203401N004119999999N0000001N9+02171+99999099391ADDGF100991999999999999999999
0029028360999991918080420004+67367+026650FM-12+018199999V0209991C000019999999N0000001N9+01281+99999099301ADDGF100991999999999999999999
0046028360999991918080506004+67367+026650FM-12+018199999V0200201N003119999999N0000001N9+01061+99999099341ADDAJ100009199999999GF103991999999999999999999
0029028360999991918080513004+67367+026650FM-12+018199999V0200201N003119999999N0000001N9+01831+99999099201ADDGF100991999999999999999999
0029028360999991918080520004+67367+026650FM-12+018199999V0203601N005119999999N0000001N9+00941+99999099221ADDGF107991999999999999999999
0052028360999991918080606004+67367+026650FM-12+018199999V0203601N004119999999N0000001N9+00561+99999099271ADDAJ100009199999999GF108991999999999999999999MW1621
0035028360999991918080613004+67367+026650FM-12+018199999V0200201N004119999999N0000001N9+00561+99999099381ADDGF108991999999999999999999MW1621
0035028360999991918080620004+67367+026650FM-12+018199999V0200201N004119999999N0000001N9+00501+99999099481ADDGF108991999999999999999999MW1621
0046028360999991918080706004+67367+026650FM-12+018199999V0200501N004119999999N0000001N9+00561+99999099801ADDAJ100009199999999GF101991999999999999999999
0029028360999991918080713004+67367+026650FM-12+018199999V0203601N005119999999N0000001N9+00941+99999099861ADDGF103991999999999999999999
0029028360999991918080720004+67367+026650FM-12+018199999V0200501N001019999999N0000001N9+00561+99999099911ADDGF102991999999999999999999
0046028360999991918080806004+67367+026650FM-12+018199999V0200701N004119999999N0000001N9+00891+99999100111ADDAJ100009199999999GF100991999999999999999999
0029028360999991918080813004+67367+026650FM-12+018199999V0209991C000019999999N0000001N9+01221+99999100041ADDGF107991999999999999999999
0029028360999991918080820004+67367+026650FM-12+018199999V0209991C000019999999N0000001N9+00941+99999100041ADDGF108991999999999999999999
0046028360999991918080906004+67367+026650FM-12+018199999V0209991C000019999999N0000001N9+00831+99999100071ADDAJ100009199999999GF108991999999999999999999
0029028360999991918080913004+67367+026650FM-12+018199999V0201801N003119999999N0000001N9+01561+99999100021ADDGF106991999999999999999999
0029028360999991918080920004+67367+026650FM-12+018199999V0209991C000019999999N0000001N9+01061+99999099961ADDGF108991999999999999999999
0046028360999991918081006004+67367+026650FM-12+018199999V0202001N001019999999N0000001N9+01061+99999099911ADDAJ100009199999999GF108991999999999999999999
0029028360999991918081013004+67367+026650FM-12+018199999V0202301N003119999999N0000001N9+01281+99999099861ADDGF108991999999999999999999
0029028360999991918081020004+67367+026650FM-12+018199999V0209991C000019999999N0000001N9+00831+99999099711ADDGF101991999999999999999999
0046028360999991918081106004+67367+026650FM-12+018199999V0209991C000019999999N0000001N9+01061+99999099781ADDAJ100009199999999GF100991999999999999999999
0035028360999991918081113004+67367+026650FM-12+018199999V0202701N003119999999N0000001N9+01391+99999099701ADDGF108991999999999999999999MW1641
0029028360999991918081120004+67367+026650FM-12+018199999V0200201N001019999999N0000001N9+00891+99999099831ADDGF100991999999999999999999
0046028360999991918081206004+67367+026650FM-12+018199999V0203601N001019999999N0000001N9+00561+99999099961ADDAJ100009199999999GF100991999999999999999999
0029028360999991918081213004+67367+026650FM-12+018199999V0203601N003119999999N0000001N9+01281+99999099801ADDGF100991999999999999999999
0029028360999991918081220004+67367+026650FM-12+018199999V0209991C000019999999N0000001N9+00561+99999099621ADDGF100991999999999999999999
0046028360999991918081306004+67367+026650FM-12+018199999V0209991C000019999999N0000001N9+00781+99999099421ADDAJ100009199999999GF100991999999999999999999
0029028360999991918081313004+67367+026650FM-12+018199999V0202501N006219999999N0000001N9+01891+99999098951ADDGF102991999999999999999999
0029028360999991918081320004+67367+026650FM-12+018199999V0200201N003119999999N0000001N9+01331+99999098741ADDGF104991999999999999999999
0046028360999991918081406004+67367+026650FM-12+018199999V0203401N004119999999N0000001N9+00671+99999098951ADDAJ100009199999999GF102991999999999999999999
0029028360999991918081413004+67367+026650FM-12+018199999V0200501N004119999999N0000001N9+01331+99999098821ADDGF102991999999999999999999
0029028360999991918081420004+67367+026650FM-12+018199999V0209991C000019999999N0000001N9+00501+99999098631ADDGF102991999999999999999999
0046028360999991918081506004+67367+026650FM-12+018199999V0203601N001019999999N0000001N9+00611+99999098391ADDAJ100009199999999GF102991999999999999999999
0029028360999991918081513004+67367+026650FM-12+018199999V0203601N004119999999N0000001N9+01221+99999098221ADDGF103991999999999999999999
0029028360999991918081520004+67367+026650FM-12+018199999V0200501N003119999999N0000001N9+00781+99999098151ADDGF107991999999999999999999
0046028360999991918081606004+67367+026650FM-12+018199999V0209991C000019999999N0000001N9+00721+99999098121ADDAJ100009199999999GF102991999999999999999999
0029028360999991918081613004+67367+026650FM-12+018199999V0200901N001019999999N0000001N9+01171+99999098081ADDGF107991999999999999999999
0029028360999991918081620004+67367+026650FM-12+018199999V0209991C000019999999N0000001N9+00721+99999098121ADDGF106991999999999999999999
0046028360999991918081706004+67367+026650FM-12+018199999V0203401N001019999999N0000001N9+00831+99999098321ADDAJ100009199999999GF102991999999999999999999
0029028360999991918081713004+67367+026650FM-12+018199999V0203201N002119999999N0000001N9+01441+99999098351ADDGF103991999999999999999999
0029028360999991918081720004+67367+026650FM-12+018199999V0202901N001019999999N0000001N9+00441+99999098341ADDGF100991999999999999999999
0046028360999991918081806004+67367+026650FM-12+018199999V0201601N003119999999N0000001N9+00831+99999098281ADDAJ100009199999999GF102991999999999999999999
0029028360999991918081813004+67367+026650FM-12+018199999V0202301N003119999999N0000001N9+01561+99999098121ADDGF105991999999999999999999
0029028360999991918081820004+67367+026650FM-12+018199999V0202001N003119999999N0000001N9+01061+99999097991ADDGF101991999999999999999999
0052028360999991918081906004+67367+026650FM-12+018199999V0209991C000019999999N0000001N9+00891+99999098071ADDAJ100009199999999GF108991999999999999999999MW1621
0035028360999991918081913004+67367+026650FM-12+018199999V0209991C000019999999N0000001N9+01061+99999098181ADDGF108991999999999999999999MW1621
0029028360999991918081920004+67367+026650FM-12+018199999V0209991C000019999999N0000001N9+00891+99999098261ADDGF106991999999999999999999
0046028360999991918082006004+67367+026650FM-12+018199999V0203401N001019999999N0000001N9+00441+99999098471ADDAJ100009199999999GF100991999999999999999999
0029028360999991918082013004+67367+026650FM-12+018199999V0209991C000019999999N0000001N9+01561+99999098551ADDGF107991999999999999999999
0029028360999991918082020004+67367+026650FM-12+018199999V0209991C000019999999N0000001N9+00831+99999098551ADDGF106991999999999999999999
0052028360999991918082106004+67367+026650FM-12+018199999V0201101N002119999999N0000001N9+00831+99999098391ADDAJ100009199999999GF108991999999999999999999MW1621
0029028360999991918082113004+67367+026650FM-12+018199999V0202701N006219999999N0000001N9+01441+99999098141ADDGF103991999999999999999999
0029028360999991918082120004+67367+026650FM-12+018199999V0209991C000019999999N0000001N9+00561+99999098021ADDGF100991999999999999999999
0046028360999991918082206004+67367+026650FM-12+018199999V0201101N005119999999N0000001N9+00891+99999098021ADDAJ100009199999999GF108991999999999999999999
0035028360999991918082213004+67367+026650FM-12+018199999V0202001N007219999999N0000001N9+01111+99999097831ADDGF108991999999999999999999MW1621
0029028360999991918082220004+67367+026650FM-12+018199999V0201401N001019999999N0000001N9+00831+99999097881ADDGF107991999999999999999999
0046028360999991918082306004+67367+026650FM-12+018199999V0201401N002119999999N0000001N9+00831+99999097761ADDAJ100009199999999GF102991999999999999999999
0029028360999991918082313004+67367+026650FM-12+018199999V0200901N003119999999N0000001N9+01501+99999097401ADDGF106991999999999999999999
0029028360999991918082320004+67367+026650FM-12+018199999V0209991C000019999999N0000001N9+00891+99999097221ADDGF108991999999999999999999
0046028360999991918082406004+67367+026650FM-12+018199999V0200501N002119999999N0000001N9+00891+99999097161ADDAJ100009199999999GF108991999999999999999999
0029028360999991918082413004+67367+026650FM-12+018199999V0203601N003119999999N0000001N9+01671+99999097521ADDGF104991999999999999999999
0029028360999991918082420004+67367+026650FM-12+018199999V0209991C000019999999N0000001N9+00441+99999097911ADDGF102991999999999999999999
0046028360999991918082506004+67367+026650FM-12+018199999V0209991C000019999999N0000001N9+00441+99999098351ADDAJ100009199999999GF108991999999999999999999
0029028360999991918082513004+67367+026650FM-12+018199999V0200901N001019999999N0000001N9+01221+99999098421ADDGF108991999999999999999999
0029028360999991918082520004+67367+026650FM-12+018199999V0209991C000019999999N0000001N9+00331+99999098471ADDGF103991999999999999999999
0046028360999991918082606004+67367+026650FM-12+018199999V0203601N004119999999N0000001N9+00391+99999098901ADDAJ100009199999999GF106991999999999999999999
0029028360999991918082613004+67367+026650FM-12+018199999V0203601N002119999999N0000001N9+00891+99999099081ADDGF108991999999999999999999
0029028360999991918082620004+67367+026650FM-12+018199999V0209991C000019999999N0000001N9+00441+99999099271ADDGF108991999999999999999999
0046028360999991918082706004+67367+026650FM-12+018199999V0203601N004119999999N0000001N9+00331+99999099381ADDAJ100009199999999GF108991999999999999999999
0029028360999991918082713004+67367+026650FM-12+018199999V0203601N005119999999N0000001N9+00671+99999099191ADDGF108991999999999999999999
0029028360999991918082720004+67367+026650FM-12+018199999V0203201N004119999999N0000001N9+00331+99999099071ADDGF108991999999999999999999
0052028360999991918082806004+67367+026650FM-12+018199999V0203401N006219999999N0000001N9+00391+99999098631ADDAJ100009199999999GF108991999999999999999999MW1621
0035028360999991918082813004+67367+026650FM-12+018199999V0203401N006219999999N0000001N9+00721+99999098711ADDGF108991999999999999999999MW1621
0029028360999991918082820004+67367+026650FM-12+018199999V0203601N004119999999N0000001N9+00561+99999098861ADDGF108991999999999999999999
0052028360999991918082906004+67367+026650FM-12+018199999V0203401N005119999999N0000001N9+00611+99999099061ADDAJ100009199999999GF108991999999999999999999MW1621
0035028360999991918082913004+67367+026650FM-12+018199999V0203601N003119999999N0000001N9+00891+99999099191ADDGF108991999999999999999999MW1621
0035028360999991918082920004+67367+026650FM-12+018199999V0200501N001019999999N0000001N9+00671+99999099271ADDGF108991999999999999999999MW1621
0046028360999991918083006004+67367+026650FM-12+018199999V0209991C000019999999N0000001N9+00501+99999099321ADDAJ100009199999999GF108991999999999999999999
0029028360999991918083013004+67367+026650FM-12+018199999V0200201N004119999999N0000001N9+00831+99999099281ADDGF108991999999999999999999
0029028360999991918083020004+67367+026650FM-12+018199999V0209991C000019999999N0000001N9+00221+99999099301ADDGF102991999999999999999999
0046028360999991918083106004+67367+026650FM-12+018199999V0200501N001019999999N0000001N9+00441+99999099381ADDAJ100009199999999GF108991999999999999999999
0029028360999991918083113004+67367+026650FM-12+018199999V0200501N001019999999N0000001N9+00941+99999099431ADDGF108991999999999999999999
0029028360999991918083120004+67367+026650FM-12+018199999V0209991C000019999999N0000001N9+00721+99999099391ADDGF108991999999999999999999
0046028360999991918090106004+67367+026650FM-12+018199999V0200501N002119999999N0000001N9+00561+99999099431ADDAJ100009199999999GF108991999999999999999999
0035028360999991918090113004+67367+026650FM-12+018199999V0201101N003119999999N0000001N9+01001+99999099431ADDGF107991999999999999999999MW1621
0029028360999991918090120004+67367+026650FM-12+018199999V0209991C000019999999N0000001N9+00441+99999099351ADDGF102991999999999999999999
0046028360999991918090206004+67367+026650FM-12+018199999V0201101N002119999999N0000001N9+00441+99999099161ADDAJ100009199999999GF108991999999999999999999
0035028360999991918090213004+67367+026650FM-12+018199999V0201101N002119999999N0000001N9+00941+99999098781ADDGF108991999999999999999999MW1621
0035028360999991918090220004+67367+026650FM-12+018199999V0201101N003119999999N0000001N9+00611+99999098181ADDGF108991999999999999999999MW1621
0052028360999991918090306004+67367+026650FM-12+018199999V0201801N002119999999N0000001N9+00721+99999097601ADDAJ100009199999999GF108991999999999999999999MW1621
0029028360999991918090313004+67367+026650FM-12+018199999V0202501N002119999999N0000001N9+01061+99999097881ADDGF108991999999999999999999
0035028360999991918090320004+67367+026650FM-12+018199999V0201601N001019999999N0000001N9+00831+99999097841ADDGF108991999999999999999999MW1621
0052028360999991918090406004+67367+026650FM-12+018199999V0209991C000019999999N0000001N9+00671+99999097721ADDAJ100009199999999GF108991999999999999999999MW1621
0035028360999991918090413004+67367+026650FM-12+018199999V0202001N003119999999N0000001N9+01171+99999097521ADDGF106991999999999999999999MW1621
0035028360999991918090420004+67367+026650FM-12+018199999V0201401N001019999999N0000001N9+00831+99999097221ADDGF108991999999999999999999MW1621
0046028360999991918090506004+67367+026650FM-12+018199999V0203201N003119999999N0000001N9+00281+99999097001ADDAJ100009199999999GF108991999999999999999999
0029028360999991918090513004+67367+026650FM-12+018199999V0203201N004119999999N0000001N9+00671+99999097001ADDGF106991999999999999999999
0029028360999991918090520004+67367+026650FM-12+018199999V0209991C000019999999N0000001N9+00171+99999097031ADDGF101991999999999999999999
0046028360999991918090606004+67367+026650FM-12+018199999V0209991C000019999999N0000001N9+00061+99999097021ADDAJ100009199999999GF100991999999999999999999
0029028360999991918090613004+67367+026650FM-12+018199999V0202701N002119999999N0000001N9+00721+99999096921ADDGF106991999999999999999999
0029028360999991918090620004+67367+026650FM-12+018199999V0209991C000019999999N0000001N9-00221+99999097001ADDGF100991999999999999999999
0046028360999991918090706004+67367+026650FM-12+018199999V0203201N001019999999N0000001N9+00281+99999097551ADDAJ100009199999999GF108991999999999999999999
0029028360999991918090713004+67367+026650FM-12+018199999V0203401N004119999999N0000001N9+00891+99999098121ADDGF105991999999999999999999
0029028360999991918090720004+67367+026650FM-12+018199999V0209991C000019999999N0000001N9+00331+99999098581ADDGF101991999999999999999999
0046028360999991918090806004+67367+026650FM-12+018199999V0209991C000019999999N0000001N9+00171+99999099301ADDAJ100009199999999GF100991999999999999999999
0029028360999991918090813004+67367+026650FM-12+018199999V0209991C000019999999N0000001N9+01061+99999099521ADDGF101991999999999999999999
0029028360999991918090820004+67367+026650FM-12+018199999V0209991C000019999999N0000001N9-00331+99999099641ADDGF100991999999999999999999
0046028360999991918090906004+67367+026650FM-12+018199999V0209991C000019999999N0000001N9+00171+99999099681ADDAJ100009199999999GF101991999999999999999999
0029028360999991918090913004+67367+026650FM-12+018199999V0202501N002119999999N0000001N9+01331+99999099551ADDGF102991999999999999999999
0029028360999991918090920004+67367+026650FM-12+018199999V0209991C000019999999N0000001N9+00061+99999099541ADDGF100991999999999999999999
0046028360999991918091006004+67367+026650FM-12+018199999V0209991C000019999999N0000001N9+00221+99999099441ADDAJ100009199999999GF100991999999999999999999
0029028360999991918091013004+67367+026650FM-12+018199999V0201601N001019999999N0000001N9+01501+99999099141ADDGF100991999999999999999999
0029028360999991918091020004+67367+026650FM-12+018199999V0209991C000019999999N0000001N9+00221+99999098951ADDGF100991999999999999999999
0052028360999991918091106004+67367+026650FM-12+018199999V0209991C000019999999N0000001N9+00281+99999098601ADDAJ100009199999999GF106991999999999999999999MW1621
0029028360999991918091113004+67367+026650FM-12+018199999V0201401N003119999999N0000001N9+01061+99999098281ADDGF108991999999999999999999
0035028360999991918091120004+67367+026650FM-12+018199999V0201101N002119999999N0000001N9+00831+99999097941ADDGF108991999999999999999999MW1621
0052028360999991918091206004+67367+026650FM-12+018199999V0201601N002119999999N0000001N9+00831+99999097111ADDAJ100009199999999GF108991999999999999999999MW1621
0035028360999991918091213004+67367+026650FM-12+018199999V0201601N001019999999N0000001N9+00941+99999096981ADDGF108991999999999999999999MW1621
0029028360999991918091220004+67367+026650FM-12+018199999V0209991C000019999999N0000001N9+00611+99999097061ADDGF102991999999999999999999
0046028360999991918091306004+67367+026650FM-12+018199999V0201801N001019999999N0000001N9+00561+99999097061ADDAJ100009199999999GF108991999999999999999999
0029028360999991918091313004+67367+026650FM-12+018199999V0209991C000019999999N0000001N9+01001+99999097111ADDGF107991999999999999999999
0035028360999991918091320004+67367+026650FM-12+018199999V02099999999999999999N0000001N9+00721+99999097191ADDGF108991999999999999999999MW1621
0046028360999991918091406004+67367+026650FM-12+018199999V0209991C000019999999N0000001N9+00561+99999097241ADDAJ100009199999999GF108991999999999999999999
0029028360999991918091413004+67367+026650FM-12+018199999V0209991C000019999999N0000001N9+00891+99999097381ADDGF108991999999999999999999
0029028360999991918091420004+67367+026650FM-12+018199999V0209991C000019999999N0000001N9+00671+99999097351ADDGF106991999999999999999999
0046028360999991918091506004+67367+026650FM-12+018199999V0209991C000019999999N0000001N9+00331+99999097321ADDAJ100009199999999GF108991999999999999999999
0029028360999991918091513004+67367+026650FM-12+018199999V0209991C000019999999N0000001N9+01001+99999097441ADDGF104991999999999999999999
0029028360999991918091520004+67367+026650FM-12+018199999V0203601N001019999999N0000001N9+00671+99999097801ADDGF107991999999999999999999
0052028360999991918091606004+67367+026650FM-12+018199999V0203401N002119999999N0000001N9+00561+99999098201ADDAJ100009199999999GF108991999999999999999999MW1621
0029028360999991918091613004+67367+026650FM-12+018199999V0203401N001019999999N0000001N9+00831+99999098471ADDGF108991999999999999999999
0029028360999991918091620004+67367+026650FM-12+018199999V0209991C000019999999N0000001N9+00501+99999098601ADDGF108991999999999999999999
0046028360999991918091706004+67367+026650FM-12+018199999V0209991C000019999999N0000001N9+00331+99999098761ADDAJ100009199999999GF108991999999999999999999
0029028360999991918091713004+67367+026650FM-12+018199999V0203601N004119999999N0000001N9+00941+99999098921ADDGF102991999999999999999999
0029028360999991918091720004+67367+026650FM-12+018199999V0209991C000019999999N0000001N9-00221+99999099151ADDGF100991999999999999999999
0046028360999991918091806004+67367+026650FM-12+018199999V0209991C000019999999N0000001N9-00331+99999099181ADDAJ100009199999999GF100991999999999999999999
0029028360999991918091813004+67367+026650FM-12+018199999V0202501N002119999999N0000001N9+01061+99999099081ADDGF100991999999999999999999
0029028360999991918091820004+67367+026650FM-12+018199999V0209991C000019999999N0000001N9-00111+99999098951ADDGF106991999999999999999999
0052028360999991918091906004+67367+026650FM-12+018199999V0209991C000019999999N0000001N9+00221+99999098661ADDAJ100009199999999GF108991999999999999999999MW1621
0029028360999991918091913004+67367+026650FM-12+018199999V0209991C000019999999N0000001N9+00561+99999098501ADDGF108991999999999999999999
0029028360999991918091920004+67367+026650FM-12+018199999V0201401N001019999999N0000001N9+00501+99999098261ADDGF108991999999999999999999
0052028360999991918092006004+67367+026650FM-12+018199999V0200701N002119999999N0000001N9+00561+99999097511ADDAJ100009199999999GF108991999999999999999999MW1621
0035028360999991918092013004+67367+026650FM-12+018199999V0200901N004119999999N0000001N9+00781+99999096781ADDGF108991999999999999999999MW1621
0029028360999991918092020004+67367+026650FM-12+018199999V0201401N009819999999N0000001N9+00671+99999095901ADDGF108991999999999999999999
0046028360999991918092106004+67367+026650FM-12+018199999V0200901N001019999999N0000001N9+00561+99999095641ADDAJ100009199999999GF108991999999999999999999
0035028360999991918092113004+67367+026650FM-12+018199999V0200201N004119999999N0000001N9+00611+99999095961ADDGF108991999999999999999999MW1621
0029028360999991918092120004+67367+026650FM-12+018199999V0200201N001019999999N0000001N9+00501+99999096751ADDGF108991999999999999999999
0046028360999991918092206004+67367+026650FM-12+018199999V0200201N001019999999N0000001N9+00001+99999097861ADDAJ100009199999999GF106991999999999999999999
0029028360999991918092213004+67367+026650FM-12+018199999V0209991C000019999999N0000001N9+00671+99999098231ADDGF105991999999999999999999
0029028360999991918092220004+67367+026650FM-12+018199999V0201601N001019999999N0000001N9+00331+99999098461ADDGF108991999999999999999999
0046028360999991918092306004+67367+026650FM-12+018199999V0201401N002119999999N0000001N9+00221+99999098431ADDAJ100009199999999GF108991999999999999999999
0035028360999991918092313004+67367+026650FM-12+018199999V0201601N006219999999N0000001N9+00671+99999098261ADDGF108991999999999999999999MW1621
0029028360999991918092320004+67367+026650FM-12+018199999V0201801N008719999999N0000001N9+00831+99999097861ADDGF108991999999999999999999
0046028360999991918092406004+67367+026650FM-12+018199999V0202301N004119999999N0000001N9+00941+99999097391ADDAJ100009199999999GF108991999999999999999999
0029028360999991918092413004+67367+026650FM-12+018199999V0202001N009819999999N0000001N9+01111+99999097621ADDGF106991999999999999999999
0029028360999991918092420004+67367+026650FM-12+018199999V0201801N003119999999N0000001N9+00671+99999097401ADDGF106991999999999999999999
0046028360999991918092506004+67367+026650FM-12+018199999V0201801N001019999999N0000001N9+00721+99999097301ADDAJ100009199999999GF108991999999999999999999
0035028360999991918092513004+67367+026650FM-12+018199999V0202001N006219999999N0000001N9+00941+99999097341ADDGF108991999999999999999999MW1621
0029028360999991918092520004+67367+026650FM-12+018199999V0201801N003119999999N0000001N9+00831+99999097061ADDGF108991999999999999999999
0052028360999991918092606004+67367+026650FM-12+018199999V0201401N002119999999N0000001N9+00831+99999096791ADDAJ100009199999999GF108991999999999999999999MW1621
0035028360999991918092613004+67367+026650FM-12+018199999V0201101N001019999999N0000001N9+00831+99999096471ADDGF108991999999999999999999MW1621
0035028360999991918092620004+67367+026650FM-12+018199999V0209991C000019999999N0000001N9+00721+99999096021ADDGF108991999999999999999999MW1621
0046028360999991918092706004+67367+026650FM-12+018199999V0209991C000019999999N0000001N9+00561+99999096041ADDAJ100009199999999GF108991999999999999999999
0035028360999991918092713004+67367+026650FM-12+018199999V0209991C000019999999N0000001N9+00721+99999096181ADDGF107991999999999999999999MW1621
0029028360999991918092720004+67367+026650FM-12+018199999V02099999999999999999N0000001N9+00441+99999096201ADDGF106991999999999999999999
0046028360999991918092806004+67367+026650FM-12+018199999V0203401N002119999999N0000001N9+00331+99999096361ADDAJ100009199999999GF108991999999999999999999
0035028360999991918092813004+67367+026650FM-12+018199999V0202701N002119999999N0000001N9+00441+99999096621ADDGF108991999999999999999999MW1621
0029028360999991918092820004+67367+026650FM-12+018199999V0203201N002119999999N0000001N9+00331+99999096921ADDGF108991999999999999999999
