0029028360999991919010106004+67367+026650FM-12+018199999V0209991C000019999999N0000001N9-00501+99999097961ADDGF108991999999999999999999
0029028360999991919010113004+67367+026650FM-12+018199999V0203401N001019999999N0000001N9-00611+99999098231ADDGF105991999999999999999999
0035028360999991919010120004+67367+026650FM-12+018199999V0209991C000019999999N0000001N9-00781+99999098471ADDGF100991999999999999999999MW1001
0029028360999991919010206004+67367+026650FM-12+018199999V0209991C000019999999N0000001N9-01171+99999098601ADDGF108991999999999999999999
0029028360999991919010213004+67367+026650FM-12+018199999V0209991C000019999999N0000001N9-00671+99999098761ADDGF108991999999999999999999
0029028360999991919010220004+67367+026650FM-12+018199999V0209991C000019999999N0000001N9-00831+99999098951ADDGF108991999999999999999999
0029028360999991919010306004+67367+026650FM-12+018199999V0209991C000019999999N0000001N9-00671+99999099141ADDGF108991999999999999999999
0029028360999991919010313004+67367+026650FM-12+018199999V0209991C000019999999N0000001N9-01111+99999099351ADDGF104991999999999999999999
0029028360999991919010320004+67367+026650FM-12+018199999V0209991C000019999999N0000001N9-01831+99999099391ADDGF108991999999999999999999
0035028360999991919010406004+67367+026650FM-12+018199999V0201401N001019999999N0000001N9-01061+99999099401ADDGF108991999999999999999999MW1721
0029028360999991919010413004+67367+026650FM-12+018199999V0201401N001019999999N0000001N9-01061+99999099401ADDGF108991999999999999999999
0035028360999991919010420004+67367+026650FM-12+018199999V0201401N002119999999N0000001N9-01061+99999099161ADDGF108991999999999999999999MW1721
0035028360999991919010506004+67367+026650FM-12+018199999V0201601N004119999999N0000001N9-01111+99999099041ADDGF108991999999999999999999MW1721
0035028360999991919010513004+67367+026650FM-12+018199999V0201401N003119999999N0000001N9-01111+99999098871ADDGF108991999999999999999999MW1721
0035028360999991919010520004+67367+026650FM-12+018199999V0201401N004119999999N0000001N9-01171+99999098631ADDGF108991999999999999999999MW1721
0029028360999991919010606004+67367+026650FM-12+018199999V0201401N002119999999N0000001N9-01111+99999098441ADDGF108991999999999999999999
0035028360999991919010613004+67367+026650FM-12+018199999V0201401N001019999999N0000001N9-00781+99999098261ADDGF108991999999999999999999MW1721
0035028360999991919010620004+67367+026650FM-12+018199999V0201401N006219999999N0000001N9-00501+99999097761ADDGF108991999999999999999999MW1721
0035028360999991919010706004+67367+026650FM-12+018199999V0201401N002119999999N0000001N9+00001+99999097561ADDGF108991999999999999999999MW1701
0035028360999991919010713004+67367+026650FM-12+018199999V0201801N004119999999N0000001N9+00061+99999097581ADDGF108991999999999999999999MW1701
0029028360999991919010720004+67367+026650FM-12+018199999V0202001N004119999999N0000001N9+00061+99999097751ADDGF108991999999999999999999
0035028360999991919010806004+67367+026650FM-12+018199999V0202001N004119999999N0000001N9+00061+99999098261ADDGF108991999999999999999999MW1701
0029028360999991919010813004+67367+026650FM-12+018199999V0202701N004119999999N0000001N9+00061+99999098951ADDGF108991999999999999999999
0029028360999991919010820004+67367+026650FM-12+018199999V0202701N002119999999N0000001N9-00061+99999099671ADDGF108991999999999999999999
0029028360999991919010906004+67367+026650FM-12+018199999V0202701N002119999999N0000001N9-00331+99999100191ADDGF108991999999999999999999
0029028360999991919010913004+67367+026650FM-12+018199999V0201601N002119999999N0000001N9-00281+99999100161ADDGF108991999999999999999999
0029028360999991919010920004+67367+026650FM-12+018199999V0201601N004119999999N0000001N9-00391+99999099881ADDGF108991999999999999999999
0029028360999991919011006004+67367+026650FM-12+018199999V0201601N002119999999N0000001N9-00391+99999099551ADDGF108991999999999999999999
0029028360999991919011013004+67367+026650FM-12+018199999V0201801N003119999999N0000001N9-00331+99999099431ADDGF108991999999999999999999
0035028360999991919011020004+67367+026650FM-12+018199999V0201801N002119999999N0000001N9-00281+99999099321ADDGF108991999999999999999999MW1721
0035028360999991919011106004+67367+026650FM-12+018199999V0201801N001019999999N0000001N9-00331+99999099191ADDGF108991999999999999999999MW1721
0029028360999991919011113004+67367+026650FM-12+018199999V0201601N002119999999N0000001N9-00281+99999099351ADDGF108991999999999999999999
0029028360999991919011120004+67367+026650FM-12+018199999V0201401N001019999999N0000001N9-00331+99999099511ADDGF108991999999999999999999
0035028360999991919011206004+67367+026650FM-12+018199999V0201401N004119999999N0000001N9-01171+99999100101ADDGF108991999999999999999999MW1721
0035028360999991919011213004+67367+026650FM-12+018199999V0201101N006219999999N0000001N9-01441+99999100361ADDGF108991999999999999999999MW1721
0035028360999991919011220004+67367+026650FM-12+018199999V0201401N004119999999N0000001N9-01561+99999100561ADDGF108991999999999999999999MW1721
0035028360999991919011306004+67367+026650FM-12+018199999V0201401N004119999999N0000001N9-01501+99999100681ADDGF108991999999999999999999MW1721
0035028360999991919011313004+67367+026650FM-12+018199999V0201401N004119999999N0000001N9-01441+99999100781ADDGF108991999999999999999999MW1721
0029028360999991919011320004+67367+026650FM-12+018199999V0201401N003119999999N0000001N9-01501+99999100681ADDGF108991999999999999999999
0029028360999991919011406004+67367+026650FM-12+018199999V0209991C000019999999N0000001N9-01671+99999100551ADDGF108991999999999999999999
0029028360999991919011413004+67367+026650FM-12+018199999V0209991C000019999999N0000001N9-02061+99999100421ADDGF108991999999999999999999
0029028360999991919011420004+67367+026650FM-12+018199999V0209991C000019999999N0000001N9-01561+99999100151ADDGF108991999999999999999999
0035028360999991919011506004+67367+026650FM-12+018199999V0201601N001019999999N0000001N9-01281+99999099881ADDGF108991999999999999999999MW1701
0035028360999991919011513004+67367+026650FM-12+018199999V0209991C000019999999N0000001N9-01111+99999099641ADDGF108991999999999999999999MW1701
0035028360999991919011520004+67367+026650FM-12+018199999V0209991C000019999999N0000001N9-01061+99999099391ADDGF108991999999999999999999MW1701
0029028360999991919011606004+67367+026650FM-12+018199999V0201401N002119999999N0000001N9-01001+99999099031ADDGF108991999999999999999999
0035028360999991919011613004+67367+026650FM-12+018199999V0209991C000019999999N0000001N9-01111+99999098951ADDGF108991999999999999999999MW1701
0035028360999991919011620004+67367+026650FM-12+018199999V0209991C000019999999N0000001N9-01001+99999098871ADDGF108991999999999999999999MW1701
0029028360999991919011706004+67367+026650FM-12+018199999V0209991C000019999999N0000001N9-02391+99999099021ADDGF100991999999999999999999
0029028360999991919011713004+67367+026650FM-12+018199999V0209991C000019999999N0000001N9-02441+99999099241ADDGF100991999999999999999999
0029028360999991919011720004+67367+026650FM-12+018199999V0209991C000019999999N0000001N9-02441+99999099501ADDGF106991999999999999999999
0029028360999991919011806004+67367+026650FM-12+018199999V0209991C000019999999N0000001N9-03061+99999100031ADDGF103991999999999999999999
0029028360999991919011813004+67367+026650FM-12+018199999V0209991C000019999999N0000001N9-01671+99999100441ADDGF108991999999999999999999
0029028360999991919011820004+67367+026650FM-12+018199999V0209991C000019999999N0000001N9-01501+99999100901ADDGF107991999999999999999999
0029028360999991919011906004+67367+026650FM-12+018199999V0209991C000019999999N0000001N9-01671+99999101481ADDGF108991999999999999999999
0029028360999991919011913004+67367+026650FM-12+018199999V0201401N001019999999N0000001N9-01441+99999101921ADDGF108991999999999999999999
0029028360999991919011920004+67367+026650FM-12+018199999V0201401N002119999999N0000001N9-01831+99999102181ADDGF108991999999999999999999
0029028360999991919012006004+67367+026650FM-12+018199999V0209991C000019999999N0000001N9-03221+99999102311ADDGF100991999999999999999999
0029028360999991919012013004+67367+026650FM-12+018199999V0209991C000019999999N0000001N9-03781+99999102341ADDGF100991999999999999999999
0029028360999991919012020004+67367+026650FM-12+018199999V0209991C000019999999N0000001N9-04171+99999102181ADDGF100991999999999999999999
0029028360999991919012106004+67367+026650FM-12+018199999V0209991C000019999999N0000001N9-02721+99999101751ADDGF108991999999999999999999
0029028360999991919012113004+67367+026650FM-12+018199999V0209991C000019999999N0000001N9-02331+99999101541ADDGF108991999999999999999999
0029028360999991919012120004+67367+026650FM-12+018199999V0209991C000019999999N0000001N9-02171+99999101341ADDGF108991999999999999999999
0029028360999991919012206004+67367+026650FM-12+018199999V0209991C000019999999N0000001N9-01831+99999101071ADDGF108991999999999999999999
0029028360999991919012213004+67367+026650FM-12+018199999V0209991C000019999999N0000001N9-01671+99999100981ADDGF108991999999999999999999
0029028360999991919012220004+67367+026650FM-12+018199999V0209991C000019999999N0000001N9-01611+99999101061ADDGF108991999999999999999999
0029028360999991919012306004+67367+026650FM-12+018199999V0209991C000019999999N0000001N9-02221+99999101111ADDGF104991999999999999999999
0029028360999991919012313004+67367+026650FM-12+018199999V0201601N001019999999N0000001N9-01831+99999101021ADDGF100991999999999999999999
0035028360999991919012320004+67367+026650FM-12+018199999V0201801N004119999999N0000001N9-01281+99999100631ADDGF108991999999999999999999MW1721
0029028360999991919012406004+67367+026650FM-12+018199999V0202001N001019999999N0000001N9-00831+99999100521ADDGF108991999999999999999999
0029028360999991919012413004+67367+026650FM-12+018199999V0201601N001019999999N0000001N9-01001+99999100551ADDGF108991999999999999999999
0029028360999991919012420004+67367+026650FM-12+018199999V0202301N006219999999N0000001N9-00611+99999099991ADDGF108991999999999999999999
0029028360999991919012506004+67367+026650FM-12+018199999V0202301N001019999999N0000001N9-00281+99999099911ADDGF108991999999999999999999
0029028360999991919012513004+67367+026650FM-12+018199999V0201801N001019999999N0000001N9-00501+99999099961ADDGF108991999999999999999999
0035028360999991919012520004+67367+026650FM-12+018199999V0201601N002119999999N0000001N9-00281+99999099591ADDGF108991999999999999999999MW1721
0029028360999991919012606004+67367+026650FM-12+018199999V0209991C000019999999N0000001N9-00391+99999099761ADDGF108991999999999999999999
0029028360999991919012613004+67367+026650FM-12+018199999V0202001N001019999999N0000001N9-00441+99999100081ADDGF108991999999999999999999
0029028360999991919012620004+67367+026650FM-12+018199999V0202001N001019999999N0000001N9-00671+99999100221ADDGF108991999999999999999999
0035028360999991919012706004+67367+026650FM-12+018199999V0202001N002119999999N0000001N9-00391+99999100151ADDGF108991999999999999999999MW1721
0035028360999991919012713004+67367+026650FM-12+018199999V0209991C000019999999N0000001N9-00281+99999100321ADDGF108991999999999999999999MW1721
0029028360999991919012720004+67367+026650FM-12+018199999V0209991C000019999999N0000001N9-00441+99999100281ADDGF108991999999999999999999
0035028360999991919012806004+67367+026650FM-12+018199999V0201801N004119999999N0000001N9-00721+99999100361ADDGF108991999999999999999999MW1721
0035028360999991919012813004+67367+026650FM-12+018199999V0202001N007219999999N0000001N9-00721+99999100521ADDGF108991999999999999999999MW1721
0029028360999991919012820004+67367+026650FM-12+018199999V0202001N004119999999N0000001N9-00611+99999100661ADDGF108991999999999999999999
0029028360999991919012906004+67367+026650FM-12+018199999V0202001N004119999999N0000001N9-00831+99999100901ADDGF108991999999999999999999
0029028360999991919012913004+67367+026650FM-12+018199999V0202701N002119999999N0000001N9-01001+99999100981ADDGF108991999999999999999999
0029028360999991919012920004+67367+026650FM-12+018199999V0202701N002119999999N0000001N9-01171+99999100901ADDGF106991999999999999999999
0029028360999991919013006004+67367+026650FM-12+018199999V0202301N002119999999N0000001N9-01061+99999100351ADDGF103991999999999999999999
0029028360999991919013013004+67367+026650FM-12+018199999V0201601N001019999999N0000001N9-00831+99999099861ADDGF106991999999999999999999
0029028360999991919013020004+67367+026650FM-12+018199999V0202001N006219999999N0000001N9-00441+99999099111ADDGF108991999999999999999999
0029028360999991919013106004+67367+026650FM-12+018199999V0209991C000019999999N0000001N9-00891+99999099321ADDGF100991999999999999999999
0029028360999991919013113004+67367+026650FM-12+018199999V0202701N007219999999N0000001N9-00721+99999099271ADDGF100991999999999999999999
0029028360999991919013120004+67367+026650FM-12+018199999V0202701N008219999999N0000001N9-00671+99999099241ADDGF100991999999999999999999
0029028360999991919020106004+67367+026650FM-12+018199999V0202701N008219999999N0000001N9-00781+99999099061ADDGF106991999999999999999999
0029028360999991919020113004+67367+026650FM-12+018199999V0202901N005119999999N0000001N9-00611+99999098631ADDGF102991999999999999999999
0029028360999991919020120004+67367+026650FM-12+018199999V0209991C000019999999N0000001N9-01671+99999098501ADDGF100991999999999999999999
0029028360999991919020206004+67367+026650FM-12+018199999V0209991C000019999999N0000001N9-02331+99999098501ADDGF106991999999999999999999
0029028360999991919020213004+67367+026650FM-12+018199999V0209991C000019999999N0000001N9-02281+99999098421ADDGF103991999999999999999999
0029028360999991919020220004+67367+026650FM-12+018199999V0209991C000019999999N0000001N9-03171+99999098421ADDGF100991999999999999999999
0029028360999991919020306004+67367+026650FM-12+018199999V0209991C000019999999N0000001N9-02671+99999098421ADDGF102991999999999999999999
0029028360999991919020313004+67367+026650FM-12+018199999V0209991C000019999999N0000001N9-02611+99999098551ADDGF100991999999999999999999
0029028360999991919020320004+67367+026650FM-12+018199999V0209991C000019999999N0000001N9-03391+99999098551ADDGF100991999999999999999999
0029028360999991919020406004+67367+026650FM-12+018199999V0209991C000019999999N0000001N9-02831+99999098631ADDGF100991999999999999999999
0029028360999991919020413004+67367+026650FM-12+018199999V0203401N001019999999N0000001N9-01331+99999098741ADDGF108991999999999999999999
0029028360999991919020420004+67367+026650FM-12+018199999V0203401N001019999999N0000001N9-01281+99999098831ADDGF108991999999999999999999
0029028360999991919020506004+67367+026650FM-12+018199999V0209991C000019999999N0000001N9-01561+99999099101ADDGF108991999999999999999999
0029028360999991919020513004+67367+026650FM-12+018199999V0200201N001019999999N0000001N9-02001+99999099351ADDGF108991999999999999999999
0029028360999991919020520004+67367+026650FM-12+018199999V0209991C000019999999N0000001N9-02221+99999099431ADDGF104991999999999999999999
0029028360999991919020606004+67367+026650FM-12+018199999V0209991C000019999999N0000001N9-02111+99999099401ADDGF108991999999999999999999
0029028360999991919020613004+67367+026650FM-12+018199999V0209991C000019999999N0000001N9-02061+99999099541ADDGF102991999999999999999999
0029028360999991919020620004+67367+026650FM-12+018199999V0209991C000019999999N0000001N9-02331+99999099561ADDGF102991999999999999999999
0029028360999991919020706004+67367+026650FM-12+018199999V0209991C000019999999N0000001N9-02111+99999099301ADDGF108991999999999999999999
0029028360999991919020713004+67367+026650FM-12+018199999V0209991C000019999999N0000001N9-01831+99999099141ADDGF108991999999999999999999
0029028360999991919020720004+67367+026650FM-12+018199999V0209991C000019999999N0000001N9-02391+99999099221ADDGF108991999999999999999999
0029028360999991919020806004+67367+026650FM-12+018199999V0209991C000019999999N0000001N9-02001+99999099341ADDGF105991999999999999999999
0029028360999991919020813004+67367+026650FM-12+018199999V0209991C000019999999N0000001N9-01561+99999099101ADDGF103991999999999999999999
0029028360999991919020820004+67367+026650FM-12+018199999V0209991C000019999999N0000001N9-02331+99999099541ADDGF100991999999999999999999
0029028360999991919020906004+67367+026650FM-12+018199999V0209991C000019999999N0000001N9-02831+99999099471ADDGF108991999999999999999999
0029028360999991919020913004+67367+026650FM-12+018199999V0209991C000019999999N0000001N9-01831+99999098871ADDGF108991999999999999999999
0029028360999991919020920004+67367+026650FM-12+018199999V0209991C000019999999N0000001N9-01391+99999098161ADDGF108991999999999999999999
0029028360999991919021006004+67367+026650FM-12+018199999V0203401N001019999999N0000001N9-00891+99999097801ADDGF108991999999999999999999
0035028360999991919021013004+67367+026650FM-12+018199999V0209991C000019999999N0000001N9-00891+99999098021ADDGF108991999999999999999999MW1721
0035028360999991919021020004+67367+026650FM-12+018199999V0209991C000019999999N0000001N9-01111+99999097591ADDGF108991999999999999999999MW1721
0029028360999991919021106004+67367+026650FM-12+018199999V0209991C000019999999N0000001N9-01721+99999097621ADDGF108991999999999999999999
0029028360999991919021113004+67367+026650FM-12+018199999V0209991C000019999999N0000001N9-01721+99999097941ADDGF108991999999999999999999
0029028360999991919021120004+67367+026650FM-12+018199999V0209991C000019999999N0000001N9-01221+99999098181ADDGF104991999999999999999999
0029028360999991919021206004+67367+026650FM-12+018199999V0203201N001019999999N0000001N9-01441+99999098581ADDGF102991999999999999999999
0029028360999991919021213004+67367+026650FM-12+018199999V0209991C000019999999N0000001N9-01441+99999098501ADDGF107991999999999999999999
0035028360999991919021220004+67367+026650FM-12+018199999V0202701N002119999999N0000001N9-00831+99999097801ADDGF108991999999999999999999MW1721
0029028360999991919021306004+67367+026650FM-12+018199999V0203201N002119999999N0000001N9-01171+99999097831ADDGF108991999999999999999999
0029028360999991919021313004+67367+026650FM-12+018199999V0209991C000019999999N0000001N9-01111+99999097681ADDGF101991999999999999999999
0029028360999991919021320004+67367+026650FM-12+018199999V0201801N001019999999N0000001N9-01391+99999097481ADDGF108991999999999999999999
0035028360999991919021406004+67367+026650FM-12+018199999V0201601N004119999999N0000001N9-01171+99999096581ADDGF108991999999999999999999MW1721
0035028360999991919021413004+67367+026650FM-12+018199999V0201401N006219999999N0000001N9-01061+99999096231ADDGF108991999999999999999999MW1721
0035028360999991919021420004+67367+026650FM-12+018199999V0200901N005119999999N0000001N9-01331+99999096201ADDGF108991999999999999999999MW1721
0035028360999991919021506004+67367+026650FM-12+018199999V0200901N004119999999N0000001N9-01441+99999096261ADDGF108991999999999999999999MW1721
0029028360999991919021513004+67367+026650FM-12+018199999V0200501N004119999999N0000001N9-01561+99999096781ADDGF104991999999999999999999
0029028360999991919021520004+67367+026650FM-12+018199999V0203601N001019999999N0000001N9-02331+99999097351ADDGF100991999999999999999999
0029028360999991919021606004+67367+026650FM-12+018199999V0209991C000019999999N0000001N9-03501+99999098041ADDGF100991999999999999999999
0029028360999991919021613004+67367+026650FM-12+018199999V0209991C000019999999N0000001N9-02501+99999098361ADDGF100991999999999999999999
0029028360999991919021620004+67367+026650FM-12+018199999V0209991C000019999999N0000001N9-03501+99999098741ADDGF101991999999999999999999
0029028360999991919021706004+67367+026650FM-12+018199999V0209991C000019999999N0000001N9-03221+99999098951ADDGF106991999999999999999999
0029028360999991919021713004+67367+026650FM-12+018199999V0201401N004119999999N0000001N9-02561+99999099021ADDGF105991999999999999999999
0035028360999991919021720004+67367+026650FM-12+018199999V0201601N004119999999N0000001N9-02441+99999098841ADDGF108991999999999999999999MW1721
0035028360999991919021806004+67367+026650FM-12+018199999V0201601N006219999999N0000001N9-02171+99999098191ADDGF108991999999999999999999MW1721
0035028360999991919021813004+67367+026650FM-12+018199999V0201401N006219999999N0000001N9-01781+99999097721ADDGF108991999999999999999999MW1721
0035028360999991919021820004+67367+026650FM-12+018199999V0201401N002119999999N0000001N9-01831+99999097301ADDGF108991999999999999999999MW1721
0035028360999991919021906004+67367+026650FM-12+018199999V0201601N002119999999N0000001N9-01671+99999096761ADDGF108991999999999999999999MW1721
0035028360999991919021913004+67367+026650FM-12+018199999V0201601N001019999999N0000001N9-01281+99999096711ADDGF108991999999999999999999MW1721
0029028360999991919021920004+67367+026650FM-12+018199999V0209991C000019999999N0000001N9-01721+99999097151ADDGF103991999999999999999999
0029028360999991919022006004+67367+026650FM-12+018199999V0209991C000019999999N0000001N9-03561+99999097781ADDGF100991999999999999999999
0029028360999991919022013004+67367+026650FM-12+018199999V0209991C000019999999N0000001N9-01831+99999097431ADDGF108991999999999999999999
0035028360999991919022020004+67367+026650FM-12+018199999V0209991C000019999999N0000001N9-00721+99999096521ADDGF108991999999999999999999MW1721
0029028360999991919022106004+67367+026650FM-12+018199999V0209991C000019999999N0000001N9-01891+99999097141ADDGF100991999999999999999999
0029028360999991919022113004+67367+026650FM-12+018199999V0209991C000019999999N0000001N9-01171+99999098071ADDGF102991999999999999999999
0029028360999991919022120004+67367+026650FM-12+018199999V0209991C000019999999N0000001N9-01611+99999098421ADDGF108991999999999999999999
0029028360999991919022206004+67367+026650FM-12+018199999V0209991C000019999999N0000001N9-03001+99999098281ADDGF101991999999999999999999
0029028360999991919022213004+67367+026650FM-12+018199999V0202901N005119999999N0000001N9-01281+99999098471ADDGF101991999999999999999999
0029028360999991919022220004+67367+026650FM-12+018199999V0209991C000019999999N0000001N9-02441+99999098681ADDGF100991999999999999999999
0029028360999991919022306004+67367+026650FM-12+018199999V0209991C000019999999N0000001N9-03611+99999098741ADDGF100991999999999999999999
0029028360999991919022313004+67367+026650FM-12+018199999V0202901N002119999999N0000001N9-01331+99999098751ADDGF100991999999999999999999
0029028360999991919022320004+67367+026650FM-12+018199999V0209991C000019999999N0000001N9-03001+99999098711ADDGF100991999999999999999999
0029028360999991919022406004+67367+026650FM-12+018199999V0203201N001019999999N0000001N9-02171+99999098861ADDGF108991999999999999999999
0029028360999991919022413004+67367+026650FM-12+018199999V0202901N003119999999N0000001N9-01171+99999099071ADDGF100991999999999999999999
0029028360999991919022420004+67367+026650FM-12+018199999V0202901N001019999999N0000001N9-01561+99999099441ADDGF100991999999999999999999
0029028360999991919022506004+67367+026650FM-12+018199999V0209991C000019999999N0000001N9-02061+99999100121ADDGF100991999999999999999999
0029028360999991919022513004+67367+026650FM-12+018199999V0209991C000019999999N0000001N9-01171+99999100601ADDGF100991999999999999999999
0029028360999991919022520004+67367+026650FM-12+018199999V0209991C000019999999N0000001N9-02721+99999100781ADDGF100991999999999999999999
0029028360999991919022606004+67367+026650FM-12+018199999V0202901N001019999999N0000001N9-01561+99999100551ADDGF108991999999999999999999
0029028360999991919022613004+67367+026650FM-12+018199999V0202901N002119999999N0000001N9-01171+99999100551ADDGF104991999999999999999999
0029028360999991919022620004+67367+026650FM-12+018199999V0209991C000019999999N0000001N9-02561+99999100601ADDGF100991999999999999999999
0029028360999991919022706004+67367+026650FM-12+018199999V0209991C000019999999N0000001N9-02281+99999100071ADDGF100991999999999999999999
0035028360999991919022713004+67367+026650FM-12+018199999V0201801N006219999999N0000001N9-01441+99999099581ADDGF106991999999999999999999MW1721
0035028360999991919022720004+67367+026650FM-12+018199999V0201401N002119999999N0000001N9-01221+99999099071ADDGF100991999999999999999999MW1721
0029028360999991919022806004+67367+026650FM-12+018199999V0209991C000019999999N0000001N9-01721+99999099001ADDGF100991999999999999999999
0029028360999991919022813004+67367+026650FM-12+018199999V0202001N002119999999N0000001N9-00941+99999099121ADDGF106991999999999999999999
0029028360999991919022820004+67367+026650FM-12+018199999V0202001N002119999999N0000001N9-01111+99999099021ADDGF100991999999999999999999
0035028360999991919030106004+67367+026650FM-12+018199999V0201801N006219999999N0000001N9-00781+99999098671ADDGF108991999999999999999999MW1721
0035028360999991919030113004+67367+026650FM-12+018199999V0201601N008219999999N0000001N9-00721+99999098241ADDGF108991999999999999999999MW1721
0029028360999991919030120004+67367+026650FM-12+018199999V0202501N006219999999N0000001N9-00671+99999098071ADDGF100991999999999999999999
0029028360999991919030206004+67367+026650FM-12+018199999V0202301N003119999999N0000001N9-00561+99999098021ADDGF107991999999999999999999
0035028360999991919030213004+67367+026650FM-12+018199999V0202001N005119999999N0000001N9-00281+99999098181ADDGF108991999999999999999999MW1721
0029028360999991919030220004+67367+026650FM-12+018199999V0202001N006219999999N0000001N9-00221+99999098151ADDGF108991999999999999999999
0035028360999991919030306004+67367+026650FM-12+018199999V0202301N008219999999N0000001N9-00221+99999097791ADDGF108991999999999999999999MW1721
0035028360999991919030313004+67367+026650FM-12+018199999V0202301N013919999999N0000001N9-00171+99999097661ADDGF108991999999999999999999MW1721
0035028360999991919030320004+67367+026650FM-12+018199999V0202301N008219999999N0000001N9+00001+99999097481ADDGF108991999999999999999999MW1721
0035028360999991919030406004+67367+026650FM-12+018199999V0201401N004119999999N0000001N9-00111+99999097191ADDGF108991999999999999999999MW1721
0035028360999991919030413004+67367+026650FM-12+018199999V0201601N002119999999N0000001N9+00001+99999096821ADDGF108991999999999999999999MW1721
0029028360999991919030420004+67367+026650FM-12+018199999V0209991C000019999999N0000001N9-00281+99999096581ADDGF100991999999999999999999
0035028360999991919030506004+67367+026650FM-12+018199999V0209991C000019999999N0000001N9-00441+99999096461ADDGF108991999999999999999999MW1721
0035028360999991919030513004+67367+026650FM-12+018199999V0202901N004119999999N0000001N9-00171+99999096631ADDGF108991999999999999999999MW1721
0035028360999991919030520004+67367+026650FM-12+018199999V0202901N004119999999N0000001N9-00391+99999097031ADDGF104991999999999999999999MW1721
0035028360999991919030606004+67367+026650FM-12+018199999V0202701N002119999999N0000001N9-00561+99999097421ADDGF108991999999999999999999MW1721
0035028360999991919030613004+67367+026650FM-12+018199999V0202901N003119999999N0000001N9-00441+99999097621ADDGF106991999999999999999999MW1721
0029028360999991919030620004+67367+026650FM-12+018199999V0209991C000019999999N0000001N9-01061+99999097831ADDGF100991999999999999999999
0029028360999991919030706004+67367+026650FM-12+018199999V0209991C000019999999N0000001N9-02221+99999098151ADDGF100991999999999999999999
0029028360999991919030713004+67367+026650FM-12+018199999V0201601N001019999999N0000001N9-00831+99999098081ADDGF108991999999999999999999
0029028360999991919030720004+67367+026650FM-12+018199999V0209991C000019999999N0000001N9-01221+99999097961ADDGF108991999999999999999999
0035028360999991919030806004+67367+026650FM-12+018199999V0209991C000019999999N0000001N9-00941+99999097401ADDGF108991999999999999999999MW1721
0035028360999991919030813004+67367+026650FM-12+018199999V0200201N004119999999N0000001N9-00561+99999096981ADDGF108991999999999999999999MW1721
0029028360999991919030820004+67367+026650FM-12+018199999V0202901N002119999999N0000001N9-00941+99999096941ADDGF106991999999999999999999
0035028360999991919030906004+67367+026650FM-12+018199999V0203201N003119999999N0000001N9-01111+99999097321ADDGF106991999999999999999999MW1721
0029028360999991919030913004+67367+026650FM-12+018199999V0203401N004119999999N0000001N9-00501+99999097721ADDGF106991999999999999999999
0029028360999991919030920004+67367+026650FM-12+018199999V0209991C000019999999N0000001N9-01061+99999097991ADDGF102991999999999999999999
0029028360999991919031006004+67367+026650FM-12+018199999V0209991C000019999999N0000001N9-02831+99999098061ADDGF107991999999999999999999
0029028360999991919031013004+67367+026650FM-12+018199999V0201401N002119999999N0000001N9-00781+99999097911ADDGF108991999999999999999999
0035028360999991919031020004+67367+026650FM-12+018199999V0201601N001019999999N0000001N9-00721+99999097671ADDGF108991999999999999999999MW1721
0035028360999991919031106004+67367+026650FM-12+018199999V0209991C000019999999N0000001N9-00611+99999097281ADDGF108991999999999999999999MW1721
0035028360999991919031113004+67367+026650FM-12+018199999V0201101N001019999999N0000001N9-00221+99999097081ADDGF108991999999999999999999MW1721
0035028360999991919031120004+67367+026650FM-12+018199999V0209991C000019999999N0000001N9-00611+99999096761ADDGF103991999999999999999999MW1721
0029028360999991919031206004+67367+026650FM-12+018199999V0200201N001019999999N0000001N9-00831+99999097161ADDGF108991999999999999999999
0035028360999991919031213004+67367+026650FM-12+018199999V0203401N004119999999N0000001N9-00441+99999097461ADDGF108991999999999999999999MW1721
0029028360999991919031220004+67367+026650FM-12+018199999V0203401N004119999999N0000001N9-00671+99999097871ADDGF108991999999999999999999
0029028360999991919031306004+67367+026650FM-12+018199999V0209991C000019999999N0000001N9-01671+99999098681ADDGF100991999999999999999999
0029028360999991919031313004+67367+026650FM-12+018199999V0203401N001019999999N0000001N9-00221+99999099151ADDGF102991999999999999999999
0029028360999991919031320004+67367+026650FM-12+018199999V0203401N005119999999N0000001N9-00501+99999099781ADDGF108991999999999999999999
0029028360999991919031406004+67367+026650FM-12+018199999V0203201N001019999999N0000001N9-01441+99999100151ADDGF100991999999999999999999
0029028360999991919031413004+67367+026650FM-12+018199999V0202701N001019999999N0000001N9-00561+99999100071ADDGF106991999999999999999999
0029028360999991919031420004+67367+026650FM-12+018199999V0203401N002119999999N0000001N9-00831+99999099961ADDGF100991999999999999999999
0029028360999991919031506004+67367+026650FM-12+018199999V0203401N005119999999N0000001N9-01391+99999100521ADDGF100991999999999999999999
0029028360999991919031513004+67367+026650FM-12+018199999V0203601N004119999999N0000001N9-00611+99999100881ADDGF100991999999999999999999
0029028360999991919031520004+67367+026650FM-12+018199999V0209991C000019999999N0000001N9-01281+99999101031ADDGF106991999999999999999999
0035028360999991919031606004+67367+026650FM-12+018199999V0202701N006219999999N0000001N9-00781+99999100121ADDGF108991999999999999999999MW1721
0029028360999991919031613004+67367+026650FM-12+018199999V0203401N006219999999N0000001N9-00061+99999099621ADDGF108991999999999999999999
0029028360999991919031620004+67367+026650FM-12+018199999V0203401N004119999999N0000001N9-00721+99999099501ADDGF108991999999999999999999
0029028360999991919031706004+67367+026650FM-12+018199999V0203401N004119999999N0000001N9-01281+99999099341ADDGF105991999999999999999999
0035028360999991919031713004+67367+026650FM-12+018199999V0203601N013919999999N0000001N9-00941+99999099381ADDGF107991999999999999999999MW1721
0029028360999991919031720004+67367+026650FM-12+018199999V0203401N008219999999N0000001N9-01001+99999099241ADDGF108991999999999999999999
0029028360999991919031806004+67367+026650FM-12+018199999V0200201N006219999999N0000001N9-01001+99999099511ADDGF103991999999999999999999
0035028360999991919031813004+67367+026650FM-12+018199999V0200201N004119999999N0000001N9-00721+99999099761ADDGF108991999999999999999999MW1721
0029028360999991919031820004+67367+026650FM-12+018199999V0200201N002119999999N0000001N9-00941+99999099701ADDGF108991999999999999999999
0029028360999991919031906004+67367+026650FM-12+018199999V0203201N002119999999N0000001N9-00781+99999099321ADDGF108991999999999999999999
0029028360999991919031913004+67367+026650FM-12+018199999V0203401N004119999999N0000001N9-00441+99999099191ADDGF106991999999999999999999
0029028360999991919031920004+67367+026650FM-12+018199999V0203401N006219999999N0000001N9-00721+99999099241ADDGF108991999999999999999999
0035028360999991919032006004+67367+026650FM-12+018199999V0209991C000019999999N0000001N9-01061+99999099511ADDGF108991999999999999999999MW1721
0029028360999991919032013004+67367+026650FM-12+018199999V0203401N005119999999N0000001N9-00611+99999099321ADDGF108991999999999999999999
0029028360999991919032020004+67367+026650FM-12+018199999V0203401N002119999999N0000001N9-00831+99999098981ADDGF108991999999999999999999
0029028360999991919032106004+67367+026650FM-12+018199999V0202901N002119999999N0000001N9-01001+99999098281ADDGF108991999999999999999999
0029028360999991919032113004+67367+026650FM-12+018199999V0202901N003119999999N0000001N9-00331+99999097941ADDGF106991999999999999999999
0035028360999991919032120004+67367+026650FM-12+018199999V0200901N001019999999N0000001N9-00891+99999097681ADDGF108991999999999999999999MW1701
0035028360999991919032206004+67367+026650FM-12+018199999V0200701N006219999999N0000001N9-01331+99999097391ADDGF108991999999999999999999MW1721
0035028360999991919032213004+67367+026650FM-12+018199999V0200701N005119999999N0000001N9-01171+99999097471ADDGF108991999999999999999999MW1721
0029028360999991919032220004+67367+026650FM-12+018199999V0200201N001019999999N0000001N9-01611+99999097581ADDGF100991999999999999999999
0029028360999991919032306004+67367+026650FM-12+018199999V0209991C000019999999N0000001N9-02831+99999097641ADDGF100991999999999999999999
0029028360999991919032313004+67367+026650FM-12+018199999V0200501N006219999999N0000001N9-01281+99999097741ADDGF101991999999999999999999
0029028360999991919032320004+67367+026650FM-12+018199999V0209991C000019999999N0000001N9-02671+99999097951ADDGF100991999999999999999999
0029028360999991919032406004+67367+026650FM-12+018199999V0209991C000019999999N0000001N9-03671+99999098261ADDGF100991999999999999999999
0029028360999991919032413004+67367+026650FM-12+018199999V0203401N002119999999N0000001N9-01221+99999098431ADDGF100991999999999999999999
0029028360999991919032420004+67367+026650FM-12+018199999V0209991C000019999999N0000001N9-02831+99999098601ADDGF100991999999999999999999
0029028360999991919032506004+67367+026650FM-12+018199999V0209991C000019999999N0000001N9-03671+99999098941ADDGF100991999999999999999999
0029028360999991919032513004+67367+026650FM-12+018199999V0201801N002119999999N0000001N9-00941+99999098981ADDGF100991999999999999999999
0029028360999991919032520004+67367+026650FM-12+018199999V0209991C000019999999N0000001N9-02441+99999099031ADDGF102991999999999999999999
0029028360999991919032606004+67367+026650FM-12+018199999V0201601N004119999999N0000001N9-01441+99999099061ADDGF107991999999999999999999
0029028360999991919032613004+67367+026650FM-12+018199999V0202001N006219999999N0000001N9-00941+99999099061ADDGF108991999999999999999999
0035028360999991919032620004+67367+026650FM-12+018199999V0201601N006219999999N0000001N9-01111+99999098951ADDGF108991999999999999999999MW1721
0029028360999991919032706004+67367+026650FM-12+018199999V0201801N005119999999N0000001N9-00831+99999098751ADDGF108991999999999999999999
0029028360999991919032713004+67367+026650FM-12+018199999V0202001N004119999999N0000001N9+00001+99999098681ADDGF104991999999999999999999
0029028360999991919032720004+67367+026650FM-12+018199999V0201601N002119999999N0000001N9-00561+99999098881ADDGF106991999999999999999999
0029028360999991919032806004+67367+026650FM-12+018199999V0201601N004119999999N0000001N9-01061+99999099001ADDGF108991999999999999999999
0029028360999991919032813004+67367+026650FM-12+018199999V0201601N006219999999N0000001N9+00001+99999099031ADDGF106991999999999999999999
0029028360999991919032820004+67367+026650FM-12+018199999V0201601N002119999999N0000001N9-00501+99999099021ADDGF102991999999999999999999
0029028360999991919032906004+67367+026650FM-12+018199999V0201601N002119999999N0000001N9-01831+99999099271ADDGF103991999999999999999999
0029028360999991919032913004+67367+026650FM-12+018199999V0201601N006219999999N0000001N9+00171+99999099241ADDGF102991999999999999999999
0029028360999991919032920004+67367+026650FM-12+018199999V0209991C000019999999N0000001N9-00561+99999099041ADDGF101991999999999999999999
0029028360999991919033006004+67367+026650FM-12+018199999V0209991C000019999999N0000001N9-02331+99999098941ADDGF104991999999999999999999
0029028360999991919033013004+67367+026650FM-12+018199999V0201101N004119999999N0000001N9-00281+99999098801ADDGF100991999999999999999999
0029028360999991919033020004+67367+026650FM-12+018199999V0209991C000019999999N0000001N9-01441+99999098791ADDGF100991999999999999999999
0029028360999991919033106004+67367+026650FM-12+018199999V0209991C000019999999N0000001N9-02501+99999098901ADDGF102991999999999999999999
0029028360999991919033113004+67367+026650FM-12+018199999V0209991C000019999999N0000001N9-00671+99999098821ADDGF100991999999999999999999
0029028360999991919033120004+67367+026650FM-12+018199999V0209991C000019999999N0000001N9-01891+99999098801ADDGF100991999999999999999999
0035028360999991919040106004+67367+026650FM-12+018199999V0209991C000019999999N0000001N9-01331+99999098631ADDGF108991999999999999999999MW1721
0029028360999991919040113004+67367+026650FM-12+018199999V0201601N002119999999N0000001N9-00391+99999098321ADDGF108991999999999999999999
0029028360999991919040120004+67367+026650FM-12+018199999V0209991C000019999999N0000001N9-00891+99999098041ADDGF108991999999999999999999
0035028360999991919040206004+67367+026650FM-12+018199999V0201601N002119999999N0000001N9-00831+99999097701ADDGF108991999999999999999999MW1721
0035028360999991919040213004+67367+026650FM-12+018199999V0201401N002119999999N0000001N9-00441+99999097441ADDGF108991999999999999999999MW1721
0035028360999991919040220004+67367+026650FM-12+018199999V0209991C000019999999N0000001N9-01281+99999097311ADDGF101991999999999999999999MW1721
0035028360999991919040306004+67367+026650FM-12+018199999V0200901N004119999999N0000001N9-00721+99999097031ADDGF108991999999999999999999MW1721
0035028360999991919040313004+67367+026650FM-12+018199999V0201101N002119999999N0000001N9-00391+99999096991ADDGF108991999999999999999999MW1721
0029028360999991919040320004+67367+026650FM-12+018199999V0203601N002119999999N0000001N9-00501+99999097111ADDGF108991999999999999999999
0035028360999991919040406004+67367+026650FM-12+018199999V0203601N008719999999N0000001N9-00721+99999097321ADDGF108991999999999999999999MW1721
0029028360999991919040413004+67367+026650FM-12+018199999V0203601N005119999999N0000001N9-00281+99999097471ADDGF106991999999999999999999
0029028360999991919040420004+67367+026650FM-12+018199999V0203401N002119999999N0000001N9-01281+99999096861ADDGF108991999999999999999999
0035028360999991919040506004+67367+026650FM-12+018199999V0202001N006219999999N0000001N9-00831+99999095551ADDGF108991999999999999999999MW1721
0035028360999991919040513004+67367+026650FM-12+018199999V0202901N006219999999N0000001N9-00501+99999095621ADDGF108991999999999999999999MW1721
0029028360999991919040520004+67367+026650FM-12+018199999V0202701N008219999999N0000001N9-00671+99999096071ADDGF108991999999999999999999
0035028360999991919040606004+67367+026650FM-12+018199999V0202501N008219999999N0000001N9-01111+99999096021ADDGF108991999999999999999999MW1721
0035028360999991919040613004+67367+026650FM-12+018199999V0202901N006219999999N0000001N9-00441+99999096121ADDGF108991999999999999999999MW1721
0035028360999991919040620004+67367+026650FM-12+018199999V0202901N006219999999N0000001N9-00561+99999096471ADDGF108991999999999999999999MW1721
0029028360999991919040706004+67367+026650FM-12+018199999V0203201N003119999999N0000001N9-00561+99999097161ADDGF102991999999999999999999
0029028360999991919040713004+67367+026650FM-12+018199999V0203401N006219999999N0000001N9+00001+99999097751ADDGF102991999999999999999999
0029028360999991919040720004+67367+026650FM-12+018199999V0202701N001019999999N0000001N9-00891+99999098001ADDGF106991999999999999999999
0029028360999991919040806004+67367+026650FM-12+018199999V0209991C000019999999N0000001N9-01721+99999098551ADDGF100991999999999999999999
0029028360999991919040813004+67367+026650FM-12+018199999V0202901N004119999999N0000001N9-00111+99999098871ADDGF102991999999999999999999
0029028360999991919040820004+67367+026650FM-12+018199999V0209991C000019999999N0000001N9-01331+99999098951ADDGF100991999999999999999999
0029028360999991919040906004+67367+026650FM-12+018199999V0209991C000019999999N0000001N9-02061+99999099161ADDGF104991999999999999999999
0029028360999991919040913004+67367+026650FM-12+018199999V0201801N002119999999N0000001N9+00111+99999099111ADDGF106991999999999999999999
0029028360999991919040920004+67367+026650FM-12+018199999V0209991C000019999999N0000001N9-01001+99999098901ADDGF100991999999999999999999
0029028360999991919041006004+67367+026650FM-12+018199999V0201801N002119999999N0000001N9-00721+99999098601ADDGF108991999999999999999999
0035028360999991919041013004+67367+026650FM-12+018199999V0200701N003119999999N0000001N9-00061+99999098071ADDGF108991999999999999999999MW1721
0035028360999991919041020004+67367+026650FM-12+018199999V0200701N003119999999N0000001N9-00331+99999097801ADDGF108991999999999999999999MW1721
0035028360999991919041106004+67367+026650FM-12+018199999V0209991C000019999999N0000001N9-00391+99999097401ADDGF108991999999999999999999MW1721
0035028360999991919041113004+67367+026650FM-12+018199999V0209991C000019999999N0000001N9-00061+99999097241ADDGF108991999999999999999999MW1721
0029028360999991919041120004+67367+026650FM-12+018199999V0202901N004119999999N0000001N9-00281+99999097281ADDGF108991999999999999999999
0029028360999991919041206004+67367+026650FM-12+018199999V0209991C000019999999N0000001N9-00501+99999097111ADDGF108991999999999999999999
0035028360999991919041213004+67367+026650FM-12+018199999V0202701N001019999999N0000001N9-00171+99999096471ADDGF108991999999999999999999MW1721
0029028360999991919041220004+67367+026650FM-12+018199999V0209991C000019999999N0000001N9-00561+99999096551ADDGF104991999999999999999999
0029028360999991919041306004+67367+026650FM-12+018199999V0209991C000019999999N0000001N9-00501+99999096911ADDGF108991999999999999999999
0029028360999991919041313004+67367+026650FM-12+018199999V0203601N002119999999N0000001N9-00171+99999097271ADDGF106991999999999999999999
0029028360999991919041320004+67367+026650FM-12+018199999V0203601N002119999999N0000001N9-00441+99999097671ADDGF106991999999999999999999
0029028360999991919041406004+67367+026650FM-12+018199999V0203601N001019999999N0000001N9-01111+99999098231ADDGF103991999999999999999999
0029028360999991919041413004+67367+026650FM-12+018199999V0201401N004119999999N0000001N9+00221+99999098361ADDGF104991999999999999999999
0035028360999991919041420004+67367+026650FM-12+018199999V0209991C000019999999N0000001N9-00171+99999098121ADDGF108991999999999999999999MW1721
0035028360999991919041506004+67367+026650FM-12+018199999V0203601N002119999999N0000001N9-00171+99999098151ADDGF108991999999999999999999MW1721
0029028360999991919041513004+67367+026650FM-12+018199999V0203601N003119999999N0000001N9+00111+99999098861ADDGF106991999999999999999999
0029028360999991919041520004+67367+026650FM-12+018199999V0209991C000019999999N0000001N9-00611+99999099511ADDGF102991999999999999999999
0029028360999991919041606004+67367+026650FM-12+018199999V0209991C000019999999N0000001N9-00561+99999100041ADDGF108991999999999999999999
0029028360999991919041613004+67367+026650FM-12+018199999V0201601N004119999999N0000001N9+00391+99999100181ADDGF106991999999999999999999
0029028360999991919041620004+67367+026650FM-12+018199999V0201401N004119999999N0000001N9+00061+99999100041ADDGF102991999999999999999999
0035028360999991919041706004+67367+026650FM-12+018199999V0201101N004119999999N0000001N9-00391+99999099681ADDGF108991999999999999999999MW1721
0035028360999991919041713004+67367+026650FM-12+018199999V0201401N006219999999N0000001N9+00111+99999099271ADDGF108991999999999999999999MW1621
0035028360999991919041720004+67367+026650FM-12+018199999V0201401N002119999999N0000001N9+00111+99999098721ADDGF108991999999999999999999MW1621
0035028360999991919041806004+67367+026650FM-12+018199999V0209991C000019999999N0000001N9+00111+99999098121ADDGF108991999999999999999999MW1721
0029028360999991919041813004+67367+026650FM-12+018199999V0203601N004119999999N0000001N9+00331+99999098041ADDGF103991999999999999999999
0029028360999991919041820004+67367+026650FM-12+018199999V0202901N001019999999N0000001N9+00171+99999098101ADDGF105991999999999999999999
0029028360999991919041906004+67367+026650FM-12+018199999V0203401N005119999999N0000001N9-00061+99999098281ADDGF100991999999999999999999
0029028360999991919041913004+67367+026650FM-12+018199999V0203601N005119999999N0000001N9+00171+99999098341ADDGF102991999999999999999999
0029028360999991919041920004+67367+026650FM-12+018199999V0200201N004119999999N0000001N9-00281+99999098161ADDGF108991999999999999999999
0029028360999991919042006004+67367+026650FM-12+018199999V0203601N004119999999N0000001N9-00721+99999098231ADDGF106991999999999999999999
0035028360999991919042013004+67367+026650FM-12+018199999V0200201N006219999999N0000001N9-00331+99999098841ADDGF106991999999999999999999MW1721
0029028360999991919042020004+67367+026650FM-12+018199999V0203601N006219999999N0000001N9-00441+99999099671ADDGF108991999999999999999999
0029028360999991919042106004+67367+026650FM-12+018199999V0209991C000019999999N0000001N9-00501+99999100391ADDGF100991999999999999999999
0029028360999991919042113004+67367+026650FM-12+018199999V0202301N006219999999N0000001N9+00061+99999100201ADDGF106991999999999999999999
0029028360999991919042120004+67367+026650FM-12+018199999V0202001N008219999999N0000001N9-00281+99999099471ADDGF108991999999999999999999
0035028360999991919042206004+67367+026650FM-12+018199999V0202001N007219999999N0000001N9+00221+99999097961ADDGF108991999999999999999999MW1721
0035028360999991919042213004+67367+026650FM-12+018199999V0202301N009819999999N0000001N9+00501+99999097261ADDGF108991999999999999999999MW1721
0035028360999991919042220004+67367+026650FM-12+018199999V0203601N005119999999N0000001N9-00281+99999097601ADDGF108991999999999999999999MW1721
0029028360999991919042306004+67367+026650FM-12+018199999V0200201N004119999999N0000001N9-00441+99999098361ADDGF105991999999999999999999
0029028360999991919042313004+67367+026650FM-12+018199999V0203601N002119999999N0000001N9-00281+99999098791ADDGF106991999999999999999999
0029028360999991919042320004+67367+026650FM-12+018199999V0209991C000019999999N0000001N9-00941+99999098921ADDGF100991999999999999999999
0029028360999991919042406004+67367+026650FM-12+018199999V0209991C000019999999N0000001N9-00561+99999098781ADDGF103991999999999999999999
0029028360999991919042413004+67367+026650FM-12+018199999V0203201N001019999999N0000001N9+00111+99999098841ADDGF101991999999999999999999
0029028360999991919042420004+67367+026650FM-12+018199999V0209991C000019999999N0000001N9-00831+99999098821ADDGF100991999999999999999999
0029028360999991919042506004+67367+026650FM-12+018199999V0209991C000019999999N0000001N9-00831+99999098861ADDGF108991999999999999999999
0029028360999991919042513004+67367+026650FM-12+018199999V0201101N006219999999N0000001N9+00281+99999098631ADDGF106991999999999999999999
0035028360999991919042520004+67367+026650FM-12+018199999V0200901N004119999999N0000001N9-00281+99999098471ADDGF108991999999999999999999MW1721
0035028360999991919042606004+67367+026650FM-12+018199999V0209991C000019999999N0000001N9-00331+99999098441ADDGF108991999999999999999999MW1721
0029028360999991919042613004+67367+026650FM-12+018199999V0200901N001019999999N0000001N9+00221+99999098581ADDGF107991999999999999999999
0029028360999991919042620004+67367+026650FM-12+018199999V0209991C000019999999N0000001N9-00441+99999098631ADDGF102991999999999999999999
0029028360999991919042706004+67367+026650FM-12+018199999V0209991C000019999999N0000001N9-00391+99999098641ADDGF104991999999999999999999
0029028360999991919042713004+67367+026650FM-12+018199999V0209991C000019999999N0000001N9+00611+99999098541ADDGF102991999999999999999999
0029028360999991919042720004+67367+026650FM-12+018199999V0209991C000019999999N0000001N9-00111+99999098641ADDGF103991999999999999999999
0029028360999991919042806004+67367+026650FM-12+018199999V0200201N004119999999N0000001N9-00171+99999099041ADDGF100991999999999999999999
0029028360999991919042813004+67367+026650FM-12+018199999V0200201N008219999999N0000001N9+00221+99999099341ADDGF104991999999999999999999
0029028360999991919042820004+67367+026650FM-12+018199999V0200201N005119999999N0000001N9-00061+99999099591ADDGF108991999999999999999999
0029028360999991919042906004+67367+026650FM-12+018199999V0200901N002119999999N0000001N9-00281+99999099831ADDGF108991999999999999999999
0029028360999991919042913004+67367+026650FM-12+018199999V0209991C000019999999N0000001N9+00061+99999099661ADDGF106991999999999999999999
0029028360999991919042920004+67367+026650FM-12+018199999V0209991C000019999999N0000001N9-00171+99999099481ADDGF108991999999999999999999
0035028360999991919043006004+67367+026650FM-12+018199999V0200901N004119999999N0000001N9-00331+99999099471ADDGF108991999999999999999999MW1721
0035028360999991919043013004+67367+026650FM-12+018199999V0200901N004119999999N0000001N9-00061+99999099271ADDGF108991999999999999999999MW1721
0029028360999991919050106004+67367+026650FM-12+018199999V0209991C000019999999N0000001N9-00221+99999099501ADDGF108991999999999999999999
0029028360999991919050113004+67367+026650FM-12+018199999V0201101N002119999999N0000001N9+00331+99999099721ADDGF103991999999999999999999
0029028360999991919050120004+67367+026650FM-12+018199999V0209991C000019999999N0000001N9-00281+99999099901ADDGF102991999999999999999999
0029028360999991919050206004+67367+026650FM-12+018199999V0201401N004119999999N0000001N9+00111+99999100201ADDGF103991999999999999999999
0029028360999991919050213004+67367+026650FM-12+018199999V0201101N007219999999N0000001N9+00721+99999100101ADDGF101991999999999999999999
0029028360999991919050220004+67367+026650FM-12+018199999V0201601N008219999999N0000001N9+00331+99999100201ADDGF108991999999999999999999
0029028360999991919050306004+67367+026650FM-12+018199999V0201601N006219999999N0000001N9+00281+99999100591ADDGF107991999999999999999999
0029028360999991919050313004+67367+026650FM-12+018199999V0201401N006219999999N0000001N9+01061+99999100821ADDGF104991999999999999999999
0029028360999991919050320004+67367+026650FM-12+018199999V0201101N004119999999N0000001N9+00561+99999101101ADDGF108991999999999999999999
0029028360999991919050406004+67367+026650FM-12+018199999V0201401N006219999999N0000001N9+00331+99999101701ADDGF104991999999999999999999
0029028360999991919050413004+67367+026650FM-12+018199999V0201401N008219999999N0000001N9+01001+99999101791ADDGF102991999999999999999999
0029028360999991919050420004+67367+026650FM-12+018199999V0201601N001019999999N0000001N9+00441+99999101911ADDGF102991999999999999999999
0029028360999991919050506004+67367+026650FM-12+018199999V0201801N004119999999N0000001N9+00501+99999102151ADDGF100991999999999999999999
0029028360999991919050513004+67367+026650FM-12+018199999V0201801N004119999999N0000001N9+01221+99999102161ADDGF100991999999999999999999
0029028360999991919050520004+67367+026650FM-12+018199999V0209991C000019999999N0000001N9+00221+99999102101ADDGF106991999999999999999999
0029028360999991919050606004+67367+026650FM-12+018199999V0209991C000019999999N0000001N9+00781+99999102041ADDGF101991999999999999999999
0029028360999991919050613004+67367+026650FM-12+018199999V0202501N004119999999N0000001N9+01391+99999101961ADDGF101991999999999999999999
0029028360999991919050620004+67367+026650FM-12+018199999V0209991C000019999999N0000001N9+00391+99999101871ADDGF100991999999999999999999
0029028360999991919050706004+67367+026650FM-12+018199999V0209991C000019999999N0000001N9+00831+99999101861ADDGF100991999999999999999999
0029028360999991919050713004+67367+026650FM-12+018199999V0202901N004119999999N0000001N9+01501+99999101721ADDGF100991999999999999999999
0029028360999991919050720004+67367+026650FM-12+018199999V0209991C000019999999N0000001N9+00561+99999101671ADDGF100991999999999999999999
0029028360999991919050806004+67367+026650FM-12+018199999V0203601N001019999999N0000001N9+00831+99999101621ADDGF100991999999999999999999
0029028360999991919050813004+67367+026650FM-12+018199999V0203601N004119999999N0000001N9+01111+99999101431ADDGF100991999999999999999999
0029028360999991919050820004+67367+026650FM-12+018199999V0209991C000019999999N0000001N9+00391+99999101231ADDGF108991999999999999999999
0029028360999991919050906004+67367+026650FM-12+018199999V0209991C000019999999N0000001N9+00331+99999101221ADDGF108991999999999999999999
0029028360999991919050913004+67367+026650FM-12+018199999V0203401N004119999999N0000001N9+00561+99999101101ADDGF108991999999999999999999
0029028360999991919050920004+67367+026650FM-12+018199999V0200201N001019999999N0000001N9+00331+99999100861ADDGF106991999999999999999999
0029028360999991919051006004+67367+026650FM-12+018199999V0200701N004119999999N0000001N9+00001+99999100991ADDGF106991999999999999999999
0029028360999991919051013004+67367+026650FM-12+018199999V0200501N002119999999N0000001N9+00281+99999100911ADDGF107991999999999999999999
0029028360999991919051020004+67367+026650FM-12+018199999V0200501N001019999999N0000001N9+00061+99999100881ADDGF107991999999999999999999
0029028360999991919051106004+67367+026650FM-12+018199999V0209991C000019999999N0000001N9+00111+99999100781ADDGF107991999999999999999999
0029028360999991919051113004+67367+026650FM-12+018199999V0200701N001019999999N0000001N9+00391+99999100551ADDGF107991999999999999999999
0029028360999991919051120004+67367+026650FM-12+018199999V0200201N004119999999N0000001N9+00111+99999100391ADDGF108991999999999999999999
0035028360999991919051206004+67367+026650FM-12+018199999V0200501N004119999999N0000001N9-00061+99999100441ADDGF108991999999999999999999MW1721
0029028360999991919051213004+67367+026650FM-12+018199999V0200201N004119999999N0000001N9+00001+99999100511ADDGF108991999999999999999999
0029028360999991919051220004+67367+026650FM-12+018199999V0200201N004119999999N0000001N9+00001+99999100521ADDGF108991999999999999999999
0035028360999991919051306004+67367+026650FM-12+018199999V0200201N004119999999N0000001N9-00061+99999100741ADDGF108991999999999999999999MW1721
0029028360999991919051313004+67367+026650FM-12+018199999V0200501N004119999999N0000001N9+00171+99999100871ADDGF108991999999999999999999
0029028360999991919051320004+67367+026650FM-12+018199999V0200201N001019999999N0000001N9+00001+99999100791ADDGF107991999999999999999999
0029028360999991919051406004+67367+026650FM-12+018199999V0203401N004119999999N0000001N9+00001+99999100581ADDGF108991999999999999999999
0029028360999991919051413004+67367+026650FM-12+018199999V0200201N002119999999N0000001N9+00111+99999100471ADDGF108991999999999999999999
0029028360999991919051420004+67367+026650FM-12+018199999V0200201N002119999999N0000001N9+00001+99999100351ADDGF108991999999999999999999
0029028360999991919051506004+67367+026650FM-12+018199999V0203401N002119999999N0000001N9+00001+99999100221ADDGF107991999999999999999999
0035028360999991919051513004+67367+026650FM-12+018199999V0200201N004119999999N0000001N9+00171+99999100161ADDGF106991999999999999999999MW1721
0029028360999991919051520004+67367+026650FM-12+018199999V0200201N002119999999N0000001N9+00001+99999100221ADDGF107991999999999999999999
0029028360999991919051606004+67367+026650FM-12+018199999V0200201N006219999999N0000001N9+00001+99999100501ADDGF108991999999999999999999
0029028360999991919051613004+67367+026650FM-12+018199999V0203601N003119999999N0000001N9+00171+99999100711ADDGF107991999999999999999999
0029028360999991919051620004+67367+026650FM-12+018199999V0209991C000019999999N0000001N9+00111+99999100791ADDGF107991999999999999999999
0029028360999991919051706004+67367+026650FM-12+018199999V0209991C000019999999N0000001N9+00061+99999100721ADDGF106991999999999999999999
0029028360999991919051713004+67367+026650FM-12+018199999V0202001N004119999999N0000001N9+00611+99999100391ADDGF102991999999999999999999
0029028360999991919051720004+67367+026650FM-12+018199999V0202001N002119999999N0000001N9+00441+99999099981ADDGF107991999999999999999999
0035028360999991919051806004+67367+026650FM-12+018199999V0202001N005119999999N0000001N9+00111+99999099401ADDGF108991999999999999999999MW1721
0029028360999991919051813004+67367+026650FM-12+018199999V0203201N004119999999N0000001N9+00941+99999099271ADDGF103991999999999999999999
0029028360999991919051820004+67367+026650FM-12+018199999V0203601N001019999999N0000001N9+00561+99999099441ADDGF106991999999999999999999
0029028360999991919051906004+67367+026650FM-12+018199999V0203601N005119999999N0000001N9+00441+99999099671ADDGF107991999999999999999999
0029028360999991919051913004+67367+026650FM-12+018199999V0203601N004119999999N0000001N9+00721+99999099861ADDGF106991999999999999999999
0029028360999991919051920004+67367+026650FM-12+018199999V0203601N001019999999N0000001N9+00501+99999099901ADDGF100991999999999999999999
0029028360999991919052006004+67367+026650FM-12+018199999V0209991C000019999999N0000001N9+00501+99999099991ADDGF103991999999999999999999
0029028360999991919052013004+67367+026650FM-12+018199999V0202701N004119999999N0000001N9+00891+99999100041ADDGF107991999999999999999999
0029028360999991919052020004+67367+026650FM-12+018199999V0209991C000019999999N0000001N9+00671+99999100061ADDGF106991999999999999999999
0029028360999991919052106004+67367+026650FM-12+018199999V0202901N002119999999N0000001N9+00671+99999100021ADDGF107991999999999999999999
0035028360999991919052113004+67367+026650FM-12+018199999V0202701N004119999999N0000001N9+01061+99999100121ADDGF106991999999999999999999MW1621
0029028360999991919052120004+67367+026650FM-12+018199999V0203601N002119999999N0000001N9+00781+99999100391ADDGF108991999999999999999999
0046028360999991919052206004+67367+026650FM-12+018199999V0203401N004119999999N0000001N9+00671+99999100871ADDAJ100009199999999GF103991999999999999999999
0029028360999991919052213004+67367+026650FM-12+018199999V0203401N004119999999N0000001N9+00891+99999100941ADDGF103991999999999999999999
0029028360999991919052220004+67367+026650FM-12+018199999V0209991C000019999999N0000001N9+00721+99999100921ADDGF103991999999999999999999
0046028360999991919052306004+67367+026650FM-12+018199999V0202501N006219999999N0000001N9+01171+99999100661ADDAJ100009199999999GF103991999999999999999999
0029028360999991919052313004+67367+026650FM-12+018199999V0202501N006219999999N0000001N9+01781+99999100441ADDGF102991999999999999999999
0029028360999991919052320004+67367+026650FM-12+018199999V0202001N007219999999N0000001N9+01281+99999100281ADDGF105991999999999999999999
0046028360999991919052406004+67367+026650FM-12+018199999V0202301N002119999999N0000001N9+01221+99999100161ADDAJ100009199999999GF107991999999999999999999
0029028360999991919052413004+67367+026650FM-12+018199999V0202701N003119999999N0000001N9+01941+99999100071ADDGF108991999999999999999999
0029028360999991919052420004+67367+026650FM-12+018199999V0202001N002119999999N0000001N9+01561+99999100021ADDGF106991999999999999999999
0046028360999991919052506004+67367+026650FM-12+018199999V0209991C000019999999N0000001N9+01221+99999099951ADDAJ100009199999999GF106991999999999999999999
0029028360999991919052513004+67367+026650FM-12+018199999V0202301N004119999999N0000001N9+02171+99999099781ADDGF100991999999999999999999
0029028360999991919052520004+67367+026650FM-12+018199999V0202001N004119999999N0000001N9+01441+99999099741ADDGF107991999999999999999999
0046028360999991919052606004+67367+026650FM-12+018199999V0202001N004119999999N0000001N9+01171+99999099361ADDAJ100009199999999GF103991999999999999999999
0029028360999991919052613004+67367+026650FM-12+018199999V0202501N007219999999N0000001N9+01891+99999099221ADDGF102991999999999999999999
0029028360999991919052620004+67367+026650FM-12+018199999V0209991C000019999999N0000001N9+01111+99999099081ADDGF107991999999999999999999
0046028360999991919052706004+67367+026650FM-12+018199999V0203201N006219999999N0000001N9+01111+99999098861ADDAJ100009199999999GF102991999999999999999999
0029028360999991919052713004+67367+026650FM-12+018199999V0203401N004119999999N0000001N9+00721+99999099191ADDGF108991999999999999999999
0029028360999991919052720004+67367+026650FM-12+018199999V0209991C000019999999N0000001N9+00391+99999099481ADDGF106991999999999999999999
0046028360999991919052806004+67367+026650FM-12+018199999V0203201N001019999999N0000001N9+00221+99999099521ADDAJ100009199999999GF102991999999999999999999
0029028360999991919052813004+67367+026650FM-12+018199999V0202001N004119999999N0000001N9+01111+99999099001ADDGF103991999999999999999999
0029028360999991919052820004+67367+026650FM-12+018199999V0209991C000019999999N0000001N9+00941+99999098711ADDGF108991999999999999999999
0046028360999991919052906004+67367+026650FM-12+018199999V0200701N001019999999N0000001N9+00891+99999098561ADDAJ100009199999999GF106991999999999999999999
0029028360999991919052913004+67367+026650FM-12+018199999V0200701N004119999999N0000001N9+01281+99999098621ADDGF107991999999999999999999
0029028360999991919052920004+67367+026650FM-12+018199999V0209991C000019999999N0000001N9+01061+99999098761ADDGF105991999999999999999999
0052028360999991919053006004+67367+026650FM-12+018199999V0209991C000019999999N0000001N9+00721+99999099031ADDAJ100009199999999GF108991999999999999999999MW1621
0029028360999991919053013004+67367+026650FM-12+018199999V0200501N002119999999N0000001N9+00941+99999099061ADDGF108991999999999999999999
0029028360999991919053020004+67367+026650FM-12+018199999V0209991C000019999999N0000001N9+01061+99999098821ADDGF106991999999999999999999
0046028360999991919053106004+67367+026650FM-12+018199999V0201801N004119999999N0000001N9+01111+99999098641ADDAJ100009199999999GF100991999999999999999999
0029028360999991919053113004+67367+026650FM-12+018199999V0201801N004119999999N0000001N9+01611+99999098341ADDGF106991999999999999999999
0029028360999991919053120004+67367+026650FM-12+018199999V0209991C000019999999N0000001N9+01111+99999098421ADDGF106991999999999999999999
0046028360999991919060106004+67367+026650FM-12+018199999V0209991C000019999999N0000001N9+01061+99999098421ADDAJ100009199999999GF107991999999999999999999
0029028360999991919060113004+67367+026650FM-12+018199999V0201601N002119999999N0000001N9+01441+99999098341ADDGF106991999999999999999999
0029028360999991919060120004+67367+026650FM-12+018199999V0209991C000019999999N0000001N9+01111+99999098361ADDGF103991999999999999999999
0046028360999991919060206004+67367+026650FM-12+018199999V0209991C000019999999N0000001N9+01281+99999098441ADDAJ100009199999999GF105991999999999999999999
0029028360999991919060213004+67367+026650FM-12+018199999V0200901N001019999999N0000001N9+01781+99999098541ADDGF107991999999999999999999
0035028360999991919060220004+67367+026650FM-12+018199999V0203601N005119999999N0000001N9+01501+99999098591ADDGF106991999999999999999999MW1621
0046028360999991919060306004+67367+026650FM-12+018199999V0200201N004119999999N0000001N9+00781+99999098981ADDAJ100009199999999GF108991999999999999999999
0029028360999991919060313004+67367+026650FM-12+018199999V0200201N007219999999N0000001N9+01171+99999099191ADDGF105991999999999999999999
0029028360999991919060320004+67367+026650FM-12+018199999V0200201N004119999999N0000001N9+00671+99999099341ADDGF108991999999999999999999
0052028360999991919060406004+67367+026650FM-12+018199999V0200501N006219999999N0000001N9+00391+99999099311ADDAJ100009199999999GF108991999999999999999999MW1621
0029028360999991919060413004+67367+026650FM-12+018199999V0200901N004119999999N0000001N9+00831+99999099201ADDGF108991999999999999999999
0035028360999991919060420004+67367+026650FM-12+018199999V0201101N002119999999N0000001N9+00721+99999099141ADDGF108991999999999999999999MW1621
0046028360999991919060506004+67367+026650FM-12+018199999V0201401N004119999999N0000001N9+00501+99999099081ADDAJ100009199999999GF108991999999999999999999
0029028360999991919060513004+67367+026650FM-12+018199999V0201101N002119999999N0000001N9+00831+99999099111ADDGF108991999999999999999999
0029028360999991919060520004+67367+026650FM-12+018199999V0201401N004119999999N0000001N9+00941+99999099111ADDGF102991999999999999999999
0052028360999991919060606004+67367+026650FM-12+018199999V0200901N002119999999N0000001N9+00501+99999098981ADDAJ100009199999999GF108991999999999999999999MW1621
0029028360999991919060613004+67367+026650FM-12+018199999V0201801N001019999999N0000001N9+00831+99999098791ADDGF108991999999999999999999
0029028360999991919060620004+67367+026650FM-12+018199999V0209991C000019999999N0000001N9+00891+99999099061ADDGF106991999999999999999999
0046028360999991919060706004+67367+026650FM-12+018199999V0201801N002119999999N0000001N9+01281+99999099361ADDAJ100009199999999GF102991999999999999999999
0029028360999991919060713004+67367+026650FM-12+018199999V0202001N001019999999N0000001N9+01781+99999099481ADDGF104991999999999999999999
0029028360999991919060720004+67367+026650FM-12+018199999V0202301N001019999999N0000001N9+01561+99999099641ADDGF101991999999999999999999
0046028360999991919060806004+67367+026650FM-12+018199999V0202301N002119999999N0000001N9+01671+99999099991ADDAJ100009199999999GF100991999999999999999999
0029028360999991919060813004+67367+026650FM-12+018199999V0202001N005119999999N0000001N9+02171+99999099881ADDGF103991999999999999999999
0029028360999991919060820004+67367+026650FM-12+018199999V0201801N001019999999N0000001N9+02001+99999099481ADDGF106991999999999999999999
0052028360999991919060906004+67367+026650FM-12+018199999V0201601N002119999999N0000001N9+01171+99999099321ADDAJ100009199999999GF108991999999999999999999MW1621
0029028360999991919060913004+67367+026650FM-12+018199999V0202001N005119999999N0000001N9+01611+99999099241ADDGF108991999999999999999999
0029028360999991919060920004+67367+026650FM-12+018199999V0202001N006219999999N0000001N9+01671+99999098921ADDGF106991999999999999999999
0046028360999991919061006004+67367+026650FM-12+018199999V0209991C000019999999N0000001N9+01221+99999098711ADDAJ100009199999999GF108991999999999999999999
0029028360999991919061013004+67367+026650FM-12+018199999V0202501N005119999999N0000001N9+01281+99999098711ADDGF103991999999999999999999
0029028360999991919061020004+67367+026650FM-12+018199999V0202501N005119999999N0000001N9+01441+99999098701ADDGF102991999999999999999999
0046028360999991919061106004+67367+026650FM-12+018199999V0202901N004119999999N0000001N9+01111+99999098951ADDAJ100009199999999GF102991999999999999999999
0029028360999991919061113004+67367+026650FM-12+018199999V0202501N004119999999N0000001N9+01561+99999098841ADDGF104991999999999999999999
0029028360999991919061120004+67367+026650FM-12+018199999V0209991C000019999999N0000001N9+00831+99999098791ADDGF106991999999999999999999
0046028360999991919061206004+67367+026650FM-12+018199999V0203201N006219999999N0000001N9+00721+99999098951ADDAJ100009199999999GF107991999999999999999999
0029028360999991919061213004+67367+026650FM-12+018199999V0203601N007219999999N0000001N9+01001+99999099381ADDGF107991999999999999999999
0029028360999991919061220004+67367+026650FM-12+018199999V0203601N005119999999N0000001N9+00721+99999099751ADDGF106991999999999999999999
0046028360999991919061306004+67367+026650FM-12+018199999V0203601N004119999999N0000001N9+00781+99999100201ADDAJ100009199999999GF106991999999999999999999
0029028360999991919061313004+67367+026650FM-12+018199999V0203401N004119999999N0000001N9+01441+99999099941ADDGF103991999999999999999999
0029028360999991919061320004+67367+026650FM-12+018199999V0200201N002119999999N0000001N9+01061+99999099861ADDGF101991999999999999999999
0046028360999991919061406004+67367+026650FM-12+018199999V0203601N006219999999N0000001N9+00611+99999099831ADDAJ100009199999999GF108991999999999999999999
0029028360999991919061413004+67367+026650FM-12+018199999V0200501N002119999999N0000001N9+01331+99999099661ADDGF106991999999999999999999
0029028360999991919061420004+67367+026650FM-12+018199999V0203601N004119999999N0000001N9+01171+99999099641ADDGF108991999999999999999999
0046028360999991919061506004+67367+026650FM-12+018199999V0203601N004119999999N0000001N9+00941+99999099641ADDAJ100009199999999GF104991999999999999999999
0029028360999991919061513004+67367+026650FM-12+018199999V0200701N002119999999N0000001N9+01331+99999099601ADDGF104991999999999999999999
0029028360999991919061520004+67367+026650FM-12+018199999V0200501N001019999999N0000001N9+01331+99999099551ADDGF102991999999999999999999
0046028360999991919061606004+67367+026650FM-12+018199999V0200201N004119999999N0000001N9+01061+99999099721ADDAJ100009199999999GF100991999999999999999999
0029028360999991919061613004+67367+026650FM-12+018199999V0200501N002119999999N0000001N9+01721+99999099591ADDGF101991999999999999999999
0029028360999991919061620004+67367+026650FM-12+018199999V0209991C000019999999N0000001N9+01331+99999099481ADDGF101991999999999999999999
0046028360999991919061706004+67367+026650FM-12+018199999V0209991C000019999999N0000001N9+01721+99999099461ADDAJ100009199999999GF100991999999999999999999
0029028360999991919061713004+67367+026650FM-12+018199999V0202001N005119999999N0000001N9+02171+99999099201ADDGF103991999999999999999999
0029028360999991919061720004+67367+026650FM-12+018199999V0209991C000019999999N0000001N9+01671+99999099111ADDGF106991999999999999999999
0046028360999991919061806004+67367+026650FM-12+018199999V0202501N002119999999N0000001N9+01111+99999099141ADDAJ100009199999999GF108991999999999999999999
0029028360999991919061813004+67367+026650FM-12+018199999V0203401N005119999999N0000001N9+01501+99999099321ADDGF103991999999999999999999
0029028360999991919061820004+67367+026650FM-12+018199999V0200201N003119999999N0000001N9+01001+99999099511ADDGF104991999999999999999999
0046028360999991919061906004+67367+026650FM-12+018199999V0200701N002119999999N0000001N9+01111+99999099351ADDAJ100009199999999GF106991999999999999999999
0029028360999991919061913004+67367+026650FM-12+018199999V0201401N002119999999N0000001N9+01781+99999098981ADDGF105991999999999999999999
0035028360999991919061920004+67367+026650FM-12+018199999V0201601N001019999999N0000001N9+01221+99999098511ADDGF108991999999999999999999MW1621
0046028360999991919062006004+67367+026650FM-12+018199999V0202501N006219999999N0000001N9+00941+99999098601ADDAJ100009199999999GF108991999999999999999999
0029028360999991919062013004+67367+026650FM-12+018199999V0209991C000019999999N0000001N9+01561+99999098721ADDGF106991999999999999999999
0029028360999991919062020004+67367+026650FM-12+018199999V0202301N002119999999N0000001N9+01111+99999098791ADDGF108991999999999999999999
0046028360999991919062106004+67367+026650FM-12+018199999V0209991C000019999999N0000001N9+01221+99999098721ADDAJ100009199999999GF108991999999999999999999
0029028360999991919062113004+67367+026650FM-12+018199999V0202001N004119999999N0000001N9+01561+99999098721ADDGF104991999999999999999999
0035028360999991919062120004+67367+026650FM-12+018199999V0203401N003119999999N0000001N9+01001+99999099061ADDGF107991999999999999999999MW1621
0046028360999991919062206004+67367+026650FM-12+018199999V0209991C000019999999N0000001N9+01331+99999099271ADDAJ100009199999999GF108991999999999999999999
0029028360999991919062213004+67367+026650FM-12+018199999V0201601N004119999999N0000001N9+01441+99999099221ADDGF108991999999999999999999
0029028360999991919062220004+67367+026650FM-12+018199999V0209991C000019999999N0000001N9+01221+99999099141ADDGF108991999999999999999999
0046028360999991919062306004+67367+026650FM-12+018199999V0209991C000019999999N0000001N9+01441+99999099271ADDAJ100009199999999GF106991999999999999999999
0029028360999991919062313004+67367+026650FM-12+018199999V0200701N002119999999N0000001N9+02001+99999099191ADDGF106991999999999999999999
0029028360999991919062320004+67367+026650FM-12+018199999V0200901N004119999999N0000001N9+01671+99999099081ADDGF108991999999999999999999
0046028360999991919062406004+67367+026650FM-12+018199999V0200901N004119999999N0000001N9+01331+99999099001ADDAJ100009199999999GF108991999999999999999999
0029028360999991919062413004+67367+026650FM-12+018199999V0200901N004119999999N0000001N9+01831+99999098761ADDGF106991999999999999999999
0029028360999991919062420004+67367+026650FM-12+018199999V0201101N004119999999N0000001N9+01781+99999098621ADDGF104991999999999999999999
0052028360999991919062506004+67367+026650FM-12+018199999V0200901N004119999999N0000001N9+01611+99999098471ADDAJ100009199999999GF104991999999999999999999MW1621
0035028360999991919062513004+67367+026650FM-12+018199999V0209991C000019999999N0000001N9+01561+99999098431ADDGF108991999999999999999999MW1621
0035028360999991919062520004+67367+026650FM-12+018199999V0201401N002119999999N0000001N9+01501+99999098561ADDGF108991999999999999999999MW1621
0046028360999991919062606004+67367+026650FM-12+018199999V0201801N002119999999N0000001N9+01501+99999099141ADDAJ100009199999999GF101991999999999999999999
0029028360999991919062613004+67367+026650FM-12+018199999V0201401N004119999999N0000001N9+02171+99999099111ADDGF104991999999999999999999
0029028360999991919062620004+67367+026650FM-12+018199999V0209991C000019999999N0000001N9+02001+99999099141ADDGF108991999999999999999999
0046028360999991919062706004+67367+026650FM-12+018199999V0201101N002119999999N0000001N9+01941+99999099141ADDAJ100009199999999GF103991999999999999999999
0035028360999991919062713004+67367+026650FM-12+018199999V0202001N004119999999N0000001N9+01561+99999099261ADDGF108991999999999999999999MW1621
0029028360999991919062720004+67367+026650FM-12+018199999V0201601N001019999999N0000001N9+01561+99999099221ADDGF103991999999999999999999
0046028360999991919062806004+67367+026650FM-12+018199999V0201601N006219999999N0000001N9+01501+99999099391ADDAJ100009199999999GF100991999999999999999999
0029028360999991919062813004+67367+026650FM-12+018199999V0202001N006219999999N0000001N9+02171+99999099401ADDGF103991999999999999999999
0029028360999991919062820004+67367+026650FM-12+018199999V0209991C000019999999N0000001N9+01941+99999099221ADDGF101991999999999999999999
0046028360999991919062906004+67367+026650FM-12+018199999V0200901N004119999999N0000001N9+02061+99999099271ADDAJ100009199999999GF100991999999999999999999
0029028360999991919062913004+67367+026650FM-12+018199999V0201101N007219999999N0000001N9+02611+99999099061ADDGF106991999999999999999999
0029028360999991919062920004+67367+026650FM-12+018199999V0201401N003119999999N0000001N9+02281+99999099061ADDGF100991999999999999999999
0046028360999991919063006004+67367+026650FM-12+018199999V0200901N001019999999N0000001N9+02061+99999099151ADDAJ100009199999999GF100991999999999999999999
0029028360999991919063013004+67367+026650FM-12+018199999V0200901N002119999999N0000001N9+02561+99999099061ADDGF101991999999999999999999
0029028360999991919063020004+67367+026650FM-12+018199999V0201101N001019999999N0000001N9+02171+99999099041ADDGF100991999999999999999999
0046028360999991919070106004+67367+026650FM-12+018199999V0209991C000019999999N0000001N9+01941+99999098951ADDAJ100009199999999GF100991999999999999999999
0029028360999991919070113004+67367+026650FM-12+018199999V0200901N002119999999N0000001N9+02721+99999098621ADDGF103991999999999999999999
0029028360999991919070120004+67367+026650FM-12+018199999V0209991C000019999999N0000001N9+01891+99999098711ADDGF100991999999999999999999
0046028360999991919070206004+67367+026650FM-12+018199999V0209991C000019999999N0000001N9+02001+99999098741ADDAJ100009199999999GF100991999999999999999999
0029028360999991919070213004+67367+026650FM-12+018199999V0202701N001019999999N0000001N9+02561+99999098631ADDGF103991999999999999999999
0029028360999991919070220004+67367+026650FM-12+018199999V0202501N004119999999N0000001N9+02111+99999098601ADDGF106991999999999999999999
0046028360999991919070306004+67367+026650FM-12+018199999V0202701N004119999999N0000001N9+02001+99999098581ADDAJ100009199999999GF100991999999999999999999
0029028360999991919070313004+67367+026650FM-12+018199999V0202901N005119999999N0000001N9+02501+99999098681ADDGF100991999999999999999999
0029028360999991919070320004+67367+026650FM-12+018199999V0203401N003119999999N0000001N9+01721+99999099031ADDGF100991999999999999999999
0046028360999991919070406004+67367+026650FM-12+018199999V0203401N006219999999N0000001N9+01111+99999099461ADDAJ100009199999999GF102991999999999999999999
0029028360999991919070413004+67367+026650FM-12+018199999V0200501N006219999999N0000001N9+01561+99999099591ADDGF100991999999999999999999
0029028360999991919070420004+67367+026650FM-12+018199999V0209991C000019999999N0000001N9+01281+99999099561ADDGF106991999999999999999999
0046028360999991919070506004+67367+026650FM-12+018199999V0200501N002119999999N0000001N9+01501+99999099441ADDAJ100009199999999GF104991999999999999999999
0029028360999991919070513004+67367+026650FM-12+018199999V0209991C000019999999N0000001N9+01441+99999099381ADDGF108991999999999999999999
0029028360999991919070520004+67367+026650FM-12+018199999V0200201N004119999999N0000001N9+01281+99999099431ADDGF106991999999999999999999
0046028360999991919070606004+67367+026650FM-12+018199999V0209991C000019999999N0000001N9+01281+99999099561ADDAJ100009199999999GF102991999999999999999999
0029028360999991919070613004+67367+026650FM-12+018199999V0202001N002119999999N0000001N9+01831+99999099391ADDGF108991999999999999999999
0029028360999991919070620004+67367+026650FM-12+018199999V0209991C000019999999N0000001N9+01671+99999099101ADDGF107991999999999999999999
0046028360999991919070706004+67367+026650FM-12+018199999V0209991C000019999999N0000001N9+01501+99999098901ADDAJ100009199999999GF108991999999999999999999
0029028360999991919070713004+67367+026650FM-12+018199999V0203401N005119999999N0000001N9+01721+99999098761ADDGF107991999999999999999999
0029028360999991919070720004+67367+026650FM-12+018199999V0209991C000019999999N0000001N9+01561+99999098911ADDGF102991999999999999999999
0046028360999991919070806004+67367+026650FM-12+018199999V0209991C000019999999N0000001N9+01281+99999099351ADDAJ100009199999999GF105991999999999999999999
0029028360999991919070813004+67367+026650FM-12+018199999V0202501N002119999999N0000001N9+02061+99999099241ADDGF103991999999999999999999
0029028360999991919070820004+67367+026650FM-12+018199999V0209991C000019999999N0000001N9+01721+99999099161ADDGF106991999999999999999999
0046028360999991919070906004+67367+026650FM-12+018199999V0202001N004119999999N0000001N9+02001+99999098941ADDAJ100009199999999GF100991999999999999999999
0029028360999991919070913004+67367+026650FM-12+018199999V0201801N003119999999N0000001N9+02671+99999098711ADDGF104991999999999999999999
0029028360999991919070920004+67367+026650FM-12+018199999V0202001N002119999999N0000001N9+02171+99999098621ADDGF102991999999999999999999
0046028360999991919071006004+67367+026650FM-12+018199999V0203401N006219999999N0000001N9+01671+99999099081ADDAJ100009199999999GF103991999999999999999999
0029028360999991919071013004+67367+026650FM-12+018199999V0203601N003119999999N0000001N9+02001+99999099041ADDGF102991999999999999999999
0029028360999991919071020004+67367+026650FM-12+018199999V0209991C000019999999N0000001N9+02001+99999098701ADDGF103991999999999999999999
0046028360999991919071106004+67367+026650FM-12+018199999V0202001N004119999999N0000001N9+02061+99999098471ADDAJ100009199999999GF101991999999999999999999
0029028360999991919071113004+67367+026650FM-12+018199999V0202701N002119999999N0000001N9+02061+99999098671ADDGF108991999999999999999999
0029028360999991919071120004+67367+026650FM-12+018199999V0209991C000019999999N0000001N9+01721+99999098541ADDGF106991999999999999999999
0046028360999991919071206004+67367+026650FM-12+018199999V0209991C000019999999N0000001N9+01941+99999098671ADDAJ100009199999999GF106991999999999999999999
0029028360999991919071213004+67367+026650FM-12+018199999V0201601N004119999999N0000001N9+02831+99999098581ADDGF103991999999999999999999
0029028360999991919071220004+67367+026650FM-12+018199999V0209991C000019999999N0000001N9+02111+99999098581ADDGF103991999999999999999999
0046028360999991919071306004+67367+026650FM-12+018199999V0201401N001019999999N0000001N9+01941+99999098681ADDAJ100009199999999GF107991999999999999999999
0029028360999991919071313004+67367+026650FM-12+018199999V0201601N005119999999N0000001N9+02671+99999098581ADDGF103991999999999999999999
0029028360999991919071320004+67367+026650FM-12+018199999V0202001N001019999999N0000001N9+02171+99999098671ADDGF106991999999999999999999
0046028360999991919071406004+67367+026650FM-12+018199999V0201801N002119999999N0000001N9+01941+99999098911ADDAJ100009199999999GF105991999999999999999999
0029028360999991919071413004+67367+026650FM-12+018199999V0202301N002119999999N0000001N9+02721+99999098841ADDGF104991999999999999999999
0029028360999991919071420004+67367+026650FM-12+018199999V0209991C000019999999N0000001N9+01941+99999099061ADDGF108991999999999999999999
0046028360999991919071506004+67367+026650FM-12+018199999V0203601N003119999999N0000001N9+01671+99999099201ADDAJ100009199999999GF108991999999999999999999
0029028360999991919071513004+67367+026650FM-12+018199999V0203601N006219999999N0000001N9+02061+99999099151ADDGF102991999999999999999999
0029028360999991919071520004+67367+026650FM-12+018199999V0200201N004119999999N0000001N9+01441+99999099081ADDGF108991999999999999999999
0046028360999991919071606004+67367+026650FM-12+018199999V0200701N001019999999N0000001N9+01391+99999099061ADDAJ100009199999999GF108991999999999999999999
0029028360999991919071613004+67367+026650FM-12+018199999V0203601N002119999999N0000001N9+02171+99999098961ADDGF102991999999999999999999
0029028360999991919071620004+67367+026650FM-12+018199999V0200201N001019999999N0000001N9+01941+99999099021ADDGF105991999999999999999999
0046028360999991919071706004+67367+026650FM-12+018199999V0203401N002119999999N0000001N9+01941+99999099101ADDAJ100009199999999GF102991999999999999999999
0029028360999991919071713004+67367+026650FM-12+018199999V0200701N003119999999N0000001N9+02561+99999099041ADDGF104991999999999999999999
0029028360999991919071720004+67367+026650FM-12+018199999V0203401N001019999999N0000001N9+02061+99999099141ADDGF102991999999999999999999
0046028360999991919071806004+67367+026650FM-12+018199999V0203401N002119999999N0000001N9+02001+99999099241ADDAJ100009199999999GF101991999999999999999999
0029028360999991919071813004+67367+026650FM-12+018199999V0201401N001019999999N0000001N9+02611+99999099191ADDGF106991999999999999999999
0029028360999991919071820004+67367+026650FM-12+018199999V0201101N001019999999N0000001N9+02001+99999099341ADDGF106991999999999999999999
0046028360999991919071906004+67367+026650FM-12+018199999V0201101N001019999999N0000001N9+01941+99999099671ADDAJ100009199999999GF107991999999999999999999
0029028360999991919071913004+67367+026650FM-12+018199999V0200901N005119999999N0000001N9+02281+99999099781ADDGF105991999999999999999999
0029028360999991919071920004+67367+026650FM-12+018199999V0200901N006219999999N0000001N9+01891+99999099721ADDGF106991999999999999999999
0046028360999991919072006004+67367+026650FM-12+018199999V0200901N003119999999N0000001N9+01561+99999100021ADDAJ100009199999999GF108991999999999999999999
0029028360999991919072013004+67367+026650FM-12+018199999V0201101N002119999999N0000001N9+02001+99999100031ADDGF106991999999999999999999
0029028360999991919072020004+67367+026650FM-12+018199999V0209991C000019999999N0000001N9+01721+99999099911ADDGF104991999999999999999999
0046028360999991919072106004+67367+026650FM-12+018199999V0201101N002119999999N0000001N9+01501+99999099961ADDAJ100009199999999GF101991999999999999999999
0029028360999991919072113004+67367+026650FM-12+018199999V0209991C000019999999N0000001N9+02221+99999099701ADDGF100991999999999999999999
0029028360999991919072120004+67367+026650FM-12+018199999V0209991C000019999999N0000001N9+01781+99999099471ADDGF102991999999999999999999
0046028360999991919072206004+67367+026650FM-12+018199999V0209991C000019999999N0000001N9+01721+99999099141ADDAJ100009199999999GF108991999999999999999999
0035028360999991919072213004+67367+026650FM-12+018199999V0209991C000019999999N0000001N9+01941+99999098921ADDGF108991999999999999999999MW1621
0029028360999991919072220004+67367+026650FM-12+018199999V0202901N001019999999N0000001N9+01671+99999098761ADDGF108991999999999999999999
0046028360999991919072306004+67367+026650FM-12+018199999V0203601N004119999999N0000001N9+01391+99999098741ADDAJ100009199999999GF101991999999999999999999
0029028360999991919072313004+67367+026650FM-12+018199999V0203601N005119999999N0000001N9+01501+99999098841ADDGF102991999999999999999999
0029028360999991919072320004+67367+026650FM-12+018199999V0209991C000019999999N0000001N9+01001+99999098871ADDGF104991999999999999999999
0046028360999991919072406004+67367+026650FM-12+018199999V0203601N003119999999N0000001N9+00781+99999099061ADDAJ100009199999999GF108991999999999999999999
0029028360999991919072413004+67367+026650FM-12+018199999V0203601N003119999999N0000001N9+01221+99999099071ADDGF106991999999999999999999
0029028360999991919072420004+67367+026650FM-12+018199999V0209991C000019999999N0000001N9+01001+99999099111ADDGF102991999999999999999999
0052028360999991919072506004+67367+026650FM-12+018199999V0203601N004119999999N0000001N9+00721+99999099141ADDAJ100009199999999GF108991999999999999999999MW1621
0029028360999991919072513004+67367+026650FM-12+018199999V0203201N004119999999N0000001N9+01221+99999099111ADDGF105991999999999999999999
0029028360999991919072520004+67367+026650FM-12+018199999V0203601N004119999999N0000001N9+00831+99999099221ADDGF106991999999999999999999
0046028360999991919072606004+67367+026650FM-12+018199999V0203601N002119999999N0000001N9+00721+99999099361ADDAJ100009199999999GF108991999999999999999999
0029028360999991919072613004+67367+026650FM-12+018199999V0203201N004119999999N0000001N9+01001+99999099341ADDGF108991999999999999999999
0029028360999991919072620004+67367+026650FM-12+018199999V0203201N001019999999N0000001N9+00941+99999099161ADDGF107991999999999999999999
0046028360999991919072706004+67367+026650FM-12+018199999V0203401N004119999999N0000001N9+00891+99999099241ADDAJ100009199999999GF108991999999999999999999
0029028360999991919072713004+67367+026650FM-12+018199999V0203201N002119999999N0000001N9+01111+99999099381ADDGF104991999999999999999999
0029028360999991919072720004+67367+026650FM-12+018199999V0203401N001019999999N0000001N9+01001+99999099301ADDGF105991999999999999999999
0046028360999991919072806004+67367+026650FM-12+018199999V0209991C000019999999N0000001N9+01221+99999099381ADDAJ100009199999999GF106991999999999999999999
0029028360999991919072813004+67367+026650FM-12+018199999V0201601N002119999999N0000001N9+01331+99999099321ADDGF106991999999999999999999
0029028360999991919072820004+67367+026650FM-12+018199999V0209991C000019999999N0000001N9+01001+99999099341ADDGF105991999999999999999999
0046028360999991919072906004+67367+026650FM-12+018199999V0201601N002119999999N0000001N9+01391+99999099031ADDAJ100009199999999GF100991999999999999999999
0029028360999991919072913004+67367+026650FM-12+018199999V0209991C000019999999N0000001N9+01671+99999098881ADDGF102991999999999999999999
0029028360999991919072920004+67367+026650FM-12+018199999V0201601N001019999999N0000001N9+01171+99999098661ADDGF102991999999999999999999
0046028360999991919073006004+67367+026650FM-12+018199999V0201601N003119999999N0000001N9+01501+99999098441ADDAJ100009199999999GF100991999999999999999999
0029028360999991919073013004+67367+026650FM-12+018199999V0202001N003119999999N0000001N9+01781+99999098311ADDGF106991999999999999999999
0029028360999991919073020004+67367+026650FM-12+018199999V0203601N002119999999N0000001N9+01281+99999098221ADDGF108991999999999999999999
0046028360999991919073106004+67367+026650FM-12+018199999V0209991C000019999999N0000001N9+01391+99999098311ADDAJ100009199999999GF106991999999999999999999
0029028360999991919073113004+67367+026650FM-12+018199999V0202701N003119999999N0000001N9+02001+99999098231ADDGF104991999999999999999999
0029028360999991919073120004+67367+026650FM-12+018199999V0202501N001019999999N0000001N9+01281+99999098191ADDGF106991999999999999999999
0046028360999991919080106004+67367+026650FM-12+018199999V0201801N004119999999N0000001N9+01561+99999098181ADDAJ100009199999999GF107991999999999999999999
0029028360999991919080113004+67367+026650FM-12+018199999V0201801N006219999999N0000001N9+02001+99999098021ADDGF103991999999999999999999
0029028360999991919080120004+67367+026650FM-12+018199999V0201601N005119999999N0000001N9+01611+99999097801ADDGF107991999999999999999999
0052028360999991919080206004+67367+026650FM-12+018199999V0201601N005119999999N0000001N9+01441+99999097631ADDAJ100009199999999GF108991999999999999999999MW1621
0035028360999991919080213004+67367+026650FM-12+018199999V0202001N002119999999N0000001N9+01331+99999097621ADDGF108991999999999999999999MW1621
0029028360999991919080220004+67367+026650FM-12+018199999V0209991C000019999999N0000001N9+01391+99999097591ADDGF107991999999999999999999
0046028360999991919080306004+67367+026650FM-12+018199999V0209991C000019999999N0000001N9+01331+99999097541ADDAJ100009199999999GF108991999999999999999999
0029028360999991919080313004+67367+026650FM-12+018199999V0209991C000019999999N0000001N9+01671+99999097511ADDGF106991999999999999999999
0029028360999991919080320004+67367+026650FM-12+018199999V0202901N001019999999N0000001N9+01441+99999097721ADDGF106991999999999999999999
0046028360999991919080406004+67367+026650FM-12+018199999V0202901N002119999999N0000001N9+01281+99999098081ADDAJ100009199999999GF108991999999999999999999
0029028360999991919080413004+67367+026650FM-12+018199999V0203601N004119999999N0000001N9+01671+99999098201ADDGF108991999999999999999999
0029028360999991919080420004+67367+026650FM-12+018199999V0200901N001019999999N0000001N9+01441+99999098281ADDGF107991999999999999999999
0046028360999991919080506004+67367+026650FM-12+018199999V0201401N001019999999N0000001N9+01281+99999098481ADDAJ100009199999999GF106991999999999999999999
0029028360999991919080513004+67367+026650FM-12+018199999V0209991C000019999999N0000001N9+01831+99999098321ADDGF105991999999999999999999
0029028360999991919080520004+67367+026650FM-12+018199999V0209991C000019999999N0000001N9+01441+99999098201ADDGF104991999999999999999999
0046028360999991919080606004+67367+026650FM-12+018199999V0209991C000019999999N0000001N9+01441+99999097911ADDAJ100009199999999GF107991999999999999999999
0029028360999991919080613004+67367+026650FM-12+018199999V0202701N001019999999N0000001N9+01781+99999097641ADDGF107991999999999999999999
0029028360999991919080620004+67367+026650FM-12+018199999V0209991C000019999999N0000001N9+01281+99999097471ADDGF106991999999999999999999
0046028360999991919080706004+67367+026650FM-12+018199999V0200201N001019999999N0000001N9+01281+99999097471ADDAJ100009199999999GF104991999999999999999999
0029028360999991919080713004+67367+026650FM-12+018199999V0203201N004119999999N0000001N9+01781+99999097581ADDGF106991999999999999999999
0029028360999991919080720004+67367+026650FM-12+018199999V0209991C000019999999N0000001N9+01171+99999097591ADDGF102991999999999999999999
0046028360999991919080806004+67367+026650FM-12+018199999V0202701N003119999999N0000001N9+01061+99999097821ADDAJ100009199999999GF101991999999999999999999
0029028360999991919080813004+67367+026650FM-12+018199999V0203201N004119999999N0000001N9+01671+99999097961ADDGF102991999999999999999999
0029028360999991919080820004+67367+026650FM-12+018199999V0209991C000019999999N0000001N9+01061+99999098071ADDGF104991999999999999999999
0046028360999991919080906004+67367+026650FM-12+018199999V0209991C000019999999N0000001N9+00941+99999098001ADDAJ100009199999999GF105991999999999999999999
0029028360999991919080913004+67367+026650FM-12+018199999V0200201N003119999999N0000001N9+01501+99999097841ADDGF108991999999999999999999
0029028360999991919080920004+67367+026650FM-12+018199999V0209991C000019999999N0000001N9+00941+99999097881ADDGF102991999999999999999999
0052028360999991919081006004+67367+026650FM-12+018199999V0203601N003119999999N0000001N9+00941+99999097911ADDAJ100009199999999GF108991999999999999999999MW1621
0029028360999991919081013004+67367+026650FM-12+018199999V0200201N002119999999N0000001N9+01281+99999097881ADDGF104991999999999999999999
0029028360999991919081020004+67367+026650FM-12+018199999V0200201N001019999999N0000001N9+00721+99999097721ADDGF107991999999999999999999
0046028360999991919081106004+67367+026650FM-12+018199999V0201101N002119999999N0000001N9+01061+99999097381ADDAJ100009199999999GF105991999999999999999999
0029028360999991919081113004+67367+026650FM-12+018199999V0200501N002119999999N0000001N9+01391+99999097301ADDGF107991999999999999999999
0029028360999991919081120004+67367+026650FM-12+018199999V0203601N004119999999N0000001N9+01001+99999097471ADDGF102991999999999999999999
0046028360999991919081206004+67367+026650FM-12+018199999V0203601N004119999999N0000001N9+00671+99999097721ADDAJ100009199999999GF108991999999999999999999
0029028360999991919081213004+67367+026650FM-12+018199999V0203601N008219999999N0000001N9+00941+99999097781ADDGF108991999999999999999999
0035028360999991919081220004+67367+026650FM-12+018199999V0203201N007219999999N0000001N9+00561+99999097641ADDGF108991999999999999999999MW1621
0052028360999991919081306004+67367+026650FM-12+018199999V0203201N006219999999N0000001N9+00561+99999097191ADDAJ100009199999999GF108991999999999999999999MW1621
0035028360999991919081313004+67367+026650FM-12+018199999V0203201N004119999999N0000001N9+00781+99999097031ADDGF108991999999999999999999MW1621
0035028360999991919081320004+67367+026650FM-12+018199999V0202701N001019999999N0000001N9+00781+99999096761ADDGF108991999999999999999999MW1621
0052028360999991919081406004+67367+026650FM-12+018199999V0209991C000019999999N0000001N9+00831+99999096471ADDAJ100009199999999GF108991999999999999999999MW1621
0029028360999991919081413004+67367+026650FM-12+018199999V0203601N007219999999N0000001N9+01281+99999096601ADDGF106991999999999999999999
0029028360999991919081420004+67367+026650FM-12+018199999V0203601N003119999999N0000001N9+00831+99999096681ADDGF104991999999999999999999
0052028360999991919081506004+67367+026650FM-12+018199999V0203601N005119999999N0000001N9+00831+99999097041ADDAJ100009199999999GF108991999999999999999999MW1621
0035028360999991919081513004+67367+026650FM-12+018199999V0203401N005119999999N0000001N9+01061+99999097641ADDGF108991999999999999999999MW1621
0029028360999991919081520004+67367+026650FM-12+018199999V0203601N002119999999N0000001N9+00891+99999097901ADDGF108991999999999999999999
0046028360999991919081606004+67367+026650FM-12+018199999V0203401N003119999999N0000001N9+00941+99999098501ADDAJ100009199999999GF108991999999999999999999
0029028360999991919081613004+67367+026650FM-12+018199999V0202901N001019999999N0000001N9+01111+99999098681ADDGF106991999999999999999999
0029028360999991919081620004+67367+026650FM-12+018199999V0209991C000019999999N0000001N9+00501+99999098791ADDGF102991999999999999999999
0046028360999991919081706004+67367+026650FM-12+018199999V0203201N003119999999N0000001N9+00671+99999098911ADDAJ100009199999999GF107991999999999999999999
0029028360999991919081713004+67367+026650FM-12+018199999V0203401N001019999999N0000001N9+01171+99999099001ADDGF106991999999999999999999
0029028360999991919081720004+67367+026650FM-12+018199999V0209991C000019999999N0000001N9+00391+99999099031ADDGF101991999999999999999999
0046028360999991919081806004+67367+026650FM-12+018199999V0209991C000019999999N0000001N9+00831+99999099001ADDAJ100009199999999GF101991999999999999999999
0029028360999991919081813004+67367+026650FM-12+018199999V0202501N002119999999N0000001N9+01671+99999098881ADDGF102991999999999999999999
0029028360999991919081820004+67367+026650FM-12+018199999V0202301N003119999999N0000001N9+01061+99999098581ADDGF100991999999999999999999
0046028360999991919081906004+67367+026650FM-12+018199999V0201401N003119999999N0000001N9+01001+99999098381ADDAJ100009199999999GF101991999999999999999999
0029028360999991919081913004+67367+026650FM-12+018199999V0200901N005119999999N0000001N9+01611+99999097991ADDGF102991999999999999999999
0029028360999991919081920004+67367+026650FM-12+018199999V0201101N003119999999N0000001N9+01221+99999097511ADDGF108991999999999999999999
0046028360999991919082006004+67367+026650FM-12+018199999V0200701N003119999999N0000001N9+01001+99999097311ADDAJ100009199999999GF107991999999999999999999
0035028360999991919082013004+67367+026650FM-12+018199999V0209991C000019999999N0000001N9+01171+99999097351ADDGF108991999999999999999999MW1621
0029028360999991919082020004+67367+026650FM-12+018199999V0203601N001019999999N0000001N9+01001+99999097481ADDGF107991999999999999999999
0046028360999991919082106004+67367+026650FM-12+018199999V0203401N003119999999N0000001N9+00831+99999097721ADDAJ100009199999999GF102991999999999999999999
0029028360999991919082113004+67367+026650FM-12+018199999V0200201N004119999999N0000001N9+01281+99999097901ADDGF107991999999999999999999
0029028360999991919082120004+67367+026650FM-12+018199999V0203601N001019999999N0000001N9+00891+99999098101ADDGF104991999999999999999999
0046028360999991919082206004+67367+026650FM-12+018199999V0203601N003119999999N0000001N9+00831+99999098081ADDAJ100009199999999GF108991999999999999999999
0029028360999991919082213004+67367+026650FM-12+018199999V0203601N005119999999N0000001N9+01221+99999098161ADDGF106991999999999999999999
0029028360999991919082220004+67367+026650FM-12+018199999V0203601N002119999999N0000001N9+00781+99999098201ADDGF106991999999999999999999
0052028360999991919082306004+67367+026650FM-12+018199999V0203201N003119999999N0000001N9+00611+99999097941ADDAJ100009199999999GF108991999999999999999999MW1621
0035028360999991919082313004+67367+026650FM-12+018199999V0203601N005119999999N0000001N9+01001+99999097831ADDGF108991999999999999999999MW1621
0029028360999991919082320004+67367+026650FM-12+018199999V0203201N002119999999N0000001N9+00941+99999097721ADDGF107991999999999999999999
0046028360999991919082406004+67367+026650FM-12+018199999V0203201N003119999999N0000001N9+00831+99999097541ADDAJ100009199999999GF108991999999999999999999
0029028360999991919082413004+67367+026650FM-12+018199999V0209991C000019999999N0000001N9+01111+99999097511ADDGF108991999999999999999999
0035028360999991919082420004+67367+026650FM-12+018199999V0203401N003119999999N0000001N9+00831+99999097631ADDGF108991999999999999999999MW1621
0046028360999991919082506004+67367+026650FM-12+018199999V0203401N005119999999N0000001N9+00561+99999097591ADDAJ100009199999999GF107991999999999999999999
0029028360999991919082513004+67367+026650FM-12+018199999V0203201N004119999999N0000001N9+00891+99999097621ADDGF108991999999999999999999
0035028360999991919082520004+67367+026650FM-12+018199999V0209991C000019999999N0000001N9+00721+99999097621ADDGF108991999999999999999999MW1621
0052028360999991919082606004+67367+026650FM-12+018199999V0203401N003119999999N0000001N9+00611+99999097591ADDAJ100009199999999GF108991999999999999999999MW1621
0029028360999991919082613004+67367+026650FM-12+018199999V0202901N003119999999N0000001N9+01171+99999097701ADDGF106991999999999999999999
0035028360999991919082620004+67367+026650FM-12+018199999V0209991C000019999999N0000001N9+00831+99999097751ADDGF108991999999999999999999MW1621
0052028360999991919082706004+67367+026650FM-12+018199999V0203401N003119999999N0000001N9+00781+99999098151ADDAJ100009199999999GF108991999999999999999999MW1621
0035028360999991919082713004+67367+026650FM-12+018199999V0200201N004119999999N0000001N9+01281+99999098421ADDGF105991999999999999999999MW1621
0035028360999991919082720004+67367+026650FM-12+018199999V0209991C000019999999N0000001N9+00441+99999098541ADDGF100991999999999999999999MW1621
0046028360999991919082806004+67367+026650FM-12+018199999V0209991C000019999999N0000001N9+00501+99999098981ADDAJ100009199999999GF102991999999999999999999
0029028360999991919082813004+67367+026650FM-12+018199999V0201401N004119999999N0000001N9+01441+99999098951ADDGF107991999999999999999999
0029028360999991919082820004+67367+026650FM-12+018199999V0201101N002119999999N0000001N9+01061+99999098831ADDGF107991999999999999999999
0052028360999991919082906004+67367+026650FM-12+018199999V0201401N003119999999N0000001N9+00941+99999098541ADDAJ100009199999999GF108991999999999999999999MW1621
0029028360999991919082913004+67367+026650FM-12+018199999V0201401N002119999999N0000001N9+01331+99999098581ADDGF106991999999999999999999
