0035028360999991920010106004+67367+026650FM-12+018199999V0201801N001019999999N0000001N9-01221+99999098001ADDGF108991999999999999999999MW1721
0035028360999991920010113004+67367+026650FM-12+018199999V0201601N001019999999N0000001N9-01221+99999097781ADDGF108991999999999999999999MW1721
0035028360999991920010120004+67367+026650FM-12+018199999V0201401N004119999999N0000001N9-01281+99999097431ADDGF108991999999999999999999MW1721
0035028360999991920010206004+67367+026650FM-12+018199999V0201401N002119999999N0000001N9-01171+99999096981ADDGF108991999999999999999999MW1721
0029028360999991920010213004+67367+026650FM-12+018199999V0201601N003119999999N0000001N9-01061+99999096901ADDGF108991999999999999999999
0035028360999991920010220004+67367+026650FM-12+018199999V0201401N002119999999N0000001N9-01001+99999096681ADDGF108991999999999999999999MW1721
0035028360999991920010306004+67367+026650FM-12+018199999V0209991C000019999999N0000001N9-00831+99999096301ADDGF108991999999999999999999MW1721
0029028360999991920010313004+67367+026650FM-12+018199999V0201801N002119999999N0000001N9-00561+99999096121ADDGF108991999999999999999999
0029028360999991920010320004+67367+026650FM-12+018199999V0202501N003119999999N0000001N9-00941+99999096341ADDGF108991999999999999999999
0029028360999991920010406004+67367+026650FM-12+018199999V0202501N006219999999N0000001N9-00721+99999096991ADDGF102991999999999999999999
0029028360999991920010413004+67367+026650FM-12+018199999V0209991C000019999999N0000001N9-00941+99999097721ADDGF101991999999999999999999
0029028360999991920010420004+67367+026650FM-12+018199999V0202901N002119999999N0000001N9-01111+99999098431ADDGF103991999999999999999999
0029028360999991920010506004+67367+026650FM-12+018199999V0209991C000019999999N0000001N9-01501+99999099071ADDGF100991999999999999999999
0029028360999991920010513004+67367+026650FM-12+018199999V0209991C000019999999N0000001N9-03061+99999099541ADDGF100991999999999999999999
0029028360999991920010520004+67367+026650FM-12+018199999V0209991C000019999999N0000001N9-03001+99999099581ADDGF108991999999999999999999
0029028360999991920010606004+67367+026650FM-12+018199999V0202001N001019999999N0000001N9-00721+99999098101ADDGF108991999999999999999999
0029028360999991920010613004+67367+026650FM-12+018199999V0209991C000019999999N0000001N9-00331+99999097621ADDGF108991999999999999999999
0029028360999991920010620004+67367+026650FM-12+018199999V0202301N004119999999N0000001N9-00331+99999097001ADDGF106991999999999999999999
0029028360999991920010706004+67367+026650FM-12+018199999V0202301N003119999999N0000001N9-00441+99999097241ADDGF104991999999999999999999
0029028360999991920010713004+67367+026650FM-12+018199999V0202001N005119999999N0000001N9-00221+99999096761ADDGF108991999999999999999999
0029028360999991920010720004+67367+026650FM-12+018199999V0202001N007219999999N0000001N9-00331+99999096151ADDGF108991999999999999999999
0029028360999991920010806004+67367+026650FM-12+018199999V0201601N006219999999N0000001N9-00281+99999095181ADDGF108991999999999999999999
0035028360999991920010813004+67367+026650FM-12+018199999V0201601N005119999999N0000001N9-00331+99999104162ADDGF108991999999999999999999MW1721
0035028360999991920010820004+67367+026650FM-12+018199999V0201101N007219999999N0000001N9-00391+99999103321ADDGF108991999999999999999999MW1721
0035028360999991920010906004+67367+026650FM-12+018199999V0209991C000019999999N0000001N9-00061+99999999999ADDGF108991999999999999999999MW1701
0035028360999991920010913004+67367+026650FM-12+018199999V0209991C000019999999N0000001N9-00501+99999999999ADDGF108991999999999999999999MW1701
0035028360999991920010920004+67367+026650FM-12+018199999V0202701N002119999999N0000001N9-00781+99999103431ADDGF108991999999999999999999MW1701
0029028360999991920011006004+67367+026650FM-12+018199999V0209991C000019999999N0000001N9-01171+99999103751ADDGF108991999999999999999999
0029028360999991920011013004+67367+026650FM-12+018199999V0209991C000019999999N0000001N9-01061+99999104201ADDGF103991999999999999999999
0029028360999991920011020004+67367+026650FM-12+018199999V0202301N004119999999N0000001N9-00891+99999104561ADDGF100991999999999999999999
0029028360999991920011106004+67367+026650FM-12+018199999V0202301N003119999999N0000001N9-00671+99999095192ADDGF108991999999999999999999
0029028360999991920011113004+67367+026650FM-12+018199999V0202301N002119999999N0000001N9-00831+99999095621ADDGF106991999999999999999999
0029028360999991920011120004+67367+026650FM-12+018199999V0209991C000019999999N0000001N9-01331+99999095991ADDGF103991999999999999999999
0029028360999991920011206004+67367+026650FM-12+018199999V0209991C000019999999N0000001N9-01501+99999096661ADDGF106991999999999999999999
0029028360999991920011213004+67367+026650FM-12+018199999V0209991C000019999999N0000001N9-01831+99999097041ADDGF100991999999999999999999
0029028360999991920011220004+67367+026650FM-12+018199999V0209991C000019999999N0000001N9-02221+99999097361ADDGF102991999999999999999999
0035028360999991920011306004+67367+026650FM-12+018199999V0209991C000019999999N0000001N9-03061+99999097671ADDGF103991999999999999999999MW1481
0035028360999991920011313004+67367+026650FM-12+018199999V0209991C000019999999N0000001N9-02171+99999097621ADDGF108991999999999999999999MW1701
0035028360999991920011320004+67367+026650FM-12+018199999V0209991C000019999999N0000001N9-01831+99999097431ADDGF108991999999999999999999MW1701
0035028360999991920011406004+67367+026650FM-12+018199999V0209991C000019999999N0000001N9-01611+99999097041ADDGF108991999999999999999999MW1481
0035028360999991920011413004+67367+026650FM-12+018199999V0209991C000019999999N0000001N9-01441+99999096981ADDGF108991999999999999999999MW1481
0035028360999991920011420004+67367+026650FM-12+018199999V0209991C000019999999N0000001N9-01721+99999097321ADDGF102991999999999999999999MW1481
0035028360999991920011506004+67367+026650FM-12+018199999V0202701N003119999999N0000001N9-00891+99999098181ADDGF103991999999999999999999MW1481
0035028360999991920011513004+67367+026650FM-12+018199999V0209991C000019999999N0000001N9-01391+99999098601ADDGF101991999999999999999999MW1481
0035028360999991920011520004+67367+026650FM-12+018199999V0209991C000019999999N0000001N9-03111+99999098901ADDGF100991999999999999999999MW1481
0029028360999991920011606004+67367+026650FM-12+018199999V0209991C000019999999N0000001N9-01831+99999098921ADDGF104991999999999999999999
0029028360999991920011613004+67367+026650FM-12+018199999V0209991C000019999999N0000001N9-01941+99999098591ADDGF108991999999999999999999
0029028360999991920011620004+67367+026650FM-12+018199999V0209991C000019999999N0000001N9-01331+99999097991ADDGF108991999999999999999999
0035028360999991920011706004+67367+026650FM-12+018199999V0201401N004119999999N0000001N9-01111+99999097751ADDGF108991999999999999999999MW1721
0029028360999991920011713004+67367+026650FM-12+018199999V0201401N003119999999N0000001N9-01061+99999097881ADDGF106991999999999999999999
0035028360999991920011720004+67367+026650FM-12+018199999V0201401N004119999999N0000001N9-01061+99999097831ADDGF108991999999999999999999MW1721
0035028360999991920011806004+67367+026650FM-12+018199999V0200901N003119999999N0000001N9-01111+99999097271ADDGF108991999999999999999999MW1721
0035028360999991920011813004+67367+026650FM-12+018199999V0201401N005119999999N0000001N9-01171+99999097351ADDGF108991999999999999999999MW1721
0035028360999991920011820004+67367+026650FM-12+018199999V0201401N004119999999N0000001N9-01441+99999097541ADDGF108991999999999999999999MW1721
0029028360999991920011906004+67367+026650FM-12+018199999V0201401N001019999999N0000001N9-01331+99999097401ADDGF107991999999999999999999
0029028360999991920011913004+67367+026650FM-12+018199999V0209991C000019999999N0000001N9-01441+99999097321ADDGF106991999999999999999999
0029028360999991920011920004+67367+026650FM-12+018199999V0209991C000019999999N0000001N9-02001+99999097191ADDGF108991999999999999999999
0029028360999991920012006004+67367+026650FM-12+018199999V0209991C000019999999N0000001N9-02941+99999097231ADDGF100991999999999999999999
0029028360999991920012013004+67367+026650FM-12+018199999V0209991C000019999999N0000001N9-03331+99999097471ADDGF102991999999999999999999
0029028360999991920012020004+67367+026650FM-12+018199999V0209991C000019999999N0000001N9-03441+99999097671ADDGF100991999999999999999999
0029028360999991920012106004+67367+026650FM-12+018199999V0209991C000019999999N0000001N9-02281+99999098001ADDGF108991999999999999999999
0029028360999991920012113004+67367+026650FM-12+018199999V0209991C000019999999N0000001N9-02171+99999098261ADDGF106991999999999999999999
0029028360999991920012120004+67367+026650FM-12+018199999V0209991C000019999999N0000001N9-01781+99999098661ADDGF106991999999999999999999
0029028360999991920012206004+67367+026650FM-12+018199999V0209991C000019999999N0000001N9-01781+99999099361ADDGF108991999999999999999999
0029028360999991920012213004+67367+026650FM-12+018199999V0201101N002119999999N0000001N9-01561+99999099911ADDGF108991999999999999999999
0029028360999991920012220004+67367+026650FM-12+018199999V0209991C000019999999N0000001N9-01781+99999100281ADDGF108991999999999999999999
0029028360999991920012306004+67367+026650FM-12+018199999V0201401N003119999999N0000001N9-01891+99999100701ADDGF108991999999999999999999
0029028360999991920012313004+67367+026650FM-12+018199999V0201601N003119999999N0000001N9-02221+99999100801ADDGF106991999999999999999999
0029028360999991920012320004+67367+026650FM-12+018199999V0201801N002119999999N0000001N9-02111+99999100741ADDGF106991999999999999999999
0035028360999991920012406004+67367+026650FM-12+018199999V0201401N003119999999N0000001N9-02111+99999100471ADDGF108991999999999999999999MW1721
0035028360999991920012413004+67367+026650FM-12+018199999V0202001N008219999999N0000001N9-01441+99999100231ADDGF108991999999999999999999MW1721
0035028360999991920012420004+67367+026650FM-12+018199999V0202001N009819999999N0000001N9-01281+99999099961ADDGF108991999999999999999999MW1721
0035028360999991920012506004+67367+026650FM-12+018199999V0202301N009819999999N0000001N9-01221+99999099551ADDGF108991999999999999999999MW1721
0035028360999991920012513004+67367+026650FM-12+018199999V0202301N011819999999N0000001N9-01171+99999099351ADDGF108991999999999999999999MW1721
0035028360999991920012520004+67367+026650FM-12+018199999V0202301N009819999999N0000001N9-01171+99999099461ADDGF108991999999999999999999MW1721
0029028360999991920012606004+67367+026650FM-12+018199999V0202301N004119999999N0000001N9-01061+99999100031ADDGF108991999999999999999999
0029028360999991920012613004+67367+026650FM-12+018199999V0201801N005119999999N0000001N9-01061+99999100391ADDGF108991999999999999999999
0029028360999991920012620004+67367+026650FM-12+018199999V0201801N004119999999N0000001N9-01001+99999100391ADDGF108991999999999999999999
0029028360999991920012706004+67367+026650FM-12+018199999V0201801N007219999999N0000001N9-01061+99999100621ADDGF108991999999999999999999
0029028360999991920012713004+67367+026650FM-12+018199999V0201801N005119999999N0000001N9-01331+99999100921ADDGF106991999999999999999999
0029028360999991920012720004+67367+026650FM-12+018199999V0201801N002119999999N0000001N9-01831+99999101201ADDGF100991999999999999999999
0029028360999991920012806004+67367+026650FM-12+018199999V0201801N006219999999N0000001N9-01721+99999101521ADDGF108991999999999999999999
0029028360999991920012813004+67367+026650FM-12+018199999V0202001N005119999999N0000001N9-01561+99999101671ADDGF106991999999999999999999
0029028360999991920012820004+67367+026650FM-12+018199999V0201801N002119999999N0000001N9-01501+99999101621ADDGF108991999999999999999999
0035028360999991920012906004+67367+026650FM-12+018199999V0202301N006219999999N0000001N9-01501+99999101621ADDGF108991999999999999999999MW1721
0029028360999991920012913004+67367+026650FM-12+018199999V0201801N003119999999N0000001N9-01561+99999101801ADDGF108991999999999999999999
0029028360999991920012920004+67367+026650FM-12+018199999V0201801N007219999999N0000001N9-02171+99999102071ADDGF108991999999999999999999
0029028360999991920013006004+67367+026650FM-12+018199999V0201801N002119999999N0000001N9-02331+99999102201ADDGF100991999999999999999999
0029028360999991920013013004+67367+026650FM-12+018199999V0201601N002119999999N0000001N9-02281+99999102231ADDGF100991999999999999999999
0029028360999991920013020004+67367+026650FM-12+018199999V0201601N003119999999N0000001N9-02331+99999101961ADDGF108991999999999999999999
0035028360999991920013106004+67367+026650FM-12+018199999V0201401N004119999999N0000001N9-01941+99999101441ADDGF108991999999999999999999MW1721
0035028360999991920013113004+67367+026650FM-12+018199999V0201601N003119999999N0000001N9-01671+99999101161ADDGF108991999999999999999999MW1721
0035028360999991920013120004+67367+026650FM-12+018199999V0201601N004119999999N0000001N9-01611+99999100961ADDGF108991999999999999999999MW1721
0035028360999991920020106004+67367+026650FM-12+018199999V0201801N006219999999N0000001N9-01441+99999100311ADDGF108991999999999999999999MW1721
0035028360999991920020113004+67367+026650FM-12+018199999V0201801N003119999999N0000001N9-01391+99999100121ADDGF108991999999999999999999MW1721
0029028360999991920020120004+67367+026650FM-12+018199999V0201801N006219999999N0000001N9-01281+99999099801ADDGF108991999999999999999999
0035028360999991920020206004+67367+026650FM-12+018199999V0201801N002119999999N0000001N9-01501+99999099181ADDGF108991999999999999999999MW1381
0035028360999991920020213004+67367+026650FM-12+018199999V0201101N007219999999N0000001N9-01441+99999098221ADDGF108991999999999999999999MW1721
0035028360999991920020220004+67367+026650FM-12+018199999V0201801N005119999999N0000001N9-00891+99999096981ADDGF108991999999999999999999MW1381
0035028360999991920020306004+67367+026650FM-12+018199999V0202301N008219999999N0000001N9-00111+99999096151ADDGF108991999999999999999999MW1381
0035028360999991920020313004+67367+026650FM-12+018199999V0202501N008219999999N0000001N9-00061+99999096071ADDGF102991999999999999999999MW1381
0035028360999991920020320004+67367+026650FM-12+018199999V0202701N006219999999N0000001N9-00171+99999096441ADDGF108991999999999999999999MW1381
0029028360999991920020406004+67367+026650FM-12+018199999V0209991C000019999999N0000001N9-01061+99999096841ADDGF101991999999999999999999
0029028360999991920020413004+67367+026650FM-12+018199999V0202901N002119999999N0000001N9-00671+99999096921ADDGF100991999999999999999999
0029028360999991920020420004+67367+026650FM-12+018199999V0202901N004119999999N0000001N9-00721+99999097161ADDGF100991999999999999999999
0029028360999991920020506004+67367+026650FM-12+018199999V0202901N002119999999N0000001N9-00671+99999098221ADDGF102991999999999999999999
0029028360999991920020513004+67367+026650FM-12+018199999V0202901N001019999999N0000001N9-00781+99999099021ADDGF103991999999999999999999
0029028360999991920020520004+67367+026650FM-12+018199999V0209991C000019999999N0000001N9-02111+99999099351ADDGF101991999999999999999999
0029028360999991920020606004+67367+026650FM-12+018199999V0209991C000019999999N0000001N9-00671+99999098631ADDGF108991999999999999999999
0029028360999991920020613004+67367+026650FM-12+018199999V0209991C000019999999N0000001N9-00671+99999099081ADDGF103991999999999999999999
0029028360999991920020620004+67367+026650FM-12+018199999V0202901N001019999999N0000001N9-00331+99999099911ADDGF107991999999999999999999
0029028360999991920020706004+67367+026650FM-12+018199999V0201801N003119999999N0000001N9-00941+99999100561ADDGF104991999999999999999999
0035028360999991920020713004+67367+026650FM-12+018199999V0202001N007219999999N0000001N9-00331+99999100391ADDGF108991999999999999999999MW1721
0029028360999991920020720004+67367+026650FM-12+018199999V0202001N004119999999N0000001N9-00441+99999099941ADDGF103991999999999999999999
0035028360999991920020806004+67367+026650FM-12+018199999V0202301N008219999999N0000001N9-00501+99999099381ADDGF106991999999999999999999MW1381
0035028360999991920020813004+67367+026650FM-12+018199999V0202301N005119999999N0000001N9-00501+99999098871ADDGF108991999999999999999999MW1381
0035028360999991920020820004+67367+026650FM-12+018199999V0202301N006219999999N0000001N9-00441+99999098351ADDGF108991999999999999999999MW1381
0035028360999991920020906004+67367+026650FM-12+018199999V0202301N006219999999N0000001N9-00501+99999097431ADDGF108991999999999999999999MW1381
0029028360999991920020913004+67367+026650FM-12+018199999V0202001N004119999999N0000001N9-00561+99999097021ADDGF103991999999999999999999
0029028360999991920020920004+67367+026650FM-12+018199999V0209991C000019999999N0000001N9-01721+99999096991ADDGF100991999999999999999999
0029028360999991920021006004+67367+026650FM-12+018199999V0209991C000019999999N0000001N9-01781+99999097521ADDGF100991999999999999999999
0035028360999991920021013004+67367+026650FM-12+018199999V0201601N002119999999N0000001N9-00941+99999097261ADDGF108991999999999999999999MW1481
0035028360999991920021020004+67367+026650FM-12+018199999V0201401N008219999999N0000001N9-00611+99999096281ADDGF108991999999999999999999MW1721
0035028360999991920021106004+67367+026650FM-12+018199999V0201601N007219999999N0000001N9-00221+99999104842ADDGF108991999999999999999999MW1721
0035028360999991920021113004+67367+026650FM-12+018199999V0201401N002119999999N0000001N9-00281+99999104241ADDGF108991999999999999999999MW1721
0035028360999991920021120004+67367+026650FM-12+018199999V0202301N005119999999N0000001N9-00281+99999104471ADDGF108991999999999999999999MW1721
0029028360999991920021206004+67367+026650FM-12+018199999V0202301N004119999999N0000001N9-00281+99999095422ADDGF108991999999999999999999
0029028360999991920021213004+67367+026650FM-12+018199999V0202301N004119999999N0000001N9-00391+99999096141ADDGF103991999999999999999999
0029028360999991920021220004+67367+026650FM-12+018199999V0202301N002119999999N0000001N9-00441+99999097351ADDGF100991999999999999999999
0035028360999991920021306004+67367+026650FM-12+018199999V0209991C000019999999N0000001N9-01941+99999098471ADDGF106991999999999999999999MW1381
0035028360999991920021313004+67367+026650FM-12+018199999V0209991C000019999999N0000001N9-00941+99999098841ADDGF100991999999999999999999MW1721
0035028360999991920021320004+67367+026650FM-12+018199999V0202701N003119999999N0000001N9-01281+99999098901ADDGF108991999999999999999999MW1721
0035028360999991920021406004+67367+026650FM-12+018199999V0202001N008719999999N0000001N9-00561+99999097981ADDGF108991999999999999999999MW1381
0035028360999991920021413004+67367+026650FM-12+018199999V0202301N008219999999N0000001N9-00221+99999097781ADDGF108991999999999999999999MW1721
0035028360999991920021420004+67367+026650FM-12+018199999V0202301N008219999999N0000001N9-00221+99999097861ADDGF108991999999999999999999MW1721
0029028360999991920021506004+67367+026650FM-12+018199999V0201401N005119999999N0000001N9-00331+99999097781ADDGF108991999999999999999999
0029028360999991920021513004+67367+026650FM-12+018199999V0201801N004119999999N0000001N9-00561+99999097961ADDGF108991999999999999999999
0035028360999991920021520004+67367+026650FM-12+018199999V0202301N005119999999N0000001N9-00441+99999098521ADDGF108991999999999999999999MW1721
0029028360999991920021606004+67367+026650FM-12+018199999V0209991C000019999999N0000001N9-02391+99999099881ADDGF102991999999999999999999
0029028360999991920021613004+67367+026650FM-12+018199999V0209991C000019999999N0000001N9-01111+99999099831ADDGF108991999999999999999999
0035028360999991920021620004+67367+026650FM-12+018199999V0202301N004119999999N0000001N9-00671+99999099311ADDGF108991999999999999999999MW1721
0029028360999991920021706004+67367+026650FM-12+018199999V0202301N004119999999N0000001N9-00441+99999098661ADDGF108991999999999999999999
0035028360999991920021713004+67367+026650FM-12+018199999V0202301N002119999999N0000001N9-00221+99999098761ADDGF108991999999999999999999MW1721
0035028360999991920021720004+67367+026650FM-12+018199999V0209991C000019999999N0000001N9-00221+99999098481ADDGF108991999999999999999999MW1721
0029028360999991920021806004+67367+026650FM-12+018199999V0209991C000019999999N0000001N9-00611+99999098981ADDGF108991999999999999999999
0029028360999991920021813004+67367+026650FM-12+018199999V0203601N002119999999N0000001N9-00781+99999099161ADDGF108991999999999999999999
0035028360999991920021820004+67367+026650FM-12+018199999V0203601N004119999999N0000001N9-01171+99999099161ADDGF108991999999999999999999MW1701
0035028360999991920021906004+67367+026650FM-12+018199999V0203601N001019999999N0000001N9-01221+99999099121ADDGF108991999999999999999999MW1721
0029028360999991920021913004+67367+026650FM-12+018199999V0209991C000019999999N0000001N9-01001+99999099041ADDGF102991999999999999999999
0029028360999991920021920004+67367+026650FM-12+018199999V0209991C000019999999N0000001N9-02501+99999098981ADDGF102991999999999999999999
0029028360999991920022006004+67367+026650FM-12+018199999V0203401N002119999999N0000001N9-01061+99999099791ADDGF101991999999999999999999
0029028360999991920022013004+67367+026650FM-12+018199999V0203401N002119999999N0000001N9-00831+99999100421ADDGF101991999999999999999999
0029028360999991920022020004+67367+026650FM-12+018199999V0209991C000019999999N0000001N9-02561+99999100441ADDGF100991999999999999999999
0029028360999991920022106004+67367+026650FM-12+018199999V0202001N002119999999N0000001N9-01281+99999099801ADDGF108991999999999999999999
0029028360999991920022113004+67367+026650FM-12+018199999V0202301N003119999999N0000001N9-00941+99999099361ADDGF102991999999999999999999
0035028360999991920022120004+67367+026650FM-12+018199999V0202301N009819999999N0000001N9-00781+99999098551ADDGF108991999999999999999999MW1721
0029028360999991920022206004+67367+026650FM-12+018199999V0202501N005119999999N0000001N9-00831+99999097881ADDGF108991999999999999999999
0029028360999991920022213004+67367+026650FM-12+018199999V0202001N004119999999N0000001N9-00781+99999097641ADDGF100991999999999999999999
0035028360999991920022220004+67367+026650FM-12+018199999V0202301N004119999999N0000001N9-00611+99999096201ADDGF108991999999999999999999MW1721
0035028360999991920022306004+67367+026650FM-12+018199999V0202701N004119999999N0000001N9-00061+99999095241ADDGF107991999999999999999999MW1381
0035028360999991920022313004+67367+026650FM-12+018199999V0203201N007219999999N0000001N9+00001+99999095711ADDGF106991999999999999999999MW1381
0029028360999991920022320004+67367+026650FM-12+018199999V0203201N004119999999N0000001N9-00331+99999096311ADDGF100991999999999999999999
0035028360999991920022406004+67367+026650FM-12+018199999V0202901N007219999999N0000001N9-00171+99999097381ADDGF108991999999999999999999MW1381
0035028360999991920022413004+67367+026650FM-12+018199999V0202901N006219999999N0000001N9-00281+99999097941ADDGF100991999999999999999999MW1381
0035028360999991920022420004+67367+026650FM-12+018199999V0202901N006219999999N0000001N9-00501+99999098391ADDGF100991999999999999999999MW1381
0029028360999991920022506004+67367+026650FM-12+018199999V0202701N004119999999N0000001N9-00891+99999098821ADDGF104991999999999999999999
0029028360999991920022513004+67367+026650FM-12+018199999V0202701N002119999999N0000001N9-00561+99999098681ADDGF100991999999999999999999
0035028360999991920022520004+67367+026650FM-12+018199999V0202301N003119999999N0000001N9-00781+99999097831ADDGF108991999999999999999999MW1721
0029028360999991920022606004+67367+026650FM-12+018199999V0202901N002119999999N0000001N9-01061+99999097351ADDGF102991999999999999999999
0029028360999991920022613004+67367+026650FM-12+018199999V0202901N001019999999N0000001N9-00941+99999098151ADDGF102991999999999999999999
0029028360999991920022620004+67367+026650FM-12+018199999V0209991C000019999999N0000001N9-02561+99999097991ADDGF100991999999999999999999
0029028360999991920022706004+67367+026650FM-12+018199999V0209991C000019999999N0000001N9-02281+99999097661ADDGF108991999999999999999999
0029028360999991920022713004+67367+026650FM-12+018199999V0209991C000019999999N0000001N9-01441+99999097641ADDGF108991999999999999999999
0029028360999991920022720004+67367+026650FM-12+018199999V0209991C000019999999N0000001N9-01331+99999098101ADDGF108991999999999999999999
0029028360999991920022806004+67367+026650FM-12+018199999V0209991C000019999999N0000001N9-02611+99999098921ADDGF100991999999999999999999
0029028360999991920022813004+67367+026650FM-12+018199999V0209991C000019999999N0000001N9-01391+99999099001ADDGF108991999999999999999999
0029028360999991920022820004+67367+026650FM-12+018199999V0209991C000019999999N0000001N9-01831+99999098881ADDGF108991999999999999999999
0029028360999991920022906004+67367+026650FM-12+018199999V0201801N006219999999N0000001N9-01001+99999097541ADDGF108991999999999999999999
0035028360999991920022913004+67367+026650FM-12+018199999V0201801N008219999999N0000001N9-00781+99999096071ADDGF108991999999999999999999MW1721
0029028360999991920022920004+67367+026650FM-12+018199999V0201801N005119999999N0000001N9-00671+99999095391ADDGF108991999999999999999999
0029028360999991920030106004+67367+026650FM-12+018199999V0202701N002119999999N0000001N9-00061+99999095511ADDGF102991999999999999999999
0029028360999991920030113004+67367+026650FM-12+018199999V0202701N002119999999N0000001N9-00061+99999096281ADDGF102991999999999999999999
0029028360999991920030120004+67367+026650FM-12+018199999V0209991C000019999999N0000001N9-00221+99999096681ADDGF106991999999999999999999
0029028360999991920030206004+67367+026650FM-12+018199999V0209991C000019999999N0000001N9-01501+99999097401ADDGF102991999999999999999999
0029028360999991920030213004+67367+026650FM-12+018199999V0209991C000019999999N0000001N9-00281+99999097431ADDGF106991999999999999999999
0029028360999991920030220004+67367+026650FM-12+018199999V0209991C000019999999N0000001N9-00831+99999097071ADDGF102991999999999999999999
0029028360999991920030306004+67367+026650FM-12+018199999V0202701N003119999999N0000001N9-00831+99999096841ADDGF101991999999999999999999
0029028360999991920030313004+67367+026650FM-12+018199999V0202501N001019999999N0000001N9-00281+99999096911ADDGF100991999999999999999999
0029028360999991920030320004+67367+026650FM-12+018199999V0209991C000019999999N0000001N9-00721+99999095801ADDGF108991999999999999999999
0029028360999991920030406004+67367+026650FM-12+018199999V0202501N002119999999N0000001N9-00391+99999104001ADDGF106991999999999999999999
0035028360999991920030413004+67367+026650FM-12+018199999V0202901N005119999999N0000001N9-00281+99999104201ADDGF108991999999999999999999MW1381
0035028360999991920030420004+67367+026650FM-12+018199999V0209991C000019999999N0000001N9-00501+99999104801ADDGF102991999999999999999999MW1381
0029028360999991920030506004+67367+026650FM-12+018199999V0209991C000019999999N0000001N9-00611+99999096502ADDGF101991999999999999999999
0029028360999991920030513004+67367+026650FM-12+018199999V0202301N001019999999N0000001N9-00111+99999096821ADDGF100991999999999999999999
0029028360999991920030520004+67367+026650FM-12+018199999V0209991C000019999999N0000001N9-00671+99999096661ADDGF102991999999999999999999
0029028360999991920030606004+67367+026650FM-12+018199999V0202301N001019999999N0000001N9-01111+99999096551ADDGF106991999999999999999999
0029028360999991920030613004+67367+026650FM-12+018199999V0202301N001019999999N0000001N9-00561+99999096821ADDGF102991999999999999999999
0029028360999991920030620004+67367+026650FM-12+018199999V0209991C000019999999N0000001N9-02221+99999097111ADDGF102991999999999999999999
0035028360999991920030706004+67367+026650FM-12+018199999V0201601N003119999999N0000001N9-00781+99999096751ADDGF108991999999999999999999MW1721
0035028360999991920030713004+67367+026650FM-12+018199999V0201801N003119999999N0000001N9+00061+99999096311ADDGF108991999999999999999999MW1621
0035028360999991920030720004+67367+026650FM-12+018199999V0201401N002119999999N0000001N9+00221+99999095381ADDGF108991999999999999999999MW1621
0029028360999991920030806004+67367+026650FM-12+018199999V0202301N009819999999N0000001N9+00061+99999103962ADDGF108991999999999999999999
0035028360999991920030813004+67367+026650FM-12+018199999V0202001N006219999999N0000001N9-00171+99999103591ADDGF108991999999999999999999MW1721
0054028360999991920030820004+67367+026650FM-12+018199999V0202701N014919999999N0000001N9-00171+99999999999ADDGF107991999999999999999999MW1381EQDQ01 095073APOSLP
0029028360999991920030906004+67367+026650FM-12+018199999V0202901N002119999999N0000001N9-00721+99999097191ADDGF102991999999999999999999
0029028360999991920030913004+67367+026650FM-12+018199999V0202701N003119999999N0000001N9-00441+99999098021ADDGF101991999999999999999999
0029028360999991920030920004+67367+026650FM-12+018199999V0202701N002119999999N0000001N9-00721+99999098191ADDGF100991999999999999999999
0029028360999991920031006004+67367+026650FM-12+018199999V0202301N003119999999N0000001N9-00441+99999097911ADDGF108991999999999999999999
0029028360999991920031013004+67367+026650FM-12+018199999V0202701N003119999999N0000001N9+00061+99999098061ADDGF106991999999999999999999
0029028360999991920031020004+67367+026650FM-12+018199999V0202701N002119999999N0000001N9-00061+99999099001ADDGF100991999999999999999999
0029028360999991920031106004+67367+026650FM-12+018199999V0209991C000019999999N0000001N9-00611+99999099461ADDGF104991999999999999999999
0029028360999991920031113004+67367+026650FM-12+018199999V0201801N003119999999N0000001N9+00441+99999099541ADDGF100991999999999999999999
0029028360999991920031120004+67367+026650FM-12+018199999V0202301N004119999999N0000001N9-00061+99999099791ADDGF101991999999999999999999
0029028360999991920031206004+67367+026650FM-12+018199999V0202501N001019999999N0000001N9-00221+99999100311ADDGF108991999999999999999999
0035028360999991920031213004+67367+026650FM-12+018199999V0201801N001019999999N0000001N9+00001+99999100301ADDGF108991999999999999999999MW1721
0029028360999991920031220004+67367+026650FM-12+018199999V0202701N002119999999N0000001N9-00061+99999100111ADDGF108991999999999999999999
0029028360999991920031306004+67367+026650FM-12+018199999V0201801N003119999999N0000001N9-00331+99999099861ADDGF108991999999999999999999
0029028360999991920031313004+67367+026650FM-12+018199999V0202301N007219999999N0000001N9+00001+99999099671ADDGF106991999999999999999999
0029028360999991920031320004+67367+026650FM-12+018199999V0202301N008219999999N0000001N9-00331+99999099501ADDGF108991999999999999999999
0035028360999991920031406004+67367+026650FM-12+018199999V0202001N004119999999N0000001N9-00331+99999099271ADDGF108991999999999999999999MW1701
0035028360999991920031413004+67367+026650FM-12+018199999V0202001N005119999999N0000001N9-00221+99999099241ADDGF108991999999999999999999MW1701
0035028360999991920031420004+67367+026650FM-12+018199999V0202301N004119999999N0000001N9-00221+99999099301ADDGF108991999999999999999999MW1701
0035028360999991920031506004+67367+026650FM-12+018199999V0202301N006219999999N0000001N9-00331+99999099581ADDGF108991999999999999999999MW1701
0035028360999991920031513004+67367+026650FM-12+018199999V0202301N006219999999N0000001N9-00281+99999099991ADDGF108991999999999999999999MW1701
0029028360999991920031520004+67367+026650FM-12+018199999V0209991C000019999999N0000001N9-00721+99999100061ADDGF100991999999999999999999
0029028360999991920031606004+67367+026650FM-12+018199999V0201801N003119999999N0000001N9-01331+99999100101ADDGF100991999999999999999999
0029028360999991920031613004+67367+026650FM-12+018199999V0201801N004119999999N0000001N9-00061+99999099881ADDGF102991999999999999999999
0029028360999991920031620004+67367+026650FM-12+018199999V0209991C000019999999N0000001N9-01061+99999099511ADDGF100991999999999999999999
0029028360999991920031706004+67367+026650FM-12+018199999V0201401N002119999999N0000001N9-00781+99999098791ADDGF108991999999999999999999
0029028360999991920031713004+67367+026650FM-12+018199999V0201601N004119999999N0000001N9-00331+99999098111ADDGF108991999999999999999999
0035028360999991920031720004+67367+026650FM-12+018199999V0201401N004119999999N0000001N9-00331+99999097281ADDGF106991999999999999999999MW1861
0035028360999991920031806004+67367+026650FM-12+018199999V0201801N006219999999N0000001N9+00001+99999096681ADDGF108991999999999999999999MW1721
0035028360999991920031813004+67367+026650FM-12+018199999V0201601N004119999999N0000001N9+00111+99999096421ADDGF108991999999999999999999MW1721
0035028360999991920031820004+67367+026650FM-12+018199999V0200901N006219999999N0000001N9-00171+99999095591ADDGF108991999999999999999999MW1861
0054028360999991920031906004+67367+026650FM-12+018199999V0209991C000019999999N0000001N9-00111+99999999999ADDGF108991999999999999999999MW1721EQDQ01 104683APOSLP
0035028360999991920031913004+67367+026650FM-12+018199999V0203201N003119999999N0000001N9-00061+99999095161ADDGF108991999999999999999999MW1721
0035028360999991920031920004+67367+026650FM-12+018199999V0200501N002119999999N0000001N9-00171+99999096071ADDGF106991999999999999999999MW1721
0029028360999991920032006004+67367+026650FM-12+018199999V0202701N004119999999N0000001N9-00561+99999097261ADDGF102991999999999999999999
0029028360999991920032013004+67367+026650FM-12+018199999V0202501N006219999999N0000001N9+00061+99999097621ADDGF101991999999999999999999
0029028360999991920032020004+67367+026650FM-12+018199999V0209991C000019999999N0000001N9-00671+99999097471ADDGF100991999999999999999999
0029028360999991920032106004+67367+026650FM-12+018199999V0201801N002119999999N0000001N9-00891+99999097621ADDGF106991999999999999999999
0029028360999991920032113004+67367+026650FM-12+018199999V0202701N003119999999N0000001N9-00061+99999098341ADDGF102991999999999999999999
0029028360999991920032120004+67367+026650FM-12+018199999V0202701N001019999999N0000001N9-00671+99999098641ADDGF102991999999999999999999
0029028360999991920032206004+67367+026650FM-12+018199999V0201801N002119999999N0000001N9-00111+99999098221ADDGF108991999999999999999999
0029028360999991920032213004+67367+026650FM-12+018199999V0202301N005119999999N0000001N9+00561+99999097781ADDGF106991999999999999999999
0029028360999991920032220004+67367+026650FM-12+018199999V0202701N008719999999N0000001N9+00391+99999097381ADDGF100991999999999999999999
0029028360999991920032306004+67367+026650FM-12+018199999V0202701N007219999999N0000001N9-00171+99999098271ADDGF100991999999999999999999
0029028360999991920032313004+67367+026650FM-12+018199999V0202701N009819999999N0000001N9+00331+99999098681ADDGF106991999999999999999999
0029028360999991920032320004+67367+026650FM-12+018199999V0209991C000019999999N0000001N9+00061+99999099221ADDGF101991999999999999999999
0029028360999991920032406004+67367+026650FM-12+018199999V0201801N002119999999N0000001N9-00721+99999099401ADDGF101991999999999999999999
0029028360999991920032413004+67367+026650FM-12+018199999V0202001N003119999999N0000001N9+00561+99999099201ADDGF102991999999999999999999
0029028360999991920032420004+67367+026650FM-12+018199999V0201801N002119999999N0000001N9-00171+99999099081ADDGF101991999999999999999999
0029028360999991920032506004+67367+026650FM-12+018199999V0202301N002119999999N0000001N9-00111+99999098951ADDGF108991999999999999999999
0029028360999991920032513004+67367+026650FM-12+018199999V0202001N006219999999N0000001N9+00221+99999099161ADDGF108991999999999999999999
0029028360999991920032520004+67367+026650FM-12+018199999V0202301N002119999999N0000001N9+00001+99999099031ADDGF108991999999999999999999
0029028360999991920032606004+67367+026650FM-12+018199999V0201801N004119999999N0000001N9+00001+99999098901ADDGF108991999999999999999999
0029028360999991920032613004+67367+026650FM-12+018199999V0202301N003119999999N0000001N9+00171+99999099161ADDGF108991999999999999999999
0029028360999991920032620004+67367+026650FM-12+018199999V0202301N002119999999N0000001N9+00111+99999099041ADDGF108991999999999999999999
0029028360999991920032706004+67367+026650FM-12+018199999V0202001N006219999999N0000001N9+00061+99999099111ADDGF105991999999999999999999
0029028360999991920032713004+67367+026650FM-12+018199999V0202301N005119999999N0000001N9+00611+99999099191ADDGF101991999999999999999999
0029028360999991920032720004+67367+026650FM-12+018199999V0202001N004119999999N0000001N9+00221+99999099191ADDGF100991999999999999999999
0029028360999991920032806004+67367+026650FM-12+018199999V0201601N006219999999N0000001N9+00111+99999099151ADDGF105991999999999999999999
0029028360999991920032813004+67367+026650FM-12+018199999V0201801N007219999999N0000001N9+00441+99999099381ADDGF108991999999999999999999
0029028360999991920032820004+67367+026650FM-12+018199999V0202001N007219999999N0000001N9+00221+99999099561ADDGF108991999999999999999999
0029028360999991920032906004+67367+026650FM-12+018199999V0201801N007219999999N0000001N9+00171+99999099631ADDGF108991999999999999999999
0029028360999991920032913004+67367+026650FM-12+018199999V0202301N008719999999N0000001N9+00391+99999099671ADDGF108991999999999999999999
0029028360999991920032920004+67367+026650FM-12+018199999V0202301N008219999999N0000001N9+00501+99999099591ADDGF108991999999999999999999
0035028360999991920033006004+67367+026650FM-12+018199999V0202001N004119999999N0000001N9+00171+99999099861ADDGF108991999999999999999999MW1601
0029028360999991920033013004+67367+026650FM-12+018199999V0202001N003119999999N0000001N9+00111+99999100201ADDGF108991999999999999999999
0029028360999991920033020004+67367+026650FM-12+018199999V0202001N002119999999N0000001N9+00061+99999100341ADDGF108991999999999999999999
0029028360999991920033106004+67367+026650FM-12+018199999V0202301N005119999999N0000001N9+00061+99999100201ADDGF108991999999999999999999
0029028360999991920033113004+67367+026650FM-12+018199999V0202301N004119999999N0000001N9+00671+99999099991ADDGF105991999999999999999999
0029028360999991920033120004+67367+026650FM-12+018199999V0202301N002119999999N0000001N9+00221+99999100031ADDGF100991999999999999999999
0029028360999991920040106004+67367+026650FM-12+018199999V0201801N001019999999N0000001N9+00061+99999100101ADDGF108991999999999999999999
0029028360999991920040113004+67367+026650FM-12+018199999V0202701N003119999999N0000001N9+00611+99999099981ADDGF106991999999999999999999
0029028360999991920040120004+67367+026650FM-12+018199999V0202301N001019999999N0000001N9+00331+99999099881ADDGF108991999999999999999999
0029028360999991920040206004+67367+026650FM-12+018199999V0209991C000019999999N0000001N9-00171+99999099831ADDGF107991999999999999999999
0029028360999991920040213004+67367+026650FM-12+018199999V0202701N002119999999N0000001N9+00721+99999099671ADDGF103991999999999999999999
0029028360999991920040220004+67367+026650FM-12+018199999V0202701N001019999999N0000001N9+00171+99999099431ADDGF101991999999999999999999
0029028360999991920040306004+67367+026650FM-12+018199999V0203201N002119999999N0000001N9-00061+99999099111ADDGF100991999999999999999999
0029028360999991920040313004+67367+026650FM-12+018199999V0203601N002119999999N0000001N9+00501+99999099081ADDGF107991999999999999999999
0029028360999991920040320004+67367+026650FM-12+018199999V0209991C000019999999N0000001N9+00171+99999099031ADDGF108991999999999999999999
0029028360999991920040406004+67367+026650FM-12+018199999V0200901N004119999999N0000001N9-00221+99999099041ADDGF108991999999999999999999
0029028360999991920040413004+67367+026650FM-12+018199999V0200901N002119999999N0000001N9+00221+99999099111ADDGF105991999999999999999999
0029028360999991920040420004+67367+026650FM-12+018199999V0209991C000019999999N0000001N9-00561+99999099101ADDGF100991999999999999999999
0029028360999991920040506004+67367+026650FM-12+018199999V0201801N001019999999N0000001N9-00221+99999098671ADDGF108991999999999999999999
0029028360999991920040513004+67367+026650FM-12+018199999V0202701N003119999999N0000001N9+00331+99999098481ADDGF107991999999999999999999
0029028360999991920040520004+67367+026650FM-12+018199999V0209991C000019999999N0000001N9+00111+99999098671ADDGF106991999999999999999999
0029028360999991920040606004+67367+026650FM-12+018199999V0201101N001019999999N0000001N9-00111+99999099001ADDGF108991999999999999999999
0029028360999991920040613004+67367+026650FM-12+018199999V0200901N002119999999N0000001N9+00221+99999099271ADDGF107991999999999999999999
0035028360999991920040620004+67367+026650FM-12+018199999V0209991C000019999999N0000001N9-00061+99999099341ADDGF108991999999999999999999MW1721
0029028360999991920040706004+67367+026650FM-12+018199999V0201401N001019999999N0000001N9+00111+99999099241ADDGF108991999999999999999999
0029028360999991920040713004+67367+026650FM-12+018199999V0201601N005119999999N0000001N9+00561+99999099271ADDGF105991999999999999999999
0029028360999991920040720004+67367+026650FM-12+018199999V0201601N006219999999N0000001N9+00281+99999099101ADDGF107991999999999999999999
0035028360999991920040806004+67367+026650FM-12+018199999V0201401N004119999999N0000001N9+00171+99999098361ADDGF108991999999999999999999MW1721
0035028360999991920040813004+67367+026650FM-12+018199999V0201401N002119999999N0000001N9+00331+99999098101ADDGF108991999999999999999999MW1721
0035028360999991920040820004+67367+026650FM-12+018199999V0201401N001019999999N0000001N9+00221+99999097661ADDGF108991999999999999999999MW1721
0035028360999991920040906004+67367+026650FM-12+018199999V0209991C000019999999N0000001N9+00061+99999096901ADDGF108991999999999999999999MW1691
0035028360999991920040913004+67367+026650FM-12+018199999V0202701N003119999999N0000001N9+00221+99999097041ADDGF108991999999999999999999MW1691
0029028360999991920040920004+67367+026650FM-12+018199999V0202701N002119999999N0000001N9+00061+99999097461ADDGF101991999999999999999999
0029028360999991920041006004+67367+026650FM-12+018199999V0209991C000019999999N0000001N9-00111+99999098021ADDGF103991999999999999999999
0029028360999991920041013004+67367+026650FM-12+018199999V0202001N006219999999N0000001N9+00561+99999097991ADDGF102991999999999999999999
0029028360999991920041020004+67367+026650FM-12+018199999V0202301N004119999999N0000001N9-00111+99999098071ADDGF105991999999999999999999
0035028360999991920041106004+67367+026650FM-12+018199999V0202001N001019999999N0000001N9-00331+99999098121ADDGF108991999999999999999999MW1721
0029028360999991920041113004+67367+026650FM-12+018199999V0202701N003119999999N0000001N9+00501+99999098081ADDGF100991999999999999999999
0029028360999991920041120004+67367+026650FM-12+018199999V0202301N002119999999N0000001N9-00441+99999098271ADDGF101991999999999999999999
0029028360999991920041206004+67367+026650FM-12+018199999V0201801N002119999999N0000001N9-00221+99999098561ADDGF100991999999999999999999
0029028360999991920041213004+67367+026650FM-12+018199999V0202501N006219999999N0000001N9+00501+99999098711ADDGF102991999999999999999999
0029028360999991920041220004+67367+026650FM-12+018199999V0209991C000019999999N0000001N9-00331+99999098901ADDGF101991999999999999999999
0029028360999991920041306004+67367+026650FM-12+018199999V0209991C000019999999N0000001N9-00501+99999098871ADDGF108991999999999999999999
0029028360999991920041313004+67367+026650FM-12+018199999V0200501N003119999999N0000001N9+00281+99999098281ADDGF108991999999999999999999
0029028360999991920041320004+67367+026650FM-12+018199999V0201801N001019999999N0000001N9-00111+99999098481ADDGF102991999999999999999999
0029028360999991920041406004+67367+026650FM-12+018199999V0209991C000019999999N0000001N9-00391+99999099161ADDGF100991999999999999999999
0029028360999991920041413004+67367+026650FM-12+018199999V0201801N002119999999N0000001N9+00501+99999099351ADDGF103991999999999999999999
0029028360999991920041420004+67367+026650FM-12+018199999V0201401N003119999999N0000001N9+00111+99999099161ADDGF106991999999999999999999
0035028360999991920041506004+67367+026650FM-12+018199999V0201101N004119999999N0000001N9-00111+99999098341ADDGF108991999999999999999999MW1621
0035028360999991920041513004+67367+026650FM-12+018199999V0201401N002119999999N0000001N9+00111+99999097791ADDGF108991999999999999999999MW1621
0035028360999991920041520004+67367+026650FM-12+018199999V0202301N003119999999N0000001N9+00061+99999097831ADDGF108991999999999999999999MW1621
0029028360999991920041606004+67367+026650FM-12+018199999V0201801N002119999999N0000001N9+00061+99999098341ADDGF108991999999999999999999
0035028360999991920041613004+67367+026650FM-12+018199999V0201601N004119999999N0000001N9+00281+99999098441ADDGF108991999999999999999999MW1621
0035028360999991920041620004+67367+026650FM-12+018199999V0201401N002119999999N0000001N9+00281+99999097951ADDGF108991999999999999999999MW1621
0029028360999991920041706004+67367+026650FM-12+018199999V0201801N002119999999N0000001N9+00331+99999097641ADDGF108991999999999999999999
0029028360999991920041713004+67367+026650FM-12+018199999V0209991C000019999999N0000001N9+00501+99999097481ADDGF108991999999999999999999
0029028360999991920041720004+67367+026650FM-12+018199999V0209991C000019999999N0000001N9+00281+99999097551ADDGF108991999999999999999999
0035028360999991920041806004+67367+026650FM-12+018199999V0203601N003119999999N0000001N9+00001+99999098391ADDGF108991999999999999999999MW1721
0029028360999991920041813004+67367+026650FM-12+018199999V0209991C000019999999N0000001N9+00281+99999099081ADDGF108991999999999999999999
0029028360999991920041820004+67367+026650FM-12+018199999V0200701N004119999999N0000001N9+00061+99999099421ADDGF108991999999999999999999
0035028360999991920041906004+67367+026650FM-12+018199999V0200901N006219999999N0000001N9-00221+99999099511ADDGF108991999999999999999999MW1721
0035028360999991920041913004+67367+026650FM-12+018199999V0200501N004119999999N0000001N9-00061+99999099961ADDGF108991999999999999999999MW1721
0029028360999991920041920004+67367+026650FM-12+018199999V0203601N005119999999N0000001N9-00441+99999100381ADDGF105991999999999999999999
0029028360999991920042006004+67367+026650FM-12+018199999V0203601N002119999999N0000001N9-00611+99999100981ADDGF100991999999999999999999
0029028360999991920042013004+67367+026650FM-12+018199999V0203401N004119999999N0000001N9+00111+99999101061ADDGF101991999999999999999999
0029028360999991920042020004+67367+026650FM-12+018199999V0203201N003119999999N0000001N9-00171+99999101161ADDGF106991999999999999999999
0029028360999991920042106004+67367+026650FM-12+018199999V0209991C000019999999N0000001N9-00281+99999101401ADDGF106991999999999999999999
0029028360999991920042113004+67367+026650FM-12+018199999V0202901N002119999999N0000001N9+00331+99999101461ADDGF102991999999999999999999
0029028360999991920042120004+67367+026650FM-12+018199999V0209991C000019999999N0000001N9-00391+99999101321ADDGF106991999999999999999999
0029028360999991920042206004+67367+026650FM-12+018199999V0202501N002119999999N0000001N9-00111+99999101221ADDGF105991999999999999999999
0029028360999991920042213004+67367+026650FM-12+018199999V0201801N006219999999N0000001N9+00561+99999100941ADDGF103991999999999999999999
0029028360999991920042220004+67367+026650FM-12+018199999V0201601N002119999999N0000001N9+00111+99999100591ADDGF108991999999999999999999
0029028360999991920042306004+67367+026650FM-12+018199999V0201801N003119999999N0000001N9+00171+99999999999ADDGF108991999999999999999999
0029028360999991920042313004+67367+026650FM-12+018199999V0202301N004119999999N0000001N9+00221+99999099671ADDGF108991999999999999999999
0029028360999991920042320004+67367+026650FM-12+018199999V0201801N001019999999N0000001N9+00061+99999099141ADDGF108991999999999999999999
0035028360999991920042406004+67367+026650FM-12+018199999V0201401N002119999999N0000001N9+00061+99999098361ADDGF108991999999999999999999MW1721
0035028360999991920042413004+67367+026650FM-12+018199999V0202701N004119999999N0000001N9+00221+99999097831ADDGF108991999999999999999999MW1721
0029028360999991920042420004+67367+026650FM-12+018199999V0202701N002119999999N0000001N9+00171+99999097701ADDGF102991999999999999999999
0029028360999991920042506004+67367+026650FM-12+018199999V0209991C000019999999N0000001N9+00281+99999097701ADDGF101991999999999999999999
0029028360999991920042513004+67367+026650FM-12+018199999V0209991C000019999999N0000001N9+00671+99999097561ADDGF103991999999999999999999
0029028360999991920042520004+67367+026650FM-12+018199999V0203601N001019999999N0000001N9-00061+99999097721ADDGF101991999999999999999999
0029028360999991920042606004+67367+026650FM-12+018199999V0203601N001019999999N0000001N9-00111+99999098041ADDGF106991999999999999999999
0029028360999991920042613004+67367+026650FM-12+018199999V0200701N005119999999N0000001N9+00441+99999098101ADDGF107991999999999999999999
0029028360999991920042620004+67367+026650FM-12+018199999V0200501N007219999999N0000001N9+00061+99999098001ADDGF108991999999999999999999
0029028360999991920042706004+67367+026650FM-12+018199999V0200501N005119999999N0000001N9-00281+99999098221ADDGF108991999999999999999999
0035028360999991920042713004+67367+026650FM-12+018199999V0200701N008719999999N0000001N9-00061+99999098261ADDGF108991999999999999999999MW1721
0035028360999991920042720004+67367+026650FM-12+018199999V0200701N002119999999N0000001N9-00171+99999098401ADDGF108991999999999999999999MW1721
0029028360999991920042806004+67367+026650FM-12+018199999V0200901N001019999999N0000001N9-00061+99999098601ADDGF108991999999999999999999
0035028360999991920042813004+67367+026650FM-12+018199999V0201101N002119999999N0000001N9+00171+99999098711ADDGF108991999999999999999999MW1721
0029028360999991920042820004+67367+026650FM-12+018199999V0200901N001019999999N0000001N9+00171+99999098741ADDGF103991999999999999999999
0035028360999991920042906004+67367+026650FM-12+018199999V0200501N004119999999N0000001N9+00111+99999098141ADDGF108991999999999999999999MW1721
0035028360999991920042913004+67367+026650FM-12+018199999V0209991C000019999999N0000001N9+00111+99999097781ADDGF108991999999999999999999MW1721
0029028360999991920042920004+67367+026650FM-12+018199999V0209991C000019999999N0000001N9-00061+99999098101ADDGF102991999999999999999999
0029028360999991920043006004+67367+026650FM-12+018199999V0200701N001019999999N0000001N9+00281+99999097941ADDGF105991999999999999999999
0029028360999991920043013004+67367+026650FM-12+018199999V0200501N002119999999N0000001N9+00561+99999097861ADDGF107991999999999999999999
0029028360999991920043020004+67367+026650FM-12+018199999V0209991C000019999999N0000001N9+00001+99999097961ADDGF106991999999999999999999
0035028360999991920050106004+67367+026650FM-12+018199999V0200201N001019999999N0000001N9+00111+99999097961ADDGF108991999999999999999999MW1721
0035028360999991920050113004+67367+026650FM-12+018199999V0200501N002119999999N0000001N9+00441+99999098081ADDGF108991999999999999999999MW1621
0029028360999991920050120004+67367+026650FM-12+018199999V0200701N002119999999N0000001N9+00171+99999098361ADDGF108991999999999999999999
0035028360999991920050206004+67367+026650FM-12+018199999V0209991C000019999999N0000001N9+00111+99999098661ADDGF108991999999999999999999MW1721
0029028360999991920050213004+67367+026650FM-12+018199999V0209991C000019999999N0000001N9+00561+99999098951ADDGF105991999999999999999999
0029028360999991920050220004+67367+026650FM-12+018199999V0209991C000019999999N0000001N9+00111+99999099271ADDGF106991999999999999999999
0029028360999991920050306004+67367+026650FM-12+018199999V0201601N001019999999N0000001N9+00441+99999099631ADDGF100991999999999999999999
0029028360999991920050313004+67367+026650FM-12+018199999V0201401N004119999999N0000001N9+00781+99999099711ADDGF103991999999999999999999
0029028360999991920050320004+67367+026650FM-12+018199999V0201801N002119999999N0000001N9+00171+99999099721ADDGF101991999999999999999999
0029028360999991920050406004+67367+026650FM-12+018199999V0201401N003119999999N0000001N9+00561+99999099761ADDGF106991999999999999999999
0029028360999991920050413004+67367+026650FM-12+018199999V0201601N004119999999N0000001N9+01111+99999099581ADDGF106991999999999999999999
0029028360999991920050420004+67367+026650FM-12+018199999V0209991C000019999999N0000001N9+00721+99999099441ADDGF103991999999999999999999
0029028360999991920050506004+67367+026650FM-12+018199999V0201101N002119999999N0000001N9+00611+99999099421ADDGF102991999999999999999999
0029028360999991920050513004+67367+026650FM-12+018199999V0202001N001019999999N0000001N9+00781+99999099481ADDGF108991999999999999999999
0029028360999991920050520004+67367+026650FM-12+018199999V0203201N003119999999N0000001N9+00501+99999099661ADDGF107991999999999999999999
0029028360999991920050606004+67367+026650FM-12+018199999V0200501N007219999999N0000001N9+00171+99999100021ADDGF108991999999999999999999
0029028360999991920050613004+67367+026650FM-12+018199999V0200701N005119999999N0000001N9+00391+99999100121ADDGF108991999999999999999999
0029028360999991920050620004+67367+026650FM-12+018199999V0200501N001019999999N0000001N9+00221+99999100021ADDGF108991999999999999999999
0029028360999991920050706004+67367+026650FM-12+018199999V0209991C000019999999N0000001N9+00221+99999099501ADDGF108991999999999999999999
0029028360999991920050713004+67367+026650FM-12+018199999V0200901N004119999999N0000001N9+00331+99999099301ADDGF108991999999999999999999
0029028360999991920050720004+67367+026650FM-12+018199999V0201101N002119999999N0000001N9+00281+99999099081ADDGF107991999999999999999999
0035028360999991920050806004+67367+026650FM-12+018199999V0200901N004119999999N0000001N9+00061+99999098511ADDGF108991999999999999999999MW1721
0035028360999991920050813004+67367+026650FM-12+018199999V0201101N002119999999N0000001N9+00331+99999098361ADDGF108991999999999999999999MW1621
0029028360999991920050820004+67367+026650FM-12+018199999V0209991C000019999999N0000001N9+00331+99999098391ADDGF108991999999999999999999
0046028360999991920050906004+67367+026650FM-12+018199999V0202301N001019999999N0000001N9+00281+99999098631ADDAJ100009199999999GF108991999999999999999999
0029028360999991920050913004+67367+026650FM-12+018199999V0202501N003119999999N0000001N9+00781+99999098921ADDGF106991999999999999999999
0029028360999991920050920004+67367+026650FM-12+018199999V0201801N001019999999N0000001N9+00501+99999099111ADDGF108991999999999999999999
0046028360999991920051006004+67367+026650FM-12+018199999V0202001N005119999999N0000001N9+00331+99999099351ADDAJ100009199999999GF108991999999999999999999
0029028360999991920051013004+67367+026650FM-12+018199999V0202701N005119999999N0000001N9+00671+99999099631ADDGF108991999999999999999999
0029028360999991920051020004+67367+026650FM-12+018199999V0209991C000019999999N0000001N9+00171+99999099911ADDGF101991999999999999999999
0046028360999991920051106004+67367+026650FM-12+018199999V0209991C000019999999N0000001N9+00281+99999099791ADDAJ100009199999999GF108991999999999999999999
0035028360999991920051113004+67367+026650FM-12+018199999V0200201N005119999999N0000001N9+00221+99999099161ADDGF108991999999999999999999MW1621
0035028360999991920051120004+67367+026650FM-12+018199999V0209991C000019999999N0000001N9+00221+99999098551ADDGF108991999999999999999999MW1621
0052028360999991920051206004+67367+026650FM-12+018199999V0202001N004119999999N0000001N9+00281+99999098121ADDAJ100009199999999GF108991999999999999999999MW1621
0035028360999991920051213004+67367+026650FM-12+018199999V0202701N007219999999N0000001N9+00561+99999098751ADDGF108991999999999999999999MW1621
0029028360999991920051220004+67367+026650FM-12+018199999V0202701N003119999999N0000001N9+00441+99999099221ADDGF102991999999999999999999
0046028360999991920051306004+67367+026650FM-12+018199999V0202501N006219999999N0000001N9+00561+99999099561ADDAJ100009199999999GF101991999999999999999999
0029028360999991920051313004+67367+026650FM-12+018199999V0202301N007219999999N0000001N9+01061+99999099401ADDGF108991999999999999999999
0029028360999991920051320004+67367+026650FM-12+018199999V0202001N005119999999N0000001N9+00781+99999099081ADDGF108991999999999999999999
0052028360999991920051406004+67367+026650FM-12+018199999V0201801N005119999999N0000001N9+00891+99999098551ADDAJ100009199999999GF108991999999999999999999MW1601
0035028360999991920051413004+67367+026650FM-12+018199999V0202001N007219999999N0000001N9+00941+99999098501ADDGF106991999999999999999999MW1601
0035028360999991920051420004+67367+026650FM-12+018199999V0202001N004119999999N0000001N9+00671+99999098741ADDGF102991999999999999999999MW1601
0046028360999991920051506004+67367+026650FM-12+018199999V0209991C000019999999N0000001N9+00501+99999099541ADDAJ100009199999999GF108991999999999999999999
0035028360999991920051513004+67367+026650FM-12+018199999V0203401N002119999999N0000001N9+00891+99999100151ADDGF106991999999999999999999MW1621
0029028360999991920051520004+67367+026650FM-12+018199999V0203601N001019999999N0000001N9+00561+99999100661ADDGF100991999999999999999999
0046028360999991920051606004+67367+026650FM-12+018199999V0203601N001019999999N0000001N9+00441+99999100951ADDAJ100009199999999GF103991999999999999999999
0029028360999991920051613004+67367+026650FM-12+018199999V0200901N002119999999N0000001N9+01561+99999100791ADDGF100991999999999999999999
0029028360999991920051620004+67367+026650FM-12+018199999V0201101N003119999999N0000001N9+01171+99999100621ADDGF108991999999999999999999
0046028360999991920051706004+67367+026650FM-12+018199999V0201401N001019999999N0000001N9+01061+99999100441ADDAJ100009199999999GF108991999999999999999999
0029028360999991920051713004+67367+026650FM-12+018199999V0201101N002119999999N0000001N9+02221+99999100261ADDGF103991999999999999999999
0029028360999991920051720004+67367+026650FM-12+018199999V0209991C000019999999N0000001N9+01671+99999100041ADDGF100991999999999999999999
0046028360999991920051806004+67367+026650FM-12+018199999V0201401N004119999999N0000001N9+01721+99999099831ADDAJ100009199999999GF100991999999999999999999
0029028360999991920051813004+67367+026650FM-12+018199999V0201801N008219999999N0000001N9+02501+99999099641ADDGF103991999999999999999999
0035028360999991920051820004+67367+026650FM-12+018199999V0209991C000019999999N0000001N9+01331+99999099621ADDGF108991999999999999999999MW1621
0046028360999991920051906004+67367+026650FM-12+018199999V0209991C000019999999N0000001N9+01611+99999099201ADDAJ100009199999999GF100991999999999999999999
0029028360999991920051913004+67367+026650FM-12+018199999V0202301N007219999999N0000001N9+01671+99999099141ADDGF105991999999999999999999
0035028360999991920051920004+67367+026650FM-12+018199999V0201401N004119999999N0000001N9+01061+99999098421ADDGF108991999999999999999999MW1621
0046028360999991920052006004+67367+026650FM-12+018199999V0202001N005119999999N0000001N9+01061+99999098551ADDAJ100009199999999GF102991999999999999999999
0029028360999991920052013004+67367+026650FM-12+018199999V0202701N009819999999N0000001N9+01281+99999098741ADDGF106991999999999999999999
0029028360999991920052020004+67367+026650FM-12+018199999V0202301N003119999999N0000001N9+00891+99999099001ADDGF103991999999999999999999
0046028360999991920052106004+67367+026650FM-12+018199999V0202501N006219999999N0000001N9+00941+99999099241ADDAJ100009199999999GF100991999999999999999999
0029028360999991920052113004+67367+026650FM-12+018199999V0202701N006219999999N0000001N9+01281+99999099461ADDGF107991999999999999999999
0029028360999991920052120004+67367+026650FM-12+018199999V0202701N002119999999N0000001N9+01001+99999099861ADDGF100991999999999999999999
0046028360999991920052206004+67367+026650FM-12+018199999V0202701N005119999999N0000001N9+00941+99999100181ADDAJ100009199999999GF100991999999999999999999
0029028360999991920052213004+67367+026650FM-12+018199999V0209991C000019999999N0000001N9+01281+99999099921ADDGF108991999999999999999999
0035028360999991920052220004+67367+026650FM-12+018199999V0209991C000019999999N0000001N9+00671+99999099391ADDGF108991999999999999999999MW1621
0052028360999991920052306004+67367+026650FM-12+018199999V0203401N005119999999N0000001N9+00561+99999098551ADDAJ100009199999999GF108991999999999999999999MW1621
0035028360999991920052313004+67367+026650FM-12+018199999V0203201N004119999999N0000001N9+00501+99999099041ADDGF108991999999999999999999MW1621
0029028360999991920052320004+67367+026650FM-12+018199999V0202901N001019999999N0000001N9+00721+99999099161ADDGF106991999999999999999999
0046028360999991920052406004+67367+026650FM-12+018199999V0203401N003119999999N0000001N9+00671+99999099301ADDAJ100009199999999GF104991999999999999999999
0029028360999991920052413004+67367+026650FM-12+018199999V0202901N004119999999N0000001N9+01221+99999099591ADDGF106991999999999999999999
0029028360999991920052420004+67367+026650FM-12+018199999V0209991C000019999999N0000001N9+00671+99999099541ADDGF103991999999999999999999
0046028360999991920052506004+67367+026650FM-12+018199999V0202901N008719999999N0000001N9+01111+99999099021ADDAJ100009199999999GF108991999999999999999999
0029028360999991920052513004+67367+026650FM-12+018199999V0203201N006219999999N0000001N9+01001+99999099381ADDGF103991999999999999999999
0029028360999991920052520004+67367+026650FM-12+018199999V0203601N002119999999N0000001N9+00501+99999099641ADDGF106991999999999999999999
0046028360999991920052606004+67367+026650FM-12+018199999V0203401N003119999999N0000001N9+00781+99999099991ADDAJ100009199999999GF100991999999999999999999
0029028360999991920052613004+67367+026650FM-12+018199999V0202901N006219999999N0000001N9+00941+99999100201ADDGF106991999999999999999999
0029028360999991920052620004+67367+026650FM-12+018199999V0203201N001019999999N0000001N9+00831+99999100231ADDGF105991999999999999999999
0046028360999991920052706004+67367+026650FM-12+018199999V0202901N005119999999N0000001N9+00611+99999100231ADDAJ100009199999999GF108991999999999999999999
0029028360999991920052713004+67367+026650FM-12+018199999V0203201N004119999999N0000001N9+01001+99999100261ADDGF107991999999999999999999
0029028360999991920052720004+67367+026650FM-12+018199999V0209991C000019999999N0000001N9+00721+99999100261ADDGF104991999999999999999999
0046028360999991920052806004+67367+026650FM-12+018199999V0209991C000019999999N0000001N9+00891+99999100191ADDAJ100009199999999GF105991999999999999999999
0029028360999991920052813004+67367+026650FM-12+018199999V0202701N002119999999N0000001N9+01281+99999099801ADDGF101991999999999999999999
0029028360999991920052820004+67367+026650FM-12+018199999V0202301N001019999999N0000001N9+01441+99999099521ADDGF102991999999999999999999
0046028360999991920052906004+67367+026650FM-12+018199999V0202901N001019999999N0000001N9+01501+99999099321ADDAJ100009199999999GF100991999999999999999999
0029028360999991920052913004+67367+026650FM-12+018199999V0202901N004119999999N0000001N9+02111+99999099231ADDGF103991999999999999999999
0029028360999991920052920004+67367+026650FM-12+018199999V0209991C000019999999N0000001N9+01671+99999099201ADDGF100991999999999999999999
0046028360999991920053006004+67367+026650FM-12+018199999V0200901N001019999999N0000001N9+01501+99999099221ADDAJ100009199999999GF100991999999999999999999
0029028360999991920053013004+67367+026650FM-12+018199999V0201801N002119999999N0000001N9+02331+99999099101ADDGF104991999999999999999999
0029028360999991920053020004+67367+026650FM-12+018199999V0202001N001019999999N0000001N9+01831+99999098961ADDGF100991999999999999999999
0046028360999991920053106004+67367+026650FM-12+018199999V0209991C000019999999N0000001N9+01611+99999099081ADDAJ100009199999999GF100991999999999999999999
0029028360999991920053113004+67367+026650FM-12+018199999V0202001N007219999999N0000001N9+02441+99999098841ADDGF104991999999999999999999
0029028360999991920053120004+67367+026650FM-12+018199999V0202001N002119999999N0000001N9+01781+99999098631ADDGF108991999999999999999999
0052028360999991920060106004+67367+026650FM-12+018199999V0202001N005119999999N0000001N9+01331+99999098231ADDAJ100009199999999GF108991999999999999999999MW1621
0029028360999991920060113004+67367+026650FM-12+018199999V0202301N004119999999N0000001N9+01781+99999097981ADDGF103991999999999999999999
0029028360999991920060120004+67367+026650FM-12+018199999V0202001N004119999999N0000001N9+01441+99999097751ADDGF100991999999999999999999
0046028360999991920060206004+67367+026650FM-12+018199999V0200901N001019999999N0000001N9+01001+99999097541ADDAJ100009199999999GF108991999999999999999999
0029028360999991920060213004+67367+026650FM-12+018199999V0203401N001019999999N0000001N9+01391+99999097341ADDGF108991999999999999999999
0035028360999991920060220004+67367+026650FM-12+018199999V0203401N002119999999N0000001N9+01171+99999096881ADDGF108991999999999999999999MW1601
0046028360999991920060306004+67367+026650FM-12+018199999V0200901N002119999999N0000001N9+01281+99999097321ADDAJ100009199999999GF107991999999999999999999
0029028360999991920060313004+67367+026650FM-12+018199999V0203601N007219999999N0000001N9+01281+99999097481ADDGF106991999999999999999999
0029028360999991920060320004+67367+026650FM-12+018199999V0203601N008219999999N0000001N9+00671+99999097841ADDGF108991999999999999999999
0052028360999991920060406004+67367+026650FM-12+018199999V0203601N008719999999N0000001N9+00441+99999098101ADDAJ100009199999999GF108991999999999999999999MW1621
0035028360999991920060413004+67367+026650FM-12+018199999V0203601N003119999999N0000001N9+00391+99999098501ADDGF108991999999999999999999MW1621
0035028360999991920060420004+67367+026650FM-12+018199999V0203601N007219999999N0000001N9+00111+99999098721ADDGF108991999999999999999999MW1691
0052028360999991920060506004+67367+026650FM-12+018199999V0200201N005119999999N0000001N9-00061+99999098671ADDAJ100009199999999GF108991999999999999999999MW1721
0029028360999991920060513004+67367+026650FM-12+018199999V0203601N005119999999N0000001N9+00111+99999098681ADDGF108991999999999999999999
0029028360999991920060520004+67367+026650FM-12+018199999V0200501N005119999999N0000001N9+00061+99999098741ADDGF108991999999999999999999
0046028360999991920060606004+67367+026650FM-12+018199999V0200201N005119999999N0000001N9+00001+99999098781ADDAJ100009199999999GF108991999999999999999999
0029028360999991920060613004+67367+026650FM-12+018199999V0200701N004119999999N0000001N9+00281+99999098781ADDGF108991999999999999999999
0029028360999991920060620004+67367+026650FM-12+018199999V0200501N001019999999N0000001N9+00061+99999098871ADDGF105991999999999999999999
0046028360999991920060706004+67367+026650FM-12+018199999V0200501N003119999999N0000001N9+00281+99999099061ADDAJ100009199999999GF107991999999999999999999
0035028360999991920060713004+67367+026650FM-12+018199999V0200701N002119999999N0000001N9+00441+99999099061ADDGF108991999999999999999999MW1691
0029028360999991920060720004+67367+026650FM-12+018199999V0200701N004119999999N0000001N9+00331+99999099081ADDGF108991999999999999999999
0052028360999991920060806004+67367+026650FM-12+018199999V0209991C000019999999N0000001N9+00061+99999098901ADDAJ100009199999999GF108991999999999999999999MW1721
0029028360999991920060813004+67367+026650FM-12+018199999V0203401N001019999999N0000001N9+00781+99999098871ADDGF108991999999999999999999
0029028360999991920060820004+67367+026650FM-12+018199999V0203601N003119999999N0000001N9+00671+99999098721ADDGF107991999999999999999999
0052028360999991920060906004+67367+026650FM-12+018199999V0203401N006219999999N0000001N9+00221+99999098441ADDAJ100009199999999GF108991999999999999999999MW1621
0035028360999991920060913004+67367+026650FM-12+018199999V0203601N007219999999N0000001N9+00391+99999098661ADDGF108991999999999999999999MW1621
0029028360999991920060920004+67367+026650FM-12+018199999V0203601N004119999999N0000001N9+00391+99999098841ADDGF108991999999999999999999
0046028360999991920061006004+67367+026650FM-12+018199999V0202701N001019999999N0000001N9+00671+99999098601ADDAJ100009199999999GF105991999999999999999999
0029028360999991920061013004+67367+026650FM-12+018199999V0202301N002119999999N0000001N9+00391+99999098481ADDGF107991999999999999999999
0029028360999991920061020004+67367+026650FM-12+018199999V0202301N002119999999N0000001N9+00441+99999098501ADDGF105991999999999999999999
0046028360999991920061106004+67367+026650FM-12+018199999V0203201N002119999999N0000001N9+00331+99999098791ADDAJ100009199999999GF103991999999999999999999
0029028360999991920061113004+67367+026650FM-12+018199999V0202901N003119999999N0000001N9+00671+99999099141ADDGF106991999999999999999999
0029028360999991920061120004+67367+026650FM-12+018199999V0209991C000019999999N0000001N9+00501+99999099391ADDGF104991999999999999999999
0046028360999991920061206004+67367+026650FM-12+018199999V0203601N002119999999N0000001N9+00391+99999099621ADDAJ100009199999999GF108991999999999999999999
0029028360999991920061213004+67367+026650FM-12+018199999V0202901N002119999999N0000001N9+00281+99999099621ADDGF107991999999999999999999
0029028360999991920061220004+67367+026650FM-12+018199999V0203601N001019999999N0000001N9+00561+99999099671ADDGF108991999999999999999999
0046028360999991920061306004+67367+026650FM-12+018199999V0209991C000019999999N0000001N9+00891+99999099871ADDAJ100009199999999GF102991999999999999999999
0029028360999991920061313004+67367+026650FM-12+018199999V0203601N001019999999N0000001N9+01281+99999099941ADDGF108991999999999999999999
0029028360999991920061320004+67367+026650FM-12+018199999V0202701N001019999999N0000001N9+01061+99999100041ADDGF108991999999999999999999
0046028360999991920061406004+67367+026650FM-12+018199999V0202301N004119999999N0000001N9+01001+99999099881ADDAJ100009199999999GF108991999999999999999999
0029028360999991920061413004+67367+026650FM-12+018199999V0202501N004119999999N0000001N9+01391+99999099561ADDGF108991999999999999999999
0035028360999991920061420004+67367+026650FM-12+018199999V0203401N004119999999N0000001N9+01111+99999099301ADDGF108991999999999999999999MW1621
0046028360999991920061506004+67367+026650FM-12+018199999V0203601N005119999999N0000001N9+01001+99999099401ADDAJ100009199999999GF101991999999999999999999
0035028360999991920061513004+67367+026650FM-12+018199999V0203601N006219999999N0000001N9+01111+99999099431ADDGF106991999999999999999999MW1621
0029028360999991920061520004+67367+026650FM-12+018199999V0203601N001019999999N0000001N9+01001+99999099431ADDGF106991999999999999999999
0046028360999991920061606004+67367+026650FM-12+018199999V0203601N002119999999N0000001N9+01001+99999099391ADDAJ100009199999999GF102991999999999999999999
0029028360999991920061613004+67367+026650FM-12+018199999V0209991C000019999999N0000001N9+01441+99999099241ADDGF105991999999999999999999
0029028360999991920061620004+67367+026650FM-12+018199999V0203601N004119999999N0000001N9+01281+99999099191ADDGF106991999999999999999999
0046028360999991920061706004+67367+026650FM-12+018199999V0203601N004119999999N0000001N9+01061+99999099321ADDAJ100009199999999GF100991999999999999999999
0029028360999991920061713004+67367+026650FM-12+018199999V0200501N001019999999N0000001N9+01441+99999099121ADDGF105991999999999999999999
0029028360999991920061720004+67367+026650FM-12+018199999V0209991C000019999999N0000001N9+01111+99999098901ADDGF104991999999999999999999
0052028360999991920061806004+67367+026650FM-12+018199999V0209991C000019999999N0000001N9+00781+99999098761ADDAJ100009199999999GF108991999999999999999999MW1621
0029028360999991920061813004+67367+026650FM-12+018199999V0203401N004119999999N0000001N9+00831+99999098921ADDGF105991999999999999999999
0029028360999991920061820004+67367+026650FM-12+018199999V0203601N002119999999N0000001N9+00941+99999099401ADDGF106991999999999999999999
0046028360999991920061906004+67367+026650FM-12+018199999V0200201N001019999999N0000001N9+00831+99999099821ADDAJ100009199999999GF102991999999999999999999
0029028360999991920061913004+67367+026650FM-12+018199999V0209991C000019999999N0000001N9+01611+99999099781ADDGF103991999999999999999999
0029028360999991920061920004+67367+026650FM-12+018199999V0209991C000019999999N0000001N9+01441+99999099841ADDGF103991999999999999999999
0046028360999991920062006004+67367+026650FM-12+018199999V0202001N002119999999N0000001N9+01671+99999099961ADDAJ100009199999999GF100991999999999999999999
0029028360999991920062013004+67367+026650FM-12+018199999V0202701N004119999999N0000001N9+02171+99999099881ADDGF108991999999999999999999
0029028360999991920062020004+67367+026650FM-12+018199999V0209991C000019999999N0000001N9+01671+99999099941ADDGF108991999999999999999999
0046028360999991920062106004+67367+026650FM-12+018199999V0209991C000019999999N0000001N9+02001+99999100061ADDAJ100009199999999GF103991999999999999999999
0029028360999991920062113004+67367+026650FM-12+018199999V0209991C000019999999N0000001N9+02721+99999100041ADDGF105991999999999999999999
0029028360999991920062120004+67367+026650FM-12+018199999V0209991C000019999999N0000001N9+02441+99999100041ADDGF106991999999999999999999
0046028360999991920062206004+67367+026650FM-12+018199999V0209991C000019999999N0000001N9+02001+99999100201ADDAJ100009199999999GF100991999999999999999999
0029028360999991920062213004+67367+026650FM-12+018199999V0201801N004119999999N0000001N9+02721+99999100101ADDGF102991999999999999999999
0029028360999991920062220004+67367+026650FM-12+018199999V0209991C000019999999N0000001N9+01941+99999100101ADDGF100991999999999999999999
0046028360999991920062306004+67367+026650FM-12+018199999V0201401N002119999999N0000001N9+02171+99999099991ADDAJ100009199999999GF100991999999999999999999
0029028360999991920062313004+67367+026650FM-12+018199999V0201801N005119999999N0000001N9+02671+99999099601ADDGF100991999999999999999999
0029028360999991920062320004+67367+026650FM-12+018199999V0201401N001019999999N0000001N9+02111+99999099351ADDGF101991999999999999999999
0046028360999991920062406004+67367+026650FM-12+018199999V0201401N002119999999N0000001N9+01831+99999099191ADDAJ100009199999999GF100991999999999999999999
0029028360999991920062413004+67367+026650FM-12+018199999V0201101N004119999999N0000001N9+02441+99999098951ADDGF100991999999999999999999
0029028360999991920062420004+67367+026650FM-12+018199999V0201801N001019999999N0000001N9+02061+99999098911ADDGF102991999999999999999999
0046028360999991920062506004+67367+026650FM-12+018199999V0202501N001019999999N0000001N9+02061+99999099071ADDAJ100009199999999GF107991999999999999999999
0029028360999991920062513004+67367+026650FM-12+018199999V0200501N002119999999N0000001N9+02281+99999098991ADDGF106991999999999999999999
0029028360999991920062520004+67367+026650FM-12+018199999V0209991C000019999999N0000001N9+01941+99999098951ADDGF105991999999999999999999
0046028360999991920062606004+67367+026650FM-12+018199999V0209991C000019999999N0000001N9+02171+99999098881ADDAJ100009199999999GF103991999999999999999999
0029028360999991920062613004+67367+026650FM-12+018199999V0202001N001019999999N0000001N9+02441+99999098681ADDGF104991999999999999999999
0029028360999991920062620004+67367+026650FM-12+018199999V0209991C000019999999N0000001N9+01891+99999098581ADDGF106991999999999999999999
0046028360999991920062706004+67367+026650FM-12+018199999V0209991C000019999999N0000001N9+02111+99999098441ADDAJ100009199999999GF101991999999999999999999
0035028360999991920062713004+67367+026650FM-12+018199999V0201401N003119999999N0000001N9+02281+99999098151ADDGF106991999999999999999999MW1621
0035028360999991920062720004+67367+026650FM-12+018199999V0209991C000019999999N0000001N9+01441+99999098181ADDGF102991999999999999999999MW1171
0046028360999991920062806004+67367+026650FM-12+018199999V0201601N003119999999N0000001N9+01561+99999098281ADDAJ100009199999999GF104991999999999999999999
0029028360999991920062813004+67367+026650FM-12+018199999V0201801N004119999999N0000001N9+02061+99999098281ADDGF106991999999999999999999
0029028360999991920062820004+67367+026650FM-12+018199999V0209991C000019999999N0000001N9+01611+99999098421ADDGF102991999999999999999999
0029028360999991920062906004+67367+026650FM-12+018199999V0209991C000019999999N0000001N9+01831+99999098681ADDGF101991999999999999999999
0029028360999991920062913004+67367+026650FM-12+018199999V0201601N003119999999N0000001N9+02171+99999098791ADDGF106991999999999999999999
0029028360999991920062920004+67367+026650FM-12+018199999V0209991C000019999999N0000001N9+01671+99999098921ADDGF108991999999999999999999
0052028360999991920063006004+67367+026650FM-12+018199999V0209991C000019999999N0000001N9+01441+99999099101ADDAJ100009199999999GF107991999999999999999999MW1621
0029028360999991920063013004+67367+026650FM-12+018199999V0201801N004119999999N0000001N9+02221+99999098991ADDGF105991999999999999999999
0029028360999991920063020004+67367+026650FM-12+018199999V0202001N003119999999N0000001N9+01891+99999098951ADDGF105991999999999999999999
0046028360999991920070106004+67367+026650FM-12+018199999V0201601N005119999999N0000001N9+01501+99999098981ADDAJ100009199999999GF108991999999999999999999
0029028360999991920070113004+67367+026650FM-12+018199999V0201601N002119999999N0000001N9+01501+99999099031ADDGF108991999999999999999999
0029028360999991920070120004+67367+026650FM-12+018199999V0201801N002119999999N0000001N9+01721+99999098981ADDGF108991999999999999999999
0046028360999991920070206004+67367+026650FM-12+018199999V0201601N003119999999N0000001N9+01331+99999099081ADDAJ100009199999999GF106991999999999999999999
0035028360999991920070213004+67367+026650FM-12+018199999V0202701N002119999999N0000001N9+01611+99999099231ADDGF106991999999999999999999MW1621
0029028360999991920070220004+67367+026650FM-12+018199999V0203601N004119999999N0000001N9+01441+99999099621ADDGF107991999999999999999999
0046028360999991920070306004+67367+026650FM-12+018199999V0209991C000019999999N0000001N9+01221+99999099881ADDAJ100009199999999GF108991999999999999999999
0029028360999991920070313004+67367+026650FM-12+018199999V0201801N005119999999N0000001N9+02221+99999099671ADDGF105991999999999999999999
0029028360999991920070320004+67367+026650FM-12+018199999V0201801N003119999999N0000001N9+01831+99999099511ADDGF102991999999999999999999
0052028360999991920070406004+67367+026650FM-12+018199999V0209991C000019999999N0000001N9+01501+99999099241ADDAJ100009199999999GF108991999999999999999999MW1621
0029028360999991920070413004+67367+026650FM-12+018199999V0203601N004119999999N0000001N9+01671+99999099551ADDGF108991999999999999999999
0029028360999991920070420004+67367+026650FM-12+018199999V0200501N002119999999N0000001N9+01331+99999099661ADDGF108991999999999999999999
0052028360999991920070506004+67367+026650FM-12+018199999V0200201N004119999999N0000001N9+00721+99999099471ADDAJ100009199999999GF108991999999999999999999MW1621
0029028360999991920070513004+67367+026650FM-12+018199999V0200501N015919999999N0000001N9+01281+99999099631ADDGF105991999999999999999999
0029028360999991920070520004+67367+026650FM-12+018199999V0203601N004119999999N0000001N9+01001+99999100031ADDGF106991999999999999999999
0046028360999991920070606004+67367+026650FM-12+018199999V0200901N003119999999N0000001N9+00891+99999100421ADDAJ100009199999999GF106991999999999999999999
0029028360999991920070613004+67367+026650FM-12+018199999V0200501N003119999999N0000001N9+01671+99999100341ADDGF100991999999999999999999
0029028360999991920070620004+67367+026650FM-12+018199999V0209991C000019999999N0000001N9+01441+99999100281ADDGF100991999999999999999999
0046028360999991920070706004+67367+026650FM-12+018199999V0201601N004119999999N0000001N9+01441+99999100441ADDAJ100009199999999GF100991999999999999999999
0029028360999991920070713004+67367+026650FM-12+018199999V0201801N003119999999N0000001N9+02171+99999100311ADDGF100991999999999999999999
0029028360999991920070720004+67367+026650FM-12+018199999V0209991C000019999999N0000001N9+01781+99999100261ADDGF100991999999999999999999
0046028360999991920070806004+67367+026650FM-12+018199999V0209991C000019999999N0000001N9+01831+99999100361ADDAJ100009199999999GF102991999999999999999999
0029028360999991920070813004+67367+026650FM-12+018199999V0202701N003119999999N0000001N9+02331+99999100311ADDGF102991999999999999999999
0029028360999991920070820004+67367+026650FM-12+018199999V0209991C000019999999N0000001N9+01941+99999100261ADDGF102991999999999999999999
0046028360999991920070906004+67367+026650FM-12+018199999V0209991C000019999999N0000001N9+02111+99999100231ADDAJ100009199999999GF102991999999999999999999
0029028360999991920070913004+67367+026650FM-12+018199999V0202001N001019999999N0000001N9+02561+99999100041ADDGF103991999999999999999999
0029028360999991920070920004+67367+026650FM-12+018199999V0203401N003119999999N0000001N9+02111+99999099921ADDGF106991999999999999999999
0046028360999991920071006004+67367+026650FM-12+018199999V0200901N004119999999N0000001N9+01831+99999100021ADDAJ100009199999999GF107991999999999999999999
0029028360999991920071013004+67367+026650FM-12+018199999V0200201N004119999999N0000001N9+02281+99999099911ADDGF103991999999999999999999
0029028360999991920071020004+67367+026650FM-12+018199999V0209991C000019999999N0000001N9+01831+99999099821ADDGF104991999999999999999999
0046028360999991920071106004+67367+026650FM-12+018199999V0209991C000019999999N0000001N9+01891+99999099751ADDAJ100009199999999GF100991999999999999999999
0029028360999991920071113004+67367+026650FM-12+018199999V0200701N002119999999N0000001N9+02501+99999099481ADDGF102991999999999999999999
0029028360999991920071120004+67367+026650FM-12+018199999V0209991C000019999999N0000001N9+02001+99999099221ADDGF105991999999999999999999
0046028360999991920071206004+67367+026650FM-12+018199999V0203201N001019999999N0000001N9+02111+99999099071ADDAJ100009199999999GF102991999999999999999999
0029028360999991920071213004+67367+026650FM-12+018199999V0203601N002119999999N0000001N9+02221+99999099061ADDGF105991999999999999999999
0029028360999991920071220004+67367+026650FM-12+018199999V0200201N002119999999N0000001N9+01501+99999099061ADDGF104991999999999999999999
0046028360999991920071306004+67367+026650FM-12+018199999V0200501N002119999999N0000001N9+01281+99999098981ADDAJ100009199999999GF108991999999999999999999
0029028360999991920071313004+67367+026650FM-12+018199999V0200901N004119999999N0000001N9+01611+99999098801ADDGF107991999999999999999999
0029028360999991920071320004+67367+026650FM-12+018199999V0200901N001019999999N0000001N9+01331+99999098671ADDGF108991999999999999999999
0052028360999991920071406004+67367+026650FM-12+018199999V0209991C000019999999N0000001N9+01221+99999098551ADDAJ100009199999999GF108991999999999999999999MW1621
0029028360999991920071413004+67367+026650FM-12+018199999V0200701N004119999999N0000001N9+01281+99999098641ADDGF108991999999999999999999
0029028360999991920071420004+67367+026650FM-12+018199999V0200901N002119999999N0000001N9+01171+99999098681ADDGF108991999999999999999999
0046028360999991920071506004+67367+026650FM-12+018199999V0209991C000019999999N0000001N9+01171+99999098761ADDAJ100009199999999GF108991999999999999999999
0029028360999991920071513004+67367+026650FM-12+018199999V0209991C000019999999N0000001N9+01891+99999098711ADDGF105991999999999999999999
0029028360999991920071520004+67367+026650FM-12+018199999V0209991C000019999999N0000001N9+01561+99999098721ADDGF102991999999999999999999
0046028360999991920071606004+67367+026650FM-12+018199999V0201101N001019999999N0000001N9+01611+99999098701ADDAJ100009199999999GF108991999999999999999999
0029028360999991920071613004+67367+026650FM-12+018199999V0201801N002119999999N0000001N9+02441+99999098671ADDGF104991999999999999999999
0035028360999991920071620004+67367+026650FM-12+018199999V0202701N002119999999N0000001N9+01721+99999098661ADDGF108991999999999999999999MW1621
0046028360999991920071706004+67367+026650FM-12+018199999V0202301N004119999999N0000001N9+01831+99999098551ADDAJ100009199999999GF102991999999999999999999
0029028360999991920071713004+67367+026650FM-12+018199999V0209991C000019999999N0000001N9+01561+99999098581ADDGF108991999999999999999999
0029028360999991920071720004+67367+026650FM-12+018199999V0209991C000019999999N0000001N9+01561+99999098671ADDGF108991999999999999999999
0046028360999991920071806004+67367+026650FM-12+018199999V0200901N001019999999N0000001N9+01441+99999098781ADDAJ100009199999999GF101991999999999999999999
0029028360999991920071813004+67367+026650FM-12+018199999V0209991C000019999999N0000001N9+01671+99999098481ADDGF106991999999999999999999
0035028360999991920071820004+67367+026650FM-12+018199999V0201101N003119999999N0000001N9+01221+99999098041ADDGF108991999999999999999999MW1621
0052028360999991920071906004+67367+026650FM-12+018199999V0201801N006219999999N0000001N9+01561+99999096951ADDAJ100009199999999GF108991999999999999999999MW1621
0035028360999991920071913004+67367+026650FM-12+018199999V0202901N002119999999N0000001N9+01331+99999096981ADDGF108991999999999999999999MW1621
0035028360999991920071920004+67367+026650FM-12+018199999V0202501N003119999999N0000001N9+01171+99999097001ADDGF106991999999999999999999MW1621
0052028360999991920072006004+67367+026650FM-12+018199999V0202701N006219999999N0000001N9+01001+99999096951ADDAJ100009199999999GF103991999999999999999999MW1621
0035028360999991920072013004+67367+026650FM-12+018199999V0202901N011819999999N0000001N9+01441+99999096941ADDGF105991999999999999999999MW1621
0035028360999991920072020004+67367+026650FM-12+018199999V0202901N003119999999N0000001N9+01001+99999097071ADDGF106991999999999999999999MW1621
0046028360999991920072106004+67367+026650FM-12+018199999V0203201N005119999999N0000001N9+00941+99999096991ADDAJ100009199999999GF108991999999999999999999
0029028360999991920072113004+67367+026650FM-12+018199999V0203401N006219999999N0000001N9+01171+99999097151ADDGF108991999999999999999999
0029028360999991920072120004+67367+026650FM-12+018199999V0209991C000019999999N0000001N9+00941+99999097311ADDGF106991999999999999999999
0046028360999991920072206004+67367+026650FM-12+018199999V0202901N003119999999N0000001N9+01061+99999097511ADDAJ100009199999999GF102991999999999999999999
0029028360999991920072213004+67367+026650FM-12+018199999V0202301N005119999999N0000001N9+01781+99999097591ADDGF105991999999999999999999
0029028360999991920072220004+67367+026650FM-12+018199999V0203201N001019999999N0000001N9+01171+99999097781ADDGF106991999999999999999999
0046028360999991920072306004+67367+026650FM-12+018199999V0202501N002119999999N0000001N9+01221+99999097921ADDAJ100009199999999GF105991999999999999999999
0035028360999991920072313004+67367+026650FM-12+018199999V0202501N002119999999N0000001N9+01891+99999097761ADDGF105991999999999999999999MW1621
0035028360999991920072320004+67367+026650FM-12+018199999V0200901N003119999999N0000001N9+01111+99999097351ADDGF108991999999999999999999MW1621
0046028360999991920072406004+67367+026650FM-12+018199999V0201801N005119999999N0000001N9+01331+99999096911ADDAJ100009199999999GF106991999999999999999999
0029028360999991920072413004+67367+026650FM-12+018199999V0202301N008219999999N0000001N9+01891+99999097461ADDGF102991999999999999999999
0029028360999991920072420004+67367+026650FM-12+018199999V0201801N004119999999N0000001N9+01501+99999097831ADDGF106991999999999999999999
0052028360999991920072506004+67367+026650FM-12+018199999V0201801N005119999999N0000001N9+01331+99999097911ADDAJ100009199999999GF108991999999999999999999MW1621
0029028360999991920072513004+67367+026650FM-12+018199999V0201801N003119999999N0000001N9+01721+99999098081ADDGF106991999999999999999999
0029028360999991920072520004+67367+026650FM-12+018199999V0209991C000019999999N0000001N9+01611+99999098021ADDGF105991999999999999999999
0052028360999991920072606004+67367+026650FM-12+018199999V0201401N005119999999N0000001N9+01441+99999097021ADDAJ100009199999999GF108991999999999999999999MW1621
0029028360999991920072613004+67367+026650FM-12+018199999V0201601N005119999999N0000001N9+01611+99999097181ADDGF103991999999999999999999
0029028360999991920072620004+67367+026650FM-12+018199999V0201401N002119999999N0000001N9+01171+99999097031ADDGF106991999999999999999999
0046028360999991920072706004+67367+026650FM-12+018199999V0202001N002119999999N0000001N9+01221+99999097191ADDAJ100009199999999GF108991999999999999999999
0029028360999991920072713004+67367+026650FM-12+018199999V0202701N005119999999N0000001N9+01441+99999097941ADDGF106991999999999999999999
0029028360999991920072720004+67367+026650FM-12+018199999V0202301N003119999999N0000001N9+01281+99999098441ADDGF103991999999999999999999
0046028360999991920072806004+67367+026650FM-12+018199999V0202001N002119999999N0000001N9+01111+99999098601ADDAJ100009199999999GF106991999999999999999999
0029028360999991920072813004+67367+026650FM-12+018199999V0201801N003119999999N0000001N9+01501+99999098551ADDGF108991999999999999999999
0035028360999991920072820004+67367+026650FM-12+018199999V0209991C000019999999N0000001N9+01281+99999098461ADDGF107991999999999999999999MW1621
0046028360999991920072906004+67367+026650FM-12+018199999V0209991C000019999999N0000001N9+01221+99999098441ADDAJ100009199999999GF108991999999999999999999
0029028360999991920072913004+67367+026650FM-12+018199999V0209991C000019999999N0000001N9+01501+99999098391ADDGF107991999999999999999999
0035028360999991920072920004+67367+026650FM-12+018199999V0209991C000019999999N0000001N9+01111+99999098461ADDGF105991999999999999999999MW1621
0046028360999991920073006004+67367+026650FM-12+018199999V0202001N002119999999N0000001N9+01061+99999098631ADDAJ100009199999999GF108991999999999999999999
0029028360999991920073013004+67367+026650FM-12+018199999V0202001N006219999999N0000001N9+01671+99999098701ADDGF106991999999999999999999
0029028360999991920073020004+67367+026650FM-12+018199999V0202001N001019999999N0000001N9+01331+99999098801ADDGF100991999999999999999999
0046028360999991920073106004+67367+026650FM-12+018199999V0202001N001019999999N0000001N9+01281+99999098921ADDAJ100009199999999GF106991999999999999999999
0029028360999991920073113004+67367+026650FM-12+018199999V0201401N005119999999N0000001N9+02221+99999098791ADDGF104991999999999999999999
0035028360999991920073120004+67367+026650FM-12+018199999V0209991C000019999999N0000001N9+01501+99999098751ADDGF108991999999999999999999MW1621
0046028360999991920080106004+67367+026650FM-12+018199999V0209991C000019999999N0000001N9+01501+99999098911ADDAJ100009199999999GF100991999999999999999999
0029028360999991920080113004+67367+026650FM-12+018199999V0200201N003119999999N0000001N9+02111+99999098901ADDGF107991999999999999999999
0029028360999991920080120004+67367+026650FM-12+018199999V0200501N004119999999N0000001N9+01501+99999098711ADDGF107991999999999999999999
0046028360999991920080206004+67367+026650FM-12+018199999V0209991C000019999999N0000001N9+01501+99999098231ADDAJ100009199999999GF108991999999999999999999
0029028360999991920080213004+67367+026650FM-12+018199999V0200901N002119999999N0000001N9+01831+99999097941ADDGF108991999999999999999999
0029028360999991920080220004+67367+026650FM-12+018199999V0201801N001019999999N0000001N9+01501+99999097871ADDGF106991999999999999999999
0052028360999991920080306004+67367+026650FM-12+018199999V0202301N003119999999N0000001N9+01331+99999097901ADDAJ100009199999999GF108991999999999999999999MW1621
0029028360999991920080313004+67367+026650FM-12+018199999V0201801N004119999999N0000001N9+01561+99999098121ADDGF106991999999999999999999
0035028360999991920080320004+67367+026650FM-12+018199999V0201601N006219999999N0000001N9+01171+99999097991ADDGF108991999999999999999999MW1621
0046028360999991920080406004+67367+026650FM-12+018199999V0202501N005119999999N0000001N9+01221+99999098681ADDAJ100009199999999GF106991999999999999999999
0029028360999991920080413004+67367+026650FM-12+018199999V0202301N003119999999N0000001N9+01831+99999098921ADDGF106991999999999999999999
0029028360999991920080420004+67367+026650FM-12+018199999V0200901N003119999999N0000001N9+01671+99999098601ADDGF108991999999999999999999
0052028360999991920080506004+67367+026650FM-12+018199999V0202001N006219999999N0000001N9+01331+99999098221ADDAJ100009199999999GF106991999999999999999999MW1621
0035028360999991920080513004+67367+026650FM-12+018199999V0202001N007219999999N0000001N9+01171+99999098161ADDGF108991999999999999999999MW1621
0029028360999991920080520004+67367+026650FM-12+018199999V0202301N003119999999N0000001N9+01281+99999098601ADDGF104991999999999999999999
0046028360999991920080606004+67367+026650FM-12+018199999V0202001N005119999999N0000001N9+01281+99999099161ADDAJ100009199999999GF104991999999999999999999
0029028360999991920080613004+67367+026650FM-12+018199999V0202001N004119999999N0000001N9+01781+99999099161ADDGF107991999999999999999999
0029028360999991920080620004+67367+026650FM-12+018199999V0209991C000019999999N0000001N9+01171+99999099111ADDGF108991999999999999999999
0046028360999991920080706004+67367+026650FM-12+018199999V0201401N004119999999N0000001N9+01561+99999098761ADDAJ100009199999999GF100991999999999999999999
0035028360999991920080713004+67367+026650FM-12+018199999V0201801N003119999999N0000001N9+01941+99999098461ADDGF108991999999999999999999MW1621
0035028360999991920080720004+67367+026650FM-12+018199999V0201801N001019999999N0000001N9+01611+99999098381ADDGF108991999999999999999999MW1621
0052028360999991920080806004+67367+026650FM-12+018199999V0209991C000019999999N0000001N9+01331+99999098151ADDAJ100009199999999GF108991999999999999999999MW1621
0029028360999991920080813004+67367+026650FM-12+018199999V0202501N002119999999N0000001N9+01721+99999098421ADDGF103991999999999999999999
0029028360999991920080820004+67367+026650FM-12+018199999V0209991C000019999999N0000001N9+01391+99999098481ADDGF102991999999999999999999
0052028360999991920080906004+67367+026650FM-12+018199999V0203201N004119999999N0000001N9+01281+99999098321ADDAJ100009199999999GF108991999999999999999999MW1621
0035028360999991920080913004+67367+026650FM-12+018199999V0203601N005119999999N0000001N9+01111+99999098511ADDGF108991999999999999999999MW1621
0035028360999991920080920004+67367+026650FM-12+018199999V0203601N003119999999N0000001N9+01061+99999098841ADDGF108991999999999999999999MW1621
0046028360999991920081006004+67367+026650FM-12+018199999V0200201N002119999999N0000001N9+00891+99999099481ADDAJ100009199999999GF108991999999999999999999
0029028360999991920081013004+67367+026650FM-12+018199999V0200201N002119999999N0000001N9+01221+99999099591ADDGF108991999999999999999999
0029028360999991920081020004+67367+026650FM-12+018199999V0200201N002119999999N0000001N9+01111+99999099591ADDGF107991999999999999999999
0052028360999991920081106004+67367+026650FM-12+018199999V0209991C000019999999N0000001N9+01061+99999099721ADDAJ100009199999999GF108991999999999999999999MW1601
0029028360999991920081113004+67367+026650FM-12+018199999V0200501N002119999999N0000001N9+01391+99999099721ADDGF106991999999999999999999
0029028360999991920081120004+67367+026650FM-12+018199999V0209991C000019999999N0000001N9+01061+99999099671ADDGF106991999999999999999999
0046028360999991920081206004+67367+026650FM-12+018199999V0209991C000019999999N0000001N9+01221+99999099581ADDAJ100009199999999GF108991999999999999999999
0029028360999991920081213004+67367+026650FM-12+018199999V0200501N001019999999N0000001N9+01671+99999099431ADDGF105991999999999999999999
0029028360999991920081220004+67367+026650FM-12+018199999V0209991C000019999999N0000001N9+01111+99999099351ADDGF103991999999999999999999
0046028360999991920081306004+67367+026650FM-12+018199999V0200701N001019999999N0000001N9+01171+99999099061ADDAJ100009199999999GF108991999999999999999999
0029028360999991920081313004+67367+026650FM-12+018199999V0202001N005119999999N0000001N9+01721+99999098821ADDGF108991999999999999999999
0029028360999991920081320004+67367+026650FM-12+018199999V0202701N003119999999N0000001N9+01331+99999098671ADDGF103991999999999999999999
0046028360999991920081406004+67367+026650FM-12+018199999V0202301N004119999999N0000001N9+01221+99999098361ADDAJ100009199999999GF100991999999999999999999
0029028360999991920081413004+67367+026650FM-12+018199999V0202001N006219999999N0000001N9+01501+99999098201ADDGF108991999999999999999999
0029028360999991920081420004+67367+026650FM-12+018199999V0202301N003119999999N0000001N9+01391+99999098041ADDGF108991999999999999999999
0052028360999991920081506004+67367+026650FM-12+018199999V0202001N003119999999N0000001N9+01001+99999097831ADDAJ100009199999999GF108991999999999999999999MW1621
0029028360999991920081513004+67367+026650FM-12+018199999V0209991C000019999999N0000001N9+00941+99999097801ADDGF108991999999999999999999
0029028360999991920081520004+67367+026650FM-12+018199999V0209991C000019999999N0000001N9+00941+99999097911ADDGF106991999999999999999999
0046028360999991920081606004+67367+026650FM-12+018199999V0209991C000019999999N0000001N9+00831+99999098071ADDAJ100009199999999GF102991999999999999999999
0029028360999991920081613004+67367+026650FM-12+018199999V0202701N002119999999N0000001N9+01391+99999098141ADDGF105991999999999999999999
0029028360999991920081620004+67367+026650FM-12+018199999V0202301N001019999999N0000001N9+01001+99999098141ADDGF106991999999999999999999
0046028360999991920081706004+67367+026650FM-12+018199999V0202001N003119999999N0000001N9+01061+99999098041ADDAJ100009199999999GF108991999999999999999999
0035028360999991920081713004+67367+026650FM-12+018199999V0201801N002119999999N0000001N9+01221+99999097961ADDGF108991999999999999999999MW1621
0035028360999991920081720004+67367+026650FM-12+018199999V0201401N003119999999N0000001N9+00941+99999097301ADDGF108991999999999999999999MW1621
0046028360999991920081806004+67367+026650FM-12+018199999V0202301N007219999999N0000001N9+00831+99999096881ADDAJ100009199999999GF107991999999999999999999
0035028360999991920081813004+67367+026650FM-12+018199999V0202701N007219999999N0000001N9+00941+99999097241ADDGF108991999999999999999999MW1621
0029028360999991920081820004+67367+026650FM-12+018199999V0202701N006219999999N0000001N9+01001+99999097671ADDGF102991999999999999999999
0046028360999991920081906004+67367+026650FM-12+018199999V0209991C000019999999N0000001N9+00831+99999098441ADDAJ100009199999999GF100991999999999999999999
0029028360999991920081913004+67367+026650FM-12+018199999V0202901N004119999999N0000001N9+01281+99999098761ADDGF104991999999999999999999
0029028360999991920081920004+67367+026650FM-12+018199999V0203601N002119999999N0000001N9+00831+99999098951ADDGF104991999999999999999999
0046028360999991920082006004+67367+026650FM-12+018199999V0209991C000019999999N0000001N9+00611+99999099441ADDAJ100009199999999GF100991999999999999999999
0029028360999991920082013004+67367+026650FM-12+018199999V0203201N003119999999N0000001N9+01331+99999099541ADDGF105991999999999999999999
0029028360999991920082020004+67367+026650FM-12+018199999V0209991C000019999999N0000001N9+00501+99999099791ADDGF101991999999999999999999
0046028360999991920082106004+67367+026650FM-12+018199999V0209991C000019999999N0000001N9+00611+99999100351ADDAJ100009199999999GF100991999999999999999999
0029028360999991920082113004+67367+026650FM-12+018199999V0202301N001019999999N0000001N9+01721+99999100391ADDGF100991999999999999999999
0029028360999991920082120004+67367+026650FM-12+018199999V0202701N002119999999N0000001N9+00721+99999100341ADDGF106991999999999999999999
0046028360999991920082206004+67367+026650FM-12+018199999V0209991C000019999999N0000001N9+01001+99999100271ADDAJ100009199999999GF106991999999999999999999
0029028360999991920082213004+67367+026650FM-12+018199999V0209991C000019999999N0000001N9+01781+99999100121ADDGF104991999999999999999999
0029028360999991920082220004+67367+026650FM-12+018199999V0209991C000019999999N0000001N9+00781+99999100061ADDGF101991999999999999999999
0046028360999991920082306004+67367+026650FM-12+018199999V0209991C000019999999N0000001N9+01111+99999100041ADDAJ100009199999999GF102991999999999999999999
0029028360999991920082313004+67367+026650FM-12+018199999V0202301N003119999999N0000001N9+02001+99999099941ADDGF100991999999999999999999
0029028360999991920082320004+67367+026650FM-12+018199999V0209991C000019999999N0000001N9+00831+99999099941ADDGF100991999999999999999999
0046028360999991920082406004+67367+026650FM-12+018199999V0209991C000019999999N0000001N9+01171+99999099991ADDAJ100009199999999GF100991999999999999999999
0029028360999991920082413004+67367+026650FM-12+018199999V0202001N004119999999N0000001N9+02111+99999099881ADDGF100991999999999999999999
0029028360999991920082420004+67367+026650FM-12+018199999V0209991C000019999999N0000001N9+01061+99999099881ADDGF100991999999999999999999
0046028360999991920082506004+67367+026650FM-12+018199999V0201601N002119999999N0000001N9+01171+99999099911ADDAJ100009199999999GF100991999999999999999999
0029028360999991920082513004+67367+026650FM-12+018199999V0201601N005119999999N0000001N9+02001+99999099741ADDGF100991999999999999999999
0029028360999991920082520004+67367+026650FM-12+018199999V0209991C000019999999N0000001N9+01111+99999099671ADDGF101991999999999999999999
0046028360999991920082606004+67367+026650FM-12+018199999V0201601N001019999999N0000001N9+01171+99999099751ADDAJ100009199999999GF101991999999999999999999
0029028360999991920082613004+67367+026650FM-12+018199999V0202001N004119999999N0000001N9+01941+99999099841ADDGF102991999999999999999999
0029028360999991920082620004+67367+026650FM-12+018199999V0209991C000019999999N0000001N9+01001+99999099981ADDGF106991999999999999999999
0046028360999991920082706004+67367+026650FM-12+018199999V0201401N003119999999N0000001N9+01061+99999100081ADDAJ100009199999999GF108991999999999999999999
